{
  "contractName": "Billing",
  "abi": [
    {
      "inputs": [],
      "stateMutability": "nonpayable",
      "type": "constructor"
    },
    {
      "anonymous": false,
      "inputs": [
        {
          "indexed": false,
          "internalType": "address",
          "name": "phoneHash",
          "type": "address"
        },
        {
          "indexed": false,
          "internalType": "string",
          "name": "ref",
          "type": "string"
        },
        {
          "indexed": false,
          "internalType": "uint256",
          "name": "acceptanceTimestamp",
          "type": "uint256"
        },
        {
          "indexed": false,
          "internalType": "uint256",
          "name": "idProduct",
          "type": "uint256"
        }
      ],
      "name": "AcceptanceReceived",
      "type": "event"
    },
    {
      "anonymous": false,
      "inputs": [
        {
          "indexed": false,
          "internalType": "address",
          "name": "phoneHash",
          "type": "address"
        },
        {
          "indexed": false,
          "internalType": "string",
          "name": "ref",
          "type": "string"
        }
      ],
      "name": "Acknowledge",
      "type": "event"
    },
    {
      "anonymous": false,
      "inputs": [
        {
          "indexed": false,
          "internalType": "address",
          "name": "phoneHash",
          "type": "address"
        },
        {
          "indexed": false,
          "internalType": "string",
          "name": "ref",
          "type": "string"
        },
        {
          "indexed": false,
          "internalType": "uint256",
          "name": "acceptanceTimestamp",
          "type": "uint256"
        },
        {
          "indexed": false,
          "internalType": "uint256",
          "name": "idProduct",
          "type": "uint256"
        }
      ],
      "name": "Confirmation",
      "type": "event"
    },
    {
      "anonymous": false,
      "inputs": [
        {
          "indexed": false,
          "internalType": "address",
          "name": "phoneHash",
          "type": "address"
        }
      ],
      "name": "CustomerIsDeleted",
      "type": "event"
    },
    {
      "anonymous": false,
      "inputs": [
        {
          "indexed": false,
          "internalType": "address",
          "name": "phoneHash",
          "type": "address"
        },
        {
          "indexed": false,
          "internalType": "enum Billing.CustomerStatus",
          "name": "status",
          "type": "uint8"
        }
      ],
      "name": "CustomerStatusChange",
      "type": "event"
    },
    {
      "anonymous": false,
      "inputs": [
        {
          "indexed": true,
          "internalType": "address",
          "name": "previousOwner",
          "type": "address"
        },
        {
          "indexed": true,
          "internalType": "address",
          "name": "newOwner",
          "type": "address"
        }
      ],
      "name": "OwnershipTransferred",
      "type": "event"
    },
    {
      "anonymous": false,
      "inputs": [
        {
          "indexed": false,
          "internalType": "address",
          "name": "phoneHash",
          "type": "address"
        },
        {
          "indexed": false,
          "internalType": "uint8",
          "name": "score",
          "type": "uint8"
        }
      ],
      "name": "ScoreChange",
      "type": "event"
    },
    {
      "anonymous": false,
      "inputs": [
        {
          "indexed": false,
          "internalType": "address",
          "name": "phoneHash",
          "type": "address"
        },
        {
          "indexed": false,
          "internalType": "string",
          "name": "ref",
          "type": "string"
        }
      ],
      "name": "TopUpReceived",
      "type": "event"
    },
    {
      "inputs": [
        {
          "internalType": "address",
          "name": "",
          "type": "address"
        }
      ],
      "name": "customerList",
      "outputs": [
        {
          "internalType": "uint256",
          "name": "idCustomer",
          "type": "uint256"
        },
        {
          "internalType": "enum Billing.CustomerStatus",
          "name": "status",
          "type": "uint8"
        }
      ],
      "stateMutability": "view",
      "type": "function",
      "constant": true
    },
    {
      "inputs": [
        {
          "internalType": "uint256",
          "name": "",
          "type": "uint256"
        }
      ],
      "name": "customers",
      "outputs": [
        {
          "internalType": "enum Billing.CustomerStatus",
          "name": "status",
          "type": "uint8"
        },
        {
          "internalType": "uint8",
          "name": "score",
          "type": "uint8"
        },
        {
          "internalType": "uint256",
          "name": "nbTopUp",
          "type": "uint256"
        },
        {
          "internalType": "uint256",
          "name": "amount",
          "type": "uint256"
        },
        {
          "internalType": "uint256",
          "name": "firstTopUp",
          "type": "uint256"
        },
        {
          "internalType": "uint256",
          "name": "lastAcceptanceID",
          "type": "uint256"
        }
      ],
      "stateMutability": "view",
      "type": "function",
      "constant": true
    },
    {
      "inputs": [
        {
          "internalType": "uint256",
          "name": "",
          "type": "uint256"
        }
      ],
      "name": "histories",
      "outputs": [
        {
          "internalType": "string",
          "name": "ref",
          "type": "string"
        },
        {
          "internalType": "uint256",
          "name": "acceptanceTimestamp",
          "type": "uint256"
        },
        {
          "internalType": "uint256",
          "name": "paidTimestamp",
          "type": "uint256"
        },
        {
          "internalType": "enum Billing.HistoryStatus",
          "name": "status",
          "type": "uint8"
        },
        {
          "internalType": "uint256",
          "name": "idProduct",
          "type": "uint256"
        }
      ],
      "stateMutability": "view",
      "type": "function",
      "constant": true
    },
    {
      "inputs": [
        {
          "internalType": "address",
          "name": "",
          "type": "address"
        },
        {
          "internalType": "uint256",
          "name": "",
          "type": "uint256"
        }
      ],
      "name": "historyList",
      "outputs": [
        {
          "internalType": "uint256",
          "name": "",
          "type": "uint256"
        }
      ],
      "stateMutability": "view",
      "type": "function",
      "constant": true
    },
    {
      "inputs": [],
      "name": "owner",
      "outputs": [
        {
          "internalType": "address",
          "name": "",
          "type": "address"
        }
      ],
      "stateMutability": "view",
      "type": "function",
      "constant": true
    },
    {
      "inputs": [],
      "name": "renounceOwnership",
      "outputs": [],
      "stateMutability": "nonpayable",
      "type": "function"
    },
    {
      "inputs": [
        {
          "internalType": "address",
          "name": "newOwner",
          "type": "address"
        }
      ],
      "name": "transferOwnership",
      "outputs": [],
      "stateMutability": "nonpayable",
      "type": "function"
    },
    {
      "inputs": [
        {
          "internalType": "address",
          "name": "_phoneHash",
          "type": "address"
        }
      ],
      "name": "getCustomer",
      "outputs": [
        {
          "components": [
            {
              "internalType": "enum Billing.CustomerStatus",
              "name": "status",
              "type": "uint8"
            },
            {
              "internalType": "uint8",
              "name": "score",
              "type": "uint8"
            },
            {
              "internalType": "uint256",
              "name": "nbTopUp",
              "type": "uint256"
            },
            {
              "internalType": "uint256",
              "name": "amount",
              "type": "uint256"
            },
            {
              "internalType": "uint256",
              "name": "firstTopUp",
              "type": "uint256"
            },
            {
              "internalType": "uint256",
              "name": "lastAcceptanceID",
              "type": "uint256"
            }
          ],
          "internalType": "struct Billing.Customer",
          "name": "",
          "type": "tuple"
        }
      ],
      "stateMutability": "view",
      "type": "function",
      "constant": true
    },
    {
      "inputs": [
        {
          "internalType": "address",
          "name": "_phoneHash",
          "type": "address"
        }
      ],
      "name": "isActiveCustomer",
      "outputs": [
        {
          "internalType": "bool",
          "name": "",
          "type": "bool"
        }
      ],
      "stateMutability": "view",
      "type": "function",
      "constant": true
    },
    {
      "inputs": [
        {
          "internalType": "address",
          "name": "_phoneHash",
          "type": "address"
        },
        {
          "internalType": "enum Billing.CustomerStatus",
          "name": "_status",
          "type": "uint8"
        }
      ],
      "name": "changeCustomerStatus",
      "outputs": [],
      "stateMutability": "nonpayable",
      "type": "function"
    },
    {
      "inputs": [
        {
          "internalType": "address",
          "name": "_phoneHash",
          "type": "address"
        }
      ],
      "name": "getScore",
      "outputs": [
        {
          "internalType": "uint8",
          "name": "",
          "type": "uint8"
        }
      ],
      "stateMutability": "view",
      "type": "function",
      "constant": true
    },
    {
      "inputs": [
        {
          "internalType": "address",
          "name": "_phoneHash",
          "type": "address"
        }
      ],
      "name": "addToScore",
      "outputs": [],
      "stateMutability": "nonpayable",
      "type": "function"
    },
    {
      "inputs": [
        {
          "internalType": "address",
          "name": "_phoneHash",
          "type": "address"
        },
        {
          "internalType": "uint8",
          "name": "_score",
          "type": "uint8"
        }
      ],
      "name": "changeScore",
      "outputs": [],
      "stateMutability": "nonpayable",
      "type": "function"
    },
    {
      "inputs": [
        {
          "internalType": "address",
          "name": "_phoneHash",
          "type": "address"
        }
      ],
      "name": "getHistorySize",
      "outputs": [
        {
          "internalType": "uint256",
          "name": "",
          "type": "uint256"
        }
      ],
      "stateMutability": "view",
      "type": "function",
      "constant": true
    },
    {
      "inputs": [],
      "name": "getHistoriesSize",
      "outputs": [
        {
          "internalType": "uint256",
          "name": "",
          "type": "uint256"
        }
      ],
      "stateMutability": "view",
      "type": "function",
      "constant": true
    },
    {
      "inputs": [
        {
          "internalType": "address",
          "name": "_phoneHash",
          "type": "address"
        },
        {
          "internalType": "uint256",
          "name": "_amount",
          "type": "uint256"
        }
      ],
      "name": "addToCustomerAmount",
      "outputs": [],
      "stateMutability": "nonpayable",
      "type": "function"
    },
    {
      "inputs": [
        {
          "internalType": "address",
          "name": "_phoneHash",
          "type": "address"
        },
        {
          "internalType": "string",
          "name": "_ref",
          "type": "string"
        },
        {
          "internalType": "uint256",
          "name": "_acceptanceTimestamp",
          "type": "uint256"
        },
        {
          "internalType": "uint256",
          "name": "_idProduct",
          "type": "uint256"
        }
      ],
      "name": "acceptanceBilling",
      "outputs": [],
      "stateMutability": "nonpayable",
      "type": "function"
    },
    {
      "inputs": [
        {
          "internalType": "address",
          "name": "_phoneHash",
          "type": "address"
        },
        {
          "internalType": "uint256",
          "name": "_paidTimestamp",
          "type": "uint256"
        }
      ],
      "name": "topUpBilling",
      "outputs": [],
      "stateMutability": "nonpayable",
      "type": "function"
    },
    {
      "inputs": [
        {
          "components": [
            {
              "internalType": "enum Billing.CustomerStatus",
              "name": "status",
              "type": "uint8"
            },
            {
              "internalType": "uint8",
              "name": "score",
              "type": "uint8"
            },
            {
              "internalType": "uint256",
              "name": "nbTopUp",
              "type": "uint256"
            },
            {
              "internalType": "uint256",
              "name": "amount",
              "type": "uint256"
            },
            {
              "internalType": "uint256",
              "name": "firstTopUp",
              "type": "uint256"
            },
            {
              "internalType": "uint256",
              "name": "lastAcceptanceID",
              "type": "uint256"
            }
          ],
          "internalType": "struct Billing.Customer",
          "name": "_customer",
          "type": "tuple"
        }
      ],
      "name": "process",
      "outputs": [
        {
          "internalType": "uint8",
          "name": "",
          "type": "uint8"
        }
      ],
      "stateMutability": "view",
      "type": "function",
      "constant": true
    }
  ],
  "bytecode": "0x60806040523480156200001157600080fd5b5062000032620000266200003860201b60201c565b6200004060201b60201c565b62000104565b600033905090565b60008060009054906101000a900473ffffffffffffffffffffffffffffffffffffffff169050816000806101000a81548173ffffffffffffffffffffffffffffffffffffffff021916908373ffffffffffffffffffffffffffffffffffffffff1602179055508173ffffffffffffffffffffffffffffffffffffffff168173ffffffffffffffffffffffffffffffffffffffff167f8be0079c531659141344cd1fd0a4f28419497f9722a3daafe3b4186f6b6457e060405160405180910390a35050565b6132c480620001146000396000f3fe608060405234801561001057600080fd5b50600436106101215760003560e01c80639ef91d91116100ad578063d8dd182711610071578063d8dd182714610347578063f2fde38b14610363578063f3963cba1461037f578063f4274bc51461039b578063fcdc4eb7146103cc57610121565b80639ef91d9114610252578063c0abda2a14610282578063c23a179f146102b7578063cb949e51146102e7578063d47875d01461031757610121565b8063715018a6116100f4578063715018a6146101c25780637a67e6cc146101cc5780638da5cb5b146101e857806393d08f2414610206578063994155681461022257610121565b80633ef3e0cb1461012657806345df77791461014257806356564b7c1461015e5780636c34ba1814610192575b600080fd5b610140600480360381019061013b919061268a565b6103ea565b005b61015c6004803603810190610157919061264a565b610597565b005b610178600480360381019061017391906126f7565b6109f3565b604051610189959493929190612b16565b60405180910390f35b6101ac60048036038101906101a791906126ca565b610ace565b6040516101b99190612c8f565b60405180910390f35b6101ca610c8d565b005b6101e660048036038101906101e191906125c7565b610d15565b005b6101f06112b1565b6040516101fd91906129b1565b60405180910390f35b610220600480360381019061021b9190612587565b6112da565b005b61023c6004803603810190610237919061264a565b6114db565b6040516102499190612c4b565b60405180910390f35b61026c6004803603810190610267919061255a565b61150c565b6040516102799190612a9a565b60405180910390f35b61029c600480360381019061029791906126f7565b61159a565b6040516102ae96959493929190612ab5565b60405180910390f35b6102d160048036038101906102cc919061255a565b611600565b6040516102de9190612c4b565b60405180910390f35b61030160048036038101906102fc919061255a565b6116c8565b60405161030e9190612c30565b60405180910390f35b610331600480360381019061032c919061255a565b61187d565b60405161033e9190612c8f565b60405180910390f35b610361600480360381019061035c919061264a565b611a2f565b005b61037d6004803603810190610378919061255a565b611c62565b005b6103996004803603810190610394919061255a565b611d5a565b005b6103b560048036038101906103b0919061255a565b612182565b6040516103c3929190612c66565b60405180910390f35b6103d46121b3565b6040516103e19190612c4b565b60405180910390f35b6103f261223c565b73ffffffffffffffffffffffffffffffffffffffff166104106112b1565b73ffffffffffffffffffffffffffffffffffffffff1614610466576040517f08c379a000000000000000000000000000000000000000000000000000000000815260040161045d90612c10565b60405180910390fd5b806001600260008573ffffffffffffffffffffffffffffffffffffffff1673ffffffffffffffffffffffffffffffffffffffff16815260200190815260200160002060000154815481106104bd576104bc613047565b5b906000526020600020906005020160000160016101000a81548160ff021916908360ff1602179055507f67300a8a7a64e6ba305144189169d4bf615482b42e8fd241a6c5fc20879374a7826001600260008673ffffffffffffffffffffffffffffffffffffffff1673ffffffffffffffffffffffffffffffffffffffff168152602001908152602001600020600001548154811061055e5761055d613047565b5b906000526020600020906005020160000160019054906101000a900460ff1660405161058b929190612a71565b60405180910390a15050565b61059f61223c565b73ffffffffffffffffffffffffffffffffffffffff166105bd6112b1565b73ffffffffffffffffffffffffffffffffffffffff1614610613576040517f08c379a000000000000000000000000000000000000000000000000000000000815260040161060a90612c10565b60405180910390fd5b6000600460008473ffffffffffffffffffffffffffffffffffffffff1673ffffffffffffffffffffffffffffffffffffffff1681526020019081526020016000208054905011610698576040517f08c379a000000000000000000000000000000000000000000000000000000000815260040161068f90612bf0565b60405180910390fd5b6000600460008473ffffffffffffffffffffffffffffffffffffffff1673ffffffffffffffffffffffffffffffffffffffff1681526020019081526020016000206001600460008673ffffffffffffffffffffffffffffffffffffffff1673ffffffffffffffffffffffffffffffffffffffff168152602001908152602001600020805490506107289190612df9565b8154811061073957610738613047565b5b906000526020600020015490506000600181111561075a57610759612fe9565b5b6003828154811061076e5761076d613047565b5b906000526020600020906005020160030160009054906101000a900460ff16600181111561079f5761079e612fe9565b5b146107df576040517f08c379a00000000000000000000000000000000000000000000000000000000081526004016107d690612b70565b60405180910390fd5b7fa3a756c9361873f5cd34cb71ba3b6ebc76b90321aa2767387c016991dfb4f63a836003838154811061081557610814613047565b5b9060005260206000209060050201600001604051610834929190612a41565b60405180910390a160006001600260008673ffffffffffffffffffffffffffffffffffffffff1673ffffffffffffffffffffffffffffffffffffffff168152602001908152602001600020600001548154811061089457610893613047565b5b906000526020600020906005020160030154141561091957426001600260008673ffffffffffffffffffffffffffffffffffffffff1673ffffffffffffffffffffffffffffffffffffffff168152602001908152602001600020600001548154811061090357610902613047565b5b9060005260206000209060050201600301819055505b816003828154811061092e5761092d613047565b5b90600052602060002090600502016002018190555060016003828154811061095957610958613047565b5b906000526020600020906005020160030160006101000a81548160ff0219169083600181111561098c5761098b612fe9565b5b02179055507fd3866d48a40f2de06c735e96a984d47ce6783b334002603c31e3f4bc05bd51c583600383815481106109c7576109c6613047565b5b90600052602060002090600502016000016040516109e6929190612a41565b60405180910390a1505050565b60038181548110610a0357600080fd5b9060005260206000209060050201600091509050806000018054610a2690612f0e565b80601f0160208091040260200160405190810160405280929190818152602001828054610a5290612f0e565b8015610a9f5780601f10610a7457610100808354040283529160200191610a9f565b820191906000526020600020905b815481529060010190602001808311610a8257829003601f168201915b5050505050908060010154908060020154908060030160009054906101000a900460ff16908060040154905085565b600080600080600080866060015110158015610af05750610fa0866060015111155b15610afe5760019250610b2d565b610fa08660600151118015610b195750613a98866060015111155b15610b275760029250610b2c565b600392505b5b6276a70042610b3c9190612df9565b866080015110610b4f5760009150610bd9565b6276a70042610b5e9190612df9565b8660800151108015610b82575062ed4e0042610b7a9190612df9565b866080015110155b15610b905760029150610bd8565b62ed4e0042610b9f9190612df9565b8660800151108015610bc457506301b30f0042610bbc9190612df9565b866080015110155b15610bd25760069150610bd7565b600f91505b5b5b600086604001511415610bef5760009050610c44565b60008660400151118015610c085750600a866040015111155b15610c165760019050610c43565b600a8660400151118015610c2f57506014866040015111155b15610c3d5760059050610c42565b600f90505b5b5b600881610c519190612dbe565b600683610c5e9190612dbe565b600485610c6b9190612dbe565b610c759190612d87565b610c7f9190612d87565b935083945050505050919050565b610c9561223c565b73ffffffffffffffffffffffffffffffffffffffff16610cb36112b1565b73ffffffffffffffffffffffffffffffffffffffff1614610d09576040517f08c379a0000000000000000000000000000000000000000000000000000000008152600401610d0090612c10565b60405180910390fd5b610d136000612244565b565b610d1d61223c565b73ffffffffffffffffffffffffffffffffffffffff16610d3b6112b1565b73ffffffffffffffffffffffffffffffffffffffff1614610d91576040517f08c379a0000000000000000000000000000000000000000000000000000000008152600401610d8890612c10565b60405180910390fd5b8360016002811115610da657610da5612fe9565b5b600260008373ffffffffffffffffffffffffffffffffffffffff1673ffffffffffffffffffffffffffffffffffffffff16815260200190815260200160002060010160009054906101000a900460ff166002811115610e0857610e07612fe9565b5b14610e48576040517f08c379a0000000000000000000000000000000000000000000000000000000008152600401610e3f90612bb0565b60405180910390fd5b7f031870b979bdc77dc0b1037a1aac37c55a178ab3bec4f8ba1ca1fc452e30578b85858585604051610e7d94939291906129f5565b60405180910390a160036040518060a001604052808681526020018581526020016000815260200160006001811115610eb957610eb8612fe9565b5b81526020018481525090806001815401808255809150506001900390600052602060002090600502016000909190919091506000820151816000019080519060200190610f07929190612308565b50602082015181600101556040820151816002015560608201518160030160006101000a81548160ff02191690836001811115610f4757610f46612fe9565b5b02179055506080820151816004015550506001600380549050610f6a9190612df9565b6001600260008873ffffffffffffffffffffffffffffffffffffffff1673ffffffffffffffffffffffffffffffffffffffff1681526020019081526020016000206000015481548110610fc057610fbf613047565b5b90600052602060002090600502016004018190555060006001600260008873ffffffffffffffffffffffffffffffffffffffff1673ffffffffffffffffffffffffffffffffffffffff168152602001908152602001600020600001548154811061102d5761102c613047565b5b90600052602060002090600502016040518060c00160405290816000820160009054906101000a900460ff16600281111561106b5761106a612fe9565b5b600281111561107d5761107c612fe9565b5b81526020016000820160019054906101000a900460ff1660ff1660ff1681526020016001820154815260200160028201548152602001600382015481526020016004820154815250509050600460008773ffffffffffffffffffffffffffffffffffffffff1673ffffffffffffffffffffffffffffffffffffffff16815260200190815260200160002060016003805490506111199190612df9565b9080600181540180825580915050600190039060005260206000200160009091909190915055600060038260a001518154811061115957611158613047565b5b90600052602060002090600502016040518060a001604052908160008201805461118290612f0e565b80601f01602080910402602001604051908101604052809291908181526020018280546111ae90612f0e565b80156111fb5780601f106111d0576101008083540402835291602001916111fb565b820191906000526020600020905b8154815290600101906020018083116111de57829003601f168201915b5050505050815260200160018201548152602001600282015481526020016003820160009054906101000a900460ff16600181111561123d5761123c612fe9565b5b600181111561124f5761124e612fe9565b5b815260200160048201548152505090507f52420d39a0f366bd8078120494fcd7ffb3971e79291fa625dd9de26e85607524878260000151836020015184608001516040516112a094939291906129f5565b60405180910390a150505050505050565b60008060009054906101000a900473ffffffffffffffffffffffffffffffffffffffff16905090565b6112e261223c565b73ffffffffffffffffffffffffffffffffffffffff166113006112b1565b73ffffffffffffffffffffffffffffffffffffffff1614611356576040517f08c379a000000000000000000000000000000000000000000000000000000000815260040161134d90612c10565b60405180910390fd5b80600260008473ffffffffffffffffffffffffffffffffffffffff1673ffffffffffffffffffffffffffffffffffffffff16815260200190815260200160002060010160006101000a81548160ff021916908360028111156113bb576113ba612fe9565b5b0217905550806001600260008573ffffffffffffffffffffffffffffffffffffffff1673ffffffffffffffffffffffffffffffffffffffff168152602001908152602001600020600001548154811061141757611416613047565b5b906000526020600020906005020160000160006101000a81548160ff0219169083600281111561144a57611449612fe9565b5b02179055507fb23cc8d2c435b48098fc64e3bfd632e00ba00d1b8be3f25b0a973438951eae7f82600260008573ffffffffffffffffffffffffffffffffffffffff1673ffffffffffffffffffffffffffffffffffffffff16815260200190815260200160002060010160009054906101000a900460ff166040516114cf9291906129cc565b60405180910390a15050565b600460205281600052604060002081815481106114f757600080fd5b90600052602060002001600091509150505481565b60006001600281111561152257611521612fe9565b5b600260008473ffffffffffffffffffffffffffffffffffffffff1673ffffffffffffffffffffffffffffffffffffffff16815260200190815260200160002060010160009054906101000a900460ff16600281111561158457611583612fe9565b5b14611590576000611593565b60015b9050919050565b600181815481106115aa57600080fd5b90600052602060002090600502016000915090508060000160009054906101000a900460ff16908060000160019054906101000a900460ff16908060010154908060020154908060030154908060040154905086565b600061160a61223c565b73ffffffffffffffffffffffffffffffffffffffff166116286112b1565b73ffffffffffffffffffffffffffffffffffffffff161461167e576040517f08c379a000000000000000000000000000000000000000000000000000000000815260040161167590612c10565b60405180910390fd5b600460008373ffffffffffffffffffffffffffffffffffffffff1673ffffffffffffffffffffffffffffffffffffffff168152602001908152602001600020805490509050919050565b6116d061238e565b600060028111156116e4576116e3612fe9565b5b600260008473ffffffffffffffffffffffffffffffffffffffff1673ffffffffffffffffffffffffffffffffffffffff16815260200190815260200160002060010160009054906101000a900460ff16600281111561174657611745612fe9565b5b1415611787576040517f08c379a000000000000000000000000000000000000000000000000000000000815260040161177e90612bd0565b60405180910390fd5b6001600260008473ffffffffffffffffffffffffffffffffffffffff1673ffffffffffffffffffffffffffffffffffffffff16815260200190815260200160002060000154815481106117dd576117dc613047565b5b90600052602060002090600502016040518060c00160405290816000820160009054906101000a900460ff16600281111561181b5761181a612fe9565b5b600281111561182d5761182c612fe9565b5b81526020016000820160019054906101000a900460ff1660ff1660ff1681526020016001820154815260200160028201548152602001600382015481526020016004820154815250509050919050565b600061188761223c565b73ffffffffffffffffffffffffffffffffffffffff166118a56112b1565b73ffffffffffffffffffffffffffffffffffffffff16146118fb576040517f08c379a00000000000000000000000000000000000000000000000000000000081526004016118f290612c10565b60405180910390fd5b81600160028111156119105761190f612fe9565b5b600260008373ffffffffffffffffffffffffffffffffffffffff1673ffffffffffffffffffffffffffffffffffffffff16815260200190815260200160002060010160009054906101000a900460ff16600281111561197257611971612fe9565b5b146119b2576040517f08c379a00000000000000000000000000000000000000000000000000000000081526004016119a990612bb0565b60405180910390fd5b6001600260008573ffffffffffffffffffffffffffffffffffffffff1673ffffffffffffffffffffffffffffffffffffffff1681526020019081526020016000206000015481548110611a0857611a07613047565b5b906000526020600020906005020160000160019054906101000a900460ff16915050919050565b611a3761223c565b73ffffffffffffffffffffffffffffffffffffffff16611a556112b1565b73ffffffffffffffffffffffffffffffffffffffff1614611aab576040517f08c379a0000000000000000000000000000000000000000000000000000000008152600401611aa290612c10565b60405180910390fd5b8160016002811115611ac057611abf612fe9565b5b600260008373ffffffffffffffffffffffffffffffffffffffff1673ffffffffffffffffffffffffffffffffffffffff16815260200190815260200160002060010160009054906101000a900460ff166002811115611b2257611b21612fe9565b5b14611b62576040517f08c379a0000000000000000000000000000000000000000000000000000000008152600401611b5990612bb0565b60405180910390fd5b816001600260008673ffffffffffffffffffffffffffffffffffffffff1673ffffffffffffffffffffffffffffffffffffffff1681526020019081526020016000206000015481548110611bb957611bb8613047565b5b90600052602060002090600502016002016000828254611bd99190612d31565b925050819055506001600260008573ffffffffffffffffffffffffffffffffffffffff1673ffffffffffffffffffffffffffffffffffffffff1681526020019081526020016000206000015481548110611c3657611c35613047565b5b90600052602060002090600502016001016000815480929190611c5890612f71565b9190505550505050565b611c6a61223c565b73ffffffffffffffffffffffffffffffffffffffff16611c886112b1565b73ffffffffffffffffffffffffffffffffffffffff1614611cde576040517f08c379a0000000000000000000000000000000000000000000000000000000008152600401611cd590612c10565b60405180910390fd5b600073ffffffffffffffffffffffffffffffffffffffff168173ffffffffffffffffffffffffffffffffffffffff161415611d4e576040517f08c379a0000000000000000000000000000000000000000000000000000000008152600401611d4590612b90565b60405180910390fd5b611d5781612244565b50565b611d6261223c565b73ffffffffffffffffffffffffffffffffffffffff16611d806112b1565b73ffffffffffffffffffffffffffffffffffffffff1614611dd6576040517f08c379a0000000000000000000000000000000000000000000000000000000008152600401611dcd90612c10565b60405180910390fd5b60006002811115611dea57611de9612fe9565b5b600260008373ffffffffffffffffffffffffffffffffffffffff1673ffffffffffffffffffffffffffffffffffffffff16815260200190815260200160002060010160009054906101000a900460ff166002811115611e4c57611e4b612fe9565b5b14156120025760016040518060c0016040528060016002811115611e7357611e72612fe9565b5b8152602001600060ff16815260200160008152602001600081526020014281526020016000815250908060018154018082558091505060019003906000526020600020906005020160009091909190915060008201518160000160006101000a81548160ff02191690836002811115611eef57611eee612fe9565b5b021790555060208201518160000160016101000a81548160ff021916908360ff16021790555060408201518160010155606082015181600201556080820151816003015560a08201518160040155505060018080549050611f509190612df9565b600260008373ffffffffffffffffffffffffffffffffffffffff1673ffffffffffffffffffffffffffffffffffffffff168152602001908152602001600020600001819055506001600260008373ffffffffffffffffffffffffffffffffffffffff1673ffffffffffffffffffffffffffffffffffffffff16815260200190815260200160002060010160006101000a81548160ff02191690836002811115611ffc57611ffb612fe9565b5b02179055505b6001600260008373ffffffffffffffffffffffffffffffffffffffff1673ffffffffffffffffffffffffffffffffffffffff168152602001908152602001600020600001548154811061205857612057613047565b5b9060005260206000209060050201600101600081548092919061207a90612f71565b919050555061217f8161217a6001600260008673ffffffffffffffffffffffffffffffffffffffff1673ffffffffffffffffffffffffffffffffffffffff16815260200190815260200160002060000154815481106120dc576120db613047565b5b90600052602060002090600502016040518060c00160405290816000820160009054906101000a900460ff16600281111561211a57612119612fe9565b5b600281111561212c5761212b612fe9565b5b81526020016000820160019054906101000a900460ff1660ff1660ff168152602001600182015481526020016002820154815260200160038201548152602001600482015481525050610ace565b6103ea565b50565b60026020528060005260406000206000915090508060000154908060010160009054906101000a900460ff16905082565b60006121bd61223c565b73ffffffffffffffffffffffffffffffffffffffff166121db6112b1565b73ffffffffffffffffffffffffffffffffffffffff1614612231576040517f08c379a000000000000000000000000000000000000000000000000000000000815260040161222890612c10565b60405180910390fd5b600380549050905090565b600033905090565b60008060009054906101000a900473ffffffffffffffffffffffffffffffffffffffff169050816000806101000a81548173ffffffffffffffffffffffffffffffffffffffff021916908373ffffffffffffffffffffffffffffffffffffffff1602179055508173ffffffffffffffffffffffffffffffffffffffff168173ffffffffffffffffffffffffffffffffffffffff167f8be0079c531659141344cd1fd0a4f28419497f9722a3daafe3b4186f6b6457e060405160405180910390a35050565b82805461231490612f0e565b90600052602060002090601f016020900481019282612336576000855561237d565b82601f1061234f57805160ff191683800117855561237d565b8280016001018555821561237d579182015b8281111561237c578251825591602001919060010190612361565b5b50905061238a91906123d9565b5090565b6040518060c00160405280600060028111156123ad576123ac612fe9565b5b8152602001600060ff168152602001600081526020016000815260200160008152602001600081525090565b5b808211156123f25760008160009055506001016123da565b5090565b600061240961240484612ccf565b612caa565b905082815260208101848484011115612425576124246130af565b5b612430848285612ecc565b509392505050565b60008135905061244781613239565b92915050565b60008135905061245c81613250565b92915050565b600082601f830112612477576124766130a5565b5b81356124878482602086016123f6565b91505092915050565b600060c082840312156124a6576124a56130aa565b5b6124b060c0612caa565b905060006124c08482850161244d565b60008301525060206124d484828501612545565b60208301525060406124e884828501612530565b60408301525060606124fc84828501612530565b606083015250608061251084828501612530565b60808301525060a061252484828501612530565b60a08301525092915050565b60008135905061253f81613260565b92915050565b60008135905061255481613277565b92915050565b6000602082840312156125705761256f6130b9565b5b600061257e84828501612438565b91505092915050565b6000806040838503121561259e5761259d6130b9565b5b60006125ac85828601612438565b92505060206125bd8582860161244d565b9150509250929050565b600080600080608085870312156125e1576125e06130b9565b5b60006125ef87828801612438565b945050602085013567ffffffffffffffff8111156126105761260f6130b4565b5b61261c87828801612462565b935050604061262d87828801612530565b925050606061263e87828801612530565b91505092959194509250565b60008060408385031215612661576126606130b9565b5b600061266f85828601612438565b925050602061268085828601612530565b9150509250929050565b600080604083850312156126a1576126a06130b9565b5b60006126af85828601612438565b92505060206126c085828601612545565b9150509250929050565b600060c082840312156126e0576126df6130b9565b5b60006126ee84828501612490565b91505092915050565b60006020828403121561270d5761270c6130b9565b5b600061271b84828501612530565b91505092915050565b61272d81612e2d565b82525050565b61273c81612e3f565b82525050565b61274b81612ea8565b82525050565b61275a81612ea8565b82525050565b61276981612eba565b82525050565b600061277a82612d15565b6127848185612d20565b9350612794818560208601612edb565b61279d816130be565b840191505092915050565b600081546127b581612f0e565b6127bf8186612d20565b945060018216600081146127da57600181146127ec5761281f565b60ff198316865260208601935061281f565b6127f585612d00565b60005b83811015612817578154818901526001820191506020810190506127f8565b808801955050505b50505092915050565b6000612835602583612d20565b9150612840826130cf565b604082019050919050565b6000612858602683612d20565b91506128638261311e565b604082019050919050565b600061287b601c83612d20565b91506128868261316d565b602082019050919050565b600061289e600f83612d20565b91506128a982613196565b602082019050919050565b60006128c1601783612d20565b91506128cc826131bf565b602082019050919050565b60006128e4602083612d20565b91506128ef826131e8565b602082019050919050565b60c0820160008201516129106000850182612742565b5060208201516129236020850182612993565b5060408201516129366040850182612975565b5060608201516129496060850182612975565b50608082015161295c6080850182612975565b5060a082015161296f60a0850182612975565b50505050565b61297e81612e91565b82525050565b61298d81612e91565b82525050565b61299c81612e9b565b82525050565b6129ab81612e9b565b82525050565b60006020820190506129c66000830184612724565b92915050565b60006040820190506129e16000830185612724565b6129ee6020830184612751565b9392505050565b6000608082019050612a0a6000830187612724565b8181036020830152612a1c818661276f565b9050612a2b6040830185612984565b612a386060830184612984565b95945050505050565b6000604082019050612a566000830185612724565b8181036020830152612a6881846127a8565b90509392505050565b6000604082019050612a866000830185612724565b612a9360208301846129a2565b9392505050565b6000602082019050612aaf6000830184612733565b92915050565b600060c082019050612aca6000830189612751565b612ad760208301886129a2565b612ae46040830187612984565b612af16060830186612984565b612afe6080830185612984565b612b0b60a0830184612984565b979650505050505050565b600060a0820190508181036000830152612b30818861276f565b9050612b3f6020830187612984565b612b4c6040830186612984565b612b596060830185612760565b612b666080830184612984565b9695505050505050565b60006020820190508181036000830152612b8981612828565b9050919050565b60006020820190508181036000830152612ba98161284b565b9050919050565b60006020820190508181036000830152612bc98161286e565b9050919050565b60006020820190508181036000830152612be981612891565b9050919050565b60006020820190508181036000830152612c09816128b4565b9050919050565b60006020820190508181036000830152612c29816128d7565b9050919050565b600060c082019050612c4560008301846128fa565b92915050565b6000602082019050612c606000830184612984565b92915050565b6000604082019050612c7b6000830185612984565b612c886020830184612751565b9392505050565b6000602082019050612ca460008301846129a2565b92915050565b6000612cb4612cc5565b9050612cc08282612f40565b919050565b6000604051905090565b600067ffffffffffffffff821115612cea57612ce9613076565b5b612cf3826130be565b9050602081019050919050565b60008190508160005260206000209050919050565b600081519050919050565b600082825260208201905092915050565b6000612d3c82612e91565b9150612d4783612e91565b9250827fffffffffffffffffffffffffffffffffffffffffffffffffffffffffffffffff03821115612d7c57612d7b612fba565b5b828201905092915050565b6000612d9282612e9b565b9150612d9d83612e9b565b92508260ff03821115612db357612db2612fba565b5b828201905092915050565b6000612dc982612e9b565b9150612dd483612e9b565b92508160ff0483118215151615612dee57612ded612fba565b5b828202905092915050565b6000612e0482612e91565b9150612e0f83612e91565b925082821015612e2257612e21612fba565b5b828203905092915050565b6000612e3882612e71565b9050919050565b60008115159050919050565b6000819050612e5982613211565b919050565b6000819050612e6c82613225565b919050565b600073ffffffffffffffffffffffffffffffffffffffff82169050919050565b6000819050919050565b600060ff82169050919050565b6000612eb382612e4b565b9050919050565b6000612ec582612e5e565b9050919050565b82818337600083830152505050565b60005b83811015612ef9578082015181840152602081019050612ede565b83811115612f08576000848401525b50505050565b60006002820490506001821680612f2657607f821691505b60208210811415612f3a57612f39613018565b5b50919050565b612f49826130be565b810181811067ffffffffffffffff82111715612f6857612f67613076565b5b80604052505050565b6000612f7c82612e91565b91507fffffffffffffffffffffffffffffffffffffffffffffffffffffffffffffffff821415612faf57612fae612fba565b5b600182019050919050565b7f4e487b7100000000000000000000000000000000000000000000000000000000600052601160045260246000fd5b7f4e487b7100000000000000000000000000000000000000000000000000000000600052602160045260246000fd5b7f4e487b7100000000000000000000000000000000000000000000000000000000600052602260045260246000fd5b7f4e487b7100000000000000000000000000000000000000000000000000000000600052603260045260246000fd5b7f4e487b7100000000000000000000000000000000000000000000000000000000600052604160045260246000fd5b600080fd5b600080fd5b600080fd5b600080fd5b600080fd5b6000601f19601f8301169050919050565b7f54686520637573746f6d657220686173206e6f2070726f6475637420746f207260008201527f6566756e64000000000000000000000000000000000000000000000000000000602082015250565b7f4f776e61626c653a206e6577206f776e657220697320746865207a65726f206160008201527f6464726573730000000000000000000000000000000000000000000000000000602082015250565b7f426c6f636b6564206f7220556e6b6e6f77656420637573746f6d657200000000600082015250565b7f556e6b6e6f7720637573746f6d65720000000000000000000000000000000000600082015250565b7f50686f6e65206973206e6f742072656769737465726564000000000000000000600082015250565b7f4f776e61626c653a2063616c6c6572206973206e6f7420746865206f776e6572600082015250565b6003811061322257613221612fe9565b5b50565b6002811061323657613235612fe9565b5b50565b61324281612e2d565b811461324d57600080fd5b50565b6003811061325d57600080fd5b50565b61326981612e91565b811461327457600080fd5b50565b61328081612e9b565b811461328b57600080fd5b5056fea26469706673582212202318c6f84d51f793456de30b64ff5d78cbd9a55206e029bafcb9e78d56f25d5264736f6c63430008060033",
  "immutableReferences": {},
  "source": "// SPDX-License-Identifier: MIT\npragma solidity ^0.8.6;\n\nimport \"@openzeppelin/contracts/access/Ownable.sol\";\n\n/**\n * @title This Smart Contract is responsible of the Billing.\n * @notice Manage all aspects related to billing (customers, accounting and billing management)\n * @author Keeymon, DavidRochus\n */\ncontract Billing is Ownable {\n    /**\n     * @dev Customer status\n     */\n    enum CustomerStatus {\n        New,\n        Active,\n        Closed\n    }\n\n    /**\n     * @dev History status\n     */\n    enum HistoryStatus {\n        Active,\n        Closed\n    }\n\n    /**\n     * @dev Customer product history\n     */\n    struct History {\n        string          ref;\n        uint            acceptanceTimestamp;\n        uint            paidTimestamp;\n        HistoryStatus   status;\n        uint256         idProduct;\n    }\n\n    /**\n     * @dev Customer information\n     */\n    struct Customer {\n        CustomerStatus  status;\n        uint8           score;\n        uint256         nbTopUp;\n        uint256         amount;\n        uint            firstTopUp;\n        uint256         lastAcceptanceID;\n    }\n\n    struct CustomerInfo {\n        uint256         idCustomer;\n        CustomerStatus  status;\n    }\n\n    /**\n     * @dev Triggered when status of a customer has changed\n     */\n    event CustomerStatusChange(address phoneHash, CustomerStatus status);\n    /**\n     * @dev Triggered when score of a customer has changed \n     */\n    event ScoreChange(address phoneHash, uint8 score);\n    /**\n     * @dev Triggered when a customer has been deleted\n     */\n    event CustomerIsDeleted(address phoneHash);\n    /**\n     * @dev Triggered when an Acceptance is received\n     */\n    event AcceptanceReceived(address phoneHash, string ref, uint acceptanceTimestamp, uint256 idProduct);\n    /**\n     * @dev Triggered when confirmation has to be sent\n     */\n    event Confirmation(address phoneHash, string ref, uint acceptanceTimestamp, uint256 idProduct);\n    /**\n     * @dev Triggered when a topUp is received\n     */\n    event TopUpReceived(address phoneHash, string ref);\n    /**\n     * @dev Triggered when an acknowledge has to be sent\n     */\n    event Acknowledge(address phoneHash, string ref);   \n\n    /**\n     * @dev Customer table\n     */\n    Customer[] public customers;\n\n    /**\n     * @dev Mapping to access customer information with a phoneHash\n     */\n    mapping(address => CustomerInfo) public customerList;\n    \n    /**\n     * @dev History table\n     */\n    History[] public histories;\n\n    /**\n     * @dev Mapping to access history information with a phoneHash\n     */\n    mapping(address => uint256[]) public historyList;\n\n    /**\n     * @dev Check that the customer is still active\n     */\n    modifier activeCustomer(address _phoneHash) {\n        require(customerList[_phoneHash].status == CustomerStatus.Active, \"Blocked or Unknowed customer\");\n        _;\n    }\n\n    /**\n     * @dev Smart Contract constructor\n     */\n    constructor() {}\n\n    /**\n      * @notice Get a Customer with phoneHash\n      * @param _phoneHash The address that identifies to the customer\n      * @dev This function get the customer (identified with `_phoneHash`)\n      */\n    function getCustomer(address _phoneHash) public view returns(Customer memory) {\n        require(customerList[_phoneHash].status != CustomerStatus.New, \"Unknow customer\");\n        return customers[customerList[_phoneHash].idCustomer];\n    }\n\n    /**\n      * @notice Inform if the customer is active\n      * @param _phoneHash The address that identifies to the customer\n      * @dev This function informs if the customer (identified with `_phoneHash`) is active\n      */\n    function isActiveCustomer(address _phoneHash) public view returns(bool) {\n        return (customerList[_phoneHash].status == CustomerStatus.Active ? true : false);\n    }\n\n    /**\n      * @notice Change the customer status\n      * @param _phoneHash The address that identifies to the customer\n      * @param _status The new state for the customer\n      * @dev This function change the customer's status (using CustomerStatus `_status`) ofr a customer (identified with `_phoneHash`)\n      */\n    function changeCustomerStatus(address _phoneHash, CustomerStatus _status) public onlyOwner {\n        customerList[_phoneHash].status = _status;\n        customers[customerList[_phoneHash].idCustomer].status = _status;\n        emit CustomerStatusChange(_phoneHash, customerList[_phoneHash].status);\n    }\n\n    /**\n      * @notice Increase scoring information of a customer\n      * @param _phoneHash The address that identifies to the customer\n      * @dev This function is directly called when API receives a topUp for a customer (identified with `_phoneHash`) with a target other than Timelapse\n      */\n    function getScore(address _phoneHash) external view onlyOwner activeCustomer(_phoneHash) returns(uint8) {\n        return customers[customerList[_phoneHash].idCustomer].score;\n    }\n\n    /**\n      * @notice Add customer if unknow and increase scoring information of a customer\n      * @param _phoneHash The address that identifies to the customer\n      * @dev This function is directly called when API receives a topUp for a customer (identified with `_phoneHash`) with a target other than Timelapse\n      */\n    function addToScore(address _phoneHash) public onlyOwner {\n        if(customerList[_phoneHash].status == CustomerStatus.New) {\n            customers.push(Customer(CustomerStatus.Active, 0,0,0,block.timestamp,0));\n            customerList[_phoneHash].idCustomer = (customers.length - 1);\n            customerList[_phoneHash].status = CustomerStatus.Active;\n        }\n        customers[customerList[_phoneHash].idCustomer].nbTopUp++;\n        changeScore(_phoneHash, process(customers[customerList[_phoneHash].idCustomer]));\n    }\n\n    /**\n      * @notice Change the score of a customer\n      * @param _phoneHash The address that identifies to the customer\n      * @dev This function informs if the customer (identified with `_phoneHash`) is active\n      */\n    function changeScore(address _phoneHash, uint8 _score) public onlyOwner {\n        customers[customerList[_phoneHash].idCustomer].score = _score;\n        emit ScoreChange(_phoneHash, customers[customerList[_phoneHash].idCustomer].score);\n    }\n\n    /**\n      * @notice Get the size of the history of a customer\n      * @param _phoneHash The address that identifies to the customer\n      * @dev Get the size of the history of a customer (identified with `_phoneHash`)\n      */\n    function getHistorySize(address _phoneHash) public view onlyOwner returns (uint256) {\n        return historyList[_phoneHash].length;\n    }\n\n    /**\n      * @notice Get the size of all the histories\n      * @dev Get the size of all the histories\n      */\n    function getHistoriesSize() public view onlyOwner returns (uint256) {\n        return histories.length;\n    }\n\n    /**\n      * @notice Add amount to customer total amount\n      * @param _phoneHash The address that identifies to the customer\n      * @dev Add amount to customer (identified with `_phoneHash`) total amount\n      */\n    function addToCustomerAmount(address _phoneHash, uint _amount) public onlyOwner activeCustomer(_phoneHash) {\n        customers[customerList[_phoneHash].idCustomer].amount += _amount;\n        customers[customerList[_phoneHash].idCustomer].nbTopUp++;\n    }\n\n    /**\n      * @notice Add an acceptance in the customer history\n      * @param _phoneHash The address that identifies to the customer\n      * @param _ref Reference of the telecom provider\n      * @param _acceptanceTimestamp Timestamp of the acceptance\n      * @param _idProduct ID of the product\n      * @dev Add a customer product history (using reference `_ref`, product `_idProduct`, timestamp `_acceptanceTimestamp`) for a customer (identified with `_phoneHash`)\n      */\n    function acceptanceBilling(address _phoneHash, string memory _ref, uint _acceptanceTimestamp, uint256 _idProduct) public onlyOwner activeCustomer(_phoneHash) {\n        emit AcceptanceReceived(_phoneHash, _ref, _acceptanceTimestamp, _idProduct);\n        histories.push(History( _ref, _acceptanceTimestamp, 0, HistoryStatus.Active, _idProduct));\n        customers[customerList[_phoneHash].idCustomer].lastAcceptanceID = (histories.length - 1);\n        Customer memory customer = customers[customerList[_phoneHash].idCustomer];\n//        customer.lastAcceptanceID = (histories.length - 1);\n        historyList[_phoneHash].push(histories.length - 1);\n        History memory lastAcceptance = histories[customer.lastAcceptanceID];\n        emit Confirmation(_phoneHash, lastAcceptance.ref, lastAcceptance.acceptanceTimestamp, lastAcceptance.idProduct);\n    }\n\n    /**\n      * @notice TopUp the last product of a customer\n      * @param _phoneHash The address that identifies to the customer\n      * @param _paidTimestamp Timestamp of the acceptance\n      * @dev TopUp the last product of a customer (identified with `_phoneHash`) at timestamp `_paidTimestamp`\n      */\n    function topUpBilling(address _phoneHash, uint _paidTimestamp) public onlyOwner {\n        require(historyList[_phoneHash].length > 0, \"Phone is not registered\");\n        uint index = historyList[_phoneHash][(historyList[_phoneHash].length - 1)];\n        require(histories[index].status == HistoryStatus.Active, \"The customer has no product to refund\");\n\n        emit TopUpReceived(_phoneHash, histories[index].ref);\n        if (customers[customerList[_phoneHash].idCustomer].firstTopUp == 0) {\n            customers[customerList[_phoneHash].idCustomer].firstTopUp = block.timestamp;\n        }\n        histories[index].paidTimestamp = _paidTimestamp;\n        histories[index].status = HistoryStatus.Closed;\n        /*\n        if(customers[_phoneHash].score == 0) { // On mettra ca ailleur\n            customers[_phoneHash].status = CustomerStatus.Closed;\n            emit CustomerIsDeleted(_phoneHash);\n        }\n        */\n        emit Acknowledge(_phoneHash, histories[index].ref);\n    }\n\n    /**\n      * @notice Compute the score of a customer\n      * @param _customer The customer\n      * @return Score The computed customer score \n      * @dev Compute the score of a customer `_customer`\n      */\n    function process(Customer memory _customer) public view returns(uint8) {\n        uint8 score;\n        uint8 topupAmountPoints;\n        uint8 firstTopUpAgePoints;\n        uint8 nbTopUpPoints;\n        if (_customer.amount >= 0 && _customer.amount <= 4000) {\n            topupAmountPoints = 1;\n        } else if (_customer.amount > 4000 && _customer.amount <= 15000) {\n            topupAmountPoints = 2;\n        } else {\n            topupAmountPoints = 3;\n        }\n        if (_customer.firstTopUp >= (block.timestamp - 90 days)) {\n            firstTopUpAgePoints = 0;\n        } else if (\n            _customer.firstTopUp < (block.timestamp - 90 days) &&\n            _customer.firstTopUp >= (block.timestamp - 180 days)\n        ) {\n            firstTopUpAgePoints = 2;\n        } else if (\n            _customer.firstTopUp < (block.timestamp - 180 days) &&\n            _customer.firstTopUp >= (block.timestamp - 330 days)\n        ) {\n            firstTopUpAgePoints = 6;\n        } else {\n            firstTopUpAgePoints = 15;\n        }\n        if (_customer.nbTopUp == 0) {\n            nbTopUpPoints = 0;\n        } else if (_customer.nbTopUp > 0 && _customer.nbTopUp <= 10) {\n            nbTopUpPoints = 1;\n        } else if (_customer.nbTopUp > 10 && _customer.nbTopUp <= 20) {\n            nbTopUpPoints = 5;\n        } else {\n            nbTopUpPoints = 15;\n        }\n\n        score =\n            (topupAmountPoints * 4) +\n            (firstTopUpAgePoints * 6) +\n            (nbTopUpPoints * 8);\n        return score;\n    }\n}",
  "sourcePath": "/Users/davidrochus/Dev/workspace/timelapse/contracts/Billing.sol",
  "compiler": {
    "name": "solc",
    "version": "0.8.6+commit.11564f7e.Emscripten.clang"
  },
  "schemaVersion": "3.4.1",
  "updatedAt": "2021-07-24T22:35:26.002Z",
  "networkType": "ethereum",
  "devdoc": {
    "author": "Keeymon, DavidRochus",
    "events": {
      "AcceptanceReceived(address,string,uint256,uint256)": {
        "details": "Triggered when an Acceptance is received"
      },
      "Acknowledge(address,string)": {
        "details": "Triggered when an acknowledge has to be sent"
      },
      "Confirmation(address,string,uint256,uint256)": {
        "details": "Triggered when confirmation has to be sent"
      },
      "CustomerIsDeleted(address)": {
        "details": "Triggered when a customer has been deleted"
      },
      "CustomerStatusChange(address,uint8)": {
        "details": "Triggered when status of a customer has changed"
      },
      "ScoreChange(address,uint8)": {
        "details": "Triggered when score of a customer has changed "
      },
      "TopUpReceived(address,string)": {
        "details": "Triggered when a topUp is received"
      }
    },
    "kind": "dev",
    "methods": {
      "acceptanceBilling(address,string,uint256,uint256)": {
        "details": "Add a customer product history (using reference `_ref`, product `_idProduct`, timestamp `_acceptanceTimestamp`) for a customer (identified with `_phoneHash`)",
        "params": {
          "_acceptanceTimestamp": "Timestamp of the acceptance",
          "_idProduct": "ID of the product",
          "_phoneHash": "The address that identifies to the customer",
          "_ref": "Reference of the telecom provider"
        }
      },
      "addToCustomerAmount(address,uint256)": {
        "details": "Add amount to customer (identified with `_phoneHash`) total amount",
        "params": {
          "_phoneHash": "The address that identifies to the customer"
        }
      },
      "addToScore(address)": {
        "details": "This function is directly called when API receives a topUp for a customer (identified with `_phoneHash`) with a target other than Timelapse",
        "params": {
          "_phoneHash": "The address that identifies to the customer"
        }
      },
      "changeCustomerStatus(address,uint8)": {
        "details": "This function change the customer's status (using CustomerStatus `_status`) ofr a customer (identified with `_phoneHash`)",
        "params": {
          "_phoneHash": "The address that identifies to the customer",
          "_status": "The new state for the customer"
        }
      },
      "changeScore(address,uint8)": {
        "details": "This function informs if the customer (identified with `_phoneHash`) is active",
        "params": {
          "_phoneHash": "The address that identifies to the customer"
        }
      },
      "constructor": {
        "details": "Smart Contract constructor"
      },
      "getCustomer(address)": {
        "details": "This function get the customer (identified with `_phoneHash`)",
        "params": {
          "_phoneHash": "The address that identifies to the customer"
        }
      },
      "getHistoriesSize()": {
        "details": "Get the size of all the histories"
      },
      "getHistorySize(address)": {
        "details": "Get the size of the history of a customer (identified with `_phoneHash`)",
        "params": {
          "_phoneHash": "The address that identifies to the customer"
        }
      },
      "getScore(address)": {
        "details": "This function is directly called when API receives a topUp for a customer (identified with `_phoneHash`) with a target other than Timelapse",
        "params": {
          "_phoneHash": "The address that identifies to the customer"
        }
      },
      "isActiveCustomer(address)": {
        "details": "This function informs if the customer (identified with `_phoneHash`) is active",
        "params": {
          "_phoneHash": "The address that identifies to the customer"
        }
      },
      "owner()": {
        "details": "Returns the address of the current owner."
      },
      "process((uint8,uint8,uint256,uint256,uint256,uint256))": {
        "details": "Compute the score of a customer `_customer`",
        "params": {
          "_customer": "The customer"
        },
        "returns": {
          "_0": "Score The computed customer score "
        }
      },
      "renounceOwnership()": {
        "details": "Leaves the contract without owner. It will not be possible to call `onlyOwner` functions anymore. Can only be called by the current owner. NOTE: Renouncing ownership will leave the contract without an owner, thereby removing any functionality that is only available to the owner."
      },
      "topUpBilling(address,uint256)": {
        "details": "TopUp the last product of a customer (identified with `_phoneHash`) at timestamp `_paidTimestamp`",
        "params": {
          "_paidTimestamp": "Timestamp of the acceptance",
          "_phoneHash": "The address that identifies to the customer"
        }
      },
      "transferOwnership(address)": {
        "details": "Transfers ownership of the contract to a new account (`newOwner`). Can only be called by the current owner."
      }
    },
    "stateVariables": {
      "customerList": {
        "details": "Mapping to access customer information with a phoneHash"
      },
      "customers": {
        "details": "Customer table"
      },
      "histories": {
        "details": "History table"
      },
      "historyList": {
        "details": "Mapping to access history information with a phoneHash"
      }
    },
    "title": "This Smart Contract is responsible of the Billing.",
    "version": 1
  },
  "userdoc": {
    "kind": "user",
    "methods": {
      "acceptanceBilling(address,string,uint256,uint256)": {
        "notice": "Add an acceptance in the customer history"
      },
      "addToCustomerAmount(address,uint256)": {
        "notice": "Add amount to customer total amount"
      },
      "addToScore(address)": {
        "notice": "Add customer if unknow and increase scoring information of a customer"
      },
      "changeCustomerStatus(address,uint8)": {
        "notice": "Change the customer status"
      },
      "changeScore(address,uint8)": {
        "notice": "Change the score of a customer"
      },
      "getCustomer(address)": {
        "notice": "Get a Customer with phoneHash"
      },
      "getHistoriesSize()": {
        "notice": "Get the size of all the histories"
      },
      "getHistorySize(address)": {
        "notice": "Get the size of the history of a customer"
      },
      "getScore(address)": {
        "notice": "Increase scoring information of a customer"
      },
      "isActiveCustomer(address)": {
        "notice": "Inform if the customer is active"
      },
      "process((uint8,uint8,uint256,uint256,uint256,uint256))": {
        "notice": "Compute the score of a customer"
      },
      "topUpBilling(address,uint256)": {
        "notice": "TopUp the last product of a customer"
      }
    },
    "notice": "Manage all aspects related to billing (customers, accounting and billing management)",
    "version": 1
  }
}