{
  "contractName": "Billing",
  "abi": [
    {
      "inputs": [],
      "stateMutability": "nonpayable",
      "type": "constructor"
    },
    {
      "anonymous": false,
      "inputs": [
        {
          "indexed": false,
          "internalType": "address",
          "name": "phoneHash",
          "type": "address"
        },
        {
          "indexed": false,
          "internalType": "string",
          "name": "ref",
          "type": "string"
        },
        {
          "indexed": false,
          "internalType": "uint256",
          "name": "acceptanceTimestamp",
          "type": "uint256"
        },
        {
          "indexed": false,
          "internalType": "uint256",
          "name": "idProduct",
          "type": "uint256"
        }
      ],
      "name": "AcceptanceReceived",
      "type": "event"
    },
    {
      "anonymous": false,
      "inputs": [
        {
          "indexed": false,
          "internalType": "address",
          "name": "phoneHash",
          "type": "address"
        },
        {
          "indexed": false,
          "internalType": "string",
          "name": "ref",
          "type": "string"
        }
      ],
      "name": "Acknowledge",
      "type": "event"
    },
    {
      "anonymous": false,
      "inputs": [
        {
          "indexed": false,
          "internalType": "address",
          "name": "phoneHash",
          "type": "address"
        },
        {
          "indexed": false,
          "internalType": "string",
          "name": "ref",
          "type": "string"
        },
        {
          "indexed": false,
          "internalType": "uint256",
          "name": "acceptanceTimestamp",
          "type": "uint256"
        },
        {
          "indexed": false,
          "internalType": "uint256",
          "name": "idProduct",
          "type": "uint256"
        }
      ],
      "name": "Confirmation",
      "type": "event"
    },
    {
      "anonymous": false,
      "inputs": [
        {
          "indexed": false,
          "internalType": "address",
          "name": "phoneHash",
          "type": "address"
        }
      ],
      "name": "CustomerIsDeleted",
      "type": "event"
    },
    {
      "anonymous": false,
      "inputs": [
        {
          "indexed": false,
          "internalType": "address",
          "name": "phoneHash",
          "type": "address"
        },
        {
          "indexed": false,
          "internalType": "enum Billing.CustomerStatus",
          "name": "status",
          "type": "uint8"
        }
      ],
      "name": "CustomerStatusChange",
      "type": "event"
    },
    {
      "anonymous": false,
      "inputs": [
        {
          "indexed": true,
          "internalType": "address",
          "name": "previousOwner",
          "type": "address"
        },
        {
          "indexed": true,
          "internalType": "address",
          "name": "newOwner",
          "type": "address"
        }
      ],
      "name": "OwnershipTransferred",
      "type": "event"
    },
    {
      "anonymous": false,
      "inputs": [
        {
          "indexed": false,
          "internalType": "address",
          "name": "phoneHash",
          "type": "address"
        },
        {
          "indexed": false,
          "internalType": "uint8",
          "name": "score",
          "type": "uint8"
        }
      ],
      "name": "ScoreChange",
      "type": "event"
    },
    {
      "anonymous": false,
      "inputs": [
        {
          "indexed": false,
          "internalType": "address",
          "name": "phoneHash",
          "type": "address"
        },
        {
          "indexed": false,
          "internalType": "string",
          "name": "ref",
          "type": "string"
        }
      ],
      "name": "TopUpReceived",
      "type": "event"
    },
    {
      "inputs": [
        {
          "internalType": "address",
          "name": "",
          "type": "address"
        }
      ],
      "name": "customers",
      "outputs": [
        {
          "internalType": "enum Billing.CustomerStatus",
          "name": "status",
          "type": "uint8"
        },
        {
          "internalType": "uint8",
          "name": "score",
          "type": "uint8"
        },
        {
          "internalType": "uint256",
          "name": "nbTopUp",
          "type": "uint256"
        },
        {
          "internalType": "uint256",
          "name": "amount",
          "type": "uint256"
        },
        {
          "internalType": "uint256",
          "name": "firstTopUp",
          "type": "uint256"
        },
        {
          "internalType": "uint256",
          "name": "lastAcceptanceID",
          "type": "uint256"
        }
      ],
      "stateMutability": "view",
      "type": "function"
    },
    {
      "inputs": [
        {
          "internalType": "address",
          "name": "",
          "type": "address"
        },
        {
          "internalType": "uint256",
          "name": "",
          "type": "uint256"
        }
      ],
      "name": "histories",
      "outputs": [
        {
          "internalType": "string",
          "name": "ref",
          "type": "string"
        },
        {
          "internalType": "uint256",
          "name": "acceptanceTimestamp",
          "type": "uint256"
        },
        {
          "internalType": "uint256",
          "name": "paidTimestamp",
          "type": "uint256"
        },
        {
          "internalType": "enum Billing.HistoryStatus",
          "name": "status",
          "type": "uint8"
        },
        {
          "internalType": "uint256",
          "name": "idProduct",
          "type": "uint256"
        }
      ],
      "stateMutability": "view",
      "type": "function"
    },
    {
      "inputs": [],
      "name": "owner",
      "outputs": [
        {
          "internalType": "address",
          "name": "",
          "type": "address"
        }
      ],
      "stateMutability": "view",
      "type": "function"
    },
    {
      "inputs": [],
      "name": "renounceOwnership",
      "outputs": [],
      "stateMutability": "nonpayable",
      "type": "function"
    },
    {
      "inputs": [
        {
          "internalType": "address",
          "name": "newOwner",
          "type": "address"
        }
      ],
      "name": "transferOwnership",
      "outputs": [],
      "stateMutability": "nonpayable",
      "type": "function"
    },
    {
      "inputs": [
        {
          "internalType": "address",
          "name": "_phoneHash",
          "type": "address"
        }
      ],
      "name": "isActiveCustomer",
      "outputs": [
        {
          "internalType": "bool",
          "name": "",
          "type": "bool"
        }
      ],
      "stateMutability": "view",
      "type": "function"
    },
    {
      "inputs": [
        {
          "internalType": "address",
          "name": "_phoneHash",
          "type": "address"
        },
        {
          "internalType": "enum Billing.CustomerStatus",
          "name": "_status",
          "type": "uint8"
        }
      ],
      "name": "changeCustomerStatus",
      "outputs": [],
      "stateMutability": "nonpayable",
      "type": "function"
    },
    {
      "inputs": [
        {
          "internalType": "address",
          "name": "_phoneHash",
          "type": "address"
        }
      ],
      "name": "getScore",
      "outputs": [
        {
          "internalType": "uint8",
          "name": "",
          "type": "uint8"
        }
      ],
      "stateMutability": "view",
      "type": "function"
    },
    {
      "inputs": [
        {
          "internalType": "address",
          "name": "_phoneHash",
          "type": "address"
        }
      ],
      "name": "addToScore",
      "outputs": [],
      "stateMutability": "nonpayable",
      "type": "function"
    },
    {
      "inputs": [
        {
          "internalType": "address",
          "name": "_phoneHash",
          "type": "address"
        },
        {
          "internalType": "uint8",
          "name": "_score",
          "type": "uint8"
        }
      ],
      "name": "changeScore",
      "outputs": [],
      "stateMutability": "nonpayable",
      "type": "function"
    },
    {
      "inputs": [
        {
          "internalType": "address",
          "name": "_phoneHash",
          "type": "address"
        }
      ],
      "name": "getHistorySize",
      "outputs": [
        {
          "internalType": "uint256",
          "name": "",
          "type": "uint256"
        }
      ],
      "stateMutability": "view",
      "type": "function"
    },
    {
      "inputs": [
        {
          "internalType": "address",
          "name": "_phoneHash",
          "type": "address"
        },
        {
          "internalType": "uint256",
          "name": "_amount",
          "type": "uint256"
        }
      ],
      "name": "addToCustomerAmount",
      "outputs": [],
      "stateMutability": "nonpayable",
      "type": "function"
    },
    {
      "inputs": [
        {
          "internalType": "address",
          "name": "_phoneHash",
          "type": "address"
        },
        {
          "internalType": "string",
          "name": "_ref",
          "type": "string"
        },
        {
          "internalType": "uint256",
          "name": "_acceptanceTimestamp",
          "type": "uint256"
        },
        {
          "internalType": "uint256",
          "name": "_idProduct",
          "type": "uint256"
        }
      ],
      "name": "acceptanceBilling",
      "outputs": [],
      "stateMutability": "nonpayable",
      "type": "function"
    },
    {
      "inputs": [
        {
          "internalType": "address",
          "name": "_phoneHash",
          "type": "address"
        },
        {
          "internalType": "uint256",
          "name": "_paidTimestamp",
          "type": "uint256"
        }
      ],
      "name": "topUpBilling",
      "outputs": [],
      "stateMutability": "nonpayable",
      "type": "function"
    },
    {
      "inputs": [
        {
          "components": [
            {
              "internalType": "enum Billing.CustomerStatus",
              "name": "status",
              "type": "uint8"
            },
            {
              "internalType": "uint8",
              "name": "score",
              "type": "uint8"
            },
            {
              "internalType": "uint256",
              "name": "nbTopUp",
              "type": "uint256"
            },
            {
              "internalType": "uint256",
              "name": "amount",
              "type": "uint256"
            },
            {
              "internalType": "uint256",
              "name": "firstTopUp",
              "type": "uint256"
            },
            {
              "internalType": "uint256",
              "name": "lastAcceptanceID",
              "type": "uint256"
            }
          ],
          "internalType": "struct Billing.Customer",
          "name": "_customer",
          "type": "tuple"
        }
      ],
      "name": "process",
      "outputs": [
        {
          "internalType": "uint8",
          "name": "",
          "type": "uint8"
        }
      ],
      "stateMutability": "view",
      "type": "function"
    }
  ],
  "bytecode": "0x60806040523480156200001157600080fd5b5062000032620000266200003860201b60201c565b6200004060201b60201c565b62000104565b600033905090565b60008060009054906101000a900473ffffffffffffffffffffffffffffffffffffffff169050816000806101000a81548173ffffffffffffffffffffffffffffffffffffffff021916908373ffffffffffffffffffffffffffffffffffffffff1602179055508173ffffffffffffffffffffffffffffffffffffffff168173ffffffffffffffffffffffffffffffffffffffff167f8be0079c531659141344cd1fd0a4f28419497f9722a3daafe3b4186f6b6457e060405160405180910390a35050565b612ab180620001146000396000f3fe608060405234801561001057600080fd5b50600436106100f55760003560e01c806393d08f2411610097578063d8dd182711610066578063d8dd182714610287578063f2fde38b146102a3578063f3963cba146102bf578063fcf7ff2a146102db576100f5565b806393d08f24146101db5780639ef91d91146101f7578063c23a179f14610227578063d47875d014610257576100f5565b80636c34ba18116100d35780636c34ba1814610167578063715018a6146101975780637a67e6cc146101a15780638da5cb5b146101bd576100f5565b8063336989ae146100fa5780633ef3e0cb1461012f57806345df77791461014b575b600080fd5b610114600480360381019061010f9190611ecc565b61030f565b6040516101269695949392919061232f565b60405180910390f35b61014960048036038101906101449190611ffc565b610365565b005b61016560048036038101906101609190611fbc565b6104c8565b005b610181600480360381019061017c919061203c565b61091d565b60405161018e91906124a5565b60405180910390f35b61019f610ad9565b005b6101bb60048036038101906101b69190611f39565b610b61565b005b6101c56110b6565b6040516101d2919061222b565b60405180910390f35b6101f560048036038101906101f09190611ef9565b6110df565b005b610211600480360381019061020c9190611ecc565b611251565b60405161021e9190612314565b60405180910390f35b610241600480360381019061023c9190611ecc565b6112de565b60405161024e919061248a565b60405180910390f35b610271600480360381019061026c9190611ecc565b6113a6565b60405161027e91906124a5565b60405180910390f35b6102a1600480360381019061029c9190611fbc565b611533565b005b6102bd60048036038101906102b89190611ecc565b61171c565b005b6102d960048036038101906102d49190611ecc565b611814565b005b6102f560048036038101906102f09190611fbc565b611b11565b604051610306959493929190612390565b60405180910390f35b60016020528060005260406000206000915090508060000160009054906101000a900460ff16908060000160019054906101000a900460ff16908060010154908060020154908060030154908060040154905086565b61036d611bf9565b73ffffffffffffffffffffffffffffffffffffffff1661038b6110b6565b73ffffffffffffffffffffffffffffffffffffffff16146103e1576040517f08c379a00000000000000000000000000000000000000000000000000000000081526004016103d89061244a565b60405180910390fd5b80600160008473ffffffffffffffffffffffffffffffffffffffff1673ffffffffffffffffffffffffffffffffffffffff16815260200190815260200160002060000160016101000a81548160ff021916908360ff1602179055507f67300a8a7a64e6ba305144189169d4bf615482b42e8fd241a6c5fc20879374a782600160008573ffffffffffffffffffffffffffffffffffffffff1673ffffffffffffffffffffffffffffffffffffffff16815260200190815260200160002060000160019054906101000a900460ff166040516104bc9291906122eb565b60405180910390a15050565b6104d0611bf9565b73ffffffffffffffffffffffffffffffffffffffff166104ee6110b6565b73ffffffffffffffffffffffffffffffffffffffff1614610544576040517f08c379a000000000000000000000000000000000000000000000000000000000815260040161053b9061244a565b60405180910390fd5b6000600260008473ffffffffffffffffffffffffffffffffffffffff1673ffffffffffffffffffffffffffffffffffffffff16815260200190815260200160002080549050116105c9576040517f08c379a00000000000000000000000000000000000000000000000000000000081526004016105c09061242a565b60405180910390fd5b60006001600260008573ffffffffffffffffffffffffffffffffffffffff1673ffffffffffffffffffffffffffffffffffffffff1681526020019081526020016000208054905061061a919061260f565b9050600060018111156106305761062f6127ff565b5b600260008573ffffffffffffffffffffffffffffffffffffffff1673ffffffffffffffffffffffffffffffffffffffff16815260200190815260200160002082815481106106815761068061285d565b5b906000526020600020906005020160030160009054906101000a900460ff1660018111156106b2576106b16127ff565b5b146106f2576040517f08c379a00000000000000000000000000000000000000000000000000000000081526004016106e9906123ea565b60405180910390fd5b7fa3a756c9361873f5cd34cb71ba3b6ebc76b90321aa2767387c016991dfb4f63a83600260008673ffffffffffffffffffffffffffffffffffffffff1673ffffffffffffffffffffffffffffffffffffffff16815260200190815260200160002083815481106107655761076461285d565b5b90600052602060002090600502016000016040516107849291906122bb565b60405180910390a181600260008573ffffffffffffffffffffffffffffffffffffffff1673ffffffffffffffffffffffffffffffffffffffff16815260200190815260200160002082815481106107de576107dd61285d565b5b9060005260206000209060050201600201819055506001600260008573ffffffffffffffffffffffffffffffffffffffff1673ffffffffffffffffffffffffffffffffffffffff16815260200190815260200160002082815481106108465761084561285d565b5b906000526020600020906005020160030160006101000a81548160ff02191690836001811115610879576108786127ff565b5b02179055507fd3866d48a40f2de06c735e96a984d47ce6783b334002603c31e3f4bc05bd51c583600260008673ffffffffffffffffffffffffffffffffffffffff1673ffffffffffffffffffffffffffffffffffffffff16815260200190815260200160002083815481106108f1576108f061285d565b5b90600052602060002090600502016000016040516109109291906122bb565b60405180910390a1505050565b60008060008060008086606001511015801561093e57506028866060015111155b1561094c5760019250610979565b6028866060015111801561096557506096866060015111155b156109735760029250610978565b600392505b5b6276a70042610988919061260f565b86608001511061099b5760009150610a25565b6276a700426109aa919061260f565b86608001511080156109ce575062ed4e00426109c6919061260f565b866080015110155b156109dc5760029150610a24565b62ed4e00426109eb919061260f565b8660800151108015610a1057506301b30f0042610a08919061260f565b866080015110155b15610a1e5760069150610a23565b600f91505b5b5b600086604001511415610a3b5760009050610a90565b60008660400151118015610a545750600a866040015111155b15610a625760019050610a8f565b600a8660400151118015610a7b57506014866040015111155b15610a895760059050610a8e565b600f90505b5b5b600881610a9d91906125d4565b600683610aaa91906125d4565b600485610ab791906125d4565b610ac1919061259d565b610acb919061259d565b935083945050505050919050565b610ae1611bf9565b73ffffffffffffffffffffffffffffffffffffffff16610aff6110b6565b73ffffffffffffffffffffffffffffffffffffffff1614610b55576040517f08c379a0000000000000000000000000000000000000000000000000000000008152600401610b4c9061244a565b60405180910390fd5b610b5f6000611c01565b565b610b69611bf9565b73ffffffffffffffffffffffffffffffffffffffff16610b876110b6565b73ffffffffffffffffffffffffffffffffffffffff1614610bdd576040517f08c379a0000000000000000000000000000000000000000000000000000000008152600401610bd49061244a565b60405180910390fd5b8360006001811115610bf257610bf16127ff565b5b600160008373ffffffffffffffffffffffffffffffffffffffff1673ffffffffffffffffffffffffffffffffffffffff16815260200190815260200160002060000160009054906101000a900460ff166001811115610c5457610c536127ff565b5b14610c94576040517f08c379a0000000000000000000000000000000000000000000000000000000008152600401610c8b9061246a565b60405180910390fd5b7f031870b979bdc77dc0b1037a1aac37c55a178ab3bec4f8ba1ca1fc452e30578b85858585604051610cc9949392919061226f565b60405180910390a1600260008673ffffffffffffffffffffffffffffffffffffffff1673ffffffffffffffffffffffffffffffffffffffff1681526020019081526020016000206040518060a001604052808681526020018581526020016000815260200160006001811115610d4257610d416127ff565b5b81526020018481525090806001815401808255809150506001900390600052602060002090600502016000909190919091506000820151816000019080519060200190610d90929190611cc5565b50602082015181600101556040820151816002015560608201518160030160006101000a81548160ff02191690836001811115610dd057610dcf6127ff565b5b02179055506080820151816004015550506000600160008773ffffffffffffffffffffffffffffffffffffffff1673ffffffffffffffffffffffffffffffffffffffff1681526020019081526020016000206040518060c00160405290816000820160009054906101000a900460ff166001811115610e5257610e516127ff565b5b6001811115610e6457610e636127ff565b5b81526020016000820160019054906101000a900460ff1660ff1660ff16815260200160018201548152602001600282015481526020016003820154815260200160048201548152505090506001600260008873ffffffffffffffffffffffffffffffffffffffff1673ffffffffffffffffffffffffffffffffffffffff16815260200190815260200160002080549050610efe919061260f565b8160a00181815250506000600260008873ffffffffffffffffffffffffffffffffffffffff1673ffffffffffffffffffffffffffffffffffffffff1681526020019081526020016000208260a0015181548110610f5e57610f5d61285d565b5b90600052602060002090600502016040518060a0016040529081600082018054610f8790612724565b80601f0160208091040260200160405190810160405280929190818152602001828054610fb390612724565b80156110005780601f10610fd557610100808354040283529160200191611000565b820191906000526020600020905b815481529060010190602001808311610fe357829003601f168201915b5050505050815260200160018201548152602001600282015481526020016003820160009054906101000a900460ff166001811115611042576110416127ff565b5b6001811115611054576110536127ff565b5b815260200160048201548152505090507f52420d39a0f366bd8078120494fcd7ffb3971e79291fa625dd9de26e85607524878260000151836020015184608001516040516110a5949392919061226f565b60405180910390a150505050505050565b60008060009054906101000a900473ffffffffffffffffffffffffffffffffffffffff16905090565b6110e7611bf9565b73ffffffffffffffffffffffffffffffffffffffff166111056110b6565b73ffffffffffffffffffffffffffffffffffffffff161461115b576040517f08c379a00000000000000000000000000000000000000000000000000000000081526004016111529061244a565b60405180910390fd5b80600160008473ffffffffffffffffffffffffffffffffffffffff1673ffffffffffffffffffffffffffffffffffffffff16815260200190815260200160002060000160006101000a81548160ff021916908360018111156111c0576111bf6127ff565b5b02179055507fb23cc8d2c435b48098fc64e3bfd632e00ba00d1b8be3f25b0a973438951eae7f82600160008573ffffffffffffffffffffffffffffffffffffffff1673ffffffffffffffffffffffffffffffffffffffff16815260200190815260200160002060000160009054906101000a900460ff16604051611245929190612246565b60405180910390a15050565b6000806001811115611266576112656127ff565b5b600160008473ffffffffffffffffffffffffffffffffffffffff1673ffffffffffffffffffffffffffffffffffffffff16815260200190815260200160002060000160009054906101000a900460ff1660018111156112c8576112c76127ff565b5b146112d45760006112d7565b60015b9050919050565b60006112e8611bf9565b73ffffffffffffffffffffffffffffffffffffffff166113066110b6565b73ffffffffffffffffffffffffffffffffffffffff161461135c576040517f08c379a00000000000000000000000000000000000000000000000000000000081526004016113539061244a565b60405180910390fd5b600260008373ffffffffffffffffffffffffffffffffffffffff1673ffffffffffffffffffffffffffffffffffffffff168152602001908152602001600020805490509050919050565b60006113b0611bf9565b73ffffffffffffffffffffffffffffffffffffffff166113ce6110b6565b73ffffffffffffffffffffffffffffffffffffffff1614611424576040517f08c379a000000000000000000000000000000000000000000000000000000000815260040161141b9061244a565b60405180910390fd5b8160006001811115611439576114386127ff565b5b600160008373ffffffffffffffffffffffffffffffffffffffff1673ffffffffffffffffffffffffffffffffffffffff16815260200190815260200160002060000160009054906101000a900460ff16600181111561149b5761149a6127ff565b5b146114db576040517f08c379a00000000000000000000000000000000000000000000000000000000081526004016114d29061246a565b60405180910390fd5b600160008473ffffffffffffffffffffffffffffffffffffffff1673ffffffffffffffffffffffffffffffffffffffff16815260200190815260200160002060000160019054906101000a900460ff16915050919050565b61153b611bf9565b73ffffffffffffffffffffffffffffffffffffffff166115596110b6565b73ffffffffffffffffffffffffffffffffffffffff16146115af576040517f08c379a00000000000000000000000000000000000000000000000000000000081526004016115a69061244a565b60405180910390fd5b81600060018111156115c4576115c36127ff565b5b600160008373ffffffffffffffffffffffffffffffffffffffff1673ffffffffffffffffffffffffffffffffffffffff16815260200190815260200160002060000160009054906101000a900460ff166001811115611626576116256127ff565b5b14611666576040517f08c379a000000000000000000000000000000000000000000000000000000000815260040161165d9061246a565b60405180910390fd5b81600160008573ffffffffffffffffffffffffffffffffffffffff1673ffffffffffffffffffffffffffffffffffffffff16815260200190815260200160002060020160008282546116b89190612547565b92505081905550600160008473ffffffffffffffffffffffffffffffffffffffff1673ffffffffffffffffffffffffffffffffffffffff168152602001908152602001600020600101600081548092919061171290612787565b9190505550505050565b611724611bf9565b73ffffffffffffffffffffffffffffffffffffffff166117426110b6565b73ffffffffffffffffffffffffffffffffffffffff1614611798576040517f08c379a000000000000000000000000000000000000000000000000000000000815260040161178f9061244a565b60405180910390fd5b600073ffffffffffffffffffffffffffffffffffffffff168173ffffffffffffffffffffffffffffffffffffffff161415611808576040517f08c379a00000000000000000000000000000000000000000000000000000000081526004016117ff9061240a565b60405180910390fd5b61181181611c01565b50565b61181c611bf9565b73ffffffffffffffffffffffffffffffffffffffff1661183a6110b6565b73ffffffffffffffffffffffffffffffffffffffff1614611890576040517f08c379a00000000000000000000000000000000000000000000000000000000081526004016118879061244a565b60405180910390fd5b80600060018111156118a5576118a46127ff565b5b600160008373ffffffffffffffffffffffffffffffffffffffff1673ffffffffffffffffffffffffffffffffffffffff16815260200190815260200160002060000160009054906101000a900460ff166001811115611907576119066127ff565b5b14611947576040517f08c379a000000000000000000000000000000000000000000000000000000000815260040161193e9061246a565b60405180910390fd5b6000600160008473ffffffffffffffffffffffffffffffffffffffff1673ffffffffffffffffffffffffffffffffffffffff1681526020019081526020016000206003015414156119da5742600160008473ffffffffffffffffffffffffffffffffffffffff1673ffffffffffffffffffffffffffffffffffffffff168152602001908152602001600020600301819055505b600160008373ffffffffffffffffffffffffffffffffffffffff1673ffffffffffffffffffffffffffffffffffffffff1681526020019081526020016000206001016000815480929190611a2d90612787565b9190505550611b0d82611b08600160008673ffffffffffffffffffffffffffffffffffffffff1673ffffffffffffffffffffffffffffffffffffffff1681526020019081526020016000206040518060c00160405290816000820160009054906101000a900460ff166001811115611aa857611aa76127ff565b5b6001811115611aba57611ab96127ff565b5b81526020016000820160019054906101000a900460ff1660ff1660ff16815260200160018201548152602001600282015481526020016003820154815260200160048201548152505061091d565b610365565b5050565b60026020528160005260406000208181548110611b2d57600080fd5b906000526020600020906005020160009150915050806000018054611b5190612724565b80601f0160208091040260200160405190810160405280929190818152602001828054611b7d90612724565b8015611bca5780601f10611b9f57610100808354040283529160200191611bca565b820191906000526020600020905b815481529060010190602001808311611bad57829003601f168201915b5050505050908060010154908060020154908060030160009054906101000a900460ff16908060040154905085565b600033905090565b60008060009054906101000a900473ffffffffffffffffffffffffffffffffffffffff169050816000806101000a81548173ffffffffffffffffffffffffffffffffffffffff021916908373ffffffffffffffffffffffffffffffffffffffff1602179055508173ffffffffffffffffffffffffffffffffffffffff168173ffffffffffffffffffffffffffffffffffffffff167f8be0079c531659141344cd1fd0a4f28419497f9722a3daafe3b4186f6b6457e060405160405180910390a35050565b828054611cd190612724565b90600052602060002090601f016020900481019282611cf35760008555611d3a565b82601f10611d0c57805160ff1916838001178555611d3a565b82800160010185558215611d3a579182015b82811115611d39578251825591602001919060010190611d1e565b5b509050611d479190611d4b565b5090565b5b80821115611d64576000816000905550600101611d4c565b5090565b6000611d7b611d76846124e5565b6124c0565b905082815260208101848484011115611d9757611d966128c5565b5b611da28482856126e2565b509392505050565b600081359050611db981612a26565b92915050565b600081359050611dce81612a3d565b92915050565b600082601f830112611de957611de86128bb565b5b8135611df9848260208601611d68565b91505092915050565b600060c08284031215611e1857611e176128c0565b5b611e2260c06124c0565b90506000611e3284828501611dbf565b6000830152506020611e4684828501611eb7565b6020830152506040611e5a84828501611ea2565b6040830152506060611e6e84828501611ea2565b6060830152506080611e8284828501611ea2565b60808301525060a0611e9684828501611ea2565b60a08301525092915050565b600081359050611eb181612a4d565b92915050565b600081359050611ec681612a64565b92915050565b600060208284031215611ee257611ee16128cf565b5b6000611ef084828501611daa565b91505092915050565b60008060408385031215611f1057611f0f6128cf565b5b6000611f1e85828601611daa565b9250506020611f2f85828601611dbf565b9150509250929050565b60008060008060808587031215611f5357611f526128cf565b5b6000611f6187828801611daa565b945050602085013567ffffffffffffffff811115611f8257611f816128ca565b5b611f8e87828801611dd4565b9350506040611f9f87828801611ea2565b9250506060611fb087828801611ea2565b91505092959194509250565b60008060408385031215611fd357611fd26128cf565b5b6000611fe185828601611daa565b9250506020611ff285828601611ea2565b9150509250929050565b60008060408385031215612013576120126128cf565b5b600061202185828601611daa565b925050602061203285828601611eb7565b9150509250929050565b600060c08284031215612052576120516128cf565b5b600061206084828501611e02565b91505092915050565b61207281612643565b82525050565b61208181612655565b82525050565b612090816126be565b82525050565b61209f816126d0565b82525050565b60006120b08261252b565b6120ba8185612536565b93506120ca8185602086016126f1565b6120d3816128d4565b840191505092915050565b600081546120eb81612724565b6120f58186612536565b94506001821660008114612110576001811461212257612155565b60ff1983168652602086019350612155565b61212b85612516565b60005b8381101561214d5781548189015260018201915060208101905061212e565b808801955050505b50505092915050565b600061216b602583612536565b9150612176826128e5565b604082019050919050565b600061218e602683612536565b915061219982612934565b604082019050919050565b60006121b1601783612536565b91506121bc82612983565b602082019050919050565b60006121d4602083612536565b91506121df826129ac565b602082019050919050565b60006121f7601083612536565b9150612202826129d5565b602082019050919050565b612216816126a7565b82525050565b612225816126b1565b82525050565b60006020820190506122406000830184612069565b92915050565b600060408201905061225b6000830185612069565b6122686020830184612087565b9392505050565b60006080820190506122846000830187612069565b818103602083015261229681866120a5565b90506122a5604083018561220d565b6122b2606083018461220d565b95945050505050565b60006040820190506122d06000830185612069565b81810360208301526122e281846120de565b90509392505050565b60006040820190506123006000830185612069565b61230d602083018461221c565b9392505050565b60006020820190506123296000830184612078565b92915050565b600060c0820190506123446000830189612087565b612351602083018861221c565b61235e604083018761220d565b61236b606083018661220d565b612378608083018561220d565b61238560a083018461220d565b979650505050505050565b600060a08201905081810360008301526123aa81886120a5565b90506123b9602083018761220d565b6123c6604083018661220d565b6123d36060830185612096565b6123e0608083018461220d565b9695505050505050565b600060208201905081810360008301526124038161215e565b9050919050565b6000602082019050818103600083015261242381612181565b9050919050565b60006020820190508181036000830152612443816121a4565b9050919050565b60006020820190508181036000830152612463816121c7565b9050919050565b60006020820190508181036000830152612483816121ea565b9050919050565b600060208201905061249f600083018461220d565b92915050565b60006020820190506124ba600083018461221c565b92915050565b60006124ca6124db565b90506124d68282612756565b919050565b6000604051905090565b600067ffffffffffffffff821115612500576124ff61288c565b5b612509826128d4565b9050602081019050919050565b60008190508160005260206000209050919050565b600081519050919050565b600082825260208201905092915050565b6000612552826126a7565b915061255d836126a7565b9250827fffffffffffffffffffffffffffffffffffffffffffffffffffffffffffffffff03821115612592576125916127d0565b5b828201905092915050565b60006125a8826126b1565b91506125b3836126b1565b92508260ff038211156125c9576125c86127d0565b5b828201905092915050565b60006125df826126b1565b91506125ea836126b1565b92508160ff0483118215151615612604576126036127d0565b5b828202905092915050565b600061261a826126a7565b9150612625836126a7565b925082821015612638576126376127d0565b5b828203905092915050565b600061264e82612687565b9050919050565b60008115159050919050565b600081905061266f826129fe565b919050565b600081905061268282612a12565b919050565b600073ffffffffffffffffffffffffffffffffffffffff82169050919050565b6000819050919050565b600060ff82169050919050565b60006126c982612661565b9050919050565b60006126db82612674565b9050919050565b82818337600083830152505050565b60005b8381101561270f5780820151818401526020810190506126f4565b8381111561271e576000848401525b50505050565b6000600282049050600182168061273c57607f821691505b602082108114156127505761274f61282e565b5b50919050565b61275f826128d4565b810181811067ffffffffffffffff8211171561277e5761277d61288c565b5b80604052505050565b6000612792826126a7565b91507fffffffffffffffffffffffffffffffffffffffffffffffffffffffffffffffff8214156127c5576127c46127d0565b5b600182019050919050565b7f4e487b7100000000000000000000000000000000000000000000000000000000600052601160045260246000fd5b7f4e487b7100000000000000000000000000000000000000000000000000000000600052602160045260246000fd5b7f4e487b7100000000000000000000000000000000000000000000000000000000600052602260045260246000fd5b7f4e487b7100000000000000000000000000000000000000000000000000000000600052603260045260246000fd5b7f4e487b7100000000000000000000000000000000000000000000000000000000600052604160045260246000fd5b600080fd5b600080fd5b600080fd5b600080fd5b600080fd5b6000601f19601f8301169050919050565b7f54686520637573746f6d657220686173206e6f2070726f6475637420746f207260008201527f6566756e64000000000000000000000000000000000000000000000000000000602082015250565b7f4f776e61626c653a206e6577206f776e657220697320746865207a65726f206160008201527f6464726573730000000000000000000000000000000000000000000000000000602082015250565b7f50686f6e65206973206e6f742072656769737465726564000000000000000000600082015250565b7f4f776e61626c653a2063616c6c6572206973206e6f7420746865206f776e6572600082015250565b7f426c6f636b656420637573746f6d657200000000000000000000000000000000600082015250565b60028110612a0f57612a0e6127ff565b5b50565b60028110612a2357612a226127ff565b5b50565b612a2f81612643565b8114612a3a57600080fd5b50565b60028110612a4a57600080fd5b50565b612a56816126a7565b8114612a6157600080fd5b50565b612a6d816126b1565b8114612a7857600080fd5b5056fea264697066735822122049cbf8d68e14b7156833cec4ac02bd030d4af1847cbfcd649c5f6014ca1f2ea564736f6c63430008060033",
  "immutableReferences": {},
  "source": "// SPDX-License-Identifier: MIT\npragma solidity ^0.8.6;\n\nimport \"@openzeppelin/contracts/access/Ownable.sol\";\n\n/**\n * @title This Smart Contract is responsible of the Billing.\n * @notice Manage all aspects related to billing (customers, accounting and billing management)\n * @author Keeymon, DavidRochus\n */\ncontract Billing is Ownable {\n    /**\n     * @dev Customer status\n     */\n    enum CustomerStatus {\n        Active,\n        Closed\n    }\n\n    /**\n     * @dev History status\n     */\n    enum HistoryStatus {\n        Active,\n        Closed\n    }\n\n    /**\n     * @dev Customer product history\n     */\n    struct History {\n        string          ref;\n        uint            acceptanceTimestamp;\n        uint            paidTimestamp;\n        HistoryStatus   status;\n        uint256         idProduct;\n    }\n\n    /**\n     * @dev Customer information\n     */\n    struct Customer {\n        CustomerStatus  status;\n        uint8           score;\n        uint256         nbTopUp;\n        uint256         amount;\n        uint            firstTopUp;\n        uint256         lastAcceptanceID;\n    }\n\n    /**\n     * @dev Activity log\n     */\n    struct ActivityLog {\n        string log;\n        uint256 timestamp;\n        string status;\n    }\n\n    /**\n     * @dev Triggered when status of a customer has changed\n     */\n    event CustomerStatusChange(address phoneHash, CustomerStatus status);\n    /**\n     * @dev Triggered when score of a customer has changed \n     */\n    event ScoreChange(address phoneHash, uint8 score);\n    /**\n     * @dev Triggered when a customer has been deleted\n     */\n    event CustomerIsDeleted(address phoneHash);\n    /**\n     * @dev Triggered when an Acceptance is received\n     */\n    event AcceptanceReceived(address phoneHash, string ref, uint acceptanceTimestamp, uint256 idProduct);\n    /**\n     * @dev Triggered when confirmation has to be sent\n     */\n    event Confirmation(address phoneHash, string ref, uint acceptanceTimestamp, uint256 idProduct);\n    /**\n     * @dev Triggered when a topUp is received\n     */\n    event TopUpReceived(address phoneHash, string ref);\n    /**\n     * @dev Triggered when an acknowledge has to be sent\n     */\n    event Acknowledge(address phoneHash, string ref);   \n\n    /**\n     * @dev Mapping to access customer information with a phoneHash\n     */\n    mapping(address => Customer) public customers;\n    \n    /**\n     * @dev Mapping to access history information with a phoneHash\n     */\n    mapping(address => History[]) public histories;\n\n    /**\n     * @dev Check that the customer is still active\n     */\n    modifier activeCustomer(address _phoneHash) {\n        require(customers[_phoneHash].status == CustomerStatus.Active, \"Blocked customer\");\n        _;\n    }\n\n    /**\n     * @dev Smart Contract constructor\n     */\n    constructor() {}\n\n    /**\n      * @notice Inform if the customer is active\n      * @param _phoneHash The address that identifies to the customer\n      * @dev This function informs if the customer (identified with `_phoneHash`) is active\n      */\n    function isActiveCustomer(address _phoneHash) public view returns(bool) {\n        return (customers[_phoneHash].status == CustomerStatus.Active ? true : false);\n    }\n\n    /**\n      * @notice Change the customer status\n      * @param _phoneHash The address that identifies to the customer\n      * @param _status The new state for the customer\n      * @dev This function change the customer's status (using CustomerStatus `_status`) ofr a customer (identified with `_phoneHash`)\n      */\n    function changeCustomerStatus(address _phoneHash, CustomerStatus _status) public onlyOwner {\n        customers[_phoneHash].status = _status;\n        emit CustomerStatusChange(_phoneHash, customers[_phoneHash].status);\n    }\n\n    /**\n      * @notice Increase scoring information of a customer\n      * @param _phoneHash The address that identifies to the customer\n      * @dev This function is directly called when API receives a topUp for a customer (identified with `_phoneHash`) with a target other than Timelapse\n      */\n    function getScore(address _phoneHash) external view onlyOwner activeCustomer(_phoneHash) returns(uint8) {\n        return customers[_phoneHash].score;\n    }\n\n    /**\n      * @notice Increase scoring information of a customer\n      * @param _phoneHash The address that identifies to the customer\n      * @dev This function is directly called when API receives a topUp for a customer (identified with `_phoneHash`) with a target other than Timelapse\n      */\n    function addToScore(address _phoneHash) public onlyOwner activeCustomer(_phoneHash) {\n            if (customers[_phoneHash].firstTopUp == 0)\n            customers[_phoneHash].firstTopUp = block.timestamp;\n        customers[_phoneHash].nbTopUp++;\n        changeScore(_phoneHash, process(customers[_phoneHash]));\n    }\n\n    /**\n      * @notice Change the score of a customer\n      * @param _phoneHash The address that identifies to the customer\n      * @dev This function informs if the customer (identified with `_phoneHash`) is active\n      */\n    function changeScore(address _phoneHash, uint8 _score) public onlyOwner {\n        customers[_phoneHash].score = _score;\n        emit ScoreChange(_phoneHash, customers[_phoneHash].score);\n    }\n\n    /**\n      * @notice Get the size of the history of a customer\n      * @param _phoneHash The address that identifies to the customer\n      * @dev Get the size of the history of a customer (identified with `_phoneHash`)\n      */\n    function getHistorySize(address _phoneHash) public view onlyOwner returns (uint256) {\n        return histories[_phoneHash].length;\n    }\n\n    /**\n      * @notice Add amount to customer total amount\n      * @param _phoneHash The address that identifies to the customer\n      * @dev Add amount to customer (identified with `_phoneHash`) total amount\n      */\n    function addToCustomerAmount(address _phoneHash, uint _amount) public onlyOwner activeCustomer(_phoneHash) {\n        customers[_phoneHash].amount += _amount;\n        customers[_phoneHash].nbTopUp++;\n    }\n\n    /**\n      * @notice Add an acceptance in the customer history\n      * @param _phoneHash The address that identifies to the customer\n      * @param _ref Reference of the telecom provider\n      * @param _acceptanceTimestamp Timestamp of the acceptance\n      * @param _idProduct ID of the product\n      * @dev Add a customer product history (using reference `_ref`, product `_idProduct`, timestamp `_acceptanceTimestamp`) for a customer (identified with `_phoneHash`)\n      */\n    function acceptanceBilling(address _phoneHash, string memory _ref, uint _acceptanceTimestamp, uint256 _idProduct) public onlyOwner activeCustomer(_phoneHash) {\n        emit AcceptanceReceived(_phoneHash, _ref, _acceptanceTimestamp, _idProduct);\n        histories[_phoneHash].push(History( _ref, _acceptanceTimestamp, 0, HistoryStatus.Active, _idProduct));\n        Customer memory customer = customers[_phoneHash];\n        customer.lastAcceptanceID = (histories[_phoneHash].length - 1);\n        History memory lastAcceptance = histories[_phoneHash][customer.lastAcceptanceID];\n        emit Confirmation(_phoneHash, lastAcceptance.ref, lastAcceptance.acceptanceTimestamp, lastAcceptance.idProduct);\n    }\n\n    /**\n      * @notice TopUp the last product of a customer\n      * @param _phoneHash The address that identifies to the customer\n      * @param _paidTimestamp Timestamp of the acceptance\n      * @dev TopUp the last product of a customer (identified with `_phoneHash`) at timestamp `_paidTimestamp`\n      */\n    function topUpBilling(address _phoneHash, uint _paidTimestamp) public onlyOwner {\n        require(histories[_phoneHash].length > 0, \"Phone is not registered\");\n        uint index = (histories[_phoneHash].length - 1);\n        require(histories[_phoneHash][index].status == HistoryStatus.Active, \"The customer has no product to refund\");\n\n        emit TopUpReceived(_phoneHash, histories[_phoneHash][index].ref);\n        histories[_phoneHash][index].paidTimestamp = _paidTimestamp;\n        histories[_phoneHash][index].status = HistoryStatus.Closed;\n        /*\n        if(customers[_phoneHash].score == 0) { // On mettra ca ailleur\n            customers[_phoneHash].status = CustomerStatus.Closed;\n            emit CustomerIsDeleted(_phoneHash);\n        }\n        */\n        emit Acknowledge(_phoneHash, histories[_phoneHash][index].ref);\n    }\n\n    /**\n      * @notice Compute the score of a customer\n      * @param _customer The customer\n      * @return Score The computed customer score \n      * @dev Compute the score of a customer `_customer`\n      */\n    function process(Customer memory _customer) public view returns(uint8) {\n        uint8 score;\n        uint8 topupAmountPoints;\n        uint8 firstTopUpAgePoints;\n        uint8 nbTopUpPoints;\n        if (_customer.amount >= 0 && _customer.amount <= 40) {\n            topupAmountPoints = 1;\n        } else if (_customer.amount > 40 && _customer.amount <= 150) {\n            topupAmountPoints = 2;\n        } else {\n            topupAmountPoints = 3;\n        }\n        if (_customer.firstTopUp >= (block.timestamp - 90 days)) {\n            firstTopUpAgePoints = 0;\n        } else if (\n            _customer.firstTopUp < (block.timestamp - 90 days) &&\n            _customer.firstTopUp >= (block.timestamp - 180 days)\n        ) {\n            firstTopUpAgePoints = 2;\n        } else if (\n            _customer.firstTopUp < (block.timestamp - 180 days) &&\n            _customer.firstTopUp >= (block.timestamp - 330 days)\n        ) {\n            firstTopUpAgePoints = 6;\n        } else {\n            firstTopUpAgePoints = 15;\n        }\n        if (_customer.nbTopUp == 0) {\n            nbTopUpPoints = 0;\n        } else if (_customer.nbTopUp > 0 && _customer.nbTopUp <= 10) {\n            nbTopUpPoints = 1;\n        } else if (_customer.nbTopUp > 10 && _customer.nbTopUp <= 20) {\n            nbTopUpPoints = 5;\n        } else {\n            nbTopUpPoints = 15;\n        }\n\n        score =\n            (topupAmountPoints * 4) +\n            (firstTopUpAgePoints * 6) +\n            (nbTopUpPoints * 8);\n        return score;\n    }\n}",
  "sourcePath": "/home/keymon/work/projet-pro/dApp/timelapse/contracts/Billing.sol",
  "compiler": {
    "name": "solc",
    "version": "0.8.6+commit.11564f7e.Emscripten.clang"
  },
  "schemaVersion": "3.4.1",
  "updatedAt": "2021-07-20T18:28:21.253Z",
  "devdoc": {
    "author": "Keeymon, DavidRochus",
    "events": {
      "AcceptanceReceived(address,string,uint256,uint256)": {
        "details": "Triggered when an Acceptance is received"
      },
      "Acknowledge(address,string)": {
        "details": "Triggered when an acknowledge has to be sent"
      },
      "Confirmation(address,string,uint256,uint256)": {
        "details": "Triggered when confirmation has to be sent"
      },
      "CustomerIsDeleted(address)": {
        "details": "Triggered when a customer has been deleted"
      },
      "CustomerStatusChange(address,uint8)": {
        "details": "Triggered when status of a customer has changed"
      },
      "ScoreChange(address,uint8)": {
        "details": "Triggered when score of a customer has changed "
      },
      "TopUpReceived(address,string)": {
        "details": "Triggered when a topUp is received"
      }
    },
    "kind": "dev",
    "methods": {
      "acceptanceBilling(address,string,uint256,uint256)": {
        "details": "Add a customer product history (using reference `_ref`, product `_idProduct`, timestamp `_acceptanceTimestamp`) for a customer (identified with `_phoneHash`)",
        "params": {
          "_acceptanceTimestamp": "Timestamp of the acceptance",
          "_idProduct": "ID of the product",
          "_phoneHash": "The address that identifies to the customer",
          "_ref": "Reference of the telecom provider"
        }
      },
      "addToCustomerAmount(address,uint256)": {
        "details": "Add amount to customer (identified with `_phoneHash`) total amount",
        "params": {
          "_phoneHash": "The address that identifies to the customer"
        }
      },
      "addToScore(address)": {
        "details": "This function is directly called when API receives a topUp for a customer (identified with `_phoneHash`) with a target other than Timelapse",
        "params": {
          "_phoneHash": "The address that identifies to the customer"
        }
      },
      "changeCustomerStatus(address,uint8)": {
        "details": "This function change the customer's status (using CustomerStatus `_status`) ofr a customer (identified with `_phoneHash`)",
        "params": {
          "_phoneHash": "The address that identifies to the customer",
          "_status": "The new state for the customer"
        }
      },
      "changeScore(address,uint8)": {
        "details": "This function informs if the customer (identified with `_phoneHash`) is active",
        "params": {
          "_phoneHash": "The address that identifies to the customer"
        }
      },
      "constructor": {
        "details": "Smart Contract constructor"
      },
      "getHistorySize(address)": {
        "details": "Get the size of the history of a customer (identified with `_phoneHash`)",
        "params": {
          "_phoneHash": "The address that identifies to the customer"
        }
      },
      "getScore(address)": {
        "details": "This function is directly called when API receives a topUp for a customer (identified with `_phoneHash`) with a target other than Timelapse",
        "params": {
          "_phoneHash": "The address that identifies to the customer"
        }
      },
      "isActiveCustomer(address)": {
        "details": "This function informs if the customer (identified with `_phoneHash`) is active",
        "params": {
          "_phoneHash": "The address that identifies to the customer"
        }
      },
      "owner()": {
        "details": "Returns the address of the current owner."
      },
      "process((uint8,uint8,uint256,uint256,uint256,uint256))": {
        "details": "Compute the score of a customer `_customer`",
        "params": {
          "_customer": "The customer"
        },
        "returns": {
          "_0": "Score The computed customer score "
        }
      },
      "renounceOwnership()": {
        "details": "Leaves the contract without owner. It will not be possible to call `onlyOwner` functions anymore. Can only be called by the current owner. NOTE: Renouncing ownership will leave the contract without an owner, thereby removing any functionality that is only available to the owner."
      },
      "topUpBilling(address,uint256)": {
        "details": "TopUp the last product of a customer (identified with `_phoneHash`) at timestamp `_paidTimestamp`",
        "params": {
          "_paidTimestamp": "Timestamp of the acceptance",
          "_phoneHash": "The address that identifies to the customer"
        }
      },
      "transferOwnership(address)": {
        "details": "Transfers ownership of the contract to a new account (`newOwner`). Can only be called by the current owner."
      }
    },
    "stateVariables": {
      "customers": {
        "details": "Mapping to access customer information with a phoneHash"
      },
      "histories": {
        "details": "Mapping to access history information with a phoneHash"
      }
    },
    "title": "This Smart Contract is responsible of the Billing.",
    "version": 1
  },
  "userdoc": {
    "kind": "user",
    "methods": {
      "acceptanceBilling(address,string,uint256,uint256)": {
        "notice": "Add an acceptance in the customer history"
      },
      "addToCustomerAmount(address,uint256)": {
        "notice": "Add amount to customer total amount"
      },
      "addToScore(address)": {
        "notice": "Increase scoring information of a customer"
      },
      "changeCustomerStatus(address,uint8)": {
        "notice": "Change the customer status"
      },
      "changeScore(address,uint8)": {
        "notice": "Change the score of a customer"
      },
      "getHistorySize(address)": {
        "notice": "Get the size of the history of a customer"
      },
      "getScore(address)": {
        "notice": "Increase scoring information of a customer"
      },
      "isActiveCustomer(address)": {
        "notice": "Inform if the customer is active"
      },
      "process((uint8,uint8,uint256,uint256,uint256,uint256))": {
        "notice": "Compute the score of a customer"
      },
      "topUpBilling(address,uint256)": {
        "notice": "TopUp the last product of a customer"
      }
    },
    "notice": "Manage all aspects related to billing (customers, accounting and billing management)",
    "version": 1
  }
}