{
  "contractName": "Billing",
  "abi": [
    {
      "inputs": [],
      "stateMutability": "nonpayable",
      "type": "constructor"
    },
    {
      "anonymous": false,
      "inputs": [
        {
          "indexed": false,
          "internalType": "address",
          "name": "phoneHash",
          "type": "address"
        },
        {
          "indexed": false,
          "internalType": "string",
          "name": "ref",
          "type": "string"
        },
        {
          "indexed": false,
          "internalType": "uint256",
          "name": "acceptanceTimestamp",
          "type": "uint256"
        },
        {
          "indexed": false,
          "internalType": "uint256",
          "name": "idProduct",
          "type": "uint256"
        }
      ],
      "name": "AcceptanceReceived",
      "type": "event"
    },
    {
      "anonymous": false,
      "inputs": [
        {
          "indexed": false,
          "internalType": "address",
          "name": "phoneHash",
          "type": "address"
        },
        {
          "indexed": false,
          "internalType": "string",
          "name": "ref",
          "type": "string"
        }
      ],
      "name": "Acknowledge",
      "type": "event"
    },
    {
      "anonymous": false,
      "inputs": [
        {
          "indexed": false,
          "internalType": "address",
          "name": "phoneHash",
          "type": "address"
        },
        {
          "indexed": false,
          "internalType": "string",
          "name": "ref",
          "type": "string"
        },
        {
          "indexed": false,
          "internalType": "uint256",
          "name": "acceptanceTimestamp",
          "type": "uint256"
        },
        {
          "indexed": false,
          "internalType": "uint256",
          "name": "idProduct",
          "type": "uint256"
        }
      ],
      "name": "Confirmation",
      "type": "event"
    },
    {
      "anonymous": false,
      "inputs": [
        {
          "indexed": false,
          "internalType": "address",
          "name": "phoneHash",
          "type": "address"
        }
      ],
      "name": "CustomerIsDeleted",
      "type": "event"
    },
    {
      "anonymous": false,
      "inputs": [
        {
          "indexed": false,
          "internalType": "address",
          "name": "phoneHash",
          "type": "address"
        },
        {
          "indexed": false,
          "internalType": "enum Billing.CustomerStatus",
          "name": "status",
          "type": "uint8"
        }
      ],
      "name": "CustomerStatusChange",
      "type": "event"
    },
    {
      "anonymous": false,
      "inputs": [
        {
          "indexed": true,
          "internalType": "address",
          "name": "previousOwner",
          "type": "address"
        },
        {
          "indexed": true,
          "internalType": "address",
          "name": "newOwner",
          "type": "address"
        }
      ],
      "name": "OwnershipTransferred",
      "type": "event"
    },
    {
      "anonymous": false,
      "inputs": [
        {
          "indexed": false,
          "internalType": "address",
          "name": "phoneHash",
          "type": "address"
        },
        {
          "indexed": false,
          "internalType": "uint8",
          "name": "score",
          "type": "uint8"
        }
      ],
      "name": "ScoreChange",
      "type": "event"
    },
    {
      "anonymous": false,
      "inputs": [
        {
          "indexed": false,
          "internalType": "address",
          "name": "phoneHash",
          "type": "address"
        },
        {
          "indexed": false,
          "internalType": "string",
          "name": "ref",
          "type": "string"
        }
      ],
      "name": "TopUpReceived",
      "type": "event"
    },
    {
      "inputs": [
        {
          "internalType": "address",
          "name": "",
          "type": "address"
        }
      ],
      "name": "customers",
      "outputs": [
        {
          "internalType": "enum Billing.CustomerStatus",
          "name": "status",
          "type": "uint8"
        },
        {
          "internalType": "uint8",
          "name": "score",
          "type": "uint8"
        },
        {
          "internalType": "uint256",
          "name": "nbTopUp",
          "type": "uint256"
        },
        {
          "internalType": "uint256",
          "name": "amount",
          "type": "uint256"
        },
        {
          "internalType": "uint256",
          "name": "firstTopUp",
          "type": "uint256"
        },
        {
          "internalType": "uint256",
          "name": "lastAcceptanceID",
          "type": "uint256"
        }
      ],
      "stateMutability": "view",
      "type": "function",
      "constant": true
    },
    {
      "inputs": [
        {
          "internalType": "uint256",
          "name": "",
          "type": "uint256"
        }
      ],
      "name": "histories",
      "outputs": [
        {
          "internalType": "string",
          "name": "ref",
          "type": "string"
        },
        {
          "internalType": "uint256",
          "name": "acceptanceTimestamp",
          "type": "uint256"
        },
        {
          "internalType": "uint256",
          "name": "paidTimestamp",
          "type": "uint256"
        },
        {
          "internalType": "enum Billing.HistoryStatus",
          "name": "status",
          "type": "uint8"
        },
        {
          "internalType": "uint256",
          "name": "idProduct",
          "type": "uint256"
        }
      ],
      "stateMutability": "view",
      "type": "function",
      "constant": true
    },
    {
      "inputs": [
        {
          "internalType": "address",
          "name": "",
          "type": "address"
        },
        {
          "internalType": "uint256",
          "name": "",
          "type": "uint256"
        }
      ],
      "name": "historyList",
      "outputs": [
        {
          "internalType": "uint256",
          "name": "",
          "type": "uint256"
        }
      ],
      "stateMutability": "view",
      "type": "function",
      "constant": true
    },
    {
      "inputs": [],
      "name": "owner",
      "outputs": [
        {
          "internalType": "address",
          "name": "",
          "type": "address"
        }
      ],
      "stateMutability": "view",
      "type": "function",
      "constant": true
    },
    {
      "inputs": [],
      "name": "renounceOwnership",
      "outputs": [],
      "stateMutability": "nonpayable",
      "type": "function"
    },
    {
      "inputs": [
        {
          "internalType": "address",
          "name": "newOwner",
          "type": "address"
        }
      ],
      "name": "transferOwnership",
      "outputs": [],
      "stateMutability": "nonpayable",
      "type": "function"
    },
    {
      "inputs": [
        {
          "internalType": "address",
          "name": "_phoneHash",
          "type": "address"
        }
      ],
      "name": "isActiveCustomer",
      "outputs": [
        {
          "internalType": "bool",
          "name": "",
          "type": "bool"
        }
      ],
      "stateMutability": "view",
      "type": "function",
      "constant": true
    },
    {
      "inputs": [
        {
          "internalType": "address",
          "name": "_phoneHash",
          "type": "address"
        },
        {
          "internalType": "enum Billing.CustomerStatus",
          "name": "_status",
          "type": "uint8"
        }
      ],
      "name": "changeCustomerStatus",
      "outputs": [],
      "stateMutability": "nonpayable",
      "type": "function"
    },
    {
      "inputs": [
        {
          "internalType": "address",
          "name": "_phoneHash",
          "type": "address"
        }
      ],
      "name": "getScore",
      "outputs": [
        {
          "internalType": "uint8",
          "name": "",
          "type": "uint8"
        }
      ],
      "stateMutability": "view",
      "type": "function",
      "constant": true
    },
    {
      "inputs": [
        {
          "internalType": "address",
          "name": "_phoneHash",
          "type": "address"
        }
      ],
      "name": "addToScore",
      "outputs": [],
      "stateMutability": "nonpayable",
      "type": "function"
    },
    {
      "inputs": [
        {
          "internalType": "address",
          "name": "_phoneHash",
          "type": "address"
        },
        {
          "internalType": "uint8",
          "name": "_score",
          "type": "uint8"
        }
      ],
      "name": "changeScore",
      "outputs": [],
      "stateMutability": "nonpayable",
      "type": "function"
    },
    {
      "inputs": [
        {
          "internalType": "address",
          "name": "_phoneHash",
          "type": "address"
        }
      ],
      "name": "getHistorySize",
      "outputs": [
        {
          "internalType": "uint256",
          "name": "",
          "type": "uint256"
        }
      ],
      "stateMutability": "view",
      "type": "function",
      "constant": true
    },
    {
      "inputs": [],
      "name": "getHistoriesSize",
      "outputs": [
        {
          "internalType": "uint256",
          "name": "",
          "type": "uint256"
        }
      ],
      "stateMutability": "view",
      "type": "function",
      "constant": true
    },
    {
      "inputs": [
        {
          "internalType": "address",
          "name": "_phoneHash",
          "type": "address"
        },
        {
          "internalType": "uint256",
          "name": "_amount",
          "type": "uint256"
        }
      ],
      "name": "addToCustomerAmount",
      "outputs": [],
      "stateMutability": "nonpayable",
      "type": "function"
    },
    {
      "inputs": [
        {
          "internalType": "address",
          "name": "_phoneHash",
          "type": "address"
        },
        {
          "internalType": "string",
          "name": "_ref",
          "type": "string"
        },
        {
          "internalType": "uint256",
          "name": "_acceptanceTimestamp",
          "type": "uint256"
        },
        {
          "internalType": "uint256",
          "name": "_idProduct",
          "type": "uint256"
        }
      ],
      "name": "acceptanceBilling",
      "outputs": [],
      "stateMutability": "nonpayable",
      "type": "function"
    },
    {
      "inputs": [
        {
          "internalType": "address",
          "name": "_phoneHash",
          "type": "address"
        },
        {
          "internalType": "uint256",
          "name": "_paidTimestamp",
          "type": "uint256"
        }
      ],
      "name": "topUpBilling",
      "outputs": [],
      "stateMutability": "nonpayable",
      "type": "function"
    },
    {
      "inputs": [
        {
          "components": [
            {
              "internalType": "enum Billing.CustomerStatus",
              "name": "status",
              "type": "uint8"
            },
            {
              "internalType": "uint8",
              "name": "score",
              "type": "uint8"
            },
            {
              "internalType": "uint256",
              "name": "nbTopUp",
              "type": "uint256"
            },
            {
              "internalType": "uint256",
              "name": "amount",
              "type": "uint256"
            },
            {
              "internalType": "uint256",
              "name": "firstTopUp",
              "type": "uint256"
            },
            {
              "internalType": "uint256",
              "name": "lastAcceptanceID",
              "type": "uint256"
            }
          ],
          "internalType": "struct Billing.Customer",
          "name": "_customer",
          "type": "tuple"
        }
      ],
      "name": "process",
      "outputs": [
        {
          "internalType": "uint8",
          "name": "",
          "type": "uint8"
        }
      ],
      "stateMutability": "view",
      "type": "function",
      "constant": true
    }
  ],
  "bytecode": "0x60806040523480156200001157600080fd5b5062000032620000266200003860201b60201c565b6200004060201b60201c565b62000104565b600033905090565b60008060009054906101000a900473ffffffffffffffffffffffffffffffffffffffff169050816000806101000a81548173ffffffffffffffffffffffffffffffffffffffff021916908373ffffffffffffffffffffffffffffffffffffffff1602179055508173ffffffffffffffffffffffffffffffffffffffff168173ffffffffffffffffffffffffffffffffffffffff167f8be0079c531659141344cd1fd0a4f28419497f9722a3daafe3b4186f6b6457e060405160405180910390a35050565b612a7e80620001146000396000f3fe608060405234801561001057600080fd5b506004361061010b5760003560e01c806393d08f24116100a2578063d47875d011610071578063d47875d0146102d1578063d8dd182714610301578063f2fde38b1461031d578063f3963cba14610339578063fcdc4eb7146103555761010b565b806393d08f241461022557806399415568146102415780639ef91d9114610271578063c23a179f146102a15761010b565b80636c34ba18116100de5780636c34ba18146101b1578063715018a6146101e15780637a67e6cc146101eb5780638da5cb5b146102075761010b565b8063336989ae146101105780633ef3e0cb1461014557806345df77791461016157806356564b7c1461017d575b600080fd5b61012a60048036038101906101259190611e6c565b610373565b60405161013c969594939291906122fc565b60405180910390f35b61015f600480360381019061015a9190611f9c565b6103c9565b005b61017b60048036038101906101769190611f5c565b61052c565b005b61019760048036038101906101929190612009565b610850565b6040516101a895949392919061235d565b60405180910390f35b6101cb60048036038101906101c69190611fdc565b61092b565b6040516101d89190612472565b60405180910390f35b6101e9610ae7565b005b61020560048036038101906102009190611ed9565b610b6f565b005b61020f611084565b60405161021c91906121f8565b60405180910390f35b61023f600480360381019061023a9190611e99565b6110ad565b005b61025b60048036038101906102569190611f5c565b61121f565b6040516102689190612457565b60405180910390f35b61028b60048036038101906102869190611e6c565b611250565b60405161029891906122e1565b60405180910390f35b6102bb60048036038101906102b69190611e6c565b6112dd565b6040516102c89190612457565b60405180910390f35b6102eb60048036038101906102e69190611e6c565b6113a5565b6040516102f89190612472565b60405180910390f35b61031b60048036038101906103169190611f5c565b611532565b005b61033760048036038101906103329190611e6c565b61171b565b005b610353600480360381019061034e9190611e6c565b611813565b005b61035d611b10565b60405161036a9190612457565b60405180910390f35b60016020528060005260406000206000915090508060000160009054906101000a900460ff16908060000160019054906101000a900460ff16908060010154908060020154908060030154908060040154905086565b6103d1611b99565b73ffffffffffffffffffffffffffffffffffffffff166103ef611084565b73ffffffffffffffffffffffffffffffffffffffff1614610445576040517f08c379a000000000000000000000000000000000000000000000000000000000815260040161043c90612417565b60405180910390fd5b80600160008473ffffffffffffffffffffffffffffffffffffffff1673ffffffffffffffffffffffffffffffffffffffff16815260200190815260200160002060000160016101000a81548160ff021916908360ff1602179055507f67300a8a7a64e6ba305144189169d4bf615482b42e8fd241a6c5fc20879374a782600160008573ffffffffffffffffffffffffffffffffffffffff1673ffffffffffffffffffffffffffffffffffffffff16815260200190815260200160002060000160019054906101000a900460ff166040516105209291906122b8565b60405180910390a15050565b610534611b99565b73ffffffffffffffffffffffffffffffffffffffff16610552611084565b73ffffffffffffffffffffffffffffffffffffffff16146105a8576040517f08c379a000000000000000000000000000000000000000000000000000000000815260040161059f90612417565b60405180910390fd5b6000600360008473ffffffffffffffffffffffffffffffffffffffff1673ffffffffffffffffffffffffffffffffffffffff168152602001908152602001600020805490501161062d576040517f08c379a0000000000000000000000000000000000000000000000000000000008152600401610624906123f7565b60405180910390fd5b60006001600360008573ffffffffffffffffffffffffffffffffffffffff1673ffffffffffffffffffffffffffffffffffffffff1681526020019081526020016000208054905061067e91906125dc565b905060006001811115610694576106936127cc565b5b600282815481106106a8576106a761282a565b5b906000526020600020906005020160030160009054906101000a900460ff1660018111156106d9576106d86127cc565b5b14610719576040517f08c379a0000000000000000000000000000000000000000000000000000000008152600401610710906123b7565b60405180910390fd5b7fa3a756c9361873f5cd34cb71ba3b6ebc76b90321aa2767387c016991dfb4f63a836002838154811061074f5761074e61282a565b5b906000526020600020906005020160000160405161076e929190612288565b60405180910390a1816002828154811061078b5761078a61282a565b5b9060005260206000209060050201600201819055506001600282815481106107b6576107b561282a565b5b906000526020600020906005020160030160006101000a81548160ff021916908360018111156107e9576107e86127cc565b5b02179055507fd3866d48a40f2de06c735e96a984d47ce6783b334002603c31e3f4bc05bd51c583600283815481106108245761082361282a565b5b9060005260206000209060050201600001604051610843929190612288565b60405180910390a1505050565b6002818154811061086057600080fd5b9060005260206000209060050201600091509050806000018054610883906126f1565b80601f01602080910402602001604051908101604052809291908181526020018280546108af906126f1565b80156108fc5780601f106108d1576101008083540402835291602001916108fc565b820191906000526020600020905b8154815290600101906020018083116108df57829003601f168201915b5050505050908060010154908060020154908060030160009054906101000a900460ff16908060040154905085565b60008060008060008086606001511015801561094c57506028866060015111155b1561095a5760019250610987565b6028866060015111801561097357506096866060015111155b156109815760029250610986565b600392505b5b6276a7004261099691906125dc565b8660800151106109a95760009150610a33565b6276a700426109b891906125dc565b86608001511080156109dc575062ed4e00426109d491906125dc565b866080015110155b156109ea5760029150610a32565b62ed4e00426109f991906125dc565b8660800151108015610a1e57506301b30f0042610a1691906125dc565b866080015110155b15610a2c5760069150610a31565b600f91505b5b5b600086604001511415610a495760009050610a9e565b60008660400151118015610a625750600a866040015111155b15610a705760019050610a9d565b600a8660400151118015610a8957506014866040015111155b15610a975760059050610a9c565b600f90505b5b5b600881610aab91906125a1565b600683610ab891906125a1565b600485610ac591906125a1565b610acf919061256a565b610ad9919061256a565b935083945050505050919050565b610aef611b99565b73ffffffffffffffffffffffffffffffffffffffff16610b0d611084565b73ffffffffffffffffffffffffffffffffffffffff1614610b63576040517f08c379a0000000000000000000000000000000000000000000000000000000008152600401610b5a90612417565b60405180910390fd5b610b6d6000611ba1565b565b610b77611b99565b73ffffffffffffffffffffffffffffffffffffffff16610b95611084565b73ffffffffffffffffffffffffffffffffffffffff1614610beb576040517f08c379a0000000000000000000000000000000000000000000000000000000008152600401610be290612417565b60405180910390fd5b8360006001811115610c0057610bff6127cc565b5b600160008373ffffffffffffffffffffffffffffffffffffffff1673ffffffffffffffffffffffffffffffffffffffff16815260200190815260200160002060000160009054906101000a900460ff166001811115610c6257610c616127cc565b5b14610ca2576040517f08c379a0000000000000000000000000000000000000000000000000000000008152600401610c9990612437565b60405180910390fd5b7f031870b979bdc77dc0b1037a1aac37c55a178ab3bec4f8ba1ca1fc452e30578b85858585604051610cd7949392919061223c565b60405180910390a160026040518060a001604052808681526020018581526020016000815260200160006001811115610d1357610d126127cc565b5b81526020018481525090806001815401808255809150506001900390600052602060002090600502016000909190919091506000820151816000019080519060200190610d61929190611c65565b50602082015181600101556040820151816002015560608201518160030160006101000a81548160ff02191690836001811115610da157610da06127cc565b5b02179055506080820151816004015550506000600160008773ffffffffffffffffffffffffffffffffffffffff1673ffffffffffffffffffffffffffffffffffffffff1681526020019081526020016000206040518060c00160405290816000820160009054906101000a900460ff166001811115610e2357610e226127cc565b5b6001811115610e3557610e346127cc565b5b81526020016000820160019054906101000a900460ff1660ff1660ff16815260200160018201548152602001600282015481526020016003820154815260200160048201548152505090506001600280549050610e9291906125dc565b8160a0018181525050600360008773ffffffffffffffffffffffffffffffffffffffff1673ffffffffffffffffffffffffffffffffffffffff1681526020019081526020016000206001600280549050610eec91906125dc565b9080600181540180825580915050600190039060005260206000200160009091909190915055600060028260a0015181548110610f2c57610f2b61282a565b5b90600052602060002090600502016040518060a0016040529081600082018054610f55906126f1565b80601f0160208091040260200160405190810160405280929190818152602001828054610f81906126f1565b8015610fce5780601f10610fa357610100808354040283529160200191610fce565b820191906000526020600020905b815481529060010190602001808311610fb157829003601f168201915b5050505050815260200160018201548152602001600282015481526020016003820160009054906101000a900460ff1660018111156110105761100f6127cc565b5b6001811115611022576110216127cc565b5b815260200160048201548152505090507f52420d39a0f366bd8078120494fcd7ffb3971e79291fa625dd9de26e8560752487826000015183602001518460800151604051611073949392919061223c565b60405180910390a150505050505050565b60008060009054906101000a900473ffffffffffffffffffffffffffffffffffffffff16905090565b6110b5611b99565b73ffffffffffffffffffffffffffffffffffffffff166110d3611084565b73ffffffffffffffffffffffffffffffffffffffff1614611129576040517f08c379a000000000000000000000000000000000000000000000000000000000815260040161112090612417565b60405180910390fd5b80600160008473ffffffffffffffffffffffffffffffffffffffff1673ffffffffffffffffffffffffffffffffffffffff16815260200190815260200160002060000160006101000a81548160ff0219169083600181111561118e5761118d6127cc565b5b02179055507fb23cc8d2c435b48098fc64e3bfd632e00ba00d1b8be3f25b0a973438951eae7f82600160008573ffffffffffffffffffffffffffffffffffffffff1673ffffffffffffffffffffffffffffffffffffffff16815260200190815260200160002060000160009054906101000a900460ff16604051611213929190612213565b60405180910390a15050565b6003602052816000526040600020818154811061123b57600080fd5b90600052602060002001600091509150505481565b6000806001811115611265576112646127cc565b5b600160008473ffffffffffffffffffffffffffffffffffffffff1673ffffffffffffffffffffffffffffffffffffffff16815260200190815260200160002060000160009054906101000a900460ff1660018111156112c7576112c66127cc565b5b146112d35760006112d6565b60015b9050919050565b60006112e7611b99565b73ffffffffffffffffffffffffffffffffffffffff16611305611084565b73ffffffffffffffffffffffffffffffffffffffff161461135b576040517f08c379a000000000000000000000000000000000000000000000000000000000815260040161135290612417565b60405180910390fd5b600360008373ffffffffffffffffffffffffffffffffffffffff1673ffffffffffffffffffffffffffffffffffffffff168152602001908152602001600020805490509050919050565b60006113af611b99565b73ffffffffffffffffffffffffffffffffffffffff166113cd611084565b73ffffffffffffffffffffffffffffffffffffffff1614611423576040517f08c379a000000000000000000000000000000000000000000000000000000000815260040161141a90612417565b60405180910390fd5b8160006001811115611438576114376127cc565b5b600160008373ffffffffffffffffffffffffffffffffffffffff1673ffffffffffffffffffffffffffffffffffffffff16815260200190815260200160002060000160009054906101000a900460ff16600181111561149a576114996127cc565b5b146114da576040517f08c379a00000000000000000000000000000000000000000000000000000000081526004016114d190612437565b60405180910390fd5b600160008473ffffffffffffffffffffffffffffffffffffffff1673ffffffffffffffffffffffffffffffffffffffff16815260200190815260200160002060000160019054906101000a900460ff16915050919050565b61153a611b99565b73ffffffffffffffffffffffffffffffffffffffff16611558611084565b73ffffffffffffffffffffffffffffffffffffffff16146115ae576040517f08c379a00000000000000000000000000000000000000000000000000000000081526004016115a590612417565b60405180910390fd5b81600060018111156115c3576115c26127cc565b5b600160008373ffffffffffffffffffffffffffffffffffffffff1673ffffffffffffffffffffffffffffffffffffffff16815260200190815260200160002060000160009054906101000a900460ff166001811115611625576116246127cc565b5b14611665576040517f08c379a000000000000000000000000000000000000000000000000000000000815260040161165c90612437565b60405180910390fd5b81600160008573ffffffffffffffffffffffffffffffffffffffff1673ffffffffffffffffffffffffffffffffffffffff16815260200190815260200160002060020160008282546116b79190612514565b92505081905550600160008473ffffffffffffffffffffffffffffffffffffffff1673ffffffffffffffffffffffffffffffffffffffff168152602001908152602001600020600101600081548092919061171190612754565b9190505550505050565b611723611b99565b73ffffffffffffffffffffffffffffffffffffffff16611741611084565b73ffffffffffffffffffffffffffffffffffffffff1614611797576040517f08c379a000000000000000000000000000000000000000000000000000000000815260040161178e90612417565b60405180910390fd5b600073ffffffffffffffffffffffffffffffffffffffff168173ffffffffffffffffffffffffffffffffffffffff161415611807576040517f08c379a00000000000000000000000000000000000000000000000000000000081526004016117fe906123d7565b60405180910390fd5b61181081611ba1565b50565b61181b611b99565b73ffffffffffffffffffffffffffffffffffffffff16611839611084565b73ffffffffffffffffffffffffffffffffffffffff161461188f576040517f08c379a000000000000000000000000000000000000000000000000000000000815260040161188690612417565b60405180910390fd5b80600060018111156118a4576118a36127cc565b5b600160008373ffffffffffffffffffffffffffffffffffffffff1673ffffffffffffffffffffffffffffffffffffffff16815260200190815260200160002060000160009054906101000a900460ff166001811115611906576119056127cc565b5b14611946576040517f08c379a000000000000000000000000000000000000000000000000000000000815260040161193d90612437565b60405180910390fd5b6000600160008473ffffffffffffffffffffffffffffffffffffffff1673ffffffffffffffffffffffffffffffffffffffff1681526020019081526020016000206003015414156119d95742600160008473ffffffffffffffffffffffffffffffffffffffff1673ffffffffffffffffffffffffffffffffffffffff168152602001908152602001600020600301819055505b600160008373ffffffffffffffffffffffffffffffffffffffff1673ffffffffffffffffffffffffffffffffffffffff1681526020019081526020016000206001016000815480929190611a2c90612754565b9190505550611b0c82611b07600160008673ffffffffffffffffffffffffffffffffffffffff1673ffffffffffffffffffffffffffffffffffffffff1681526020019081526020016000206040518060c00160405290816000820160009054906101000a900460ff166001811115611aa757611aa66127cc565b5b6001811115611ab957611ab86127cc565b5b81526020016000820160019054906101000a900460ff1660ff1660ff16815260200160018201548152602001600282015481526020016003820154815260200160048201548152505061092b565b6103c9565b5050565b6000611b1a611b99565b73ffffffffffffffffffffffffffffffffffffffff16611b38611084565b73ffffffffffffffffffffffffffffffffffffffff1614611b8e576040517f08c379a0000000000000000000000000000000000000000000000000000000008152600401611b8590612417565b60405180910390fd5b600280549050905090565b600033905090565b60008060009054906101000a900473ffffffffffffffffffffffffffffffffffffffff169050816000806101000a81548173ffffffffffffffffffffffffffffffffffffffff021916908373ffffffffffffffffffffffffffffffffffffffff1602179055508173ffffffffffffffffffffffffffffffffffffffff168173ffffffffffffffffffffffffffffffffffffffff167f8be0079c531659141344cd1fd0a4f28419497f9722a3daafe3b4186f6b6457e060405160405180910390a35050565b828054611c71906126f1565b90600052602060002090601f016020900481019282611c935760008555611cda565b82601f10611cac57805160ff1916838001178555611cda565b82800160010185558215611cda579182015b82811115611cd9578251825591602001919060010190611cbe565b5b509050611ce79190611ceb565b5090565b5b80821115611d04576000816000905550600101611cec565b5090565b6000611d1b611d16846124b2565b61248d565b905082815260208101848484011115611d3757611d36612892565b5b611d428482856126af565b509392505050565b600081359050611d59816129f3565b92915050565b600081359050611d6e81612a0a565b92915050565b600082601f830112611d8957611d88612888565b5b8135611d99848260208601611d08565b91505092915050565b600060c08284031215611db857611db761288d565b5b611dc260c061248d565b90506000611dd284828501611d5f565b6000830152506020611de684828501611e57565b6020830152506040611dfa84828501611e42565b6040830152506060611e0e84828501611e42565b6060830152506080611e2284828501611e42565b60808301525060a0611e3684828501611e42565b60a08301525092915050565b600081359050611e5181612a1a565b92915050565b600081359050611e6681612a31565b92915050565b600060208284031215611e8257611e8161289c565b5b6000611e9084828501611d4a565b91505092915050565b60008060408385031215611eb057611eaf61289c565b5b6000611ebe85828601611d4a565b9250506020611ecf85828601611d5f565b9150509250929050565b60008060008060808587031215611ef357611ef261289c565b5b6000611f0187828801611d4a565b945050602085013567ffffffffffffffff811115611f2257611f21612897565b5b611f2e87828801611d74565b9350506040611f3f87828801611e42565b9250506060611f5087828801611e42565b91505092959194509250565b60008060408385031215611f7357611f7261289c565b5b6000611f8185828601611d4a565b9250506020611f9285828601611e42565b9150509250929050565b60008060408385031215611fb357611fb261289c565b5b6000611fc185828601611d4a565b9250506020611fd285828601611e57565b9150509250929050565b600060c08284031215611ff257611ff161289c565b5b600061200084828501611da2565b91505092915050565b60006020828403121561201f5761201e61289c565b5b600061202d84828501611e42565b91505092915050565b61203f81612610565b82525050565b61204e81612622565b82525050565b61205d8161268b565b82525050565b61206c8161269d565b82525050565b600061207d826124f8565b6120878185612503565b93506120978185602086016126be565b6120a0816128a1565b840191505092915050565b600081546120b8816126f1565b6120c28186612503565b945060018216600081146120dd57600181146120ef57612122565b60ff1983168652602086019350612122565b6120f8856124e3565b60005b8381101561211a578154818901526001820191506020810190506120fb565b808801955050505b50505092915050565b6000612138602583612503565b9150612143826128b2565b604082019050919050565b600061215b602683612503565b915061216682612901565b604082019050919050565b600061217e601783612503565b915061218982612950565b602082019050919050565b60006121a1602083612503565b91506121ac82612979565b602082019050919050565b60006121c4601083612503565b91506121cf826129a2565b602082019050919050565b6121e381612674565b82525050565b6121f28161267e565b82525050565b600060208201905061220d6000830184612036565b92915050565b60006040820190506122286000830185612036565b6122356020830184612054565b9392505050565b60006080820190506122516000830187612036565b81810360208301526122638186612072565b905061227260408301856121da565b61227f60608301846121da565b95945050505050565b600060408201905061229d6000830185612036565b81810360208301526122af81846120ab565b90509392505050565b60006040820190506122cd6000830185612036565b6122da60208301846121e9565b9392505050565b60006020820190506122f66000830184612045565b92915050565b600060c0820190506123116000830189612054565b61231e60208301886121e9565b61232b60408301876121da565b61233860608301866121da565b61234560808301856121da565b61235260a08301846121da565b979650505050505050565b600060a08201905081810360008301526123778188612072565b905061238660208301876121da565b61239360408301866121da565b6123a06060830185612063565b6123ad60808301846121da565b9695505050505050565b600060208201905081810360008301526123d08161212b565b9050919050565b600060208201905081810360008301526123f08161214e565b9050919050565b6000602082019050818103600083015261241081612171565b9050919050565b6000602082019050818103600083015261243081612194565b9050919050565b60006020820190508181036000830152612450816121b7565b9050919050565b600060208201905061246c60008301846121da565b92915050565b600060208201905061248760008301846121e9565b92915050565b60006124976124a8565b90506124a38282612723565b919050565b6000604051905090565b600067ffffffffffffffff8211156124cd576124cc612859565b5b6124d6826128a1565b9050602081019050919050565b60008190508160005260206000209050919050565b600081519050919050565b600082825260208201905092915050565b600061251f82612674565b915061252a83612674565b9250827fffffffffffffffffffffffffffffffffffffffffffffffffffffffffffffffff0382111561255f5761255e61279d565b5b828201905092915050565b60006125758261267e565b91506125808361267e565b92508260ff038211156125965761259561279d565b5b828201905092915050565b60006125ac8261267e565b91506125b78361267e565b92508160ff04831182151516156125d1576125d061279d565b5b828202905092915050565b60006125e782612674565b91506125f283612674565b9250828210156126055761260461279d565b5b828203905092915050565b600061261b82612654565b9050919050565b60008115159050919050565b600081905061263c826129cb565b919050565b600081905061264f826129df565b919050565b600073ffffffffffffffffffffffffffffffffffffffff82169050919050565b6000819050919050565b600060ff82169050919050565b60006126968261262e565b9050919050565b60006126a882612641565b9050919050565b82818337600083830152505050565b60005b838110156126dc5780820151818401526020810190506126c1565b838111156126eb576000848401525b50505050565b6000600282049050600182168061270957607f821691505b6020821081141561271d5761271c6127fb565b5b50919050565b61272c826128a1565b810181811067ffffffffffffffff8211171561274b5761274a612859565b5b80604052505050565b600061275f82612674565b91507fffffffffffffffffffffffffffffffffffffffffffffffffffffffffffffffff8214156127925761279161279d565b5b600182019050919050565b7f4e487b7100000000000000000000000000000000000000000000000000000000600052601160045260246000fd5b7f4e487b7100000000000000000000000000000000000000000000000000000000600052602160045260246000fd5b7f4e487b7100000000000000000000000000000000000000000000000000000000600052602260045260246000fd5b7f4e487b7100000000000000000000000000000000000000000000000000000000600052603260045260246000fd5b7f4e487b7100000000000000000000000000000000000000000000000000000000600052604160045260246000fd5b600080fd5b600080fd5b600080fd5b600080fd5b600080fd5b6000601f19601f8301169050919050565b7f54686520637573746f6d657220686173206e6f2070726f6475637420746f207260008201527f6566756e64000000000000000000000000000000000000000000000000000000602082015250565b7f4f776e61626c653a206e6577206f776e657220697320746865207a65726f206160008201527f6464726573730000000000000000000000000000000000000000000000000000602082015250565b7f50686f6e65206973206e6f742072656769737465726564000000000000000000600082015250565b7f4f776e61626c653a2063616c6c6572206973206e6f7420746865206f776e6572600082015250565b7f426c6f636b656420637573746f6d657200000000000000000000000000000000600082015250565b600281106129dc576129db6127cc565b5b50565b600281106129f0576129ef6127cc565b5b50565b6129fc81612610565b8114612a0757600080fd5b50565b60028110612a1757600080fd5b50565b612a2381612674565b8114612a2e57600080fd5b50565b612a3a8161267e565b8114612a4557600080fd5b5056fea2646970667358221220b93a345a469b1ad306f946524869c4ae655339913c65d45fd8c14639a053ad2e64736f6c63430008060033",
  "immutableReferences": {},
  "source": "// SPDX-License-Identifier: MIT\npragma solidity ^0.8.6;\n\nimport \"@openzeppelin/contracts/access/Ownable.sol\";\n\n/**\n * @title This Smart Contract is responsible of the Billing.\n * @notice Manage all aspects related to billing (customers, accounting and billing management)\n * @author Keeymon, DavidRochus\n */\ncontract Billing is Ownable {\n    /**\n     * @dev Customer status\n     */\n    enum CustomerStatus {\n        Active,\n        Closed\n    }\n\n    /**\n     * @dev History status\n     */\n    enum HistoryStatus {\n        Active,\n        Closed\n    }\n\n    /**\n     * @dev Customer product history\n     */\n    struct History {\n        string          ref;\n        uint            acceptanceTimestamp;\n        uint            paidTimestamp;\n        HistoryStatus   status;\n        uint256         idProduct;\n    }\n\n    /**\n     * @dev Customer information\n     */\n    struct Customer {\n        CustomerStatus  status;\n        uint8           score;\n        uint256         nbTopUp;\n        uint256         amount;\n        uint            firstTopUp;\n        uint256         lastAcceptanceID;\n    }\n\n    /**\n     * @dev Triggered when status of a customer has changed\n     */\n    event CustomerStatusChange(address phoneHash, CustomerStatus status);\n    /**\n     * @dev Triggered when score of a customer has changed \n     */\n    event ScoreChange(address phoneHash, uint8 score);\n    /**\n     * @dev Triggered when a customer has been deleted\n     */\n    event CustomerIsDeleted(address phoneHash);\n    /**\n     * @dev Triggered when an Acceptance is received\n     */\n    event AcceptanceReceived(address phoneHash, string ref, uint acceptanceTimestamp, uint256 idProduct);\n    /**\n     * @dev Triggered when confirmation has to be sent\n     */\n    event Confirmation(address phoneHash, string ref, uint acceptanceTimestamp, uint256 idProduct);\n    /**\n     * @dev Triggered when a topUp is received\n     */\n    event TopUpReceived(address phoneHash, string ref);\n    /**\n     * @dev Triggered when an acknowledge has to be sent\n     */\n    event Acknowledge(address phoneHash, string ref);   \n\n    /**\n     * @dev Mapping to access customer information with a phoneHash\n     */\n    mapping(address => Customer) public customers;\n    \n    /**\n     * @dev Mapping to access history information with a phoneHash\n     */\n    //mapping(address => History[]) public histories;\n    History[] public histories;\n    mapping(address => uint256[]) public historyList;\n\n    /**\n     * @dev Check that the customer is still active\n     */\n    modifier activeCustomer(address _phoneHash) {\n        require(customers[_phoneHash].status == CustomerStatus.Active, \"Blocked customer\");\n        _;\n    }\n\n    /**\n     * @dev Smart Contract constructor\n     */\n    constructor() {}\n\n    /**\n      * @notice Inform if the customer is active\n      * @param _phoneHash The address that identifies to the customer\n      * @dev This function informs if the customer (identified with `_phoneHash`) is active\n      */\n    function isActiveCustomer(address _phoneHash) public view returns(bool) {\n        return (customers[_phoneHash].status == CustomerStatus.Active ? true : false);\n    }\n\n    /**\n      * @notice Change the customer status\n      * @param _phoneHash The address that identifies to the customer\n      * @param _status The new state for the customer\n      * @dev This function change the customer's status (using CustomerStatus `_status`) ofr a customer (identified with `_phoneHash`)\n      */\n    function changeCustomerStatus(address _phoneHash, CustomerStatus _status) public onlyOwner {\n        customers[_phoneHash].status = _status;\n        emit CustomerStatusChange(_phoneHash, customers[_phoneHash].status);\n    }\n\n    /**\n      * @notice Increase scoring information of a customer\n      * @param _phoneHash The address that identifies to the customer\n      * @dev This function is directly called when API receives a topUp for a customer (identified with `_phoneHash`) with a target other than Timelapse\n      */\n    function getScore(address _phoneHash) external view onlyOwner activeCustomer(_phoneHash) returns(uint8) {\n        return customers[_phoneHash].score;\n    }\n\n    /**\n      * @notice Increase scoring information of a customer\n      * @param _phoneHash The address that identifies to the customer\n      * @dev This function is directly called when API receives a topUp for a customer (identified with `_phoneHash`) with a target other than Timelapse\n      */\n    function addToScore(address _phoneHash) public onlyOwner activeCustomer(_phoneHash) {\n            if (customers[_phoneHash].firstTopUp == 0)\n            customers[_phoneHash].firstTopUp = block.timestamp;\n        customers[_phoneHash].nbTopUp++;\n        changeScore(_phoneHash, process(customers[_phoneHash]));\n    }\n\n    /**\n      * @notice Change the score of a customer\n      * @param _phoneHash The address that identifies to the customer\n      * @dev This function informs if the customer (identified with `_phoneHash`) is active\n      */\n    function changeScore(address _phoneHash, uint8 _score) public onlyOwner {\n        customers[_phoneHash].score = _score;\n        emit ScoreChange(_phoneHash, customers[_phoneHash].score);\n    }\n\n    /**\n      * @notice Get the size of the history of a customer\n      * @param _phoneHash The address that identifies to the customer\n      * @dev Get the size of the history of a customer (identified with `_phoneHash`)\n      */\n    function getHistorySize(address _phoneHash) public view onlyOwner returns (uint256) {\n        return historyList[_phoneHash].length;\n    }\n\n    /**\n      * @notice Get the size of all the histories\n      * @dev Get the size of all the histories\n      */\n    function getHistoriesSize() public view onlyOwner returns (uint256) {\n        return histories.length;\n    }\n\n    /**\n      * @notice Add amount to customer total amount\n      * @param _phoneHash The address that identifies to the customer\n      * @dev Add amount to customer (identified with `_phoneHash`) total amount\n      */\n    function addToCustomerAmount(address _phoneHash, uint _amount) public onlyOwner activeCustomer(_phoneHash) {\n        customers[_phoneHash].amount += _amount;\n        customers[_phoneHash].nbTopUp++;\n    }\n\n    /**\n      * @notice Add an acceptance in the customer history\n      * @param _phoneHash The address that identifies to the customer\n      * @param _ref Reference of the telecom provider\n      * @param _acceptanceTimestamp Timestamp of the acceptance\n      * @param _idProduct ID of the product\n      * @dev Add a customer product history (using reference `_ref`, product `_idProduct`, timestamp `_acceptanceTimestamp`) for a customer (identified with `_phoneHash`)\n      */\n    function acceptanceBilling(address _phoneHash, string memory _ref, uint _acceptanceTimestamp, uint256 _idProduct) public onlyOwner activeCustomer(_phoneHash) {\n        emit AcceptanceReceived(_phoneHash, _ref, _acceptanceTimestamp, _idProduct);\n        //histories[_phoneHash].push(History( _ref, _acceptanceTimestamp, 0, HistoryStatus.Active, _idProduct));\n        histories.push(History( _ref, _acceptanceTimestamp, 0, HistoryStatus.Active, _idProduct));\n        Customer memory customer = customers[_phoneHash];\n        customer.lastAcceptanceID = (histories.length - 1);\n        historyList[_phoneHash].push(histories.length - 1);\n        History memory lastAcceptance = histories[customer.lastAcceptanceID];\n        emit Confirmation(_phoneHash, lastAcceptance.ref, lastAcceptance.acceptanceTimestamp, lastAcceptance.idProduct);\n    }\n\n    /**\n      * @notice TopUp the last product of a customer\n      * @param _phoneHash The address that identifies to the customer\n      * @param _paidTimestamp Timestamp of the acceptance\n      * @dev TopUp the last product of a customer (identified with `_phoneHash`) at timestamp `_paidTimestamp`\n      */\n    function topUpBilling(address _phoneHash, uint _paidTimestamp) public onlyOwner {\n        require(historyList[_phoneHash].length > 0, \"Phone is not registered\");\n        uint index = (historyList[_phoneHash].length - 1);\n        require(histories[index].status == HistoryStatus.Active, \"The customer has no product to refund\");\n\n        emit TopUpReceived(_phoneHash, histories[index].ref);\n        histories[index].paidTimestamp = _paidTimestamp;\n        histories[index].status = HistoryStatus.Closed;\n        /*\n        if(customers[_phoneHash].score == 0) { // On mettra ca ailleur\n            customers[_phoneHash].status = CustomerStatus.Closed;\n            emit CustomerIsDeleted(_phoneHash);\n        }\n        */\n        emit Acknowledge(_phoneHash, histories[index].ref);\n    }\n\n    /**\n      * @notice Compute the score of a customer\n      * @param _customer The customer\n      * @return Score The computed customer score \n      * @dev Compute the score of a customer `_customer`\n      */\n    function process(Customer memory _customer) public view returns(uint8) {\n        uint8 score;\n        uint8 topupAmountPoints;\n        uint8 firstTopUpAgePoints;\n        uint8 nbTopUpPoints;\n        if (_customer.amount >= 0 && _customer.amount <= 40) {\n            topupAmountPoints = 1;\n        } else if (_customer.amount > 40 && _customer.amount <= 150) {\n            topupAmountPoints = 2;\n        } else {\n            topupAmountPoints = 3;\n        }\n        if (_customer.firstTopUp >= (block.timestamp - 90 days)) {\n            firstTopUpAgePoints = 0;\n        } else if (\n            _customer.firstTopUp < (block.timestamp - 90 days) &&\n            _customer.firstTopUp >= (block.timestamp - 180 days)\n        ) {\n            firstTopUpAgePoints = 2;\n        } else if (\n            _customer.firstTopUp < (block.timestamp - 180 days) &&\n            _customer.firstTopUp >= (block.timestamp - 330 days)\n        ) {\n            firstTopUpAgePoints = 6;\n        } else {\n            firstTopUpAgePoints = 15;\n        }\n        if (_customer.nbTopUp == 0) {\n            nbTopUpPoints = 0;\n        } else if (_customer.nbTopUp > 0 && _customer.nbTopUp <= 10) {\n            nbTopUpPoints = 1;\n        } else if (_customer.nbTopUp > 10 && _customer.nbTopUp <= 20) {\n            nbTopUpPoints = 5;\n        } else {\n            nbTopUpPoints = 15;\n        }\n\n        score =\n            (topupAmountPoints * 4) +\n            (firstTopUpAgePoints * 6) +\n            (nbTopUpPoints * 8);\n        return score;\n    }\n}",
  "sourcePath": "/Users/davidrochus/Dev/workspace/timelapse/contracts/Billing.sol",
  "compiler": {
    "name": "solc",
    "version": "0.8.6+commit.11564f7e.Emscripten.clang"
  },
  "schemaVersion": "3.4.1",
  "updatedAt": "2021-07-21T07:45:00.980Z",
  "networkType": "ethereum",
  "devdoc": {
    "author": "Keeymon, DavidRochus",
    "events": {
      "AcceptanceReceived(address,string,uint256,uint256)": {
        "details": "Triggered when an Acceptance is received"
      },
      "Acknowledge(address,string)": {
        "details": "Triggered when an acknowledge has to be sent"
      },
      "Confirmation(address,string,uint256,uint256)": {
        "details": "Triggered when confirmation has to be sent"
      },
      "CustomerIsDeleted(address)": {
        "details": "Triggered when a customer has been deleted"
      },
      "CustomerStatusChange(address,uint8)": {
        "details": "Triggered when status of a customer has changed"
      },
      "ScoreChange(address,uint8)": {
        "details": "Triggered when score of a customer has changed "
      },
      "TopUpReceived(address,string)": {
        "details": "Triggered when a topUp is received"
      }
    },
    "kind": "dev",
    "methods": {
      "acceptanceBilling(address,string,uint256,uint256)": {
        "details": "Add a customer product history (using reference `_ref`, product `_idProduct`, timestamp `_acceptanceTimestamp`) for a customer (identified with `_phoneHash`)",
        "params": {
          "_acceptanceTimestamp": "Timestamp of the acceptance",
          "_idProduct": "ID of the product",
          "_phoneHash": "The address that identifies to the customer",
          "_ref": "Reference of the telecom provider"
        }
      },
      "addToCustomerAmount(address,uint256)": {
        "details": "Add amount to customer (identified with `_phoneHash`) total amount",
        "params": {
          "_phoneHash": "The address that identifies to the customer"
        }
      },
      "addToScore(address)": {
        "details": "This function is directly called when API receives a topUp for a customer (identified with `_phoneHash`) with a target other than Timelapse",
        "params": {
          "_phoneHash": "The address that identifies to the customer"
        }
      },
      "changeCustomerStatus(address,uint8)": {
        "details": "This function change the customer's status (using CustomerStatus `_status`) ofr a customer (identified with `_phoneHash`)",
        "params": {
          "_phoneHash": "The address that identifies to the customer",
          "_status": "The new state for the customer"
        }
      },
      "changeScore(address,uint8)": {
        "details": "This function informs if the customer (identified with `_phoneHash`) is active",
        "params": {
          "_phoneHash": "The address that identifies to the customer"
        }
      },
      "constructor": {
        "details": "Smart Contract constructor"
      },
      "getHistoriesSize()": {
        "details": "Get the size of all the histories"
      },
      "getHistorySize(address)": {
        "details": "Get the size of the history of a customer (identified with `_phoneHash`)",
        "params": {
          "_phoneHash": "The address that identifies to the customer"
        }
      },
      "getScore(address)": {
        "details": "This function is directly called when API receives a topUp for a customer (identified with `_phoneHash`) with a target other than Timelapse",
        "params": {
          "_phoneHash": "The address that identifies to the customer"
        }
      },
      "isActiveCustomer(address)": {
        "details": "This function informs if the customer (identified with `_phoneHash`) is active",
        "params": {
          "_phoneHash": "The address that identifies to the customer"
        }
      },
      "owner()": {
        "details": "Returns the address of the current owner."
      },
      "process((uint8,uint8,uint256,uint256,uint256,uint256))": {
        "details": "Compute the score of a customer `_customer`",
        "params": {
          "_customer": "The customer"
        },
        "returns": {
          "_0": "Score The computed customer score "
        }
      },
      "renounceOwnership()": {
        "details": "Leaves the contract without owner. It will not be possible to call `onlyOwner` functions anymore. Can only be called by the current owner. NOTE: Renouncing ownership will leave the contract without an owner, thereby removing any functionality that is only available to the owner."
      },
      "topUpBilling(address,uint256)": {
        "details": "TopUp the last product of a customer (identified with `_phoneHash`) at timestamp `_paidTimestamp`",
        "params": {
          "_paidTimestamp": "Timestamp of the acceptance",
          "_phoneHash": "The address that identifies to the customer"
        }
      },
      "transferOwnership(address)": {
        "details": "Transfers ownership of the contract to a new account (`newOwner`). Can only be called by the current owner."
      }
    },
    "stateVariables": {
      "customers": {
        "details": "Mapping to access customer information with a phoneHash"
      },
      "histories": {
        "details": "Mapping to access history information with a phoneHash"
      }
    },
    "title": "This Smart Contract is responsible of the Billing.",
    "version": 1
  },
  "userdoc": {
    "kind": "user",
    "methods": {
      "acceptanceBilling(address,string,uint256,uint256)": {
        "notice": "Add an acceptance in the customer history"
      },
      "addToCustomerAmount(address,uint256)": {
        "notice": "Add amount to customer total amount"
      },
      "addToScore(address)": {
        "notice": "Increase scoring information of a customer"
      },
      "changeCustomerStatus(address,uint8)": {
        "notice": "Change the customer status"
      },
      "changeScore(address,uint8)": {
        "notice": "Change the score of a customer"
      },
      "getHistoriesSize()": {
        "notice": "Get the size of all the histories"
      },
      "getHistorySize(address)": {
        "notice": "Get the size of the history of a customer"
      },
      "getScore(address)": {
        "notice": "Increase scoring information of a customer"
      },
      "isActiveCustomer(address)": {
        "notice": "Inform if the customer is active"
      },
      "process((uint8,uint8,uint256,uint256,uint256,uint256))": {
        "notice": "Compute the score of a customer"
      },
      "topUpBilling(address,uint256)": {
        "notice": "TopUp the last product of a customer"
      }
    },
    "notice": "Manage all aspects related to billing (customers, accounting and billing management)",
    "version": 1
  }
}