{
  "contractName": "Billing",
  "abi": [
    {
      "inputs": [],
      "stateMutability": "nonpayable",
      "type": "constructor"
    },
    {
      "anonymous": false,
      "inputs": [
        {
          "indexed": false,
          "internalType": "address",
          "name": "phoneHash",
          "type": "address"
        },
        {
          "indexed": false,
          "internalType": "string",
          "name": "ref",
          "type": "string"
        },
        {
          "indexed": false,
          "internalType": "uint256",
          "name": "acceptanceTimestamp",
          "type": "uint256"
        }
      ],
      "name": "AcceptanceReceived",
      "type": "event"
    },
    {
      "anonymous": false,
      "inputs": [
        {
          "indexed": false,
          "internalType": "address",
          "name": "phoneHash",
          "type": "address"
        },
        {
          "indexed": false,
          "internalType": "string",
          "name": "ref",
          "type": "string"
        },
        {
          "indexed": false,
          "internalType": "uint256",
          "name": "acceptanceTimestamp",
          "type": "uint256"
        }
      ],
      "name": "Confirmation",
      "type": "event"
    },
    {
      "anonymous": false,
      "inputs": [
        {
          "indexed": false,
          "internalType": "address",
          "name": "phoneHash",
          "type": "address"
        }
      ],
      "name": "CustomerIsDeleted",
      "type": "event"
    },
    {
      "anonymous": false,
      "inputs": [
        {
          "indexed": true,
          "internalType": "address",
          "name": "previousOwner",
          "type": "address"
        },
        {
          "indexed": true,
          "internalType": "address",
          "name": "newOwner",
          "type": "address"
        }
      ],
      "name": "OwnershipTransferred",
      "type": "event"
    },
    {
      "anonymous": false,
      "inputs": [
        {
          "indexed": false,
          "internalType": "address",
          "name": "phoneHash",
          "type": "address"
        },
        {
          "indexed": false,
          "internalType": "uint256",
          "name": "score",
          "type": "uint256"
        }
      ],
      "name": "ScoreChange",
      "type": "event"
    },
    {
      "anonymous": false,
      "inputs": [
        {
          "indexed": false,
          "internalType": "address",
          "name": "phoneHash",
          "type": "address"
        },
        {
          "indexed": false,
          "internalType": "string",
          "name": "ref",
          "type": "string"
        }
      ],
      "name": "TopUpReceived",
      "type": "event"
    },
    {
      "inputs": [
        {
          "internalType": "address",
          "name": "",
          "type": "address"
        }
      ],
      "name": "customers",
      "outputs": [
        {
          "internalType": "enum Billing.CustomerStatus",
          "name": "status",
          "type": "uint8"
        },
        {
          "internalType": "uint256",
          "name": "score",
          "type": "uint256"
        }
      ],
      "stateMutability": "view",
      "type": "function"
    },
    {
      "inputs": [],
      "name": "owner",
      "outputs": [
        {
          "internalType": "address",
          "name": "",
          "type": "address"
        }
      ],
      "stateMutability": "view",
      "type": "function"
    },
    {
      "inputs": [],
      "name": "renounceOwnership",
      "outputs": [],
      "stateMutability": "nonpayable",
      "type": "function"
    },
    {
      "inputs": [
        {
          "internalType": "address",
          "name": "newOwner",
          "type": "address"
        }
      ],
      "name": "transferOwnership",
      "outputs": [],
      "stateMutability": "nonpayable",
      "type": "function"
    },
    {
      "inputs": [
        {
          "internalType": "address",
          "name": "_phoneHash",
          "type": "address"
        }
      ],
      "name": "isActiveCustomer",
      "outputs": [
        {
          "internalType": "bool",
          "name": "",
          "type": "bool"
        }
      ],
      "stateMutability": "view",
      "type": "function"
    },
    {
      "inputs": [
        {
          "internalType": "address",
          "name": "_phoneHash",
          "type": "address"
        },
        {
          "internalType": "uint256",
          "name": "_score",
          "type": "uint256"
        }
      ],
      "name": "changeScore",
      "outputs": [],
      "stateMutability": "nonpayable",
      "type": "function"
    },
    {
      "inputs": [
        {
          "internalType": "address",
          "name": "_phoneHash",
          "type": "address"
        },
        {
          "internalType": "uint256",
          "name": "_paidTimestamp",
          "type": "uint256"
        }
      ],
      "name": "topUpBilling",
      "outputs": [],
      "stateMutability": "nonpayable",
      "type": "function"
    },
    {
      "inputs": [
        {
          "internalType": "address",
          "name": "_phoneHash",
          "type": "address"
        },
        {
          "internalType": "string",
          "name": "_ref",
          "type": "string"
        },
        {
          "internalType": "uint256",
          "name": "_acceptanceTimestamp",
          "type": "uint256"
        }
      ],
      "name": "acceptance",
      "outputs": [],
      "stateMutability": "nonpayable",
      "type": "function"
    }
  ],
  "bytecode": "0x608060405234801561001057600080fd5b5061002d61002261003260201b60201c565b61003a60201b60201c565b6100fe565b600033905090565b60008060009054906101000a900473ffffffffffffffffffffffffffffffffffffffff169050816000806101000a81548173ffffffffffffffffffffffffffffffffffffffff021916908373ffffffffffffffffffffffffffffffffffffffff1602179055508173ffffffffffffffffffffffffffffffffffffffff168173ffffffffffffffffffffffffffffffffffffffff167f8be0079c531659141344cd1fd0a4f28419497f9722a3daafe3b4186f6b6457e060405160405180910390a35050565b6117628061010d6000396000f3fe608060405234801561001057600080fd5b50600436106100885760003560e01c80638da5cb5b1161005b5780638da5cb5b146101005780639ef91d911461011e578063d1089d401461014e578063f2fde38b1461016a57610088565b8063336989ae1461008d57806345df7779146100be578063715018a6146100da5780637f61479d146100e4575b600080fd5b6100a760048036038101906100a29190610ede565b610186565b6040516100b592919061122b565b60405180910390f35b6100d860048036038101906100d39190610f7a565b6101b7565b005b6100e2610727565b005b6100fe60048036038101906100f99190610f0b565b6107af565b005b6101086109e5565b604051610115919061115e565b60405180910390f35b61013860048036038101906101339190610ede565b610a0e565b6040516101459190611210565b60405180910390f35b61016860048036038101906101639190610f7a565b610a9b565b005b610184600480360381019061017f9190610ede565b610bdd565b005b60016020528060005260406000206000915090508060000160009054906101000a900460ff16908060010154905082565b6101bf610cd5565b73ffffffffffffffffffffffffffffffffffffffff166101dd6109e5565b73ffffffffffffffffffffffffffffffffffffffff1614610233576040517f08c379a000000000000000000000000000000000000000000000000000000000815260040161022a906112b4565b60405180910390fd5b8160006001811115610248576102476114f0565b5b600160008373ffffffffffffffffffffffffffffffffffffffff1673ffffffffffffffffffffffffffffffffffffffff16815260200190815260200160002060000160009054906101000a900460ff1660018111156102aa576102a96114f0565b5b146102ea576040517f08c379a00000000000000000000000000000000000000000000000000000000081526004016102e1906112d4565b60405180910390fd5b600060018060008673ffffffffffffffffffffffffffffffffffffffff1673ffffffffffffffffffffffffffffffffffffffff1681526020019081526020016000206002018054905061033d919061137b565b90506000600160008673ffffffffffffffffffffffffffffffffffffffff1673ffffffffffffffffffffffffffffffffffffffff16815260200190815260200160002060020180549050116103c7576040517f08c379a00000000000000000000000000000000000000000000000000000000081526004016103be90611294565b60405180910390fd5b600060018111156103db576103da6114f0565b5b600160008673ffffffffffffffffffffffffffffffffffffffff1673ffffffffffffffffffffffffffffffffffffffff168152602001908152602001600020600201828154811061042f5761042e61154e565b5b906000526020600020906004020160020160009054906101000a900460ff1660018111156104605761045f6114f0565b5b146104a0576040517f08c379a000000000000000000000000000000000000000000000000000000000815260040161049790611254565b60405180910390fd5b82600160008673ffffffffffffffffffffffffffffffffffffffff1673ffffffffffffffffffffffffffffffffffffffff16815260200190815260200160002060020182815481106104f5576104f461154e565b5b90600052602060002090600402016001018190555060018060008673ffffffffffffffffffffffffffffffffffffffff1673ffffffffffffffffffffffffffffffffffffffff168152602001908152602001600020600201828154811061055f5761055e61154e565b5b906000526020600020906004020160020160006101000a81548160ff02191690836001811115610592576105916114f0565b5b02179055507fa3a756c9361873f5cd34cb71ba3b6ebc76b90321aa2767387c016991dfb4f63a84600160008773ffffffffffffffffffffffffffffffffffffffff1673ffffffffffffffffffffffffffffffffffffffff168152602001908152602001600020600201838154811061060d5761060c61154e565b5b906000526020600020906004020160030160405161062c9291906111b7565b60405180910390a16000600160008673ffffffffffffffffffffffffffffffffffffffff1673ffffffffffffffffffffffffffffffffffffffff1681526020019081526020016000206001015414156107215760018060008673ffffffffffffffffffffffffffffffffffffffff1673ffffffffffffffffffffffffffffffffffffffff16815260200190815260200160002060000160006101000a81548160ff021916908360018111156106e4576106e36114f0565b5b02179055507f1eacdda6365a7f824e9b515212eda6b8fb050f25bc505f857ac21c025a64e6f184604051610718919061115e565b60405180910390a15b50505050565b61072f610cd5565b73ffffffffffffffffffffffffffffffffffffffff1661074d6109e5565b73ffffffffffffffffffffffffffffffffffffffff16146107a3576040517f08c379a000000000000000000000000000000000000000000000000000000000815260040161079a906112b4565b60405180910390fd5b6107ad6000610cdd565b565b82600060018111156107c4576107c36114f0565b5b600160008373ffffffffffffffffffffffffffffffffffffffff1673ffffffffffffffffffffffffffffffffffffffff16815260200190815260200160002060000160009054906101000a900460ff166001811115610826576108256114f0565b5b14610866576040517f08c379a000000000000000000000000000000000000000000000000000000000815260040161085d906112d4565b60405180910390fd5b7fd9b8c2cc3eb9a560bd0f08689340a119d3b98b77fd516a8a3f728493d18dc59b84848460405161089993929190611179565b60405180910390a1600160008573ffffffffffffffffffffffffffffffffffffffff1673ffffffffffffffffffffffffffffffffffffffff1681526020019081526020016000206002016040518060800160405280848152602001600081526020016000600181111561090f5761090e6114f0565b5b8152602001858152509080600181540180825580915050600190039060005260206000209060040201600090919091909150600082015181600001556020820151816001015560408201518160020160006101000a81548160ff021916908360018111156109805761097f6114f0565b5b021790555060608201518160030190805190602001906109a1929190610da1565b5050507f814b246d1dad06f336e34264a3a1dab47d4b041329e5d0dd774e9cb108d462898484846040516109d793929190611179565b60405180910390a150505050565b60008060009054906101000a900473ffffffffffffffffffffffffffffffffffffffff16905090565b6000806001811115610a2357610a226114f0565b5b600160008473ffffffffffffffffffffffffffffffffffffffff1673ffffffffffffffffffffffffffffffffffffffff16815260200190815260200160002060000160009054906101000a900460ff166001811115610a8557610a846114f0565b5b14610a91576000610a94565b60015b9050919050565b610aa3610cd5565b73ffffffffffffffffffffffffffffffffffffffff16610ac16109e5565b73ffffffffffffffffffffffffffffffffffffffff1614610b17576040517f08c379a0000000000000000000000000000000000000000000000000000000008152600401610b0e906112b4565b60405180910390fd5b80600160008473ffffffffffffffffffffffffffffffffffffffff1673ffffffffffffffffffffffffffffffffffffffff168152602001908152602001600020600101819055507f392c39309f267601298d01383eca81bc058e81fcd3212a0d9ea2e1af2bb9aead82600160008573ffffffffffffffffffffffffffffffffffffffff1673ffffffffffffffffffffffffffffffffffffffff16815260200190815260200160002060010154604051610bd19291906111e7565b60405180910390a15050565b610be5610cd5565b73ffffffffffffffffffffffffffffffffffffffff16610c036109e5565b73ffffffffffffffffffffffffffffffffffffffff1614610c59576040517f08c379a0000000000000000000000000000000000000000000000000000000008152600401610c50906112b4565b60405180910390fd5b600073ffffffffffffffffffffffffffffffffffffffff168173ffffffffffffffffffffffffffffffffffffffff161415610cc9576040517f08c379a0000000000000000000000000000000000000000000000000000000008152600401610cc090611274565b60405180910390fd5b610cd281610cdd565b50565b600033905090565b60008060009054906101000a900473ffffffffffffffffffffffffffffffffffffffff169050816000806101000a81548173ffffffffffffffffffffffffffffffffffffffff021916908373ffffffffffffffffffffffffffffffffffffffff1602179055508173ffffffffffffffffffffffffffffffffffffffff168173ffffffffffffffffffffffffffffffffffffffff167f8be0079c531659141344cd1fd0a4f28419497f9722a3daafe3b4186f6b6457e060405160405180910390a35050565b828054610dad9061145e565b90600052602060002090601f016020900481019282610dcf5760008555610e16565b82601f10610de857805160ff1916838001178555610e16565b82800160010185558215610e16579182015b82811115610e15578251825591602001919060010190610dfa565b5b509050610e239190610e27565b5090565b5b80821115610e40576000816000905550600101610e28565b5090565b6000610e57610e5284611319565b6112f4565b905082815260208101848484011115610e7357610e726115b1565b5b610e7e84828561141c565b509392505050565b600081359050610e95816116fe565b92915050565b600082601f830112610eb057610eaf6115ac565b5b8135610ec0848260208601610e44565b91505092915050565b600081359050610ed881611715565b92915050565b600060208284031215610ef457610ef36115bb565b5b6000610f0284828501610e86565b91505092915050565b600080600060608486031215610f2457610f236115bb565b5b6000610f3286828701610e86565b935050602084013567ffffffffffffffff811115610f5357610f526115b6565b5b610f5f86828701610e9b565b9250506040610f7086828701610ec9565b9150509250925092565b60008060408385031215610f9157610f906115bb565b5b6000610f9f85828601610e86565b9250506020610fb085828601610ec9565b9150509250929050565b610fc3816113af565b82525050565b610fd2816113c1565b82525050565b610fe18161140a565b82525050565b6000610ff28261135f565b610ffc818561136a565b935061100c81856020860161142b565b611015816115c0565b840191505092915050565b6000815461102d8161145e565b611037818661136a565b94506001821660008114611052576001811461106457611097565b60ff1983168652602086019350611097565b61106d8561134a565b60005b8381101561108f57815481890152600182019150602081019050611070565b808801955050505b50505092915050565b60006110ad60258361136a565b91506110b8826115d1565b604082019050919050565b60006110d060268361136a565b91506110db82611620565b604082019050919050565b60006110f360178361136a565b91506110fe8261166f565b602082019050919050565b600061111660208361136a565b915061112182611698565b602082019050919050565b600061113960108361136a565b9150611144826116c1565b602082019050919050565b61115881611400565b82525050565b60006020820190506111736000830184610fba565b92915050565b600060608201905061118e6000830186610fba565b81810360208301526111a08185610fe7565b90506111af604083018461114f565b949350505050565b60006040820190506111cc6000830185610fba565b81810360208301526111de8184611020565b90509392505050565b60006040820190506111fc6000830185610fba565b611209602083018461114f565b9392505050565b60006020820190506112256000830184610fc9565b92915050565b60006040820190506112406000830185610fd8565b61124d602083018461114f565b9392505050565b6000602082019050818103600083015261126d816110a0565b9050919050565b6000602082019050818103600083015261128d816110c3565b9050919050565b600060208201905081810360008301526112ad816110e6565b9050919050565b600060208201905081810360008301526112cd81611109565b9050919050565b600060208201905081810360008301526112ed8161112c565b9050919050565b60006112fe61130f565b905061130a8282611490565b919050565b6000604051905090565b600067ffffffffffffffff8211156113345761133361157d565b5b61133d826115c0565b9050602081019050919050565b60008190508160005260206000209050919050565b600081519050919050565b600082825260208201905092915050565b600061138682611400565b915061139183611400565b9250828210156113a4576113a36114c1565b5b828203905092915050565b60006113ba826113e0565b9050919050565b60008115159050919050565b60008190506113db826116ea565b919050565b600073ffffffffffffffffffffffffffffffffffffffff82169050919050565b6000819050919050565b6000611415826113cd565b9050919050565b82818337600083830152505050565b60005b8381101561144957808201518184015260208101905061142e565b83811115611458576000848401525b50505050565b6000600282049050600182168061147657607f821691505b6020821081141561148a5761148961151f565b5b50919050565b611499826115c0565b810181811067ffffffffffffffff821117156114b8576114b761157d565b5b80604052505050565b7f4e487b7100000000000000000000000000000000000000000000000000000000600052601160045260246000fd5b7f4e487b7100000000000000000000000000000000000000000000000000000000600052602160045260246000fd5b7f4e487b7100000000000000000000000000000000000000000000000000000000600052602260045260246000fd5b7f4e487b7100000000000000000000000000000000000000000000000000000000600052603260045260246000fd5b7f4e487b7100000000000000000000000000000000000000000000000000000000600052604160045260246000fd5b600080fd5b600080fd5b600080fd5b600080fd5b6000601f19601f8301169050919050565b7f54686520637573746f6d657220686173206e6f2070726f6475637420746f207260008201527f6566756e64000000000000000000000000000000000000000000000000000000602082015250565b7f4f776e61626c653a206e6577206f776e657220697320746865207a65726f206160008201527f6464726573730000000000000000000000000000000000000000000000000000602082015250565b7f50686f6e65206973206e6f742072656769737465726564000000000000000000600082015250565b7f4f776e61626c653a2063616c6c6572206973206e6f7420746865206f776e6572600082015250565b7f426c6f636b656420637573746f6d657200000000000000000000000000000000600082015250565b600281106116fb576116fa6114f0565b5b50565b611707816113af565b811461171257600080fd5b50565b61171e81611400565b811461172957600080fd5b5056fea264697066735822122067aa035cbb115400aefcf4a136a90925c07408caca538b6bbd663832354d87b364736f6c63430008060033",
  "immutableReferences": {},
  "source": "// SPDX-License-Identifier: MIT\npragma solidity ^0.8.6;\n\nimport \"@openzeppelin/contracts/access/Ownable.sol\";\n\ncontract Billing is Ownable {\n    enum CustomerStatus {\n        Active,\n        Closed\n    }\n\n    enum HistoryStatus {\n        Active,\n        Closed\n    }\n\n    struct History {\n        uint acceptanceTimestamp;\n        uint paidTimestamp;\n        HistoryStatus status;\n        string ref;\n    }\n\n    struct Customer {\n        CustomerStatus status;\n        uint score;\n        History[] history;\n    }\n\n    event ScoreChange(address phoneHash, uint score);\n    event CustomerIsDeleted(address phoneHash);\n    event AcceptanceReceived(address phoneHash, string ref, uint acceptanceTimestamp);\n    event Confirmation(address phoneHash, string ref, uint acceptanceTimestamp);\n    event TopUpReceived(address phoneHash, string ref);\n\n    mapping(address => Customer) public customers;\n\n    modifier activeCustomer(address _phoneHash) {\n        require(customers[_phoneHash].status == CustomerStatus.Active, \"Blocked customer\");\n        _;\n    }\n\n    constructor() {}\n\n    function isActiveCustomer(address _phoneHash) public view returns(bool) {\n        return (customers[_phoneHash].status == CustomerStatus.Active ? true : false);\n    }\n\n    function changeScore(address _phoneHash, uint _score) public onlyOwner {\n        customers[_phoneHash].score = _score;\n        emit ScoreChange(_phoneHash, customers[_phoneHash].score);\n    }\n\n    function topUpBilling(address _phoneHash, uint _paidTimestamp) public onlyOwner activeCustomer(_phoneHash) {\n        uint index = customers[_phoneHash].history.length - 1;\n        require(customers[_phoneHash].history.length > 0, \"Phone is not registered\");\n        require(customers[_phoneHash].history[index].status == HistoryStatus.Active, \"The customer has no product to refund\");\n\n        customers[_phoneHash].history[index].paidTimestamp = _paidTimestamp;\n        customers[_phoneHash].history[index].status = HistoryStatus.Closed;\n        emit TopUpReceived(_phoneHash, customers[_phoneHash].history[index].ref);\n        if(customers[_phoneHash].score == 0) {\n            customers[_phoneHash].status = CustomerStatus.Closed;\n            emit CustomerIsDeleted(_phoneHash);\n        }\n    }\n\n    function acceptance(address _phoneHash, string memory _ref, uint _acceptanceTimestamp) public activeCustomer(_phoneHash) {\n        emit AcceptanceReceived(_phoneHash, _ref, _acceptanceTimestamp);\n        customers[_phoneHash].history.push(History(_acceptanceTimestamp, 0, HistoryStatus.Active, _ref));\n        emit Confirmation(_phoneHash, _ref, _acceptanceTimestamp);\n     }\n}",
  "sourcePath": "/home/keymon/work/projet-pro/dApp/timelapse/contracts/Billing.sol",
  "compiler": {
    "name": "solc",
    "version": "0.8.6+commit.11564f7e.Emscripten.clang"
  },
  "schemaVersion": "3.4.1",
  "updatedAt": "2021-07-13T16:15:08.836Z",
  "devdoc": {
    "kind": "dev",
    "methods": {
      "owner()": {
        "details": "Returns the address of the current owner."
      },
      "renounceOwnership()": {
        "details": "Leaves the contract without owner. It will not be possible to call `onlyOwner` functions anymore. Can only be called by the current owner. NOTE: Renouncing ownership will leave the contract without an owner, thereby removing any functionality that is only available to the owner."
      },
      "transferOwnership(address)": {
        "details": "Transfers ownership of the contract to a new account (`newOwner`). Can only be called by the current owner."
      }
    },
    "version": 1
  },
  "userdoc": {
    "kind": "user",
    "methods": {},
    "version": 1
  }
}