{
  "contractName": "Billing",
  "abi": [
    {
      "inputs": [],
      "stateMutability": "nonpayable",
      "type": "constructor"
    },
    {
      "anonymous": false,
      "inputs": [
        {
          "indexed": false,
          "internalType": "address",
          "name": "phoneHash",
          "type": "address"
        },
        {
          "indexed": false,
          "internalType": "string",
          "name": "ref",
          "type": "string"
        },
        {
          "indexed": false,
          "internalType": "uint256",
          "name": "acceptanceTimestamp",
          "type": "uint256"
        }
      ],
      "name": "AcceptanceReceived",
      "type": "event"
    },
    {
      "anonymous": false,
      "inputs": [
        {
          "indexed": false,
          "internalType": "address",
          "name": "phoneHash",
          "type": "address"
        },
        {
          "indexed": false,
          "internalType": "string",
          "name": "ref",
          "type": "string"
        }
      ],
      "name": "Acknowledge",
      "type": "event"
    },
    {
      "anonymous": false,
      "inputs": [
        {
          "indexed": false,
          "internalType": "address",
          "name": "phoneHash",
          "type": "address"
        },
        {
          "indexed": false,
          "internalType": "string",
          "name": "ref",
          "type": "string"
        },
        {
          "indexed": false,
          "internalType": "uint256",
          "name": "acceptanceTimestamp",
          "type": "uint256"
        }
      ],
      "name": "Confirmation",
      "type": "event"
    },
    {
      "anonymous": false,
      "inputs": [
        {
          "indexed": false,
          "internalType": "address",
          "name": "phoneHash",
          "type": "address"
        }
      ],
      "name": "CustomerIsDeleted",
      "type": "event"
    },
    {
      "anonymous": false,
      "inputs": [
        {
          "indexed": true,
          "internalType": "address",
          "name": "previousOwner",
          "type": "address"
        },
        {
          "indexed": true,
          "internalType": "address",
          "name": "newOwner",
          "type": "address"
        }
      ],
      "name": "OwnershipTransferred",
      "type": "event"
    },
    {
      "anonymous": false,
      "inputs": [
        {
          "indexed": false,
          "internalType": "address",
          "name": "phoneHash",
          "type": "address"
        },
        {
          "indexed": false,
          "internalType": "uint8",
          "name": "score",
          "type": "uint8"
        }
      ],
      "name": "ScoreChange",
      "type": "event"
    },
    {
      "anonymous": false,
      "inputs": [
        {
          "indexed": false,
          "internalType": "address",
          "name": "phoneHash",
          "type": "address"
        },
        {
          "indexed": false,
          "internalType": "string",
          "name": "ref",
          "type": "string"
        }
      ],
      "name": "TopUpReceived",
      "type": "event"
    },
    {
      "inputs": [
        {
          "internalType": "address",
          "name": "",
          "type": "address"
        }
      ],
      "name": "customers",
      "outputs": [
        {
          "internalType": "enum Billing.CustomerStatus",
          "name": "status",
          "type": "uint8"
        },
        {
          "internalType": "uint8",
          "name": "score",
          "type": "uint8"
        }
      ],
      "stateMutability": "view",
      "type": "function"
    },
    {
      "inputs": [],
      "name": "owner",
      "outputs": [
        {
          "internalType": "address",
          "name": "",
          "type": "address"
        }
      ],
      "stateMutability": "view",
      "type": "function"
    },
    {
      "inputs": [],
      "name": "renounceOwnership",
      "outputs": [],
      "stateMutability": "nonpayable",
      "type": "function"
    },
    {
      "inputs": [
        {
          "internalType": "address",
          "name": "newOwner",
          "type": "address"
        }
      ],
      "name": "transferOwnership",
      "outputs": [],
      "stateMutability": "nonpayable",
      "type": "function"
    },
    {
      "inputs": [
        {
          "internalType": "address",
          "name": "_phoneHash",
          "type": "address"
        }
      ],
      "name": "isActiveCustomer",
      "outputs": [
        {
          "internalType": "bool",
          "name": "",
          "type": "bool"
        }
      ],
      "stateMutability": "view",
      "type": "function"
    },
    {
      "inputs": [
        {
          "internalType": "address",
          "name": "_phoneHash",
          "type": "address"
        },
        {
          "internalType": "uint8",
          "name": "_score",
          "type": "uint8"
        }
      ],
      "name": "changeScore",
      "outputs": [],
      "stateMutability": "nonpayable",
      "type": "function"
    },
    {
      "inputs": [
        {
          "internalType": "address",
          "name": "_phoneHash",
          "type": "address"
        },
        {
          "internalType": "uint256",
          "name": "_paidTimestamp",
          "type": "uint256"
        }
      ],
      "name": "topUpBilling",
      "outputs": [],
      "stateMutability": "nonpayable",
      "type": "function"
    },
    {
      "inputs": [
        {
          "internalType": "address",
          "name": "_phoneHash",
          "type": "address"
        },
        {
          "internalType": "string",
          "name": "_ref",
          "type": "string"
        },
        {
          "internalType": "uint256",
          "name": "_acceptanceTimestamp",
          "type": "uint256"
        }
      ],
      "name": "acceptance",
      "outputs": [],
      "stateMutability": "nonpayable",
      "type": "function"
    }
  ],
  "bytecode": "0x608060405234801561001057600080fd5b5061002d61002261003260201b60201c565b61003a60201b60201c565b6100fe565b600033905090565b60008060009054906101000a900473ffffffffffffffffffffffffffffffffffffffff169050816000806101000a81548173ffffffffffffffffffffffffffffffffffffffff021916908373ffffffffffffffffffffffffffffffffffffffff1602179055508173ffffffffffffffffffffffffffffffffffffffff168173ffffffffffffffffffffffffffffffffffffffff167f8be0079c531659141344cd1fd0a4f28419497f9722a3daafe3b4186f6b6457e060405160405180910390a35050565b6118c58061010d6000396000f3fe608060405234801561001057600080fd5b50600436106100885760003560e01c80637f61479d1161005b5780637f61479d146101005780638da5cb5b1461011c5780639ef91d911461013a578063f2fde38b1461016a57610088565b8063336989ae1461008d5780633ef3e0cb146100be57806345df7779146100da578063715018a6146100f6575b600080fd5b6100a760048036038101906100a29190610fce565b610186565b6040516100b592919061136a565b60405180910390f35b6100d860048036038101906100d391906110aa565b6101c4565b005b6100f460048036038101906100ef919061106a565b610327565b005b6100fe610944565b005b61011a60048036038101906101159190610ffb565b6109cc565b005b610124610c02565b604051610131919061129d565b60405180910390f35b610154600480360381019061014f9190610fce565b610c2b565b604051610161919061134f565b60405180910390f35b610184600480360381019061017f9190610fce565b610cb8565b005b60016020528060005260406000206000915090508060000160009054906101000a900460ff16908060000160019054906101000a900460ff16905082565b6101cc610db0565b73ffffffffffffffffffffffffffffffffffffffff166101ea610c02565b73ffffffffffffffffffffffffffffffffffffffff1614610240576040517f08c379a0000000000000000000000000000000000000000000000000000000008152600401610237906113f3565b60405180910390fd5b80600160008473ffffffffffffffffffffffffffffffffffffffff1673ffffffffffffffffffffffffffffffffffffffff16815260200190815260200160002060000160016101000a81548160ff021916908360ff1602179055507f67300a8a7a64e6ba305144189169d4bf615482b42e8fd241a6c5fc20879374a782600160008573ffffffffffffffffffffffffffffffffffffffff1673ffffffffffffffffffffffffffffffffffffffff16815260200190815260200160002060000160019054906101000a900460ff1660405161031b929190611326565b60405180910390a15050565b61032f610db0565b73ffffffffffffffffffffffffffffffffffffffff1661034d610c02565b73ffffffffffffffffffffffffffffffffffffffff16146103a3576040517f08c379a000000000000000000000000000000000000000000000000000000000815260040161039a906113f3565b60405180910390fd5b81600060018111156103b8576103b761163c565b5b600160008373ffffffffffffffffffffffffffffffffffffffff1673ffffffffffffffffffffffffffffffffffffffff16815260200190815260200160002060000160009054906101000a900460ff16600181111561041a5761041961163c565b5b1461045a576040517f08c379a000000000000000000000000000000000000000000000000000000000815260040161045190611413565b60405180910390fd5b600060018060008673ffffffffffffffffffffffffffffffffffffffff1673ffffffffffffffffffffffffffffffffffffffff168152602001908152602001600020600101805490506104ad91906114ba565b90506000600160008673ffffffffffffffffffffffffffffffffffffffff1673ffffffffffffffffffffffffffffffffffffffff1681526020019081526020016000206001018054905011610537576040517f08c379a000000000000000000000000000000000000000000000000000000000815260040161052e906113d3565b60405180910390fd5b6000600181111561054b5761054a61163c565b5b600160008673ffffffffffffffffffffffffffffffffffffffff1673ffffffffffffffffffffffffffffffffffffffff168152602001908152602001600020600101828154811061059f5761059e61169a565b5b906000526020600020906004020160020160009054906101000a900460ff1660018111156105d0576105cf61163c565b5b14610610576040517f08c379a000000000000000000000000000000000000000000000000000000000815260040161060790611393565b60405180910390fd5b7fa3a756c9361873f5cd34cb71ba3b6ebc76b90321aa2767387c016991dfb4f63a84600160008773ffffffffffffffffffffffffffffffffffffffff1673ffffffffffffffffffffffffffffffffffffffff16815260200190815260200160002060010183815481106106865761068561169a565b5b90600052602060002090600402016003016040516106a59291906112f6565b60405180910390a182600160008673ffffffffffffffffffffffffffffffffffffffff1673ffffffffffffffffffffffffffffffffffffffff16815260200190815260200160002060010182815481106107025761070161169a565b5b90600052602060002090600402016001018190555060018060008673ffffffffffffffffffffffffffffffffffffffff1673ffffffffffffffffffffffffffffffffffffffff168152602001908152602001600020600101828154811061076c5761076b61169a565b5b906000526020600020906004020160020160006101000a81548160ff0219169083600181111561079f5761079e61163c565b5b02179055506000600160008673ffffffffffffffffffffffffffffffffffffffff1673ffffffffffffffffffffffffffffffffffffffff16815260200190815260200160002060000160019054906101000a900460ff1660ff1614156108a15760018060008673ffffffffffffffffffffffffffffffffffffffff1673ffffffffffffffffffffffffffffffffffffffff16815260200190815260200160002060000160006101000a81548160ff021916908360018111156108645761086361163c565b5b02179055507f1eacdda6365a7f824e9b515212eda6b8fb050f25bc505f857ac21c025a64e6f184604051610898919061129d565b60405180910390a15b7fd3866d48a40f2de06c735e96a984d47ce6783b334002603c31e3f4bc05bd51c584600160008773ffffffffffffffffffffffffffffffffffffffff1673ffffffffffffffffffffffffffffffffffffffff16815260200190815260200160002060010183815481106109175761091661169a565b5b90600052602060002090600402016003016040516109369291906112f6565b60405180910390a150505050565b61094c610db0565b73ffffffffffffffffffffffffffffffffffffffff1661096a610c02565b73ffffffffffffffffffffffffffffffffffffffff16146109c0576040517f08c379a00000000000000000000000000000000000000000000000000000000081526004016109b7906113f3565b60405180910390fd5b6109ca6000610db8565b565b82600060018111156109e1576109e061163c565b5b600160008373ffffffffffffffffffffffffffffffffffffffff1673ffffffffffffffffffffffffffffffffffffffff16815260200190815260200160002060000160009054906101000a900460ff166001811115610a4357610a4261163c565b5b14610a83576040517f08c379a0000000000000000000000000000000000000000000000000000000008152600401610a7a90611413565b60405180910390fd5b7fd9b8c2cc3eb9a560bd0f08689340a119d3b98b77fd516a8a3f728493d18dc59b848484604051610ab6939291906112b8565b60405180910390a1600160008573ffffffffffffffffffffffffffffffffffffffff1673ffffffffffffffffffffffffffffffffffffffff16815260200190815260200160002060010160405180608001604052808481526020016000815260200160006001811115610b2c57610b2b61163c565b5b8152602001858152509080600181540180825580915050600190039060005260206000209060040201600090919091909150600082015181600001556020820151816001015560408201518160020160006101000a81548160ff02191690836001811115610b9d57610b9c61163c565b5b02179055506060820151816003019080519060200190610bbe929190610e7c565b5050507f814b246d1dad06f336e34264a3a1dab47d4b041329e5d0dd774e9cb108d46289848484604051610bf4939291906112b8565b60405180910390a150505050565b60008060009054906101000a900473ffffffffffffffffffffffffffffffffffffffff16905090565b6000806001811115610c4057610c3f61163c565b5b600160008473ffffffffffffffffffffffffffffffffffffffff1673ffffffffffffffffffffffffffffffffffffffff16815260200190815260200160002060000160009054906101000a900460ff166001811115610ca257610ca161163c565b5b14610cae576000610cb1565b60015b9050919050565b610cc0610db0565b73ffffffffffffffffffffffffffffffffffffffff16610cde610c02565b73ffffffffffffffffffffffffffffffffffffffff1614610d34576040517f08c379a0000000000000000000000000000000000000000000000000000000008152600401610d2b906113f3565b60405180910390fd5b600073ffffffffffffffffffffffffffffffffffffffff168173ffffffffffffffffffffffffffffffffffffffff161415610da4576040517f08c379a0000000000000000000000000000000000000000000000000000000008152600401610d9b906113b3565b60405180910390fd5b610dad81610db8565b50565b600033905090565b60008060009054906101000a900473ffffffffffffffffffffffffffffffffffffffff169050816000806101000a81548173ffffffffffffffffffffffffffffffffffffffff021916908373ffffffffffffffffffffffffffffffffffffffff1602179055508173ffffffffffffffffffffffffffffffffffffffff168173ffffffffffffffffffffffffffffffffffffffff167f8be0079c531659141344cd1fd0a4f28419497f9722a3daafe3b4186f6b6457e060405160405180910390a35050565b828054610e88906115aa565b90600052602060002090601f016020900481019282610eaa5760008555610ef1565b82601f10610ec357805160ff1916838001178555610ef1565b82800160010185558215610ef1579182015b82811115610ef0578251825591602001919060010190610ed5565b5b509050610efe9190610f02565b5090565b5b80821115610f1b576000816000905550600101610f03565b5090565b6000610f32610f2d84611458565b611433565b905082815260208101848484011115610f4e57610f4d6116fd565b5b610f59848285611568565b509392505050565b600081359050610f708161184a565b92915050565b600082601f830112610f8b57610f8a6116f8565b5b8135610f9b848260208601610f1f565b91505092915050565b600081359050610fb381611861565b92915050565b600081359050610fc881611878565b92915050565b600060208284031215610fe457610fe3611707565b5b6000610ff284828501610f61565b91505092915050565b60008060006060848603121561101457611013611707565b5b600061102286828701610f61565b935050602084013567ffffffffffffffff81111561104357611042611702565b5b61104f86828701610f76565b925050604061106086828701610fa4565b9150509250925092565b6000806040838503121561108157611080611707565b5b600061108f85828601610f61565b92505060206110a085828601610fa4565b9150509250929050565b600080604083850312156110c1576110c0611707565b5b60006110cf85828601610f61565b92505060206110e085828601610fb9565b9150509250929050565b6110f3816114ee565b82525050565b61110281611500565b82525050565b61111181611556565b82525050565b60006111228261149e565b61112c81856114a9565b935061113c818560208601611577565b6111458161170c565b840191505092915050565b6000815461115d816115aa565b61116781866114a9565b945060018216600081146111825760018114611194576111c7565b60ff19831686526020860193506111c7565b61119d85611489565b60005b838110156111bf578154818901526001820191506020810190506111a0565b808801955050505b50505092915050565b60006111dd6025836114a9565b91506111e88261171d565b604082019050919050565b60006112006026836114a9565b915061120b8261176c565b604082019050919050565b60006112236017836114a9565b915061122e826117bb565b602082019050919050565b60006112466020836114a9565b9150611251826117e4565b602082019050919050565b60006112696010836114a9565b91506112748261180d565b602082019050919050565b6112888161153f565b82525050565b61129781611549565b82525050565b60006020820190506112b260008301846110ea565b92915050565b60006060820190506112cd60008301866110ea565b81810360208301526112df8185611117565b90506112ee604083018461127f565b949350505050565b600060408201905061130b60008301856110ea565b818103602083015261131d8184611150565b90509392505050565b600060408201905061133b60008301856110ea565b611348602083018461128e565b9392505050565b600060208201905061136460008301846110f9565b92915050565b600060408201905061137f6000830185611108565b61138c602083018461128e565b9392505050565b600060208201905081810360008301526113ac816111d0565b9050919050565b600060208201905081810360008301526113cc816111f3565b9050919050565b600060208201905081810360008301526113ec81611216565b9050919050565b6000602082019050818103600083015261140c81611239565b9050919050565b6000602082019050818103600083015261142c8161125c565b9050919050565b600061143d61144e565b905061144982826115dc565b919050565b6000604051905090565b600067ffffffffffffffff821115611473576114726116c9565b5b61147c8261170c565b9050602081019050919050565b60008190508160005260206000209050919050565b600081519050919050565b600082825260208201905092915050565b60006114c58261153f565b91506114d08361153f565b9250828210156114e3576114e261160d565b5b828203905092915050565b60006114f98261151f565b9050919050565b60008115159050919050565b600081905061151a82611836565b919050565b600073ffffffffffffffffffffffffffffffffffffffff82169050919050565b6000819050919050565b600060ff82169050919050565b60006115618261150c565b9050919050565b82818337600083830152505050565b60005b8381101561159557808201518184015260208101905061157a565b838111156115a4576000848401525b50505050565b600060028204905060018216806115c257607f821691505b602082108114156115d6576115d561166b565b5b50919050565b6115e58261170c565b810181811067ffffffffffffffff82111715611604576116036116c9565b5b80604052505050565b7f4e487b7100000000000000000000000000000000000000000000000000000000600052601160045260246000fd5b7f4e487b7100000000000000000000000000000000000000000000000000000000600052602160045260246000fd5b7f4e487b7100000000000000000000000000000000000000000000000000000000600052602260045260246000fd5b7f4e487b7100000000000000000000000000000000000000000000000000000000600052603260045260246000fd5b7f4e487b7100000000000000000000000000000000000000000000000000000000600052604160045260246000fd5b600080fd5b600080fd5b600080fd5b600080fd5b6000601f19601f8301169050919050565b7f54686520637573746f6d657220686173206e6f2070726f6475637420746f207260008201527f6566756e64000000000000000000000000000000000000000000000000000000602082015250565b7f4f776e61626c653a206e6577206f776e657220697320746865207a65726f206160008201527f6464726573730000000000000000000000000000000000000000000000000000602082015250565b7f50686f6e65206973206e6f742072656769737465726564000000000000000000600082015250565b7f4f776e61626c653a2063616c6c6572206973206e6f7420746865206f776e6572600082015250565b7f426c6f636b656420637573746f6d657200000000000000000000000000000000600082015250565b600281106118475761184661163c565b5b50565b611853816114ee565b811461185e57600080fd5b50565b61186a8161153f565b811461187557600080fd5b50565b61188181611549565b811461188c57600080fd5b5056fea2646970667358221220ad6ffdd09b9033d47d11342b15a7a50419a564918cc5e8da9548312282fb78d564736f6c63430008060033",
  "immutableReferences": {},
  "source": "// SPDX-License-Identifier: MIT\npragma solidity ^0.8.6;\n\nimport \"@openzeppelin/contracts/access/Ownable.sol\";\n\ncontract Billing is Ownable {\n    enum CustomerStatus {\n        Active,\n        Closed\n    }\n\n    enum HistoryStatus {\n        Active,\n        Closed\n    }\n\n    struct History {\n        uint acceptanceTimestamp;\n        uint paidTimestamp;\n        HistoryStatus status;\n        string ref;\n    }\n\n    struct Customer {\n        CustomerStatus status;\n        uint8 score;\n        History[] history;\n    }\n\n    event ScoreChange(address phoneHash, uint8 score);\n    event CustomerIsDeleted(address phoneHash);\n    event AcceptanceReceived(address phoneHash, string ref, uint acceptanceTimestamp);\n    event Confirmation(address phoneHash, string ref, uint acceptanceTimestamp);\n    event TopUpReceived(address phoneHash, string ref);\n    event Acknowledge(address phoneHash, string ref);\n\n    mapping(address => Customer) public customers;\n\n    modifier activeCustomer(address _phoneHash) {\n        require(customers[_phoneHash].status == CustomerStatus.Active, \"Blocked customer\");\n        _;\n    }\n\n    constructor() {}\n\n    function isActiveCustomer(address _phoneHash) public view returns(bool) {\n        return (customers[_phoneHash].status == CustomerStatus.Active ? true : false);\n    }\n\n    function changeScore(address _phoneHash, uint8 _score) public onlyOwner {\n        customers[_phoneHash].score = _score;\n        emit ScoreChange(_phoneHash, customers[_phoneHash].score);\n    }\n\n    function topUpBilling(address _phoneHash, uint _paidTimestamp) public onlyOwner activeCustomer(_phoneHash) {\n        uint index = customers[_phoneHash].history.length - 1;\n        require(customers[_phoneHash].history.length > 0, \"Phone is not registered\");\n        require(customers[_phoneHash].history[index].status == HistoryStatus.Active, \"The customer has no product to refund\");\n\n        emit TopUpReceived(_phoneHash, customers[_phoneHash].history[index].ref);\n        customers[_phoneHash].history[index].paidTimestamp = _paidTimestamp;\n        customers[_phoneHash].history[index].status = HistoryStatus.Closed;\n        if(customers[_phoneHash].score == 0) { // On mettra ca ailleur\n            customers[_phoneHash].status = CustomerStatus.Closed;\n            emit CustomerIsDeleted(_phoneHash);\n        }\n        emit Acknowledge(_phoneHash, customers[_phoneHash].history[index].ref);\n    }\n\n    function acceptance(address _phoneHash, string memory _ref, uint _acceptanceTimestamp) public activeCustomer(_phoneHash) {\n        emit AcceptanceReceived(_phoneHash, _ref, _acceptanceTimestamp);\n        customers[_phoneHash].history.push(History(_acceptanceTimestamp, 0, HistoryStatus.Active, _ref));\n        emit Confirmation(_phoneHash, _ref, _acceptanceTimestamp);\n     }\n}",
  "sourcePath": "/home/keymon/work/projet-pro/dApp/timelapse/contracts/Billing.sol",
  "compiler": {
    "name": "solc",
    "version": "0.8.6+commit.11564f7e.Emscripten.clang"
  },
  "schemaVersion": "3.4.1",
  "updatedAt": "2021-07-13T17:27:00.283Z",
  "devdoc": {
    "kind": "dev",
    "methods": {
      "owner()": {
        "details": "Returns the address of the current owner."
      },
      "renounceOwnership()": {
        "details": "Leaves the contract without owner. It will not be possible to call `onlyOwner` functions anymore. Can only be called by the current owner. NOTE: Renouncing ownership will leave the contract without an owner, thereby removing any functionality that is only available to the owner."
      },
      "transferOwnership(address)": {
        "details": "Transfers ownership of the contract to a new account (`newOwner`). Can only be called by the current owner."
      }
    },
    "version": 1
  },
  "userdoc": {
    "kind": "user",
    "methods": {},
    "version": 1
  }
}