{
  "contractName": "Billing",
  "abi": [
    {
      "inputs": [],
      "stateMutability": "nonpayable",
      "type": "constructor"
    },
    {
      "anonymous": false,
      "inputs": [
        {
          "indexed": false,
          "internalType": "address",
          "name": "phoneHash",
          "type": "address"
        },
        {
          "indexed": false,
          "internalType": "string",
          "name": "ref",
          "type": "string"
        },
        {
          "indexed": false,
          "internalType": "uint256",
          "name": "acceptanceTimestamp",
          "type": "uint256"
        },
        {
          "indexed": false,
          "internalType": "uint256",
          "name": "productId",
          "type": "uint256"
        }
      ],
      "name": "AcceptanceReceived",
      "type": "event"
    },
    {
      "anonymous": false,
      "inputs": [
        {
          "indexed": false,
          "internalType": "address",
          "name": "phoneHash",
          "type": "address"
        },
        {
          "indexed": false,
          "internalType": "string",
          "name": "ref",
          "type": "string"
        }
      ],
      "name": "AcknowledgeSent",
      "type": "event"
    },
    {
      "anonymous": false,
      "inputs": [
        {
          "indexed": false,
          "internalType": "address",
          "name": "phoneHash",
          "type": "address"
        },
        {
          "indexed": false,
          "internalType": "string",
          "name": "ref",
          "type": "string"
        },
        {
          "indexed": false,
          "internalType": "uint256",
          "name": "acceptanceTimestamp",
          "type": "uint256"
        },
        {
          "indexed": false,
          "internalType": "uint256",
          "name": "productId",
          "type": "uint256"
        }
      ],
      "name": "ConfirmationSent",
      "type": "event"
    },
    {
      "anonymous": false,
      "inputs": [
        {
          "indexed": false,
          "internalType": "address",
          "name": "phoneHash",
          "type": "address"
        }
      ],
      "name": "CustomerIsDeleted",
      "type": "event"
    },
    {
      "anonymous": false,
      "inputs": [
        {
          "indexed": false,
          "internalType": "address",
          "name": "phoneHash",
          "type": "address"
        },
        {
          "indexed": false,
          "internalType": "enum Billing.CustomerStatus",
          "name": "status",
          "type": "uint8"
        }
      ],
      "name": "CustomerStatusChange",
      "type": "event"
    },
    {
      "anonymous": false,
      "inputs": [
        {
          "indexed": true,
          "internalType": "address",
          "name": "previousOwner",
          "type": "address"
        },
        {
          "indexed": true,
          "internalType": "address",
          "name": "newOwner",
          "type": "address"
        }
      ],
      "name": "OwnershipTransferred",
      "type": "event"
    },
    {
      "anonymous": false,
      "inputs": [
        {
          "indexed": false,
          "internalType": "address",
          "name": "phoneHash",
          "type": "address"
        },
        {
          "indexed": false,
          "internalType": "uint8",
          "name": "score",
          "type": "uint8"
        }
      ],
      "name": "ScoreChanged",
      "type": "event"
    },
    {
      "anonymous": false,
      "inputs": [
        {
          "indexed": false,
          "internalType": "address",
          "name": "phoneHash",
          "type": "address"
        },
        {
          "indexed": false,
          "internalType": "string",
          "name": "ref",
          "type": "string"
        }
      ],
      "name": "TopUpReceived",
      "type": "event"
    },
    {
      "inputs": [
        {
          "internalType": "address",
          "name": "",
          "type": "address"
        }
      ],
      "name": "customerList",
      "outputs": [
        {
          "internalType": "uint256",
          "name": "customerId",
          "type": "uint256"
        },
        {
          "internalType": "enum Billing.CustomerStatus",
          "name": "status",
          "type": "uint8"
        }
      ],
      "stateMutability": "view",
      "type": "function",
      "constant": true
    },
    {
      "inputs": [
        {
          "internalType": "uint256",
          "name": "",
          "type": "uint256"
        }
      ],
      "name": "customers",
      "outputs": [
        {
          "internalType": "uint8",
          "name": "score",
          "type": "uint8"
        },
        {
          "internalType": "uint256",
          "name": "nbTopUp",
          "type": "uint256"
        },
        {
          "internalType": "uint256",
          "name": "amount",
          "type": "uint256"
        },
        {
          "internalType": "uint256",
          "name": "firstTopUp",
          "type": "uint256"
        },
        {
          "internalType": "uint256",
          "name": "lastAcceptanceID",
          "type": "uint256"
        },
        {
          "internalType": "enum Billing.CustomerStatus",
          "name": "status",
          "type": "uint8"
        }
      ],
      "stateMutability": "view",
      "type": "function",
      "constant": true
    },
    {
      "inputs": [
        {
          "internalType": "uint256",
          "name": "",
          "type": "uint256"
        }
      ],
      "name": "histories",
      "outputs": [
        {
          "internalType": "string",
          "name": "ref",
          "type": "string"
        },
        {
          "internalType": "uint256",
          "name": "acceptanceTimestamp",
          "type": "uint256"
        },
        {
          "internalType": "uint256",
          "name": "paidTimestamp",
          "type": "uint256"
        },
        {
          "internalType": "uint256",
          "name": "productId",
          "type": "uint256"
        },
        {
          "internalType": "enum Billing.HistoryStatus",
          "name": "status",
          "type": "uint8"
        }
      ],
      "stateMutability": "view",
      "type": "function",
      "constant": true
    },
    {
      "inputs": [
        {
          "internalType": "address",
          "name": "",
          "type": "address"
        },
        {
          "internalType": "uint256",
          "name": "",
          "type": "uint256"
        }
      ],
      "name": "historyList",
      "outputs": [
        {
          "internalType": "uint256",
          "name": "",
          "type": "uint256"
        }
      ],
      "stateMutability": "view",
      "type": "function",
      "constant": true
    },
    {
      "inputs": [],
      "name": "owner",
      "outputs": [
        {
          "internalType": "address",
          "name": "",
          "type": "address"
        }
      ],
      "stateMutability": "view",
      "type": "function",
      "constant": true
    },
    {
      "inputs": [],
      "name": "renounceOwnership",
      "outputs": [],
      "stateMutability": "nonpayable",
      "type": "function"
    },
    {
      "inputs": [
        {
          "internalType": "address",
          "name": "newOwner",
          "type": "address"
        }
      ],
      "name": "transferOwnership",
      "outputs": [],
      "stateMutability": "nonpayable",
      "type": "function"
    },
    {
      "inputs": [
        {
          "internalType": "address",
          "name": "_phoneHash",
          "type": "address"
        }
      ],
      "name": "getCustomer",
      "outputs": [
        {
          "components": [
            {
              "internalType": "uint8",
              "name": "score",
              "type": "uint8"
            },
            {
              "internalType": "uint256",
              "name": "nbTopUp",
              "type": "uint256"
            },
            {
              "internalType": "uint256",
              "name": "amount",
              "type": "uint256"
            },
            {
              "internalType": "uint256",
              "name": "firstTopUp",
              "type": "uint256"
            },
            {
              "internalType": "uint256",
              "name": "lastAcceptanceID",
              "type": "uint256"
            },
            {
              "internalType": "enum Billing.CustomerStatus",
              "name": "status",
              "type": "uint8"
            }
          ],
          "internalType": "struct Billing.Customer",
          "name": "",
          "type": "tuple"
        }
      ],
      "stateMutability": "view",
      "type": "function",
      "constant": true
    },
    {
      "inputs": [
        {
          "internalType": "address",
          "name": "_phoneHash",
          "type": "address"
        }
      ],
      "name": "isActiveCustomer",
      "outputs": [
        {
          "internalType": "bool",
          "name": "",
          "type": "bool"
        }
      ],
      "stateMutability": "view",
      "type": "function",
      "constant": true
    },
    {
      "inputs": [
        {
          "internalType": "address",
          "name": "_phoneHash",
          "type": "address"
        },
        {
          "internalType": "enum Billing.CustomerStatus",
          "name": "_status",
          "type": "uint8"
        }
      ],
      "name": "changeCustomerStatus",
      "outputs": [],
      "stateMutability": "nonpayable",
      "type": "function"
    },
    {
      "inputs": [
        {
          "internalType": "address",
          "name": "_phoneHash",
          "type": "address"
        }
      ],
      "name": "getScore",
      "outputs": [
        {
          "internalType": "uint8",
          "name": "",
          "type": "uint8"
        }
      ],
      "stateMutability": "view",
      "type": "function",
      "constant": true
    },
    {
      "inputs": [
        {
          "internalType": "address",
          "name": "_phoneHash",
          "type": "address"
        }
      ],
      "name": "addToScore",
      "outputs": [],
      "stateMutability": "nonpayable",
      "type": "function"
    },
    {
      "inputs": [
        {
          "internalType": "address",
          "name": "_phoneHash",
          "type": "address"
        },
        {
          "internalType": "uint8",
          "name": "_score",
          "type": "uint8"
        }
      ],
      "name": "changeScore",
      "outputs": [],
      "stateMutability": "nonpayable",
      "type": "function"
    },
    {
      "inputs": [
        {
          "internalType": "address",
          "name": "_phoneHash",
          "type": "address"
        }
      ],
      "name": "getHistorySize",
      "outputs": [
        {
          "internalType": "uint256",
          "name": "",
          "type": "uint256"
        }
      ],
      "stateMutability": "view",
      "type": "function",
      "constant": true
    },
    {
      "inputs": [],
      "name": "getHistoriesSize",
      "outputs": [
        {
          "internalType": "uint256",
          "name": "",
          "type": "uint256"
        }
      ],
      "stateMutability": "view",
      "type": "function",
      "constant": true
    },
    {
      "inputs": [
        {
          "internalType": "address",
          "name": "_phoneHash",
          "type": "address"
        },
        {
          "internalType": "uint256",
          "name": "_amount",
          "type": "uint256"
        }
      ],
      "name": "addToCustomerAmount",
      "outputs": [],
      "stateMutability": "nonpayable",
      "type": "function"
    },
    {
      "inputs": [
        {
          "internalType": "address",
          "name": "_phoneHash",
          "type": "address"
        },
        {
          "internalType": "string",
          "name": "_ref",
          "type": "string"
        },
        {
          "internalType": "uint256",
          "name": "_acceptanceTimestamp",
          "type": "uint256"
        },
        {
          "internalType": "uint256",
          "name": "_productId",
          "type": "uint256"
        }
      ],
      "name": "acceptanceBilling",
      "outputs": [],
      "stateMutability": "nonpayable",
      "type": "function"
    },
    {
      "inputs": [
        {
          "internalType": "address",
          "name": "_phoneHash",
          "type": "address"
        },
        {
          "internalType": "uint256",
          "name": "_paidTimestamp",
          "type": "uint256"
        }
      ],
      "name": "topUpBilling",
      "outputs": [],
      "stateMutability": "nonpayable",
      "type": "function"
    },
    {
      "inputs": [
        {
          "components": [
            {
              "internalType": "uint8",
              "name": "score",
              "type": "uint8"
            },
            {
              "internalType": "uint256",
              "name": "nbTopUp",
              "type": "uint256"
            },
            {
              "internalType": "uint256",
              "name": "amount",
              "type": "uint256"
            },
            {
              "internalType": "uint256",
              "name": "firstTopUp",
              "type": "uint256"
            },
            {
              "internalType": "uint256",
              "name": "lastAcceptanceID",
              "type": "uint256"
            },
            {
              "internalType": "enum Billing.CustomerStatus",
              "name": "status",
              "type": "uint8"
            }
          ],
          "internalType": "struct Billing.Customer",
          "name": "_customer",
          "type": "tuple"
        }
      ],
      "name": "process",
      "outputs": [
        {
          "internalType": "uint8",
          "name": "",
          "type": "uint8"
        }
      ],
      "stateMutability": "view",
      "type": "function",
      "constant": true
    }
  ],
  "bytecode": "0x60806040523480156200001157600080fd5b5062000032620000266200003860201b60201c565b6200004060201b60201c565b62000104565b600033905090565b60008060009054906101000a900473ffffffffffffffffffffffffffffffffffffffff169050816000806101000a81548173ffffffffffffffffffffffffffffffffffffffff021916908373ffffffffffffffffffffffffffffffffffffffff1602179055508173ffffffffffffffffffffffffffffffffffffffff168173ffffffffffffffffffffffffffffffffffffffff167f8be0079c531659141344cd1fd0a4f28419497f9722a3daafe3b4186f6b6457e060405160405180910390a35050565b6132bf80620001146000396000f3fe608060405234801561001057600080fd5b50600436106101215760003560e01c80639ef91d91116100ad578063d8dd182711610071578063d8dd182714610347578063f2fde38b14610363578063f3963cba1461037f578063f4274bc51461039b578063fcdc4eb7146103cc57610121565b80639ef91d9114610252578063c0abda2a14610282578063c23a179f146102b7578063cb949e51146102e7578063d47875d01461031757610121565b8063715018a6116100f4578063715018a6146101c25780637a67e6cc146101cc5780638da5cb5b146101e857806393d08f2414610206578063994155681461022257610121565b806327933952146101265780633ef3e0cb1461015657806345df77791461017257806356564b7c1461018e575b600080fd5b610140600480360381019061013b91906126c5565b6103ea565b60405161014d9190612c29565b60405180910390f35b610170600480360381019061016b9190612685565b6105a4565b005b61018c60048036038101906101879190612645565b610751565b005b6101a860048036038101906101a391906126f2565b610bad565b6040516101b9959493929190612ab0565b60405180910390f35b6101ca610c88565b005b6101e660048036038101906101e191906125c2565b610d10565b005b6101f06112ac565b6040516101fd91906129ac565b60405180910390f35b610220600480360381019061021b9190612582565b6112d5565b005b61023c60048036038101906102379190612645565b6114d6565b6040516102499190612be5565b60405180910390f35b61026c60048036038101906102679190612555565b611507565b6040516102799190612a95565b60405180910390f35b61029c600480360381019061029791906126f2565b611595565b6040516102ae96959493929190612c44565b60405180910390f35b6102d160048036038101906102cc9190612555565b6115fb565b6040516102de9190612be5565b60405180910390f35b61030160048036038101906102fc9190612555565b6116c3565b60405161030e9190612bca565b60405180910390f35b610331600480360381019061032c9190612555565b611878565b60405161033e9190612c29565b60405180910390f35b610361600480360381019061035c9190612645565b611a2a565b005b61037d60048036038101906103789190612555565b611c5d565b005b61039960048036038101906103949190612555565b611d55565b005b6103b560048036038101906103b09190612555565b61217d565b6040516103c3929190612c00565b60405180910390f35b6103d46121ae565b6040516103e19190612be5565b60405180910390f35b600080600080600085604001511015801561040b5750610fa0856040015111155b156104195760019250610448565b610fa085604001511180156104345750613a98856040015111155b156104425760029250610447565b600392505b5b6276a700426104579190612df4565b85606001511061046a57600091506104f4565b6276a700426104799190612df4565b856060015110801561049d575062ed4e00426104959190612df4565b856060015110155b156104ab57600291506104f3565b62ed4e00426104ba9190612df4565b85606001511080156104df57506301b30f00426104d79190612df4565b856060015110155b156104ed57600691506104f2565b600f91505b5b5b60008560200151141561050a576000905061055f565b600085602001511180156105235750600a856020015111155b15610531576001905061055e565b600a856020015111801561054a57506014856020015111155b15610558576005905061055d565b600f90505b5b5b60088161056c9190612db9565b6006836105799190612db9565b6004856105869190612db9565b6105909190612d82565b61059a9190612d82565b9350505050919050565b6105ac612237565b73ffffffffffffffffffffffffffffffffffffffff166105ca6112ac565b73ffffffffffffffffffffffffffffffffffffffff1614610620576040517f08c379a000000000000000000000000000000000000000000000000000000000815260040161061790612baa565b60405180910390fd5b806001600260008573ffffffffffffffffffffffffffffffffffffffff1673ffffffffffffffffffffffffffffffffffffffff168152602001908152602001600020600001548154811061067757610676613042565b5b906000526020600020906006020160000160006101000a81548160ff021916908360ff1602179055507f6f738e5caa984202ad1f23dac3912cbecc4635cab65476ab4b3a6b4337062276826001600260008673ffffffffffffffffffffffffffffffffffffffff1673ffffffffffffffffffffffffffffffffffffffff168152602001908152602001600020600001548154811061071857610717613042565b5b906000526020600020906006020160000160009054906101000a900460ff16604051610745929190612a6c565b60405180910390a15050565b610759612237565b73ffffffffffffffffffffffffffffffffffffffff166107776112ac565b73ffffffffffffffffffffffffffffffffffffffff16146107cd576040517f08c379a00000000000000000000000000000000000000000000000000000000081526004016107c490612baa565b60405180910390fd5b6000600460008473ffffffffffffffffffffffffffffffffffffffff1673ffffffffffffffffffffffffffffffffffffffff1681526020019081526020016000208054905011610852576040517f08c379a000000000000000000000000000000000000000000000000000000000815260040161084990612b8a565b60405180910390fd5b6000600460008473ffffffffffffffffffffffffffffffffffffffff1673ffffffffffffffffffffffffffffffffffffffff1681526020019081526020016000206001600460008673ffffffffffffffffffffffffffffffffffffffff1673ffffffffffffffffffffffffffffffffffffffff168152602001908152602001600020805490506108e29190612df4565b815481106108f3576108f2613042565b5b906000526020600020015490506000600181111561091457610913612fe4565b5b6003828154811061092857610927613042565b5b906000526020600020906005020160040160009054906101000a900460ff16600181111561095957610958612fe4565b5b14610999576040517f08c379a000000000000000000000000000000000000000000000000000000000815260040161099090612b0a565b60405180910390fd5b7fa3a756c9361873f5cd34cb71ba3b6ebc76b90321aa2767387c016991dfb4f63a83600383815481106109cf576109ce613042565b5b90600052602060002090600502016000016040516109ee929190612a3c565b60405180910390a160006001600260008673ffffffffffffffffffffffffffffffffffffffff1673ffffffffffffffffffffffffffffffffffffffff1681526020019081526020016000206000015481548110610a4e57610a4d613042565b5b9060005260206000209060060201600301541415610ad357426001600260008673ffffffffffffffffffffffffffffffffffffffff1673ffffffffffffffffffffffffffffffffffffffff1681526020019081526020016000206000015481548110610abd57610abc613042565b5b9060005260206000209060060201600301819055505b8160038281548110610ae857610ae7613042565b5b906000526020600020906005020160020181905550600160038281548110610b1357610b12613042565b5b906000526020600020906005020160040160006101000a81548160ff02191690836001811115610b4657610b45612fe4565b5b02179055507f6a01b0e16a2517c05520520dd407c35aebc38e048e735a051fe156e3af09ef4a8360038381548110610b8157610b80613042565b5b9060005260206000209060050201600001604051610ba0929190612a3c565b60405180910390a1505050565b60038181548110610bbd57600080fd5b9060005260206000209060050201600091509050806000018054610be090612f09565b80601f0160208091040260200160405190810160405280929190818152602001828054610c0c90612f09565b8015610c595780601f10610c2e57610100808354040283529160200191610c59565b820191906000526020600020905b815481529060010190602001808311610c3c57829003601f168201915b5050505050908060010154908060020154908060030154908060040160009054906101000a900460ff16905085565b610c90612237565b73ffffffffffffffffffffffffffffffffffffffff16610cae6112ac565b73ffffffffffffffffffffffffffffffffffffffff1614610d04576040517f08c379a0000000000000000000000000000000000000000000000000000000008152600401610cfb90612baa565b60405180910390fd5b610d0e600061223f565b565b610d18612237565b73ffffffffffffffffffffffffffffffffffffffff16610d366112ac565b73ffffffffffffffffffffffffffffffffffffffff1614610d8c576040517f08c379a0000000000000000000000000000000000000000000000000000000008152600401610d8390612baa565b60405180910390fd5b8360016002811115610da157610da0612fe4565b5b600260008373ffffffffffffffffffffffffffffffffffffffff1673ffffffffffffffffffffffffffffffffffffffff16815260200190815260200160002060010160009054906101000a900460ff166002811115610e0357610e02612fe4565b5b14610e43576040517f08c379a0000000000000000000000000000000000000000000000000000000008152600401610e3a90612b4a565b60405180910390fd5b7f031870b979bdc77dc0b1037a1aac37c55a178ab3bec4f8ba1ca1fc452e30578b85858585604051610e7894939291906129f0565b60405180910390a160036040518060a001604052808681526020018581526020016000815260200184815260200160006001811115610eba57610eb9612fe4565b5b81525090806001815401808255809150506001900390600052602060002090600502016000909190919091506000820151816000019080519060200190610f02929190612303565b5060208201518160010155604082015181600201556060820151816003015560808201518160040160006101000a81548160ff02191690836001811115610f4c57610f4b612fe4565b5b021790555050506001600380549050610f659190612df4565b6001600260008873ffffffffffffffffffffffffffffffffffffffff1673ffffffffffffffffffffffffffffffffffffffff1681526020019081526020016000206000015481548110610fbb57610fba613042565b5b90600052602060002090600602016004018190555060006001600260008873ffffffffffffffffffffffffffffffffffffffff1673ffffffffffffffffffffffffffffffffffffffff168152602001908152602001600020600001548154811061102857611027613042565b5b90600052602060002090600602016040518060c00160405290816000820160009054906101000a900460ff1660ff1660ff168152602001600182015481526020016002820154815260200160038201548152602001600482015481526020016005820160009054906101000a900460ff1660028111156110ab576110aa612fe4565b5b60028111156110bd576110bc612fe4565b5b815250509050600460008773ffffffffffffffffffffffffffffffffffffffff1673ffffffffffffffffffffffffffffffffffffffff16815260200190815260200160002060016003805490506111149190612df4565b90806001815401808255809150506001900390600052602060002001600090919091909150556000600382608001518154811061115457611153613042565b5b90600052602060002090600502016040518060a001604052908160008201805461117d90612f09565b80601f01602080910402602001604051908101604052809291908181526020018280546111a990612f09565b80156111f65780601f106111cb576101008083540402835291602001916111f6565b820191906000526020600020905b8154815290600101906020018083116111d957829003601f168201915b505050505081526020016001820154815260200160028201548152602001600382015481526020016004820160009054906101000a900460ff16600181111561124257611241612fe4565b5b600181111561125457611253612fe4565b5b8152505090507fdedb5d607fb18c23dfe4149f54a3ba5b1edfc3ade9c0afe61940032a9e6a9a148782600001518360200151846060015160405161129b94939291906129f0565b60405180910390a150505050505050565b60008060009054906101000a900473ffffffffffffffffffffffffffffffffffffffff16905090565b6112dd612237565b73ffffffffffffffffffffffffffffffffffffffff166112fb6112ac565b73ffffffffffffffffffffffffffffffffffffffff1614611351576040517f08c379a000000000000000000000000000000000000000000000000000000000815260040161134890612baa565b60405180910390fd5b80600260008473ffffffffffffffffffffffffffffffffffffffff1673ffffffffffffffffffffffffffffffffffffffff16815260200190815260200160002060010160006101000a81548160ff021916908360028111156113b6576113b5612fe4565b5b0217905550806001600260008573ffffffffffffffffffffffffffffffffffffffff1673ffffffffffffffffffffffffffffffffffffffff168152602001908152602001600020600001548154811061141257611411613042565b5b906000526020600020906006020160050160006101000a81548160ff0219169083600281111561144557611444612fe4565b5b02179055507fb23cc8d2c435b48098fc64e3bfd632e00ba00d1b8be3f25b0a973438951eae7f82600260008573ffffffffffffffffffffffffffffffffffffffff1673ffffffffffffffffffffffffffffffffffffffff16815260200190815260200160002060010160009054906101000a900460ff166040516114ca9291906129c7565b60405180910390a15050565b600460205281600052604060002081815481106114f257600080fd5b90600052602060002001600091509150505481565b60006001600281111561151d5761151c612fe4565b5b600260008473ffffffffffffffffffffffffffffffffffffffff1673ffffffffffffffffffffffffffffffffffffffff16815260200190815260200160002060010160009054906101000a900460ff16600281111561157f5761157e612fe4565b5b1461158b57600061158e565b60015b9050919050565b600181815481106115a557600080fd5b90600052602060002090600602016000915090508060000160009054906101000a900460ff16908060010154908060020154908060030154908060040154908060050160009054906101000a900460ff16905086565b6000611605612237565b73ffffffffffffffffffffffffffffffffffffffff166116236112ac565b73ffffffffffffffffffffffffffffffffffffffff1614611679576040517f08c379a000000000000000000000000000000000000000000000000000000000815260040161167090612baa565b60405180910390fd5b600460008373ffffffffffffffffffffffffffffffffffffffff1673ffffffffffffffffffffffffffffffffffffffff168152602001908152602001600020805490509050919050565b6116cb612389565b600060028111156116df576116de612fe4565b5b600260008473ffffffffffffffffffffffffffffffffffffffff1673ffffffffffffffffffffffffffffffffffffffff16815260200190815260200160002060010160009054906101000a900460ff16600281111561174157611740612fe4565b5b1415611782576040517f08c379a000000000000000000000000000000000000000000000000000000000815260040161177990612b6a565b60405180910390fd5b6001600260008473ffffffffffffffffffffffffffffffffffffffff1673ffffffffffffffffffffffffffffffffffffffff16815260200190815260200160002060000154815481106117d8576117d7613042565b5b90600052602060002090600602016040518060c00160405290816000820160009054906101000a900460ff1660ff1660ff168152602001600182015481526020016002820154815260200160038201548152602001600482015481526020016005820160009054906101000a900460ff16600281111561185b5761185a612fe4565b5b600281111561186d5761186c612fe4565b5b815250509050919050565b6000611882612237565b73ffffffffffffffffffffffffffffffffffffffff166118a06112ac565b73ffffffffffffffffffffffffffffffffffffffff16146118f6576040517f08c379a00000000000000000000000000000000000000000000000000000000081526004016118ed90612baa565b60405180910390fd5b816001600281111561190b5761190a612fe4565b5b600260008373ffffffffffffffffffffffffffffffffffffffff1673ffffffffffffffffffffffffffffffffffffffff16815260200190815260200160002060010160009054906101000a900460ff16600281111561196d5761196c612fe4565b5b146119ad576040517f08c379a00000000000000000000000000000000000000000000000000000000081526004016119a490612b4a565b60405180910390fd5b6001600260008573ffffffffffffffffffffffffffffffffffffffff1673ffffffffffffffffffffffffffffffffffffffff1681526020019081526020016000206000015481548110611a0357611a02613042565b5b906000526020600020906006020160000160009054906101000a900460ff16915050919050565b611a32612237565b73ffffffffffffffffffffffffffffffffffffffff16611a506112ac565b73ffffffffffffffffffffffffffffffffffffffff1614611aa6576040517f08c379a0000000000000000000000000000000000000000000000000000000008152600401611a9d90612baa565b60405180910390fd5b8160016002811115611abb57611aba612fe4565b5b600260008373ffffffffffffffffffffffffffffffffffffffff1673ffffffffffffffffffffffffffffffffffffffff16815260200190815260200160002060010160009054906101000a900460ff166002811115611b1d57611b1c612fe4565b5b14611b5d576040517f08c379a0000000000000000000000000000000000000000000000000000000008152600401611b5490612b4a565b60405180910390fd5b816001600260008673ffffffffffffffffffffffffffffffffffffffff1673ffffffffffffffffffffffffffffffffffffffff1681526020019081526020016000206000015481548110611bb457611bb3613042565b5b90600052602060002090600602016002016000828254611bd49190612d2c565b925050819055506001600260008573ffffffffffffffffffffffffffffffffffffffff1673ffffffffffffffffffffffffffffffffffffffff1681526020019081526020016000206000015481548110611c3157611c30613042565b5b90600052602060002090600602016001016000815480929190611c5390612f6c565b9190505550505050565b611c65612237565b73ffffffffffffffffffffffffffffffffffffffff16611c836112ac565b73ffffffffffffffffffffffffffffffffffffffff1614611cd9576040517f08c379a0000000000000000000000000000000000000000000000000000000008152600401611cd090612baa565b60405180910390fd5b600073ffffffffffffffffffffffffffffffffffffffff168173ffffffffffffffffffffffffffffffffffffffff161415611d49576040517f08c379a0000000000000000000000000000000000000000000000000000000008152600401611d4090612b2a565b60405180910390fd5b611d528161223f565b50565b611d5d612237565b73ffffffffffffffffffffffffffffffffffffffff16611d7b6112ac565b73ffffffffffffffffffffffffffffffffffffffff1614611dd1576040517f08c379a0000000000000000000000000000000000000000000000000000000008152600401611dc890612baa565b60405180910390fd5b60006002811115611de557611de4612fe4565b5b600260008373ffffffffffffffffffffffffffffffffffffffff1673ffffffffffffffffffffffffffffffffffffffff16815260200190815260200160002060010160009054906101000a900460ff166002811115611e4757611e46612fe4565b5b1415611ffd5760016040518060c00160405280600060ff16815260200160008152602001600081526020014281526020016000815260200160016002811115611e9357611e92612fe4565b5b815250908060018154018082558091505060019003906000526020600020906006020160009091909190915060008201518160000160006101000a81548160ff021916908360ff1602179055506020820151816001015560408201518160020155606082015181600301556080820151816004015560a08201518160050160006101000a81548160ff02191690836002811115611f3357611f32612fe4565b5b0217905550505060018080549050611f4b9190612df4565b600260008373ffffffffffffffffffffffffffffffffffffffff1673ffffffffffffffffffffffffffffffffffffffff168152602001908152602001600020600001819055506001600260008373ffffffffffffffffffffffffffffffffffffffff1673ffffffffffffffffffffffffffffffffffffffff16815260200190815260200160002060010160006101000a81548160ff02191690836002811115611ff757611ff6612fe4565b5b02179055505b6001600260008373ffffffffffffffffffffffffffffffffffffffff1673ffffffffffffffffffffffffffffffffffffffff168152602001908152602001600020600001548154811061205357612052613042565b5b9060005260206000209060060201600101600081548092919061207590612f6c565b919050555061217a816121756001600260008673ffffffffffffffffffffffffffffffffffffffff1673ffffffffffffffffffffffffffffffffffffffff16815260200190815260200160002060000154815481106120d7576120d6613042565b5b90600052602060002090600602016040518060c00160405290816000820160009054906101000a900460ff1660ff1660ff168152602001600182015481526020016002820154815260200160038201548152602001600482015481526020016005820160009054906101000a900460ff16600281111561215a57612159612fe4565b5b600281111561216c5761216b612fe4565b5b815250506103ea565b6105a4565b50565b60026020528060005260406000206000915090508060000154908060010160009054906101000a900460ff16905082565b60006121b8612237565b73ffffffffffffffffffffffffffffffffffffffff166121d66112ac565b73ffffffffffffffffffffffffffffffffffffffff161461222c576040517f08c379a000000000000000000000000000000000000000000000000000000000815260040161222390612baa565b60405180910390fd5b600380549050905090565b600033905090565b60008060009054906101000a900473ffffffffffffffffffffffffffffffffffffffff169050816000806101000a81548173ffffffffffffffffffffffffffffffffffffffff021916908373ffffffffffffffffffffffffffffffffffffffff1602179055508173ffffffffffffffffffffffffffffffffffffffff168173ffffffffffffffffffffffffffffffffffffffff167f8be0079c531659141344cd1fd0a4f28419497f9722a3daafe3b4186f6b6457e060405160405180910390a35050565b82805461230f90612f09565b90600052602060002090601f0160209004810192826123315760008555612378565b82601f1061234a57805160ff1916838001178555612378565b82800160010185558215612378579182015b8281111561237757825182559160200191906001019061235c565b5b50905061238591906123d4565b5090565b6040518060c00160405280600060ff16815260200160008152602001600081526020016000815260200160008152602001600060028111156123ce576123cd612fe4565b5b81525090565b5b808211156123ed5760008160009055506001016123d5565b5090565b60006124046123ff84612cca565b612ca5565b9050828152602081018484840111156124205761241f6130aa565b5b61242b848285612ec7565b509392505050565b60008135905061244281613234565b92915050565b6000813590506124578161324b565b92915050565b600082601f830112612472576124716130a0565b5b81356124828482602086016123f1565b91505092915050565b600060c082840312156124a1576124a06130a5565b5b6124ab60c0612ca5565b905060006124bb84828501612540565b60008301525060206124cf8482850161252b565b60208301525060406124e38482850161252b565b60408301525060606124f78482850161252b565b606083015250608061250b8482850161252b565b60808301525060a061251f84828501612448565b60a08301525092915050565b60008135905061253a8161325b565b92915050565b60008135905061254f81613272565b92915050565b60006020828403121561256b5761256a6130b4565b5b600061257984828501612433565b91505092915050565b60008060408385031215612599576125986130b4565b5b60006125a785828601612433565b92505060206125b885828601612448565b9150509250929050565b600080600080608085870312156125dc576125db6130b4565b5b60006125ea87828801612433565b945050602085013567ffffffffffffffff81111561260b5761260a6130af565b5b6126178782880161245d565b93505060406126288782880161252b565b92505060606126398782880161252b565b91505092959194509250565b6000806040838503121561265c5761265b6130b4565b5b600061266a85828601612433565b925050602061267b8582860161252b565b9150509250929050565b6000806040838503121561269c5761269b6130b4565b5b60006126aa85828601612433565b92505060206126bb85828601612540565b9150509250929050565b600060c082840312156126db576126da6130b4565b5b60006126e98482850161248b565b91505092915050565b600060208284031215612708576127076130b4565b5b60006127168482850161252b565b91505092915050565b61272881612e28565b82525050565b61273781612e3a565b82525050565b61274681612ea3565b82525050565b61275581612ea3565b82525050565b61276481612eb5565b82525050565b600061277582612d10565b61277f8185612d1b565b935061278f818560208601612ed6565b612798816130b9565b840191505092915050565b600081546127b081612f09565b6127ba8186612d1b565b945060018216600081146127d557600181146127e75761281a565b60ff198316865260208601935061281a565b6127f085612cfb565b60005b83811015612812578154818901526001820191506020810190506127f3565b808801955050505b50505092915050565b6000612830602583612d1b565b915061283b826130ca565b604082019050919050565b6000612853602683612d1b565b915061285e82613119565b604082019050919050565b6000612876601c83612d1b565b915061288182613168565b602082019050919050565b6000612899600f83612d1b565b91506128a482613191565b602082019050919050565b60006128bc601783612d1b565b91506128c7826131ba565b602082019050919050565b60006128df602083612d1b565b91506128ea826131e3565b602082019050919050565b60c08201600082015161290b600085018261298e565b50602082015161291e6020850182612970565b5060408201516129316040850182612970565b5060608201516129446060850182612970565b5060808201516129576080850182612970565b5060a082015161296a60a085018261273d565b50505050565b61297981612e8c565b82525050565b61298881612e8c565b82525050565b61299781612e96565b82525050565b6129a681612e96565b82525050565b60006020820190506129c1600083018461271f565b92915050565b60006040820190506129dc600083018561271f565b6129e9602083018461274c565b9392505050565b6000608082019050612a05600083018761271f565b8181036020830152612a17818661276a565b9050612a26604083018561297f565b612a33606083018461297f565b95945050505050565b6000604082019050612a51600083018561271f565b8181036020830152612a6381846127a3565b90509392505050565b6000604082019050612a81600083018561271f565b612a8e602083018461299d565b9392505050565b6000602082019050612aaa600083018461272e565b92915050565b600060a0820190508181036000830152612aca818861276a565b9050612ad9602083018761297f565b612ae6604083018661297f565b612af3606083018561297f565b612b00608083018461275b565b9695505050505050565b60006020820190508181036000830152612b2381612823565b9050919050565b60006020820190508181036000830152612b4381612846565b9050919050565b60006020820190508181036000830152612b6381612869565b9050919050565b60006020820190508181036000830152612b838161288c565b9050919050565b60006020820190508181036000830152612ba3816128af565b9050919050565b60006020820190508181036000830152612bc3816128d2565b9050919050565b600060c082019050612bdf60008301846128f5565b92915050565b6000602082019050612bfa600083018461297f565b92915050565b6000604082019050612c15600083018561297f565b612c22602083018461274c565b9392505050565b6000602082019050612c3e600083018461299d565b92915050565b600060c082019050612c59600083018961299d565b612c66602083018861297f565b612c73604083018761297f565b612c80606083018661297f565b612c8d608083018561297f565b612c9a60a083018461274c565b979650505050505050565b6000612caf612cc0565b9050612cbb8282612f3b565b919050565b6000604051905090565b600067ffffffffffffffff821115612ce557612ce4613071565b5b612cee826130b9565b9050602081019050919050565b60008190508160005260206000209050919050565b600081519050919050565b600082825260208201905092915050565b6000612d3782612e8c565b9150612d4283612e8c565b9250827fffffffffffffffffffffffffffffffffffffffffffffffffffffffffffffffff03821115612d7757612d76612fb5565b5b828201905092915050565b6000612d8d82612e96565b9150612d9883612e96565b92508260ff03821115612dae57612dad612fb5565b5b828201905092915050565b6000612dc482612e96565b9150612dcf83612e96565b92508160ff0483118215151615612de957612de8612fb5565b5b828202905092915050565b6000612dff82612e8c565b9150612e0a83612e8c565b925082821015612e1d57612e1c612fb5565b5b828203905092915050565b6000612e3382612e6c565b9050919050565b60008115159050919050565b6000819050612e548261320c565b919050565b6000819050612e6782613220565b919050565b600073ffffffffffffffffffffffffffffffffffffffff82169050919050565b6000819050919050565b600060ff82169050919050565b6000612eae82612e46565b9050919050565b6000612ec082612e59565b9050919050565b82818337600083830152505050565b60005b83811015612ef4578082015181840152602081019050612ed9565b83811115612f03576000848401525b50505050565b60006002820490506001821680612f2157607f821691505b60208210811415612f3557612f34613013565b5b50919050565b612f44826130b9565b810181811067ffffffffffffffff82111715612f6357612f62613071565b5b80604052505050565b6000612f7782612e8c565b91507fffffffffffffffffffffffffffffffffffffffffffffffffffffffffffffffff821415612faa57612fa9612fb5565b5b600182019050919050565b7f4e487b7100000000000000000000000000000000000000000000000000000000600052601160045260246000fd5b7f4e487b7100000000000000000000000000000000000000000000000000000000600052602160045260246000fd5b7f4e487b7100000000000000000000000000000000000000000000000000000000600052602260045260246000fd5b7f4e487b7100000000000000000000000000000000000000000000000000000000600052603260045260246000fd5b7f4e487b7100000000000000000000000000000000000000000000000000000000600052604160045260246000fd5b600080fd5b600080fd5b600080fd5b600080fd5b600080fd5b6000601f19601f8301169050919050565b7f54686520637573746f6d657220686173206e6f2070726f6475637420746f207260008201527f6566756e64000000000000000000000000000000000000000000000000000000602082015250565b7f4f776e61626c653a206e6577206f776e657220697320746865207a65726f206160008201527f6464726573730000000000000000000000000000000000000000000000000000602082015250565b7f426c6f636b6564206f7220556e6b6e6f77656420637573746f6d657200000000600082015250565b7f556e6b6e6f7720637573746f6d65720000000000000000000000000000000000600082015250565b7f50686f6e65206973206e6f742072656769737465726564000000000000000000600082015250565b7f4f776e61626c653a2063616c6c6572206973206e6f7420746865206f776e6572600082015250565b6003811061321d5761321c612fe4565b5b50565b6002811061323157613230612fe4565b5b50565b61323d81612e28565b811461324857600080fd5b50565b6003811061325857600080fd5b50565b61326481612e8c565b811461326f57600080fd5b50565b61327b81612e96565b811461328657600080fd5b5056fea2646970667358221220fb317c9fcb99761e1da4e0783bb9bab15f369885127c1a446fa507e41fc4e4eb64736f6c63430008060033",
  "immutableReferences": {},
  "source": "// SPDX-License-Identifier: MIT\npragma solidity 0.8.6;\n\nimport \"@openzeppelin/contracts/access/Ownable.sol\";\n\n/**\n * @title This Smart Contract is responsible of the Billing.\n * @notice Manage all aspects related to billing (customers, accounting and billing management)\n * @author Keeymon, DavidRochus\n */\ncontract Billing is Ownable {\n    /**\n     * @dev Customer status\n     */\n    enum CustomerStatus {\n        New,\n        Active,\n        Closed\n    }\n\n    /**\n     * @dev History status\n     */\n    enum HistoryStatus {\n        Active,\n        Closed\n    }\n\n    /**\n     * @dev Customer product history\n     */\n    struct History {\n        string ref;\n        uint256 acceptanceTimestamp;\n        uint256 paidTimestamp;\n        uint256 productId;\n        HistoryStatus status;\n    }\n\n    /**\n     * @dev Customer information\n     */\n    struct Customer {\n        uint8 score;\n        uint256 nbTopUp;\n        uint256 amount;\n        uint256 firstTopUp;\n        uint256 lastAcceptanceID;\n        CustomerStatus status;\n    }\n\n    /**\n     * @dev Customer index information\n     */\n    struct CustomerInfo {\n        uint256 customerId;\n        CustomerStatus status;\n    }\n\n    /**\n     * @dev Triggered when status of a customer has changed\n     */\n    event CustomerStatusChange(address phoneHash, CustomerStatus status);\n\n    /**\n     * @dev Triggered when score of a customer has changed\n     */\n    event ScoreChanged(address phoneHash, uint8 score);\n\n    /**\n     * @dev Triggered when a customer has been deleted\n     */\n    event CustomerIsDeleted(address phoneHash);\n\n    /**\n     * @dev Triggered when an Acceptance is received\n     */\n    event AcceptanceReceived(\n        address phoneHash,\n        string ref,\n        uint256 acceptanceTimestamp,\n        uint256 productId\n    );\n\n    /**\n     * @dev Triggered when confirmation has to be sent\n     */\n    event ConfirmationSent(\n        address phoneHash,\n        string ref,\n        uint256 acceptanceTimestamp,\n        uint256 productId\n    );\n\n    /**\n     * @dev Triggered when a topUp is received\n     */\n    event TopUpReceived(address phoneHash, string ref);\n\n    /**\n     * @dev Triggered when an acknowledge has to be sent\n     */\n    event AcknowledgeSent(address phoneHash, string ref);\n\n    /**\n     * @dev Customer table\n     */\n    Customer[] public customers;\n\n    /**\n     * @dev Mapping to access customer information with a phoneHash\n     */\n    mapping(address => CustomerInfo) public customerList;\n\n    /**\n     * @dev History table\n     */\n    History[] public histories;\n\n    /**\n     * @dev Mapping to access history information with a phoneHash\n     */\n    mapping(address => uint256[]) public historyList;\n\n    /**\n     * @dev Check that the customer is still active\n     */\n    modifier activeCustomer(address _phoneHash) {\n        require(\n            customerList[_phoneHash].status == CustomerStatus.Active,\n            \"Blocked or Unknowed customer\"\n        );\n        _;\n    }\n\n    /**\n     * @dev Smart Contract constructor\n     */\n    constructor() {}\n\n    /**\n     * @notice Get a Customer with phoneHash\n     * @param _phoneHash The address that identifies to the customer\n     * @dev This function get the customer (identified with `_phoneHash`)\n     */\n    function getCustomer(address _phoneHash)\n        external\n        view\n        returns (Customer memory)\n    {\n        require(\n            customerList[_phoneHash].status != CustomerStatus.New,\n            \"Unknow customer\"\n        );\n        return customers[customerList[_phoneHash].customerId];\n    }\n\n    /**\n     * @notice Inform if the customer is active\n     * @param _phoneHash The address that identifies to the customer\n     * @dev This function informs if the customer (identified with `_phoneHash`) is active\n     */\n    function isActiveCustomer(address _phoneHash) external view returns (bool) {\n        return (\n            customerList[_phoneHash].status == CustomerStatus.Active\n                ? true\n                : false\n        );\n    }\n\n    /**\n     * @notice Change the customer status\n     * @param _phoneHash The address that identifies to the customer\n     * @param _status The new state for the customer\n     * @dev This function change the customer's status (using CustomerStatus `_status`) ofr a customer (identified with `_phoneHash`)\n     */\n    function changeCustomerStatus(address _phoneHash, CustomerStatus _status)\n        external\n        onlyOwner\n    {\n        customerList[_phoneHash].status = _status;\n        customers[customerList[_phoneHash].customerId].status = _status;\n        emit CustomerStatusChange(_phoneHash, customerList[_phoneHash].status);\n    }\n\n    /**\n     * @notice Increase scoring information of a customer\n     * @param _phoneHash The address that identifies to the customer\n     * @dev This function is directly called when API receives a topUp for a customer (identified with `_phoneHash`) with a target other than Timelapse\n     */\n    function getScore(address _phoneHash)\n        external\n        view\n        onlyOwner\n        activeCustomer(_phoneHash)\n        returns (uint8)\n    {\n        return customers[customerList[_phoneHash].customerId].score;\n    }\n\n    /**\n     * @notice Add customer if unknow and increase scoring information of a customer\n     * @param _phoneHash The address that identifies to the customer\n     * @dev This function is directly called when API receives a topUp for a customer (identified with `_phoneHash`) with a target other than Timelapse\n     */\n    function addToScore(address _phoneHash) external onlyOwner {\n        if (customerList[_phoneHash].status == CustomerStatus.New) {\n            customers.push(\n                Customer(0, 0, 0, block.timestamp, 0, CustomerStatus.Active)\n            );\n            customerList[_phoneHash].customerId = (customers.length - 1);\n            customerList[_phoneHash].status = CustomerStatus.Active;\n        }\n        customers[customerList[_phoneHash].customerId].nbTopUp++;\n        changeScore(\n            _phoneHash,\n            process(customers[customerList[_phoneHash].customerId])\n        );\n    }\n\n    /**\n     * @notice Change the score of a customer\n     * @param _phoneHash The address that identifies to the customer\n     * @dev This function informs if the customer (identified with `_phoneHash`) is active\n     */\n    function changeScore(address _phoneHash, uint8 _score) public onlyOwner {\n        customers[customerList[_phoneHash].customerId].score = _score;\n        emit ScoreChanged(\n            _phoneHash,\n            customers[customerList[_phoneHash].customerId].score\n        );\n    }\n\n    /**\n     * @notice Get the size of the history of a customer\n     * @param _phoneHash The address that identifies to the customer\n     * @dev Get the size of the history of a customer (identified with `_phoneHash`)\n     */\n    function getHistorySize(address _phoneHash)\n        external\n        view\n        onlyOwner\n        returns (uint256)\n    {\n        return historyList[_phoneHash].length;\n    }\n\n    /**\n     * @notice Get the size of all the histories\n     * @dev Get the size of all the histories\n     */\n    function getHistoriesSize() external view onlyOwner returns (uint256) {\n        return histories.length;\n    }\n\n    /**\n     * @notice Add amount to customer total amount\n     * @param _phoneHash The address that identifies to the customer\n     * @dev Add amount to customer (identified with `_phoneHash`) total amount\n     */\n    function addToCustomerAmount(address _phoneHash, uint256 _amount)\n        external\n        onlyOwner\n        activeCustomer(_phoneHash)\n    {\n        customers[customerList[_phoneHash].customerId].amount += _amount;\n        customers[customerList[_phoneHash].customerId].nbTopUp++;\n    }\n\n    /**\n     * @notice Add an acceptance in the customer history\n     * @param _phoneHash The address that identifies to the customer\n     * @param _ref Reference of the telecom provider\n     * @param _acceptanceTimestamp Timestamp of the acceptance\n     * @param _productId ID of the product\n     * @dev Add a customer product history (using reference `_ref`, product `_productId`, timestamp `_acceptanceTimestamp`) for a customer (identified with `_phoneHash`)\n     */\n    function acceptanceBilling(\n        address _phoneHash,\n        string memory _ref,\n        uint256 _acceptanceTimestamp,\n        uint256 _productId\n    ) external onlyOwner activeCustomer(_phoneHash) {\n        emit AcceptanceReceived(\n            _phoneHash,\n            _ref,\n            _acceptanceTimestamp,\n            _productId\n        );\n        histories.push(\n            History(\n                _ref,\n                _acceptanceTimestamp,\n                0,\n                _productId,\n                HistoryStatus.Active\n            )\n        );\n        customers[customerList[_phoneHash].customerId]\n        .lastAcceptanceID = (histories.length - 1);\n        Customer memory customer = customers[\n            customerList[_phoneHash].customerId\n        ];\n        historyList[_phoneHash].push(histories.length - 1);\n        History memory lastAcceptance = histories[customer.lastAcceptanceID];\n        emit ConfirmationSent(\n            _phoneHash,\n            lastAcceptance.ref,\n            lastAcceptance.acceptanceTimestamp,\n            lastAcceptance.productId\n        );\n    }\n\n    /**\n     * @notice TopUp the last product of a customer\n     * @param _phoneHash The address that identifies to the customer\n     * @param _paidTimestamp Timestamp of the acceptance\n     * @dev TopUp the last product of a customer (identified with `_phoneHash`) at timestamp `_paidTimestamp`\n     */\n    function topUpBilling(address _phoneHash, uint256 _paidTimestamp)\n        external\n        onlyOwner\n    {\n        require(historyList[_phoneHash].length > 0, \"Phone is not registered\");\n        uint256 index = historyList[_phoneHash][\n            (historyList[_phoneHash].length - 1)\n        ];\n        require(\n            histories[index].status == HistoryStatus.Active,\n            \"The customer has no product to refund\"\n        );\n        emit TopUpReceived(_phoneHash, histories[index].ref);\n        if (customers[customerList[_phoneHash].customerId].firstTopUp == 0) {\n            customers[customerList[_phoneHash].customerId].firstTopUp = block\n            .timestamp;\n        }\n        histories[index].paidTimestamp = _paidTimestamp;\n        histories[index].status = HistoryStatus.Closed;\n        emit AcknowledgeSent(_phoneHash, histories[index].ref);\n    }\n\n    /**\n     * @notice Compute the score of a customer\n     * @param _customer The customer\n     * @return Score The computed customer score\n     * @dev Compute the score of a customer `_customer`\n     */\n    function process(Customer memory _customer) public view returns (uint8) {\n        uint8 topupAmountPoints;\n        uint8 firstTopUpAgePoints;\n        uint8 nbTopUpPoints;\n        if (_customer.amount >= 0 && _customer.amount <= 4000) {\n            topupAmountPoints = 1;\n        } else if (_customer.amount > 4000 && _customer.amount <= 15000) {\n            topupAmountPoints = 2;\n        } else {\n            topupAmountPoints = 3;\n        }\n        if (_customer.firstTopUp >= (block.timestamp - 90 days)) {\n            firstTopUpAgePoints = 0;\n        } else if (\n            _customer.firstTopUp < (block.timestamp - 90 days) &&\n            _customer.firstTopUp >= (block.timestamp - 180 days)\n        ) {\n            firstTopUpAgePoints = 2;\n        } else if (\n            _customer.firstTopUp < (block.timestamp - 180 days) &&\n            _customer.firstTopUp >= (block.timestamp - 330 days)\n        ) {\n            firstTopUpAgePoints = 6;\n        } else {\n            firstTopUpAgePoints = 15;\n        }\n        if (_customer.nbTopUp == 0) {\n            nbTopUpPoints = 0;\n        } else if (_customer.nbTopUp > 0 && _customer.nbTopUp <= 10) {\n            nbTopUpPoints = 1;\n        } else if (_customer.nbTopUp > 10 && _customer.nbTopUp <= 20) {\n            nbTopUpPoints = 5;\n        } else {\n            nbTopUpPoints = 15;\n        }\n        return\n            (topupAmountPoints * 4) +\n            (firstTopUpAgePoints * 6) +\n            (nbTopUpPoints * 8);\n    }\n}\n",
  "sourcePath": "/Users/davidrochus/Dev/workspace/timelapse/contracts/Billing.sol",
  "compiler": {
    "name": "solc",
    "version": "0.8.6+commit.11564f7e.Emscripten.clang"
  },
  "schemaVersion": "3.4.1",
  "updatedAt": "2021-07-28T09:57:33.199Z",
  "networkType": "ethereum",
  "devdoc": {
    "author": "Keeymon, DavidRochus",
    "events": {
      "AcceptanceReceived(address,string,uint256,uint256)": {
        "details": "Triggered when an Acceptance is received"
      },
      "AcknowledgeSent(address,string)": {
        "details": "Triggered when an acknowledge has to be sent"
      },
      "ConfirmationSent(address,string,uint256,uint256)": {
        "details": "Triggered when confirmation has to be sent"
      },
      "CustomerIsDeleted(address)": {
        "details": "Triggered when a customer has been deleted"
      },
      "CustomerStatusChange(address,uint8)": {
        "details": "Triggered when status of a customer has changed"
      },
      "ScoreChanged(address,uint8)": {
        "details": "Triggered when score of a customer has changed"
      },
      "TopUpReceived(address,string)": {
        "details": "Triggered when a topUp is received"
      }
    },
    "kind": "dev",
    "methods": {
      "acceptanceBilling(address,string,uint256,uint256)": {
        "details": "Add a customer product history (using reference `_ref`, product `_productId`, timestamp `_acceptanceTimestamp`) for a customer (identified with `_phoneHash`)",
        "params": {
          "_acceptanceTimestamp": "Timestamp of the acceptance",
          "_phoneHash": "The address that identifies to the customer",
          "_productId": "ID of the product",
          "_ref": "Reference of the telecom provider"
        }
      },
      "addToCustomerAmount(address,uint256)": {
        "details": "Add amount to customer (identified with `_phoneHash`) total amount",
        "params": {
          "_phoneHash": "The address that identifies to the customer"
        }
      },
      "addToScore(address)": {
        "details": "This function is directly called when API receives a topUp for a customer (identified with `_phoneHash`) with a target other than Timelapse",
        "params": {
          "_phoneHash": "The address that identifies to the customer"
        }
      },
      "changeCustomerStatus(address,uint8)": {
        "details": "This function change the customer's status (using CustomerStatus `_status`) ofr a customer (identified with `_phoneHash`)",
        "params": {
          "_phoneHash": "The address that identifies to the customer",
          "_status": "The new state for the customer"
        }
      },
      "changeScore(address,uint8)": {
        "details": "This function informs if the customer (identified with `_phoneHash`) is active",
        "params": {
          "_phoneHash": "The address that identifies to the customer"
        }
      },
      "constructor": {
        "details": "Smart Contract constructor"
      },
      "getCustomer(address)": {
        "details": "This function get the customer (identified with `_phoneHash`)",
        "params": {
          "_phoneHash": "The address that identifies to the customer"
        }
      },
      "getHistoriesSize()": {
        "details": "Get the size of all the histories"
      },
      "getHistorySize(address)": {
        "details": "Get the size of the history of a customer (identified with `_phoneHash`)",
        "params": {
          "_phoneHash": "The address that identifies to the customer"
        }
      },
      "getScore(address)": {
        "details": "This function is directly called when API receives a topUp for a customer (identified with `_phoneHash`) with a target other than Timelapse",
        "params": {
          "_phoneHash": "The address that identifies to the customer"
        }
      },
      "isActiveCustomer(address)": {
        "details": "This function informs if the customer (identified with `_phoneHash`) is active",
        "params": {
          "_phoneHash": "The address that identifies to the customer"
        }
      },
      "owner()": {
        "details": "Returns the address of the current owner."
      },
      "process((uint8,uint256,uint256,uint256,uint256,uint8))": {
        "details": "Compute the score of a customer `_customer`",
        "params": {
          "_customer": "The customer"
        },
        "returns": {
          "_0": "Score The computed customer score"
        }
      },
      "renounceOwnership()": {
        "details": "Leaves the contract without owner. It will not be possible to call `onlyOwner` functions anymore. Can only be called by the current owner. NOTE: Renouncing ownership will leave the contract without an owner, thereby removing any functionality that is only available to the owner."
      },
      "topUpBilling(address,uint256)": {
        "details": "TopUp the last product of a customer (identified with `_phoneHash`) at timestamp `_paidTimestamp`",
        "params": {
          "_paidTimestamp": "Timestamp of the acceptance",
          "_phoneHash": "The address that identifies to the customer"
        }
      },
      "transferOwnership(address)": {
        "details": "Transfers ownership of the contract to a new account (`newOwner`). Can only be called by the current owner."
      }
    },
    "stateVariables": {
      "customerList": {
        "details": "Mapping to access customer information with a phoneHash"
      },
      "customers": {
        "details": "Customer table"
      },
      "histories": {
        "details": "History table"
      },
      "historyList": {
        "details": "Mapping to access history information with a phoneHash"
      }
    },
    "title": "This Smart Contract is responsible of the Billing.",
    "version": 1
  },
  "userdoc": {
    "kind": "user",
    "methods": {
      "acceptanceBilling(address,string,uint256,uint256)": {
        "notice": "Add an acceptance in the customer history"
      },
      "addToCustomerAmount(address,uint256)": {
        "notice": "Add amount to customer total amount"
      },
      "addToScore(address)": {
        "notice": "Add customer if unknow and increase scoring information of a customer"
      },
      "changeCustomerStatus(address,uint8)": {
        "notice": "Change the customer status"
      },
      "changeScore(address,uint8)": {
        "notice": "Change the score of a customer"
      },
      "getCustomer(address)": {
        "notice": "Get a Customer with phoneHash"
      },
      "getHistoriesSize()": {
        "notice": "Get the size of all the histories"
      },
      "getHistorySize(address)": {
        "notice": "Get the size of the history of a customer"
      },
      "getScore(address)": {
        "notice": "Increase scoring information of a customer"
      },
      "isActiveCustomer(address)": {
        "notice": "Inform if the customer is active"
      },
      "process((uint8,uint256,uint256,uint256,uint256,uint8))": {
        "notice": "Compute the score of a customer"
      },
      "topUpBilling(address,uint256)": {
        "notice": "TopUp the last product of a customer"
      }
    },
    "notice": "Manage all aspects related to billing (customers, accounting and billing management)",
    "version": 1
  }
}