{
  "contractName": "Billing",
  "abi": [
    {
      "inputs": [],
      "stateMutability": "nonpayable",
      "type": "constructor"
    },
    {
      "anonymous": false,
      "inputs": [
        {
          "indexed": false,
          "internalType": "address",
          "name": "phoneHash",
          "type": "address"
        },
        {
          "indexed": false,
          "internalType": "string",
          "name": "ref",
          "type": "string"
        },
        {
          "indexed": false,
          "internalType": "uint256",
          "name": "acceptanceTimestamp",
          "type": "uint256"
        },
        {
          "indexed": false,
          "internalType": "uint256",
          "name": "idOffer",
          "type": "uint256"
        },
        {
          "indexed": false,
          "internalType": "uint256",
          "name": "idProposal",
          "type": "uint256"
        }
      ],
      "name": "AcceptanceReceived",
      "type": "event"
    },
    {
      "anonymous": false,
      "inputs": [
        {
          "indexed": false,
          "internalType": "address",
          "name": "phoneHash",
          "type": "address"
        },
        {
          "indexed": false,
          "internalType": "string",
          "name": "ref",
          "type": "string"
        }
      ],
      "name": "Acknowledge",
      "type": "event"
    },
    {
      "anonymous": false,
      "inputs": [
        {
          "indexed": false,
          "internalType": "address",
          "name": "phoneHash",
          "type": "address"
        },
        {
          "indexed": false,
          "internalType": "string",
          "name": "ref",
          "type": "string"
        },
        {
          "indexed": false,
          "internalType": "uint256",
          "name": "acceptanceTimestamp",
          "type": "uint256"
        },
        {
          "indexed": false,
          "internalType": "uint256",
          "name": "idOffer",
          "type": "uint256"
        },
        {
          "indexed": false,
          "internalType": "uint256",
          "name": "idProposal",
          "type": "uint256"
        }
      ],
      "name": "Confirmation",
      "type": "event"
    },
    {
      "anonymous": false,
      "inputs": [
        {
          "indexed": false,
          "internalType": "address",
          "name": "phoneHash",
          "type": "address"
        }
      ],
      "name": "CustomerIsDeleted",
      "type": "event"
    },
    {
      "anonymous": false,
      "inputs": [
        {
          "indexed": true,
          "internalType": "address",
          "name": "previousOwner",
          "type": "address"
        },
        {
          "indexed": true,
          "internalType": "address",
          "name": "newOwner",
          "type": "address"
        }
      ],
      "name": "OwnershipTransferred",
      "type": "event"
    },
    {
      "anonymous": false,
      "inputs": [
        {
          "indexed": false,
          "internalType": "address",
          "name": "phoneHash",
          "type": "address"
        },
        {
          "indexed": false,
          "internalType": "uint8",
          "name": "score",
          "type": "uint8"
        }
      ],
      "name": "ScoreChange",
      "type": "event"
    },
    {
      "anonymous": false,
      "inputs": [
        {
          "indexed": false,
          "internalType": "address",
          "name": "phoneHash",
          "type": "address"
        },
        {
          "indexed": false,
          "internalType": "string",
          "name": "ref",
          "type": "string"
        }
      ],
      "name": "TopUpReceived",
      "type": "event"
    },
    {
      "inputs": [
        {
          "internalType": "address",
          "name": "",
          "type": "address"
        }
      ],
      "name": "customers",
      "outputs": [
        {
          "internalType": "enum Billing.CustomerStatus",
          "name": "status",
          "type": "uint8"
        },
        {
          "internalType": "uint8",
          "name": "score",
          "type": "uint8"
        }
      ],
      "stateMutability": "view",
      "type": "function"
    },
    {
      "inputs": [],
      "name": "owner",
      "outputs": [
        {
          "internalType": "address",
          "name": "",
          "type": "address"
        }
      ],
      "stateMutability": "view",
      "type": "function"
    },
    {
      "inputs": [],
      "name": "renounceOwnership",
      "outputs": [],
      "stateMutability": "nonpayable",
      "type": "function"
    },
    {
      "inputs": [
        {
          "internalType": "address",
          "name": "newOwner",
          "type": "address"
        }
      ],
      "name": "transferOwnership",
      "outputs": [],
      "stateMutability": "nonpayable",
      "type": "function"
    },
    {
      "inputs": [
        {
          "internalType": "address",
          "name": "_phoneHash",
          "type": "address"
        }
      ],
      "name": "isActiveCustomer",
      "outputs": [
        {
          "internalType": "bool",
          "name": "",
          "type": "bool"
        }
      ],
      "stateMutability": "view",
      "type": "function"
    },
    {
      "inputs": [
        {
          "internalType": "address",
          "name": "_phoneHash",
          "type": "address"
        },
        {
          "internalType": "uint8",
          "name": "_score",
          "type": "uint8"
        }
      ],
      "name": "changeScore",
      "outputs": [],
      "stateMutability": "nonpayable",
      "type": "function"
    },
    {
      "inputs": [
        {
          "internalType": "address",
          "name": "_phoneHash",
          "type": "address"
        },
        {
          "internalType": "uint256",
          "name": "_paidTimestamp",
          "type": "uint256"
        }
      ],
      "name": "topUpBilling",
      "outputs": [],
      "stateMutability": "nonpayable",
      "type": "function"
    },
    {
      "inputs": [
        {
          "internalType": "address",
          "name": "_phoneHash",
          "type": "address"
        },
        {
          "internalType": "string",
          "name": "_ref",
          "type": "string"
        },
        {
          "internalType": "uint256",
          "name": "_acceptanceTimestamp",
          "type": "uint256"
        },
        {
          "internalType": "uint256",
          "name": "idOffer",
          "type": "uint256"
        },
        {
          "internalType": "uint256",
          "name": "idProposal",
          "type": "uint256"
        }
      ],
      "name": "acceptance",
      "outputs": [],
      "stateMutability": "nonpayable",
      "type": "function"
    }
  ],
  "bytecode": "0x608060405234801561001057600080fd5b5061002d61002261003260201b60201c565b61003a60201b60201c565b6100fe565b600033905090565b60008060009054906101000a900473ffffffffffffffffffffffffffffffffffffffff169050816000806101000a81548173ffffffffffffffffffffffffffffffffffffffff021916908373ffffffffffffffffffffffffffffffffffffffff1602179055508173ffffffffffffffffffffffffffffffffffffffff168173ffffffffffffffffffffffffffffffffffffffff167f8be0079c531659141344cd1fd0a4f28419497f9722a3daafe3b4186f6b6457e060405160405180910390a35050565b6119338061010d6000396000f3fe608060405234801561001057600080fd5b50600436106100885760003560e01c80638da5cb5b1161005b5780638da5cb5b146101005780639ef91d911461011e578063f2fde38b1461014e578063f324e9d11461016a57610088565b8063336989ae1461008d5780633ef3e0cb146100be57806345df7779146100da578063715018a6146100f6575b600080fd5b6100a760048036038101906100a29190610ff8565b610186565b6040516100b59291906113d8565b60405180910390f35b6100d860048036038101906100d391906110fc565b6101c4565b005b6100f460048036038101906100ef91906110bc565b610327565b005b6100fe610944565b005b6101086109cc565b60405161011591906112ef565b60405180910390f35b61013860048036038101906101339190610ff8565b6109f5565b60405161014591906113bd565b60405180910390f35b61016860048036038101906101639190610ff8565b610a82565b005b610184600480360381019061017f9190611025565b610b7a565b005b60016020528060005260406000206000915090508060000160009054906101000a900460ff16908060000160019054906101000a900460ff16905082565b6101cc610dda565b73ffffffffffffffffffffffffffffffffffffffff166101ea6109cc565b73ffffffffffffffffffffffffffffffffffffffff1614610240576040517f08c379a000000000000000000000000000000000000000000000000000000000815260040161023790611461565b60405180910390fd5b80600160008473ffffffffffffffffffffffffffffffffffffffff1673ffffffffffffffffffffffffffffffffffffffff16815260200190815260200160002060000160016101000a81548160ff021916908360ff1602179055507f67300a8a7a64e6ba305144189169d4bf615482b42e8fd241a6c5fc20879374a782600160008573ffffffffffffffffffffffffffffffffffffffff1673ffffffffffffffffffffffffffffffffffffffff16815260200190815260200160002060000160019054906101000a900460ff1660405161031b929190611394565b60405180910390a15050565b61032f610dda565b73ffffffffffffffffffffffffffffffffffffffff1661034d6109cc565b73ffffffffffffffffffffffffffffffffffffffff16146103a3576040517f08c379a000000000000000000000000000000000000000000000000000000000815260040161039a90611461565b60405180910390fd5b81600060018111156103b8576103b76116aa565b5b600160008373ffffffffffffffffffffffffffffffffffffffff1673ffffffffffffffffffffffffffffffffffffffff16815260200190815260200160002060000160009054906101000a900460ff16600181111561041a576104196116aa565b5b1461045a576040517f08c379a000000000000000000000000000000000000000000000000000000000815260040161045190611481565b60405180910390fd5b600060018060008673ffffffffffffffffffffffffffffffffffffffff1673ffffffffffffffffffffffffffffffffffffffff168152602001908152602001600020600101805490506104ad9190611528565b90506000600160008673ffffffffffffffffffffffffffffffffffffffff1673ffffffffffffffffffffffffffffffffffffffff1681526020019081526020016000206001018054905011610537576040517f08c379a000000000000000000000000000000000000000000000000000000000815260040161052e90611441565b60405180910390fd5b6000600181111561054b5761054a6116aa565b5b600160008673ffffffffffffffffffffffffffffffffffffffff1673ffffffffffffffffffffffffffffffffffffffff168152602001908152602001600020600101828154811061059f5761059e611708565b5b906000526020600020906006020160030160009054906101000a900460ff1660018111156105d0576105cf6116aa565b5b14610610576040517f08c379a000000000000000000000000000000000000000000000000000000000815260040161060790611401565b60405180910390fd5b7fa3a756c9361873f5cd34cb71ba3b6ebc76b90321aa2767387c016991dfb4f63a84600160008773ffffffffffffffffffffffffffffffffffffffff1673ffffffffffffffffffffffffffffffffffffffff168152602001908152602001600020600101838154811061068657610685611708565b5b90600052602060002090600602016000016040516106a5929190611364565b60405180910390a182600160008673ffffffffffffffffffffffffffffffffffffffff1673ffffffffffffffffffffffffffffffffffffffff168152602001908152602001600020600101828154811061070257610701611708565b5b90600052602060002090600602016002018190555060018060008673ffffffffffffffffffffffffffffffffffffffff1673ffffffffffffffffffffffffffffffffffffffff168152602001908152602001600020600101828154811061076c5761076b611708565b5b906000526020600020906006020160030160006101000a81548160ff0219169083600181111561079f5761079e6116aa565b5b02179055506000600160008673ffffffffffffffffffffffffffffffffffffffff1673ffffffffffffffffffffffffffffffffffffffff16815260200190815260200160002060000160019054906101000a900460ff1660ff1614156108a15760018060008673ffffffffffffffffffffffffffffffffffffffff1673ffffffffffffffffffffffffffffffffffffffff16815260200190815260200160002060000160006101000a81548160ff02191690836001811115610864576108636116aa565b5b02179055507f1eacdda6365a7f824e9b515212eda6b8fb050f25bc505f857ac21c025a64e6f18460405161089891906112ef565b60405180910390a15b7fd3866d48a40f2de06c735e96a984d47ce6783b334002603c31e3f4bc05bd51c584600160008773ffffffffffffffffffffffffffffffffffffffff1673ffffffffffffffffffffffffffffffffffffffff168152602001908152602001600020600101838154811061091757610916611708565b5b9060005260206000209060060201600001604051610936929190611364565b60405180910390a150505050565b61094c610dda565b73ffffffffffffffffffffffffffffffffffffffff1661096a6109cc565b73ffffffffffffffffffffffffffffffffffffffff16146109c0576040517f08c379a00000000000000000000000000000000000000000000000000000000081526004016109b790611461565b60405180910390fd5b6109ca6000610de2565b565b60008060009054906101000a900473ffffffffffffffffffffffffffffffffffffffff16905090565b6000806001811115610a0a57610a096116aa565b5b600160008473ffffffffffffffffffffffffffffffffffffffff1673ffffffffffffffffffffffffffffffffffffffff16815260200190815260200160002060000160009054906101000a900460ff166001811115610a6c57610a6b6116aa565b5b14610a78576000610a7b565b60015b9050919050565b610a8a610dda565b73ffffffffffffffffffffffffffffffffffffffff16610aa86109cc565b73ffffffffffffffffffffffffffffffffffffffff1614610afe576040517f08c379a0000000000000000000000000000000000000000000000000000000008152600401610af590611461565b60405180910390fd5b600073ffffffffffffffffffffffffffffffffffffffff168173ffffffffffffffffffffffffffffffffffffffff161415610b6e576040517f08c379a0000000000000000000000000000000000000000000000000000000008152600401610b6590611421565b60405180910390fd5b610b7781610de2565b50565b8460006001811115610b8f57610b8e6116aa565b5b600160008373ffffffffffffffffffffffffffffffffffffffff1673ffffffffffffffffffffffffffffffffffffffff16815260200190815260200160002060000160009054906101000a900460ff166001811115610bf157610bf06116aa565b5b14610c31576040517f08c379a0000000000000000000000000000000000000000000000000000000008152600401610c2890611481565b60405180910390fd5b7f7f091c68c6205dcb150d504c6b309d6555334a046e5ea7b760e11abf3976d75a8686868686604051610c6895949392919061130a565b60405180910390a1600160008773ffffffffffffffffffffffffffffffffffffffff1673ffffffffffffffffffffffffffffffffffffffff1681526020019081526020016000206001016040518060c001604052808781526020018681526020016000815260200160006001811115610ce457610ce36116aa565b5b81526020018581526020018481525090806001815401808255809150506001900390600052602060002090600602016000909190919091506000820151816000019080519060200190610d38929190610ea6565b50602082015181600101556040820151816002015560608201518160030160006101000a81548160ff02191690836001811115610d7857610d776116aa565b5b02179055506080820151816004015560a0820151816005015550507f478c6abaacbcfc930dd3e22e9e4f8c303ed81d742ecea8a85a2eef9ab69ce4888686868686604051610dca95949392919061130a565b60405180910390a1505050505050565b600033905090565b60008060009054906101000a900473ffffffffffffffffffffffffffffffffffffffff169050816000806101000a81548173ffffffffffffffffffffffffffffffffffffffff021916908373ffffffffffffffffffffffffffffffffffffffff1602179055508173ffffffffffffffffffffffffffffffffffffffff168173ffffffffffffffffffffffffffffffffffffffff167f8be0079c531659141344cd1fd0a4f28419497f9722a3daafe3b4186f6b6457e060405160405180910390a35050565b828054610eb290611618565b90600052602060002090601f016020900481019282610ed45760008555610f1b565b82601f10610eed57805160ff1916838001178555610f1b565b82800160010185558215610f1b579182015b82811115610f1a578251825591602001919060010190610eff565b5b509050610f289190610f2c565b5090565b5b80821115610f45576000816000905550600101610f2d565b5090565b6000610f5c610f57846114c6565b6114a1565b905082815260208101848484011115610f7857610f7761176b565b5b610f838482856115d6565b509392505050565b600081359050610f9a816118b8565b92915050565b600082601f830112610fb557610fb4611766565b5b8135610fc5848260208601610f49565b91505092915050565b600081359050610fdd816118cf565b92915050565b600081359050610ff2816118e6565b92915050565b60006020828403121561100e5761100d611775565b5b600061101c84828501610f8b565b91505092915050565b600080600080600060a0868803121561104157611040611775565b5b600061104f88828901610f8b565b955050602086013567ffffffffffffffff8111156110705761106f611770565b5b61107c88828901610fa0565b945050604061108d88828901610fce565b935050606061109e88828901610fce565b92505060806110af88828901610fce565b9150509295509295909350565b600080604083850312156110d3576110d2611775565b5b60006110e185828601610f8b565b92505060206110f285828601610fce565b9150509250929050565b6000806040838503121561111357611112611775565b5b600061112185828601610f8b565b925050602061113285828601610fe3565b9150509250929050565b6111458161155c565b82525050565b6111548161156e565b82525050565b611163816115c4565b82525050565b60006111748261150c565b61117e8185611517565b935061118e8185602086016115e5565b6111978161177a565b840191505092915050565b600081546111af81611618565b6111b98186611517565b945060018216600081146111d457600181146111e657611219565b60ff1983168652602086019350611219565b6111ef856114f7565b60005b83811015611211578154818901526001820191506020810190506111f2565b808801955050505b50505092915050565b600061122f602583611517565b915061123a8261178b565b604082019050919050565b6000611252602683611517565b915061125d826117da565b604082019050919050565b6000611275601783611517565b915061128082611829565b602082019050919050565b6000611298602083611517565b91506112a382611852565b602082019050919050565b60006112bb601083611517565b91506112c68261187b565b602082019050919050565b6112da816115ad565b82525050565b6112e9816115b7565b82525050565b6000602082019050611304600083018461113c565b92915050565b600060a08201905061131f600083018861113c565b81810360208301526113318187611169565b905061134060408301866112d1565b61134d60608301856112d1565b61135a60808301846112d1565b9695505050505050565b6000604082019050611379600083018561113c565b818103602083015261138b81846111a2565b90509392505050565b60006040820190506113a9600083018561113c565b6113b660208301846112e0565b9392505050565b60006020820190506113d2600083018461114b565b92915050565b60006040820190506113ed600083018561115a565b6113fa60208301846112e0565b9392505050565b6000602082019050818103600083015261141a81611222565b9050919050565b6000602082019050818103600083015261143a81611245565b9050919050565b6000602082019050818103600083015261145a81611268565b9050919050565b6000602082019050818103600083015261147a8161128b565b9050919050565b6000602082019050818103600083015261149a816112ae565b9050919050565b60006114ab6114bc565b90506114b7828261164a565b919050565b6000604051905090565b600067ffffffffffffffff8211156114e1576114e0611737565b5b6114ea8261177a565b9050602081019050919050565b60008190508160005260206000209050919050565b600081519050919050565b600082825260208201905092915050565b6000611533826115ad565b915061153e836115ad565b9250828210156115515761155061167b565b5b828203905092915050565b60006115678261158d565b9050919050565b60008115159050919050565b6000819050611588826118a4565b919050565b600073ffffffffffffffffffffffffffffffffffffffff82169050919050565b6000819050919050565b600060ff82169050919050565b60006115cf8261157a565b9050919050565b82818337600083830152505050565b60005b838110156116035780820151818401526020810190506115e8565b83811115611612576000848401525b50505050565b6000600282049050600182168061163057607f821691505b60208210811415611644576116436116d9565b5b50919050565b6116538261177a565b810181811067ffffffffffffffff8211171561167257611671611737565b5b80604052505050565b7f4e487b7100000000000000000000000000000000000000000000000000000000600052601160045260246000fd5b7f4e487b7100000000000000000000000000000000000000000000000000000000600052602160045260246000fd5b7f4e487b7100000000000000000000000000000000000000000000000000000000600052602260045260246000fd5b7f4e487b7100000000000000000000000000000000000000000000000000000000600052603260045260246000fd5b7f4e487b7100000000000000000000000000000000000000000000000000000000600052604160045260246000fd5b600080fd5b600080fd5b600080fd5b600080fd5b6000601f19601f8301169050919050565b7f54686520637573746f6d657220686173206e6f2070726f6475637420746f207260008201527f6566756e64000000000000000000000000000000000000000000000000000000602082015250565b7f4f776e61626c653a206e6577206f776e657220697320746865207a65726f206160008201527f6464726573730000000000000000000000000000000000000000000000000000602082015250565b7f50686f6e65206973206e6f742072656769737465726564000000000000000000600082015250565b7f4f776e61626c653a2063616c6c6572206973206e6f7420746865206f776e6572600082015250565b7f426c6f636b656420637573746f6d657200000000000000000000000000000000600082015250565b600281106118b5576118b46116aa565b5b50565b6118c18161155c565b81146118cc57600080fd5b50565b6118d8816115ad565b81146118e357600080fd5b50565b6118ef816115b7565b81146118fa57600080fd5b5056fea2646970667358221220e73ee164cb523deea72d98209e0d1494fe5ce22e11e398542ad2464cc448313b64736f6c63430008060033",
  "immutableReferences": {},
  "source": "// SPDX-License-Identifier: MIT\npragma solidity ^0.8.6;\n\nimport \"@openzeppelin/contracts/access/Ownable.sol\";\n\ncontract Billing is Ownable {\n    enum CustomerStatus {\n        Active,\n        Closed\n    }\n\n    enum HistoryStatus {\n        Active,\n        Closed\n    }\n\n    struct History {\n        string ref;\n        uint acceptanceTimestamp;\n        uint paidTimestamp;\n        HistoryStatus status;\n        uint256 idOffer; // Pas mieux d'avoir juste l'ID du produit du coup ? ya tout dedans\n        uint256 idProposal;\n    }\n\n    struct Customer {\n        CustomerStatus status;\n        uint8 score;\n        History[] history;\n    }\n\n    event ScoreChange(address phoneHash, uint8 score);\n    event CustomerIsDeleted(address phoneHash);\n    event AcceptanceReceived(address phoneHash, string ref, uint acceptanceTimestamp, uint256 idOffer, uint256 idProposal);\n    event Confirmation(address phoneHash, string ref, uint acceptanceTimestamp, uint256 idOffer, uint256 idProposal);\n    event TopUpReceived(address phoneHash, string ref);\n    event Acknowledge(address phoneHash, string ref);   \n\n    mapping(address => Customer) public customers;\n\n    modifier activeCustomer(address _phoneHash) {\n        require(customers[_phoneHash].status == CustomerStatus.Active, \"Blocked customer\");\n        _;\n    }\n\n    constructor() {}\n\n    function isActiveCustomer(address _phoneHash) public view returns(bool) {\n        return (customers[_phoneHash].status == CustomerStatus.Active ? true : false);\n    }\n\n    function changeScore(address _phoneHash, uint8 _score) public onlyOwner {\n        customers[_phoneHash].score = _score;\n        emit ScoreChange(_phoneHash, customers[_phoneHash].score);\n    }\n\n    function topUpBilling(address _phoneHash, uint _paidTimestamp) public onlyOwner activeCustomer(_phoneHash) {\n        uint index = customers[_phoneHash].history.length - 1;\n        require(customers[_phoneHash].history.length > 0, \"Phone is not registered\");\n        require(customers[_phoneHash].history[index].status == HistoryStatus.Active, \"The customer has no product to refund\");\n\n        emit TopUpReceived(_phoneHash, customers[_phoneHash].history[index].ref);\n        customers[_phoneHash].history[index].paidTimestamp = _paidTimestamp;\n        customers[_phoneHash].history[index].status = HistoryStatus.Closed;\n        if(customers[_phoneHash].score == 0) { // On mettra ca ailleur\n            customers[_phoneHash].status = CustomerStatus.Closed;\n            emit CustomerIsDeleted(_phoneHash);\n        }\n        emit Acknowledge(_phoneHash, customers[_phoneHash].history[index].ref);\n    }\n\n    function acceptance(address _phoneHash, string memory _ref, uint _acceptanceTimestamp, uint256 idOffer, uint256 idProposal) public activeCustomer(_phoneHash) {\n        emit AcceptanceReceived(_phoneHash, _ref, _acceptanceTimestamp, idOffer, idProposal);\n        customers[_phoneHash].history.push(History( _ref, _acceptanceTimestamp, 0, HistoryStatus.Active, idOffer, idProposal));\n        emit Confirmation(_phoneHash, _ref, _acceptanceTimestamp, idOffer, idProposal);\n     }\n}",
  "sourcePath": "/home/keymon/work/projet-pro/dApp/timelapse/contracts/Billing.sol",
  "compiler": {
    "name": "solc",
    "version": "0.8.6+commit.11564f7e.Emscripten.clang"
  },
  "schemaVersion": "3.4.1",
  "updatedAt": "2021-07-13T21:24:59.094Z",
  "devdoc": {
    "kind": "dev",
    "methods": {
      "owner()": {
        "details": "Returns the address of the current owner."
      },
      "renounceOwnership()": {
        "details": "Leaves the contract without owner. It will not be possible to call `onlyOwner` functions anymore. Can only be called by the current owner. NOTE: Renouncing ownership will leave the contract without an owner, thereby removing any functionality that is only available to the owner."
      },
      "transferOwnership(address)": {
        "details": "Transfers ownership of the contract to a new account (`newOwner`). Can only be called by the current owner."
      }
    },
    "version": 1
  },
  "userdoc": {
    "kind": "user",
    "methods": {},
    "version": 1
  }
}