{
  "contractName": "Billing",
  "abi": [
    {
      "inputs": [],
      "stateMutability": "nonpayable",
      "type": "constructor"
    },
    {
      "anonymous": false,
      "inputs": [
        {
          "indexed": false,
          "internalType": "address",
          "name": "phoneHash",
          "type": "address"
        },
        {
          "indexed": false,
          "internalType": "string",
          "name": "ref",
          "type": "string"
        },
        {
          "indexed": false,
          "internalType": "uint256",
          "name": "acceptanceTimestamp",
          "type": "uint256"
        },
        {
          "indexed": false,
          "internalType": "uint256",
          "name": "idProduct",
          "type": "uint256"
        }
      ],
      "name": "AcceptanceReceived",
      "type": "event"
    },
    {
      "anonymous": false,
      "inputs": [
        {
          "indexed": false,
          "internalType": "address",
          "name": "phoneHash",
          "type": "address"
        },
        {
          "indexed": false,
          "internalType": "string",
          "name": "ref",
          "type": "string"
        }
      ],
      "name": "Acknowledge",
      "type": "event"
    },
    {
      "anonymous": false,
      "inputs": [
        {
          "indexed": false,
          "internalType": "address",
          "name": "phoneHash",
          "type": "address"
        },
        {
          "indexed": false,
          "internalType": "string",
          "name": "ref",
          "type": "string"
        },
        {
          "indexed": false,
          "internalType": "uint256",
          "name": "acceptanceTimestamp",
          "type": "uint256"
        },
        {
          "indexed": false,
          "internalType": "uint256",
          "name": "idProduct",
          "type": "uint256"
        }
      ],
      "name": "Confirmation",
      "type": "event"
    },
    {
      "anonymous": false,
      "inputs": [
        {
          "indexed": false,
          "internalType": "address",
          "name": "phoneHash",
          "type": "address"
        }
      ],
      "name": "CustomerIsDeleted",
      "type": "event"
    },
    {
      "anonymous": false,
      "inputs": [
        {
          "indexed": true,
          "internalType": "address",
          "name": "previousOwner",
          "type": "address"
        },
        {
          "indexed": true,
          "internalType": "address",
          "name": "newOwner",
          "type": "address"
        }
      ],
      "name": "OwnershipTransferred",
      "type": "event"
    },
    {
      "anonymous": false,
      "inputs": [
        {
          "indexed": false,
          "internalType": "address",
          "name": "phoneHash",
          "type": "address"
        },
        {
          "indexed": false,
          "internalType": "uint8",
          "name": "score",
          "type": "uint8"
        }
      ],
      "name": "ScoreChange",
      "type": "event"
    },
    {
      "anonymous": false,
      "inputs": [
        {
          "indexed": false,
          "internalType": "address",
          "name": "phoneHash",
          "type": "address"
        },
        {
          "indexed": false,
          "internalType": "string",
          "name": "ref",
          "type": "string"
        }
      ],
      "name": "TopUpReceived",
      "type": "event"
    },
    {
      "inputs": [
        {
          "internalType": "address",
          "name": "",
          "type": "address"
        }
      ],
      "name": "customers",
      "outputs": [
        {
          "internalType": "enum Billing.CustomerStatus",
          "name": "status",
          "type": "uint8"
        },
        {
          "internalType": "uint8",
          "name": "score",
          "type": "uint8"
        },
        {
          "internalType": "uint256",
          "name": "nbTopUp",
          "type": "uint256"
        },
        {
          "internalType": "uint256",
          "name": "amount",
          "type": "uint256"
        },
        {
          "internalType": "uint256",
          "name": "firstTopUp",
          "type": "uint256"
        }
      ],
      "stateMutability": "view",
      "type": "function"
    },
    {
      "inputs": [],
      "name": "owner",
      "outputs": [
        {
          "internalType": "address",
          "name": "",
          "type": "address"
        }
      ],
      "stateMutability": "view",
      "type": "function"
    },
    {
      "inputs": [],
      "name": "renounceOwnership",
      "outputs": [],
      "stateMutability": "nonpayable",
      "type": "function"
    },
    {
      "inputs": [
        {
          "internalType": "address",
          "name": "newOwner",
          "type": "address"
        }
      ],
      "name": "transferOwnership",
      "outputs": [],
      "stateMutability": "nonpayable",
      "type": "function"
    },
    {
      "inputs": [
        {
          "internalType": "address",
          "name": "_phoneHash",
          "type": "address"
        }
      ],
      "name": "isActiveCustomer",
      "outputs": [
        {
          "internalType": "bool",
          "name": "",
          "type": "bool"
        }
      ],
      "stateMutability": "view",
      "type": "function"
    },
    {
      "inputs": [
        {
          "internalType": "address",
          "name": "_phoneHash",
          "type": "address"
        },
        {
          "internalType": "uint8",
          "name": "_score",
          "type": "uint8"
        }
      ],
      "name": "changeScore",
      "outputs": [],
      "stateMutability": "nonpayable",
      "type": "function"
    },
    {
      "inputs": [
        {
          "internalType": "address",
          "name": "_phoneHash",
          "type": "address"
        },
        {
          "internalType": "uint256",
          "name": "_paidTimestamp",
          "type": "uint256"
        }
      ],
      "name": "topUpBilling",
      "outputs": [],
      "stateMutability": "nonpayable",
      "type": "function"
    },
    {
      "inputs": [
        {
          "internalType": "address",
          "name": "_phoneHash",
          "type": "address"
        },
        {
          "internalType": "string",
          "name": "_ref",
          "type": "string"
        },
        {
          "internalType": "uint256",
          "name": "_acceptanceTimestamp",
          "type": "uint256"
        },
        {
          "internalType": "uint256",
          "name": "_idProduct",
          "type": "uint256"
        }
      ],
      "name": "acceptanceBilling",
      "outputs": [],
      "stateMutability": "nonpayable",
      "type": "function"
    }
  ],
  "bytecode": "0x608060405234801561001057600080fd5b5061002d61002261003260201b60201c565b61003a60201b60201c565b6100fe565b600033905090565b60008060009054906101000a900473ffffffffffffffffffffffffffffffffffffffff169050816000806101000a81548173ffffffffffffffffffffffffffffffffffffffff021916908373ffffffffffffffffffffffffffffffffffffffff1602179055508173ffffffffffffffffffffffffffffffffffffffff168173ffffffffffffffffffffffffffffffffffffffff167f8be0079c531659141344cd1fd0a4f28419497f9722a3daafe3b4186f6b6457e060405160405180910390a35050565b61193b8061010d6000396000f3fe608060405234801561001057600080fd5b50600436106100885760003560e01c80637a67e6cc1161005b5780637a67e6cc146101035780638da5cb5b1461011f5780639ef91d911461013d578063f2fde38b1461016d57610088565b8063336989ae1461008d5780633ef3e0cb146100c157806345df7779146100dd578063715018a6146100f9575b600080fd5b6100a760048036038101906100a29190610ff8565b610189565b6040516100b89594939291906113b6565b60405180910390f35b6100db60048036038101906100d691906110e8565b6101d9565b005b6100f760048036038101906100f291906110a8565b61033c565b005b610101610959565b005b61011d60048036038101906101189190611025565b6109e1565b005b610127610c2c565b60405161013491906112db565b60405180910390f35b61015760048036038101906101529190610ff8565b610c55565b604051610164919061139b565b60405180910390f35b61018760048036038101906101829190610ff8565b610ce2565b005b60016020528060005260406000206000915090508060000160009054906101000a900460ff16908060000160019054906101000a900460ff16908060010154908060020154908060030154905085565b6101e1610dda565b73ffffffffffffffffffffffffffffffffffffffff166101ff610c2c565b73ffffffffffffffffffffffffffffffffffffffff1614610255576040517f08c379a000000000000000000000000000000000000000000000000000000000815260040161024c90611469565b60405180910390fd5b80600160008473ffffffffffffffffffffffffffffffffffffffff1673ffffffffffffffffffffffffffffffffffffffff16815260200190815260200160002060000160016101000a81548160ff021916908360ff1602179055507f67300a8a7a64e6ba305144189169d4bf615482b42e8fd241a6c5fc20879374a782600160008573ffffffffffffffffffffffffffffffffffffffff1673ffffffffffffffffffffffffffffffffffffffff16815260200190815260200160002060000160019054906101000a900460ff16604051610330929190611372565b60405180910390a15050565b610344610dda565b73ffffffffffffffffffffffffffffffffffffffff16610362610c2c565b73ffffffffffffffffffffffffffffffffffffffff16146103b8576040517f08c379a00000000000000000000000000000000000000000000000000000000081526004016103af90611469565b60405180910390fd5b81600060018111156103cd576103cc6116b2565b5b600160008373ffffffffffffffffffffffffffffffffffffffff1673ffffffffffffffffffffffffffffffffffffffff16815260200190815260200160002060000160009054906101000a900460ff16600181111561042f5761042e6116b2565b5b1461046f576040517f08c379a000000000000000000000000000000000000000000000000000000000815260040161046690611489565b60405180910390fd5b600060018060008673ffffffffffffffffffffffffffffffffffffffff1673ffffffffffffffffffffffffffffffffffffffff168152602001908152602001600020600401805490506104c29190611530565b90506000600160008673ffffffffffffffffffffffffffffffffffffffff1673ffffffffffffffffffffffffffffffffffffffff168152602001908152602001600020600401805490501161054c576040517f08c379a000000000000000000000000000000000000000000000000000000000815260040161054390611449565b60405180910390fd5b600060018111156105605761055f6116b2565b5b600160008673ffffffffffffffffffffffffffffffffffffffff1673ffffffffffffffffffffffffffffffffffffffff16815260200190815260200160002060040182815481106105b4576105b3611710565b5b906000526020600020906005020160030160009054906101000a900460ff1660018111156105e5576105e46116b2565b5b14610625576040517f08c379a000000000000000000000000000000000000000000000000000000000815260040161061c90611409565b60405180910390fd5b7fa3a756c9361873f5cd34cb71ba3b6ebc76b90321aa2767387c016991dfb4f63a84600160008773ffffffffffffffffffffffffffffffffffffffff1673ffffffffffffffffffffffffffffffffffffffff168152602001908152602001600020600401838154811061069b5761069a611710565b5b90600052602060002090600502016000016040516106ba929190611342565b60405180910390a182600160008673ffffffffffffffffffffffffffffffffffffffff1673ffffffffffffffffffffffffffffffffffffffff168152602001908152602001600020600401828154811061071757610716611710565b5b90600052602060002090600502016002018190555060018060008673ffffffffffffffffffffffffffffffffffffffff1673ffffffffffffffffffffffffffffffffffffffff168152602001908152602001600020600401828154811061078157610780611710565b5b906000526020600020906005020160030160006101000a81548160ff021916908360018111156107b4576107b36116b2565b5b02179055506000600160008673ffffffffffffffffffffffffffffffffffffffff1673ffffffffffffffffffffffffffffffffffffffff16815260200190815260200160002060000160019054906101000a900460ff1660ff1614156108b65760018060008673ffffffffffffffffffffffffffffffffffffffff1673ffffffffffffffffffffffffffffffffffffffff16815260200190815260200160002060000160006101000a81548160ff02191690836001811115610879576108786116b2565b5b02179055507f1eacdda6365a7f824e9b515212eda6b8fb050f25bc505f857ac21c025a64e6f1846040516108ad91906112db565b60405180910390a15b7fd3866d48a40f2de06c735e96a984d47ce6783b334002603c31e3f4bc05bd51c584600160008773ffffffffffffffffffffffffffffffffffffffff1673ffffffffffffffffffffffffffffffffffffffff168152602001908152602001600020600401838154811061092c5761092b611710565b5b906000526020600020906005020160000160405161094b929190611342565b60405180910390a150505050565b610961610dda565b73ffffffffffffffffffffffffffffffffffffffff1661097f610c2c565b73ffffffffffffffffffffffffffffffffffffffff16146109d5576040517f08c379a00000000000000000000000000000000000000000000000000000000081526004016109cc90611469565b60405180910390fd5b6109df6000610de2565b565b83600060018111156109f6576109f56116b2565b5b600160008373ffffffffffffffffffffffffffffffffffffffff1673ffffffffffffffffffffffffffffffffffffffff16815260200190815260200160002060000160009054906101000a900460ff166001811115610a5857610a576116b2565b5b14610a98576040517f08c379a0000000000000000000000000000000000000000000000000000000008152600401610a8f90611489565b60405180910390fd5b7f031870b979bdc77dc0b1037a1aac37c55a178ab3bec4f8ba1ca1fc452e30578b85858585604051610acd94939291906112f6565b60405180910390a1600160008673ffffffffffffffffffffffffffffffffffffffff1673ffffffffffffffffffffffffffffffffffffffff1681526020019081526020016000206004016040518060a001604052808681526020018581526020016000815260200160006001811115610b4957610b486116b2565b5b81526020018481525090806001815401808255809150506001900390600052602060002090600502016000909190919091506000820151816000019080519060200190610b97929190610ea6565b50602082015181600101556040820151816002015560608201518160030160006101000a81548160ff02191690836001811115610bd757610bd66116b2565b5b02179055506080820151816004015550507f52420d39a0f366bd8078120494fcd7ffb3971e79291fa625dd9de26e8560752485858585604051610c1d94939291906112f6565b60405180910390a15050505050565b60008060009054906101000a900473ffffffffffffffffffffffffffffffffffffffff16905090565b6000806001811115610c6a57610c696116b2565b5b600160008473ffffffffffffffffffffffffffffffffffffffff1673ffffffffffffffffffffffffffffffffffffffff16815260200190815260200160002060000160009054906101000a900460ff166001811115610ccc57610ccb6116b2565b5b14610cd8576000610cdb565b60015b9050919050565b610cea610dda565b73ffffffffffffffffffffffffffffffffffffffff16610d08610c2c565b73ffffffffffffffffffffffffffffffffffffffff1614610d5e576040517f08c379a0000000000000000000000000000000000000000000000000000000008152600401610d5590611469565b60405180910390fd5b600073ffffffffffffffffffffffffffffffffffffffff168173ffffffffffffffffffffffffffffffffffffffff161415610dce576040517f08c379a0000000000000000000000000000000000000000000000000000000008152600401610dc590611429565b60405180910390fd5b610dd781610de2565b50565b600033905090565b60008060009054906101000a900473ffffffffffffffffffffffffffffffffffffffff169050816000806101000a81548173ffffffffffffffffffffffffffffffffffffffff021916908373ffffffffffffffffffffffffffffffffffffffff1602179055508173ffffffffffffffffffffffffffffffffffffffff168173ffffffffffffffffffffffffffffffffffffffff167f8be0079c531659141344cd1fd0a4f28419497f9722a3daafe3b4186f6b6457e060405160405180910390a35050565b828054610eb290611620565b90600052602060002090601f016020900481019282610ed45760008555610f1b565b82601f10610eed57805160ff1916838001178555610f1b565b82800160010185558215610f1b579182015b82811115610f1a578251825591602001919060010190610eff565b5b509050610f289190610f2c565b5090565b5b80821115610f45576000816000905550600101610f2d565b5090565b6000610f5c610f57846114ce565b6114a9565b905082815260208101848484011115610f7857610f77611773565b5b610f838482856115de565b509392505050565b600081359050610f9a816118c0565b92915050565b600082601f830112610fb557610fb461176e565b5b8135610fc5848260208601610f49565b91505092915050565b600081359050610fdd816118d7565b92915050565b600081359050610ff2816118ee565b92915050565b60006020828403121561100e5761100d61177d565b5b600061101c84828501610f8b565b91505092915050565b6000806000806080858703121561103f5761103e61177d565b5b600061104d87828801610f8b565b945050602085013567ffffffffffffffff81111561106e5761106d611778565b5b61107a87828801610fa0565b935050604061108b87828801610fce565b925050606061109c87828801610fce565b91505092959194509250565b600080604083850312156110bf576110be61177d565b5b60006110cd85828601610f8b565b92505060206110de85828601610fce565b9150509250929050565b600080604083850312156110ff576110fe61177d565b5b600061110d85828601610f8b565b925050602061111e85828601610fe3565b9150509250929050565b61113181611564565b82525050565b61114081611576565b82525050565b61114f816115cc565b82525050565b600061116082611514565b61116a818561151f565b935061117a8185602086016115ed565b61118381611782565b840191505092915050565b6000815461119b81611620565b6111a5818661151f565b945060018216600081146111c057600181146111d257611205565b60ff1983168652602086019350611205565b6111db856114ff565b60005b838110156111fd578154818901526001820191506020810190506111de565b808801955050505b50505092915050565b600061121b60258361151f565b915061122682611793565b604082019050919050565b600061123e60268361151f565b9150611249826117e2565b604082019050919050565b600061126160178361151f565b915061126c82611831565b602082019050919050565b600061128460208361151f565b915061128f8261185a565b602082019050919050565b60006112a760108361151f565b91506112b282611883565b602082019050919050565b6112c6816115b5565b82525050565b6112d5816115bf565b82525050565b60006020820190506112f06000830184611128565b92915050565b600060808201905061130b6000830187611128565b818103602083015261131d8186611155565b905061132c60408301856112bd565b61133960608301846112bd565b95945050505050565b60006040820190506113576000830185611128565b8181036020830152611369818461118e565b90509392505050565b60006040820190506113876000830185611128565b61139460208301846112cc565b9392505050565b60006020820190506113b06000830184611137565b92915050565b600060a0820190506113cb6000830188611146565b6113d860208301876112cc565b6113e560408301866112bd565b6113f260608301856112bd565b6113ff60808301846112bd565b9695505050505050565b600060208201905081810360008301526114228161120e565b9050919050565b6000602082019050818103600083015261144281611231565b9050919050565b6000602082019050818103600083015261146281611254565b9050919050565b6000602082019050818103600083015261148281611277565b9050919050565b600060208201905081810360008301526114a28161129a565b9050919050565b60006114b36114c4565b90506114bf8282611652565b919050565b6000604051905090565b600067ffffffffffffffff8211156114e9576114e861173f565b5b6114f282611782565b9050602081019050919050565b60008190508160005260206000209050919050565b600081519050919050565b600082825260208201905092915050565b600061153b826115b5565b9150611546836115b5565b92508282101561155957611558611683565b5b828203905092915050565b600061156f82611595565b9050919050565b60008115159050919050565b6000819050611590826118ac565b919050565b600073ffffffffffffffffffffffffffffffffffffffff82169050919050565b6000819050919050565b600060ff82169050919050565b60006115d782611582565b9050919050565b82818337600083830152505050565b60005b8381101561160b5780820151818401526020810190506115f0565b8381111561161a576000848401525b50505050565b6000600282049050600182168061163857607f821691505b6020821081141561164c5761164b6116e1565b5b50919050565b61165b82611782565b810181811067ffffffffffffffff8211171561167a5761167961173f565b5b80604052505050565b7f4e487b7100000000000000000000000000000000000000000000000000000000600052601160045260246000fd5b7f4e487b7100000000000000000000000000000000000000000000000000000000600052602160045260246000fd5b7f4e487b7100000000000000000000000000000000000000000000000000000000600052602260045260246000fd5b7f4e487b7100000000000000000000000000000000000000000000000000000000600052603260045260246000fd5b7f4e487b7100000000000000000000000000000000000000000000000000000000600052604160045260246000fd5b600080fd5b600080fd5b600080fd5b600080fd5b6000601f19601f8301169050919050565b7f54686520637573746f6d657220686173206e6f2070726f6475637420746f207260008201527f6566756e64000000000000000000000000000000000000000000000000000000602082015250565b7f4f776e61626c653a206e6577206f776e657220697320746865207a65726f206160008201527f6464726573730000000000000000000000000000000000000000000000000000602082015250565b7f50686f6e65206973206e6f742072656769737465726564000000000000000000600082015250565b7f4f776e61626c653a2063616c6c6572206973206e6f7420746865206f776e6572600082015250565b7f426c6f636b656420637573746f6d657200000000000000000000000000000000600082015250565b600281106118bd576118bc6116b2565b5b50565b6118c981611564565b81146118d457600080fd5b50565b6118e0816115b5565b81146118eb57600080fd5b50565b6118f7816115bf565b811461190257600080fd5b5056fea2646970667358221220fec73f5256c9d19be6e03e2c31fb7f7e34fa6f6200d6d0c999ec5463166c073164736f6c63430008060033",
  "immutableReferences": {},
  "source": "// SPDX-License-Identifier: MIT\npragma solidity ^0.8.6;\n\nimport \"@openzeppelin/contracts/access/Ownable.sol\";\n\n/**\n * @title This Smart Contract is responsible of the Billing.\n * @notice Manage all aspects related to billing (customers, accounting and billing management)\n * @author Keeymon, DavidRochus\n */\ncontract Billing is Ownable {\n    /**\n     * @dev Customer status\n     */\n    enum CustomerStatus {\n        Active,\n        Closed\n    }\n\n    /**\n     * @dev History status\n     */\n    enum HistoryStatus {\n        Active,\n        Closed\n    }\n\n    /**\n     * @dev Customer product history\n     */\n    struct History {\n        string ref;\n        uint acceptanceTimestamp;\n        uint paidTimestamp;\n        HistoryStatus status;\n        uint256 idProduct; // Pas mieux d'avoir juste l'ID du produit du coup ? ya tout dedans\n    }\n\n    /**\n     * @dev Customer information\n     */\n    struct Customer {\n        CustomerStatus status;\n        uint8 score;\n        uint256 nbTopUp;\n        uint256 amount;\n        uint firstTopUp;\n        History[] history;\n    }\n\n    /**\n     * @dev Triggered when score of a customer has changed \n     */\n    event ScoreChange(address phoneHash, uint8 score);\n    /**\n     * @dev Triggered when a customer has been deleted\n     */\n    event CustomerIsDeleted(address phoneHash);\n    /**\n     * @dev Triggered when an Acceptance is received\n     */\n    event AcceptanceReceived(address phoneHash, string ref, uint acceptanceTimestamp, uint256 idProduct);\n    /**\n     * @dev Triggered when confirmation has to be sent\n     */\n    event Confirmation(address phoneHash, string ref, uint acceptanceTimestamp, uint256 idProduct);\n    /**\n     * @dev Triggered when a topUp is received\n     */\n    event TopUpReceived(address phoneHash, string ref);\n    /**\n     * @dev Triggered when an acknowledge has to be sent\n     */\n    event Acknowledge(address phoneHash, string ref);   \n\n    /**\n     * @dev Mapping to access customer information with a phoneHash\n     */\n    mapping(address => Customer) public customers;\n\n    /**\n     * @dev Check that the customer is still active\n     */\n    modifier activeCustomer(address _phoneHash) {\n        require(customers[_phoneHash].status == CustomerStatus.Active, \"Blocked customer\");\n        _;\n    }\n\n    /**\n     * @dev Smart Contract constructor\n     */\n    constructor() {}\n\n    /**\n      * @notice Inform if the customer is active\n      * @param _phoneHash The address that identifies to the customer\n      * @dev This function informs if the customer (identified with `_phoneHash`) is active\n      */\n    function isActiveCustomer(address _phoneHash) public view returns(bool) {\n        return (customers[_phoneHash].status == CustomerStatus.Active ? true : false);\n    }\n\n    /**\n      * @notice Change the score of a customer\n      * @param _phoneHash The address that identifies to the customer\n      * @dev This function informs if the customer (identified with `_phoneHash`) is active\n      */\n    function changeScore(address _phoneHash, uint8 _score) public onlyOwner {\n        customers[_phoneHash].score = _score;\n        emit ScoreChange(_phoneHash, customers[_phoneHash].score);\n    }\n\n    /**\n      * @notice TopUp the last product of a customer\n      * @param _phoneHash The address that identifies to the customer\n      * @param _paidTimestamp Timestamp of the acceptance\n      * @dev TopUp the last product of a customer (identified with `_phoneHash`) at timestamp `_paidTimestamp`\n      */\n    function topUpBilling(address _phoneHash, uint _paidTimestamp) public onlyOwner activeCustomer(_phoneHash) {\n        uint index = customers[_phoneHash].history.length - 1;\n        require(customers[_phoneHash].history.length > 0, \"Phone is not registered\");\n        require(customers[_phoneHash].history[index].status == HistoryStatus.Active, \"The customer has no product to refund\");\n\n        emit TopUpReceived(_phoneHash, customers[_phoneHash].history[index].ref);\n        customers[_phoneHash].history[index].paidTimestamp = _paidTimestamp;\n        customers[_phoneHash].history[index].status = HistoryStatus.Closed;\n        if(customers[_phoneHash].score == 0) { // On mettra ca ailleur\n            customers[_phoneHash].status = CustomerStatus.Closed;\n            emit CustomerIsDeleted(_phoneHash);\n        }\n        emit Acknowledge(_phoneHash, customers[_phoneHash].history[index].ref);\n    }\n\n    /**\n      * @notice Add an acceptance in the customer history\n      * @param _phoneHash The address that identifies to the customer\n      * @param _ref Reference of the telecom provider\n      * @param _acceptanceTimestamp Timestamp of the acceptance\n      * @param _idProduct ID of the product\n      * @dev Add a customer product history (using reference `_ref`, product `_idProduct`, timestamp `_acceptanceTimestamp`) for a customer (identified with `_phoneHash`)\n      */\n    function acceptanceBilling(address _phoneHash, string memory _ref, uint _acceptanceTimestamp, uint256 _idProduct) public activeCustomer(_phoneHash) {\n        emit AcceptanceReceived(_phoneHash, _ref, _acceptanceTimestamp, _idProduct);\n        customers[_phoneHash].history.push(History( _ref, _acceptanceTimestamp, 0, HistoryStatus.Active, _idProduct));\n        emit Confirmation(_phoneHash, _ref, _acceptanceTimestamp, _idProduct);\n     }\n}",
  "sourcePath": "/home/keymon/work/projet-pro/dApp/timelapse/contracts/Billing.sol",
  "compiler": {
    "name": "solc",
    "version": "0.8.6+commit.11564f7e.Emscripten.clang"
  },
  "schemaVersion": "3.4.1",
  "updatedAt": "2021-07-15T17:50:28.102Z",
  "devdoc": {
    "author": "Keeymon, DavidRochus",
    "events": {
      "AcceptanceReceived(address,string,uint256,uint256)": {
        "details": "Triggered when an Acceptance is received"
      },
      "Acknowledge(address,string)": {
        "details": "Triggered when an acknowledge has to be sent"
      },
      "Confirmation(address,string,uint256,uint256)": {
        "details": "Triggered when confirmation has to be sent"
      },
      "CustomerIsDeleted(address)": {
        "details": "Triggered when a customer has been deleted"
      },
      "ScoreChange(address,uint8)": {
        "details": "Triggered when score of a customer has changed "
      },
      "TopUpReceived(address,string)": {
        "details": "Triggered when a topUp is received"
      }
    },
    "kind": "dev",
    "methods": {
      "acceptanceBilling(address,string,uint256,uint256)": {
        "details": "Add a customer product history (using reference `_ref`, product `_idProduct`, timestamp `_acceptanceTimestamp`) for a customer (identified with `_phoneHash`)",
        "params": {
          "_acceptanceTimestamp": "Timestamp of the acceptance",
          "_idProduct": "ID of the product",
          "_phoneHash": "The address that identifies to the customer",
          "_ref": "Reference of the telecom provider"
        }
      },
      "changeScore(address,uint8)": {
        "details": "This function informs if the customer (identified with `_phoneHash`) is active",
        "params": {
          "_phoneHash": "The address that identifies to the customer"
        }
      },
      "constructor": {
        "details": "Smart Contract constructor"
      },
      "isActiveCustomer(address)": {
        "details": "This function informs if the customer (identified with `_phoneHash`) is active",
        "params": {
          "_phoneHash": "The address that identifies to the customer"
        }
      },
      "owner()": {
        "details": "Returns the address of the current owner."
      },
      "renounceOwnership()": {
        "details": "Leaves the contract without owner. It will not be possible to call `onlyOwner` functions anymore. Can only be called by the current owner. NOTE: Renouncing ownership will leave the contract without an owner, thereby removing any functionality that is only available to the owner."
      },
      "topUpBilling(address,uint256)": {
        "details": "TopUp the last product of a customer (identified with `_phoneHash`) at timestamp `_paidTimestamp`",
        "params": {
          "_paidTimestamp": "Timestamp of the acceptance",
          "_phoneHash": "The address that identifies to the customer"
        }
      },
      "transferOwnership(address)": {
        "details": "Transfers ownership of the contract to a new account (`newOwner`). Can only be called by the current owner."
      }
    },
    "stateVariables": {
      "customers": {
        "details": "Mapping to access customer information with a phoneHash"
      }
    },
    "title": "This Smart Contract is responsible of the Billing.",
    "version": 1
  },
  "userdoc": {
    "kind": "user",
    "methods": {
      "acceptanceBilling(address,string,uint256,uint256)": {
        "notice": "Add an acceptance in the customer history"
      },
      "changeScore(address,uint8)": {
        "notice": "Change the score of a customer"
      },
      "isActiveCustomer(address)": {
        "notice": "Inform if the customer is active"
      },
      "topUpBilling(address,uint256)": {
        "notice": "TopUp the last product of a customer"
      }
    },
    "notice": "Manage all aspects related to billing (customers, accounting and billing management)",
    "version": 1
  }
}