{
  "contractName": "Offering",
  "abi": [
    {
      "inputs": [],
      "stateMutability": "nonpayable",
      "type": "constructor"
    },
    {
      "anonymous": false,
      "inputs": [
        {
          "indexed": false,
          "internalType": "address",
          "name": "phoneHash",
          "type": "address"
        },
        {
          "indexed": false,
          "internalType": "uint256",
          "name": "offerId",
          "type": "uint256"
        },
        {
          "indexed": false,
          "internalType": "uint256",
          "name": "proposalId",
          "type": "uint256"
        }
      ],
      "name": "AcceptanceReceived",
      "type": "event"
    },
    {
      "anonymous": false,
      "inputs": [
        {
          "indexed": false,
          "internalType": "address",
          "name": "phoneHash",
          "type": "address"
        },
        {
          "indexed": false,
          "internalType": "uint256",
          "name": "productId",
          "type": "uint256"
        },
        {
          "indexed": false,
          "internalType": "uint256",
          "name": "amount",
          "type": "uint256"
        }
      ],
      "name": "AcknowledgeSent",
      "type": "event"
    },
    {
      "anonymous": false,
      "inputs": [
        {
          "indexed": false,
          "internalType": "uint256",
          "name": "productId",
          "type": "uint256"
        },
        {
          "indexed": false,
          "internalType": "uint256",
          "name": "offerId",
          "type": "uint256"
        },
        {
          "indexed": false,
          "internalType": "address",
          "name": "phoneHash",
          "type": "address"
        },
        {
          "indexed": false,
          "internalType": "uint256",
          "name": "timestamp",
          "type": "uint256"
        }
      ],
      "name": "ConfirmationSent",
      "type": "event"
    },
    {
      "anonymous": false,
      "inputs": [
        {
          "indexed": false,
          "internalType": "address",
          "name": "phoneHash",
          "type": "address"
        },
        {
          "indexed": false,
          "internalType": "string",
          "name": "ref",
          "type": "string"
        }
      ],
      "name": "LowBalanceReceived",
      "type": "event"
    },
    {
      "anonymous": false,
      "inputs": [
        {
          "indexed": false,
          "internalType": "uint256",
          "name": "offerId",
          "type": "uint256"
        },
        {
          "indexed": false,
          "internalType": "address",
          "name": "phoneHash",
          "type": "address"
        },
        {
          "indexed": false,
          "internalType": "uint256",
          "name": "timestamp",
          "type": "uint256"
        },
        {
          "indexed": false,
          "internalType": "enum Offering.EligibilityReason",
          "name": "reason",
          "type": "uint8"
        },
        {
          "indexed": false,
          "internalType": "uint256[]",
          "name": "proposals",
          "type": "uint256[]"
        },
        {
          "indexed": false,
          "internalType": "uint256",
          "name": "scoring",
          "type": "uint256"
        },
        {
          "indexed": false,
          "internalType": "string",
          "name": "ref",
          "type": "string"
        }
      ],
      "name": "OfferSent",
      "type": "event"
    },
    {
      "anonymous": false,
      "inputs": [
        {
          "indexed": true,
          "internalType": "address",
          "name": "previousOwner",
          "type": "address"
        },
        {
          "indexed": true,
          "internalType": "address",
          "name": "newOwner",
          "type": "address"
        }
      ],
      "name": "OwnershipTransferred",
      "type": "event"
    },
    {
      "anonymous": false,
      "inputs": [
        {
          "indexed": false,
          "internalType": "uint256",
          "name": "proposalId",
          "type": "uint256"
        },
        {
          "indexed": false,
          "internalType": "uint8",
          "name": "minScoring",
          "type": "uint8"
        },
        {
          "indexed": false,
          "internalType": "uint256",
          "name": "capital",
          "type": "uint256"
        },
        {
          "indexed": false,
          "internalType": "uint256",
          "name": "interest",
          "type": "uint256"
        },
        {
          "indexed": false,
          "internalType": "string",
          "name": "description",
          "type": "string"
        }
      ],
      "name": "ProposalAdded",
      "type": "event"
    },
    {
      "anonymous": false,
      "inputs": [
        {
          "indexed": false,
          "internalType": "address",
          "name": "phoneHash",
          "type": "address"
        },
        {
          "indexed": false,
          "internalType": "uint256",
          "name": "productId",
          "type": "uint256"
        },
        {
          "indexed": false,
          "internalType": "uint256",
          "name": "amount",
          "type": "uint256"
        }
      ],
      "name": "TopUpReceived",
      "type": "event"
    },
    {
      "inputs": [
        {
          "internalType": "uint256",
          "name": "",
          "type": "uint256"
        }
      ],
      "name": "offers",
      "outputs": [
        {
          "internalType": "address",
          "name": "phoneHash",
          "type": "address"
        },
        {
          "internalType": "uint256",
          "name": "timestamp",
          "type": "uint256"
        },
        {
          "internalType": "enum Offering.EligibilityReason",
          "name": "reason",
          "type": "uint8"
        },
        {
          "internalType": "enum Offering.OfferStatus",
          "name": "status",
          "type": "uint8"
        },
        {
          "internalType": "string",
          "name": "ref",
          "type": "string"
        }
      ],
      "stateMutability": "view",
      "type": "function"
    },
    {
      "inputs": [],
      "name": "owner",
      "outputs": [
        {
          "internalType": "address",
          "name": "",
          "type": "address"
        }
      ],
      "stateMutability": "view",
      "type": "function"
    },
    {
      "inputs": [
        {
          "internalType": "uint256",
          "name": "",
          "type": "uint256"
        }
      ],
      "name": "products",
      "outputs": [
        {
          "internalType": "address",
          "name": "phoneHash",
          "type": "address"
        },
        {
          "internalType": "uint256",
          "name": "timestamp",
          "type": "uint256"
        },
        {
          "internalType": "uint256",
          "name": "offerId",
          "type": "uint256"
        },
        {
          "internalType": "uint256",
          "name": "proposalId",
          "type": "uint256"
        },
        {
          "internalType": "uint256",
          "name": "topUpAmount",
          "type": "uint256"
        },
        {
          "internalType": "enum Offering.ProductStatus",
          "name": "status",
          "type": "uint8"
        }
      ],
      "stateMutability": "view",
      "type": "function"
    },
    {
      "inputs": [
        {
          "internalType": "uint256",
          "name": "",
          "type": "uint256"
        }
      ],
      "name": "proposals",
      "outputs": [
        {
          "internalType": "uint8",
          "name": "minScoring",
          "type": "uint8"
        },
        {
          "internalType": "uint256",
          "name": "capital",
          "type": "uint256"
        },
        {
          "internalType": "uint256",
          "name": "interest",
          "type": "uint256"
        },
        {
          "internalType": "uint256",
          "name": "validityPeriod",
          "type": "uint256"
        },
        {
          "internalType": "string",
          "name": "description",
          "type": "string"
        },
        {
          "internalType": "enum Offering.ProposalStatus",
          "name": "status",
          "type": "uint8"
        }
      ],
      "stateMutability": "view",
      "type": "function"
    },
    {
      "inputs": [],
      "name": "renounceOwnership",
      "outputs": [],
      "stateMutability": "nonpayable",
      "type": "function"
    },
    {
      "inputs": [
        {
          "internalType": "address",
          "name": "newOwner",
          "type": "address"
        }
      ],
      "name": "transferOwnership",
      "outputs": [],
      "stateMutability": "nonpayable",
      "type": "function"
    },
    {
      "inputs": [
        {
          "internalType": "uint8",
          "name": "_minScoring",
          "type": "uint8"
        },
        {
          "internalType": "uint256",
          "name": "_capital",
          "type": "uint256"
        },
        {
          "internalType": "uint256",
          "name": "_interest",
          "type": "uint256"
        },
        {
          "internalType": "string",
          "name": "_description",
          "type": "string"
        }
      ],
      "name": "addProposal",
      "outputs": [],
      "stateMutability": "nonpayable",
      "type": "function"
    },
    {
      "inputs": [
        {
          "internalType": "uint256",
          "name": "_id",
          "type": "uint256"
        }
      ],
      "name": "closedProposal",
      "outputs": [],
      "stateMutability": "nonpayable",
      "type": "function"
    },
    {
      "inputs": [],
      "name": "proposalsCount",
      "outputs": [
        {
          "internalType": "uint256",
          "name": "",
          "type": "uint256"
        }
      ],
      "stateMutability": "view",
      "type": "function"
    },
    {
      "inputs": [
        {
          "internalType": "address",
          "name": "_phoneHash",
          "type": "address"
        },
        {
          "internalType": "string",
          "name": "_ref",
          "type": "string"
        },
        {
          "internalType": "uint8",
          "name": "_score",
          "type": "uint8"
        }
      ],
      "name": "lowBalance",
      "outputs": [],
      "stateMutability": "nonpayable",
      "type": "function"
    },
    {
      "inputs": [
        {
          "internalType": "uint8",
          "name": "_scoring",
          "type": "uint8"
        }
      ],
      "name": "getOfferProposals",
      "outputs": [
        {
          "internalType": "uint256[]",
          "name": "",
          "type": "uint256[]"
        }
      ],
      "stateMutability": "view",
      "type": "function"
    },
    {
      "inputs": [
        {
          "internalType": "uint256",
          "name": "_previousScore",
          "type": "uint256"
        },
        {
          "internalType": "uint256",
          "name": "_acceptanceTimestamp",
          "type": "uint256"
        },
        {
          "internalType": "uint256",
          "name": "_paidTimestamp",
          "type": "uint256"
        }
      ],
      "name": "process",
      "outputs": [
        {
          "internalType": "uint8",
          "name": "",
          "type": "uint8"
        }
      ],
      "stateMutability": "view",
      "type": "function"
    },
    {
      "inputs": [],
      "name": "getUniqueId",
      "outputs": [
        {
          "internalType": "address",
          "name": "",
          "type": "address"
        }
      ],
      "stateMutability": "nonpayable",
      "type": "function"
    }
  ],
  "bytecode": "0x6080604052600060015534801561001557600080fd5b5061003261002761003760201b60201c565b61003f60201b60201c565b610103565b600033905090565b60008060009054906101000a900473ffffffffffffffffffffffffffffffffffffffff169050816000806101000a81548173ffffffffffffffffffffffffffffffffffffffff021916908373ffffffffffffffffffffffffffffffffffffffff1602179055508173ffffffffffffffffffffffffffffffffffffffff168173ffffffffffffffffffffffffffffffffffffffff167f8be0079c531659141344cd1fd0a4f28419497f9722a3daafe3b4186f6b6457e060405160405180910390a35050565b611d78806101126000396000f3fe608060405234801561001057600080fd5b50600436106100cf5760003560e01c80637acc0b201161008c5780638da5cb5b116100665780638da5cb5b14610232578063ab63d7f214610250578063bdcf208c1461026e578063f2fde38b1461028a576100cf565b80637acc0b20146101995780637c99f6a6146101ce5780638a72ea6a146101fe576100cf565b8063013cf08b146100d45780630a9f46ad1461010957806346747b381461012757806347466dc3146101575780635a7529df14610173578063715018a61461018f575b600080fd5b6100ee60048036038101906100e991906111ce565b6102a6565b6040516101009695949392919061179d565b60405180910390f35b610111610394565b60405161011e9190611690565b60405180910390f35b610141600480360381019061013c919061124e565b6103a1565b60405161014e919061160e565b60405180910390f35b610171600480360381019061016c91906111ce565b610519565b005b61018d6004803603810190610188919061115f565b61062f565b005b610197610880565b005b6101b360048036038101906101ae91906111ce565b610908565b6040516101c5969594939291906115ad565b60405180910390f35b6101e860048036038101906101e391906111fb565b610981565b6040516101f59190611782565b60405180910390f35b610218600480360381019061021391906111ce565b61098f565b604051610229959493929190611553565b60405180910390f35b61023a610a97565b6040516102479190611508565b60405180910390f35b610258610ac0565b6040516102659190611508565b60405180910390f35b6102886004803603810190610283919061127b565b610b0f565b005b6102a4600480360381019061029f9190611132565b610d14565b005b600381815481106102b657600080fd5b90600052602060002090600602016000915090508060000160009054906101000a900460ff16908060010154908060020154908060030154908060040180546102fe90611a15565b80601f016020809104026020016040519081016040528092919081815260200182805461032a90611a15565b80156103775780601f1061034c57610100808354040283529160200191610377565b820191906000526020600020905b81548152906001019060200180831161035a57829003601f168201915b5050505050908060050160009054906101000a900460ff16905086565b6000600380549050905090565b60606000600367ffffffffffffffff8111156103c0576103bf611bab565b5b6040519080825280602002602001820160405280156103ee5781602001602082028036833780820191505090505b5090506000808460ff161415610408578192505050610514565b6000600190505b600380549050811080156104235750600382105b1561050d576000600181111561043c5761043b611b1e565b5b600382815481106104505761044f611b7c565b5b906000526020600020906006020160050160009054906101000a900460ff16600181111561048157610480611b1e565b5b1480156104c657506003818154811061049d5761049c611b7c565b5b906000526020600020906006020160000160009054906101000a900460ff1660ff168560ff1610155b156104fa57808383815181106104df576104de611b7c565b5b60200260200101818152505081806104f690611a78565b9250505b808061050590611a78565b91505061040f565b5081925050505b919050565b610521610e0c565b73ffffffffffffffffffffffffffffffffffffffff1661053f610a97565b73ffffffffffffffffffffffffffffffffffffffff1614610595576040517f08c379a000000000000000000000000000000000000000000000000000000000815260040161058c90611670565b60405180910390fd5b8060038054905081106105dd576040517f08c379a00000000000000000000000000000000000000000000000000000000081526004016105d490611630565b60405180910390fd5b6001600383815481106105f3576105f2611b7c565b5b906000526020600020906006020160050160006101000a81548160ff0219169083600181111561062657610625611b1e565b5b02179055505050565b7f251fc0df7e56c36cfc4f618ef67296b8e2c41ce1ce473e5187bfec66743b38d38383604051610660929190611523565b60405180910390a1610670610ed8565b83816000019073ffffffffffffffffffffffffffffffffffffffff16908173ffffffffffffffffffffffffffffffffffffffff1681525050428160200181815250506000816080019060018111156106cb576106ca611b1e565b5b908160018111156106df576106de611b1e565b5b815250506106ec826103a1565b8160600181905250828160a00181905250600281908060018154018082558091505060019003906000526020600020906006020160009091909190915060008201518160000160006101000a81548173ffffffffffffffffffffffffffffffffffffffff021916908373ffffffffffffffffffffffffffffffffffffffff1602179055506020820151816001015560408201518160020160006101000a81548160ff021916908360048111156107a5576107a4611b1e565b5b021790555060608201518160030190805190602001906107c6929190610f48565b5060808201518160040160006101000a81548160ff021916908360018111156107f2576107f1611b1e565b5b021790555060a0820151816005019080519060200190610813929190610f95565b5050507f6a2d36566113fdc14dbc5b9458a0ba3a3eb54e394c2eb29fb26efdfee664f55e600160028054905061084991906118b0565b8260000151836020015184604001518560600151878960405161087297969594939291906116ab565b60405180910390a150505050565b610888610e0c565b73ffffffffffffffffffffffffffffffffffffffff166108a6610a97565b73ffffffffffffffffffffffffffffffffffffffff16146108fc576040517f08c379a00000000000000000000000000000000000000000000000000000000081526004016108f390611670565b60405180910390fd5b6109066000610e14565b565b6004818154811061091857600080fd5b90600052602060002090600602016000915090508060000160009054906101000a900473ffffffffffffffffffffffffffffffffffffffff16908060010154908060020154908060030154908060040154908060050160009054906101000a900460ff16905086565b600080809150509392505050565b6002818154811061099f57600080fd5b90600052602060002090600602016000915090508060000160009054906101000a900473ffffffffffffffffffffffffffffffffffffffff16908060010154908060020160009054906101000a900460ff16908060040160009054906101000a900460ff1690806005018054610a1490611a15565b80601f0160208091040260200160405190810160405280929190818152602001828054610a4090611a15565b8015610a8d5780601f10610a6257610100808354040283529160200191610a8d565b820191906000526020600020905b815481529060010190602001808311610a7057829003601f168201915b5050505050905085565b60008060009054906101000a900473ffffffffffffffffffffffffffffffffffffffff16905090565b600060016000815480929190610ad590611a78565b91905055504233600154604051602001610af1939291906114cb565b6040516020818303038152906040528051906020012060601c905090565b610b17610e0c565b73ffffffffffffffffffffffffffffffffffffffff16610b35610a97565b73ffffffffffffffffffffffffffffffffffffffff1614610b8b576040517f08c379a0000000000000000000000000000000000000000000000000000000008152600401610b8290611670565b60405180910390fd5b610b9361101b565b84816000019060ff16908160ff1681525050838160200181815250508281604001818152505081816080018190525060008160a001906001811115610bdb57610bda611b1e565b5b90816001811115610bef57610bee611b1e565b5b81525050600381908060018154018082558091505060019003906000526020600020906006020160009091909190915060008201518160000160006101000a81548160ff021916908360ff1602179055506020820151816001015560408201518160020155606082015181600301556080820151816004019080519060200190610c7a929190610f95565b5060a08201518160050160006101000a81548160ff02191690836001811115610ca657610ca5611b1e565b5b021790555050507f0dd92ec7c9e4620459d0f39f48975327d855d61513c1e839e5ae03d1ca7644726001600380549050610ce091906118b0565b8260000151836020015184604001518560800151604051610d05959493929190611728565b60405180910390a15050505050565b610d1c610e0c565b73ffffffffffffffffffffffffffffffffffffffff16610d3a610a97565b73ffffffffffffffffffffffffffffffffffffffff1614610d90576040517f08c379a0000000000000000000000000000000000000000000000000000000008152600401610d8790611670565b60405180910390fd5b600073ffffffffffffffffffffffffffffffffffffffff168173ffffffffffffffffffffffffffffffffffffffff161415610e00576040517f08c379a0000000000000000000000000000000000000000000000000000000008152600401610df790611650565b60405180910390fd5b610e0981610e14565b50565b600033905090565b60008060009054906101000a900473ffffffffffffffffffffffffffffffffffffffff169050816000806101000a81548173ffffffffffffffffffffffffffffffffffffffff021916908373ffffffffffffffffffffffffffffffffffffffff1602179055508173ffffffffffffffffffffffffffffffffffffffff168173ffffffffffffffffffffffffffffffffffffffff167f8be0079c531659141344cd1fd0a4f28419497f9722a3daafe3b4186f6b6457e060405160405180910390a35050565b6040518060c00160405280600073ffffffffffffffffffffffffffffffffffffffff1681526020016000815260200160006004811115610f1b57610f1a611b1e565b5b81526020016060815260200160006001811115610f3b57610f3a611b1e565b5b8152602001606081525090565b828054828255906000526020600020908101928215610f84579160200282015b82811115610f83578251825591602001919060010190610f68565b5b509050610f919190611066565b5090565b828054610fa190611a15565b90600052602060002090601f016020900481019282610fc3576000855561100a565b82601f10610fdc57805160ff191683800117855561100a565b8280016001018555821561100a579182015b82811115611009578251825591602001919060010190610fee565b5b5090506110179190611066565b5090565b6040518060c00160405280600060ff16815260200160008152602001600081526020016000815260200160608152602001600060018111156110605761105f611b1e565b5b81525090565b5b8082111561107f576000816000905550600101611067565b5090565b60006110966110918461182a565b611805565b9050828152602081018484840111156110b2576110b1611bdf565b5b6110bd8482856119d3565b509392505050565b6000813590506110d481611cfd565b92915050565b600082601f8301126110ef576110ee611bda565b5b81356110ff848260208601611083565b91505092915050565b60008135905061111781611d14565b92915050565b60008135905061112c81611d2b565b92915050565b60006020828403121561114857611147611be9565b5b6000611156848285016110c5565b91505092915050565b60008060006060848603121561117857611177611be9565b5b6000611186868287016110c5565b935050602084013567ffffffffffffffff8111156111a7576111a6611be4565b5b6111b3868287016110da565b92505060406111c48682870161111d565b9150509250925092565b6000602082840312156111e4576111e3611be9565b5b60006111f284828501611108565b91505092915050565b60008060006060848603121561121457611213611be9565b5b600061122286828701611108565b935050602061123386828701611108565b925050604061124486828701611108565b9150509250925092565b60006020828403121561126457611263611be9565b5b60006112728482850161111d565b91505092915050565b6000806000806080858703121561129557611294611be9565b5b60006112a38782880161111d565b94505060206112b487828801611108565b93505060406112c587828801611108565b925050606085013567ffffffffffffffff8111156112e6576112e5611be4565b5b6112f2878288016110da565b91505092959194509250565b600061130a8383611478565b60208301905092915050565b61131f816118e4565b82525050565b611336611331826118e4565b611ac1565b82525050565b60006113478261186b565b611351818561188e565b935061135c8361185b565b8060005b8381101561138d57815161137488826112fe565b975061137f83611881565b925050600181019050611360565b5085935050505092915050565b6113a381611979565b82525050565b6113b28161198b565b82525050565b6113c18161199d565b82525050565b6113d0816119af565b82525050565b60006113e182611876565b6113eb818561189f565b93506113fb8185602086016119e2565b61140481611bee565b840191505092915050565b600061141c60168361189f565b915061142782611c0c565b602082019050919050565b600061143f60268361189f565b915061144a82611c35565b604082019050919050565b600061146260208361189f565b915061146d82611c84565b602082019050919050565b61148181611962565b82525050565b61149081611962565b82525050565b6114a76114a282611962565b611ae5565b82525050565b6114b6816119c1565b82525050565b6114c58161196c565b82525050565b60006114d78286611496565b6020820191506114e78285611325565b6014820191506114f78284611496565b602082019150819050949350505050565b600060208201905061151d6000830184611316565b92915050565b60006040820190506115386000830185611316565b818103602083015261154a81846113d6565b90509392505050565b600060a0820190506115686000830188611316565b6115756020830187611487565b611582604083018661139a565b61158f60608301856113a9565b81810360808301526115a181846113d6565b90509695505050505050565b600060c0820190506115c26000830189611316565b6115cf6020830188611487565b6115dc6040830187611487565b6115e96060830186611487565b6115f66080830185611487565b61160360a08301846113b8565b979650505050505050565b60006020820190508181036000830152611628818461133c565b905092915050565b600060208201905081810360008301526116498161140f565b9050919050565b6000602082019050818103600083015261166981611432565b9050919050565b6000602082019050818103600083015261168981611455565b9050919050565b60006020820190506116a56000830184611487565b92915050565b600060e0820190506116c0600083018a611487565b6116cd6020830189611316565b6116da6040830188611487565b6116e7606083018761139a565b81810360808301526116f9818661133c565b905061170860a08301856114ad565b81810360c083015261171a81846113d6565b905098975050505050505050565b600060a08201905061173d6000830188611487565b61174a60208301876114bc565b6117576040830186611487565b6117646060830185611487565b818103608083015261177681846113d6565b90509695505050505050565b600060208201905061179760008301846114bc565b92915050565b600060c0820190506117b260008301896114bc565b6117bf6020830188611487565b6117cc6040830187611487565b6117d96060830186611487565b81810360808301526117eb81856113d6565b90506117fa60a08301846113c7565b979650505050505050565b600061180f611820565b905061181b8282611a47565b919050565b6000604051905090565b600067ffffffffffffffff82111561184557611844611bab565b5b61184e82611bee565b9050602081019050919050565b6000819050602082019050919050565b600081519050919050565b600081519050919050565b6000602082019050919050565b600082825260208201905092915050565b600082825260208201905092915050565b60006118bb82611962565b91506118c683611962565b9250828210156118d9576118d8611aef565b5b828203905092915050565b60006118ef82611942565b9050919050565b600081905061190482611cad565b919050565b600081905061191782611cc1565b919050565b600081905061192a82611cd5565b919050565b600081905061193d82611ce9565b919050565b600073ffffffffffffffffffffffffffffffffffffffff82169050919050565b6000819050919050565b600060ff82169050919050565b6000611984826118f6565b9050919050565b600061199682611909565b9050919050565b60006119a88261191c565b9050919050565b60006119ba8261192f565b9050919050565b60006119cc8261196c565b9050919050565b82818337600083830152505050565b60005b83811015611a005780820151818401526020810190506119e5565b83811115611a0f576000848401525b50505050565b60006002820490506001821680611a2d57607f821691505b60208210811415611a4157611a40611b4d565b5b50919050565b611a5082611bee565b810181811067ffffffffffffffff82111715611a6f57611a6e611bab565b5b80604052505050565b6000611a8382611962565b91507fffffffffffffffffffffffffffffffffffffffffffffffffffffffffffffffff821415611ab657611ab5611aef565b5b600182019050919050565b6000611acc82611ad3565b9050919050565b6000611ade82611bff565b9050919050565b6000819050919050565b7f4e487b7100000000000000000000000000000000000000000000000000000000600052601160045260246000fd5b7f4e487b7100000000000000000000000000000000000000000000000000000000600052602160045260246000fd5b7f4e487b7100000000000000000000000000000000000000000000000000000000600052602260045260246000fd5b7f4e487b7100000000000000000000000000000000000000000000000000000000600052603260045260246000fd5b7f4e487b7100000000000000000000000000000000000000000000000000000000600052604160045260246000fd5b600080fd5b600080fd5b600080fd5b600080fd5b6000601f19601f8301169050919050565b60008160601b9050919050565b7f50726f706f73616c20646f65736e277420657869737400000000000000000000600082015250565b7f4f776e61626c653a206e6577206f776e657220697320746865207a65726f206160008201527f6464726573730000000000000000000000000000000000000000000000000000602082015250565b7f4f776e61626c653a2063616c6c6572206973206e6f7420746865206f776e6572600082015250565b60058110611cbe57611cbd611b1e565b5b50565b60028110611cd257611cd1611b1e565b5b50565b60028110611ce657611ce5611b1e565b5b50565b60028110611cfa57611cf9611b1e565b5b50565b611d06816118e4565b8114611d1157600080fd5b50565b611d1d81611962565b8114611d2857600080fd5b50565b611d348161196c565b8114611d3f57600080fd5b5056fea2646970667358221220aed7766dd64c46efd57847e37c74f69c4bdf9364eecb30e93806abdc610c1cc564736f6c63430008060033",
  "immutableReferences": {},
  "source": "// SPDX-License-Identifier: MIT\npragma solidity ^0.8.6;\n\nimport \"@openzeppelin/contracts/access/Ownable.sol\";\n\ncontract Offering is Ownable {\n    uint256 private nonce = 0;\n\n    enum OfferStatus {\n        New,\n        Accepted\n    }\n\n    enum ProductStatus {\n        Active,\n        Closed\n    }\n\n    enum ProposalStatus {\n        Active,\n        Closed\n    }\n\n    enum EligibilityReason {\n        None,\n        UnknowUser,\n        LowUser,\n        DoubleSpent,\n        Other\n    }\n\n    struct Offer {\n        address phoneHash;\n        uint256 timestamp;\n        EligibilityReason reason;\n        uint256[] proposals;\n        OfferStatus status;\n        string ref;\n    }\n\n    struct Product {\n        address phoneHash;\n        uint256 timestamp;\n        uint256 offerId;\n        uint256 proposalId;\n        uint256 topUpAmount;\n        ProductStatus status;\n    }\n\n    struct Proposal {\n        uint8 minScoring;\n        uint256 capital;\n        uint256 interest;\n        uint256 validityPeriod;\n        string description;\n        ProposalStatus status;\n    }\n\n    Offer[] public offers;\n    Proposal[] public proposals;\n    Product[] public products;\n\n    event ProposalAdded(\n        uint256 proposalId,\n        uint8 minScoring,\n        uint256 capital,\n        uint256 interest,\n        string description\n    );\n    event LowBalanceReceived(address phoneHash, string ref);\n\n    event OfferSent(\n        uint256 offerId,\n        address phoneHash,\n        uint256 timestamp,\n        EligibilityReason reason,\n        uint256[] proposals,\n        uint256 scoring,\n        string ref\n    );\n\n    event AcceptanceReceived(\n        address phoneHash,\n        uint256 offerId,\n        uint256 proposalId\n    );\n\n    event ConfirmationSent(\n        uint256 productId,\n        uint256 offerId,\n        address phoneHash,\n        uint256 timestamp\n    );\n    \n    event TopUpReceived(address phoneHash, uint256 productId, uint256 amount);\n    event AcknowledgeSent(address phoneHash, uint256 productId, uint256 amount);\n\n    modifier existProposal(uint256 id) {\n        require(id < proposals.length, \"Proposal doesn't exist\");\n        _;\n    }\n\n    modifier existOffer(uint256 id) {\n        require(id < offers.length, \"Offer doesn't exist\");\n        _;\n    }\n\n    modifier existProduct(uint256 id) {\n        require(id < products.length, \"Product doesn't exist\");\n        _;\n    }\n\n    constructor() {}\n\n    function addProposal(\n        uint8 _minScoring,\n        uint256 _capital,\n        uint256 _interest,\n        string memory _description\n    ) public onlyOwner {\n        Proposal memory proposalData;\n\n        proposalData.minScoring = _minScoring;\n        proposalData.capital = _capital;\n        proposalData.interest = _interest;\n        proposalData.description = _description;\n        proposalData.status = ProposalStatus.Active;\n        proposals.push(proposalData);\n\n        emit ProposalAdded(\n            (proposals.length - 1),\n            proposalData.minScoring,\n            proposalData.capital,\n            proposalData.interest,\n            proposalData.description\n        );\n    }\n\n    function closedProposal(uint256 _id) public onlyOwner existProposal(_id) {\n        proposals[_id].status = ProposalStatus.Closed;\n    }\n\n    function proposalsCount() public view returns (uint256) {\n        return proposals.length;\n    }\n\n    function lowBalance(address _phoneHash, string memory _ref, uint8 _score) public {\n        emit LowBalanceReceived(_phoneHash, _ref);\n\n        //Register Offer\n        Offer memory offerData;\n        offerData.phoneHash = _phoneHash;\n        offerData.timestamp = block.timestamp;\n        offerData.status = OfferStatus.New;\n        offerData.proposals = getOfferProposals(_score);\n        offerData.ref = _ref;\n        offers.push(offerData);\n\n        emit OfferSent(\n            (offers.length - 1),\n            offerData.phoneHash,\n            offerData.timestamp,\n            offerData.reason,\n            offerData.proposals,\n            _score,\n            _ref\n        );\n    }\n\n/*\n    function eligibility(address _phoneHash)\n        public\n        pure\n        returns (uint8, EligibilityReason)\n    {\n        //TODO: Manage eligibility (scoring)\n        if (_phoneHash == 0x718CEA3706787aa03Bd936b76303fA00660C5f42) {\n            return (3, EligibilityReason.None);\n        } else if (_phoneHash == 0x3ad53d26D15A658A84Fe8cA9FFc8aA3a7240C1a0) {\n            return (6, EligibilityReason.None);\n        } else {\n            return (0, EligibilityReason.DoubleSpent);\n        }\n    }\n*/\n    function getOfferProposals(uint8 _scoring)\n        public\n        view\n        returns (uint256[] memory)\n    {\n        uint256[] memory offerProposals = new uint256[](3);\n        uint256 offerProposalsIndex = 0;\n\n        if (_scoring == 0) {\n            return offerProposals;\n        }\n        for (\n            uint256 i = 1;\n            (i < proposals.length && offerProposalsIndex < 3);\n            i++\n        ) {\n            if (\n                proposals[i].status == ProposalStatus.Active &&\n                _scoring >= proposals[i].minScoring\n            ) {\n                offerProposals[offerProposalsIndex] = i;\n                offerProposalsIndex++;\n            }\n        }\n        return offerProposals;\n    }\n\n    function process(uint _previousScore, uint _acceptanceTimestamp, uint _paidTimestamp) public view returns(uint8) {\n        uint8 score;\n        // mettre les calculs et la logique pour scorer correctement\n        return score;\n    }\n\n    function getUniqueId() public returns (address) {\n        nonce++;\n        return\n            address(\n                bytes20(\n                    keccak256(\n                        abi.encodePacked(block.timestamp, msg.sender, nonce)\n                    )\n                )\n            );\n    }\n}\n",
  "sourcePath": "/home/keymon/work/projet-pro/dApp/timelapse/contracts/Offering.sol",
  "compiler": {
    "name": "solc",
    "version": "0.8.6+commit.11564f7e.Emscripten.clang"
  },
  "schemaVersion": "3.4.1",
  "updatedAt": "2021-07-13T17:27:00.289Z",
  "devdoc": {
    "kind": "dev",
    "methods": {
      "owner()": {
        "details": "Returns the address of the current owner."
      },
      "renounceOwnership()": {
        "details": "Leaves the contract without owner. It will not be possible to call `onlyOwner` functions anymore. Can only be called by the current owner. NOTE: Renouncing ownership will leave the contract without an owner, thereby removing any functionality that is only available to the owner."
      },
      "transferOwnership(address)": {
        "details": "Transfers ownership of the contract to a new account (`newOwner`). Can only be called by the current owner."
      }
    },
    "version": 1
  },
  "userdoc": {
    "kind": "user",
    "methods": {},
    "version": 1
  }
}