{
  "contractName": "Offering",
  "abi": [
    {
      "inputs": [],
      "stateMutability": "nonpayable",
      "type": "constructor"
    },
    {
      "anonymous": false,
      "inputs": [
        {
          "indexed": false,
          "internalType": "address",
          "name": "phoneHash",
          "type": "address"
        },
        {
          "indexed": false,
          "internalType": "uint256",
          "name": "idOffer",
          "type": "uint256"
        },
        {
          "indexed": false,
          "internalType": "uint256",
          "name": "idProposal",
          "type": "uint256"
        }
      ],
      "name": "AcceptanceReceived",
      "type": "event"
    },
    {
      "anonymous": false,
      "inputs": [
        {
          "indexed": false,
          "internalType": "address",
          "name": "phoneHash",
          "type": "address"
        },
        {
          "indexed": false,
          "internalType": "uint256",
          "name": "productId",
          "type": "uint256"
        },
        {
          "indexed": false,
          "internalType": "uint256",
          "name": "amount",
          "type": "uint256"
        }
      ],
      "name": "AcknowledgeSent",
      "type": "event"
    },
    {
      "anonymous": false,
      "inputs": [
        {
          "indexed": false,
          "internalType": "uint256",
          "name": "productId",
          "type": "uint256"
        },
        {
          "indexed": false,
          "internalType": "uint256",
          "name": "idOffer",
          "type": "uint256"
        },
        {
          "indexed": false,
          "internalType": "address",
          "name": "phoneHash",
          "type": "address"
        },
        {
          "indexed": false,
          "internalType": "uint256",
          "name": "timestamp",
          "type": "uint256"
        }
      ],
      "name": "ConfirmationSent",
      "type": "event"
    },
    {
      "anonymous": false,
      "inputs": [
        {
          "indexed": false,
          "internalType": "address",
          "name": "phoneHash",
          "type": "address"
        },
        {
          "indexed": false,
          "internalType": "string",
          "name": "ref",
          "type": "string"
        }
      ],
      "name": "LowBalanceReceived",
      "type": "event"
    },
    {
      "anonymous": false,
      "inputs": [
        {
          "indexed": false,
          "internalType": "uint256",
          "name": "idOffer",
          "type": "uint256"
        },
        {
          "indexed": false,
          "internalType": "address",
          "name": "phoneHash",
          "type": "address"
        },
        {
          "indexed": false,
          "internalType": "uint256",
          "name": "timestamp",
          "type": "uint256"
        },
        {
          "indexed": false,
          "internalType": "enum Offering.EligibilityReason",
          "name": "reason",
          "type": "uint8"
        },
        {
          "indexed": false,
          "internalType": "uint256[]",
          "name": "proposals",
          "type": "uint256[]"
        },
        {
          "indexed": false,
          "internalType": "uint256",
          "name": "scoring",
          "type": "uint256"
        },
        {
          "indexed": false,
          "internalType": "string",
          "name": "ref",
          "type": "string"
        }
      ],
      "name": "OfferSent",
      "type": "event"
    },
    {
      "anonymous": false,
      "inputs": [
        {
          "indexed": true,
          "internalType": "address",
          "name": "previousOwner",
          "type": "address"
        },
        {
          "indexed": true,
          "internalType": "address",
          "name": "newOwner",
          "type": "address"
        }
      ],
      "name": "OwnershipTransferred",
      "type": "event"
    },
    {
      "anonymous": false,
      "inputs": [
        {
          "indexed": false,
          "internalType": "uint256",
          "name": "idProposal",
          "type": "uint256"
        },
        {
          "indexed": false,
          "internalType": "uint8",
          "name": "minScoring",
          "type": "uint8"
        },
        {
          "indexed": false,
          "internalType": "uint256",
          "name": "capital",
          "type": "uint256"
        },
        {
          "indexed": false,
          "internalType": "uint256",
          "name": "interest",
          "type": "uint256"
        },
        {
          "indexed": false,
          "internalType": "string",
          "name": "description",
          "type": "string"
        }
      ],
      "name": "ProposalAdded",
      "type": "event"
    },
    {
      "anonymous": false,
      "inputs": [
        {
          "indexed": false,
          "internalType": "address",
          "name": "phoneHash",
          "type": "address"
        },
        {
          "indexed": false,
          "internalType": "uint256",
          "name": "productId",
          "type": "uint256"
        },
        {
          "indexed": false,
          "internalType": "uint256",
          "name": "amount",
          "type": "uint256"
        }
      ],
      "name": "TopUpReceived",
      "type": "event"
    },
    {
      "inputs": [
        {
          "internalType": "uint256",
          "name": "",
          "type": "uint256"
        }
      ],
      "name": "offers",
      "outputs": [
        {
          "internalType": "address",
          "name": "phoneHash",
          "type": "address"
        },
        {
          "internalType": "uint256",
          "name": "timestamp",
          "type": "uint256"
        },
        {
          "internalType": "enum Offering.EligibilityReason",
          "name": "reason",
          "type": "uint8"
        },
        {
          "internalType": "enum Offering.OfferStatus",
          "name": "status",
          "type": "uint8"
        },
        {
          "internalType": "string",
          "name": "ref",
          "type": "string"
        }
      ],
      "stateMutability": "view",
      "type": "function"
    },
    {
      "inputs": [],
      "name": "owner",
      "outputs": [
        {
          "internalType": "address",
          "name": "",
          "type": "address"
        }
      ],
      "stateMutability": "view",
      "type": "function"
    },
    {
      "inputs": [
        {
          "internalType": "uint256",
          "name": "",
          "type": "uint256"
        }
      ],
      "name": "products",
      "outputs": [
        {
          "internalType": "address",
          "name": "phoneHash",
          "type": "address"
        },
        {
          "internalType": "uint256",
          "name": "timestamp",
          "type": "uint256"
        },
        {
          "internalType": "uint256",
          "name": "idOffer",
          "type": "uint256"
        },
        {
          "internalType": "uint256",
          "name": "idProposal",
          "type": "uint256"
        },
        {
          "internalType": "enum Offering.ProductStatus",
          "name": "status",
          "type": "uint8"
        }
      ],
      "stateMutability": "view",
      "type": "function"
    },
    {
      "inputs": [
        {
          "internalType": "uint256",
          "name": "",
          "type": "uint256"
        }
      ],
      "name": "proposals",
      "outputs": [
        {
          "internalType": "uint8",
          "name": "minScoring",
          "type": "uint8"
        },
        {
          "internalType": "uint256",
          "name": "capital",
          "type": "uint256"
        },
        {
          "internalType": "uint256",
          "name": "interest",
          "type": "uint256"
        },
        {
          "internalType": "uint256",
          "name": "validityPeriod",
          "type": "uint256"
        },
        {
          "internalType": "string",
          "name": "description",
          "type": "string"
        },
        {
          "internalType": "enum Offering.ProposalStatus",
          "name": "status",
          "type": "uint8"
        }
      ],
      "stateMutability": "view",
      "type": "function"
    },
    {
      "inputs": [],
      "name": "renounceOwnership",
      "outputs": [],
      "stateMutability": "nonpayable",
      "type": "function"
    },
    {
      "inputs": [
        {
          "internalType": "address",
          "name": "newOwner",
          "type": "address"
        }
      ],
      "name": "transferOwnership",
      "outputs": [],
      "stateMutability": "nonpayable",
      "type": "function"
    },
    {
      "inputs": [
        {
          "internalType": "uint8",
          "name": "_minScoring",
          "type": "uint8"
        },
        {
          "internalType": "uint256",
          "name": "_capital",
          "type": "uint256"
        },
        {
          "internalType": "uint256",
          "name": "_interest",
          "type": "uint256"
        },
        {
          "internalType": "string",
          "name": "_description",
          "type": "string"
        }
      ],
      "name": "addProposal",
      "outputs": [],
      "stateMutability": "nonpayable",
      "type": "function"
    },
    {
      "inputs": [
        {
          "internalType": "uint256",
          "name": "_id",
          "type": "uint256"
        }
      ],
      "name": "closedProposal",
      "outputs": [],
      "stateMutability": "nonpayable",
      "type": "function"
    },
    {
      "inputs": [],
      "name": "proposalsCount",
      "outputs": [
        {
          "internalType": "uint256",
          "name": "",
          "type": "uint256"
        }
      ],
      "stateMutability": "view",
      "type": "function"
    },
    {
      "inputs": [
        {
          "internalType": "address",
          "name": "_phoneHash",
          "type": "address"
        },
        {
          "internalType": "uint256",
          "name": "_acceptanceTimestamp",
          "type": "uint256"
        },
        {
          "internalType": "uint256",
          "name": "_idOffer",
          "type": "uint256"
        },
        {
          "internalType": "uint256",
          "name": "_idProposal",
          "type": "uint256"
        }
      ],
      "name": "createProduct",
      "outputs": [
        {
          "internalType": "uint256",
          "name": "",
          "type": "uint256"
        }
      ],
      "stateMutability": "nonpayable",
      "type": "function"
    },
    {
      "inputs": [
        {
          "internalType": "address",
          "name": "_phoneHash",
          "type": "address"
        },
        {
          "internalType": "string",
          "name": "_ref",
          "type": "string"
        },
        {
          "internalType": "uint8",
          "name": "_score",
          "type": "uint8"
        }
      ],
      "name": "lowBalanceOffering",
      "outputs": [],
      "stateMutability": "nonpayable",
      "type": "function"
    },
    {
      "inputs": [
        {
          "internalType": "uint8",
          "name": "_scoring",
          "type": "uint8"
        }
      ],
      "name": "getOfferProposals",
      "outputs": [
        {
          "internalType": "uint256[]",
          "name": "",
          "type": "uint256[]"
        }
      ],
      "stateMutability": "view",
      "type": "function"
    },
    {
      "inputs": [
        {
          "internalType": "uint256[]",
          "name": "_offerProposals",
          "type": "uint256[]"
        },
        {
          "internalType": "uint8",
          "name": "_offerProposalsCount",
          "type": "uint8"
        }
      ],
      "name": "trimOfferProposals",
      "outputs": [
        {
          "internalType": "uint256[]",
          "name": "",
          "type": "uint256[]"
        }
      ],
      "stateMutability": "pure",
      "type": "function"
    }
  ],
  "bytecode": "0x608060405234801561001057600080fd5b5061002d61002261003260201b60201c565b61003a60201b60201c565b6100fe565b600033905090565b60008060009054906101000a900473ffffffffffffffffffffffffffffffffffffffff169050816000806101000a81548173ffffffffffffffffffffffffffffffffffffffff021916908373ffffffffffffffffffffffffffffffffffffffff1602179055508173ffffffffffffffffffffffffffffffffffffffff168173ffffffffffffffffffffffffffffffffffffffff167f8be0079c531659141344cd1fd0a4f28419497f9722a3daafe3b4186f6b6457e060405160405180910390a35050565b6120008061010d6000396000f3fe608060405234801561001057600080fd5b50600436106100cf5760003560e01c80637acc0b201161008c5780639f329783116100665780639f3297831461021f578063b6ca45951461024f578063bdcf208c1461027f578063f2fde38b1461029b576100cf565b80637acc0b20146101995780638a72ea6a146101cd5780638da5cb5b14610201576100cf565b8063013cf08b146100d45780630a9f46ad14610109578063116c327b1461012757806346747b381461014357806347466dc314610173578063715018a61461018f575b600080fd5b6100ee60048036038101906100e99190611566565b6102b7565b60405161010096959493929190611a4e565b60405180910390f35b6101116103a5565b60405161011e919061195c565b60405180910390f35b610141600480360381019061013c9190611434565b6103b2565b005b61015d60048036038101906101589190611593565b610602565b60405161016a91906118da565b60405180910390f35b61018d60048036038101906101889190611566565b610791565b005b6101976108a7565b005b6101b360048036038101906101ae9190611566565b61092f565b6040516101c4959493929190611887565b60405180910390f35b6101e760048036038101906101e29190611566565b6109a2565b6040516101f895949392919061182d565b60405180910390f35b610209610aaa565b60405161021691906117e2565b60405180910390f35b6102396004803603810190610234919061150a565b610ad3565b60405161024691906118da565b60405180910390f35b610269600480360381019061026491906114a3565b610b94565b604051610276919061195c565b60405180910390f35b610299600480360381019061029491906115c0565b610d46565b005b6102b560048036038101906102b09190611407565b610f4b565b005b600281815481106102c757600080fd5b90600052602060002090600602016000915090508060000160009054906101000a900460ff169080600101549080600201549080600301549080600401805461030f90611cf2565b80601f016020809104026020016040519081016040528092919081815260200182805461033b90611cf2565b80156103885780601f1061035d57610100808354040283529160200191610388565b820191906000526020600020905b81548152906001019060200180831161036b57829003601f168201915b5050505050908060050160009054906101000a900460ff16905086565b6000600280549050905090565b7f251fc0df7e56c36cfc4f618ef67296b8e2c41ce1ce473e5187bfec66743b38d383836040516103e39291906117fd565b60405180910390a16103f361110f565b83816000019073ffffffffffffffffffffffffffffffffffffffff16908173ffffffffffffffffffffffffffffffffffffffff16815250504281602001818152505060008160800190600181111561044e5761044d611dae565b5b9081600181111561046257610461611dae565b5b8152505061046f82610602565b8160600181905250828160a00181905250600181908060018154018082558091505060019003906000526020600020906006020160009091909190915060008201518160000160006101000a81548173ffffffffffffffffffffffffffffffffffffffff021916908373ffffffffffffffffffffffffffffffffffffffff1602179055506020820151816001015560408201518160020160006101000a81548160ff0219169083600481111561052857610527611dae565b5b0217905550606082015181600301908051906020019061054992919061117f565b5060808201518160040160006101000a81548160ff0219169083600181111561057557610574611dae565b5b021790555060a08201518160050190805190602001906105969291906111cc565b5050507f6a2d36566113fdc14dbc5b9458a0ba3a3eb54e394c2eb29fb26efdfee664f55e600180805490506105cb9190611b8d565b826000015183602001518460400151856060015187896040516105f49796959493929190611977565b60405180910390a150505050565b60606000600367ffffffffffffffff81111561062157610620611e3b565b5b60405190808252806020026020018201604052801561064f5781602001602082028036833780820191505090505b5090506000808460ff16141561066957819250505061078c565b60005b6002805490508160ff16108015610686575060038260ff16105b1561077c576000600181111561069f5761069e611dae565b5b60028260ff16815481106106b6576106b5611e0c565b5b906000526020600020906006020160050160009054906101000a900460ff1660018111156106e7576106e6611dae565b5b14801561072f575060028160ff168154811061070657610705611e0c565b5b906000526020600020906006020160000160009054906101000a900460ff1660ff168560ff1610155b15610769578060ff16838360ff168151811061074e5761074d611e0c565b5b602002602001018181525050818061076590611d55565b9250505b808061077490611d55565b91505061066c565b506107878282610ad3565b925050505b919050565b610799611043565b73ffffffffffffffffffffffffffffffffffffffff166107b7610aaa565b73ffffffffffffffffffffffffffffffffffffffff161461080d576040517f08c379a00000000000000000000000000000000000000000000000000000000081526004016108049061193c565b60405180910390fd5b806002805490508110610855576040517f08c379a000000000000000000000000000000000000000000000000000000000815260040161084c906118fc565b60405180910390fd5b60016002838154811061086b5761086a611e0c565b5b906000526020600020906006020160050160006101000a81548160ff0219169083600181111561089e5761089d611dae565b5b02179055505050565b6108af611043565b73ffffffffffffffffffffffffffffffffffffffff166108cd610aaa565b73ffffffffffffffffffffffffffffffffffffffff1614610923576040517f08c379a000000000000000000000000000000000000000000000000000000000815260040161091a9061193c565b60405180910390fd5b61092d600061104b565b565b6003818154811061093f57600080fd5b90600052602060002090600502016000915090508060000160009054906101000a900473ffffffffffffffffffffffffffffffffffffffff16908060010154908060020154908060030154908060040160009054906101000a900460ff16905085565b600181815481106109b257600080fd5b90600052602060002090600602016000915090508060000160009054906101000a900473ffffffffffffffffffffffffffffffffffffffff16908060010154908060020160009054906101000a900460ff16908060040160009054906101000a900460ff1690806005018054610a2790611cf2565b80601f0160208091040260200160405190810160405280929190818152602001828054610a5390611cf2565b8015610aa05780601f10610a7557610100808354040283529160200191610aa0565b820191906000526020600020905b815481529060010190602001808311610a8357829003601f168201915b5050505050905085565b60008060009054906101000a900473ffffffffffffffffffffffffffffffffffffffff16905090565b606060008260ff1667ffffffffffffffff811115610af457610af3611e3b565b5b604051908082528060200260200182016040528015610b225781602001602082028036833780820191505090505b50905060005b8360ff168160ff161015610b8957848160ff1681518110610b4c57610b4b611e0c565b5b6020026020010151828260ff1681518110610b6a57610b69611e0c565b5b6020026020010181815250508080610b8190611d55565b915050610b28565b508091505092915050565b6000610b9e611043565b73ffffffffffffffffffffffffffffffffffffffff16610bbc610aaa565b73ffffffffffffffffffffffffffffffffffffffff1614610c12576040517f08c379a0000000000000000000000000000000000000000000000000000000008152600401610c099061193c565b60405180910390fd5b60006040518060a001604052808773ffffffffffffffffffffffffffffffffffffffff16815260200186815260200185815260200184815260200160006001811115610c6157610c60611dae565b5b8152509050600381908060018154018082558091505060019003906000526020600020906005020160009091909190915060008201518160000160006101000a81548173ffffffffffffffffffffffffffffffffffffffff021916908373ffffffffffffffffffffffffffffffffffffffff16021790555060208201518160010155604082015181600201556060820151816003015560808201518160040160006101000a81548160ff02191690836001811115610d2257610d21611dae565b5b021790555050506001600380549050610d3b9190611b8d565b915050949350505050565b610d4e611043565b73ffffffffffffffffffffffffffffffffffffffff16610d6c610aaa565b73ffffffffffffffffffffffffffffffffffffffff1614610dc2576040517f08c379a0000000000000000000000000000000000000000000000000000000008152600401610db99061193c565b60405180910390fd5b610dca611252565b84816000019060ff16908160ff1681525050838160200181815250508281604001818152505081816080018190525060008160a001906001811115610e1257610e11611dae565b5b90816001811115610e2657610e25611dae565b5b81525050600281908060018154018082558091505060019003906000526020600020906006020160009091909190915060008201518160000160006101000a81548160ff021916908360ff1602179055506020820151816001015560408201518160020155606082015181600301556080820151816004019080519060200190610eb19291906111cc565b5060a08201518160050160006101000a81548160ff02191690836001811115610edd57610edc611dae565b5b021790555050507f0dd92ec7c9e4620459d0f39f48975327d855d61513c1e839e5ae03d1ca7644726001600280549050610f179190611b8d565b8260000151836020015184604001518560800151604051610f3c9594939291906119f4565b60405180910390a15050505050565b610f53611043565b73ffffffffffffffffffffffffffffffffffffffff16610f71610aaa565b73ffffffffffffffffffffffffffffffffffffffff1614610fc7576040517f08c379a0000000000000000000000000000000000000000000000000000000008152600401610fbe9061193c565b60405180910390fd5b600073ffffffffffffffffffffffffffffffffffffffff168173ffffffffffffffffffffffffffffffffffffffff161415611037576040517f08c379a000000000000000000000000000000000000000000000000000000000815260040161102e9061191c565b60405180910390fd5b6110408161104b565b50565b600033905090565b60008060009054906101000a900473ffffffffffffffffffffffffffffffffffffffff169050816000806101000a81548173ffffffffffffffffffffffffffffffffffffffff021916908373ffffffffffffffffffffffffffffffffffffffff1602179055508173ffffffffffffffffffffffffffffffffffffffff168173ffffffffffffffffffffffffffffffffffffffff167f8be0079c531659141344cd1fd0a4f28419497f9722a3daafe3b4186f6b6457e060405160405180910390a35050565b6040518060c00160405280600073ffffffffffffffffffffffffffffffffffffffff168152602001600081526020016000600481111561115257611151611dae565b5b8152602001606081526020016000600181111561117257611171611dae565b5b8152602001606081525090565b8280548282559060005260206000209081019282156111bb579160200282015b828111156111ba57825182559160200191906001019061119f565b5b5090506111c8919061129d565b5090565b8280546111d890611cf2565b90600052602060002090601f0160209004810192826111fa5760008555611241565b82601f1061121357805160ff1916838001178555611241565b82800160010185558215611241579182015b82811115611240578251825591602001919060010190611225565b5b50905061124e919061129d565b5090565b6040518060c00160405280600060ff168152602001600081526020016000815260200160008152602001606081526020016000600181111561129757611296611dae565b5b81525090565b5b808211156112b657600081600090555060010161129e565b5090565b60006112cd6112c884611adb565b611ab6565b905080838252602082019050828560208602820111156112f0576112ef611e6f565b5b60005b85811015611320578161130688826113dd565b8452602084019350602083019250506001810190506112f3565b5050509392505050565b600061133d61133884611b07565b611ab6565b90508281526020810184848401111561135957611358611e74565b5b611364848285611cb0565b509392505050565b60008135905061137b81611f85565b92915050565b600082601f83011261139657611395611e6a565b5b81356113a68482602086016112ba565b91505092915050565b600082601f8301126113c4576113c3611e6a565b5b81356113d484826020860161132a565b91505092915050565b6000813590506113ec81611f9c565b92915050565b60008135905061140181611fb3565b92915050565b60006020828403121561141d5761141c611e7e565b5b600061142b8482850161136c565b91505092915050565b60008060006060848603121561144d5761144c611e7e565b5b600061145b8682870161136c565b935050602084013567ffffffffffffffff81111561147c5761147b611e79565b5b611488868287016113af565b9250506040611499868287016113f2565b9150509250925092565b600080600080608085870312156114bd576114bc611e7e565b5b60006114cb8782880161136c565b94505060206114dc878288016113dd565b93505060406114ed878288016113dd565b92505060606114fe878288016113dd565b91505092959194509250565b6000806040838503121561152157611520611e7e565b5b600083013567ffffffffffffffff81111561153f5761153e611e79565b5b61154b85828601611381565b925050602061155c858286016113f2565b9150509250929050565b60006020828403121561157c5761157b611e7e565b5b600061158a848285016113dd565b91505092915050565b6000602082840312156115a9576115a8611e7e565b5b60006115b7848285016113f2565b91505092915050565b600080600080608085870312156115da576115d9611e7e565b5b60006115e8878288016113f2565b94505060206115f9878288016113dd565b935050604061160a878288016113dd565b925050606085013567ffffffffffffffff81111561162b5761162a611e79565b5b611637878288016113af565b91505092959194509250565b600061164f83836117a6565b60208301905092915050565b61166481611bc1565b82525050565b600061167582611b48565b61167f8185611b6b565b935061168a83611b38565b8060005b838110156116bb5781516116a28882611643565b97506116ad83611b5e565b92505060018101905061168e565b5085935050505092915050565b6116d181611c56565b82525050565b6116e081611c68565b82525050565b6116ef81611c7a565b82525050565b6116fe81611c8c565b82525050565b600061170f82611b53565b6117198185611b7c565b9350611729818560208601611cbf565b61173281611e83565b840191505092915050565b600061174a601683611b7c565b915061175582611e94565b602082019050919050565b600061176d602683611b7c565b915061177882611ebd565b604082019050919050565b6000611790602083611b7c565b915061179b82611f0c565b602082019050919050565b6117af81611c3f565b82525050565b6117be81611c3f565b82525050565b6117cd81611c9e565b82525050565b6117dc81611c49565b82525050565b60006020820190506117f7600083018461165b565b92915050565b6000604082019050611812600083018561165b565b81810360208301526118248184611704565b90509392505050565b600060a082019050611842600083018861165b565b61184f60208301876117b5565b61185c60408301866116c8565b61186960608301856116d7565b818103608083015261187b8184611704565b90509695505050505050565b600060a08201905061189c600083018861165b565b6118a960208301876117b5565b6118b660408301866117b5565b6118c360608301856117b5565b6118d060808301846116e6565b9695505050505050565b600060208201905081810360008301526118f4818461166a565b905092915050565b600060208201905081810360008301526119158161173d565b9050919050565b6000602082019050818103600083015261193581611760565b9050919050565b6000602082019050818103600083015261195581611783565b9050919050565b600060208201905061197160008301846117b5565b92915050565b600060e08201905061198c600083018a6117b5565b611999602083018961165b565b6119a660408301886117b5565b6119b360608301876116c8565b81810360808301526119c5818661166a565b90506119d460a08301856117c4565b81810360c08301526119e68184611704565b905098975050505050505050565b600060a082019050611a0960008301886117b5565b611a1660208301876117d3565b611a2360408301866117b5565b611a3060608301856117b5565b8181036080830152611a428184611704565b90509695505050505050565b600060c082019050611a6360008301896117d3565b611a7060208301886117b5565b611a7d60408301876117b5565b611a8a60608301866117b5565b8181036080830152611a9c8185611704565b9050611aab60a08301846116f5565b979650505050505050565b6000611ac0611ad1565b9050611acc8282611d24565b919050565b6000604051905090565b600067ffffffffffffffff821115611af657611af5611e3b565b5b602082029050602081019050919050565b600067ffffffffffffffff821115611b2257611b21611e3b565b5b611b2b82611e83565b9050602081019050919050565b6000819050602082019050919050565b600081519050919050565b600081519050919050565b6000602082019050919050565b600082825260208201905092915050565b600082825260208201905092915050565b6000611b9882611c3f565b9150611ba383611c3f565b925082821015611bb657611bb5611d7f565b5b828203905092915050565b6000611bcc82611c1f565b9050919050565b6000819050611be182611f35565b919050565b6000819050611bf482611f49565b919050565b6000819050611c0782611f5d565b919050565b6000819050611c1a82611f71565b919050565b600073ffffffffffffffffffffffffffffffffffffffff82169050919050565b6000819050919050565b600060ff82169050919050565b6000611c6182611bd3565b9050919050565b6000611c7382611be6565b9050919050565b6000611c8582611bf9565b9050919050565b6000611c9782611c0c565b9050919050565b6000611ca982611c49565b9050919050565b82818337600083830152505050565b60005b83811015611cdd578082015181840152602081019050611cc2565b83811115611cec576000848401525b50505050565b60006002820490506001821680611d0a57607f821691505b60208210811415611d1e57611d1d611ddd565b5b50919050565b611d2d82611e83565b810181811067ffffffffffffffff82111715611d4c57611d4b611e3b565b5b80604052505050565b6000611d6082611c49565b915060ff821415611d7457611d73611d7f565b5b600182019050919050565b7f4e487b7100000000000000000000000000000000000000000000000000000000600052601160045260246000fd5b7f4e487b7100000000000000000000000000000000000000000000000000000000600052602160045260246000fd5b7f4e487b7100000000000000000000000000000000000000000000000000000000600052602260045260246000fd5b7f4e487b7100000000000000000000000000000000000000000000000000000000600052603260045260246000fd5b7f4e487b7100000000000000000000000000000000000000000000000000000000600052604160045260246000fd5b600080fd5b600080fd5b600080fd5b600080fd5b600080fd5b6000601f19601f8301169050919050565b7f50726f706f73616c20646f65736e277420657869737400000000000000000000600082015250565b7f4f776e61626c653a206e6577206f776e657220697320746865207a65726f206160008201527f6464726573730000000000000000000000000000000000000000000000000000602082015250565b7f4f776e61626c653a2063616c6c6572206973206e6f7420746865206f776e6572600082015250565b60058110611f4657611f45611dae565b5b50565b60028110611f5a57611f59611dae565b5b50565b60028110611f6e57611f6d611dae565b5b50565b60028110611f8257611f81611dae565b5b50565b611f8e81611bc1565b8114611f9957600080fd5b50565b611fa581611c3f565b8114611fb057600080fd5b50565b611fbc81611c49565b8114611fc757600080fd5b5056fea26469706673582212201a01d8fb6c435146f61a08f8ea5927e61fe9784105dee634c76f26478d4b466964736f6c63430008060033",
  "immutableReferences": {},
  "source": "// SPDX-License-Identifier: MIT\npragma solidity ^0.8.6;\n\nimport \"@openzeppelin/contracts/access/Ownable.sol\";\n\n/**\n * @title This Smart Contract is responsible to generate the offers for customers.\n * @notice Manage all aspects related to offering (proposals, customers and products management)\n * @author Keeymon, DavidRochus\n */\ncontract Offering is Ownable {\n    /**\n     * @dev Offer status\n     */\n    enum OfferStatus {\n        New,\n        Accepted\n    }\n\n    /**\n     * @dev Product status\n     */\n    enum ProductStatus {\n        Active,\n        Closed\n    }\n\n    /**\n     * @dev Proposal status\n     */\n    enum ProposalStatus {\n        Active,\n        Closed\n    }\n\n    /**\n     * @dev Eligibility reasons\n     */\n    enum EligibilityReason {\n        None,\n        UnknowUser,\n        LowUser,\n        DoubleSpent,\n        Other\n    }\n\n    /**\n     * @dev Offer information\n     */\n    struct Offer {\n        address phoneHash;\n        uint256 timestamp;\n        EligibilityReason reason;\n        uint256[] proposals;\n        OfferStatus status;\n        string ref;\n    }\n\n    /**\n     * @dev Product information\n     */\n    struct Product {\n        address phoneHash;\n        uint256 timestamp;\n        uint256 idOffer;\n        uint256 idProposal;\n        ProductStatus status;\n    }\n\n    /**\n     * @dev Proposal information\n     */\n    struct Proposal {\n        uint8 minScoring;\n        uint256 capital;\n        uint256 interest;\n        uint256 validityPeriod;\n        string description;\n        ProposalStatus status;\n    }\n\n    /**\n     * @dev Offers table\n     */\n    Offer[] public offers;\n    /**\n     * @dev Proposals table\n     */\n    Proposal[] public proposals;\n    /**\n     * @dev Products table\n     */\n    Product[] public products;\n\n    /**\n     * @dev Triggered when a proposal is added\n     */\n    event ProposalAdded(\n        uint256 idProposal,\n        uint8 minScoring,\n        uint256 capital,\n        uint256 interest,\n        string description\n    );\n    /**\n     * @dev Triggered when a lowBalance is received\n     */\n    event LowBalanceReceived(address phoneHash, string ref);\n    /**\n     * @dev Triggered when an offer has to be sent\n     */\n    event OfferSent(\n        uint256 idOffer,\n        address phoneHash,\n        uint256 timestamp,\n        EligibilityReason reason,\n        uint256[] proposals,\n        uint256 scoring,\n        string ref\n    );\n    /**\n     * @dev Triggered when an acceptance is received\n     */\n    event AcceptanceReceived(\n        address phoneHash,\n        uint256 idOffer,\n        uint256 idProposal\n    );\n    /**\n     * @dev Triggered when a confirmation has to be sent\n     */\n    event ConfirmationSent(\n        uint256 productId,\n        uint256 idOffer,\n        address phoneHash,\n        uint256 timestamp\n    );\n    /**\n     * @dev Triggered when a topUp is received\n     */\n    event TopUpReceived(address phoneHash, uint256 productId, uint256 amount);\n    /**\n     * @dev Triggered when an acknowledge has to be sent\n     */\n    event AcknowledgeSent(address phoneHash, uint256 productId, uint256 amount);\n\n    /**\n     * @dev Check if proposal exists\n     */\n    modifier existProposal(uint256 id) {\n        require(id < proposals.length, \"Proposal doesn't exist\");\n        _;\n    }\n    /**\n     * @dev Check if offer exists\n     */\n    modifier existOffer(uint256 id) {\n        require(id < offers.length, \"Offer doesn't exist\");\n        _;\n    }\n    /**\n     * @dev Check if product exists\n     */\n    modifier existProduct(uint256 id) {\n        require(id < products.length, \"Product doesn't exist\");\n        _;\n    }\n\n    /**\n     * @dev Smart Contract constructor\n     */\n    constructor() {}\n\n    /**\n      * @notice Add a proposal\n      * @param _minScoring The minimum score needed by customer to receive this proposal\n      * @param _capital Capital part of the proposal amount\n      * @param _interest Interest part of the proposal amount\n      * @param _description A description of the proposal\n      * @dev Add a proposal with the following information: minimum scoring `_minScoring`, amount `_capital` + `_interest`, description `_description`\n      */\n    function addProposal(\n        uint8 _minScoring,\n        uint256 _capital,\n        uint256 _interest,\n        string memory _description\n    ) public onlyOwner {\n        Proposal memory proposalData;\n\n        proposalData.minScoring = _minScoring;\n        proposalData.capital = _capital;\n        proposalData.interest = _interest;\n        proposalData.description = _description;\n        proposalData.status = ProposalStatus.Active;\n        proposals.push(proposalData);\n\n        emit ProposalAdded(\n            (proposals.length - 1),\n            proposalData.minScoring,\n            proposalData.capital,\n            proposalData.interest,\n            proposalData.description\n        );\n    }\n\n    /**\n      * @notice Close a proposal\n      * @param _id ID of the proposal to close\n      * @dev Close the proposal with the ID `_id`\n      */\n    function closedProposal(uint256 _id) public onlyOwner existProposal(_id) {\n        proposals[_id].status = ProposalStatus.Closed;\n    }\n\n    /**\n      * @notice Number of proposals\n      * @dev Return the number of proposals\n      */\n    function proposalsCount() public view returns (uint256) {\n        return proposals.length;\n    }\n\n    /**\n      * @notice Create a product\n      * @param _phoneHash The address that identifies to the customer\n      * @param _acceptanceTimestamp Timestamp of the acceptance\n      * @param _idOffer ID of the offer\n      * @param _idProposal ID of the proposal\n      * @dev Create a product with the following information: a customer (identified with `_phoneHash`), an offer ID `_idOffer`, a proposal ID `_idProposal` and a timestamp `_acceptanceTimestamp` \n      */\n    function createProduct(address _phoneHash, uint _acceptanceTimestamp, uint256 _idOffer, uint256 _idProposal) public onlyOwner returns(uint256) {\n        Product memory product = Product(_phoneHash, _acceptanceTimestamp, _idOffer, _idProposal, ProductStatus.Active);\n        products.push(product);\n        return (products.length - 1);\n    }\n\n    /**\n      * @notice Manage the \"low balances\" received and generate an offer\n      * @param _phoneHash The address that identifies to the customer\n      * @param _ref Reference of the telecom provider\n      * @param _score score of the customer\n      * @dev Manage lowBalance (with reference `_ref`) of a customer (identified with `_phoneHash`) and generate an offer based on the score `_score` \n      */\n    function lowBalanceOffering(address _phoneHash, string memory _ref, uint8 _score) public {\n        emit LowBalanceReceived(_phoneHash, _ref);\n\n        //Register Offer\n        Offer memory offerData;\n        offerData.phoneHash = _phoneHash;\n        offerData.timestamp = block.timestamp;\n        offerData.status = OfferStatus.New;\n        offerData.proposals = getOfferProposals(_score);\n        offerData.ref = _ref;\n        offers.push(offerData);\n\n        emit OfferSent(\n            (offers.length - 1),\n            offerData.phoneHash,\n            offerData.timestamp,\n            offerData.reason,\n            offerData.proposals,\n            _score,\n            _ref\n        );\n    }\n\n    /**\n      * @notice Get the proposals corresponding to the scoring\n      * @param _scoring score of the customer\n      * @return Proposals\n      * @dev Return the proposals that correspond to the given scoring `_scoring` \n      */\n    function getOfferProposals(uint8 _scoring)\n        public\n        view\n        returns (uint256[] memory)\n    {\n        uint256[] memory offerProposals = new uint256[](3);\n        uint8 offerProposalsIndex = 0;\n\n        if (_scoring == 0) {\n            return offerProposals;\n        }\n        \n        for (\n            uint8 i = 0;\n            (i < proposals.length && offerProposalsIndex < 3);\n            i++\n        ) {\n            if (\n                proposals[i].status == ProposalStatus.Active &&\n                _scoring >= proposals[i].minScoring\n            ) {\n                offerProposals[offerProposalsIndex] = i;\n                offerProposalsIndex++;\n            }\n        }\n        return trimOfferProposals(offerProposals,offerProposalsIndex);\n    }\n\n    /**\n      * @notice Create a trimmed table of the proposals\n      * @param _offerProposals Initial proposals table\n      * @param _offerProposalsCount Number of proposals to retrieve in the initial table\n      * @return Proposals\n      * @dev Return a proposals based on table `_offerProposals` with only the first `_offerProposalsCount` proposals\n      */\n    function trimOfferProposals(uint256[] memory _offerProposals, uint8 _offerProposalsCount)\n        public\n        pure\n        returns (uint256[] memory)\n    {\n        uint256[] memory offerProposals = new uint256[](_offerProposalsCount);\n        for (uint8 i = 0; i < _offerProposalsCount; i++) {\n            offerProposals[i]=_offerProposals[i];\n        }\n        return offerProposals;\n    }\n\n}\n",
  "sourcePath": "/Users/davidrochus/Dev/workspace/timelapse/contracts/Offering.sol",
  "compiler": {
    "name": "solc",
    "version": "0.8.6+commit.11564f7e.Emscripten.clang"
  },
  "schemaVersion": "3.4.1",
  "updatedAt": "2021-07-15T20:06:00.027Z",
  "devdoc": {
    "author": "Keeymon, DavidRochus",
    "events": {
      "AcceptanceReceived(address,uint256,uint256)": {
        "details": "Triggered when an acceptance is received"
      },
      "AcknowledgeSent(address,uint256,uint256)": {
        "details": "Triggered when an acknowledge has to be sent"
      },
      "ConfirmationSent(uint256,uint256,address,uint256)": {
        "details": "Triggered when a confirmation has to be sent"
      },
      "LowBalanceReceived(address,string)": {
        "details": "Triggered when a lowBalance is received"
      },
      "OfferSent(uint256,address,uint256,uint8,uint256[],uint256,string)": {
        "details": "Triggered when an offer has to be sent"
      },
      "ProposalAdded(uint256,uint8,uint256,uint256,string)": {
        "details": "Triggered when a proposal is added"
      },
      "TopUpReceived(address,uint256,uint256)": {
        "details": "Triggered when a topUp is received"
      }
    },
    "kind": "dev",
    "methods": {
      "addProposal(uint8,uint256,uint256,string)": {
        "details": "Add a proposal with the following information: minimum scoring `_minScoring`, amount `_capital` + `_interest`, description `_description`",
        "params": {
          "_capital": "Capital part of the proposal amount",
          "_description": "A description of the proposal",
          "_interest": "Interest part of the proposal amount",
          "_minScoring": "The minimum score needed by customer to receive this proposal"
        }
      },
      "closedProposal(uint256)": {
        "details": "Close the proposal with the ID `_id`",
        "params": {
          "_id": "ID of the proposal to close"
        }
      },
      "constructor": {
        "details": "Smart Contract constructor"
      },
      "createProduct(address,uint256,uint256,uint256)": {
        "details": "Create a product with the following information: a customer (identified with `_phoneHash`), an offer ID `_idOffer`, a proposal ID `_idProposal` and a timestamp `_acceptanceTimestamp` ",
        "params": {
          "_acceptanceTimestamp": "Timestamp of the acceptance",
          "_idOffer": "ID of the offer",
          "_idProposal": "ID of the proposal",
          "_phoneHash": "The address that identifies to the customer"
        }
      },
      "getOfferProposals(uint8)": {
        "details": "Return the proposals that correspond to the given scoring `_scoring` ",
        "params": {
          "_scoring": "score of the customer"
        },
        "returns": {
          "_0": "Proposals"
        }
      },
      "lowBalanceOffering(address,string,uint8)": {
        "details": "Manage lowBalance (with reference `_ref`) of a customer (identified with `_phoneHash`) and generate an offer based on the score `_score` ",
        "params": {
          "_phoneHash": "The address that identifies to the customer",
          "_ref": "Reference of the telecom provider",
          "_score": "score of the customer"
        }
      },
      "owner()": {
        "details": "Returns the address of the current owner."
      },
      "proposalsCount()": {
        "details": "Return the number of proposals"
      },
      "renounceOwnership()": {
        "details": "Leaves the contract without owner. It will not be possible to call `onlyOwner` functions anymore. Can only be called by the current owner. NOTE: Renouncing ownership will leave the contract without an owner, thereby removing any functionality that is only available to the owner."
      },
      "transferOwnership(address)": {
        "details": "Transfers ownership of the contract to a new account (`newOwner`). Can only be called by the current owner."
      },
      "trimOfferProposals(uint256[],uint8)": {
        "details": "Return a proposals based on table `_offerProposals` with only the first `_offerProposalsCount` proposals",
        "params": {
          "_offerProposals": "Initial proposals table",
          "_offerProposalsCount": "Number of proposals to retrieve in the initial table"
        },
        "returns": {
          "_0": "Proposals"
        }
      }
    },
    "stateVariables": {
      "offers": {
        "details": "Offers table"
      },
      "products": {
        "details": "Products table"
      },
      "proposals": {
        "details": "Proposals table"
      }
    },
    "title": "This Smart Contract is responsible to generate the offers for customers.",
    "version": 1
  },
  "userdoc": {
    "kind": "user",
    "methods": {
      "addProposal(uint8,uint256,uint256,string)": {
        "notice": "Add a proposal"
      },
      "closedProposal(uint256)": {
        "notice": "Close a proposal"
      },
      "createProduct(address,uint256,uint256,uint256)": {
        "notice": "Create a product"
      },
      "getOfferProposals(uint8)": {
        "notice": "Get the proposals corresponding to the scoring"
      },
      "lowBalanceOffering(address,string,uint8)": {
        "notice": "Manage the \"low balances\" received and generate an offer"
      },
      "proposalsCount()": {
        "notice": "Number of proposals"
      },
      "trimOfferProposals(uint256[],uint8)": {
        "notice": "Create a trimmed table of the proposals"
      }
    },
    "notice": "Manage all aspects related to offering (proposals, customers and products management)",
    "version": 1
  }
}