{
  "contractName": "Offering",
  "abi": [
    {
      "inputs": [],
      "stateMutability": "nonpayable",
      "type": "constructor"
    },
    {
      "anonymous": false,
      "inputs": [
        {
          "indexed": false,
          "internalType": "address",
          "name": "phoneHash",
          "type": "address"
        },
        {
          "indexed": false,
          "internalType": "uint256",
          "name": "offerId",
          "type": "uint256"
        },
        {
          "indexed": false,
          "internalType": "uint256",
          "name": "proposalId",
          "type": "uint256"
        }
      ],
      "name": "AcceptanceReceived",
      "type": "event"
    },
    {
      "anonymous": false,
      "inputs": [
        {
          "indexed": false,
          "internalType": "address",
          "name": "phoneHash",
          "type": "address"
        },
        {
          "indexed": false,
          "internalType": "uint256",
          "name": "productId",
          "type": "uint256"
        },
        {
          "indexed": false,
          "internalType": "uint256",
          "name": "amount",
          "type": "uint256"
        }
      ],
      "name": "AcknowledgeSent",
      "type": "event"
    },
    {
      "anonymous": false,
      "inputs": [
        {
          "indexed": false,
          "internalType": "uint256",
          "name": "proposalId",
          "type": "uint256"
        }
      ],
      "name": "ClosedProposal",
      "type": "event"
    },
    {
      "anonymous": false,
      "inputs": [
        {
          "indexed": false,
          "internalType": "uint256",
          "name": "productId",
          "type": "uint256"
        },
        {
          "indexed": false,
          "internalType": "uint256",
          "name": "offerId",
          "type": "uint256"
        },
        {
          "indexed": false,
          "internalType": "address",
          "name": "phoneHash",
          "type": "address"
        },
        {
          "indexed": false,
          "internalType": "uint256",
          "name": "timestamp",
          "type": "uint256"
        }
      ],
      "name": "ConfirmationSent",
      "type": "event"
    },
    {
      "anonymous": false,
      "inputs": [
        {
          "indexed": false,
          "internalType": "address",
          "name": "phoneHash",
          "type": "address"
        },
        {
          "indexed": false,
          "internalType": "string",
          "name": "ref",
          "type": "string"
        }
      ],
      "name": "LowBalanceReceived",
      "type": "event"
    },
    {
      "anonymous": false,
      "inputs": [
        {
          "indexed": false,
          "internalType": "uint256",
          "name": "offerId",
          "type": "uint256"
        },
        {
          "indexed": false,
          "internalType": "address",
          "name": "phoneHash",
          "type": "address"
        },
        {
          "indexed": false,
          "internalType": "uint256",
          "name": "timestamp",
          "type": "uint256"
        },
        {
          "indexed": false,
          "internalType": "enum Offering.EligibilityReason",
          "name": "reason",
          "type": "uint8"
        },
        {
          "indexed": false,
          "internalType": "uint256[]",
          "name": "proposals",
          "type": "uint256[]"
        },
        {
          "indexed": false,
          "internalType": "uint256",
          "name": "scoring",
          "type": "uint256"
        },
        {
          "indexed": false,
          "internalType": "string",
          "name": "ref",
          "type": "string"
        }
      ],
      "name": "OfferSent",
      "type": "event"
    },
    {
      "anonymous": false,
      "inputs": [
        {
          "indexed": true,
          "internalType": "address",
          "name": "previousOwner",
          "type": "address"
        },
        {
          "indexed": true,
          "internalType": "address",
          "name": "newOwner",
          "type": "address"
        }
      ],
      "name": "OwnershipTransferred",
      "type": "event"
    },
    {
      "anonymous": false,
      "inputs": [
        {
          "indexed": false,
          "internalType": "address",
          "name": "phoneHash",
          "type": "address"
        },
        {
          "indexed": false,
          "internalType": "uint256",
          "name": "timestamp",
          "type": "uint256"
        },
        {
          "indexed": false,
          "internalType": "uint256",
          "name": "offerId",
          "type": "uint256"
        },
        {
          "indexed": false,
          "internalType": "uint256",
          "name": "proposalId",
          "type": "uint256"
        }
      ],
      "name": "ProductCreated",
      "type": "event"
    },
    {
      "anonymous": false,
      "inputs": [
        {
          "indexed": false,
          "internalType": "uint256",
          "name": "proposalId",
          "type": "uint256"
        },
        {
          "indexed": false,
          "internalType": "uint8",
          "name": "minScoring",
          "type": "uint8"
        },
        {
          "indexed": false,
          "internalType": "uint256",
          "name": "capital",
          "type": "uint256"
        },
        {
          "indexed": false,
          "internalType": "uint256",
          "name": "interest",
          "type": "uint256"
        },
        {
          "indexed": false,
          "internalType": "string",
          "name": "description",
          "type": "string"
        }
      ],
      "name": "ProposalAdded",
      "type": "event"
    },
    {
      "anonymous": false,
      "inputs": [
        {
          "indexed": false,
          "internalType": "address",
          "name": "phoneHash",
          "type": "address"
        },
        {
          "indexed": false,
          "internalType": "uint256",
          "name": "productId",
          "type": "uint256"
        },
        {
          "indexed": false,
          "internalType": "uint256",
          "name": "amount",
          "type": "uint256"
        }
      ],
      "name": "TopUpReceived",
      "type": "event"
    },
    {
      "inputs": [
        {
          "internalType": "address",
          "name": "",
          "type": "address"
        },
        {
          "internalType": "uint256",
          "name": "",
          "type": "uint256"
        }
      ],
      "name": "offerList",
      "outputs": [
        {
          "internalType": "uint256",
          "name": "",
          "type": "uint256"
        }
      ],
      "stateMutability": "view",
      "type": "function",
      "constant": true
    },
    {
      "inputs": [
        {
          "internalType": "uint256",
          "name": "",
          "type": "uint256"
        }
      ],
      "name": "offers",
      "outputs": [
        {
          "internalType": "string",
          "name": "ref",
          "type": "string"
        },
        {
          "internalType": "uint256",
          "name": "timestamp",
          "type": "uint256"
        },
        {
          "internalType": "address",
          "name": "phoneHash",
          "type": "address"
        },
        {
          "internalType": "enum Offering.EligibilityReason",
          "name": "reason",
          "type": "uint8"
        },
        {
          "internalType": "enum Offering.OfferStatus",
          "name": "status",
          "type": "uint8"
        }
      ],
      "stateMutability": "view",
      "type": "function",
      "constant": true
    },
    {
      "inputs": [],
      "name": "owner",
      "outputs": [
        {
          "internalType": "address",
          "name": "",
          "type": "address"
        }
      ],
      "stateMutability": "view",
      "type": "function",
      "constant": true
    },
    {
      "inputs": [
        {
          "internalType": "uint256",
          "name": "",
          "type": "uint256"
        }
      ],
      "name": "products",
      "outputs": [
        {
          "internalType": "uint256",
          "name": "timestamp",
          "type": "uint256"
        },
        {
          "internalType": "uint256",
          "name": "offerId",
          "type": "uint256"
        },
        {
          "internalType": "uint256",
          "name": "proposalId",
          "type": "uint256"
        },
        {
          "internalType": "address",
          "name": "phoneHash",
          "type": "address"
        },
        {
          "internalType": "enum Offering.ProductStatus",
          "name": "status",
          "type": "uint8"
        }
      ],
      "stateMutability": "view",
      "type": "function",
      "constant": true
    },
    {
      "inputs": [
        {
          "internalType": "uint256",
          "name": "",
          "type": "uint256"
        }
      ],
      "name": "proposals",
      "outputs": [
        {
          "internalType": "string",
          "name": "description",
          "type": "string"
        },
        {
          "internalType": "uint8",
          "name": "minScoring",
          "type": "uint8"
        },
        {
          "internalType": "uint256",
          "name": "capital",
          "type": "uint256"
        },
        {
          "internalType": "uint256",
          "name": "interest",
          "type": "uint256"
        },
        {
          "internalType": "uint256",
          "name": "validityPeriod",
          "type": "uint256"
        },
        {
          "internalType": "enum Offering.ProposalStatus",
          "name": "status",
          "type": "uint8"
        }
      ],
      "stateMutability": "view",
      "type": "function",
      "constant": true
    },
    {
      "inputs": [],
      "name": "renounceOwnership",
      "outputs": [],
      "stateMutability": "nonpayable",
      "type": "function"
    },
    {
      "inputs": [
        {
          "internalType": "address",
          "name": "newOwner",
          "type": "address"
        }
      ],
      "name": "transferOwnership",
      "outputs": [],
      "stateMutability": "nonpayable",
      "type": "function"
    },
    {
      "inputs": [
        {
          "internalType": "uint8",
          "name": "_minScoring",
          "type": "uint8"
        },
        {
          "internalType": "uint256",
          "name": "_capital",
          "type": "uint256"
        },
        {
          "internalType": "uint256",
          "name": "_interest",
          "type": "uint256"
        },
        {
          "internalType": "string",
          "name": "_description",
          "type": "string"
        }
      ],
      "name": "addProposal",
      "outputs": [],
      "stateMutability": "nonpayable",
      "type": "function"
    },
    {
      "inputs": [
        {
          "internalType": "uint256",
          "name": "_id",
          "type": "uint256"
        }
      ],
      "name": "closeProposal",
      "outputs": [],
      "stateMutability": "nonpayable",
      "type": "function"
    },
    {
      "inputs": [],
      "name": "proposalsCount",
      "outputs": [
        {
          "internalType": "uint256",
          "name": "",
          "type": "uint256"
        }
      ],
      "stateMutability": "view",
      "type": "function",
      "constant": true
    },
    {
      "inputs": [
        {
          "internalType": "uint256",
          "name": "_offerId",
          "type": "uint256"
        }
      ],
      "name": "getProposalOfferSize",
      "outputs": [
        {
          "internalType": "uint256",
          "name": "",
          "type": "uint256"
        }
      ],
      "stateMutability": "view",
      "type": "function",
      "constant": true
    },
    {
      "inputs": [
        {
          "internalType": "address",
          "name": "_phoneHash",
          "type": "address"
        }
      ],
      "name": "getOfferSize",
      "outputs": [
        {
          "internalType": "uint256",
          "name": "",
          "type": "uint256"
        }
      ],
      "stateMutability": "view",
      "type": "function",
      "constant": true
    },
    {
      "inputs": [],
      "name": "getOffersSize",
      "outputs": [
        {
          "internalType": "uint256",
          "name": "",
          "type": "uint256"
        }
      ],
      "stateMutability": "view",
      "type": "function",
      "constant": true
    },
    {
      "inputs": [
        {
          "internalType": "uint256",
          "name": "_offerId",
          "type": "uint256"
        },
        {
          "internalType": "uint256",
          "name": "_id",
          "type": "uint256"
        }
      ],
      "name": "getIndexProposalOffer",
      "outputs": [
        {
          "internalType": "uint256",
          "name": "",
          "type": "uint256"
        }
      ],
      "stateMutability": "view",
      "type": "function",
      "constant": true
    },
    {
      "inputs": [
        {
          "internalType": "address",
          "name": "_phoneHash",
          "type": "address"
        },
        {
          "internalType": "string",
          "name": "_ref",
          "type": "string"
        },
        {
          "internalType": "uint8",
          "name": "_score",
          "type": "uint8"
        }
      ],
      "name": "lowBalanceOffering",
      "outputs": [],
      "stateMutability": "nonpayable",
      "type": "function"
    },
    {
      "inputs": [
        {
          "internalType": "address",
          "name": "_phoneHash",
          "type": "address"
        },
        {
          "internalType": "uint256",
          "name": "_acceptanceTimestamp",
          "type": "uint256"
        },
        {
          "internalType": "uint256",
          "name": "_offerId",
          "type": "uint256"
        },
        {
          "internalType": "uint256",
          "name": "_proposalId",
          "type": "uint256"
        }
      ],
      "name": "createProduct",
      "outputs": [
        {
          "internalType": "uint256",
          "name": "",
          "type": "uint256"
        }
      ],
      "stateMutability": "nonpayable",
      "type": "function"
    },
    {
      "inputs": [
        {
          "internalType": "uint8",
          "name": "_scoring",
          "type": "uint8"
        }
      ],
      "name": "getOfferProposals",
      "outputs": [
        {
          "internalType": "uint256[]",
          "name": "",
          "type": "uint256[]"
        }
      ],
      "stateMutability": "view",
      "type": "function",
      "constant": true
    }
  ],
  "bytecode": "0x60806040523480156200001157600080fd5b5062000032620000266200003860201b60201c565b6200004060201b60201c565b62000104565b600033905090565b60008060009054906101000a900473ffffffffffffffffffffffffffffffffffffffff169050816000806101000a81548173ffffffffffffffffffffffffffffffffffffffff021916908373ffffffffffffffffffffffffffffffffffffffff1602179055508173ffffffffffffffffffffffffffffffffffffffff168173ffffffffffffffffffffffffffffffffffffffff167f8be0079c531659141344cd1fd0a4f28419497f9722a3daafe3b4186f6b6457e060405160405180910390a35050565b61261980620001146000396000f3fe608060405234801561001057600080fd5b506004361061010b5760003560e01c80637c8dd0d6116100a2578063b6ca459511610071578063b6ca4595146102eb578063bdcf208c1461031b578063db7b1e1c14610337578063e0026ab314610367578063f2fde38b146103855761010b565b80637c8dd0d61461023957806380ec3727146102695780638a72ea6a146102995780638da5cb5b146102cd5761010b565b8063267e07d5116100de578063267e07d51461019b57806346747b38146101cb578063715018a6146101fb5780637acc0b20146102055761010b565b8063013cf08b146101105780630386a016146101455780630a9f46ad14610161578063116c327b1461017f575b600080fd5b61012a60048036038101906101259190611a53565b6103a1565b60405161013c96959493929190611e61565b60405180910390f35b61015f600480360381019061015a9190611a53565b61048f565b005b6101696105dc565b6040516101769190611f69565b60405180910390f35b6101996004803603810190610194919061193d565b6105e9565b005b6101b560048036038101906101b09190611a53565b61092b565b6040516101c29190611f69565b60405180910390f35b6101e560048036038101906101e09190611ac0565b6109a6565b6040516101f29190611de5565b60405180910390f35b610203610c6a565b005b61021f600480360381019061021a9190611a53565b610cf2565b604051610230959493929190612001565b60405180910390f35b610253600480360381019061024e9190611a80565b610d65565b6040516102609190611f69565b60405180910390f35b610283600480360381019061027e9190611910565b610e64565b6040516102909190611f69565b60405180910390f35b6102b360048036038101906102ae9190611a53565b610eb0565b6040516102c4959493929190611e07565b60405180910390f35b6102d5610fb8565b6040516102e29190611d55565b60405180910390f35b610305600480360381019061030091906119ec565b610fe1565b6040516103129190611f69565b60405180910390f35b61033560048036038101906103309190611aed565b6112af565b005b610351600480360381019061034c91906119ac565b6114b4565b60405161035e9190611f69565b60405180910390f35b61036f6114e5565b60405161037c9190611f69565b60405180910390f35b61039f600480360381019061039a9190611910565b6114f2565b005b600381815481106103b157600080fd5b90600052602060002090600602016000915090508060000180546103d4906122be565b80601f0160208091040260200160405190810160405280929190818152602001828054610400906122be565b801561044d5780601f106104225761010080835404028352916020019161044d565b820191906000526020600020905b81548152906001019060200180831161043057829003601f168201915b5050505050908060010160009054906101000a900460ff16908060020154908060030154908060040154908060050160009054906101000a900460ff16905086565b6104976115ea565b73ffffffffffffffffffffffffffffffffffffffff166104b5610fb8565b73ffffffffffffffffffffffffffffffffffffffff161461050b576040517f08c379a000000000000000000000000000000000000000000000000000000000815260040161050290611f29565b60405180910390fd5b806003805490508110610553576040517f08c379a000000000000000000000000000000000000000000000000000000000815260040161054a90611ec9565b60405180910390fd5b600160038381548110610569576105686123d8565b5b906000526020600020906006020160050160006101000a81548160ff0219169083600181111561059c5761059b61237a565b5b02179055507f95be977bdc5b7c8f1f7966571689b718b5b948029f3a5377ec2b1cc3dbb8985f826040516105d09190611f69565b60405180910390a15050565b6000600380549050905090565b6105f16115ea565b73ffffffffffffffffffffffffffffffffffffffff1661060f610fb8565b73ffffffffffffffffffffffffffffffffffffffff1614610665576040517f08c379a000000000000000000000000000000000000000000000000000000000815260040161065c90611f29565b60405180910390fd5b7f251fc0df7e56c36cfc4f618ef67296b8e2c41ce1ce473e5187bfec66743b38d38383604051610696929190611d70565b60405180910390a16106a66116b6565b83816060019073ffffffffffffffffffffffffffffffffffffffff16908173ffffffffffffffffffffffffffffffffffffffff16815250504281602001818152505060008160a0019060018111156107015761070061237a565b5b908160018111156107155761071461237a565b5b81525050610722826109a6565b81604001819052508281600001819052506001819080600181540180825580915050600190039060005260206000209060040201600090919091909150600082015181600001908051906020019061077b929190611726565b506020820151816001015560408201518160020190805190602001906107a29291906117ac565b5060608201518160030160006101000a81548173ffffffffffffffffffffffffffffffffffffffff021916908373ffffffffffffffffffffffffffffffffffffffff16021790555060808201518160030160146101000a81548160ff021916908360048111156108155761081461237a565b5b021790555060a08201518160030160156101000a81548160ff021916908360018111156108455761084461237a565b5b02179055505050600260008573ffffffffffffffffffffffffffffffffffffffff1673ffffffffffffffffffffffffffffffffffffffff1681526020019081526020016000206001808054905061089c9190612159565b90806001815401808255809150506001900390600052602060002001600090919091909150557f6a2d36566113fdc14dbc5b9458a0ba3a3eb54e394c2eb29fb26efdfee664f55e600180805490506108f49190612159565b8260600151836020015184608001518560400151878960405161091d9796959493929190611f84565b60405180910390a150505050565b6000816001805490508110610975576040517f08c379a000000000000000000000000000000000000000000000000000000000815260040161096c90611f49565b60405180910390fd5b60018381548110610989576109886123d8565b5b906000526020600020906004020160020180549050915050919050565b606060008060008460ff161415610a0a57600067ffffffffffffffff8111156109d2576109d1612407565b5b604051908082528060200260200182016040528015610a005781602001602082028036833780820191505090505b5092505050610c65565b60005b6003805490508160ff16108015610a27575060038260ff16105b15610af75760006001811115610a4057610a3f61237a565b5b60038260ff1681548110610a5757610a566123d8565b5b906000526020600020906006020160050160009054906101000a900460ff166001811115610a8857610a8761237a565b5b148015610ad0575060038160ff1681548110610aa757610aa66123d8565b5b906000526020600020906006020160010160009054906101000a900460ff1660ff168560ff1610155b15610ae4578180610ae090612321565b9250505b8080610aef90612321565b915050610a0d565b5060008160ff1667ffffffffffffffff811115610b1757610b16612407565b5b604051908082528060200260200182016040528015610b455781602001602082028036833780820191505090505b50905060005b6003805490508160ff16108015610b6757508260ff168460ff16105b15610c5d5760006001811115610b8057610b7f61237a565b5b60038260ff1681548110610b9757610b966123d8565b5b906000526020600020906006020160050160009054906101000a900460ff166001811115610bc857610bc761237a565b5b148015610c10575060038160ff1681548110610be757610be66123d8565b5b906000526020600020906006020160010160009054906101000a900460ff1660ff168660ff1610155b15610c4a578060ff16828560ff1681518110610c2f57610c2e6123d8565b5b6020026020010181815250508380610c4690612321565b9450505b8080610c5590612321565b915050610b4b565b508093505050505b919050565b610c726115ea565b73ffffffffffffffffffffffffffffffffffffffff16610c90610fb8565b73ffffffffffffffffffffffffffffffffffffffff1614610ce6576040517f08c379a0000000000000000000000000000000000000000000000000000000008152600401610cdd90611f29565b60405180910390fd5b610cf060006115f2565b565b60048181548110610d0257600080fd5b90600052602060002090600402016000915090508060000154908060010154908060020154908060030160009054906101000a900473ffffffffffffffffffffffffffffffffffffffff16908060030160149054906101000a900460ff16905085565b6000826001805490508110610daf576040517f08c379a0000000000000000000000000000000000000000000000000000000008152600401610da690611f49565b60405180910390fd5b60018481548110610dc357610dc26123d8565b5b9060005260206000209060040201600201805490508310610e19576040517f08c379a0000000000000000000000000000000000000000000000000000000008152600401610e1090611f09565b60405180910390fd5b60018481548110610e2d57610e2c6123d8565b5b90600052602060002090600402016002018381548110610e5057610e4f6123d8565b5b906000526020600020015491505092915050565b6000600260008373ffffffffffffffffffffffffffffffffffffffff1673ffffffffffffffffffffffffffffffffffffffff168152602001908152602001600020805490509050919050565b60018181548110610ec057600080fd5b9060005260206000209060040201600091509050806000018054610ee3906122be565b80601f0160208091040260200160405190810160405280929190818152602001828054610f0f906122be565b8015610f5c5780601f10610f3157610100808354040283529160200191610f5c565b820191906000526020600020905b815481529060010190602001808311610f3f57829003601f168201915b5050505050908060010154908060030160009054906101000a900473ffffffffffffffffffffffffffffffffffffffff16908060030160149054906101000a900460ff16908060030160159054906101000a900460ff16905085565b60008060009054906101000a900473ffffffffffffffffffffffffffffffffffffffff16905090565b6000610feb6115ea565b73ffffffffffffffffffffffffffffffffffffffff16611009610fb8565b73ffffffffffffffffffffffffffffffffffffffff161461105f576040517f08c379a000000000000000000000000000000000000000000000000000000000815260040161105690611f29565b60405180910390fd5b8160038054905081106110a7576040517f08c379a000000000000000000000000000000000000000000000000000000000815260040161109e90611ec9565b60405180910390fd5b8360018054905081106110ef576040517f08c379a00000000000000000000000000000000000000000000000000000000081526004016110e690611f49565b60405180910390fd5b6001808681548110611104576111036123d8565b5b906000526020600020906004020160030160156101000a81548160ff021916908360018111156111375761113661237a565b5b021790555060006040518060a001604052808881526020018781526020018681526020018973ffffffffffffffffffffffffffffffffffffffff1681526020016000600181111561118b5761118a61237a565b5b8152509050600481908060018154018082558091505060019003906000526020600020906004020160009091909190915060008201518160000155602082015181600101556040820151816002015560608201518160030160006101000a81548173ffffffffffffffffffffffffffffffffffffffff021916908373ffffffffffffffffffffffffffffffffffffffff16021790555060808201518160030160146101000a81548160ff0219169083600181111561124c5761124b61237a565b5b021790555050507ff6e4d5991d43b8f0508a8ded04e4b8f555c903a7bcba3ccb4d8486480c1ba947888888886040516112889493929190611da0565b60405180910390a160016004805490506112a29190612159565b9350505050949350505050565b6112b76115ea565b73ffffffffffffffffffffffffffffffffffffffff166112d5610fb8565b73ffffffffffffffffffffffffffffffffffffffff161461132b576040517f08c379a000000000000000000000000000000000000000000000000000000000815260040161132290611f29565b60405180910390fd5b6113336117f9565b84816020019060ff16908160ff1681525050838160400181815250508281606001818152505081816000018190525060008160a00190600181111561137b5761137a61237a565b5b9081600181111561138f5761138e61237a565b5b81525050600381908060018154018082558091505060019003906000526020600020906006020160009091909190915060008201518160000190805190602001906113db929190611726565b5060208201518160010160006101000a81548160ff021916908360ff16021790555060408201518160020155606082015181600301556080820151816004015560a08201518160050160006101000a81548160ff021916908360018111156114465761144561237a565b5b021790555050507f0dd92ec7c9e4620459d0f39f48975327d855d61513c1e839e5ae03d1ca76447260016003805490506114809190612159565b82602001518360400151846060015185600001516040516114a5959493929190612054565b60405180910390a15050505050565b600260205281600052604060002081815481106114d057600080fd5b90600052602060002001600091509150505481565b6000600180549050905090565b6114fa6115ea565b73ffffffffffffffffffffffffffffffffffffffff16611518610fb8565b73ffffffffffffffffffffffffffffffffffffffff161461156e576040517f08c379a000000000000000000000000000000000000000000000000000000000815260040161156590611f29565b60405180910390fd5b600073ffffffffffffffffffffffffffffffffffffffff168173ffffffffffffffffffffffffffffffffffffffff1614156115de576040517f08c379a00000000000000000000000000000000000000000000000000000000081526004016115d590611ee9565b60405180910390fd5b6115e7816115f2565b50565b600033905090565b60008060009054906101000a900473ffffffffffffffffffffffffffffffffffffffff169050816000806101000a81548173ffffffffffffffffffffffffffffffffffffffff021916908373ffffffffffffffffffffffffffffffffffffffff1602179055508173ffffffffffffffffffffffffffffffffffffffff168173ffffffffffffffffffffffffffffffffffffffff167f8be0079c531659141344cd1fd0a4f28419497f9722a3daafe3b4186f6b6457e060405160405180910390a35050565b6040518060c00160405280606081526020016000815260200160608152602001600073ffffffffffffffffffffffffffffffffffffffff168152602001600060048111156117075761170661237a565b5b8152602001600060018111156117205761171f61237a565b5b81525090565b828054611732906122be565b90600052602060002090601f016020900481019282611754576000855561179b565b82601f1061176d57805160ff191683800117855561179b565b8280016001018555821561179b579182015b8281111561179a57825182559160200191906001019061177f565b5b5090506117a89190611844565b5090565b8280548282559060005260206000209081019282156117e8579160200282015b828111156117e75782518255916020019190600101906117cc565b5b5090506117f59190611844565b5090565b6040518060c0016040528060608152602001600060ff1681526020016000815260200160008152602001600081526020016000600181111561183e5761183d61237a565b5b81525090565b5b8082111561185d576000816000905550600101611845565b5090565b600061187461186f846120d3565b6120ae565b9050828152602081018484840111156118905761188f61243b565b5b61189b84828561227c565b509392505050565b6000813590506118b28161259e565b92915050565b600082601f8301126118cd576118cc612436565b5b81356118dd848260208601611861565b91505092915050565b6000813590506118f5816125b5565b92915050565b60008135905061190a816125cc565b92915050565b60006020828403121561192657611925612445565b5b6000611934848285016118a3565b91505092915050565b60008060006060848603121561195657611955612445565b5b6000611964868287016118a3565b935050602084013567ffffffffffffffff81111561198557611984612440565b5b611991868287016118b8565b92505060406119a2868287016118fb565b9150509250925092565b600080604083850312156119c3576119c2612445565b5b60006119d1858286016118a3565b92505060206119e2858286016118e6565b9150509250929050565b60008060008060808587031215611a0657611a05612445565b5b6000611a14878288016118a3565b9450506020611a25878288016118e6565b9350506040611a36878288016118e6565b9250506060611a47878288016118e6565b91505092959194509250565b600060208284031215611a6957611a68612445565b5b6000611a77848285016118e6565b91505092915050565b60008060408385031215611a9757611a96612445565b5b6000611aa5858286016118e6565b9250506020611ab6858286016118e6565b9150509250929050565b600060208284031215611ad657611ad5612445565b5b6000611ae4848285016118fb565b91505092915050565b60008060008060808587031215611b0757611b06612445565b5b6000611b15878288016118fb565b9450506020611b26878288016118e6565b9350506040611b37878288016118e6565b925050606085013567ffffffffffffffff811115611b5857611b57612440565b5b611b64878288016118b8565b91505092959194509250565b6000611b7c8383611d19565b60208301905092915050565b611b918161218d565b82525050565b6000611ba282612114565b611bac8185612137565b9350611bb783612104565b8060005b83811015611be8578151611bcf8882611b70565b9750611bda8361212a565b925050600181019050611bbb565b5085935050505092915050565b611bfe81612222565b82525050565b611c0d81612234565b82525050565b611c1c81612246565b82525050565b611c2b81612258565b82525050565b6000611c3c8261211f565b611c468185612148565b9350611c5681856020860161228b565b611c5f8161244a565b840191505092915050565b6000611c77601683612148565b9150611c828261245b565b602082019050919050565b6000611c9a602683612148565b9150611ca582612484565b604082019050919050565b6000611cbd600d83612148565b9150611cc8826124d3565b602082019050919050565b6000611ce0602083612148565b9150611ceb826124fc565b602082019050919050565b6000611d03601383612148565b9150611d0e82612525565b602082019050919050565b611d228161220b565b82525050565b611d318161220b565b82525050565b611d408161226a565b82525050565b611d4f81612215565b82525050565b6000602082019050611d6a6000830184611b88565b92915050565b6000604082019050611d856000830185611b88565b8181036020830152611d978184611c31565b90509392505050565b6000608082019050611db56000830187611b88565b611dc26020830186611d28565b611dcf6040830185611d28565b611ddc6060830184611d28565b95945050505050565b60006020820190508181036000830152611dff8184611b97565b905092915050565b600060a0820190508181036000830152611e218188611c31565b9050611e306020830187611d28565b611e3d6040830186611b88565b611e4a6060830185611bf5565b611e576080830184611c04565b9695505050505050565b600060c0820190508181036000830152611e7b8189611c31565b9050611e8a6020830188611d46565b611e976040830187611d28565b611ea46060830186611d28565b611eb16080830185611d28565b611ebe60a0830184611c22565b979650505050505050565b60006020820190508181036000830152611ee281611c6a565b9050919050565b60006020820190508181036000830152611f0281611c8d565b9050919050565b60006020820190508181036000830152611f2281611cb0565b9050919050565b60006020820190508181036000830152611f4281611cd3565b9050919050565b60006020820190508181036000830152611f6281611cf6565b9050919050565b6000602082019050611f7e6000830184611d28565b92915050565b600060e082019050611f99600083018a611d28565b611fa66020830189611b88565b611fb36040830188611d28565b611fc06060830187611bf5565b8181036080830152611fd28186611b97565b9050611fe160a0830185611d37565b81810360c0830152611ff38184611c31565b905098975050505050505050565b600060a0820190506120166000830188611d28565b6120236020830187611d28565b6120306040830186611d28565b61203d6060830185611b88565b61204a6080830184611c13565b9695505050505050565b600060a0820190506120696000830188611d28565b6120766020830187611d46565b6120836040830186611d28565b6120906060830185611d28565b81810360808301526120a28184611c31565b90509695505050505050565b60006120b86120c9565b90506120c482826122f0565b919050565b6000604051905090565b600067ffffffffffffffff8211156120ee576120ed612407565b5b6120f78261244a565b9050602081019050919050565b6000819050602082019050919050565b600081519050919050565b600081519050919050565b6000602082019050919050565b600082825260208201905092915050565b600082825260208201905092915050565b60006121648261220b565b915061216f8361220b565b9250828210156121825761218161234b565b5b828203905092915050565b6000612198826121eb565b9050919050565b60008190506121ad8261254e565b919050565b60008190506121c082612562565b919050565b60008190506121d382612576565b919050565b60008190506121e68261258a565b919050565b600073ffffffffffffffffffffffffffffffffffffffff82169050919050565b6000819050919050565b600060ff82169050919050565b600061222d8261219f565b9050919050565b600061223f826121b2565b9050919050565b6000612251826121c5565b9050919050565b6000612263826121d8565b9050919050565b600061227582612215565b9050919050565b82818337600083830152505050565b60005b838110156122a957808201518184015260208101905061228e565b838111156122b8576000848401525b50505050565b600060028204905060018216806122d657607f821691505b602082108114156122ea576122e96123a9565b5b50919050565b6122f98261244a565b810181811067ffffffffffffffff8211171561231857612317612407565b5b80604052505050565b600061232c82612215565b915060ff8214156123405761233f61234b565b5b600182019050919050565b7f4e487b7100000000000000000000000000000000000000000000000000000000600052601160045260246000fd5b7f4e487b7100000000000000000000000000000000000000000000000000000000600052602160045260246000fd5b7f4e487b7100000000000000000000000000000000000000000000000000000000600052602260045260246000fd5b7f4e487b7100000000000000000000000000000000000000000000000000000000600052603260045260246000fd5b7f4e487b7100000000000000000000000000000000000000000000000000000000600052604160045260246000fd5b600080fd5b600080fd5b600080fd5b600080fd5b6000601f19601f8301169050919050565b7f50726f706f73616c20646f65736e277420657869737400000000000000000000600082015250565b7f4f776e61626c653a206e6577206f776e657220697320746865207a65726f206160008201527f6464726573730000000000000000000000000000000000000000000000000000602082015250565b7f496e76616c696420696e64657800000000000000000000000000000000000000600082015250565b7f4f776e61626c653a2063616c6c6572206973206e6f7420746865206f776e6572600082015250565b7f4f6666657220646f65736e277420657869737400000000000000000000000000600082015250565b6005811061255f5761255e61237a565b5b50565b600281106125735761257261237a565b5b50565b600281106125875761258661237a565b5b50565b6002811061259b5761259a61237a565b5b50565b6125a78161218d565b81146125b257600080fd5b50565b6125be8161220b565b81146125c957600080fd5b50565b6125d581612215565b81146125e057600080fd5b5056fea2646970667358221220705130e86bfdf2ced45a9c756e4379966646b262e65f626a536d600526fc946864736f6c63430008060033",
  "immutableReferences": {},
  "source": "// SPDX-License-Identifier: MIT\npragma solidity 0.8.6;\n\nimport \"@openzeppelin/contracts/access/Ownable.sol\";\n\n/**\n * @title This Smart Contract is responsible to generate the offers for customers.\n * @notice Manage all aspects related to offering (proposals, customers and products management)\n * @author Keeymon, DavidRochus\n */\ncontract Offering is Ownable {\n    /**\n     * @dev Offer status\n     */\n    enum OfferStatus {\n        New,\n        Accepted\n    }\n\n    /**\n     * @dev Product status\n     */\n    enum ProductStatus {\n        Active,\n        Closed\n    }\n\n    /**\n     * @dev Proposal status\n     */\n    enum ProposalStatus {\n        Active,\n        Closed\n    }\n\n    /**\n     * @dev Eligibility reasons\n     */\n    enum EligibilityReason {\n        None,\n        UnknowUser,\n        LowUser,\n        DoubleSpent,\n        Other\n    }\n\n    /**\n     * @dev Offer information\n     */\n    struct Offer {\n        string ref;\n        uint256 timestamp;\n        uint256[] proposals;\n        address phoneHash;\n        EligibilityReason reason;\n        OfferStatus status;\n    }\n\n    /**\n     * @dev Product information\n     */\n    struct Product {\n        uint256 timestamp;\n        uint256 offerId;\n        uint256 proposalId;\n        address phoneHash;\n        ProductStatus status;\n    }\n\n    /**\n     * @dev Proposal information\n     */\n    struct Proposal {\n        string description;\n        uint8 minScoring;\n        uint256 capital;\n        uint256 interest;\n        uint256 validityPeriod;\n        ProposalStatus status;\n    }\n\n    /**\n     * @dev Offers table\n     */\n    Offer[] public offers;\n\n    /**\n     * @dev Mapping to access offers related to a phoneHash\n     */\n    mapping(address => uint256[]) public offerList;\n\n    /**\n     * @dev Proposals table\n     */\n    Proposal[] public proposals;\n\n    /**\n     * @dev Products table\n     */\n    Product[] public products;\n\n    /**\n     * @dev Triggered when a proposal is added\n     */\n    event ProposalAdded(\n        uint256 proposalId,\n        uint8 minScoring,\n        uint256 capital,\n        uint256 interest,\n        string description\n    );\n    /**\n     * @dev Triggered when a proposal is closed\n     */\n    event ClosedProposal(uint256 proposalId);\n\n    /**\n     * @dev Triggered when a product is created\n     */\n    event ProductCreated(\n        address phoneHash,\n        uint256 timestamp,\n        uint256 offerId,\n        uint256 proposalId\n    );\n\n    /**\n     * @dev Triggered when a lowBalance is received\n     */\n    event LowBalanceReceived(address phoneHash, string ref);\n\n    /**\n     * @dev Triggered when an offer has to be sent\n     */\n    event OfferSent(\n        uint256 offerId,\n        address phoneHash,\n        uint256 timestamp,\n        EligibilityReason reason,\n        uint256[] proposals,\n        uint256 scoring,\n        string ref\n    );\n\n    /**\n     * @dev Triggered when an acceptance is received\n     */\n    event AcceptanceReceived(\n        address phoneHash,\n        uint256 offerId,\n        uint256 proposalId\n    );\n    /**\n     * @dev Triggered when a confirmation has to be sent\n     */\n    event ConfirmationSent(\n        uint256 productId,\n        uint256 offerId,\n        address phoneHash,\n        uint256 timestamp\n    );\n\n    /**\n     * @dev Triggered when a topUp is received\n     */\n    event TopUpReceived(address phoneHash, uint256 productId, uint256 amount);\n\n    /**\n     * @dev Triggered when an acknowledge has to be sent\n     */\n    event AcknowledgeSent(address phoneHash, uint256 productId, uint256 amount);\n\n    /**\n     * @dev Check if proposal exists\n     */\n    modifier existProposal(uint256 id) {\n        require(id < proposals.length, \"Proposal doesn't exist\");\n        _;\n    }\n\n    /**\n     * @dev Check if offer exists\n     */\n    modifier existOffer(uint256 id) {\n        require(id < offers.length, \"Offer doesn't exist\");\n        _;\n    }\n    /**\n     * @dev Check if product exists\n     */\n    modifier existProduct(uint256 id) {\n        require(id < products.length, \"Product doesn't exist\");\n        _;\n    }\n\n    /**\n     * @dev Smart Contract constructor\n     */\n    constructor() {}\n\n    /**\n     * @notice Add a proposal\n     * @param _minScoring The minimum score needed by customer to receive this proposal\n     * @param _capital Capital part of the proposal amount\n     * @param _interest Interest part of the proposal amount\n     * @param _description A description of the proposal\n     * @dev Add a proposal with the following information: minimum scoring `_minScoring`, amount `_capital` + `_interest`, description `_description`\n     */\n    function addProposal(\n        uint8 _minScoring,\n        uint256 _capital,\n        uint256 _interest,\n        string memory _description\n    ) external onlyOwner {\n        Proposal memory proposalData;\n        proposalData.minScoring = _minScoring;\n        proposalData.capital = _capital;\n        proposalData.interest = _interest;\n        proposalData.description = _description;\n        proposalData.status = ProposalStatus.Active;\n        proposals.push(proposalData);\n        emit ProposalAdded(\n            (proposals.length - 1),\n            proposalData.minScoring,\n            proposalData.capital,\n            proposalData.interest,\n            proposalData.description\n        );\n    }\n\n    /**\n     * @notice Close a proposal\n     * @param _id ID of the proposal to close\n     * @dev Close the proposal with the ID `_id`\n     */\n    function closeProposal(uint256 _id) external onlyOwner existProposal(_id) {\n        proposals[_id].status = ProposalStatus.Closed;\n        emit ClosedProposal(_id);\n    }\n\n    /**\n     * @notice Number of proposals\n     * @dev Return the number of proposals\n     */\n    function proposalsCount() external view returns (uint256) {\n        return proposals.length;\n    }\n\n    /**\n     * @notice Number of proposal in an offer\n     * @param _offerId The ID of the offer\n     * @dev Return the number of proposal in an offer\n     */\n    function getProposalOfferSize(uint256 _offerId)\n        external\n        view\n        existOffer(_offerId)\n        returns (uint256)\n    {\n        return offers[_offerId].proposals.length;\n    }\n\n    /**\n     * @notice Get the size of the Offers of a customer\n     * @param _phoneHash The address that identifies to the customer\n     * @dev Get the size of the Offers of a customer (identified with `_phoneHash`)\n     */\n    function getOfferSize(address _phoneHash) external view returns (uint256) {\n        return offerList[_phoneHash].length;\n    }\n\n    /**\n     * @notice Get the size of all the offers\n     * @dev Get the size of all the offers\n     */\n    function getOffersSize() external view returns (uint256) {\n        return offers.length;\n    }\n\n    /**\n     * @notice Get the ID proposal in offer\n     * @param _offerId The ID of the offer\n     * @param _id The ID of the array proposal in an offer\n     * @dev Return the ID proposal in offer\n     */\n    function getIndexProposalOffer(uint256 _offerId, uint256 _id)\n        external\n        view\n        existOffer(_offerId)\n        returns (uint256)\n    {\n        require(_id < offers[_offerId].proposals.length, \"Invalid index\");\n        return offers[_offerId].proposals[_id];\n    }\n\n    /**\n     * @notice Manage the \"low balances\" received and generate an offer\n     * @param _phoneHash The address that identifies to the customer\n     * @param _ref Reference of the telecom provider\n     * @param _score score of the customer\n     * @dev Manage lowBalance (with reference `_ref`) of a customer (identified with `_phoneHash`) and generate an offer based on the score `_score`\n     */\n    function lowBalanceOffering(\n        address _phoneHash,\n        string memory _ref,\n        uint8 _score\n    ) external onlyOwner {\n        emit LowBalanceReceived(_phoneHash, _ref);\n        Offer memory offerData;\n        offerData.phoneHash = _phoneHash;\n        offerData.timestamp = block.timestamp;\n        offerData.status = OfferStatus.New;\n        offerData.proposals = getOfferProposals(_score);\n        offerData.ref = _ref;\n        offers.push(offerData);\n        offerList[_phoneHash].push(offers.length - 1);\n        emit OfferSent(\n            (offers.length - 1),\n            offerData.phoneHash,\n            offerData.timestamp,\n            offerData.reason,\n            offerData.proposals,\n            _score,\n            _ref\n        );\n    }\n\n    /**\n     * @notice Create a product\n     * @param _phoneHash The address that identifies to the customer\n     * @param _acceptanceTimestamp Timestamp of the acceptance\n     * @param _offerId ID of the offer\n     * @param _proposalId ID of the proposal\n     * @dev Create a product with the following information: a customer (identified with `_phoneHash`), an offer ID `_offerId`, a proposal ID `_proposalId` and a timestamp `_acceptanceTimestamp`\n     */\n    function createProduct(\n        address _phoneHash,\n        uint256 _acceptanceTimestamp,\n        uint256 _offerId,\n        uint256 _proposalId\n    )\n        external\n        onlyOwner\n        existProposal(_proposalId)\n        existOffer(_offerId)\n        returns (uint256)\n    {\n        offers[_offerId].status = OfferStatus.Accepted;\n        Product memory product = Product(\n            _acceptanceTimestamp,\n            _offerId,\n            _proposalId,\n            _phoneHash,\n            ProductStatus.Active\n        );\n        products.push(product);\n        emit ProductCreated(\n            _phoneHash,\n            _acceptanceTimestamp,\n            _offerId,\n            _proposalId\n        );\n        return (products.length - 1);\n    }\n\n    /**\n     * @notice Get the proposals corresponding to the scoring\n     * @param _scoring score of the customer\n     * @return Proposals\n     * @dev Return the proposals that correspond to the given scoring `_scoring`\n     */\n    function getOfferProposals(uint8 _scoring)\n        public\n        view\n        returns (uint256[] memory)\n    {\n        uint8 offerProposalsIndex;\n        uint8 offerProposalsSize;\n        if (_scoring == 0) {\n            return (new uint256[](0));\n        }\n        for (\n            uint8 i = 0;\n            (i < proposals.length && offerProposalsSize < 3);\n            i++\n        ) {\n            if (\n                proposals[i].status == ProposalStatus.Active &&\n                _scoring >= proposals[i].minScoring\n            ) {\n                offerProposalsSize++;\n            }\n        }\n        uint256[] memory offerProposals = new uint256[](offerProposalsSize);\n        for (\n            uint8 i = 0;\n            (i < proposals.length && offerProposalsIndex < offerProposalsSize);\n            i++\n        ) {\n            if (\n                proposals[i].status == ProposalStatus.Active &&\n                _scoring >= proposals[i].minScoring\n            ) {\n                offerProposals[offerProposalsIndex] = i;\n                offerProposalsIndex++;\n            }\n        }\n        return offerProposals;\n    }\n}\n",
  "sourcePath": "/Users/davidrochus/Dev/workspace/timelapse/contracts/Offering.sol",
  "compiler": {
    "name": "solc",
    "version": "0.8.6+commit.11564f7e.Emscripten.clang"
  },
  "schemaVersion": "3.4.1",
  "updatedAt": "2021-07-26T21:40:02.420Z",
  "networkType": "ethereum",
  "devdoc": {
    "author": "Keeymon, DavidRochus",
    "events": {
      "AcceptanceReceived(address,uint256,uint256)": {
        "details": "Triggered when an acceptance is received"
      },
      "AcknowledgeSent(address,uint256,uint256)": {
        "details": "Triggered when an acknowledge has to be sent"
      },
      "ClosedProposal(uint256)": {
        "details": "Triggered when a proposal is closed"
      },
      "ConfirmationSent(uint256,uint256,address,uint256)": {
        "details": "Triggered when a confirmation has to be sent"
      },
      "LowBalanceReceived(address,string)": {
        "details": "Triggered when a lowBalance is received"
      },
      "OfferSent(uint256,address,uint256,uint8,uint256[],uint256,string)": {
        "details": "Triggered when an offer has to be sent"
      },
      "ProductCreated(address,uint256,uint256,uint256)": {
        "details": "Triggered when a product is created"
      },
      "ProposalAdded(uint256,uint8,uint256,uint256,string)": {
        "details": "Triggered when a proposal is added"
      },
      "TopUpReceived(address,uint256,uint256)": {
        "details": "Triggered when a topUp is received"
      }
    },
    "kind": "dev",
    "methods": {
      "addProposal(uint8,uint256,uint256,string)": {
        "details": "Add a proposal with the following information: minimum scoring `_minScoring`, amount `_capital` + `_interest`, description `_description`",
        "params": {
          "_capital": "Capital part of the proposal amount",
          "_description": "A description of the proposal",
          "_interest": "Interest part of the proposal amount",
          "_minScoring": "The minimum score needed by customer to receive this proposal"
        }
      },
      "closeProposal(uint256)": {
        "details": "Close the proposal with the ID `_id`",
        "params": {
          "_id": "ID of the proposal to close"
        }
      },
      "constructor": {
        "details": "Smart Contract constructor"
      },
      "createProduct(address,uint256,uint256,uint256)": {
        "details": "Create a product with the following information: a customer (identified with `_phoneHash`), an offer ID `_offerId`, a proposal ID `_proposalId` and a timestamp `_acceptanceTimestamp`",
        "params": {
          "_acceptanceTimestamp": "Timestamp of the acceptance",
          "_offerId": "ID of the offer",
          "_phoneHash": "The address that identifies to the customer",
          "_proposalId": "ID of the proposal"
        }
      },
      "getIndexProposalOffer(uint256,uint256)": {
        "details": "Return the ID proposal in offer",
        "params": {
          "_id": "The ID of the array proposal in an offer",
          "_offerId": "The ID of the offer"
        }
      },
      "getOfferProposals(uint8)": {
        "details": "Return the proposals that correspond to the given scoring `_scoring`",
        "params": {
          "_scoring": "score of the customer"
        },
        "returns": {
          "_0": "Proposals"
        }
      },
      "getOfferSize(address)": {
        "details": "Get the size of the Offers of a customer (identified with `_phoneHash`)",
        "params": {
          "_phoneHash": "The address that identifies to the customer"
        }
      },
      "getOffersSize()": {
        "details": "Get the size of all the offers"
      },
      "getProposalOfferSize(uint256)": {
        "details": "Return the number of proposal in an offer",
        "params": {
          "_offerId": "The ID of the offer"
        }
      },
      "lowBalanceOffering(address,string,uint8)": {
        "details": "Manage lowBalance (with reference `_ref`) of a customer (identified with `_phoneHash`) and generate an offer based on the score `_score`",
        "params": {
          "_phoneHash": "The address that identifies to the customer",
          "_ref": "Reference of the telecom provider",
          "_score": "score of the customer"
        }
      },
      "owner()": {
        "details": "Returns the address of the current owner."
      },
      "proposalsCount()": {
        "details": "Return the number of proposals"
      },
      "renounceOwnership()": {
        "details": "Leaves the contract without owner. It will not be possible to call `onlyOwner` functions anymore. Can only be called by the current owner. NOTE: Renouncing ownership will leave the contract without an owner, thereby removing any functionality that is only available to the owner."
      },
      "transferOwnership(address)": {
        "details": "Transfers ownership of the contract to a new account (`newOwner`). Can only be called by the current owner."
      }
    },
    "stateVariables": {
      "offerList": {
        "details": "Mapping to access offers related to a phoneHash"
      },
      "offers": {
        "details": "Offers table"
      },
      "products": {
        "details": "Products table"
      },
      "proposals": {
        "details": "Proposals table"
      }
    },
    "title": "This Smart Contract is responsible to generate the offers for customers.",
    "version": 1
  },
  "userdoc": {
    "kind": "user",
    "methods": {
      "addProposal(uint8,uint256,uint256,string)": {
        "notice": "Add a proposal"
      },
      "closeProposal(uint256)": {
        "notice": "Close a proposal"
      },
      "createProduct(address,uint256,uint256,uint256)": {
        "notice": "Create a product"
      },
      "getIndexProposalOffer(uint256,uint256)": {
        "notice": "Get the ID proposal in offer"
      },
      "getOfferProposals(uint8)": {
        "notice": "Get the proposals corresponding to the scoring"
      },
      "getOfferSize(address)": {
        "notice": "Get the size of the Offers of a customer"
      },
      "getOffersSize()": {
        "notice": "Get the size of all the offers"
      },
      "getProposalOfferSize(uint256)": {
        "notice": "Number of proposal in an offer"
      },
      "lowBalanceOffering(address,string,uint8)": {
        "notice": "Manage the \"low balances\" received and generate an offer"
      },
      "proposalsCount()": {
        "notice": "Number of proposals"
      }
    },
    "notice": "Manage all aspects related to offering (proposals, customers and products management)",
    "version": 1
  }
}