{
  "contractName": "Offering",
  "abi": [
    {
      "inputs": [],
      "stateMutability": "nonpayable",
      "type": "constructor"
    },
    {
      "anonymous": false,
      "inputs": [
        {
          "indexed": false,
          "internalType": "address",
          "name": "phoneHash",
          "type": "address"
        },
        {
          "indexed": false,
          "internalType": "uint256",
          "name": "offerId",
          "type": "uint256"
        },
        {
          "indexed": false,
          "internalType": "uint256",
          "name": "proposalId",
          "type": "uint256"
        }
      ],
      "name": "AcceptanceReceived",
      "type": "event"
    },
    {
      "anonymous": false,
      "inputs": [
        {
          "indexed": false,
          "internalType": "address",
          "name": "phoneHash",
          "type": "address"
        },
        {
          "indexed": false,
          "internalType": "uint256",
          "name": "productId",
          "type": "uint256"
        },
        {
          "indexed": false,
          "internalType": "uint256",
          "name": "amount",
          "type": "uint256"
        }
      ],
      "name": "AcknowledgeSent",
      "type": "event"
    },
    {
      "anonymous": false,
      "inputs": [
        {
          "indexed": false,
          "internalType": "uint256",
          "name": "proposalId",
          "type": "uint256"
        }
      ],
      "name": "ClosedProposal",
      "type": "event"
    },
    {
      "anonymous": false,
      "inputs": [
        {
          "indexed": false,
          "internalType": "uint256",
          "name": "productId",
          "type": "uint256"
        },
        {
          "indexed": false,
          "internalType": "uint256",
          "name": "offerId",
          "type": "uint256"
        },
        {
          "indexed": false,
          "internalType": "address",
          "name": "phoneHash",
          "type": "address"
        },
        {
          "indexed": false,
          "internalType": "uint256",
          "name": "timestamp",
          "type": "uint256"
        }
      ],
      "name": "ConfirmationSent",
      "type": "event"
    },
    {
      "anonymous": false,
      "inputs": [
        {
          "indexed": false,
          "internalType": "address",
          "name": "phoneHash",
          "type": "address"
        },
        {
          "indexed": false,
          "internalType": "string",
          "name": "ref",
          "type": "string"
        }
      ],
      "name": "LowBalanceReceived",
      "type": "event"
    },
    {
      "anonymous": false,
      "inputs": [
        {
          "indexed": false,
          "internalType": "uint256",
          "name": "offerId",
          "type": "uint256"
        },
        {
          "indexed": false,
          "internalType": "address",
          "name": "phoneHash",
          "type": "address"
        },
        {
          "indexed": false,
          "internalType": "uint256",
          "name": "timestamp",
          "type": "uint256"
        },
        {
          "indexed": false,
          "internalType": "enum Offering.EligibilityReason",
          "name": "reason",
          "type": "uint8"
        },
        {
          "indexed": false,
          "internalType": "uint256[]",
          "name": "proposals",
          "type": "uint256[]"
        },
        {
          "indexed": false,
          "internalType": "uint256",
          "name": "scoring",
          "type": "uint256"
        },
        {
          "indexed": false,
          "internalType": "string",
          "name": "ref",
          "type": "string"
        }
      ],
      "name": "OfferSent",
      "type": "event"
    },
    {
      "anonymous": false,
      "inputs": [
        {
          "indexed": true,
          "internalType": "address",
          "name": "previousOwner",
          "type": "address"
        },
        {
          "indexed": true,
          "internalType": "address",
          "name": "newOwner",
          "type": "address"
        }
      ],
      "name": "OwnershipTransferred",
      "type": "event"
    },
    {
      "anonymous": false,
      "inputs": [
        {
          "indexed": false,
          "internalType": "address",
          "name": "phoneHash",
          "type": "address"
        },
        {
          "indexed": false,
          "internalType": "uint256",
          "name": "timestamp",
          "type": "uint256"
        },
        {
          "indexed": false,
          "internalType": "uint256",
          "name": "offerId",
          "type": "uint256"
        },
        {
          "indexed": false,
          "internalType": "uint256",
          "name": "proposalId",
          "type": "uint256"
        }
      ],
      "name": "ProductCreated",
      "type": "event"
    },
    {
      "anonymous": false,
      "inputs": [
        {
          "indexed": false,
          "internalType": "uint256",
          "name": "proposalId",
          "type": "uint256"
        },
        {
          "indexed": false,
          "internalType": "uint8",
          "name": "minScoring",
          "type": "uint8"
        },
        {
          "indexed": false,
          "internalType": "uint256",
          "name": "capital",
          "type": "uint256"
        },
        {
          "indexed": false,
          "internalType": "uint256",
          "name": "interest",
          "type": "uint256"
        },
        {
          "indexed": false,
          "internalType": "string",
          "name": "description",
          "type": "string"
        }
      ],
      "name": "ProposalAdded",
      "type": "event"
    },
    {
      "anonymous": false,
      "inputs": [
        {
          "indexed": false,
          "internalType": "address",
          "name": "phoneHash",
          "type": "address"
        },
        {
          "indexed": false,
          "internalType": "uint256",
          "name": "productId",
          "type": "uint256"
        },
        {
          "indexed": false,
          "internalType": "uint256",
          "name": "amount",
          "type": "uint256"
        }
      ],
      "name": "TopUpReceived",
      "type": "event"
    },
    {
      "inputs": [
        {
          "internalType": "address",
          "name": "",
          "type": "address"
        },
        {
          "internalType": "uint256",
          "name": "",
          "type": "uint256"
        }
      ],
      "name": "offerList",
      "outputs": [
        {
          "internalType": "uint256",
          "name": "",
          "type": "uint256"
        }
      ],
      "stateMutability": "view",
      "type": "function",
      "constant": true
    },
    {
      "inputs": [
        {
          "internalType": "uint256",
          "name": "",
          "type": "uint256"
        }
      ],
      "name": "offers",
      "outputs": [
        {
          "internalType": "address",
          "name": "phoneHash",
          "type": "address"
        },
        {
          "internalType": "uint256",
          "name": "timestamp",
          "type": "uint256"
        },
        {
          "internalType": "enum Offering.EligibilityReason",
          "name": "reason",
          "type": "uint8"
        },
        {
          "internalType": "enum Offering.OfferStatus",
          "name": "status",
          "type": "uint8"
        },
        {
          "internalType": "string",
          "name": "ref",
          "type": "string"
        }
      ],
      "stateMutability": "view",
      "type": "function",
      "constant": true
    },
    {
      "inputs": [],
      "name": "owner",
      "outputs": [
        {
          "internalType": "address",
          "name": "",
          "type": "address"
        }
      ],
      "stateMutability": "view",
      "type": "function",
      "constant": true
    },
    {
      "inputs": [
        {
          "internalType": "uint256",
          "name": "",
          "type": "uint256"
        }
      ],
      "name": "products",
      "outputs": [
        {
          "internalType": "address",
          "name": "phoneHash",
          "type": "address"
        },
        {
          "internalType": "uint256",
          "name": "timestamp",
          "type": "uint256"
        },
        {
          "internalType": "uint256",
          "name": "offerId",
          "type": "uint256"
        },
        {
          "internalType": "uint256",
          "name": "proposalId",
          "type": "uint256"
        },
        {
          "internalType": "enum Offering.ProductStatus",
          "name": "status",
          "type": "uint8"
        }
      ],
      "stateMutability": "view",
      "type": "function",
      "constant": true
    },
    {
      "inputs": [
        {
          "internalType": "uint256",
          "name": "",
          "type": "uint256"
        }
      ],
      "name": "proposals",
      "outputs": [
        {
          "internalType": "uint8",
          "name": "minScoring",
          "type": "uint8"
        },
        {
          "internalType": "uint256",
          "name": "capital",
          "type": "uint256"
        },
        {
          "internalType": "uint256",
          "name": "interest",
          "type": "uint256"
        },
        {
          "internalType": "uint256",
          "name": "validityPeriod",
          "type": "uint256"
        },
        {
          "internalType": "string",
          "name": "description",
          "type": "string"
        },
        {
          "internalType": "enum Offering.ProposalStatus",
          "name": "status",
          "type": "uint8"
        }
      ],
      "stateMutability": "view",
      "type": "function",
      "constant": true
    },
    {
      "inputs": [],
      "name": "renounceOwnership",
      "outputs": [],
      "stateMutability": "nonpayable",
      "type": "function"
    },
    {
      "inputs": [
        {
          "internalType": "address",
          "name": "newOwner",
          "type": "address"
        }
      ],
      "name": "transferOwnership",
      "outputs": [],
      "stateMutability": "nonpayable",
      "type": "function"
    },
    {
      "inputs": [
        {
          "internalType": "uint8",
          "name": "_minScoring",
          "type": "uint8"
        },
        {
          "internalType": "uint256",
          "name": "_capital",
          "type": "uint256"
        },
        {
          "internalType": "uint256",
          "name": "_interest",
          "type": "uint256"
        },
        {
          "internalType": "string",
          "name": "_description",
          "type": "string"
        }
      ],
      "name": "addProposal",
      "outputs": [],
      "stateMutability": "nonpayable",
      "type": "function"
    },
    {
      "inputs": [
        {
          "internalType": "uint256",
          "name": "_id",
          "type": "uint256"
        }
      ],
      "name": "closeProposal",
      "outputs": [],
      "stateMutability": "nonpayable",
      "type": "function"
    },
    {
      "inputs": [],
      "name": "proposalsCount",
      "outputs": [
        {
          "internalType": "uint256",
          "name": "",
          "type": "uint256"
        }
      ],
      "stateMutability": "view",
      "type": "function",
      "constant": true
    },
    {
      "inputs": [
        {
          "internalType": "uint256",
          "name": "_offerId",
          "type": "uint256"
        }
      ],
      "name": "getProposalOfferSize",
      "outputs": [
        {
          "internalType": "uint256",
          "name": "",
          "type": "uint256"
        }
      ],
      "stateMutability": "view",
      "type": "function",
      "constant": true
    },
    {
      "inputs": [
        {
          "internalType": "address",
          "name": "_phoneHash",
          "type": "address"
        }
      ],
      "name": "getOfferSize",
      "outputs": [
        {
          "internalType": "uint256",
          "name": "",
          "type": "uint256"
        }
      ],
      "stateMutability": "view",
      "type": "function",
      "constant": true
    },
    {
      "inputs": [],
      "name": "getOffersSize",
      "outputs": [
        {
          "internalType": "uint256",
          "name": "",
          "type": "uint256"
        }
      ],
      "stateMutability": "view",
      "type": "function",
      "constant": true
    },
    {
      "inputs": [
        {
          "internalType": "uint256",
          "name": "_offerId",
          "type": "uint256"
        },
        {
          "internalType": "uint256",
          "name": "_id",
          "type": "uint256"
        }
      ],
      "name": "getIndexProposalOffer",
      "outputs": [
        {
          "internalType": "uint256",
          "name": "",
          "type": "uint256"
        }
      ],
      "stateMutability": "view",
      "type": "function",
      "constant": true
    },
    {
      "inputs": [
        {
          "internalType": "address",
          "name": "_phoneHash",
          "type": "address"
        },
        {
          "internalType": "string",
          "name": "_ref",
          "type": "string"
        },
        {
          "internalType": "uint8",
          "name": "_score",
          "type": "uint8"
        }
      ],
      "name": "lowBalanceOffering",
      "outputs": [],
      "stateMutability": "nonpayable",
      "type": "function"
    },
    {
      "inputs": [
        {
          "internalType": "address",
          "name": "_phoneHash",
          "type": "address"
        },
        {
          "internalType": "uint256",
          "name": "_acceptanceTimestamp",
          "type": "uint256"
        },
        {
          "internalType": "uint256",
          "name": "_offerId",
          "type": "uint256"
        },
        {
          "internalType": "uint256",
          "name": "_proposalId",
          "type": "uint256"
        }
      ],
      "name": "createProduct",
      "outputs": [
        {
          "internalType": "uint256",
          "name": "",
          "type": "uint256"
        }
      ],
      "stateMutability": "nonpayable",
      "type": "function"
    },
    {
      "inputs": [
        {
          "internalType": "uint8",
          "name": "_scoring",
          "type": "uint8"
        }
      ],
      "name": "getOfferProposals",
      "outputs": [
        {
          "internalType": "uint256[]",
          "name": "",
          "type": "uint256[]"
        }
      ],
      "stateMutability": "view",
      "type": "function",
      "constant": true
    },
    {
      "inputs": [
        {
          "internalType": "uint256[]",
          "name": "_offerProposals",
          "type": "uint256[]"
        },
        {
          "internalType": "uint8",
          "name": "_offerProposalsCount",
          "type": "uint8"
        }
      ],
      "name": "trimOfferProposals",
      "outputs": [
        {
          "internalType": "uint256[]",
          "name": "",
          "type": "uint256[]"
        }
      ],
      "stateMutability": "pure",
      "type": "function",
      "constant": true
    }
  ],
  "bytecode": "0x60806040523480156200001157600080fd5b5062000032620000266200003860201b60201c565b6200004060201b60201c565b62000104565b600033905090565b60008060009054906101000a900473ffffffffffffffffffffffffffffffffffffffff169050816000806101000a81548173ffffffffffffffffffffffffffffffffffffffff021916908373ffffffffffffffffffffffffffffffffffffffff1602179055508173ffffffffffffffffffffffffffffffffffffffff168173ffffffffffffffffffffffffffffffffffffffff167f8be0079c531659141344cd1fd0a4f28419497f9722a3daafe3b4186f6b6457e060405160405180910390a35050565b61270b80620001146000396000f3fe608060405234801561001057600080fd5b50600436106101165760003560e01c806380ec3727116100a2578063b6ca459511610071578063b6ca459514610326578063bdcf208c14610356578063db7b1e1c14610372578063e0026ab3146103a2578063f2fde38b146103c057610116565b806380ec3727146102745780638a72ea6a146102a45780638da5cb5b146102d85780639f329783146102f657610116565b8063267e07d5116100e9578063267e07d5146101a657806346747b38146101d6578063715018a6146102065780637acc0b20146102105780637c8dd0d61461024457610116565b8063013cf08b1461011b5780630386a016146101505780630a9f46ad1461016c578063116c327b1461018a575b600080fd5b61013560048036038101906101309190611b14565b6103dc565b60405161014796959493929190612107565b60405180910390f35b61016a60048036038101906101659190611b14565b6104ca565b005b610174610617565b6040516101819190612015565b60405180910390f35b6101a4600480360381019061019f91906119a2565b610624565b005b6101c060048036038101906101bb9190611b14565b610966565b6040516101cd9190612015565b60405180910390f35b6101f060048036038101906101eb9190611b81565b6109e1565b6040516101fd9190611f53565b60405180910390f35b61020e610b70565b005b61022a60048036038101906102259190611b14565b610bf8565b60405161023b959493929190611f00565b60405180910390f35b61025e60048036038101906102599190611b41565b610c6b565b60405161026b9190612015565b60405180910390f35b61028e60048036038101906102899190611975565b610d6a565b60405161029b9190612015565b60405180910390f35b6102be60048036038101906102b99190611b14565b610db6565b6040516102cf959493929190611e61565b60405180910390f35b6102e0610ebe565b6040516102ed9190611e16565b60405180910390f35b610310600480360381019061030b9190611ab8565b610ee7565b60405161031d9190611f53565b60405180910390f35b610340600480360381019061033b9190611a51565b610fa8565b60405161034d9190612015565b60405180910390f35b610370600480360381019061036b9190611bae565b611276565b005b61038c60048036038101906103879190611a11565b61147b565b6040516103999190612015565b60405180910390f35b6103aa6114ac565b6040516103b79190612015565b60405180910390f35b6103da60048036038101906103d59190611975565b6114b9565b005b600381815481106103ec57600080fd5b90600052602060002090600602016000915090508060000160009054906101000a900460ff1690806001015490806002015490806003015490806004018054610434906123ab565b80601f0160208091040260200160405190810160405280929190818152602001828054610460906123ab565b80156104ad5780601f10610482576101008083540402835291602001916104ad565b820191906000526020600020905b81548152906001019060200180831161049057829003601f168201915b5050505050908060050160009054906101000a900460ff16905086565b6104d26115b1565b73ffffffffffffffffffffffffffffffffffffffff166104f0610ebe565b73ffffffffffffffffffffffffffffffffffffffff1614610546576040517f08c379a000000000000000000000000000000000000000000000000000000000815260040161053d90611fd5565b60405180910390fd5b80600380549050811061058e576040517f08c379a000000000000000000000000000000000000000000000000000000000815260040161058590611f75565b60405180910390fd5b6001600383815481106105a4576105a36124c5565b5b906000526020600020906006020160050160006101000a81548160ff021916908360018111156105d7576105d6612467565b5b02179055507f95be977bdc5b7c8f1f7966571689b718b5b948029f3a5377ec2b1cc3dbb8985f8260405161060b9190612015565b60405180910390a15050565b6000600380549050905090565b61062c6115b1565b73ffffffffffffffffffffffffffffffffffffffff1661064a610ebe565b73ffffffffffffffffffffffffffffffffffffffff16146106a0576040517f08c379a000000000000000000000000000000000000000000000000000000000815260040161069790611fd5565b60405180910390fd5b7f251fc0df7e56c36cfc4f618ef67296b8e2c41ce1ce473e5187bfec66743b38d383836040516106d1929190611e31565b60405180910390a16106e161167d565b83816000019073ffffffffffffffffffffffffffffffffffffffff16908173ffffffffffffffffffffffffffffffffffffffff16815250504281602001818152505060008160800190600181111561073c5761073b612467565b5b908160018111156107505761074f612467565b5b8152505061075d826109e1565b8160600181905250828160a00181905250600181908060018154018082558091505060019003906000526020600020906006020160009091909190915060008201518160000160006101000a81548173ffffffffffffffffffffffffffffffffffffffff021916908373ffffffffffffffffffffffffffffffffffffffff1602179055506020820151816001015560408201518160020160006101000a81548160ff0219169083600481111561081657610815612467565b5b021790555060608201518160030190805190602001906108379291906116ed565b5060808201518160040160006101000a81548160ff0219169083600181111561086357610862612467565b5b021790555060a082015181600501908051906020019061088492919061173a565b505050600260008573ffffffffffffffffffffffffffffffffffffffff1673ffffffffffffffffffffffffffffffffffffffff168152602001908152602001600020600180805490506108d79190612246565b90806001815401808255809150506001900390600052602060002001600090919091909150557f6a2d36566113fdc14dbc5b9458a0ba3a3eb54e394c2eb29fb26efdfee664f55e6001808054905061092f9190612246565b826000015183602001518460400151856060015187896040516109589796959493929190612030565b60405180910390a150505050565b60008160018054905081106109b0576040517f08c379a00000000000000000000000000000000000000000000000000000000081526004016109a790611ff5565b60405180910390fd5b600183815481106109c4576109c36124c5565b5b906000526020600020906006020160030180549050915050919050565b60606000600367ffffffffffffffff811115610a00576109ff6124f4565b5b604051908082528060200260200182016040528015610a2e5781602001602082028036833780820191505090505b5090506000808460ff161415610a48578192505050610b6b565b60005b6003805490508160ff16108015610a65575060038260ff16105b15610b5b5760006001811115610a7e57610a7d612467565b5b60038260ff1681548110610a9557610a946124c5565b5b906000526020600020906006020160050160009054906101000a900460ff166001811115610ac657610ac5612467565b5b148015610b0e575060038160ff1681548110610ae557610ae46124c5565b5b906000526020600020906006020160000160009054906101000a900460ff1660ff168560ff1610155b15610b48578060ff16838360ff1681518110610b2d57610b2c6124c5565b5b6020026020010181815250508180610b449061240e565b9250505b8080610b539061240e565b915050610a4b565b50610b668282610ee7565b925050505b919050565b610b786115b1565b73ffffffffffffffffffffffffffffffffffffffff16610b96610ebe565b73ffffffffffffffffffffffffffffffffffffffff1614610bec576040517f08c379a0000000000000000000000000000000000000000000000000000000008152600401610be390611fd5565b60405180910390fd5b610bf660006115b9565b565b60048181548110610c0857600080fd5b90600052602060002090600502016000915090508060000160009054906101000a900473ffffffffffffffffffffffffffffffffffffffff16908060010154908060020154908060030154908060040160009054906101000a900460ff16905085565b6000826001805490508110610cb5576040517f08c379a0000000000000000000000000000000000000000000000000000000008152600401610cac90611ff5565b60405180910390fd5b60018481548110610cc957610cc86124c5565b5b9060005260206000209060060201600301805490508310610d1f576040517f08c379a0000000000000000000000000000000000000000000000000000000008152600401610d1690611fb5565b60405180910390fd5b60018481548110610d3357610d326124c5565b5b90600052602060002090600602016003018381548110610d5657610d556124c5565b5b906000526020600020015491505092915050565b6000600260008373ffffffffffffffffffffffffffffffffffffffff1673ffffffffffffffffffffffffffffffffffffffff168152602001908152602001600020805490509050919050565b60018181548110610dc657600080fd5b90600052602060002090600602016000915090508060000160009054906101000a900473ffffffffffffffffffffffffffffffffffffffff16908060010154908060020160009054906101000a900460ff16908060040160009054906101000a900460ff1690806005018054610e3b906123ab565b80601f0160208091040260200160405190810160405280929190818152602001828054610e67906123ab565b8015610eb45780601f10610e8957610100808354040283529160200191610eb4565b820191906000526020600020905b815481529060010190602001808311610e9757829003601f168201915b5050505050905085565b60008060009054906101000a900473ffffffffffffffffffffffffffffffffffffffff16905090565b606060008260ff1667ffffffffffffffff811115610f0857610f076124f4565b5b604051908082528060200260200182016040528015610f365781602001602082028036833780820191505090505b50905060005b8360ff168160ff161015610f9d57848160ff1681518110610f6057610f5f6124c5565b5b6020026020010151828260ff1681518110610f7e57610f7d6124c5565b5b6020026020010181815250508080610f959061240e565b915050610f3c565b508091505092915050565b6000610fb26115b1565b73ffffffffffffffffffffffffffffffffffffffff16610fd0610ebe565b73ffffffffffffffffffffffffffffffffffffffff1614611026576040517f08c379a000000000000000000000000000000000000000000000000000000000815260040161101d90611fd5565b60405180910390fd5b81600380549050811061106e576040517f08c379a000000000000000000000000000000000000000000000000000000000815260040161106590611f75565b60405180910390fd5b8360018054905081106110b6576040517f08c379a00000000000000000000000000000000000000000000000000000000081526004016110ad90611ff5565b60405180910390fd5b60018086815481106110cb576110ca6124c5565b5b906000526020600020906006020160040160006101000a81548160ff021916908360018111156110fe576110fd612467565b5b021790555060006040518060a001604052808973ffffffffffffffffffffffffffffffffffffffff1681526020018881526020018781526020018681526020016000600181111561115257611151612467565b5b8152509050600481908060018154018082558091505060019003906000526020600020906005020160009091909190915060008201518160000160006101000a81548173ffffffffffffffffffffffffffffffffffffffff021916908373ffffffffffffffffffffffffffffffffffffffff16021790555060208201518160010155604082015181600201556060820151816003015560808201518160040160006101000a81548160ff0219169083600181111561121357611212612467565b5b021790555050507ff6e4d5991d43b8f0508a8ded04e4b8f555c903a7bcba3ccb4d8486480c1ba9478888888860405161124f9493929190611ebb565b60405180910390a160016004805490506112699190612246565b9350505050949350505050565b61127e6115b1565b73ffffffffffffffffffffffffffffffffffffffff1661129c610ebe565b73ffffffffffffffffffffffffffffffffffffffff16146112f2576040517f08c379a00000000000000000000000000000000000000000000000000000000081526004016112e990611fd5565b60405180910390fd5b6112fa6117c0565b84816000019060ff16908160ff1681525050838160200181815250508281604001818152505081816080018190525060008160a00190600181111561134257611341612467565b5b9081600181111561135657611355612467565b5b81525050600381908060018154018082558091505060019003906000526020600020906006020160009091909190915060008201518160000160006101000a81548160ff021916908360ff16021790555060208201518160010155604082015181600201556060820151816003015560808201518160040190805190602001906113e192919061173a565b5060a08201518160050160006101000a81548160ff0219169083600181111561140d5761140c612467565b5b021790555050507f0dd92ec7c9e4620459d0f39f48975327d855d61513c1e839e5ae03d1ca76447260016003805490506114479190612246565b826000015183602001518460400151856080015160405161146c9594939291906120ad565b60405180910390a15050505050565b6002602052816000526040600020818154811061149757600080fd5b90600052602060002001600091509150505481565b6000600180549050905090565b6114c16115b1565b73ffffffffffffffffffffffffffffffffffffffff166114df610ebe565b73ffffffffffffffffffffffffffffffffffffffff1614611535576040517f08c379a000000000000000000000000000000000000000000000000000000000815260040161152c90611fd5565b60405180910390fd5b600073ffffffffffffffffffffffffffffffffffffffff168173ffffffffffffffffffffffffffffffffffffffff1614156115a5576040517f08c379a000000000000000000000000000000000000000000000000000000000815260040161159c90611f95565b60405180910390fd5b6115ae816115b9565b50565b600033905090565b60008060009054906101000a900473ffffffffffffffffffffffffffffffffffffffff169050816000806101000a81548173ffffffffffffffffffffffffffffffffffffffff021916908373ffffffffffffffffffffffffffffffffffffffff1602179055508173ffffffffffffffffffffffffffffffffffffffff168173ffffffffffffffffffffffffffffffffffffffff167f8be0079c531659141344cd1fd0a4f28419497f9722a3daafe3b4186f6b6457e060405160405180910390a35050565b6040518060c00160405280600073ffffffffffffffffffffffffffffffffffffffff16815260200160008152602001600060048111156116c0576116bf612467565b5b815260200160608152602001600060018111156116e0576116df612467565b5b8152602001606081525090565b828054828255906000526020600020908101928215611729579160200282015b8281111561172857825182559160200191906001019061170d565b5b509050611736919061180b565b5090565b828054611746906123ab565b90600052602060002090601f01602090048101928261176857600085556117af565b82601f1061178157805160ff19168380011785556117af565b828001600101855582156117af579182015b828111156117ae578251825591602001919060010190611793565b5b5090506117bc919061180b565b5090565b6040518060c00160405280600060ff168152602001600081526020016000815260200160008152602001606081526020016000600181111561180557611804612467565b5b81525090565b5b8082111561182457600081600090555060010161180c565b5090565b600061183b61183684612194565b61216f565b9050808382526020820190508285602086028201111561185e5761185d612528565b5b60005b8581101561188e5781611874888261194b565b845260208401935060208301925050600181019050611861565b5050509392505050565b60006118ab6118a6846121c0565b61216f565b9050828152602081018484840111156118c7576118c661252d565b5b6118d2848285612369565b509392505050565b6000813590506118e981612690565b92915050565b600082601f83011261190457611903612523565b5b8135611914848260208601611828565b91505092915050565b600082601f83011261193257611931612523565b5b8135611942848260208601611898565b91505092915050565b60008135905061195a816126a7565b92915050565b60008135905061196f816126be565b92915050565b60006020828403121561198b5761198a612537565b5b6000611999848285016118da565b91505092915050565b6000806000606084860312156119bb576119ba612537565b5b60006119c9868287016118da565b935050602084013567ffffffffffffffff8111156119ea576119e9612532565b5b6119f68682870161191d565b9250506040611a0786828701611960565b9150509250925092565b60008060408385031215611a2857611a27612537565b5b6000611a36858286016118da565b9250506020611a478582860161194b565b9150509250929050565b60008060008060808587031215611a6b57611a6a612537565b5b6000611a79878288016118da565b9450506020611a8a8782880161194b565b9350506040611a9b8782880161194b565b9250506060611aac8782880161194b565b91505092959194509250565b60008060408385031215611acf57611ace612537565b5b600083013567ffffffffffffffff811115611aed57611aec612532565b5b611af9858286016118ef565b9250506020611b0a85828601611960565b9150509250929050565b600060208284031215611b2a57611b29612537565b5b6000611b388482850161194b565b91505092915050565b60008060408385031215611b5857611b57612537565b5b6000611b668582860161194b565b9250506020611b778582860161194b565b9150509250929050565b600060208284031215611b9757611b96612537565b5b6000611ba584828501611960565b91505092915050565b60008060008060808587031215611bc857611bc7612537565b5b6000611bd687828801611960565b9450506020611be78782880161194b565b9350506040611bf88782880161194b565b925050606085013567ffffffffffffffff811115611c1957611c18612532565b5b611c258782880161191d565b91505092959194509250565b6000611c3d8383611dda565b60208301905092915050565b611c528161227a565b82525050565b6000611c6382612201565b611c6d8185612224565b9350611c78836121f1565b8060005b83811015611ca9578151611c908882611c31565b9750611c9b83612217565b925050600181019050611c7c565b5085935050505092915050565b611cbf8161230f565b82525050565b611cce81612321565b82525050565b611cdd81612333565b82525050565b611cec81612345565b82525050565b6000611cfd8261220c565b611d078185612235565b9350611d17818560208601612378565b611d208161253c565b840191505092915050565b6000611d38601683612235565b9150611d438261254d565b602082019050919050565b6000611d5b602683612235565b9150611d6682612576565b604082019050919050565b6000611d7e600d83612235565b9150611d89826125c5565b602082019050919050565b6000611da1602083612235565b9150611dac826125ee565b602082019050919050565b6000611dc4601383612235565b9150611dcf82612617565b602082019050919050565b611de3816122f8565b82525050565b611df2816122f8565b82525050565b611e0181612357565b82525050565b611e1081612302565b82525050565b6000602082019050611e2b6000830184611c49565b92915050565b6000604082019050611e466000830185611c49565b8181036020830152611e588184611cf2565b90509392505050565b600060a082019050611e766000830188611c49565b611e836020830187611de9565b611e906040830186611cb6565b611e9d6060830185611cc5565b8181036080830152611eaf8184611cf2565b90509695505050505050565b6000608082019050611ed06000830187611c49565b611edd6020830186611de9565b611eea6040830185611de9565b611ef76060830184611de9565b95945050505050565b600060a082019050611f156000830188611c49565b611f226020830187611de9565b611f2f6040830186611de9565b611f3c6060830185611de9565b611f496080830184611cd4565b9695505050505050565b60006020820190508181036000830152611f6d8184611c58565b905092915050565b60006020820190508181036000830152611f8e81611d2b565b9050919050565b60006020820190508181036000830152611fae81611d4e565b9050919050565b60006020820190508181036000830152611fce81611d71565b9050919050565b60006020820190508181036000830152611fee81611d94565b9050919050565b6000602082019050818103600083015261200e81611db7565b9050919050565b600060208201905061202a6000830184611de9565b92915050565b600060e082019050612045600083018a611de9565b6120526020830189611c49565b61205f6040830188611de9565b61206c6060830187611cb6565b818103608083015261207e8186611c58565b905061208d60a0830185611df8565b81810360c083015261209f8184611cf2565b905098975050505050505050565b600060a0820190506120c26000830188611de9565b6120cf6020830187611e07565b6120dc6040830186611de9565b6120e96060830185611de9565b81810360808301526120fb8184611cf2565b90509695505050505050565b600060c08201905061211c6000830189611e07565b6121296020830188611de9565b6121366040830187611de9565b6121436060830186611de9565b81810360808301526121558185611cf2565b905061216460a0830184611ce3565b979650505050505050565b600061217961218a565b905061218582826123dd565b919050565b6000604051905090565b600067ffffffffffffffff8211156121af576121ae6124f4565b5b602082029050602081019050919050565b600067ffffffffffffffff8211156121db576121da6124f4565b5b6121e48261253c565b9050602081019050919050565b6000819050602082019050919050565b600081519050919050565b600081519050919050565b6000602082019050919050565b600082825260208201905092915050565b600082825260208201905092915050565b6000612251826122f8565b915061225c836122f8565b92508282101561226f5761226e612438565b5b828203905092915050565b6000612285826122d8565b9050919050565b600081905061229a82612640565b919050565b60008190506122ad82612654565b919050565b60008190506122c082612668565b919050565b60008190506122d38261267c565b919050565b600073ffffffffffffffffffffffffffffffffffffffff82169050919050565b6000819050919050565b600060ff82169050919050565b600061231a8261228c565b9050919050565b600061232c8261229f565b9050919050565b600061233e826122b2565b9050919050565b6000612350826122c5565b9050919050565b600061236282612302565b9050919050565b82818337600083830152505050565b60005b8381101561239657808201518184015260208101905061237b565b838111156123a5576000848401525b50505050565b600060028204905060018216806123c357607f821691505b602082108114156123d7576123d6612496565b5b50919050565b6123e68261253c565b810181811067ffffffffffffffff82111715612405576124046124f4565b5b80604052505050565b600061241982612302565b915060ff82141561242d5761242c612438565b5b600182019050919050565b7f4e487b7100000000000000000000000000000000000000000000000000000000600052601160045260246000fd5b7f4e487b7100000000000000000000000000000000000000000000000000000000600052602160045260246000fd5b7f4e487b7100000000000000000000000000000000000000000000000000000000600052602260045260246000fd5b7f4e487b7100000000000000000000000000000000000000000000000000000000600052603260045260246000fd5b7f4e487b7100000000000000000000000000000000000000000000000000000000600052604160045260246000fd5b600080fd5b600080fd5b600080fd5b600080fd5b600080fd5b6000601f19601f8301169050919050565b7f50726f706f73616c20646f65736e277420657869737400000000000000000000600082015250565b7f4f776e61626c653a206e6577206f776e657220697320746865207a65726f206160008201527f6464726573730000000000000000000000000000000000000000000000000000602082015250565b7f496e76616c696420696e64657800000000000000000000000000000000000000600082015250565b7f4f776e61626c653a2063616c6c6572206973206e6f7420746865206f776e6572600082015250565b7f4f6666657220646f65736e277420657869737400000000000000000000000000600082015250565b6005811061265157612650612467565b5b50565b6002811061266557612664612467565b5b50565b6002811061267957612678612467565b5b50565b6002811061268d5761268c612467565b5b50565b6126998161227a565b81146126a457600080fd5b50565b6126b0816122f8565b81146126bb57600080fd5b50565b6126c781612302565b81146126d257600080fd5b5056fea264697066735822122006f95fd4a0e9ab113589cb7b69a0456243b9317da473b836f55f9c05bc15f0c464736f6c63430008060033",
  "immutableReferences": {},
  "source": "// SPDX-License-Identifier: MIT\npragma solidity ^0.8.6;\n\nimport \"@openzeppelin/contracts/access/Ownable.sol\";\n\n/**\n * @title This Smart Contract is responsible to generate the offers for customers.\n * @notice Manage all aspects related to offering (proposals, customers and products management)\n * @author Keeymon, DavidRochus\n */\ncontract Offering is Ownable {\n    /**\n     * @dev Offer status\n     */\n    enum OfferStatus {\n        New,\n        Accepted\n    }\n\n    /**\n     * @dev Product status\n     */\n    enum ProductStatus {\n        Active,\n        Closed\n    }\n\n    /**\n     * @dev Proposal status\n     */\n    enum ProposalStatus {\n        Active,\n        Closed\n    }\n\n    /**\n     * @dev Eligibility reasons\n     */\n    enum EligibilityReason {\n        None,\n        UnknowUser,\n        LowUser,\n        DoubleSpent,\n        Other\n    }\n\n    /**\n     * @dev Offer information\n     */\n    struct Offer {\n        address phoneHash;\n        uint256 timestamp;\n        EligibilityReason reason;\n        uint256[] proposals;\n        OfferStatus status;\n        string ref;\n    }\n\n    /**\n     * @dev Product information\n     */\n    struct Product {\n        address phoneHash;\n        uint256 timestamp;\n        uint256 offerId;\n        uint256 proposalId;\n        ProductStatus status;\n    }\n\n    /**\n     * @dev Proposal information\n     */\n    struct Proposal {\n        uint8 minScoring;\n        uint256 capital;\n        uint256 interest;\n        uint256 validityPeriod;\n        string description;\n        ProposalStatus status;\n    }\n\n    /**\n     * @dev Offers table\n     */\n    Offer[] public offers;\n\n    /**\n     * @dev Mapping to access offers related to a phoneHash\n     */\n    mapping(address => uint256[]) public offerList;\n\n    /**\n     * @dev Proposals table\n     */\n    Proposal[] public proposals;\n\n    /**\n     * @dev Products table\n     */\n    Product[] public products;\n\n    /**\n     * @dev Triggered when a proposal is added\n     */\n    event ProposalAdded(\n        uint256 proposalId,\n        uint8 minScoring,\n        uint256 capital,\n        uint256 interest,\n        string description\n    );\n    /**\n     * @dev Triggered when a proposal is closed\n     */\n    event ClosedProposal(uint256 proposalId);\n\n    /**\n     * @dev Triggered when a product is created\n     */\n    event ProductCreated(\n        address phoneHash,\n        uint256 timestamp,\n        uint256 offerId,\n        uint256 proposalId\n    );\n\n    /**\n     * @dev Triggered when a lowBalance is received\n     */\n    event LowBalanceReceived(address phoneHash, string ref);\n\n    /**\n     * @dev Triggered when an offer has to be sent\n     */\n    event OfferSent(\n        uint256 offerId,\n        address phoneHash,\n        uint256 timestamp,\n        EligibilityReason reason,\n        uint256[] proposals,\n        uint256 scoring,\n        string ref\n    );\n\n    /**\n     * @dev Triggered when an acceptance is received\n     */\n    event AcceptanceReceived(\n        address phoneHash,\n        uint256 offerId,\n        uint256 proposalId\n    );\n    /**\n     * @dev Triggered when a confirmation has to be sent\n     */\n    event ConfirmationSent(\n        uint256 productId,\n        uint256 offerId,\n        address phoneHash,\n        uint256 timestamp\n    );\n\n    /**\n     * @dev Triggered when a topUp is received\n     */\n    event TopUpReceived(address phoneHash, uint256 productId, uint256 amount);\n\n    /**\n     * @dev Triggered when an acknowledge has to be sent\n     */\n    event AcknowledgeSent(address phoneHash, uint256 productId, uint256 amount);\n\n    /**\n     * @dev Check if proposal exists\n     */\n    modifier existProposal(uint256 id) {\n        require(id < proposals.length, \"Proposal doesn't exist\");\n        _;\n    }\n\n    /**\n     * @dev Check if offer exists\n     */\n    modifier existOffer(uint256 id) {\n        require(id < offers.length, \"Offer doesn't exist\");\n        _;\n    }\n    /**\n     * @dev Check if product exists\n     */\n    modifier existProduct(uint256 id) {\n        require(id < products.length, \"Product doesn't exist\");\n        _;\n    }\n\n    /**\n     * @dev Smart Contract constructor\n     */\n    constructor() {}\n\n    /**\n     * @notice Add a proposal\n     * @param _minScoring The minimum score needed by customer to receive this proposal\n     * @param _capital Capital part of the proposal amount\n     * @param _interest Interest part of the proposal amount\n     * @param _description A description of the proposal\n     * @dev Add a proposal with the following information: minimum scoring `_minScoring`, amount `_capital` + `_interest`, description `_description`\n     */\n    function addProposal(\n        uint8 _minScoring,\n        uint256 _capital,\n        uint256 _interest,\n        string memory _description\n    ) public onlyOwner {\n        Proposal memory proposalData;\n        proposalData.minScoring = _minScoring;\n        proposalData.capital = _capital;\n        proposalData.interest = _interest;\n        proposalData.description = _description;\n        proposalData.status = ProposalStatus.Active;\n        proposals.push(proposalData);\n        emit ProposalAdded(\n            (proposals.length - 1),\n            proposalData.minScoring,\n            proposalData.capital,\n            proposalData.interest,\n            proposalData.description\n        );\n    }\n\n    /**\n     * @notice Close a proposal\n     * @param _id ID of the proposal to close\n     * @dev Close the proposal with the ID `_id`\n     */\n    function closeProposal(uint256 _id) public onlyOwner existProposal(_id) {\n        proposals[_id].status = ProposalStatus.Closed;\n        emit ClosedProposal(_id);\n    }\n\n    /**\n     * @notice Number of proposals\n     * @dev Return the number of proposals\n     */\n    function proposalsCount() public view returns (uint256) {\n        return proposals.length;\n    }\n\n    /**\n     * @notice Number of proposal in an offer\n     * @param _offerId The ID of the offer\n     * @dev Return the number of proposal in an offer\n     */\n    function getProposalOfferSize(uint256 _offerId)\n        public\n        view\n        existOffer(_offerId)\n        returns (uint256)\n    {\n        return offers[_offerId].proposals.length;\n    }\n\n    /**\n     * @notice Get the size of the Offers of a customer\n     * @param _phoneHash The address that identifies to the customer\n     * @dev Get the size of the Offers of a customer (identified with `_phoneHash`)\n     */\n    function getOfferSize(address _phoneHash) public view returns (uint256) {\n        return offerList[_phoneHash].length;\n    }\n\n    /**\n     * @notice Get the size of all the offers\n     * @dev Get the size of all the offers\n     */\n    function getOffersSize() public view returns (uint256) {\n        return offers.length;\n    }\n\n    /**\n     * @notice Get the ID proposal in offer\n     * @param _offerId The ID of the offer\n     * @param _id The ID of the array proposal in an offer\n     * @dev Return the ID proposal in offer\n     */\n    function getIndexProposalOffer(uint256 _offerId, uint256 _id)\n        public\n        view\n        existOffer(_offerId)\n        returns (uint256)\n    {\n        require(_id < offers[_offerId].proposals.length, \"Invalid index\");\n        return offers[_offerId].proposals[_id];\n    }\n\n    /**\n     * @notice Manage the \"low balances\" received and generate an offer\n     * @param _phoneHash The address that identifies to the customer\n     * @param _ref Reference of the telecom provider\n     * @param _score score of the customer\n     * @dev Manage lowBalance (with reference `_ref`) of a customer (identified with `_phoneHash`) and generate an offer based on the score `_score`\n     */\n    function lowBalanceOffering(\n        address _phoneHash,\n        string memory _ref,\n        uint8 _score\n    ) public onlyOwner {\n        emit LowBalanceReceived(_phoneHash, _ref);\n        Offer memory offerData;\n        offerData.phoneHash = _phoneHash;\n        offerData.timestamp = block.timestamp;\n        offerData.status = OfferStatus.New;\n        offerData.proposals = getOfferProposals(_score);\n        offerData.ref = _ref;\n        offers.push(offerData);\n        offerList[_phoneHash].push(offers.length - 1);\n        emit OfferSent(\n            (offers.length - 1),\n            offerData.phoneHash,\n            offerData.timestamp,\n            offerData.reason,\n            offerData.proposals,\n            _score,\n            _ref\n        );\n    }\n\n    /**\n     * @notice Create a product\n     * @param _phoneHash The address that identifies to the customer\n     * @param _acceptanceTimestamp Timestamp of the acceptance\n     * @param _offerId ID of the offer\n     * @param _proposalId ID of the proposal\n     * @dev Create a product with the following information: a customer (identified with `_phoneHash`), an offer ID `_offerId`, a proposal ID `_proposalId` and a timestamp `_acceptanceTimestamp`\n     */\n    function createProduct(\n        address _phoneHash,\n        uint256 _acceptanceTimestamp,\n        uint256 _offerId,\n        uint256 _proposalId\n    )\n        public\n        onlyOwner\n        existProposal(_proposalId)\n        existOffer(_offerId)\n        returns (uint256)\n    {\n        offers[_offerId].status = OfferStatus.Accepted;\n        Product memory product = Product(\n            _phoneHash,\n            _acceptanceTimestamp,\n            _offerId,\n            _proposalId,\n            ProductStatus.Active\n        );\n        products.push(product);\n        emit ProductCreated(\n            _phoneHash,\n            _acceptanceTimestamp,\n            _offerId,\n            _proposalId\n        );\n        return (products.length - 1);\n    }\n\n    /**\n     * @notice Get the proposals corresponding to the scoring\n     * @param _scoring score of the customer\n     * @return Proposals\n     * @dev Return the proposals that correspond to the given scoring `_scoring`\n     */\n    function getOfferProposals(uint8 _scoring)\n        public\n        view\n        returns (uint256[] memory)\n    {\n        uint256[] memory offerProposals = new uint256[](3);\n        uint8 offerProposalsIndex = 0;\n        if (_scoring == 0) {\n            return offerProposals;\n        }\n        for (\n            uint8 i = 0;\n            (i < proposals.length && offerProposalsIndex < 3);\n            i++\n        ) {\n            if (\n                proposals[i].status == ProposalStatus.Active &&\n                _scoring >= proposals[i].minScoring\n            ) {\n                offerProposals[offerProposalsIndex] = i;\n                offerProposalsIndex++;\n            }\n        }\n        return trimOfferProposals(offerProposals, offerProposalsIndex);\n    }\n\n    /**\n     * @notice Create a trimmed table of the proposals\n     * @param _offerProposals Initial proposals table\n     * @param _offerProposalsCount Number of proposals to retrieve in the initial table\n     * @return Proposals\n     * @dev Return a proposals based on table `_offerProposals` with only the first `_offerProposalsCount` proposals\n     */\n    function trimOfferProposals(\n        uint256[] memory _offerProposals,\n        uint8 _offerProposalsCount\n    ) public pure returns (uint256[] memory) {\n        uint256[] memory offerProposals = new uint256[](_offerProposalsCount);\n        for (uint8 i = 0; i < _offerProposalsCount; i++) {\n            offerProposals[i] = _offerProposals[i];\n        }\n        return offerProposals;\n    }\n}\n",
  "sourcePath": "/Users/davidrochus/Dev/workspace/timelapse/contracts/Offering.sol",
  "compiler": {
    "name": "solc",
    "version": "0.8.6+commit.11564f7e.Emscripten.clang"
  },
  "schemaVersion": "3.4.1",
  "updatedAt": "2021-07-25T09:11:11.451Z",
  "networkType": "ethereum",
  "devdoc": {
    "author": "Keeymon, DavidRochus",
    "events": {
      "AcceptanceReceived(address,uint256,uint256)": {
        "details": "Triggered when an acceptance is received"
      },
      "AcknowledgeSent(address,uint256,uint256)": {
        "details": "Triggered when an acknowledge has to be sent"
      },
      "ClosedProposal(uint256)": {
        "details": "Triggered when a proposal is closed"
      },
      "ConfirmationSent(uint256,uint256,address,uint256)": {
        "details": "Triggered when a confirmation has to be sent"
      },
      "LowBalanceReceived(address,string)": {
        "details": "Triggered when a lowBalance is received"
      },
      "OfferSent(uint256,address,uint256,uint8,uint256[],uint256,string)": {
        "details": "Triggered when an offer has to be sent"
      },
      "ProductCreated(address,uint256,uint256,uint256)": {
        "details": "Triggered when a product is created"
      },
      "ProposalAdded(uint256,uint8,uint256,uint256,string)": {
        "details": "Triggered when a proposal is added"
      },
      "TopUpReceived(address,uint256,uint256)": {
        "details": "Triggered when a topUp is received"
      }
    },
    "kind": "dev",
    "methods": {
      "addProposal(uint8,uint256,uint256,string)": {
        "details": "Add a proposal with the following information: minimum scoring `_minScoring`, amount `_capital` + `_interest`, description `_description`",
        "params": {
          "_capital": "Capital part of the proposal amount",
          "_description": "A description of the proposal",
          "_interest": "Interest part of the proposal amount",
          "_minScoring": "The minimum score needed by customer to receive this proposal"
        }
      },
      "closeProposal(uint256)": {
        "details": "Close the proposal with the ID `_id`",
        "params": {
          "_id": "ID of the proposal to close"
        }
      },
      "constructor": {
        "details": "Smart Contract constructor"
      },
      "createProduct(address,uint256,uint256,uint256)": {
        "details": "Create a product with the following information: a customer (identified with `_phoneHash`), an offer ID `_offerId`, a proposal ID `_proposalId` and a timestamp `_acceptanceTimestamp`",
        "params": {
          "_acceptanceTimestamp": "Timestamp of the acceptance",
          "_offerId": "ID of the offer",
          "_phoneHash": "The address that identifies to the customer",
          "_proposalId": "ID of the proposal"
        }
      },
      "getIndexProposalOffer(uint256,uint256)": {
        "details": "Return the ID proposal in offer",
        "params": {
          "_id": "The ID of the array proposal in an offer",
          "_offerId": "The ID of the offer"
        }
      },
      "getOfferProposals(uint8)": {
        "details": "Return the proposals that correspond to the given scoring `_scoring`",
        "params": {
          "_scoring": "score of the customer"
        },
        "returns": {
          "_0": "Proposals"
        }
      },
      "getOfferSize(address)": {
        "details": "Get the size of the Offers of a customer (identified with `_phoneHash`)",
        "params": {
          "_phoneHash": "The address that identifies to the customer"
        }
      },
      "getOffersSize()": {
        "details": "Get the size of all the offers"
      },
      "getProposalOfferSize(uint256)": {
        "details": "Return the number of proposal in an offer",
        "params": {
          "_offerId": "The ID of the offer"
        }
      },
      "lowBalanceOffering(address,string,uint8)": {
        "details": "Manage lowBalance (with reference `_ref`) of a customer (identified with `_phoneHash`) and generate an offer based on the score `_score`",
        "params": {
          "_phoneHash": "The address that identifies to the customer",
          "_ref": "Reference of the telecom provider",
          "_score": "score of the customer"
        }
      },
      "owner()": {
        "details": "Returns the address of the current owner."
      },
      "proposalsCount()": {
        "details": "Return the number of proposals"
      },
      "renounceOwnership()": {
        "details": "Leaves the contract without owner. It will not be possible to call `onlyOwner` functions anymore. Can only be called by the current owner. NOTE: Renouncing ownership will leave the contract without an owner, thereby removing any functionality that is only available to the owner."
      },
      "transferOwnership(address)": {
        "details": "Transfers ownership of the contract to a new account (`newOwner`). Can only be called by the current owner."
      },
      "trimOfferProposals(uint256[],uint8)": {
        "details": "Return a proposals based on table `_offerProposals` with only the first `_offerProposalsCount` proposals",
        "params": {
          "_offerProposals": "Initial proposals table",
          "_offerProposalsCount": "Number of proposals to retrieve in the initial table"
        },
        "returns": {
          "_0": "Proposals"
        }
      }
    },
    "stateVariables": {
      "offerList": {
        "details": "Mapping to access offers related to a phoneHash"
      },
      "offers": {
        "details": "Offers table"
      },
      "products": {
        "details": "Products table"
      },
      "proposals": {
        "details": "Proposals table"
      }
    },
    "title": "This Smart Contract is responsible to generate the offers for customers.",
    "version": 1
  },
  "userdoc": {
    "kind": "user",
    "methods": {
      "addProposal(uint8,uint256,uint256,string)": {
        "notice": "Add a proposal"
      },
      "closeProposal(uint256)": {
        "notice": "Close a proposal"
      },
      "createProduct(address,uint256,uint256,uint256)": {
        "notice": "Create a product"
      },
      "getIndexProposalOffer(uint256,uint256)": {
        "notice": "Get the ID proposal in offer"
      },
      "getOfferProposals(uint8)": {
        "notice": "Get the proposals corresponding to the scoring"
      },
      "getOfferSize(address)": {
        "notice": "Get the size of the Offers of a customer"
      },
      "getOffersSize()": {
        "notice": "Get the size of all the offers"
      },
      "getProposalOfferSize(uint256)": {
        "notice": "Number of proposal in an offer"
      },
      "lowBalanceOffering(address,string,uint8)": {
        "notice": "Manage the \"low balances\" received and generate an offer"
      },
      "proposalsCount()": {
        "notice": "Number of proposals"
      },
      "trimOfferProposals(uint256[],uint8)": {
        "notice": "Create a trimmed table of the proposals"
      }
    },
    "notice": "Manage all aspects related to offering (proposals, customers and products management)",
    "version": 1
  }
}