{
  "contractName": "Offering",
  "abi": [
    {
      "inputs": [],
      "stateMutability": "nonpayable",
      "type": "constructor"
    },
    {
      "anonymous": false,
      "inputs": [
        {
          "indexed": false,
          "internalType": "address",
          "name": "phoneHash",
          "type": "address"
        },
        {
          "indexed": false,
          "internalType": "uint256",
          "name": "idOffer",
          "type": "uint256"
        },
        {
          "indexed": false,
          "internalType": "uint256",
          "name": "idProposal",
          "type": "uint256"
        }
      ],
      "name": "AcceptanceReceived",
      "type": "event"
    },
    {
      "anonymous": false,
      "inputs": [
        {
          "indexed": false,
          "internalType": "address",
          "name": "phoneHash",
          "type": "address"
        },
        {
          "indexed": false,
          "internalType": "uint256",
          "name": "productId",
          "type": "uint256"
        },
        {
          "indexed": false,
          "internalType": "uint256",
          "name": "amount",
          "type": "uint256"
        }
      ],
      "name": "AcknowledgeSent",
      "type": "event"
    },
    {
      "anonymous": false,
      "inputs": [
        {
          "indexed": false,
          "internalType": "uint256",
          "name": "idProposal",
          "type": "uint256"
        }
      ],
      "name": "ClosedProposal",
      "type": "event"
    },
    {
      "anonymous": false,
      "inputs": [
        {
          "indexed": false,
          "internalType": "uint256",
          "name": "productId",
          "type": "uint256"
        },
        {
          "indexed": false,
          "internalType": "uint256",
          "name": "idOffer",
          "type": "uint256"
        },
        {
          "indexed": false,
          "internalType": "address",
          "name": "phoneHash",
          "type": "address"
        },
        {
          "indexed": false,
          "internalType": "uint256",
          "name": "timestamp",
          "type": "uint256"
        }
      ],
      "name": "ConfirmationSent",
      "type": "event"
    },
    {
      "anonymous": false,
      "inputs": [
        {
          "indexed": false,
          "internalType": "address",
          "name": "phoneHash",
          "type": "address"
        },
        {
          "indexed": false,
          "internalType": "string",
          "name": "ref",
          "type": "string"
        }
      ],
      "name": "LowBalanceReceived",
      "type": "event"
    },
    {
      "anonymous": false,
      "inputs": [
        {
          "indexed": false,
          "internalType": "uint256",
          "name": "idOffer",
          "type": "uint256"
        },
        {
          "indexed": false,
          "internalType": "address",
          "name": "phoneHash",
          "type": "address"
        },
        {
          "indexed": false,
          "internalType": "uint256",
          "name": "timestamp",
          "type": "uint256"
        },
        {
          "indexed": false,
          "internalType": "enum Offering.EligibilityReason",
          "name": "reason",
          "type": "uint8"
        },
        {
          "indexed": false,
          "internalType": "uint256[]",
          "name": "proposals",
          "type": "uint256[]"
        },
        {
          "indexed": false,
          "internalType": "uint256",
          "name": "scoring",
          "type": "uint256"
        },
        {
          "indexed": false,
          "internalType": "string",
          "name": "ref",
          "type": "string"
        }
      ],
      "name": "OfferSent",
      "type": "event"
    },
    {
      "anonymous": false,
      "inputs": [
        {
          "indexed": true,
          "internalType": "address",
          "name": "previousOwner",
          "type": "address"
        },
        {
          "indexed": true,
          "internalType": "address",
          "name": "newOwner",
          "type": "address"
        }
      ],
      "name": "OwnershipTransferred",
      "type": "event"
    },
    {
      "anonymous": false,
      "inputs": [
        {
          "indexed": false,
          "internalType": "address",
          "name": "phoneHash",
          "type": "address"
        },
        {
          "indexed": false,
          "internalType": "uint256",
          "name": "timestamp",
          "type": "uint256"
        },
        {
          "indexed": false,
          "internalType": "uint256",
          "name": "idOffer",
          "type": "uint256"
        },
        {
          "indexed": false,
          "internalType": "uint256",
          "name": "idProposal",
          "type": "uint256"
        }
      ],
      "name": "ProductCreated",
      "type": "event"
    },
    {
      "anonymous": false,
      "inputs": [
        {
          "indexed": false,
          "internalType": "uint256",
          "name": "idProposal",
          "type": "uint256"
        },
        {
          "indexed": false,
          "internalType": "uint8",
          "name": "minScoring",
          "type": "uint8"
        },
        {
          "indexed": false,
          "internalType": "uint256",
          "name": "capital",
          "type": "uint256"
        },
        {
          "indexed": false,
          "internalType": "uint256",
          "name": "interest",
          "type": "uint256"
        },
        {
          "indexed": false,
          "internalType": "string",
          "name": "description",
          "type": "string"
        }
      ],
      "name": "ProposalAdded",
      "type": "event"
    },
    {
      "anonymous": false,
      "inputs": [
        {
          "indexed": false,
          "internalType": "address",
          "name": "phoneHash",
          "type": "address"
        },
        {
          "indexed": false,
          "internalType": "uint256",
          "name": "productId",
          "type": "uint256"
        },
        {
          "indexed": false,
          "internalType": "uint256",
          "name": "amount",
          "type": "uint256"
        }
      ],
      "name": "TopUpReceived",
      "type": "event"
    },
    {
      "inputs": [
        {
          "internalType": "uint256",
          "name": "",
          "type": "uint256"
        }
      ],
      "name": "offers",
      "outputs": [
        {
          "internalType": "address",
          "name": "phoneHash",
          "type": "address"
        },
        {
          "internalType": "uint256",
          "name": "timestamp",
          "type": "uint256"
        },
        {
          "internalType": "enum Offering.EligibilityReason",
          "name": "reason",
          "type": "uint8"
        },
        {
          "internalType": "enum Offering.OfferStatus",
          "name": "status",
          "type": "uint8"
        },
        {
          "internalType": "string",
          "name": "ref",
          "type": "string"
        }
      ],
      "stateMutability": "view",
      "type": "function"
    },
    {
      "inputs": [],
      "name": "owner",
      "outputs": [
        {
          "internalType": "address",
          "name": "",
          "type": "address"
        }
      ],
      "stateMutability": "view",
      "type": "function"
    },
    {
      "inputs": [
        {
          "internalType": "uint256",
          "name": "",
          "type": "uint256"
        }
      ],
      "name": "products",
      "outputs": [
        {
          "internalType": "address",
          "name": "phoneHash",
          "type": "address"
        },
        {
          "internalType": "uint256",
          "name": "timestamp",
          "type": "uint256"
        },
        {
          "internalType": "uint256",
          "name": "idOffer",
          "type": "uint256"
        },
        {
          "internalType": "uint256",
          "name": "idProposal",
          "type": "uint256"
        },
        {
          "internalType": "enum Offering.ProductStatus",
          "name": "status",
          "type": "uint8"
        }
      ],
      "stateMutability": "view",
      "type": "function"
    },
    {
      "inputs": [
        {
          "internalType": "uint256",
          "name": "",
          "type": "uint256"
        }
      ],
      "name": "proposals",
      "outputs": [
        {
          "internalType": "uint8",
          "name": "minScoring",
          "type": "uint8"
        },
        {
          "internalType": "uint256",
          "name": "capital",
          "type": "uint256"
        },
        {
          "internalType": "uint256",
          "name": "interest",
          "type": "uint256"
        },
        {
          "internalType": "uint256",
          "name": "validityPeriod",
          "type": "uint256"
        },
        {
          "internalType": "string",
          "name": "description",
          "type": "string"
        },
        {
          "internalType": "enum Offering.ProposalStatus",
          "name": "status",
          "type": "uint8"
        }
      ],
      "stateMutability": "view",
      "type": "function"
    },
    {
      "inputs": [],
      "name": "renounceOwnership",
      "outputs": [],
      "stateMutability": "nonpayable",
      "type": "function"
    },
    {
      "inputs": [
        {
          "internalType": "address",
          "name": "newOwner",
          "type": "address"
        }
      ],
      "name": "transferOwnership",
      "outputs": [],
      "stateMutability": "nonpayable",
      "type": "function"
    },
    {
      "inputs": [
        {
          "internalType": "uint8",
          "name": "_minScoring",
          "type": "uint8"
        },
        {
          "internalType": "uint256",
          "name": "_capital",
          "type": "uint256"
        },
        {
          "internalType": "uint256",
          "name": "_interest",
          "type": "uint256"
        },
        {
          "internalType": "string",
          "name": "_description",
          "type": "string"
        }
      ],
      "name": "addProposal",
      "outputs": [],
      "stateMutability": "nonpayable",
      "type": "function"
    },
    {
      "inputs": [
        {
          "internalType": "uint256",
          "name": "_id",
          "type": "uint256"
        }
      ],
      "name": "closedProposal",
      "outputs": [],
      "stateMutability": "nonpayable",
      "type": "function"
    },
    {
      "inputs": [],
      "name": "proposalsCount",
      "outputs": [
        {
          "internalType": "uint256",
          "name": "",
          "type": "uint256"
        }
      ],
      "stateMutability": "view",
      "type": "function"
    },
    {
      "inputs": [
        {
          "internalType": "uint256",
          "name": "_idOffer",
          "type": "uint256"
        }
      ],
      "name": "getSizeProposalOffer",
      "outputs": [
        {
          "internalType": "uint256",
          "name": "",
          "type": "uint256"
        }
      ],
      "stateMutability": "view",
      "type": "function"
    },
    {
      "inputs": [
        {
          "internalType": "uint256",
          "name": "_idOffer",
          "type": "uint256"
        },
        {
          "internalType": "uint256",
          "name": "_id",
          "type": "uint256"
        }
      ],
      "name": "getIndexProposalOffer",
      "outputs": [
        {
          "internalType": "uint256",
          "name": "",
          "type": "uint256"
        }
      ],
      "stateMutability": "view",
      "type": "function"
    },
    {
      "inputs": [
        {
          "internalType": "address",
          "name": "_phoneHash",
          "type": "address"
        },
        {
          "internalType": "string",
          "name": "_ref",
          "type": "string"
        },
        {
          "internalType": "uint8",
          "name": "_score",
          "type": "uint8"
        }
      ],
      "name": "lowBalanceOffering",
      "outputs": [],
      "stateMutability": "nonpayable",
      "type": "function"
    },
    {
      "inputs": [
        {
          "internalType": "address",
          "name": "_phoneHash",
          "type": "address"
        },
        {
          "internalType": "uint256",
          "name": "_acceptanceTimestamp",
          "type": "uint256"
        },
        {
          "internalType": "uint256",
          "name": "_idOffer",
          "type": "uint256"
        },
        {
          "internalType": "uint256",
          "name": "_idProposal",
          "type": "uint256"
        }
      ],
      "name": "createProduct",
      "outputs": [
        {
          "internalType": "uint256",
          "name": "",
          "type": "uint256"
        }
      ],
      "stateMutability": "nonpayable",
      "type": "function"
    },
    {
      "inputs": [
        {
          "internalType": "uint8",
          "name": "_scoring",
          "type": "uint8"
        }
      ],
      "name": "getOfferProposals",
      "outputs": [
        {
          "internalType": "uint256[]",
          "name": "",
          "type": "uint256[]"
        }
      ],
      "stateMutability": "view",
      "type": "function"
    },
    {
      "inputs": [
        {
          "internalType": "uint256[]",
          "name": "_offerProposals",
          "type": "uint256[]"
        },
        {
          "internalType": "uint8",
          "name": "_offerProposalsCount",
          "type": "uint8"
        }
      ],
      "name": "trimOfferProposals",
      "outputs": [
        {
          "internalType": "uint256[]",
          "name": "",
          "type": "uint256[]"
        }
      ],
      "stateMutability": "pure",
      "type": "function"
    }
  ],
  "bytecode": "0x60806040523480156200001157600080fd5b5062000032620000266200003860201b60201c565b6200004060201b60201c565b62000104565b600033905090565b60008060009054906101000a900473ffffffffffffffffffffffffffffffffffffffff169050816000806101000a81548173ffffffffffffffffffffffffffffffffffffffff021916908373ffffffffffffffffffffffffffffffffffffffff1602179055508173ffffffffffffffffffffffffffffffffffffffff168173ffffffffffffffffffffffffffffffffffffffff167f8be0079c531659141344cd1fd0a4f28419497f9722a3daafe3b4186f6b6457e060405160405180910390a35050565b6124df80620001146000396000f3fe608060405234801561001057600080fd5b50600436106100f55760003560e01c80637c8dd0d611610097578063b6ca459511610066578063b6ca4595146102a5578063bdcf208c146102d5578063f2fde38b146102f1578063f8730a071461030d576100f5565b80637c8dd0d6146101f35780638a72ea6a146102235780638da5cb5b146102575780639f32978314610275576100f5565b806346747b38116100d357806346747b381461016957806347466dc314610199578063715018a6146101b55780637acc0b20146101bf576100f5565b8063013cf08b146100fa5780630a9f46ad1461012f578063116c327b1461014d575b600080fd5b610114600480360381019061010f91906118e8565b61033d565b60405161012696959493929190611edb565b60405180910390f35b61013761042b565b6040516101449190611de9565b60405180910390f35b610167600480360381019061016291906117b6565b610438565b005b610183600480360381019061017e9190611955565b610704565b6040516101909190611d27565b60405180910390f35b6101b360048036038101906101ae91906118e8565b610893565b005b6101bd6109e0565b005b6101d960048036038101906101d491906118e8565b610a68565b6040516101ea959493929190611cd4565b60405180910390f35b61020d60048036038101906102089190611915565b610adb565b60405161021a9190611de9565b60405180910390f35b61023d600480360381019061023891906118e8565b610bda565b60405161024e959493929190611c35565b60405180910390f35b61025f610ce2565b60405161026c9190611bea565b60405180910390f35b61028f600480360381019061028a919061188c565b610d0b565b60405161029c9190611d27565b60405180910390f35b6102bf60048036038101906102ba9190611825565b610dcc565b6040516102cc9190611de9565b60405180910390f35b6102ef60048036038101906102ea9190611982565b61104d565b005b61030b60048036038101906103069190611789565b611252565b005b610327600480360381019061032291906118e8565b61134a565b6040516103349190611de9565b60405180910390f35b6002818154811061034d57600080fd5b90600052602060002090600602016000915090508060000160009054906101000a900460ff16908060010154908060020154908060030154908060040180546103959061217f565b80601f01602080910402602001604051908101604052809291908181526020018280546103c19061217f565b801561040e5780601f106103e35761010080835404028352916020019161040e565b820191906000526020600020905b8154815290600101906020018083116103f157829003601f168201915b5050505050908060050160009054906101000a900460ff16905086565b6000600280549050905090565b6104406113c5565b73ffffffffffffffffffffffffffffffffffffffff1661045e610ce2565b73ffffffffffffffffffffffffffffffffffffffff16146104b4576040517f08c379a00000000000000000000000000000000000000000000000000000000081526004016104ab90611da9565b60405180910390fd5b7f251fc0df7e56c36cfc4f618ef67296b8e2c41ce1ce473e5187bfec66743b38d383836040516104e5929190611c05565b60405180910390a16104f5611491565b83816000019073ffffffffffffffffffffffffffffffffffffffff16908173ffffffffffffffffffffffffffffffffffffffff1681525050428160200181815250506000816080019060018111156105505761054f61223b565b5b908160018111156105645761056361223b565b5b8152505061057182610704565b8160600181905250828160a00181905250600181908060018154018082558091505060019003906000526020600020906006020160009091909190915060008201518160000160006101000a81548173ffffffffffffffffffffffffffffffffffffffff021916908373ffffffffffffffffffffffffffffffffffffffff1602179055506020820151816001015560408201518160020160006101000a81548160ff0219169083600481111561062a5761062961223b565b5b0217905550606082015181600301908051906020019061064b929190611501565b5060808201518160040160006101000a81548160ff021916908360018111156106775761067661223b565b5b021790555060a082015181600501908051906020019061069892919061154e565b5050507f6a2d36566113fdc14dbc5b9458a0ba3a3eb54e394c2eb29fb26efdfee664f55e600180805490506106cd919061201a565b826000015183602001518460400151856060015187896040516106f69796959493929190611e04565b60405180910390a150505050565b60606000600367ffffffffffffffff811115610723576107226122c8565b5b6040519080825280602002602001820160405280156107515781602001602082028036833780820191505090505b5090506000808460ff16141561076b57819250505061088e565b60005b6002805490508160ff16108015610788575060038260ff16105b1561087e57600060018111156107a1576107a061223b565b5b60028260ff16815481106107b8576107b7612299565b5b906000526020600020906006020160050160009054906101000a900460ff1660018111156107e9576107e861223b565b5b148015610831575060028160ff168154811061080857610807612299565b5b906000526020600020906006020160000160009054906101000a900460ff1660ff168560ff1610155b1561086b578060ff16838360ff16815181106108505761084f612299565b5b6020026020010181815250508180610867906121e2565b9250505b8080610876906121e2565b91505061076e565b506108898282610d0b565b925050505b919050565b61089b6113c5565b73ffffffffffffffffffffffffffffffffffffffff166108b9610ce2565b73ffffffffffffffffffffffffffffffffffffffff161461090f576040517f08c379a000000000000000000000000000000000000000000000000000000000815260040161090690611da9565b60405180910390fd5b806002805490508110610957576040517f08c379a000000000000000000000000000000000000000000000000000000000815260040161094e90611d49565b60405180910390fd5b60016002838154811061096d5761096c612299565b5b906000526020600020906006020160050160006101000a81548160ff021916908360018111156109a05761099f61223b565b5b02179055507f95be977bdc5b7c8f1f7966571689b718b5b948029f3a5377ec2b1cc3dbb8985f826040516109d49190611de9565b60405180910390a15050565b6109e86113c5565b73ffffffffffffffffffffffffffffffffffffffff16610a06610ce2565b73ffffffffffffffffffffffffffffffffffffffff1614610a5c576040517f08c379a0000000000000000000000000000000000000000000000000000000008152600401610a5390611da9565b60405180910390fd5b610a6660006113cd565b565b60038181548110610a7857600080fd5b90600052602060002090600502016000915090508060000160009054906101000a900473ffffffffffffffffffffffffffffffffffffffff16908060010154908060020154908060030154908060040160009054906101000a900460ff16905085565b6000826001805490508110610b25576040517f08c379a0000000000000000000000000000000000000000000000000000000008152600401610b1c90611dc9565b60405180910390fd5b60018481548110610b3957610b38612299565b5b9060005260206000209060060201600301805490508310610b8f576040517f08c379a0000000000000000000000000000000000000000000000000000000008152600401610b8690611d89565b60405180910390fd5b60018481548110610ba357610ba2612299565b5b90600052602060002090600602016003018381548110610bc657610bc5612299565b5b906000526020600020015491505092915050565b60018181548110610bea57600080fd5b90600052602060002090600602016000915090508060000160009054906101000a900473ffffffffffffffffffffffffffffffffffffffff16908060010154908060020160009054906101000a900460ff16908060040160009054906101000a900460ff1690806005018054610c5f9061217f565b80601f0160208091040260200160405190810160405280929190818152602001828054610c8b9061217f565b8015610cd85780601f10610cad57610100808354040283529160200191610cd8565b820191906000526020600020905b815481529060010190602001808311610cbb57829003601f168201915b5050505050905085565b60008060009054906101000a900473ffffffffffffffffffffffffffffffffffffffff16905090565b606060008260ff1667ffffffffffffffff811115610d2c57610d2b6122c8565b5b604051908082528060200260200182016040528015610d5a5781602001602082028036833780820191505090505b50905060005b8360ff168160ff161015610dc157848160ff1681518110610d8457610d83612299565b5b6020026020010151828260ff1681518110610da257610da1612299565b5b6020026020010181815250508080610db9906121e2565b915050610d60565b508091505092915050565b6000610dd66113c5565b73ffffffffffffffffffffffffffffffffffffffff16610df4610ce2565b73ffffffffffffffffffffffffffffffffffffffff1614610e4a576040517f08c379a0000000000000000000000000000000000000000000000000000000008152600401610e4190611da9565b60405180910390fd5b816002805490508110610e92576040517f08c379a0000000000000000000000000000000000000000000000000000000008152600401610e8990611d49565b60405180910390fd5b836001805490508110610eda576040517f08c379a0000000000000000000000000000000000000000000000000000000008152600401610ed190611dc9565b60405180910390fd5b60006040518060a001604052808973ffffffffffffffffffffffffffffffffffffffff16815260200188815260200187815260200186815260200160006001811115610f2957610f2861223b565b5b8152509050600381908060018154018082558091505060019003906000526020600020906005020160009091909190915060008201518160000160006101000a81548173ffffffffffffffffffffffffffffffffffffffff021916908373ffffffffffffffffffffffffffffffffffffffff16021790555060208201518160010155604082015181600201556060820151816003015560808201518160040160006101000a81548160ff02191690836001811115610fea57610fe961223b565b5b021790555050507ff6e4d5991d43b8f0508a8ded04e4b8f555c903a7bcba3ccb4d8486480c1ba947888888886040516110269493929190611c8f565b60405180910390a16001600380549050611040919061201a565b9350505050949350505050565b6110556113c5565b73ffffffffffffffffffffffffffffffffffffffff16611073610ce2565b73ffffffffffffffffffffffffffffffffffffffff16146110c9576040517f08c379a00000000000000000000000000000000000000000000000000000000081526004016110c090611da9565b60405180910390fd5b6110d16115d4565b84816000019060ff16908160ff1681525050838160200181815250508281604001818152505081816080018190525060008160a0019060018111156111195761111861223b565b5b9081600181111561112d5761112c61223b565b5b81525050600281908060018154018082558091505060019003906000526020600020906006020160009091909190915060008201518160000160006101000a81548160ff021916908360ff16021790555060208201518160010155604082015181600201556060820151816003015560808201518160040190805190602001906111b892919061154e565b5060a08201518160050160006101000a81548160ff021916908360018111156111e4576111e361223b565b5b021790555050507f0dd92ec7c9e4620459d0f39f48975327d855d61513c1e839e5ae03d1ca764472600160028054905061121e919061201a565b8260000151836020015184604001518560800151604051611243959493929190611e81565b60405180910390a15050505050565b61125a6113c5565b73ffffffffffffffffffffffffffffffffffffffff16611278610ce2565b73ffffffffffffffffffffffffffffffffffffffff16146112ce576040517f08c379a00000000000000000000000000000000000000000000000000000000081526004016112c590611da9565b60405180910390fd5b600073ffffffffffffffffffffffffffffffffffffffff168173ffffffffffffffffffffffffffffffffffffffff16141561133e576040517f08c379a000000000000000000000000000000000000000000000000000000000815260040161133590611d69565b60405180910390fd5b611347816113cd565b50565b6000816001805490508110611394576040517f08c379a000000000000000000000000000000000000000000000000000000000815260040161138b90611dc9565b60405180910390fd5b600183815481106113a8576113a7612299565b5b906000526020600020906006020160030180549050915050919050565b600033905090565b60008060009054906101000a900473ffffffffffffffffffffffffffffffffffffffff169050816000806101000a81548173ffffffffffffffffffffffffffffffffffffffff021916908373ffffffffffffffffffffffffffffffffffffffff1602179055508173ffffffffffffffffffffffffffffffffffffffff168173ffffffffffffffffffffffffffffffffffffffff167f8be0079c531659141344cd1fd0a4f28419497f9722a3daafe3b4186f6b6457e060405160405180910390a35050565b6040518060c00160405280600073ffffffffffffffffffffffffffffffffffffffff16815260200160008152602001600060048111156114d4576114d361223b565b5b815260200160608152602001600060018111156114f4576114f361223b565b5b8152602001606081525090565b82805482825590600052602060002090810192821561153d579160200282015b8281111561153c578251825591602001919060010190611521565b5b50905061154a919061161f565b5090565b82805461155a9061217f565b90600052602060002090601f01602090048101928261157c57600085556115c3565b82601f1061159557805160ff19168380011785556115c3565b828001600101855582156115c3579182015b828111156115c25782518255916020019190600101906115a7565b5b5090506115d0919061161f565b5090565b6040518060c00160405280600060ff16815260200160008152602001600081526020016000815260200160608152602001600060018111156116195761161861223b565b5b81525090565b5b80821115611638576000816000905550600101611620565b5090565b600061164f61164a84611f68565b611f43565b90508083825260208201905082856020860282011115611672576116716122fc565b5b60005b858110156116a25781611688888261175f565b845260208401935060208301925050600181019050611675565b5050509392505050565b60006116bf6116ba84611f94565b611f43565b9050828152602081018484840111156116db576116da612301565b5b6116e684828561213d565b509392505050565b6000813590506116fd81612464565b92915050565b600082601f830112611718576117176122f7565b5b813561172884826020860161163c565b91505092915050565b600082601f830112611746576117456122f7565b5b81356117568482602086016116ac565b91505092915050565b60008135905061176e8161247b565b92915050565b60008135905061178381612492565b92915050565b60006020828403121561179f5761179e61230b565b5b60006117ad848285016116ee565b91505092915050565b6000806000606084860312156117cf576117ce61230b565b5b60006117dd868287016116ee565b935050602084013567ffffffffffffffff8111156117fe576117fd612306565b5b61180a86828701611731565b925050604061181b86828701611774565b9150509250925092565b6000806000806080858703121561183f5761183e61230b565b5b600061184d878288016116ee565b945050602061185e8782880161175f565b935050604061186f8782880161175f565b92505060606118808782880161175f565b91505092959194509250565b600080604083850312156118a3576118a261230b565b5b600083013567ffffffffffffffff8111156118c1576118c0612306565b5b6118cd85828601611703565b92505060206118de85828601611774565b9150509250929050565b6000602082840312156118fe576118fd61230b565b5b600061190c8482850161175f565b91505092915050565b6000806040838503121561192c5761192b61230b565b5b600061193a8582860161175f565b925050602061194b8582860161175f565b9150509250929050565b60006020828403121561196b5761196a61230b565b5b600061197984828501611774565b91505092915050565b6000806000806080858703121561199c5761199b61230b565b5b60006119aa87828801611774565b94505060206119bb8782880161175f565b93505060406119cc8782880161175f565b925050606085013567ffffffffffffffff8111156119ed576119ec612306565b5b6119f987828801611731565b91505092959194509250565b6000611a118383611bae565b60208301905092915050565b611a268161204e565b82525050565b6000611a3782611fd5565b611a418185611ff8565b9350611a4c83611fc5565b8060005b83811015611a7d578151611a648882611a05565b9750611a6f83611feb565b925050600181019050611a50565b5085935050505092915050565b611a93816120e3565b82525050565b611aa2816120f5565b82525050565b611ab181612107565b82525050565b611ac081612119565b82525050565b6000611ad182611fe0565b611adb8185612009565b9350611aeb81856020860161214c565b611af481612310565b840191505092915050565b6000611b0c601683612009565b9150611b1782612321565b602082019050919050565b6000611b2f602683612009565b9150611b3a8261234a565b604082019050919050565b6000611b52600d83612009565b9150611b5d82612399565b602082019050919050565b6000611b75602083612009565b9150611b80826123c2565b602082019050919050565b6000611b98601383612009565b9150611ba3826123eb565b602082019050919050565b611bb7816120cc565b82525050565b611bc6816120cc565b82525050565b611bd58161212b565b82525050565b611be4816120d6565b82525050565b6000602082019050611bff6000830184611a1d565b92915050565b6000604082019050611c1a6000830185611a1d565b8181036020830152611c2c8184611ac6565b90509392505050565b600060a082019050611c4a6000830188611a1d565b611c576020830187611bbd565b611c646040830186611a8a565b611c716060830185611a99565b8181036080830152611c838184611ac6565b90509695505050505050565b6000608082019050611ca46000830187611a1d565b611cb16020830186611bbd565b611cbe6040830185611bbd565b611ccb6060830184611bbd565b95945050505050565b600060a082019050611ce96000830188611a1d565b611cf66020830187611bbd565b611d036040830186611bbd565b611d106060830185611bbd565b611d1d6080830184611aa8565b9695505050505050565b60006020820190508181036000830152611d418184611a2c565b905092915050565b60006020820190508181036000830152611d6281611aff565b9050919050565b60006020820190508181036000830152611d8281611b22565b9050919050565b60006020820190508181036000830152611da281611b45565b9050919050565b60006020820190508181036000830152611dc281611b68565b9050919050565b60006020820190508181036000830152611de281611b8b565b9050919050565b6000602082019050611dfe6000830184611bbd565b92915050565b600060e082019050611e19600083018a611bbd565b611e266020830189611a1d565b611e336040830188611bbd565b611e406060830187611a8a565b8181036080830152611e528186611a2c565b9050611e6160a0830185611bcc565b81810360c0830152611e738184611ac6565b905098975050505050505050565b600060a082019050611e966000830188611bbd565b611ea36020830187611bdb565b611eb06040830186611bbd565b611ebd6060830185611bbd565b8181036080830152611ecf8184611ac6565b90509695505050505050565b600060c082019050611ef06000830189611bdb565b611efd6020830188611bbd565b611f0a6040830187611bbd565b611f176060830186611bbd565b8181036080830152611f298185611ac6565b9050611f3860a0830184611ab7565b979650505050505050565b6000611f4d611f5e565b9050611f5982826121b1565b919050565b6000604051905090565b600067ffffffffffffffff821115611f8357611f826122c8565b5b602082029050602081019050919050565b600067ffffffffffffffff821115611faf57611fae6122c8565b5b611fb882612310565b9050602081019050919050565b6000819050602082019050919050565b600081519050919050565b600081519050919050565b6000602082019050919050565b600082825260208201905092915050565b600082825260208201905092915050565b6000612025826120cc565b9150612030836120cc565b9250828210156120435761204261220c565b5b828203905092915050565b6000612059826120ac565b9050919050565b600081905061206e82612414565b919050565b600081905061208182612428565b919050565b60008190506120948261243c565b919050565b60008190506120a782612450565b919050565b600073ffffffffffffffffffffffffffffffffffffffff82169050919050565b6000819050919050565b600060ff82169050919050565b60006120ee82612060565b9050919050565b600061210082612073565b9050919050565b600061211282612086565b9050919050565b600061212482612099565b9050919050565b6000612136826120d6565b9050919050565b82818337600083830152505050565b60005b8381101561216a57808201518184015260208101905061214f565b83811115612179576000848401525b50505050565b6000600282049050600182168061219757607f821691505b602082108114156121ab576121aa61226a565b5b50919050565b6121ba82612310565b810181811067ffffffffffffffff821117156121d9576121d86122c8565b5b80604052505050565b60006121ed826120d6565b915060ff8214156122015761220061220c565b5b600182019050919050565b7f4e487b7100000000000000000000000000000000000000000000000000000000600052601160045260246000fd5b7f4e487b7100000000000000000000000000000000000000000000000000000000600052602160045260246000fd5b7f4e487b7100000000000000000000000000000000000000000000000000000000600052602260045260246000fd5b7f4e487b7100000000000000000000000000000000000000000000000000000000600052603260045260246000fd5b7f4e487b7100000000000000000000000000000000000000000000000000000000600052604160045260246000fd5b600080fd5b600080fd5b600080fd5b600080fd5b600080fd5b6000601f19601f8301169050919050565b7f50726f706f73616c20646f65736e277420657869737400000000000000000000600082015250565b7f4f776e61626c653a206e6577206f776e657220697320746865207a65726f206160008201527f6464726573730000000000000000000000000000000000000000000000000000602082015250565b7f496e76616c696420696e64657800000000000000000000000000000000000000600082015250565b7f4f776e61626c653a2063616c6c6572206973206e6f7420746865206f776e6572600082015250565b7f4f6666657220646f65736e277420657869737400000000000000000000000000600082015250565b600581106124255761242461223b565b5b50565b600281106124395761243861223b565b5b50565b6002811061244d5761244c61223b565b5b50565b600281106124615761246061223b565b5b50565b61246d8161204e565b811461247857600080fd5b50565b612484816120cc565b811461248f57600080fd5b50565b61249b816120d6565b81146124a657600080fd5b5056fea264697066735822122032a92142d218439bdefc03185d41a3b1e61ce8fe60c5eb4d5a8db21955c67b4c64736f6c63430008060033",
  "immutableReferences": {},
  "source": "// SPDX-License-Identifier: MIT\npragma solidity ^0.8.6;\n\nimport \"@openzeppelin/contracts/access/Ownable.sol\";\n\n/**\n * @title This Smart Contract is responsible to generate the offers for customers.\n * @notice Manage all aspects related to offering (proposals, customers and products management)\n * @author Keeymon, DavidRochus\n */\ncontract Offering is Ownable {\n    /**\n     * @dev Offer status\n     */\n    enum OfferStatus {\n        New,\n        Accepted\n    }\n\n    /**\n     * @dev Product status\n     */\n    enum ProductStatus {\n        Active,\n        Closed\n    }\n\n    /**\n     * @dev Proposal status\n     */\n    enum ProposalStatus {\n        Active,\n        Closed\n    }\n\n    /**\n     * @dev Eligibility reasons\n     */\n    enum EligibilityReason {\n        None,\n        UnknowUser,\n        LowUser,\n        DoubleSpent,\n        Other\n    }\n\n    /**\n     * @dev Offer information\n     */\n    struct Offer {\n        address phoneHash;\n        uint timestamp;\n        EligibilityReason reason;\n        uint256[] proposals;\n        OfferStatus status;\n        string ref;\n    }\n\n    /**\n     * @dev Product information\n     */\n    struct Product {\n        address phoneHash;\n        uint timestamp;\n        uint256 idOffer;\n        uint256 idProposal;\n        ProductStatus status;\n    }\n\n    /**\n     * @dev Proposal information\n     */\n    struct Proposal {\n        uint8 minScoring;\n        uint256 capital;\n        uint256 interest;\n        uint256 validityPeriod;\n        string description;\n        ProposalStatus status;\n    }\n\n    /**\n     * @dev Offers table\n     */\n    Offer[] public offers;\n    /**\n     * @dev Proposals table\n     */\n    Proposal[] public proposals;\n    /**\n     * @dev Products table\n     */\n    Product[] public products;\n\n    /**\n     * @dev Triggered when a proposal is added\n     */\n    event ProposalAdded(\n        uint256 idProposal,\n        uint8 minScoring,\n        uint256 capital,\n        uint256 interest,\n        string description\n    );\n    /**\n     * @dev Triggered when a proposal is closed\n     */\n    event ClosedProposal(uint256 idProposal);\n    /**\n     * @dev Triggered when a product is created\n     */\n    event ProductCreated(address phoneHash, uint timestamp, uint256 idOffer, uint256 idProposal);\n    /**\n     * @dev Triggered when a lowBalance is received\n     */\n    event LowBalanceReceived(address phoneHash, string ref);\n    /**\n     * @dev Triggered when an offer has to be sent\n     */\n    event OfferSent(\n        uint256 idOffer,\n        address phoneHash,\n        uint timestamp,\n        EligibilityReason reason,\n        uint256[] proposals,\n        uint256 scoring,\n        string ref\n    );\n    /**\n     * @dev Triggered when an acceptance is received\n     */\n    event AcceptanceReceived(\n        address phoneHash,\n        uint256 idOffer,\n        uint256 idProposal\n    );\n    /**\n     * @dev Triggered when a confirmation has to be sent\n     */\n    event ConfirmationSent(\n        uint256 productId,\n        uint256 idOffer,\n        address phoneHash,\n        uint timestamp\n    );\n    /**\n     * @dev Triggered when a topUp is received\n     */\n    event TopUpReceived(address phoneHash, uint256 productId, uint256 amount);\n    /**\n     * @dev Triggered when an acknowledge has to be sent\n     */\n    event AcknowledgeSent(address phoneHash, uint256 productId, uint256 amount);\n\n    /**\n     * @dev Check if proposal exists\n     */\n    modifier existProposal(uint256 id) {\n        require(id < proposals.length, \"Proposal doesn't exist\");\n        _;\n    }\n    /**\n     * @dev Check if offer exists\n     */\n    modifier existOffer(uint256 id) {\n        require(id < offers.length, \"Offer doesn't exist\");\n        _;\n    }\n    /**\n     * @dev Check if product exists\n     */\n    modifier existProduct(uint256 id) {\n        require(id < products.length, \"Product doesn't exist\");\n        _;\n    }\n\n    /**\n     * @dev Smart Contract constructor\n     */\n    constructor() {}\n\n    /**\n      * @notice Add a proposal\n      * @param _minScoring The minimum score needed by customer to receive this proposal\n      * @param _capital Capital part of the proposal amount\n      * @param _interest Interest part of the proposal amount\n      * @param _description A description of the proposal\n      * @dev Add a proposal with the following information: minimum scoring `_minScoring`, amount `_capital` + `_interest`, description `_description`\n      */\n    function addProposal(\n        uint8 _minScoring,\n        uint256 _capital,\n        uint256 _interest,\n        string memory _description\n    ) public onlyOwner {\n        Proposal memory proposalData;\n\n        proposalData.minScoring = _minScoring;\n        proposalData.capital = _capital;\n        proposalData.interest = _interest;\n        proposalData.description = _description;\n        proposalData.status = ProposalStatus.Active;\n        proposals.push(proposalData);\n\n        emit ProposalAdded(\n            (proposals.length - 1),\n            proposalData.minScoring,\n            proposalData.capital,\n            proposalData.interest,\n            proposalData.description\n        );\n    }\n\n    /**\n      * @notice Close a proposal\n      * @param _id ID of the proposal to close\n      * @dev Close the proposal with the ID `_id`\n      */\n    function closedProposal(uint256 _id) public onlyOwner existProposal(_id) {\n        proposals[_id].status = ProposalStatus.Closed;\n        emit ClosedProposal(_id);\n    }\n\n    /**\n      * @notice Number of proposals\n      * @dev Return the number of proposals\n      */\n    function proposalsCount() public view returns (uint256) {\n        return proposals.length;\n    }\n\n    function getSizeProposalOffer(uint256 _idOffer) public view existOffer(_idOffer) returns(uint256) {\n        return offers[_idOffer].proposals.length;\n    }\n\n    function getIndexProposalOffer(uint256 _idOffer, uint256 _id) public view existOffer(_idOffer) returns(uint256) {\n        require(_id < offers[_idOffer].proposals.length, \"Invalid index\");\n        return offers[_idOffer].proposals[_id];\n    }\n\n    /**\n      * @notice Manage the \"low balances\" received and generate an offer\n      * @param _phoneHash The address that identifies to the customer\n      * @param _ref Reference of the telecom provider\n      * @param _score score of the customer\n      * @dev Manage lowBalance (with reference `_ref`) of a customer (identified with `_phoneHash`) and generate an offer based on the score `_score` \n      */\n    function lowBalanceOffering(address _phoneHash, string memory _ref, uint8 _score) public onlyOwner {\n        emit LowBalanceReceived(_phoneHash, _ref);\n\n        //Register Offer\n        Offer memory offerData;\n        offerData.phoneHash = _phoneHash;\n        offerData.timestamp = block.timestamp;\n        offerData.status = OfferStatus.New;\n        offerData.proposals = getOfferProposals(_score);\n        offerData.ref = _ref;\n        offers.push(offerData);\n\n        emit OfferSent(\n            (offers.length - 1),\n            offerData.phoneHash,\n            offerData.timestamp,\n            offerData.reason,\n            offerData.proposals,\n            _score,\n            _ref\n        );\n    }\n\n    /**\n      * @notice Create a product\n      * @param _phoneHash The address that identifies to the customer\n      * @param _acceptanceTimestamp Timestamp of the acceptance\n      * @param _idOffer ID of the offer\n      * @param _idProposal ID of the proposal\n      * @dev Create a product with the following information: a customer (identified with `_phoneHash`), an offer ID `_idOffer`, a proposal ID `_idProposal` and a timestamp `_acceptanceTimestamp` \n      */\n    function createProduct(address _phoneHash, uint _acceptanceTimestamp, uint256 _idOffer, uint256 _idProposal) public onlyOwner existProposal(_idProposal) existOffer(_idOffer) returns(uint256) {\n        Product memory product = Product(_phoneHash, _acceptanceTimestamp, _idOffer, _idProposal, ProductStatus.Active);\n        products.push(product);\n        emit ProductCreated(_phoneHash, _acceptanceTimestamp, _idOffer, _idProposal);\n        return (products.length - 1);\n    }\n\n    /**\n      * @notice Get the proposals corresponding to the scoring\n      * @param _scoring score of the customer\n      * @return Proposals\n      * @dev Return the proposals that correspond to the given scoring `_scoring`\n      */\n    function getOfferProposals(uint8 _scoring)\n        public\n        view\n        returns (uint256[] memory)\n    {\n        uint256[] memory offerProposals = new uint256[](3);\n        uint8 offerProposalsIndex = 0;\n\n        if (_scoring == 0) {\n            return offerProposals;\n        }\n        \n        for (\n            uint8 i = 0;\n            (i < proposals.length && offerProposalsIndex < 3);\n            i++\n        ) {\n            if (\n                proposals[i].status == ProposalStatus.Active &&\n                _scoring >= proposals[i].minScoring\n            ) {\n                offerProposals[offerProposalsIndex] = i;\n                offerProposalsIndex++;\n            }\n        }\n        return trimOfferProposals(offerProposals,offerProposalsIndex);\n    }\n\n    /**\n      * @notice Create a trimmed table of the proposals\n      * @param _offerProposals Initial proposals table\n      * @param _offerProposalsCount Number of proposals to retrieve in the initial table\n      * @return Proposals\n      * @dev Return a proposals based on table `_offerProposals` with only the first `_offerProposalsCount` proposals\n      */\n    function trimOfferProposals(uint256[] memory _offerProposals, uint8 _offerProposalsCount)\n        public\n        pure\n        returns (uint256[] memory)\n    {\n        uint256[] memory offerProposals = new uint256[](_offerProposalsCount);\n        for (uint8 i = 0; i < _offerProposalsCount; i++) {\n            offerProposals[i]=_offerProposals[i];\n        }\n        return offerProposals;\n    }\n\n}\n",
  "sourcePath": "/home/keymon/work/projet-pro/dApp/timelapse/contracts/Offering.sol",
  "compiler": {
    "name": "solc",
    "version": "0.8.6+commit.11564f7e.Emscripten.clang"
  },
  "schemaVersion": "3.4.1",
  "updatedAt": "2021-07-20T18:28:21.268Z",
  "devdoc": {
    "author": "Keeymon, DavidRochus",
    "events": {
      "AcceptanceReceived(address,uint256,uint256)": {
        "details": "Triggered when an acceptance is received"
      },
      "AcknowledgeSent(address,uint256,uint256)": {
        "details": "Triggered when an acknowledge has to be sent"
      },
      "ClosedProposal(uint256)": {
        "details": "Triggered when a proposal is closed"
      },
      "ConfirmationSent(uint256,uint256,address,uint256)": {
        "details": "Triggered when a confirmation has to be sent"
      },
      "LowBalanceReceived(address,string)": {
        "details": "Triggered when a lowBalance is received"
      },
      "OfferSent(uint256,address,uint256,uint8,uint256[],uint256,string)": {
        "details": "Triggered when an offer has to be sent"
      },
      "ProductCreated(address,uint256,uint256,uint256)": {
        "details": "Triggered when a product is created"
      },
      "ProposalAdded(uint256,uint8,uint256,uint256,string)": {
        "details": "Triggered when a proposal is added"
      },
      "TopUpReceived(address,uint256,uint256)": {
        "details": "Triggered when a topUp is received"
      }
    },
    "kind": "dev",
    "methods": {
      "addProposal(uint8,uint256,uint256,string)": {
        "details": "Add a proposal with the following information: minimum scoring `_minScoring`, amount `_capital` + `_interest`, description `_description`",
        "params": {
          "_capital": "Capital part of the proposal amount",
          "_description": "A description of the proposal",
          "_interest": "Interest part of the proposal amount",
          "_minScoring": "The minimum score needed by customer to receive this proposal"
        }
      },
      "closedProposal(uint256)": {
        "details": "Close the proposal with the ID `_id`",
        "params": {
          "_id": "ID of the proposal to close"
        }
      },
      "constructor": {
        "details": "Smart Contract constructor"
      },
      "createProduct(address,uint256,uint256,uint256)": {
        "details": "Create a product with the following information: a customer (identified with `_phoneHash`), an offer ID `_idOffer`, a proposal ID `_idProposal` and a timestamp `_acceptanceTimestamp` ",
        "params": {
          "_acceptanceTimestamp": "Timestamp of the acceptance",
          "_idOffer": "ID of the offer",
          "_idProposal": "ID of the proposal",
          "_phoneHash": "The address that identifies to the customer"
        }
      },
      "getOfferProposals(uint8)": {
        "details": "Return the proposals that correspond to the given scoring `_scoring`",
        "params": {
          "_scoring": "score of the customer"
        },
        "returns": {
          "_0": "Proposals"
        }
      },
      "lowBalanceOffering(address,string,uint8)": {
        "details": "Manage lowBalance (with reference `_ref`) of a customer (identified with `_phoneHash`) and generate an offer based on the score `_score` ",
        "params": {
          "_phoneHash": "The address that identifies to the customer",
          "_ref": "Reference of the telecom provider",
          "_score": "score of the customer"
        }
      },
      "owner()": {
        "details": "Returns the address of the current owner."
      },
      "proposalsCount()": {
        "details": "Return the number of proposals"
      },
      "renounceOwnership()": {
        "details": "Leaves the contract without owner. It will not be possible to call `onlyOwner` functions anymore. Can only be called by the current owner. NOTE: Renouncing ownership will leave the contract without an owner, thereby removing any functionality that is only available to the owner."
      },
      "transferOwnership(address)": {
        "details": "Transfers ownership of the contract to a new account (`newOwner`). Can only be called by the current owner."
      },
      "trimOfferProposals(uint256[],uint8)": {
        "details": "Return a proposals based on table `_offerProposals` with only the first `_offerProposalsCount` proposals",
        "params": {
          "_offerProposals": "Initial proposals table",
          "_offerProposalsCount": "Number of proposals to retrieve in the initial table"
        },
        "returns": {
          "_0": "Proposals"
        }
      }
    },
    "stateVariables": {
      "offers": {
        "details": "Offers table"
      },
      "products": {
        "details": "Products table"
      },
      "proposals": {
        "details": "Proposals table"
      }
    },
    "title": "This Smart Contract is responsible to generate the offers for customers.",
    "version": 1
  },
  "userdoc": {
    "kind": "user",
    "methods": {
      "addProposal(uint8,uint256,uint256,string)": {
        "notice": "Add a proposal"
      },
      "closedProposal(uint256)": {
        "notice": "Close a proposal"
      },
      "createProduct(address,uint256,uint256,uint256)": {
        "notice": "Create a product"
      },
      "getOfferProposals(uint8)": {
        "notice": "Get the proposals corresponding to the scoring"
      },
      "lowBalanceOffering(address,string,uint8)": {
        "notice": "Manage the \"low balances\" received and generate an offer"
      },
      "proposalsCount()": {
        "notice": "Number of proposals"
      },
      "trimOfferProposals(uint256[],uint8)": {
        "notice": "Create a trimmed table of the proposals"
      }
    },
    "notice": "Manage all aspects related to offering (proposals, customers and products management)",
    "version": 1
  }
}