{
  "contractName": "Offering",
  "abi": [
    {
      "inputs": [],
      "stateMutability": "nonpayable",
      "type": "constructor"
    },
    {
      "anonymous": false,
      "inputs": [
        {
          "indexed": false,
          "internalType": "address",
          "name": "id",
          "type": "address"
        },
        {
          "indexed": false,
          "internalType": "address",
          "name": "phoneHash",
          "type": "address"
        },
        {
          "indexed": false,
          "internalType": "address",
          "name": "offerId",
          "type": "address"
        },
        {
          "indexed": false,
          "internalType": "address",
          "name": "proposalId",
          "type": "address"
        }
      ],
      "name": "AcceptanceReceived",
      "type": "event"
    },
    {
      "anonymous": false,
      "inputs": [
        {
          "indexed": false,
          "internalType": "address",
          "name": "id",
          "type": "address"
        },
        {
          "indexed": false,
          "internalType": "address",
          "name": "phoneHash",
          "type": "address"
        },
        {
          "indexed": false,
          "internalType": "address",
          "name": "productId",
          "type": "address"
        },
        {
          "indexed": false,
          "internalType": "uint256",
          "name": "amount",
          "type": "uint256"
        }
      ],
      "name": "AcknowledgeSent",
      "type": "event"
    },
    {
      "anonymous": false,
      "inputs": [
        {
          "indexed": false,
          "internalType": "address",
          "name": "id",
          "type": "address"
        },
        {
          "indexed": false,
          "internalType": "address",
          "name": "offerId",
          "type": "address"
        },
        {
          "indexed": false,
          "internalType": "address",
          "name": "phoneHash",
          "type": "address"
        },
        {
          "indexed": false,
          "internalType": "uint256",
          "name": "timestamp",
          "type": "uint256"
        }
      ],
      "name": "ConfirmationSent",
      "type": "event"
    },
    {
      "anonymous": false,
      "inputs": [
        {
          "indexed": false,
          "internalType": "address",
          "name": "id",
          "type": "address"
        },
        {
          "indexed": false,
          "internalType": "address",
          "name": "phoneHash",
          "type": "address"
        }
      ],
      "name": "LowBalanceReceived",
      "type": "event"
    },
    {
      "anonymous": false,
      "inputs": [
        {
          "indexed": false,
          "internalType": "address",
          "name": "id",
          "type": "address"
        },
        {
          "indexed": false,
          "internalType": "address",
          "name": "phoneHash",
          "type": "address"
        },
        {
          "indexed": false,
          "internalType": "uint256",
          "name": "timestamp",
          "type": "uint256"
        },
        {
          "indexed": false,
          "internalType": "enum Offering.EligibilityReason",
          "name": "reason",
          "type": "uint8"
        },
        {
          "indexed": false,
          "internalType": "uint256[]",
          "name": "proposals",
          "type": "uint256[]"
        },
        {
          "indexed": false,
          "internalType": "uint256",
          "name": "scoring",
          "type": "uint256"
        }
      ],
      "name": "OfferSent",
      "type": "event"
    },
    {
      "anonymous": false,
      "inputs": [
        {
          "indexed": true,
          "internalType": "address",
          "name": "previousOwner",
          "type": "address"
        },
        {
          "indexed": true,
          "internalType": "address",
          "name": "newOwner",
          "type": "address"
        }
      ],
      "name": "OwnershipTransferred",
      "type": "event"
    },
    {
      "anonymous": false,
      "inputs": [
        {
          "indexed": false,
          "internalType": "address",
          "name": "id",
          "type": "address"
        },
        {
          "indexed": false,
          "internalType": "uint8",
          "name": "minScoring",
          "type": "uint8"
        },
        {
          "indexed": false,
          "internalType": "string",
          "name": "description",
          "type": "string"
        }
      ],
      "name": "PackageAdded",
      "type": "event"
    },
    {
      "anonymous": false,
      "inputs": [
        {
          "indexed": false,
          "internalType": "address",
          "name": "id",
          "type": "address"
        },
        {
          "indexed": false,
          "internalType": "address",
          "name": "phoneHash",
          "type": "address"
        },
        {
          "indexed": false,
          "internalType": "address",
          "name": "productId",
          "type": "address"
        },
        {
          "indexed": false,
          "internalType": "uint256",
          "name": "amount",
          "type": "uint256"
        }
      ],
      "name": "TopUpReceived",
      "type": "event"
    },
    {
      "inputs": [
        {
          "internalType": "address",
          "name": "",
          "type": "address"
        }
      ],
      "name": "offerList",
      "outputs": [
        {
          "internalType": "uint256",
          "name": "",
          "type": "uint256"
        }
      ],
      "stateMutability": "view",
      "type": "function",
      "constant": true
    },
    {
      "inputs": [
        {
          "internalType": "uint256",
          "name": "",
          "type": "uint256"
        }
      ],
      "name": "offers",
      "outputs": [
        {
          "internalType": "address",
          "name": "id",
          "type": "address"
        },
        {
          "internalType": "address",
          "name": "phoneHash",
          "type": "address"
        },
        {
          "internalType": "uint256",
          "name": "timestamp",
          "type": "uint256"
        },
        {
          "internalType": "enum Offering.EligibilityReason",
          "name": "reason",
          "type": "uint8"
        },
        {
          "internalType": "enum Offering.OfferStatus",
          "name": "status",
          "type": "uint8"
        }
      ],
      "stateMutability": "view",
      "type": "function",
      "constant": true
    },
    {
      "inputs": [],
      "name": "owner",
      "outputs": [
        {
          "internalType": "address",
          "name": "",
          "type": "address"
        }
      ],
      "stateMutability": "view",
      "type": "function",
      "constant": true
    },
    {
      "inputs": [
        {
          "internalType": "address",
          "name": "",
          "type": "address"
        }
      ],
      "name": "packageList",
      "outputs": [
        {
          "internalType": "uint256",
          "name": "",
          "type": "uint256"
        }
      ],
      "stateMutability": "view",
      "type": "function",
      "constant": true
    },
    {
      "inputs": [
        {
          "internalType": "uint256",
          "name": "",
          "type": "uint256"
        }
      ],
      "name": "packages",
      "outputs": [
        {
          "internalType": "address",
          "name": "id",
          "type": "address"
        },
        {
          "internalType": "uint8",
          "name": "minScoring",
          "type": "uint8"
        },
        {
          "internalType": "string",
          "name": "description",
          "type": "string"
        }
      ],
      "stateMutability": "view",
      "type": "function",
      "constant": true
    },
    {
      "inputs": [
        {
          "internalType": "address",
          "name": "",
          "type": "address"
        }
      ],
      "name": "productList",
      "outputs": [
        {
          "internalType": "uint256",
          "name": "",
          "type": "uint256"
        }
      ],
      "stateMutability": "view",
      "type": "function",
      "constant": true
    },
    {
      "inputs": [
        {
          "internalType": "uint256",
          "name": "",
          "type": "uint256"
        }
      ],
      "name": "products",
      "outputs": [
        {
          "internalType": "address",
          "name": "id",
          "type": "address"
        },
        {
          "internalType": "address",
          "name": "phoneHash",
          "type": "address"
        },
        {
          "internalType": "uint256",
          "name": "timestamp",
          "type": "uint256"
        },
        {
          "internalType": "address",
          "name": "offerId",
          "type": "address"
        },
        {
          "internalType": "address",
          "name": "proposalId",
          "type": "address"
        },
        {
          "internalType": "uint256",
          "name": "topUpAmount",
          "type": "uint256"
        },
        {
          "internalType": "enum Offering.ProductStatus",
          "name": "status",
          "type": "uint8"
        }
      ],
      "stateMutability": "view",
      "type": "function",
      "constant": true
    },
    {
      "inputs": [],
      "name": "renounceOwnership",
      "outputs": [],
      "stateMutability": "nonpayable",
      "type": "function"
    },
    {
      "inputs": [
        {
          "internalType": "address",
          "name": "newOwner",
          "type": "address"
        }
      ],
      "name": "transferOwnership",
      "outputs": [],
      "stateMutability": "nonpayable",
      "type": "function"
    },
    {
      "inputs": [
        {
          "internalType": "address",
          "name": "_id",
          "type": "address"
        },
        {
          "internalType": "uint8",
          "name": "_minScoring",
          "type": "uint8"
        },
        {
          "internalType": "string",
          "name": "_description",
          "type": "string"
        }
      ],
      "name": "addPackage",
      "outputs": [],
      "stateMutability": "nonpayable",
      "type": "function"
    },
    {
      "inputs": [
        {
          "internalType": "address",
          "name": "_id",
          "type": "address"
        },
        {
          "internalType": "uint8",
          "name": "_minScoring",
          "type": "uint8"
        },
        {
          "internalType": "string",
          "name": "_description",
          "type": "string"
        }
      ],
      "name": "updatePackage",
      "outputs": [],
      "stateMutability": "nonpayable",
      "type": "function"
    },
    {
      "inputs": [
        {
          "internalType": "address",
          "name": "_id",
          "type": "address"
        }
      ],
      "name": "deletePackage",
      "outputs": [],
      "stateMutability": "nonpayable",
      "type": "function"
    },
    {
      "inputs": [],
      "name": "packagesCount",
      "outputs": [
        {
          "internalType": "uint256",
          "name": "",
          "type": "uint256"
        }
      ],
      "stateMutability": "view",
      "type": "function",
      "constant": true
    },
    {
      "inputs": [
        {
          "internalType": "address",
          "name": "_id",
          "type": "address"
        },
        {
          "internalType": "address",
          "name": "_phoneHash",
          "type": "address"
        }
      ],
      "name": "lowBalance",
      "outputs": [],
      "stateMutability": "nonpayable",
      "type": "function"
    },
    {
      "inputs": [
        {
          "internalType": "address",
          "name": "_id",
          "type": "address"
        },
        {
          "internalType": "address",
          "name": "_phoneHash",
          "type": "address"
        },
        {
          "internalType": "address",
          "name": "_offerId",
          "type": "address"
        },
        {
          "internalType": "address",
          "name": "_proposalId",
          "type": "address"
        }
      ],
      "name": "acceptance",
      "outputs": [],
      "stateMutability": "nonpayable",
      "type": "function"
    },
    {
      "inputs": [
        {
          "internalType": "address",
          "name": "_id",
          "type": "address"
        },
        {
          "internalType": "address",
          "name": "_phoneHash",
          "type": "address"
        },
        {
          "internalType": "address",
          "name": "_productId",
          "type": "address"
        },
        {
          "internalType": "uint256",
          "name": "_amount",
          "type": "uint256"
        }
      ],
      "name": "topUp",
      "outputs": [],
      "stateMutability": "nonpayable",
      "type": "function"
    },
    {
      "inputs": [
        {
          "internalType": "address",
          "name": "_phoneHash",
          "type": "address"
        }
      ],
      "name": "eligibility",
      "outputs": [
        {
          "internalType": "uint8",
          "name": "",
          "type": "uint8"
        },
        {
          "internalType": "enum Offering.EligibilityReason",
          "name": "",
          "type": "uint8"
        }
      ],
      "stateMutability": "pure",
      "type": "function",
      "constant": true
    },
    {
      "inputs": [
        {
          "internalType": "uint8",
          "name": "_scoring",
          "type": "uint8"
        }
      ],
      "name": "getOfferProposals",
      "outputs": [
        {
          "internalType": "uint256[]",
          "name": "",
          "type": "uint256[]"
        }
      ],
      "stateMutability": "view",
      "type": "function",
      "constant": true
    },
    {
      "inputs": [],
      "name": "getUniqueId",
      "outputs": [
        {
          "internalType": "address",
          "name": "",
          "type": "address"
        }
      ],
      "stateMutability": "nonpayable",
      "type": "function"
    }
  ],
  "bytecode": "0x608060405260006001553480156200001657600080fd5b50620000376200002b620000fd60201b60201c565b6200010560201b60201c565b62000041620001c9565b600381908060018154018082558091505060019003906000526020600020906002020160009091909190915060008201518160000160006101000a81548173ffffffffffffffffffffffffffffffffffffffff021916908373ffffffffffffffffffffffffffffffffffffffff16021790555060208201518160000160146101000a81548160ff021916908360ff1602179055506040820151816001019080519060200190620000f392919062000203565b5050505062000318565b600033905090565b60008060009054906101000a900473ffffffffffffffffffffffffffffffffffffffff169050816000806101000a81548173ffffffffffffffffffffffffffffffffffffffff021916908373ffffffffffffffffffffffffffffffffffffffff1602179055508173ffffffffffffffffffffffffffffffffffffffff168173ffffffffffffffffffffffffffffffffffffffff167f8be0079c531659141344cd1fd0a4f28419497f9722a3daafe3b4186f6b6457e060405160405180910390a35050565b6040518060600160405280600073ffffffffffffffffffffffffffffffffffffffff168152602001600060ff168152602001606081525090565b8280546200021190620002b3565b90600052602060002090601f01602090048101928262000235576000855562000281565b82601f106200025057805160ff191683800117855562000281565b8280016001018555821562000281579182015b828111156200028057825182559160200191906001019062000263565b5b50905062000290919062000294565b5090565b5b80821115620002af57600081600090555060010162000295565b5090565b60006002820490506001821680620002cc57607f821691505b60208210811415620002e357620002e2620002e9565b5b50919050565b7f4e487b7100000000000000000000000000000000000000000000000000000000600052602260045260246000fd5b61258980620003286000396000f3fe608060405234801561001057600080fd5b50600436106101215760003560e01c80638da5cb5b116100ad578063b97ea90111610071578063b97ea90114610339578063be00d7e014610355578063c216212a14610371578063f17ca4de146103a3578063f2fde38b146103bf57610121565b80638da5cb5b1461029557806399f6042c146102b3578063a002c98e146102cf578063a154c329146102ff578063ab63d7f21461031b57610121565b806346747b38116100f457806346747b38146101c057806363c36dec146101f0578063715018a6146102215780637acc0b201461022b5780638a72ea6a1461026157610121565b806318e10bff1461012657806334caf98514610144578063371ed6fc1461016057806339e2f75314610190575b600080fd5b61012e6103db565b60405161013b9190612034565b60405180910390f35b61015e60048036038101906101599190611a2d565b6103e8565b005b61017a600480360381019061017591906119c0565b610810565b6040516101879190612034565b60405180910390f35b6101aa60048036038101906101a591906119c0565b610828565b6040516101b79190612034565b60405180910390f35b6101da60048036038101906101d59190611b97565b610840565b6040516101e79190611fd2565b60405180910390f35b61020a600480360381019061020591906119c0565b610954565b60405161021892919061204f565b60405180910390f35b610229610a0f565b005b61024560048036038101906102409190611b6a565b610a97565b6040516102589796959493929190611e6a565b60405180910390f35b61027b60048036038101906102769190611b6a565b610b76565b60405161028c959493929190611f41565b60405180910390f35b61029d610c16565b6040516102aa9190611d9c565b60405180910390f35b6102cd60048036038101906102c89190611a94565b610c3f565b005b6102e960048036038101906102e491906119c0565b610db5565b6040516102f69190612034565b60405180910390f35b61031960048036038101906103149190611afb565b610dcd565b005b610323610f81565b6040516103309190611d9c565b60405180910390f35b610353600480360381019061034e91906119ed565b610fd0565b005b61036f600480360381019061036a91906119c0565b611309565b005b61038b60048036038101906103869190611b6a565b61130c565b60405161039a93929190611f94565b60405180910390f35b6103bd60048036038101906103b89190611afb565b6113fb565b005b6103d960048036038101906103d491906119c0565b6114f6565b005b6000600380549050905090565b7f9fed5a62fe9501d068f04df635825d8729a33885d23ab830434b2f8ebeaf160a8484848460405161041d9493929190611de0565b60405180910390a160016002600560008573ffffffffffffffffffffffffffffffffffffffff1673ffffffffffffffffffffffffffffffffffffffff168152602001908152602001600020548154811061047a576104796123ca565b5b906000526020600020906006020160050160006101000a81548160ff021916908360018111156104ad576104ac61236c565b5b02179055506104ba6116ba565b84816000019073ffffffffffffffffffffffffffffffffffffffff16908173ffffffffffffffffffffffffffffffffffffffff168152505082816060019073ffffffffffffffffffffffffffffffffffffffff16908173ffffffffffffffffffffffffffffffffffffffff168152505081816080019073ffffffffffffffffffffffffffffffffffffffff16908173ffffffffffffffffffffffffffffffffffffffff168152505083816020019073ffffffffffffffffffffffffffffffffffffffff16908173ffffffffffffffffffffffffffffffffffffffff16815250504281604001818152505060008160c0019060018111156105bd576105bc61236c565b5b908160018111156105d1576105d061236c565b5b81525050600481908060018154018082558091505060019003906000526020600020906007020160009091909190915060008201518160000160006101000a81548173ffffffffffffffffffffffffffffffffffffffff021916908373ffffffffffffffffffffffffffffffffffffffff16021790555060208201518160010160006101000a81548173ffffffffffffffffffffffffffffffffffffffff021916908373ffffffffffffffffffffffffffffffffffffffff1602179055506040820151816002015560608201518160030160006101000a81548173ffffffffffffffffffffffffffffffffffffffff021916908373ffffffffffffffffffffffffffffffffffffffff16021790555060808201518160040160006101000a81548173ffffffffffffffffffffffffffffffffffffffff021916908373ffffffffffffffffffffffffffffffffffffffff16021790555060a0820151816005015560c08201518160060160006101000a81548160ff0219169083600181111561075c5761075b61236c565b5b0217905550505060016004805490506107759190612123565b60076000836000015173ffffffffffffffffffffffffffffffffffffffff1673ffffffffffffffffffffffffffffffffffffffff168152602001908152602001600020819055507fa4a5234f25e3dd600ce4398a33a10cd9f54ad429830d20e50a15a55d553fd1be81600001518260600151836020015184604001516040516108019493929190611e25565b60405180910390a15050505050565b60066020528060005260406000206000915090505481565b60076020528060005260406000206000915090505481565b60606000600367ffffffffffffffff81111561085f5761085e6123f9565b5b60405190808252806020026020018201604052801561088d5781602001602082028036833780820191505090505b5090506000808460ff1614156108a757819250505061094f565b6000600190505b600380549050811080156108c25750600382105b1561094857600381815481106108db576108da6123ca565b5b906000526020600020906002020160000160149054906101000a900460ff1660ff168560ff1610610935578083838151811061091a576109196123ca565b5b6020026020010181815250508180610931906122c6565b9250505b8080610940906122c6565b9150506108ae565b5081925050505b919050565b60008073718cea3706787aa03bd936b76303fa00660c5f4273ffffffffffffffffffffffffffffffffffffffff168373ffffffffffffffffffffffffffffffffffffffff1614156109ac576003600091509150610a0a565b733ad53d26d15a658a84fe8ca9ffc8aa3a7240c1a073ffffffffffffffffffffffffffffffffffffffff168373ffffffffffffffffffffffffffffffffffffffff161415610a01576006600091509150610a0a565b60006003915091505b915091565b610a176115ee565b73ffffffffffffffffffffffffffffffffffffffff16610a35610c16565b73ffffffffffffffffffffffffffffffffffffffff1614610a8b576040517f08c379a0000000000000000000000000000000000000000000000000000000008152600401610a8290612014565b60405180910390fd5b610a9560006115f6565b565b60048181548110610aa757600080fd5b90600052602060002090600702016000915090508060000160009054906101000a900473ffffffffffffffffffffffffffffffffffffffff16908060010160009054906101000a900473ffffffffffffffffffffffffffffffffffffffff16908060020154908060030160009054906101000a900473ffffffffffffffffffffffffffffffffffffffff16908060040160009054906101000a900473ffffffffffffffffffffffffffffffffffffffff16908060050154908060060160009054906101000a900460ff16905087565b60028181548110610b8657600080fd5b90600052602060002090600602016000915090508060000160009054906101000a900473ffffffffffffffffffffffffffffffffffffffff16908060010160009054906101000a900473ffffffffffffffffffffffffffffffffffffffff16908060020154908060030160009054906101000a900460ff16908060050160009054906101000a900460ff16905085565b60008060009054906101000a900473ffffffffffffffffffffffffffffffffffffffff16905090565b7fb5aa124bd48563f20b936863336edaf55e3eabbdb1878101ba7b9870126b399084848484604051610c749493929190611e25565b60405180910390a160016004600760008573ffffffffffffffffffffffffffffffffffffffff1673ffffffffffffffffffffffffffffffffffffffff1681526020019081526020016000205481548110610cd157610cd06123ca565b5b906000526020600020906007020160060160006101000a81548160ff02191690836001811115610d0457610d0361236c565b5b0217905550806004600760008573ffffffffffffffffffffffffffffffffffffffff1673ffffffffffffffffffffffffffffffffffffffff1681526020019081526020016000205481548110610d5d57610d5c6123ca565b5b9060005260206000209060070201600501819055507fcda1db9edae8c6e0b105ab1ad4ecfefe4fc79e9b27db7fb1f9b3af2d595d35e684848484604051610da79493929190611e25565b60405180910390a150505050565b60056020528060005260406000206000915090505481565b610dd5611761565b83816000019073ffffffffffffffffffffffffffffffffffffffff16908173ffffffffffffffffffffffffffffffffffffffff168152505082816020019060ff16908160ff1681525050818160400181905250600381908060018154018082558091505060019003906000526020600020906002020160009091909190915060008201518160000160006101000a81548173ffffffffffffffffffffffffffffffffffffffff021916908373ffffffffffffffffffffffffffffffffffffffff16021790555060208201518160000160146101000a81548160ff021916908360ff1602179055506040820151816001019080519060200190610ed892919061179b565b5050506001600380549050610eed9190612123565b60066000836000015173ffffffffffffffffffffffffffffffffffffffff1673ffffffffffffffffffffffffffffffffffffffff168152602001908152602001600020819055507f32e84505ee7717a7c849bcd0013e628eb5258599979b1e98ca170dbd8956dca0816000015182602001518360400151604051610f7393929190611f94565b60405180910390a150505050565b600060016000815480929190610f96906122c6565b91905055504233600154604051602001610fb293929190611d5f565b6040516020818303038152906040528051906020012060601c905090565b7f91e48296c3b38ce9fcb6e85a19360a25480f6b8d8aabfa98101684a18109269b8282604051611001929190611db7565b60405180910390a160008061101583610954565b8092508193505050611025611821565b84816000019073ffffffffffffffffffffffffffffffffffffffff16908173ffffffffffffffffffffffffffffffffffffffff168152505083816020019073ffffffffffffffffffffffffffffffffffffffff16908173ffffffffffffffffffffffffffffffffffffffff16815250504281604001818152505081816060019060048111156110b7576110b661236c565b5b908160048111156110cb576110ca61236c565b5b8152505060008160a0019060018111156110e8576110e761236c565b5b908160018111156110fc576110fb61236c565b5b8152505061110983610840565b8160800181905250600281908060018154018082558091505060019003906000526020600020906006020160009091909190915060008201518160000160006101000a81548173ffffffffffffffffffffffffffffffffffffffff021916908373ffffffffffffffffffffffffffffffffffffffff16021790555060208201518160010160006101000a81548173ffffffffffffffffffffffffffffffffffffffff021916908373ffffffffffffffffffffffffffffffffffffffff1602179055506040820151816002015560608201518160030160006101000a81548160ff02191690836004811115611200576111ff61236c565b5b021790555060808201518160040190805190602001906112219291906118a7565b5060a08201518160050160006101000a81548160ff0219169083600181111561124d5761124c61236c565b5b0217905550505060016002805490506112669190612123565b60056000836000015173ffffffffffffffffffffffffffffffffffffffff1673ffffffffffffffffffffffffffffffffffffffff168152602001908152602001600020819055507f115607723671f70e624a2be44385d471278874aaeb650d20f07e9f222a88627781600001518260200151836040015184606001518560800151886040516112fa96959493929190611ed9565b60405180910390a15050505050565b50565b6003818154811061131c57600080fd5b90600052602060002090600202016000915090508060000160009054906101000a900473ffffffffffffffffffffffffffffffffffffffff16908060000160149054906101000a900460ff169080600101805461137890612263565b80601f01602080910402602001604051908101604052809291908181526020018280546113a490612263565b80156113f15780601f106113c6576101008083540402835291602001916113f1565b820191906000526020600020905b8154815290600101906020018083116113d457829003601f168201915b5050505050905083565b816003600660008673ffffffffffffffffffffffffffffffffffffffff1673ffffffffffffffffffffffffffffffffffffffff168152602001908152602001600020548154811061144f5761144e6123ca565b5b906000526020600020906002020160000160146101000a81548160ff021916908360ff160217905550806003600660008673ffffffffffffffffffffffffffffffffffffffff1673ffffffffffffffffffffffffffffffffffffffff16815260200190815260200160002054815481106114cc576114cb6123ca565b5b906000526020600020906002020160010190805190602001906114f092919061179b565b50505050565b6114fe6115ee565b73ffffffffffffffffffffffffffffffffffffffff1661151c610c16565b73ffffffffffffffffffffffffffffffffffffffff1614611572576040517f08c379a000000000000000000000000000000000000000000000000000000000815260040161156990612014565b60405180910390fd5b600073ffffffffffffffffffffffffffffffffffffffff168173ffffffffffffffffffffffffffffffffffffffff1614156115e2576040517f08c379a00000000000000000000000000000000000000000000000000000000081526004016115d990611ff4565b60405180910390fd5b6115eb816115f6565b50565b600033905090565b60008060009054906101000a900473ffffffffffffffffffffffffffffffffffffffff169050816000806101000a81548173ffffffffffffffffffffffffffffffffffffffff021916908373ffffffffffffffffffffffffffffffffffffffff1602179055508173ffffffffffffffffffffffffffffffffffffffff168173ffffffffffffffffffffffffffffffffffffffff167f8be0079c531659141344cd1fd0a4f28419497f9722a3daafe3b4186f6b6457e060405160405180910390a35050565b6040518060e00160405280600073ffffffffffffffffffffffffffffffffffffffff168152602001600073ffffffffffffffffffffffffffffffffffffffff16815260200160008152602001600073ffffffffffffffffffffffffffffffffffffffff168152602001600073ffffffffffffffffffffffffffffffffffffffff168152602001600081526020016000600181111561175b5761175a61236c565b5b81525090565b6040518060600160405280600073ffffffffffffffffffffffffffffffffffffffff168152602001600060ff168152602001606081525090565b8280546117a790612263565b90600052602060002090601f0160209004810192826117c95760008555611810565b82601f106117e257805160ff1916838001178555611810565b82800160010185558215611810579182015b8281111561180f5782518255916020019190600101906117f4565b5b50905061181d91906118f4565b5090565b6040518060c00160405280600073ffffffffffffffffffffffffffffffffffffffff168152602001600073ffffffffffffffffffffffffffffffffffffffff16815260200160008152602001600060048111156118815761188061236c565b5b815260200160608152602001600060018111156118a1576118a061236c565b5b81525090565b8280548282559060005260206000209081019282156118e3579160200282015b828111156118e25782518255916020019190600101906118c7565b5b5090506118f091906118f4565b5090565b5b8082111561190d5760008160009055506001016118f5565b5090565b600061192461191f8461209d565b612078565b9050828152602081018484840111156119405761193f61242d565b5b61194b848285612221565b509392505050565b6000813590506119628161250e565b92915050565b600082601f83011261197d5761197c612428565b5b813561198d848260208601611911565b91505092915050565b6000813590506119a581612525565b92915050565b6000813590506119ba8161253c565b92915050565b6000602082840312156119d6576119d5612437565b5b60006119e484828501611953565b91505092915050565b60008060408385031215611a0457611a03612437565b5b6000611a1285828601611953565b9250506020611a2385828601611953565b9150509250929050565b60008060008060808587031215611a4757611a46612437565b5b6000611a5587828801611953565b9450506020611a6687828801611953565b9350506040611a7787828801611953565b9250506060611a8887828801611953565b91505092959194509250565b60008060008060808587031215611aae57611aad612437565b5b6000611abc87828801611953565b9450506020611acd87828801611953565b9350506040611ade87828801611953565b9250506060611aef87828801611996565b91505092959194509250565b600080600060608486031215611b1457611b13612437565b5b6000611b2286828701611953565b9350506020611b33868287016119ab565b925050604084013567ffffffffffffffff811115611b5457611b53612432565b5b611b6086828701611968565b9150509250925092565b600060208284031215611b8057611b7f612437565b5b6000611b8e84828501611996565b91505092915050565b600060208284031215611bad57611bac612437565b5b6000611bbb848285016119ab565b91505092915050565b6000611bd08383611d0c565b60208301905092915050565b611be581612157565b82525050565b611bfc611bf782612157565b61230f565b82525050565b6000611c0d826120de565b611c178185612101565b9350611c22836120ce565b8060005b83811015611c53578151611c3a8882611bc4565b9750611c45836120f4565b925050600181019050611c26565b5085935050505092915050565b611c69816121d9565b82525050565b611c78816121eb565b82525050565b611c87816121fd565b82525050565b6000611c98826120e9565b611ca28185612112565b9350611cb2818560208601612230565b611cbb8161243c565b840191505092915050565b6000611cd3602683612112565b9150611cde8261245a565b604082019050919050565b6000611cf6602083612112565b9150611d01826124a9565b602082019050919050565b611d15816121c2565b82525050565b611d24816121c2565b82525050565b611d3b611d36826121c2565b612333565b82525050565b611d4a8161220f565b82525050565b611d59816121cc565b82525050565b6000611d6b8286611d2a565b602082019150611d7b8285611beb565b601482019150611d8b8284611d2a565b602082019150819050949350505050565b6000602082019050611db16000830184611bdc565b92915050565b6000604082019050611dcc6000830185611bdc565b611dd96020830184611bdc565b9392505050565b6000608082019050611df56000830187611bdc565b611e026020830186611bdc565b611e0f6040830185611bdc565b611e1c6060830184611bdc565b95945050505050565b6000608082019050611e3a6000830187611bdc565b611e476020830186611bdc565b611e546040830185611bdc565b611e616060830184611d1b565b95945050505050565b600060e082019050611e7f600083018a611bdc565b611e8c6020830189611bdc565b611e996040830188611d1b565b611ea66060830187611bdc565b611eb36080830186611bdc565b611ec060a0830185611d1b565b611ecd60c0830184611c7e565b98975050505050505050565b600060c082019050611eee6000830189611bdc565b611efb6020830188611bdc565b611f086040830187611d1b565b611f156060830186611c60565b8181036080830152611f278185611c02565b9050611f3660a0830184611d41565b979650505050505050565b600060a082019050611f566000830188611bdc565b611f636020830187611bdc565b611f706040830186611d1b565b611f7d6060830185611c60565b611f8a6080830184611c6f565b9695505050505050565b6000606082019050611fa96000830186611bdc565b611fb66020830185611d50565b8181036040830152611fc88184611c8d565b9050949350505050565b60006020820190508181036000830152611fec8184611c02565b905092915050565b6000602082019050818103600083015261200d81611cc6565b9050919050565b6000602082019050818103600083015261202d81611ce9565b9050919050565b60006020820190506120496000830184611d1b565b92915050565b60006040820190506120646000830185611d50565b6120716020830184611c60565b9392505050565b6000612082612093565b905061208e8282612295565b919050565b6000604051905090565b600067ffffffffffffffff8211156120b8576120b76123f9565b5b6120c18261243c565b9050602081019050919050565b6000819050602082019050919050565b600081519050919050565b600081519050919050565b6000602082019050919050565b600082825260208201905092915050565b600082825260208201905092915050565b600061212e826121c2565b9150612139836121c2565b92508282101561214c5761214b61233d565b5b828203905092915050565b6000612162826121a2565b9050919050565b6000819050612177826124d2565b919050565b600081905061218a826124e6565b919050565b600081905061219d826124fa565b919050565b600073ffffffffffffffffffffffffffffffffffffffff82169050919050565b6000819050919050565b600060ff82169050919050565b60006121e482612169565b9050919050565b60006121f68261217c565b9050919050565b60006122088261218f565b9050919050565b600061221a826121cc565b9050919050565b82818337600083830152505050565b60005b8381101561224e578082015181840152602081019050612233565b8381111561225d576000848401525b50505050565b6000600282049050600182168061227b57607f821691505b6020821081141561228f5761228e61239b565b5b50919050565b61229e8261243c565b810181811067ffffffffffffffff821117156122bd576122bc6123f9565b5b80604052505050565b60006122d1826121c2565b91507fffffffffffffffffffffffffffffffffffffffffffffffffffffffffffffffff8214156123045761230361233d565b5b600182019050919050565b600061231a82612321565b9050919050565b600061232c8261244d565b9050919050565b6000819050919050565b7f4e487b7100000000000000000000000000000000000000000000000000000000600052601160045260246000fd5b7f4e487b7100000000000000000000000000000000000000000000000000000000600052602160045260246000fd5b7f4e487b7100000000000000000000000000000000000000000000000000000000600052602260045260246000fd5b7f4e487b7100000000000000000000000000000000000000000000000000000000600052603260045260246000fd5b7f4e487b7100000000000000000000000000000000000000000000000000000000600052604160045260246000fd5b600080fd5b600080fd5b600080fd5b600080fd5b6000601f19601f8301169050919050565b60008160601b9050919050565b7f4f776e61626c653a206e6577206f776e657220697320746865207a65726f206160008201527f6464726573730000000000000000000000000000000000000000000000000000602082015250565b7f4f776e61626c653a2063616c6c6572206973206e6f7420746865206f776e6572600082015250565b600581106124e3576124e261236c565b5b50565b600281106124f7576124f661236c565b5b50565b6002811061250b5761250a61236c565b5b50565b61251781612157565b811461252257600080fd5b50565b61252e816121c2565b811461253957600080fd5b50565b612545816121cc565b811461255057600080fd5b5056fea2646970667358221220311f2a7365fc27defbb35052227e7ab34aaef76b9f5315fe7834a93f2e4ca0a764736f6c63430008060033",
  "immutableReferences": {},
  "source": "// SPDX-License-Identifier: MIT\npragma solidity ^0.8.6;\n\nimport \"@openzeppelin/contracts/access/Ownable.sol\";\n\ncontract Offering is Ownable {\n    uint256 private nonce = 0;\n\n    enum OfferStatus {\n        New,\n        Accepted\n    }\n\n    enum ProductStatus {\n        Active,\n        Closed\n    }\n\n    enum EligibilityReason {\n        None,\n        UnknowUser,\n        LowUser,\n        DoubleSpent,\n        Other\n    }\n\n    struct Offer {\n        address id;\n        address phoneHash;\n        uint256 timestamp;\n        EligibilityReason reason;\n        uint256[] proposals;\n        OfferStatus status;\n    }\n\n    struct Product {\n        address id;\n        address phoneHash;\n        uint256 timestamp;\n        address offerId;\n        address proposalId;\n        uint256 topUpAmount;\n        ProductStatus status;\n    }\n\n    struct Package {\n        address id;\n        uint8 minScoring;\n        string description;\n    }\n\n    Offer[] public offers;\n    Package[] public packages;\n    Product[] public products;\n\n    mapping(address => uint256) public offerList;\n    mapping(address => uint256) public packageList;\n    mapping(address => uint256) public productList;\n\n    event PackageAdded(address id, uint8 minScoring, string description);\n    event LowBalanceReceived(address id, address phoneHash);\n\n    event OfferSent(\n        address id,\n        address phoneHash,\n        uint256 timestamp,\n        EligibilityReason reason,\n        uint256[] proposals,\n        uint256 scoring\n    );\n    event AcceptanceReceived(\n        address id,\n        address phoneHash,\n        address offerId,\n        address proposalId\n    );\n    event ConfirmationSent(\n        address id,\n        address offerId,\n        address phoneHash,\n        uint256 timestamp\n    );\n    event TopUpReceived(\n        address id,\n        address phoneHash,\n        address productId,\n        uint256 amount\n    );\n    event AcknowledgeSent(\n        address id,\n        address phoneHash,\n        address productId,\n        uint256 amount\n    );\n\n    constructor() {\n        // Init first (dummy) stake 0\n        Package memory packageData0;\n        packages.push(packageData0);\n    }\n\n    function addPackage(\n        address _id,\n        uint8 _minScoring,\n        string memory _description\n    ) public {\n        Package memory packageData;\n        packageData.id = _id;\n        packageData.minScoring = _minScoring;\n        packageData.description = _description;\n        packages.push(packageData);\n        packageList[packageData.id] = (packages.length - 1);\n        emit PackageAdded(\n            packageData.id,\n            packageData.minScoring,\n            packageData.description\n        );\n    }\n\n    function updatePackage(\n        address _id,\n        uint8 _minScoring,\n        string memory _description\n    ) public {\n        //TODO: manage update package\n        packages[packageList[_id]].minScoring = _minScoring;\n        packages[packageList[_id]].description = _description;\n    }\n\n    function deletePackage(address _id) public {\n        //TODO: manage delete package\n    }\n\n    function packagesCount() public view returns (uint256) {\n        return packages.length;\n    }\n\n    function lowBalance(address _id, address _phoneHash) public {\n        emit LowBalanceReceived(_id, _phoneHash);\n\n        uint8 scoring;\n        EligibilityReason eligibilityReason;\n        (scoring, eligibilityReason) = eligibility(_phoneHash);\n\n        //Register Offer\n        Offer memory offerData;\n        offerData.id = _id;\n        offerData.phoneHash = _phoneHash;\n        offerData.timestamp = block.timestamp;\n        offerData.reason = eligibilityReason;\n        offerData.status = OfferStatus.New;\n        offerData.proposals = getOfferProposals(scoring);\n        offers.push(offerData);\n        offerList[offerData.id] = (offers.length - 1);\n\n        emit OfferSent(\n            offerData.id,\n            offerData.phoneHash,\n            offerData.timestamp,\n            offerData.reason,\n            offerData.proposals,\n            scoring\n        );\n    }\n\n    function acceptance(\n        address _id,\n        address _phoneHash,\n        address _offerId,\n        address _proposalId\n    ) public {\n        emit AcceptanceReceived(_id, _phoneHash, _offerId, _proposalId);\n        offers[offerList[_offerId]].status = OfferStatus.Accepted;\n\n        Product memory productData;\n        productData.id = _id;\n        productData.offerId = _offerId;\n        productData.proposalId = _proposalId;\n        productData.phoneHash = _phoneHash;\n        productData.timestamp = block.timestamp;\n        productData.status = ProductStatus.Active;\n        products.push(productData);\n        productList[productData.id] = (products.length - 1);\n\n        emit ConfirmationSent(\n            productData.id,\n            productData.offerId,\n            productData.phoneHash,\n            productData.timestamp\n        );\n    }\n\n    function topUp(\n        address _id,\n        address _phoneHash,\n        address _productId,\n        uint256 _amount\n    ) public {\n        emit TopUpReceived(_id, _phoneHash, _productId, _amount);\n\n        products[productList[_productId]].status = ProductStatus.Closed;\n        //TODO: Manage check topUpAmount\n        products[productList[_productId]].topUpAmount = _amount;\n\n        emit AcknowledgeSent(_id, _phoneHash, _productId, _amount);\n    }\n\n    function eligibility(address _phoneHash)\n        public\n        pure\n        returns (uint8, EligibilityReason)\n    {\n        //TODO: Manage eligibility (scoring)\n        if (_phoneHash == 0x718CEA3706787aa03Bd936b76303fA00660C5f42) {\n            return (3, EligibilityReason.None);\n        } else if (_phoneHash == 0x3ad53d26D15A658A84Fe8cA9FFc8aA3a7240C1a0) {\n            return (6, EligibilityReason.None);\n        } else {\n            return (0, EligibilityReason.DoubleSpent);\n        }\n    }\n\n    function getOfferProposals(uint8 _scoring)\n        public\n        view\n        returns (uint256[] memory)\n    {\n        uint256[] memory offerProposals = new uint256[](3);\n        uint256 offerProposalsIndex = 0;\n\n        if (_scoring == 0) {\n            return offerProposals;\n        }\n        for (\n            uint256 i = 1;\n            (i < packages.length && offerProposalsIndex < 3);\n            i++\n        ) {\n            if (_scoring >= packages[i].minScoring) {\n                offerProposals[offerProposalsIndex] = i;\n                offerProposalsIndex++;\n            }\n        }\n        return offerProposals;\n    }\n\n    function getUniqueId() public returns (address) {\n        nonce++;\n        return\n            address(\n                bytes20(\n                    keccak256(\n                        abi.encodePacked(block.timestamp, msg.sender, nonce)\n                    )\n                )\n            );\n    }\n}\n",
  "sourcePath": "/home/keymon/work/projet-pro/dApp/timelapse/contracts/Offering.sol",
  "compiler": {
    "name": "solc",
    "version": "0.8.6+commit.11564f7e.Emscripten.clang"
  },
  "schemaVersion": "3.4.1",
  "updatedAt": "2021-07-07T09:35:14.100Z",
  "networkType": "ethereum",
  "devdoc": {
    "kind": "dev",
    "methods": {
      "owner()": {
        "details": "Returns the address of the current owner."
      },
      "renounceOwnership()": {
        "details": "Leaves the contract without owner. It will not be possible to call `onlyOwner` functions anymore. Can only be called by the current owner. NOTE: Renouncing ownership will leave the contract without an owner, thereby removing any functionality that is only available to the owner."
      },
      "transferOwnership(address)": {
        "details": "Transfers ownership of the contract to a new account (`newOwner`). Can only be called by the current owner."
      }
    },
    "version": 1
  },
  "userdoc": {
    "kind": "user",
    "methods": {},
    "version": 1
  }
}