{
  "contractName": "Offering",
  "abi": [
    {
      "inputs": [],
      "stateMutability": "nonpayable",
      "type": "constructor"
    },
    {
      "anonymous": false,
      "inputs": [
        {
          "indexed": false,
          "internalType": "address",
          "name": "phoneHash",
          "type": "address"
        },
        {
          "indexed": false,
          "internalType": "uint256",
          "name": "idOffer",
          "type": "uint256"
        },
        {
          "indexed": false,
          "internalType": "uint256",
          "name": "idProposal",
          "type": "uint256"
        }
      ],
      "name": "AcceptanceReceived",
      "type": "event"
    },
    {
      "anonymous": false,
      "inputs": [
        {
          "indexed": false,
          "internalType": "address",
          "name": "phoneHash",
          "type": "address"
        },
        {
          "indexed": false,
          "internalType": "uint256",
          "name": "productId",
          "type": "uint256"
        },
        {
          "indexed": false,
          "internalType": "uint256",
          "name": "amount",
          "type": "uint256"
        }
      ],
      "name": "AcknowledgeSent",
      "type": "event"
    },
    {
      "anonymous": false,
      "inputs": [
        {
          "indexed": false,
          "internalType": "uint256",
          "name": "productId",
          "type": "uint256"
        },
        {
          "indexed": false,
          "internalType": "uint256",
          "name": "idOffer",
          "type": "uint256"
        },
        {
          "indexed": false,
          "internalType": "address",
          "name": "phoneHash",
          "type": "address"
        },
        {
          "indexed": false,
          "internalType": "uint256",
          "name": "timestamp",
          "type": "uint256"
        }
      ],
      "name": "ConfirmationSent",
      "type": "event"
    },
    {
      "anonymous": false,
      "inputs": [
        {
          "indexed": false,
          "internalType": "address",
          "name": "phoneHash",
          "type": "address"
        },
        {
          "indexed": false,
          "internalType": "string",
          "name": "ref",
          "type": "string"
        }
      ],
      "name": "LowBalanceReceived",
      "type": "event"
    },
    {
      "anonymous": false,
      "inputs": [
        {
          "indexed": false,
          "internalType": "uint256",
          "name": "idOffer",
          "type": "uint256"
        },
        {
          "indexed": false,
          "internalType": "address",
          "name": "phoneHash",
          "type": "address"
        },
        {
          "indexed": false,
          "internalType": "uint256",
          "name": "timestamp",
          "type": "uint256"
        },
        {
          "indexed": false,
          "internalType": "enum Offering.EligibilityReason",
          "name": "reason",
          "type": "uint8"
        },
        {
          "indexed": false,
          "internalType": "uint256[]",
          "name": "proposals",
          "type": "uint256[]"
        },
        {
          "indexed": false,
          "internalType": "uint256",
          "name": "scoring",
          "type": "uint256"
        },
        {
          "indexed": false,
          "internalType": "string",
          "name": "ref",
          "type": "string"
        }
      ],
      "name": "OfferSent",
      "type": "event"
    },
    {
      "anonymous": false,
      "inputs": [
        {
          "indexed": true,
          "internalType": "address",
          "name": "previousOwner",
          "type": "address"
        },
        {
          "indexed": true,
          "internalType": "address",
          "name": "newOwner",
          "type": "address"
        }
      ],
      "name": "OwnershipTransferred",
      "type": "event"
    },
    {
      "anonymous": false,
      "inputs": [
        {
          "indexed": false,
          "internalType": "uint256",
          "name": "idProposal",
          "type": "uint256"
        },
        {
          "indexed": false,
          "internalType": "uint8",
          "name": "minScoring",
          "type": "uint8"
        },
        {
          "indexed": false,
          "internalType": "uint256",
          "name": "capital",
          "type": "uint256"
        },
        {
          "indexed": false,
          "internalType": "uint256",
          "name": "interest",
          "type": "uint256"
        },
        {
          "indexed": false,
          "internalType": "string",
          "name": "description",
          "type": "string"
        }
      ],
      "name": "ProposalAdded",
      "type": "event"
    },
    {
      "anonymous": false,
      "inputs": [
        {
          "indexed": false,
          "internalType": "address",
          "name": "phoneHash",
          "type": "address"
        },
        {
          "indexed": false,
          "internalType": "uint256",
          "name": "productId",
          "type": "uint256"
        },
        {
          "indexed": false,
          "internalType": "uint256",
          "name": "amount",
          "type": "uint256"
        }
      ],
      "name": "TopUpReceived",
      "type": "event"
    },
    {
      "inputs": [
        {
          "internalType": "uint256",
          "name": "",
          "type": "uint256"
        }
      ],
      "name": "offers",
      "outputs": [
        {
          "internalType": "address",
          "name": "phoneHash",
          "type": "address"
        },
        {
          "internalType": "uint256",
          "name": "timestamp",
          "type": "uint256"
        },
        {
          "internalType": "enum Offering.EligibilityReason",
          "name": "reason",
          "type": "uint8"
        },
        {
          "internalType": "enum Offering.OfferStatus",
          "name": "status",
          "type": "uint8"
        },
        {
          "internalType": "string",
          "name": "ref",
          "type": "string"
        }
      ],
      "stateMutability": "view",
      "type": "function"
    },
    {
      "inputs": [],
      "name": "owner",
      "outputs": [
        {
          "internalType": "address",
          "name": "",
          "type": "address"
        }
      ],
      "stateMutability": "view",
      "type": "function"
    },
    {
      "inputs": [
        {
          "internalType": "uint256",
          "name": "",
          "type": "uint256"
        }
      ],
      "name": "products",
      "outputs": [
        {
          "internalType": "address",
          "name": "phoneHash",
          "type": "address"
        },
        {
          "internalType": "uint256",
          "name": "timestamp",
          "type": "uint256"
        },
        {
          "internalType": "uint256",
          "name": "idOffer",
          "type": "uint256"
        },
        {
          "internalType": "uint256",
          "name": "idProposal",
          "type": "uint256"
        },
        {
          "internalType": "enum Offering.ProductStatus",
          "name": "status",
          "type": "uint8"
        }
      ],
      "stateMutability": "view",
      "type": "function"
    },
    {
      "inputs": [
        {
          "internalType": "uint256",
          "name": "",
          "type": "uint256"
        }
      ],
      "name": "proposals",
      "outputs": [
        {
          "internalType": "uint8",
          "name": "minScoring",
          "type": "uint8"
        },
        {
          "internalType": "uint256",
          "name": "capital",
          "type": "uint256"
        },
        {
          "internalType": "uint256",
          "name": "interest",
          "type": "uint256"
        },
        {
          "internalType": "uint256",
          "name": "validityPeriod",
          "type": "uint256"
        },
        {
          "internalType": "string",
          "name": "description",
          "type": "string"
        },
        {
          "internalType": "enum Offering.ProposalStatus",
          "name": "status",
          "type": "uint8"
        }
      ],
      "stateMutability": "view",
      "type": "function"
    },
    {
      "inputs": [],
      "name": "renounceOwnership",
      "outputs": [],
      "stateMutability": "nonpayable",
      "type": "function"
    },
    {
      "inputs": [
        {
          "internalType": "address",
          "name": "newOwner",
          "type": "address"
        }
      ],
      "name": "transferOwnership",
      "outputs": [],
      "stateMutability": "nonpayable",
      "type": "function"
    },
    {
      "inputs": [
        {
          "internalType": "uint8",
          "name": "_minScoring",
          "type": "uint8"
        },
        {
          "internalType": "uint256",
          "name": "_capital",
          "type": "uint256"
        },
        {
          "internalType": "uint256",
          "name": "_interest",
          "type": "uint256"
        },
        {
          "internalType": "string",
          "name": "_description",
          "type": "string"
        }
      ],
      "name": "addProposal",
      "outputs": [],
      "stateMutability": "nonpayable",
      "type": "function"
    },
    {
      "inputs": [
        {
          "internalType": "uint256",
          "name": "_id",
          "type": "uint256"
        }
      ],
      "name": "closedProposal",
      "outputs": [],
      "stateMutability": "nonpayable",
      "type": "function"
    },
    {
      "inputs": [],
      "name": "proposalsCount",
      "outputs": [
        {
          "internalType": "uint256",
          "name": "",
          "type": "uint256"
        }
      ],
      "stateMutability": "view",
      "type": "function"
    },
    {
      "inputs": [
        {
          "internalType": "address",
          "name": "_phoneHash",
          "type": "address"
        },
        {
          "internalType": "uint256",
          "name": "_acceptanceTimestamp",
          "type": "uint256"
        },
        {
          "internalType": "uint256",
          "name": "_idOffer",
          "type": "uint256"
        },
        {
          "internalType": "uint256",
          "name": "_idProposal",
          "type": "uint256"
        }
      ],
      "name": "createProduct",
      "outputs": [
        {
          "internalType": "uint256",
          "name": "",
          "type": "uint256"
        }
      ],
      "stateMutability": "nonpayable",
      "type": "function"
    },
    {
      "inputs": [
        {
          "internalType": "address",
          "name": "_phoneHash",
          "type": "address"
        },
        {
          "internalType": "string",
          "name": "_ref",
          "type": "string"
        },
        {
          "internalType": "uint8",
          "name": "_score",
          "type": "uint8"
        }
      ],
      "name": "lowBalanceOffering",
      "outputs": [],
      "stateMutability": "nonpayable",
      "type": "function"
    },
    {
      "inputs": [
        {
          "internalType": "uint8",
          "name": "_scoring",
          "type": "uint8"
        }
      ],
      "name": "getOfferProposals",
      "outputs": [
        {
          "internalType": "uint256[]",
          "name": "",
          "type": "uint256[]"
        }
      ],
      "stateMutability": "view",
      "type": "function"
    },
    {
      "inputs": [],
      "name": "getUniqueId",
      "outputs": [
        {
          "internalType": "address",
          "name": "",
          "type": "address"
        }
      ],
      "stateMutability": "nonpayable",
      "type": "function"
    }
  ],
  "bytecode": "0x6080604052600060015534801561001557600080fd5b5061003261002761003760201b60201c565b61003f60201b60201c565b610103565b600033905090565b60008060009054906101000a900473ffffffffffffffffffffffffffffffffffffffff169050816000806101000a81548173ffffffffffffffffffffffffffffffffffffffff021916908373ffffffffffffffffffffffffffffffffffffffff1602179055508173ffffffffffffffffffffffffffffffffffffffff168173ffffffffffffffffffffffffffffffffffffffff167f8be0079c531659141344cd1fd0a4f28419497f9722a3daafe3b4186f6b6457e060405160405180910390a35050565b611f00806101126000396000f3fe608060405234801561001057600080fd5b50600436106100cf5760003560e01c80637acc0b201161008c578063ab63d7f211610066578063ab63d7f21461021f578063b6ca45951461023d578063bdcf208c1461026d578063f2fde38b14610289576100cf565b80637acc0b20146101995780638a72ea6a146101cd5780638da5cb5b14610201576100cf565b8063013cf08b146100d45780630a9f46ad14610109578063116c327b1461012757806346747b381461014357806347466dc314610173578063715018a61461018f575b600080fd5b6100ee60048036038101906100e991906113d2565b6102a5565b60405161010096959493929190611925565b60405180910390f35b610111610393565b60405161011e9190611833565b60405180910390f35b610141600480360381019061013c91906112fc565b6103a0565b005b61015d600480360381019061015891906113ff565b6105f1565b60405161016a91906117b1565b60405180910390f35b61018d600480360381019061018891906113d2565b610769565b005b61019761087f565b005b6101b360048036038101906101ae91906113d2565b610907565b6040516101c495949392919061175e565b60405180910390f35b6101e760048036038101906101e291906113d2565b61097a565b6040516101f8959493929190611704565b60405180910390f35b610209610a82565b60405161021691906116b9565b60405180910390f35b610227610aab565b60405161023491906116b9565b60405180910390f35b6102576004803603810190610252919061136b565b610afa565b6040516102649190611833565b60405180910390f35b6102876004803603810190610282919061142c565b610cac565b005b6102a3600480360381019061029e91906112cf565b610eb1565b005b600381815481106102b557600080fd5b90600052602060002090600602016000915090508060000160009054906101000a900460ff16908060010154908060020154908060030154908060040180546102fd90611b9d565b80601f016020809104026020016040519081016040528092919081815260200182805461032990611b9d565b80156103765780601f1061034b57610100808354040283529160200191610376565b820191906000526020600020905b81548152906001019060200180831161035957829003601f168201915b5050505050908060050160009054906101000a900460ff16905086565b6000600380549050905090565b7f251fc0df7e56c36cfc4f618ef67296b8e2c41ce1ce473e5187bfec66743b38d383836040516103d19291906116d4565b60405180910390a16103e1611075565b83816000019073ffffffffffffffffffffffffffffffffffffffff16908173ffffffffffffffffffffffffffffffffffffffff16815250504281602001818152505060008160800190600181111561043c5761043b611ca6565b5b908160018111156104505761044f611ca6565b5b8152505061045d826105f1565b8160600181905250828160a00181905250600281908060018154018082558091505060019003906000526020600020906006020160009091909190915060008201518160000160006101000a81548173ffffffffffffffffffffffffffffffffffffffff021916908373ffffffffffffffffffffffffffffffffffffffff1602179055506020820151816001015560408201518160020160006101000a81548160ff0219169083600481111561051657610515611ca6565b5b021790555060608201518160030190805190602001906105379291906110e5565b5060808201518160040160006101000a81548160ff0219169083600181111561056357610562611ca6565b5b021790555060a0820151816005019080519060200190610584929190611132565b5050507f6a2d36566113fdc14dbc5b9458a0ba3a3eb54e394c2eb29fb26efdfee664f55e60016002805490506105ba9190611a38565b826000015183602001518460400151856060015187896040516105e3979695949392919061184e565b60405180910390a150505050565b60606000600367ffffffffffffffff8111156106105761060f611d33565b5b60405190808252806020026020018201604052801561063e5781602001602082028036833780820191505090505b5090506000808460ff161415610658578192505050610764565b6000600190505b600380549050811080156106735750600382105b1561075d576000600181111561068c5761068b611ca6565b5b600382815481106106a05761069f611d04565b5b906000526020600020906006020160050160009054906101000a900460ff1660018111156106d1576106d0611ca6565b5b1480156107165750600381815481106106ed576106ec611d04565b5b906000526020600020906006020160000160009054906101000a900460ff1660ff168560ff1610155b1561074a578083838151811061072f5761072e611d04565b5b602002602001018181525050818061074690611c00565b9250505b808061075590611c00565b91505061065f565b5081925050505b919050565b610771610fa9565b73ffffffffffffffffffffffffffffffffffffffff1661078f610a82565b73ffffffffffffffffffffffffffffffffffffffff16146107e5576040517f08c379a00000000000000000000000000000000000000000000000000000000081526004016107dc90611813565b60405180910390fd5b80600380549050811061082d576040517f08c379a0000000000000000000000000000000000000000000000000000000008152600401610824906117d3565b60405180910390fd5b60016003838154811061084357610842611d04565b5b906000526020600020906006020160050160006101000a81548160ff0219169083600181111561087657610875611ca6565b5b02179055505050565b610887610fa9565b73ffffffffffffffffffffffffffffffffffffffff166108a5610a82565b73ffffffffffffffffffffffffffffffffffffffff16146108fb576040517f08c379a00000000000000000000000000000000000000000000000000000000081526004016108f290611813565b60405180910390fd5b6109056000610fb1565b565b6004818154811061091757600080fd5b90600052602060002090600502016000915090508060000160009054906101000a900473ffffffffffffffffffffffffffffffffffffffff16908060010154908060020154908060030154908060040160009054906101000a900460ff16905085565b6002818154811061098a57600080fd5b90600052602060002090600602016000915090508060000160009054906101000a900473ffffffffffffffffffffffffffffffffffffffff16908060010154908060020160009054906101000a900460ff16908060040160009054906101000a900460ff16908060050180546109ff90611b9d565b80601f0160208091040260200160405190810160405280929190818152602001828054610a2b90611b9d565b8015610a785780601f10610a4d57610100808354040283529160200191610a78565b820191906000526020600020905b815481529060010190602001808311610a5b57829003601f168201915b5050505050905085565b60008060009054906101000a900473ffffffffffffffffffffffffffffffffffffffff16905090565b600060016000815480929190610ac090611c00565b91905055504233600154604051602001610adc9392919061167c565b6040516020818303038152906040528051906020012060601c905090565b6000610b04610fa9565b73ffffffffffffffffffffffffffffffffffffffff16610b22610a82565b73ffffffffffffffffffffffffffffffffffffffff1614610b78576040517f08c379a0000000000000000000000000000000000000000000000000000000008152600401610b6f90611813565b60405180910390fd5b60006040518060a001604052808773ffffffffffffffffffffffffffffffffffffffff16815260200186815260200185815260200184815260200160006001811115610bc757610bc6611ca6565b5b8152509050600481908060018154018082558091505060019003906000526020600020906005020160009091909190915060008201518160000160006101000a81548173ffffffffffffffffffffffffffffffffffffffff021916908373ffffffffffffffffffffffffffffffffffffffff16021790555060208201518160010155604082015181600201556060820151816003015560808201518160040160006101000a81548160ff02191690836001811115610c8857610c87611ca6565b5b021790555050506001600480549050610ca19190611a38565b915050949350505050565b610cb4610fa9565b73ffffffffffffffffffffffffffffffffffffffff16610cd2610a82565b73ffffffffffffffffffffffffffffffffffffffff1614610d28576040517f08c379a0000000000000000000000000000000000000000000000000000000008152600401610d1f90611813565b60405180910390fd5b610d306111b8565b84816000019060ff16908160ff1681525050838160200181815250508281604001818152505081816080018190525060008160a001906001811115610d7857610d77611ca6565b5b90816001811115610d8c57610d8b611ca6565b5b81525050600381908060018154018082558091505060019003906000526020600020906006020160009091909190915060008201518160000160006101000a81548160ff021916908360ff1602179055506020820151816001015560408201518160020155606082015181600301556080820151816004019080519060200190610e17929190611132565b5060a08201518160050160006101000a81548160ff02191690836001811115610e4357610e42611ca6565b5b021790555050507f0dd92ec7c9e4620459d0f39f48975327d855d61513c1e839e5ae03d1ca7644726001600380549050610e7d9190611a38565b8260000151836020015184604001518560800151604051610ea29594939291906118cb565b60405180910390a15050505050565b610eb9610fa9565b73ffffffffffffffffffffffffffffffffffffffff16610ed7610a82565b73ffffffffffffffffffffffffffffffffffffffff1614610f2d576040517f08c379a0000000000000000000000000000000000000000000000000000000008152600401610f2490611813565b60405180910390fd5b600073ffffffffffffffffffffffffffffffffffffffff168173ffffffffffffffffffffffffffffffffffffffff161415610f9d576040517f08c379a0000000000000000000000000000000000000000000000000000000008152600401610f94906117f3565b60405180910390fd5b610fa681610fb1565b50565b600033905090565b60008060009054906101000a900473ffffffffffffffffffffffffffffffffffffffff169050816000806101000a81548173ffffffffffffffffffffffffffffffffffffffff021916908373ffffffffffffffffffffffffffffffffffffffff1602179055508173ffffffffffffffffffffffffffffffffffffffff168173ffffffffffffffffffffffffffffffffffffffff167f8be0079c531659141344cd1fd0a4f28419497f9722a3daafe3b4186f6b6457e060405160405180910390a35050565b6040518060c00160405280600073ffffffffffffffffffffffffffffffffffffffff16815260200160008152602001600060048111156110b8576110b7611ca6565b5b815260200160608152602001600060018111156110d8576110d7611ca6565b5b8152602001606081525090565b828054828255906000526020600020908101928215611121579160200282015b82811115611120578251825591602001919060010190611105565b5b50905061112e9190611203565b5090565b82805461113e90611b9d565b90600052602060002090601f01602090048101928261116057600085556111a7565b82601f1061117957805160ff19168380011785556111a7565b828001600101855582156111a7579182015b828111156111a657825182559160200191906001019061118b565b5b5090506111b49190611203565b5090565b6040518060c00160405280600060ff16815260200160008152602001600081526020016000815260200160608152602001600060018111156111fd576111fc611ca6565b5b81525090565b5b8082111561121c576000816000905550600101611204565b5090565b600061123361122e846119b2565b61198d565b90508281526020810184848401111561124f5761124e611d67565b5b61125a848285611b5b565b509392505050565b60008135905061127181611e85565b92915050565b600082601f83011261128c5761128b611d62565b5b813561129c848260208601611220565b91505092915050565b6000813590506112b481611e9c565b92915050565b6000813590506112c981611eb3565b92915050565b6000602082840312156112e5576112e4611d71565b5b60006112f384828501611262565b91505092915050565b60008060006060848603121561131557611314611d71565b5b600061132386828701611262565b935050602084013567ffffffffffffffff81111561134457611343611d6c565b5b61135086828701611277565b9250506040611361868287016112ba565b9150509250925092565b6000806000806080858703121561138557611384611d71565b5b600061139387828801611262565b94505060206113a4878288016112a5565b93505060406113b5878288016112a5565b92505060606113c6878288016112a5565b91505092959194509250565b6000602082840312156113e8576113e7611d71565b5b60006113f6848285016112a5565b91505092915050565b60006020828403121561141557611414611d71565b5b6000611423848285016112ba565b91505092915050565b6000806000806080858703121561144657611445611d71565b5b6000611454878288016112ba565b9450506020611465878288016112a5565b9350506040611476878288016112a5565b925050606085013567ffffffffffffffff81111561149757611496611d6c565b5b6114a387828801611277565b91505092959194509250565b60006114bb8383611629565b60208301905092915050565b6114d081611a6c565b82525050565b6114e76114e282611a6c565b611c49565b82525050565b60006114f8826119f3565b6115028185611a16565b935061150d836119e3565b8060005b8381101561153e57815161152588826114af565b975061153083611a09565b925050600181019050611511565b5085935050505092915050565b61155481611b01565b82525050565b61156381611b13565b82525050565b61157281611b25565b82525050565b61158181611b37565b82525050565b6000611592826119fe565b61159c8185611a27565b93506115ac818560208601611b6a565b6115b581611d76565b840191505092915050565b60006115cd601683611a27565b91506115d882611d94565b602082019050919050565b60006115f0602683611a27565b91506115fb82611dbd565b604082019050919050565b6000611613602083611a27565b915061161e82611e0c565b602082019050919050565b61163281611aea565b82525050565b61164181611aea565b82525050565b61165861165382611aea565b611c6d565b82525050565b61166781611b49565b82525050565b61167681611af4565b82525050565b60006116888286611647565b60208201915061169882856114d6565b6014820191506116a88284611647565b602082019150819050949350505050565b60006020820190506116ce60008301846114c7565b92915050565b60006040820190506116e960008301856114c7565b81810360208301526116fb8184611587565b90509392505050565b600060a08201905061171960008301886114c7565b6117266020830187611638565b611733604083018661154b565b611740606083018561155a565b81810360808301526117528184611587565b90509695505050505050565b600060a08201905061177360008301886114c7565b6117806020830187611638565b61178d6040830186611638565b61179a6060830185611638565b6117a76080830184611569565b9695505050505050565b600060208201905081810360008301526117cb81846114ed565b905092915050565b600060208201905081810360008301526117ec816115c0565b9050919050565b6000602082019050818103600083015261180c816115e3565b9050919050565b6000602082019050818103600083015261182c81611606565b9050919050565b60006020820190506118486000830184611638565b92915050565b600060e082019050611863600083018a611638565b61187060208301896114c7565b61187d6040830188611638565b61188a606083018761154b565b818103608083015261189c81866114ed565b90506118ab60a083018561165e565b81810360c08301526118bd8184611587565b905098975050505050505050565b600060a0820190506118e06000830188611638565b6118ed602083018761166d565b6118fa6040830186611638565b6119076060830185611638565b81810360808301526119198184611587565b90509695505050505050565b600060c08201905061193a600083018961166d565b6119476020830188611638565b6119546040830187611638565b6119616060830186611638565b81810360808301526119738185611587565b905061198260a0830184611578565b979650505050505050565b60006119976119a8565b90506119a38282611bcf565b919050565b6000604051905090565b600067ffffffffffffffff8211156119cd576119cc611d33565b5b6119d682611d76565b9050602081019050919050565b6000819050602082019050919050565b600081519050919050565b600081519050919050565b6000602082019050919050565b600082825260208201905092915050565b600082825260208201905092915050565b6000611a4382611aea565b9150611a4e83611aea565b925082821015611a6157611a60611c77565b5b828203905092915050565b6000611a7782611aca565b9050919050565b6000819050611a8c82611e35565b919050565b6000819050611a9f82611e49565b919050565b6000819050611ab282611e5d565b919050565b6000819050611ac582611e71565b919050565b600073ffffffffffffffffffffffffffffffffffffffff82169050919050565b6000819050919050565b600060ff82169050919050565b6000611b0c82611a7e565b9050919050565b6000611b1e82611a91565b9050919050565b6000611b3082611aa4565b9050919050565b6000611b4282611ab7565b9050919050565b6000611b5482611af4565b9050919050565b82818337600083830152505050565b60005b83811015611b88578082015181840152602081019050611b6d565b83811115611b97576000848401525b50505050565b60006002820490506001821680611bb557607f821691505b60208210811415611bc957611bc8611cd5565b5b50919050565b611bd882611d76565b810181811067ffffffffffffffff82111715611bf757611bf6611d33565b5b80604052505050565b6000611c0b82611aea565b91507fffffffffffffffffffffffffffffffffffffffffffffffffffffffffffffffff821415611c3e57611c3d611c77565b5b600182019050919050565b6000611c5482611c5b565b9050919050565b6000611c6682611d87565b9050919050565b6000819050919050565b7f4e487b7100000000000000000000000000000000000000000000000000000000600052601160045260246000fd5b7f4e487b7100000000000000000000000000000000000000000000000000000000600052602160045260246000fd5b7f4e487b7100000000000000000000000000000000000000000000000000000000600052602260045260246000fd5b7f4e487b7100000000000000000000000000000000000000000000000000000000600052603260045260246000fd5b7f4e487b7100000000000000000000000000000000000000000000000000000000600052604160045260246000fd5b600080fd5b600080fd5b600080fd5b600080fd5b6000601f19601f8301169050919050565b60008160601b9050919050565b7f50726f706f73616c20646f65736e277420657869737400000000000000000000600082015250565b7f4f776e61626c653a206e6577206f776e657220697320746865207a65726f206160008201527f6464726573730000000000000000000000000000000000000000000000000000602082015250565b7f4f776e61626c653a2063616c6c6572206973206e6f7420746865206f776e6572600082015250565b60058110611e4657611e45611ca6565b5b50565b60028110611e5a57611e59611ca6565b5b50565b60028110611e6e57611e6d611ca6565b5b50565b60028110611e8257611e81611ca6565b5b50565b611e8e81611a6c565b8114611e9957600080fd5b50565b611ea581611aea565b8114611eb057600080fd5b50565b611ebc81611af4565b8114611ec757600080fd5b5056fea26469706673582212206b700a33aee4efce53aeb44aaad6cf92c800051035a23d522d8c1446fa7885b164736f6c63430008060033",
  "immutableReferences": {},
  "source": "// SPDX-License-Identifier: MIT\npragma solidity ^0.8.6;\n\nimport \"@openzeppelin/contracts/access/Ownable.sol\";\n\ncontract Offering is Ownable {\n    uint256 private nonce = 0;\n\n    enum OfferStatus {\n        New,\n        Accepted\n    }\n\n    enum ProductStatus {\n        Active,\n        Closed\n    }\n\n    enum ProposalStatus {\n        Active,\n        Closed\n    }\n\n    enum EligibilityReason {\n        None,\n        UnknowUser,\n        LowUser,\n        DoubleSpent,\n        Other\n    }\n\n    struct Offer {\n        address phoneHash;\n        uint256 timestamp;\n        EligibilityReason reason;\n        uint256[] proposals;\n        OfferStatus status;\n        string ref;\n    }\n\n    struct Product {\n        address phoneHash;\n        uint256 timestamp;\n        uint256 idOffer;\n        uint256 idProposal;\n        ProductStatus status;\n    }\n\n    struct Proposal {\n        uint8 minScoring;\n        uint256 capital;\n        uint256 interest;\n        uint256 validityPeriod;\n        string description;\n        ProposalStatus status;\n    }\n\n    Offer[] public offers;\n    Proposal[] public proposals;\n    Product[] public products;\n\n    event ProposalAdded(\n        uint256 idProposal,\n        uint8 minScoring,\n        uint256 capital,\n        uint256 interest,\n        string description\n    );\n    event LowBalanceReceived(address phoneHash, string ref);\n\n    event OfferSent(\n        uint256 idOffer,\n        address phoneHash,\n        uint256 timestamp,\n        EligibilityReason reason,\n        uint256[] proposals,\n        uint256 scoring,\n        string ref\n    );\n\n    event AcceptanceReceived(\n        address phoneHash,\n        uint256 idOffer,\n        uint256 idProposal\n    );\n\n    event ConfirmationSent(\n        uint256 productId,\n        uint256 idOffer,\n        address phoneHash,\n        uint256 timestamp\n    );\n    \n    event TopUpReceived(address phoneHash, uint256 productId, uint256 amount);\n    event AcknowledgeSent(address phoneHash, uint256 productId, uint256 amount);\n\n    modifier existProposal(uint256 id) {\n        require(id < proposals.length, \"Proposal doesn't exist\");\n        _;\n    }\n\n    modifier existOffer(uint256 id) {\n        require(id < offers.length, \"Offer doesn't exist\");\n        _;\n    }\n\n    modifier existProduct(uint256 id) {\n        require(id < products.length, \"Product doesn't exist\");\n        _;\n    }\n\n    constructor() {}\n\n    //Proposal\n    function addProposal(\n        uint8 _minScoring,\n        uint256 _capital,\n        uint256 _interest,\n        string memory _description\n    ) public onlyOwner {\n        Proposal memory proposalData;\n\n        proposalData.minScoring = _minScoring;\n        proposalData.capital = _capital;\n        proposalData.interest = _interest;\n        proposalData.description = _description;\n        proposalData.status = ProposalStatus.Active;\n        proposals.push(proposalData);\n\n        emit ProposalAdded(\n            (proposals.length - 1),\n            proposalData.minScoring,\n            proposalData.capital,\n            proposalData.interest,\n            proposalData.description\n        );\n    }\n\n    function closedProposal(uint256 _id) public onlyOwner existProposal(_id) {\n        proposals[_id].status = ProposalStatus.Closed;\n    }\n\n    function proposalsCount() public view returns (uint256) {\n        return proposals.length;\n    }\n\n    //Offer\n\n    //Product\n\n    function createProduct(address _phoneHash, uint _acceptanceTimestamp, uint256 _idOffer, uint256 _idProposal) public onlyOwner returns(uint256) {\n        Product memory product = Product(_phoneHash, _acceptanceTimestamp, _idOffer, _idProposal, ProductStatus.Active);\n        products.push(product);\n        return (products.length - 1);\n    }\n\n    //Function\n\n    function lowBalanceOffering(address _phoneHash, string memory _ref, uint8 _score) public {\n        emit LowBalanceReceived(_phoneHash, _ref);\n\n        //Register Offer\n        Offer memory offerData;\n        offerData.phoneHash = _phoneHash;\n        offerData.timestamp = block.timestamp;\n        offerData.status = OfferStatus.New;\n        offerData.proposals = getOfferProposals(_score);\n        offerData.ref = _ref;\n        offers.push(offerData);\n\n        emit OfferSent(\n            (offers.length - 1),\n            offerData.phoneHash,\n            offerData.timestamp,\n            offerData.reason,\n            offerData.proposals,\n            _score,\n            _ref\n        );\n    }\n\n/*\n    function eligibility(address _phoneHash)\n        public\n        pure\n        returns (uint8, EligibilityReason)\n    {\n        //TODO: Manage eligibility (scoring)\n        if (_phoneHash == 0x718CEA3706787aa03Bd936b76303fA00660C5f42) {\n            return (3, EligibilityReason.None);\n        } else if (_phoneHash == 0x3ad53d26D15A658A84Fe8cA9FFc8aA3a7240C1a0) {\n            return (6, EligibilityReason.None);\n        } else {\n            return (0, EligibilityReason.DoubleSpent);\n        }\n    }\n*/\n    function getOfferProposals(uint8 _scoring)\n        public\n        view\n        returns (uint256[] memory)\n    {\n        uint256[] memory offerProposals = new uint256[](3);\n        uint256 offerProposalsIndex = 0;\n\n        if (_scoring == 0) {\n            return offerProposals;\n        }\n        for (\n            uint256 i = 1;\n            (i < proposals.length && offerProposalsIndex < 3);\n            i++\n        ) {\n            if (\n                proposals[i].status == ProposalStatus.Active &&\n                _scoring >= proposals[i].minScoring\n            ) {\n                offerProposals[offerProposalsIndex] = i;\n                offerProposalsIndex++;\n            }\n        }\n        return offerProposals;\n    }\n\n    function getUniqueId() public returns (address) {\n        nonce++;\n        return\n            address(\n                bytes20(\n                    keccak256(\n                        abi.encodePacked(block.timestamp, msg.sender, nonce)\n                    )\n                )\n            );\n    }\n}\n",
  "sourcePath": "/home/keymon/work/projet-pro/dApp/timelapse/contracts/Offering.sol",
  "compiler": {
    "name": "solc",
    "version": "0.8.6+commit.11564f7e.Emscripten.clang"
  },
  "schemaVersion": "3.4.1",
  "updatedAt": "2021-07-14T11:11:03.659Z",
  "devdoc": {
    "kind": "dev",
    "methods": {
      "owner()": {
        "details": "Returns the address of the current owner."
      },
      "renounceOwnership()": {
        "details": "Leaves the contract without owner. It will not be possible to call `onlyOwner` functions anymore. Can only be called by the current owner. NOTE: Renouncing ownership will leave the contract without an owner, thereby removing any functionality that is only available to the owner."
      },
      "transferOwnership(address)": {
        "details": "Transfers ownership of the contract to a new account (`newOwner`). Can only be called by the current owner."
      }
    },
    "version": 1
  },
  "userdoc": {
    "kind": "user",
    "methods": {},
    "version": 1
  }
}