{
  "contractName": "Offering",
  "abi": [
    {
      "inputs": [],
      "stateMutability": "nonpayable",
      "type": "constructor"
    },
    {
      "anonymous": false,
      "inputs": [
        {
          "indexed": false,
          "internalType": "address",
          "name": "phoneHash",
          "type": "address"
        },
        {
          "indexed": false,
          "internalType": "uint256",
          "name": "idOffer",
          "type": "uint256"
        },
        {
          "indexed": false,
          "internalType": "uint256",
          "name": "idProposal",
          "type": "uint256"
        }
      ],
      "name": "AcceptanceReceived",
      "type": "event"
    },
    {
      "anonymous": false,
      "inputs": [
        {
          "indexed": false,
          "internalType": "address",
          "name": "phoneHash",
          "type": "address"
        },
        {
          "indexed": false,
          "internalType": "uint256",
          "name": "productId",
          "type": "uint256"
        },
        {
          "indexed": false,
          "internalType": "uint256",
          "name": "amount",
          "type": "uint256"
        }
      ],
      "name": "AcknowledgeSent",
      "type": "event"
    },
    {
      "anonymous": false,
      "inputs": [
        {
          "indexed": false,
          "internalType": "uint256",
          "name": "idProposal",
          "type": "uint256"
        }
      ],
      "name": "ClosedProposal",
      "type": "event"
    },
    {
      "anonymous": false,
      "inputs": [
        {
          "indexed": false,
          "internalType": "uint256",
          "name": "productId",
          "type": "uint256"
        },
        {
          "indexed": false,
          "internalType": "uint256",
          "name": "idOffer",
          "type": "uint256"
        },
        {
          "indexed": false,
          "internalType": "address",
          "name": "phoneHash",
          "type": "address"
        },
        {
          "indexed": false,
          "internalType": "uint256",
          "name": "timestamp",
          "type": "uint256"
        }
      ],
      "name": "ConfirmationSent",
      "type": "event"
    },
    {
      "anonymous": false,
      "inputs": [
        {
          "indexed": false,
          "internalType": "address",
          "name": "phoneHash",
          "type": "address"
        },
        {
          "indexed": false,
          "internalType": "string",
          "name": "ref",
          "type": "string"
        }
      ],
      "name": "LowBalanceReceived",
      "type": "event"
    },
    {
      "anonymous": false,
      "inputs": [
        {
          "indexed": false,
          "internalType": "uint256",
          "name": "idOffer",
          "type": "uint256"
        },
        {
          "indexed": false,
          "internalType": "address",
          "name": "phoneHash",
          "type": "address"
        },
        {
          "indexed": false,
          "internalType": "uint256",
          "name": "timestamp",
          "type": "uint256"
        },
        {
          "indexed": false,
          "internalType": "enum Offering.EligibilityReason",
          "name": "reason",
          "type": "uint8"
        },
        {
          "indexed": false,
          "internalType": "uint256[]",
          "name": "proposals",
          "type": "uint256[]"
        },
        {
          "indexed": false,
          "internalType": "uint256",
          "name": "scoring",
          "type": "uint256"
        },
        {
          "indexed": false,
          "internalType": "string",
          "name": "ref",
          "type": "string"
        }
      ],
      "name": "OfferSent",
      "type": "event"
    },
    {
      "anonymous": false,
      "inputs": [
        {
          "indexed": true,
          "internalType": "address",
          "name": "previousOwner",
          "type": "address"
        },
        {
          "indexed": true,
          "internalType": "address",
          "name": "newOwner",
          "type": "address"
        }
      ],
      "name": "OwnershipTransferred",
      "type": "event"
    },
    {
      "anonymous": false,
      "inputs": [
        {
          "indexed": false,
          "internalType": "address",
          "name": "phoneHash",
          "type": "address"
        },
        {
          "indexed": false,
          "internalType": "uint256",
          "name": "timestamp",
          "type": "uint256"
        },
        {
          "indexed": false,
          "internalType": "uint256",
          "name": "idOffer",
          "type": "uint256"
        },
        {
          "indexed": false,
          "internalType": "uint256",
          "name": "idProposal",
          "type": "uint256"
        }
      ],
      "name": "ProductCreated",
      "type": "event"
    },
    {
      "anonymous": false,
      "inputs": [
        {
          "indexed": false,
          "internalType": "uint256",
          "name": "idProposal",
          "type": "uint256"
        },
        {
          "indexed": false,
          "internalType": "uint8",
          "name": "minScoring",
          "type": "uint8"
        },
        {
          "indexed": false,
          "internalType": "uint256",
          "name": "capital",
          "type": "uint256"
        },
        {
          "indexed": false,
          "internalType": "uint256",
          "name": "interest",
          "type": "uint256"
        },
        {
          "indexed": false,
          "internalType": "string",
          "name": "description",
          "type": "string"
        }
      ],
      "name": "ProposalAdded",
      "type": "event"
    },
    {
      "anonymous": false,
      "inputs": [
        {
          "indexed": false,
          "internalType": "address",
          "name": "phoneHash",
          "type": "address"
        },
        {
          "indexed": false,
          "internalType": "uint256",
          "name": "productId",
          "type": "uint256"
        },
        {
          "indexed": false,
          "internalType": "uint256",
          "name": "amount",
          "type": "uint256"
        }
      ],
      "name": "TopUpReceived",
      "type": "event"
    },
    {
      "inputs": [
        {
          "internalType": "address",
          "name": "",
          "type": "address"
        },
        {
          "internalType": "uint256",
          "name": "",
          "type": "uint256"
        }
      ],
      "name": "offerList",
      "outputs": [
        {
          "internalType": "uint256",
          "name": "",
          "type": "uint256"
        }
      ],
      "stateMutability": "view",
      "type": "function",
      "constant": true
    },
    {
      "inputs": [
        {
          "internalType": "uint256",
          "name": "",
          "type": "uint256"
        }
      ],
      "name": "offers",
      "outputs": [
        {
          "internalType": "address",
          "name": "phoneHash",
          "type": "address"
        },
        {
          "internalType": "uint256",
          "name": "timestamp",
          "type": "uint256"
        },
        {
          "internalType": "enum Offering.EligibilityReason",
          "name": "reason",
          "type": "uint8"
        },
        {
          "internalType": "enum Offering.OfferStatus",
          "name": "status",
          "type": "uint8"
        },
        {
          "internalType": "string",
          "name": "ref",
          "type": "string"
        }
      ],
      "stateMutability": "view",
      "type": "function",
      "constant": true
    },
    {
      "inputs": [],
      "name": "owner",
      "outputs": [
        {
          "internalType": "address",
          "name": "",
          "type": "address"
        }
      ],
      "stateMutability": "view",
      "type": "function",
      "constant": true
    },
    {
      "inputs": [
        {
          "internalType": "uint256",
          "name": "",
          "type": "uint256"
        }
      ],
      "name": "products",
      "outputs": [
        {
          "internalType": "address",
          "name": "phoneHash",
          "type": "address"
        },
        {
          "internalType": "uint256",
          "name": "timestamp",
          "type": "uint256"
        },
        {
          "internalType": "uint256",
          "name": "idOffer",
          "type": "uint256"
        },
        {
          "internalType": "uint256",
          "name": "idProposal",
          "type": "uint256"
        },
        {
          "internalType": "enum Offering.ProductStatus",
          "name": "status",
          "type": "uint8"
        }
      ],
      "stateMutability": "view",
      "type": "function",
      "constant": true
    },
    {
      "inputs": [
        {
          "internalType": "uint256",
          "name": "",
          "type": "uint256"
        }
      ],
      "name": "proposals",
      "outputs": [
        {
          "internalType": "uint8",
          "name": "minScoring",
          "type": "uint8"
        },
        {
          "internalType": "uint256",
          "name": "capital",
          "type": "uint256"
        },
        {
          "internalType": "uint256",
          "name": "interest",
          "type": "uint256"
        },
        {
          "internalType": "uint256",
          "name": "validityPeriod",
          "type": "uint256"
        },
        {
          "internalType": "string",
          "name": "description",
          "type": "string"
        },
        {
          "internalType": "enum Offering.ProposalStatus",
          "name": "status",
          "type": "uint8"
        }
      ],
      "stateMutability": "view",
      "type": "function",
      "constant": true
    },
    {
      "inputs": [],
      "name": "renounceOwnership",
      "outputs": [],
      "stateMutability": "nonpayable",
      "type": "function"
    },
    {
      "inputs": [
        {
          "internalType": "address",
          "name": "newOwner",
          "type": "address"
        }
      ],
      "name": "transferOwnership",
      "outputs": [],
      "stateMutability": "nonpayable",
      "type": "function"
    },
    {
      "inputs": [
        {
          "internalType": "uint8",
          "name": "_minScoring",
          "type": "uint8"
        },
        {
          "internalType": "uint256",
          "name": "_capital",
          "type": "uint256"
        },
        {
          "internalType": "uint256",
          "name": "_interest",
          "type": "uint256"
        },
        {
          "internalType": "string",
          "name": "_description",
          "type": "string"
        }
      ],
      "name": "addProposal",
      "outputs": [],
      "stateMutability": "nonpayable",
      "type": "function"
    },
    {
      "inputs": [
        {
          "internalType": "uint256",
          "name": "_id",
          "type": "uint256"
        }
      ],
      "name": "closedProposal",
      "outputs": [],
      "stateMutability": "nonpayable",
      "type": "function"
    },
    {
      "inputs": [],
      "name": "proposalsCount",
      "outputs": [
        {
          "internalType": "uint256",
          "name": "",
          "type": "uint256"
        }
      ],
      "stateMutability": "view",
      "type": "function",
      "constant": true
    },
    {
      "inputs": [
        {
          "internalType": "uint256",
          "name": "_idOffer",
          "type": "uint256"
        }
      ],
      "name": "getSizeProposalOffer",
      "outputs": [
        {
          "internalType": "uint256",
          "name": "",
          "type": "uint256"
        }
      ],
      "stateMutability": "view",
      "type": "function",
      "constant": true
    },
    {
      "inputs": [
        {
          "internalType": "address",
          "name": "_phoneHash",
          "type": "address"
        }
      ],
      "name": "getOfferSize",
      "outputs": [
        {
          "internalType": "uint256",
          "name": "",
          "type": "uint256"
        }
      ],
      "stateMutability": "view",
      "type": "function",
      "constant": true
    },
    {
      "inputs": [],
      "name": "getOffersSize",
      "outputs": [
        {
          "internalType": "uint256",
          "name": "",
          "type": "uint256"
        }
      ],
      "stateMutability": "view",
      "type": "function",
      "constant": true
    },
    {
      "inputs": [
        {
          "internalType": "uint256",
          "name": "_idOffer",
          "type": "uint256"
        },
        {
          "internalType": "uint256",
          "name": "_id",
          "type": "uint256"
        }
      ],
      "name": "getIndexProposalOffer",
      "outputs": [
        {
          "internalType": "uint256",
          "name": "",
          "type": "uint256"
        }
      ],
      "stateMutability": "view",
      "type": "function",
      "constant": true
    },
    {
      "inputs": [
        {
          "internalType": "address",
          "name": "_phoneHash",
          "type": "address"
        },
        {
          "internalType": "string",
          "name": "_ref",
          "type": "string"
        },
        {
          "internalType": "uint8",
          "name": "_score",
          "type": "uint8"
        }
      ],
      "name": "lowBalanceOffering",
      "outputs": [],
      "stateMutability": "nonpayable",
      "type": "function"
    },
    {
      "inputs": [
        {
          "internalType": "address",
          "name": "_phoneHash",
          "type": "address"
        },
        {
          "internalType": "uint256",
          "name": "_acceptanceTimestamp",
          "type": "uint256"
        },
        {
          "internalType": "uint256",
          "name": "_idOffer",
          "type": "uint256"
        },
        {
          "internalType": "uint256",
          "name": "_idProposal",
          "type": "uint256"
        }
      ],
      "name": "createProduct",
      "outputs": [
        {
          "internalType": "uint256",
          "name": "",
          "type": "uint256"
        }
      ],
      "stateMutability": "nonpayable",
      "type": "function"
    },
    {
      "inputs": [
        {
          "internalType": "uint8",
          "name": "_scoring",
          "type": "uint8"
        }
      ],
      "name": "getOfferProposals",
      "outputs": [
        {
          "internalType": "uint256[]",
          "name": "",
          "type": "uint256[]"
        }
      ],
      "stateMutability": "view",
      "type": "function",
      "constant": true
    },
    {
      "inputs": [
        {
          "internalType": "uint256[]",
          "name": "_offerProposals",
          "type": "uint256[]"
        },
        {
          "internalType": "uint8",
          "name": "_offerProposalsCount",
          "type": "uint8"
        }
      ],
      "name": "trimOfferProposals",
      "outputs": [
        {
          "internalType": "uint256[]",
          "name": "",
          "type": "uint256[]"
        }
      ],
      "stateMutability": "pure",
      "type": "function",
      "constant": true
    }
  ],
  "bytecode": "0x60806040523480156200001157600080fd5b5062000032620000266200003860201b60201c565b6200004060201b60201c565b62000104565b600033905090565b60008060009054906101000a900473ffffffffffffffffffffffffffffffffffffffff169050816000806101000a81548173ffffffffffffffffffffffffffffffffffffffff021916908373ffffffffffffffffffffffffffffffffffffffff1602179055508173ffffffffffffffffffffffffffffffffffffffff168173ffffffffffffffffffffffffffffffffffffffff167f8be0079c531659141344cd1fd0a4f28419497f9722a3daafe3b4186f6b6457e060405160405180910390a35050565b61280380620001146000396000f3fe608060405234801561001057600080fd5b50600436106101165760003560e01c80638a72ea6a116100a2578063bdcf208c11610071578063bdcf208c14610326578063db7b1e1c14610342578063e0026ab314610372578063f2fde38b14610390578063f8730a07146103ac57610116565b80638a72ea6a146102745780638da5cb5b146102a85780639f329783146102c6578063b6ca4595146102f657610116565b806347466dc3116100e957806347466dc3146101ba578063715018a6146101d65780637acc0b20146101e05780637c8dd0d61461021457806380ec37271461024457610116565b8063013cf08b1461011b5780630a9f46ad14610150578063116c327b1461016e57806346747b381461018a575b600080fd5b61013560048036038101906101309190611c0c565b6103dc565b604051610147969594939291906121ff565b60405180910390f35b6101586104ca565b604051610165919061210d565b60405180910390f35b61018860048036038101906101839190611a9a565b6104d7565b005b6101a4600480360381019061019f9190611c79565b610819565b6040516101b1919061204b565b60405180910390f35b6101d460048036038101906101cf9190611c0c565b6109a8565b005b6101de610af5565b005b6101fa60048036038101906101f59190611c0c565b610b7d565b60405161020b959493929190611ff8565b60405180910390f35b61022e60048036038101906102299190611c39565b610bf0565b60405161023b919061210d565b60405180910390f35b61025e60048036038101906102599190611a6d565b610cef565b60405161026b919061210d565b60405180910390f35b61028e60048036038101906102899190611c0c565b610db7565b60405161029f959493929190611f59565b60405180910390f35b6102b0610ebf565b6040516102bd9190611f0e565b60405180910390f35b6102e060048036038101906102db9190611bb0565b610ee8565b6040516102ed919061204b565b60405180910390f35b610310600480360381019061030b9190611b49565b610fa9565b60405161031d919061210d565b60405180910390f35b610340600480360381019061033b9190611ca6565b611277565b005b61035c60048036038101906103579190611b09565b61147c565b604051610369919061210d565b60405180910390f35b61037a6114ad565b604051610387919061210d565b60405180910390f35b6103aa60048036038101906103a59190611a6d565b611536565b005b6103c660048036038101906103c19190611c0c565b61162e565b6040516103d3919061210d565b60405180910390f35b600381815481106103ec57600080fd5b90600052602060002090600602016000915090508060000160009054906101000a900460ff1690806001015490806002015490806003015490806004018054610434906124a3565b80601f0160208091040260200160405190810160405280929190818152602001828054610460906124a3565b80156104ad5780601f10610482576101008083540402835291602001916104ad565b820191906000526020600020905b81548152906001019060200180831161049057829003601f168201915b5050505050908060050160009054906101000a900460ff16905086565b6000600380549050905090565b6104df6116a9565b73ffffffffffffffffffffffffffffffffffffffff166104fd610ebf565b73ffffffffffffffffffffffffffffffffffffffff1614610553576040517f08c379a000000000000000000000000000000000000000000000000000000000815260040161054a906120cd565b60405180910390fd5b7f251fc0df7e56c36cfc4f618ef67296b8e2c41ce1ce473e5187bfec66743b38d38383604051610584929190611f29565b60405180910390a1610594611775565b83816000019073ffffffffffffffffffffffffffffffffffffffff16908173ffffffffffffffffffffffffffffffffffffffff1681525050428160200181815250506000816080019060018111156105ef576105ee61255f565b5b908160018111156106035761060261255f565b5b8152505061061082610819565b8160600181905250828160a00181905250600181908060018154018082558091505060019003906000526020600020906006020160009091909190915060008201518160000160006101000a81548173ffffffffffffffffffffffffffffffffffffffff021916908373ffffffffffffffffffffffffffffffffffffffff1602179055506020820151816001015560408201518160020160006101000a81548160ff021916908360048111156106c9576106c861255f565b5b021790555060608201518160030190805190602001906106ea9291906117e5565b5060808201518160040160006101000a81548160ff021916908360018111156107165761071561255f565b5b021790555060a0820151816005019080519060200190610737929190611832565b505050600260008573ffffffffffffffffffffffffffffffffffffffff1673ffffffffffffffffffffffffffffffffffffffff1681526020019081526020016000206001808054905061078a919061233e565b90806001815401808255809150506001900390600052602060002001600090919091909150557f6a2d36566113fdc14dbc5b9458a0ba3a3eb54e394c2eb29fb26efdfee664f55e600180805490506107e2919061233e565b8260000151836020015184604001518560600151878960405161080b9796959493929190612128565b60405180910390a150505050565b60606000600367ffffffffffffffff811115610838576108376125ec565b5b6040519080825280602002602001820160405280156108665781602001602082028036833780820191505090505b5090506000808460ff1614156108805781925050506109a3565b60005b6003805490508160ff1610801561089d575060038260ff16105b1561099357600060018111156108b6576108b561255f565b5b60038260ff16815481106108cd576108cc6125bd565b5b906000526020600020906006020160050160009054906101000a900460ff1660018111156108fe576108fd61255f565b5b148015610946575060038160ff168154811061091d5761091c6125bd565b5b906000526020600020906006020160000160009054906101000a900460ff1660ff168560ff1610155b15610980578060ff16838360ff1681518110610965576109646125bd565b5b602002602001018181525050818061097c90612506565b9250505b808061098b90612506565b915050610883565b5061099e8282610ee8565b925050505b919050565b6109b06116a9565b73ffffffffffffffffffffffffffffffffffffffff166109ce610ebf565b73ffffffffffffffffffffffffffffffffffffffff1614610a24576040517f08c379a0000000000000000000000000000000000000000000000000000000008152600401610a1b906120cd565b60405180910390fd5b806003805490508110610a6c576040517f08c379a0000000000000000000000000000000000000000000000000000000008152600401610a639061206d565b60405180910390fd5b600160038381548110610a8257610a816125bd565b5b906000526020600020906006020160050160006101000a81548160ff02191690836001811115610ab557610ab461255f565b5b02179055507f95be977bdc5b7c8f1f7966571689b718b5b948029f3a5377ec2b1cc3dbb8985f82604051610ae9919061210d565b60405180910390a15050565b610afd6116a9565b73ffffffffffffffffffffffffffffffffffffffff16610b1b610ebf565b73ffffffffffffffffffffffffffffffffffffffff1614610b71576040517f08c379a0000000000000000000000000000000000000000000000000000000008152600401610b68906120cd565b60405180910390fd5b610b7b60006116b1565b565b60048181548110610b8d57600080fd5b90600052602060002090600502016000915090508060000160009054906101000a900473ffffffffffffffffffffffffffffffffffffffff16908060010154908060020154908060030154908060040160009054906101000a900460ff16905085565b6000826001805490508110610c3a576040517f08c379a0000000000000000000000000000000000000000000000000000000008152600401610c31906120ed565b60405180910390fd5b60018481548110610c4e57610c4d6125bd565b5b9060005260206000209060060201600301805490508310610ca4576040517f08c379a0000000000000000000000000000000000000000000000000000000008152600401610c9b906120ad565b60405180910390fd5b60018481548110610cb857610cb76125bd565b5b90600052602060002090600602016003018381548110610cdb57610cda6125bd565b5b906000526020600020015491505092915050565b6000610cf96116a9565b73ffffffffffffffffffffffffffffffffffffffff16610d17610ebf565b73ffffffffffffffffffffffffffffffffffffffff1614610d6d576040517f08c379a0000000000000000000000000000000000000000000000000000000008152600401610d64906120cd565b60405180910390fd5b600260008373ffffffffffffffffffffffffffffffffffffffff1673ffffffffffffffffffffffffffffffffffffffff168152602001908152602001600020805490509050919050565b60018181548110610dc757600080fd5b90600052602060002090600602016000915090508060000160009054906101000a900473ffffffffffffffffffffffffffffffffffffffff16908060010154908060020160009054906101000a900460ff16908060040160009054906101000a900460ff1690806005018054610e3c906124a3565b80601f0160208091040260200160405190810160405280929190818152602001828054610e68906124a3565b8015610eb55780601f10610e8a57610100808354040283529160200191610eb5565b820191906000526020600020905b815481529060010190602001808311610e9857829003601f168201915b5050505050905085565b60008060009054906101000a900473ffffffffffffffffffffffffffffffffffffffff16905090565b606060008260ff1667ffffffffffffffff811115610f0957610f086125ec565b5b604051908082528060200260200182016040528015610f375781602001602082028036833780820191505090505b50905060005b8360ff168160ff161015610f9e57848160ff1681518110610f6157610f606125bd565b5b6020026020010151828260ff1681518110610f7f57610f7e6125bd565b5b6020026020010181815250508080610f9690612506565b915050610f3d565b508091505092915050565b6000610fb36116a9565b73ffffffffffffffffffffffffffffffffffffffff16610fd1610ebf565b73ffffffffffffffffffffffffffffffffffffffff1614611027576040517f08c379a000000000000000000000000000000000000000000000000000000000815260040161101e906120cd565b60405180910390fd5b81600380549050811061106f576040517f08c379a00000000000000000000000000000000000000000000000000000000081526004016110669061206d565b60405180910390fd5b8360018054905081106110b7576040517f08c379a00000000000000000000000000000000000000000000000000000000081526004016110ae906120ed565b60405180910390fd5b60018086815481106110cc576110cb6125bd565b5b906000526020600020906006020160040160006101000a81548160ff021916908360018111156110ff576110fe61255f565b5b021790555060006040518060a001604052808973ffffffffffffffffffffffffffffffffffffffff168152602001888152602001878152602001868152602001600060018111156111535761115261255f565b5b8152509050600481908060018154018082558091505060019003906000526020600020906005020160009091909190915060008201518160000160006101000a81548173ffffffffffffffffffffffffffffffffffffffff021916908373ffffffffffffffffffffffffffffffffffffffff16021790555060208201518160010155604082015181600201556060820151816003015560808201518160040160006101000a81548160ff021916908360018111156112145761121361255f565b5b021790555050507ff6e4d5991d43b8f0508a8ded04e4b8f555c903a7bcba3ccb4d8486480c1ba947888888886040516112509493929190611fb3565b60405180910390a1600160048054905061126a919061233e565b9350505050949350505050565b61127f6116a9565b73ffffffffffffffffffffffffffffffffffffffff1661129d610ebf565b73ffffffffffffffffffffffffffffffffffffffff16146112f3576040517f08c379a00000000000000000000000000000000000000000000000000000000081526004016112ea906120cd565b60405180910390fd5b6112fb6118b8565b84816000019060ff16908160ff1681525050838160200181815250508281604001818152505081816080018190525060008160a0019060018111156113435761134261255f565b5b908160018111156113575761135661255f565b5b81525050600381908060018154018082558091505060019003906000526020600020906006020160009091909190915060008201518160000160006101000a81548160ff021916908360ff16021790555060208201518160010155604082015181600201556060820151816003015560808201518160040190805190602001906113e2929190611832565b5060a08201518160050160006101000a81548160ff0219169083600181111561140e5761140d61255f565b5b021790555050507f0dd92ec7c9e4620459d0f39f48975327d855d61513c1e839e5ae03d1ca7644726001600380549050611448919061233e565b826000015183602001518460400151856080015160405161146d9594939291906121a5565b60405180910390a15050505050565b6002602052816000526040600020818154811061149857600080fd5b90600052602060002001600091509150505481565b60006114b76116a9565b73ffffffffffffffffffffffffffffffffffffffff166114d5610ebf565b73ffffffffffffffffffffffffffffffffffffffff161461152b576040517f08c379a0000000000000000000000000000000000000000000000000000000008152600401611522906120cd565b60405180910390fd5b600180549050905090565b61153e6116a9565b73ffffffffffffffffffffffffffffffffffffffff1661155c610ebf565b73ffffffffffffffffffffffffffffffffffffffff16146115b2576040517f08c379a00000000000000000000000000000000000000000000000000000000081526004016115a9906120cd565b60405180910390fd5b600073ffffffffffffffffffffffffffffffffffffffff168173ffffffffffffffffffffffffffffffffffffffff161415611622576040517f08c379a00000000000000000000000000000000000000000000000000000000081526004016116199061208d565b60405180910390fd5b61162b816116b1565b50565b6000816001805490508110611678576040517f08c379a000000000000000000000000000000000000000000000000000000000815260040161166f906120ed565b60405180910390fd5b6001838154811061168c5761168b6125bd565b5b906000526020600020906006020160030180549050915050919050565b600033905090565b60008060009054906101000a900473ffffffffffffffffffffffffffffffffffffffff169050816000806101000a81548173ffffffffffffffffffffffffffffffffffffffff021916908373ffffffffffffffffffffffffffffffffffffffff1602179055508173ffffffffffffffffffffffffffffffffffffffff168173ffffffffffffffffffffffffffffffffffffffff167f8be0079c531659141344cd1fd0a4f28419497f9722a3daafe3b4186f6b6457e060405160405180910390a35050565b6040518060c00160405280600073ffffffffffffffffffffffffffffffffffffffff16815260200160008152602001600060048111156117b8576117b761255f565b5b815260200160608152602001600060018111156117d8576117d761255f565b5b8152602001606081525090565b828054828255906000526020600020908101928215611821579160200282015b82811115611820578251825591602001919060010190611805565b5b50905061182e9190611903565b5090565b82805461183e906124a3565b90600052602060002090601f01602090048101928261186057600085556118a7565b82601f1061187957805160ff19168380011785556118a7565b828001600101855582156118a7579182015b828111156118a657825182559160200191906001019061188b565b5b5090506118b49190611903565b5090565b6040518060c00160405280600060ff16815260200160008152602001600081526020016000815260200160608152602001600060018111156118fd576118fc61255f565b5b81525090565b5b8082111561191c576000816000905550600101611904565b5090565b600061193361192e8461228c565b612267565b9050808382526020820190508285602086028201111561195657611955612620565b5b60005b85811015611986578161196c8882611a43565b845260208401935060208301925050600181019050611959565b5050509392505050565b60006119a361199e846122b8565b612267565b9050828152602081018484840111156119bf576119be612625565b5b6119ca848285612461565b509392505050565b6000813590506119e181612788565b92915050565b600082601f8301126119fc576119fb61261b565b5b8135611a0c848260208601611920565b91505092915050565b600082601f830112611a2a57611a2961261b565b5b8135611a3a848260208601611990565b91505092915050565b600081359050611a528161279f565b92915050565b600081359050611a67816127b6565b92915050565b600060208284031215611a8357611a8261262f565b5b6000611a91848285016119d2565b91505092915050565b600080600060608486031215611ab357611ab261262f565b5b6000611ac1868287016119d2565b935050602084013567ffffffffffffffff811115611ae257611ae161262a565b5b611aee86828701611a15565b9250506040611aff86828701611a58565b9150509250925092565b60008060408385031215611b2057611b1f61262f565b5b6000611b2e858286016119d2565b9250506020611b3f85828601611a43565b9150509250929050565b60008060008060808587031215611b6357611b6261262f565b5b6000611b71878288016119d2565b9450506020611b8287828801611a43565b9350506040611b9387828801611a43565b9250506060611ba487828801611a43565b91505092959194509250565b60008060408385031215611bc757611bc661262f565b5b600083013567ffffffffffffffff811115611be557611be461262a565b5b611bf1858286016119e7565b9250506020611c0285828601611a58565b9150509250929050565b600060208284031215611c2257611c2161262f565b5b6000611c3084828501611a43565b91505092915050565b60008060408385031215611c5057611c4f61262f565b5b6000611c5e85828601611a43565b9250506020611c6f85828601611a43565b9150509250929050565b600060208284031215611c8f57611c8e61262f565b5b6000611c9d84828501611a58565b91505092915050565b60008060008060808587031215611cc057611cbf61262f565b5b6000611cce87828801611a58565b9450506020611cdf87828801611a43565b9350506040611cf087828801611a43565b925050606085013567ffffffffffffffff811115611d1157611d1061262a565b5b611d1d87828801611a15565b91505092959194509250565b6000611d358383611ed2565b60208301905092915050565b611d4a81612372565b82525050565b6000611d5b826122f9565b611d65818561231c565b9350611d70836122e9565b8060005b83811015611da1578151611d888882611d29565b9750611d938361230f565b925050600181019050611d74565b5085935050505092915050565b611db781612407565b82525050565b611dc681612419565b82525050565b611dd58161242b565b82525050565b611de48161243d565b82525050565b6000611df582612304565b611dff818561232d565b9350611e0f818560208601612470565b611e1881612634565b840191505092915050565b6000611e3060168361232d565b9150611e3b82612645565b602082019050919050565b6000611e5360268361232d565b9150611e5e8261266e565b604082019050919050565b6000611e76600d8361232d565b9150611e81826126bd565b602082019050919050565b6000611e9960208361232d565b9150611ea4826126e6565b602082019050919050565b6000611ebc60138361232d565b9150611ec78261270f565b602082019050919050565b611edb816123f0565b82525050565b611eea816123f0565b82525050565b611ef98161244f565b82525050565b611f08816123fa565b82525050565b6000602082019050611f236000830184611d41565b92915050565b6000604082019050611f3e6000830185611d41565b8181036020830152611f508184611dea565b90509392505050565b600060a082019050611f6e6000830188611d41565b611f7b6020830187611ee1565b611f886040830186611dae565b611f956060830185611dbd565b8181036080830152611fa78184611dea565b90509695505050505050565b6000608082019050611fc86000830187611d41565b611fd56020830186611ee1565b611fe26040830185611ee1565b611fef6060830184611ee1565b95945050505050565b600060a08201905061200d6000830188611d41565b61201a6020830187611ee1565b6120276040830186611ee1565b6120346060830185611ee1565b6120416080830184611dcc565b9695505050505050565b600060208201905081810360008301526120658184611d50565b905092915050565b6000602082019050818103600083015261208681611e23565b9050919050565b600060208201905081810360008301526120a681611e46565b9050919050565b600060208201905081810360008301526120c681611e69565b9050919050565b600060208201905081810360008301526120e681611e8c565b9050919050565b6000602082019050818103600083015261210681611eaf565b9050919050565b60006020820190506121226000830184611ee1565b92915050565b600060e08201905061213d600083018a611ee1565b61214a6020830189611d41565b6121576040830188611ee1565b6121646060830187611dae565b81810360808301526121768186611d50565b905061218560a0830185611ef0565b81810360c08301526121978184611dea565b905098975050505050505050565b600060a0820190506121ba6000830188611ee1565b6121c76020830187611eff565b6121d46040830186611ee1565b6121e16060830185611ee1565b81810360808301526121f38184611dea565b90509695505050505050565b600060c0820190506122146000830189611eff565b6122216020830188611ee1565b61222e6040830187611ee1565b61223b6060830186611ee1565b818103608083015261224d8185611dea565b905061225c60a0830184611ddb565b979650505050505050565b6000612271612282565b905061227d82826124d5565b919050565b6000604051905090565b600067ffffffffffffffff8211156122a7576122a66125ec565b5b602082029050602081019050919050565b600067ffffffffffffffff8211156122d3576122d26125ec565b5b6122dc82612634565b9050602081019050919050565b6000819050602082019050919050565b600081519050919050565b600081519050919050565b6000602082019050919050565b600082825260208201905092915050565b600082825260208201905092915050565b6000612349826123f0565b9150612354836123f0565b92508282101561236757612366612530565b5b828203905092915050565b600061237d826123d0565b9050919050565b600081905061239282612738565b919050565b60008190506123a58261274c565b919050565b60008190506123b882612760565b919050565b60008190506123cb82612774565b919050565b600073ffffffffffffffffffffffffffffffffffffffff82169050919050565b6000819050919050565b600060ff82169050919050565b600061241282612384565b9050919050565b600061242482612397565b9050919050565b6000612436826123aa565b9050919050565b6000612448826123bd565b9050919050565b600061245a826123fa565b9050919050565b82818337600083830152505050565b60005b8381101561248e578082015181840152602081019050612473565b8381111561249d576000848401525b50505050565b600060028204905060018216806124bb57607f821691505b602082108114156124cf576124ce61258e565b5b50919050565b6124de82612634565b810181811067ffffffffffffffff821117156124fd576124fc6125ec565b5b80604052505050565b6000612511826123fa565b915060ff82141561252557612524612530565b5b600182019050919050565b7f4e487b7100000000000000000000000000000000000000000000000000000000600052601160045260246000fd5b7f4e487b7100000000000000000000000000000000000000000000000000000000600052602160045260246000fd5b7f4e487b7100000000000000000000000000000000000000000000000000000000600052602260045260246000fd5b7f4e487b7100000000000000000000000000000000000000000000000000000000600052603260045260246000fd5b7f4e487b7100000000000000000000000000000000000000000000000000000000600052604160045260246000fd5b600080fd5b600080fd5b600080fd5b600080fd5b600080fd5b6000601f19601f8301169050919050565b7f50726f706f73616c20646f65736e277420657869737400000000000000000000600082015250565b7f4f776e61626c653a206e6577206f776e657220697320746865207a65726f206160008201527f6464726573730000000000000000000000000000000000000000000000000000602082015250565b7f496e76616c696420696e64657800000000000000000000000000000000000000600082015250565b7f4f776e61626c653a2063616c6c6572206973206e6f7420746865206f776e6572600082015250565b7f4f6666657220646f65736e277420657869737400000000000000000000000000600082015250565b600581106127495761274861255f565b5b50565b6002811061275d5761275c61255f565b5b50565b600281106127715761277061255f565b5b50565b600281106127855761278461255f565b5b50565b61279181612372565b811461279c57600080fd5b50565b6127a8816123f0565b81146127b357600080fd5b50565b6127bf816123fa565b81146127ca57600080fd5b5056fea26469706673582212206b0eb69540922e9efa3443bb162090ad69209914302d3be8d9c696326e8040dd64736f6c63430008060033",
  "immutableReferences": {},
  "source": "// SPDX-License-Identifier: MIT\npragma solidity ^0.8.6;\n\nimport \"@openzeppelin/contracts/access/Ownable.sol\";\n\n/**\n * @title This Smart Contract is responsible to generate the offers for customers.\n * @notice Manage all aspects related to offering (proposals, customers and products management)\n * @author Keeymon, DavidRochus\n */\ncontract Offering is Ownable {\n    /**\n     * @dev Offer status\n     */\n    enum OfferStatus {\n        New,\n        Accepted\n    }\n\n    /**\n     * @dev Product status\n     */\n    enum ProductStatus {\n        Active,\n        Closed\n    }\n\n    /**\n     * @dev Proposal status\n     */\n    enum ProposalStatus {\n        Active,\n        Closed\n    }\n\n    /**\n     * @dev Eligibility reasons\n     */\n    enum EligibilityReason {\n        None,\n        UnknowUser,\n        LowUser,\n        DoubleSpent,\n        Other\n    }\n\n    /**\n     * @dev Offer information\n     */\n    struct Offer {\n        address phoneHash;\n        uint timestamp;\n        EligibilityReason reason;\n        uint256[] proposals;\n        OfferStatus status;\n        string ref;\n    }\n\n    /**\n     * @dev Product information\n     */\n    struct Product {\n        address phoneHash;\n        uint timestamp;\n        uint256 idOffer;\n        uint256 idProposal;\n        ProductStatus status;\n    }\n\n    /**\n     * @dev Proposal information\n     */\n    struct Proposal {\n        uint8 minScoring;\n        uint256 capital;\n        uint256 interest;\n        uint256 validityPeriod;\n        string description;\n        ProposalStatus status;\n    }\n\n    /**\n     * @dev Offers table\n     */\n    Offer[] public offers;\n\n    /**\n     * @dev Mapping to access offers related to a phoneHash\n     */\n    mapping(address => uint256[]) public offerList;\n\n    /**\n     * @dev Proposals table\n     */\n    Proposal[] public proposals;\n    /**\n     * @dev Products table\n     */\n    Product[] public products;\n\n    /**\n     * @dev Triggered when a proposal is added\n     */\n    event ProposalAdded(\n        uint256 idProposal,\n        uint8 minScoring,\n        uint256 capital,\n        uint256 interest,\n        string description\n    );\n    /**\n     * @dev Triggered when a proposal is closed\n     */\n    event ClosedProposal(uint256 idProposal);\n    /**\n     * @dev Triggered when a product is created\n     */\n    event ProductCreated(address phoneHash, uint timestamp, uint256 idOffer, uint256 idProposal);\n    /**\n     * @dev Triggered when a lowBalance is received\n     */\n    event LowBalanceReceived(address phoneHash, string ref);\n    /**\n     * @dev Triggered when an offer has to be sent\n     */\n    event OfferSent(\n        uint256 idOffer,\n        address phoneHash,\n        uint timestamp,\n        EligibilityReason reason,\n        uint256[] proposals,\n        uint256 scoring,\n        string ref\n    );\n    /**\n     * @dev Triggered when an acceptance is received\n     */\n    event AcceptanceReceived(\n        address phoneHash,\n        uint256 idOffer,\n        uint256 idProposal\n    );\n    /**\n     * @dev Triggered when a confirmation has to be sent\n     */\n    event ConfirmationSent(\n        uint256 productId,\n        uint256 idOffer,\n        address phoneHash,\n        uint timestamp\n    );\n    /**\n     * @dev Triggered when a topUp is received\n     */\n    event TopUpReceived(address phoneHash, uint256 productId, uint256 amount);\n    /**\n     * @dev Triggered when an acknowledge has to be sent\n     */\n    event AcknowledgeSent(address phoneHash, uint256 productId, uint256 amount);\n\n    /**\n     * @dev Check if proposal exists\n     */\n    modifier existProposal(uint256 id) {\n        require(id < proposals.length, \"Proposal doesn't exist\");\n        _;\n    }\n    /**\n     * @dev Check if offer exists\n     */\n    modifier existOffer(uint256 id) {\n        require(id < offers.length, \"Offer doesn't exist\");\n        _;\n    }\n    /**\n     * @dev Check if product exists\n     */\n    modifier existProduct(uint256 id) {\n        require(id < products.length, \"Product doesn't exist\");\n        _;\n    }\n\n    /**\n     * @dev Smart Contract constructor\n     */\n    constructor() {}\n\n    /**\n      * @notice Add a proposal\n      * @param _minScoring The minimum score needed by customer to receive this proposal\n      * @param _capital Capital part of the proposal amount\n      * @param _interest Interest part of the proposal amount\n      * @param _description A description of the proposal\n      * @dev Add a proposal with the following information: minimum scoring `_minScoring`, amount `_capital` + `_interest`, description `_description`\n      */\n    function addProposal(\n        uint8 _minScoring,\n        uint256 _capital,\n        uint256 _interest,\n        string memory _description\n    ) public onlyOwner {\n        Proposal memory proposalData;\n\n        proposalData.minScoring = _minScoring;\n        proposalData.capital = _capital;\n        proposalData.interest = _interest;\n        proposalData.description = _description;\n        proposalData.status = ProposalStatus.Active;\n        proposals.push(proposalData);\n\n        emit ProposalAdded(\n            (proposals.length - 1),\n            proposalData.minScoring,\n            proposalData.capital,\n            proposalData.interest,\n            proposalData.description\n        );\n    }\n\n    /**\n      * @notice Close a proposal\n      * @param _id ID of the proposal to close\n      * @dev Close the proposal with the ID `_id`\n      */\n    function closedProposal(uint256 _id) public onlyOwner existProposal(_id) {\n        proposals[_id].status = ProposalStatus.Closed;\n        emit ClosedProposal(_id);\n    }\n\n    /**\n      * @notice Number of proposals\n      * @dev Return the number of proposals\n      */\n    function proposalsCount() public view returns (uint256) {\n        return proposals.length;\n    }\n\n    /**\n      * @notice Number of proposal in an offer\n      * @param _idOffer The ID of the offer\n      * @dev Return the number of proposal in an offer\n      */\n    function getSizeProposalOffer(uint256 _idOffer) public view existOffer(_idOffer) returns(uint256) {\n        return offers[_idOffer].proposals.length;\n    }\n\n    /**\n      * @notice Get the size of the Offers of a customer\n      * @param _phoneHash The address that identifies to the customer\n      * @dev Get the size of the Offers of a customer (identified with `_phoneHash`)\n      */\n    function getOfferSize(address _phoneHash) public view onlyOwner returns (uint256) {\n        return offerList[_phoneHash].length;\n    }\n\n    /**\n      * @notice Get the size of all the offers\n      * @dev Get the size of all the offers\n      */\n    function getOffersSize() public view onlyOwner returns (uint256) {\n        return offers.length;\n    }\n\n    /**\n      * @notice Get the ID proposal in offer\n      * @param _idOffer The ID of the offer\n      * @param _id The ID of the array proposal in an offer\n      * @dev Return the ID proposal in offer\n      */\n    function getIndexProposalOffer(uint256 _idOffer, uint256 _id) public view existOffer(_idOffer) returns(uint256) {\n        require(_id < offers[_idOffer].proposals.length, \"Invalid index\");\n        return offers[_idOffer].proposals[_id];\n    }\n\n    /**\n      * @notice Manage the \"low balances\" received and generate an offer\n      * @param _phoneHash The address that identifies to the customer\n      * @param _ref Reference of the telecom provider\n      * @param _score score of the customer\n      * @dev Manage lowBalance (with reference `_ref`) of a customer (identified with `_phoneHash`) and generate an offer based on the score `_score` \n      */\n    function lowBalanceOffering(address _phoneHash, string memory _ref, uint8 _score) public onlyOwner {\n        emit LowBalanceReceived(_phoneHash, _ref);\n\n        //Register Offer\n        Offer memory offerData;\n        offerData.phoneHash = _phoneHash;\n        offerData.timestamp = block.timestamp;\n        offerData.status = OfferStatus.New;\n        offerData.proposals = getOfferProposals(_score);\n        offerData.ref = _ref;\n        offers.push(offerData);\n\n        offerList[_phoneHash].push(offers.length - 1);\n\n        emit OfferSent(\n            (offers.length - 1),\n            offerData.phoneHash,\n            offerData.timestamp,\n            offerData.reason,\n            offerData.proposals,\n            _score,\n            _ref\n        );\n    }\n\n    /**\n      * @notice Create a product\n      * @param _phoneHash The address that identifies to the customer\n      * @param _acceptanceTimestamp Timestamp of the acceptance\n      * @param _idOffer ID of the offer\n      * @param _idProposal ID of the proposal\n      * @dev Create a product with the following information: a customer (identified with `_phoneHash`), an offer ID `_idOffer`, a proposal ID `_idProposal` and a timestamp `_acceptanceTimestamp` \n      */\n    function createProduct(address _phoneHash, uint _acceptanceTimestamp, uint256 _idOffer, uint256 _idProposal) public onlyOwner existProposal(_idProposal) existOffer(_idOffer) returns(uint256) {\n        offers[_idOffer].status = OfferStatus.Accepted;\n        Product memory product = Product(_phoneHash, _acceptanceTimestamp, _idOffer, _idProposal, ProductStatus.Active);\n        products.push(product);\n        emit ProductCreated(_phoneHash, _acceptanceTimestamp, _idOffer, _idProposal);\n        return (products.length - 1);\n    }\n\n    /**\n      * @notice Get the proposals corresponding to the scoring\n      * @param _scoring score of the customer\n      * @return Proposals\n      * @dev Return the proposals that correspond to the given scoring `_scoring`\n      */\n    function getOfferProposals(uint8 _scoring)\n        public\n        view\n        returns (uint256[] memory)\n    {\n        uint256[] memory offerProposals = new uint256[](3);\n        uint8 offerProposalsIndex = 0;\n\n        if (_scoring == 0) {\n            return offerProposals;\n        }\n        \n        for (\n            uint8 i = 0;\n            (i < proposals.length && offerProposalsIndex < 3);\n            i++\n        ) {\n            if (\n                proposals[i].status == ProposalStatus.Active &&\n                _scoring >= proposals[i].minScoring\n            ) {\n                offerProposals[offerProposalsIndex] = i;\n                offerProposalsIndex++;\n            }\n        }\n        return trimOfferProposals(offerProposals,offerProposalsIndex);\n    }\n\n    /**\n      * @notice Create a trimmed table of the proposals\n      * @param _offerProposals Initial proposals table\n      * @param _offerProposalsCount Number of proposals to retrieve in the initial table\n      * @return Proposals\n      * @dev Return a proposals based on table `_offerProposals` with only the first `_offerProposalsCount` proposals\n      */\n    function trimOfferProposals(uint256[] memory _offerProposals, uint8 _offerProposalsCount)\n        public\n        pure\n        returns (uint256[] memory)\n    {\n        uint256[] memory offerProposals = new uint256[](_offerProposalsCount);\n        for (uint8 i = 0; i < _offerProposalsCount; i++) {\n            offerProposals[i]=_offerProposals[i];\n        }\n        return offerProposals;\n    }\n\n}\n",
  "sourcePath": "/Users/davidrochus/Dev/workspace/timelapse/contracts/Offering.sol",
  "compiler": {
    "name": "solc",
    "version": "0.8.6+commit.11564f7e.Emscripten.clang"
  },
  "schemaVersion": "3.4.1",
  "updatedAt": "2021-07-23T13:23:34.779Z",
  "networkType": "ethereum",
  "devdoc": {
    "author": "Keeymon, DavidRochus",
    "events": {
      "AcceptanceReceived(address,uint256,uint256)": {
        "details": "Triggered when an acceptance is received"
      },
      "AcknowledgeSent(address,uint256,uint256)": {
        "details": "Triggered when an acknowledge has to be sent"
      },
      "ClosedProposal(uint256)": {
        "details": "Triggered when a proposal is closed"
      },
      "ConfirmationSent(uint256,uint256,address,uint256)": {
        "details": "Triggered when a confirmation has to be sent"
      },
      "LowBalanceReceived(address,string)": {
        "details": "Triggered when a lowBalance is received"
      },
      "OfferSent(uint256,address,uint256,uint8,uint256[],uint256,string)": {
        "details": "Triggered when an offer has to be sent"
      },
      "ProductCreated(address,uint256,uint256,uint256)": {
        "details": "Triggered when a product is created"
      },
      "ProposalAdded(uint256,uint8,uint256,uint256,string)": {
        "details": "Triggered when a proposal is added"
      },
      "TopUpReceived(address,uint256,uint256)": {
        "details": "Triggered when a topUp is received"
      }
    },
    "kind": "dev",
    "methods": {
      "addProposal(uint8,uint256,uint256,string)": {
        "details": "Add a proposal with the following information: minimum scoring `_minScoring`, amount `_capital` + `_interest`, description `_description`",
        "params": {
          "_capital": "Capital part of the proposal amount",
          "_description": "A description of the proposal",
          "_interest": "Interest part of the proposal amount",
          "_minScoring": "The minimum score needed by customer to receive this proposal"
        }
      },
      "closedProposal(uint256)": {
        "details": "Close the proposal with the ID `_id`",
        "params": {
          "_id": "ID of the proposal to close"
        }
      },
      "constructor": {
        "details": "Smart Contract constructor"
      },
      "createProduct(address,uint256,uint256,uint256)": {
        "details": "Create a product with the following information: a customer (identified with `_phoneHash`), an offer ID `_idOffer`, a proposal ID `_idProposal` and a timestamp `_acceptanceTimestamp` ",
        "params": {
          "_acceptanceTimestamp": "Timestamp of the acceptance",
          "_idOffer": "ID of the offer",
          "_idProposal": "ID of the proposal",
          "_phoneHash": "The address that identifies to the customer"
        }
      },
      "getIndexProposalOffer(uint256,uint256)": {
        "details": "Return the ID proposal in offer",
        "params": {
          "_id": "The ID of the array proposal in an offer",
          "_idOffer": "The ID of the offer"
        }
      },
      "getOfferProposals(uint8)": {
        "details": "Return the proposals that correspond to the given scoring `_scoring`",
        "params": {
          "_scoring": "score of the customer"
        },
        "returns": {
          "_0": "Proposals"
        }
      },
      "getOfferSize(address)": {
        "details": "Get the size of the Offers of a customer (identified with `_phoneHash`)",
        "params": {
          "_phoneHash": "The address that identifies to the customer"
        }
      },
      "getOffersSize()": {
        "details": "Get the size of all the offers"
      },
      "getSizeProposalOffer(uint256)": {
        "details": "Return the number of proposal in an offer",
        "params": {
          "_idOffer": "The ID of the offer"
        }
      },
      "lowBalanceOffering(address,string,uint8)": {
        "details": "Manage lowBalance (with reference `_ref`) of a customer (identified with `_phoneHash`) and generate an offer based on the score `_score` ",
        "params": {
          "_phoneHash": "The address that identifies to the customer",
          "_ref": "Reference of the telecom provider",
          "_score": "score of the customer"
        }
      },
      "owner()": {
        "details": "Returns the address of the current owner."
      },
      "proposalsCount()": {
        "details": "Return the number of proposals"
      },
      "renounceOwnership()": {
        "details": "Leaves the contract without owner. It will not be possible to call `onlyOwner` functions anymore. Can only be called by the current owner. NOTE: Renouncing ownership will leave the contract without an owner, thereby removing any functionality that is only available to the owner."
      },
      "transferOwnership(address)": {
        "details": "Transfers ownership of the contract to a new account (`newOwner`). Can only be called by the current owner."
      },
      "trimOfferProposals(uint256[],uint8)": {
        "details": "Return a proposals based on table `_offerProposals` with only the first `_offerProposalsCount` proposals",
        "params": {
          "_offerProposals": "Initial proposals table",
          "_offerProposalsCount": "Number of proposals to retrieve in the initial table"
        },
        "returns": {
          "_0": "Proposals"
        }
      }
    },
    "stateVariables": {
      "offerList": {
        "details": "Mapping to access offers related to a phoneHash"
      },
      "offers": {
        "details": "Offers table"
      },
      "products": {
        "details": "Products table"
      },
      "proposals": {
        "details": "Proposals table"
      }
    },
    "title": "This Smart Contract is responsible to generate the offers for customers.",
    "version": 1
  },
  "userdoc": {
    "kind": "user",
    "methods": {
      "addProposal(uint8,uint256,uint256,string)": {
        "notice": "Add a proposal"
      },
      "closedProposal(uint256)": {
        "notice": "Close a proposal"
      },
      "createProduct(address,uint256,uint256,uint256)": {
        "notice": "Create a product"
      },
      "getIndexProposalOffer(uint256,uint256)": {
        "notice": "Get the ID proposal in offer"
      },
      "getOfferProposals(uint8)": {
        "notice": "Get the proposals corresponding to the scoring"
      },
      "getOfferSize(address)": {
        "notice": "Get the size of the Offers of a customer"
      },
      "getOffersSize()": {
        "notice": "Get the size of all the offers"
      },
      "getSizeProposalOffer(uint256)": {
        "notice": "Number of proposal in an offer"
      },
      "lowBalanceOffering(address,string,uint8)": {
        "notice": "Manage the \"low balances\" received and generate an offer"
      },
      "proposalsCount()": {
        "notice": "Number of proposals"
      },
      "trimOfferProposals(uint256[],uint8)": {
        "notice": "Create a trimmed table of the proposals"
      }
    },
    "notice": "Manage all aspects related to offering (proposals, customers and products management)",
    "version": 1
  }
}