{
  "contractName": "Offering",
  "abi": [
    {
      "inputs": [],
      "stateMutability": "nonpayable",
      "type": "constructor"
    },
    {
      "anonymous": false,
      "inputs": [
        {
          "indexed": false,
          "internalType": "address",
          "name": "phoneHash",
          "type": "address"
        },
        {
          "indexed": false,
          "internalType": "uint256",
          "name": "offerId",
          "type": "uint256"
        },
        {
          "indexed": false,
          "internalType": "uint256",
          "name": "proposalId",
          "type": "uint256"
        }
      ],
      "name": "AcceptanceReceived",
      "type": "event"
    },
    {
      "anonymous": false,
      "inputs": [
        {
          "indexed": false,
          "internalType": "address",
          "name": "phoneHash",
          "type": "address"
        },
        {
          "indexed": false,
          "internalType": "uint256",
          "name": "productId",
          "type": "uint256"
        },
        {
          "indexed": false,
          "internalType": "uint256",
          "name": "amount",
          "type": "uint256"
        }
      ],
      "name": "AcknowledgeSent",
      "type": "event"
    },
    {
      "anonymous": false,
      "inputs": [
        {
          "indexed": false,
          "internalType": "uint256",
          "name": "productId",
          "type": "uint256"
        },
        {
          "indexed": false,
          "internalType": "uint256",
          "name": "offerId",
          "type": "uint256"
        },
        {
          "indexed": false,
          "internalType": "address",
          "name": "phoneHash",
          "type": "address"
        },
        {
          "indexed": false,
          "internalType": "uint256",
          "name": "timestamp",
          "type": "uint256"
        }
      ],
      "name": "ConfirmationSent",
      "type": "event"
    },
    {
      "anonymous": false,
      "inputs": [
        {
          "indexed": false,
          "internalType": "address",
          "name": "phoneHash",
          "type": "address"
        },
        {
          "indexed": false,
          "internalType": "string",
          "name": "ref",
          "type": "string"
        }
      ],
      "name": "LowBalanceReceived",
      "type": "event"
    },
    {
      "anonymous": false,
      "inputs": [
        {
          "indexed": false,
          "internalType": "uint256",
          "name": "offerId",
          "type": "uint256"
        },
        {
          "indexed": false,
          "internalType": "address",
          "name": "phoneHash",
          "type": "address"
        },
        {
          "indexed": false,
          "internalType": "uint256",
          "name": "timestamp",
          "type": "uint256"
        },
        {
          "indexed": false,
          "internalType": "enum Offering.EligibilityReason",
          "name": "reason",
          "type": "uint8"
        },
        {
          "indexed": false,
          "internalType": "uint256[]",
          "name": "proposals",
          "type": "uint256[]"
        },
        {
          "indexed": false,
          "internalType": "uint256",
          "name": "scoring",
          "type": "uint256"
        },
        {
          "indexed": false,
          "internalType": "string",
          "name": "ref",
          "type": "string"
        }
      ],
      "name": "OfferSent",
      "type": "event"
    },
    {
      "anonymous": false,
      "inputs": [
        {
          "indexed": true,
          "internalType": "address",
          "name": "previousOwner",
          "type": "address"
        },
        {
          "indexed": true,
          "internalType": "address",
          "name": "newOwner",
          "type": "address"
        }
      ],
      "name": "OwnershipTransferred",
      "type": "event"
    },
    {
      "anonymous": false,
      "inputs": [
        {
          "indexed": false,
          "internalType": "uint256",
          "name": "proposalId",
          "type": "uint256"
        },
        {
          "indexed": false,
          "internalType": "uint8",
          "name": "minScoring",
          "type": "uint8"
        },
        {
          "indexed": false,
          "internalType": "uint256",
          "name": "capital",
          "type": "uint256"
        },
        {
          "indexed": false,
          "internalType": "uint256",
          "name": "interest",
          "type": "uint256"
        },
        {
          "indexed": false,
          "internalType": "string",
          "name": "description",
          "type": "string"
        }
      ],
      "name": "ProposalAdded",
      "type": "event"
    },
    {
      "anonymous": false,
      "inputs": [
        {
          "indexed": false,
          "internalType": "address",
          "name": "phoneHash",
          "type": "address"
        },
        {
          "indexed": false,
          "internalType": "uint256",
          "name": "productId",
          "type": "uint256"
        },
        {
          "indexed": false,
          "internalType": "uint256",
          "name": "amount",
          "type": "uint256"
        }
      ],
      "name": "TopUpReceived",
      "type": "event"
    },
    {
      "inputs": [
        {
          "internalType": "uint256",
          "name": "",
          "type": "uint256"
        }
      ],
      "name": "offers",
      "outputs": [
        {
          "internalType": "address",
          "name": "phoneHash",
          "type": "address"
        },
        {
          "internalType": "uint256",
          "name": "timestamp",
          "type": "uint256"
        },
        {
          "internalType": "enum Offering.EligibilityReason",
          "name": "reason",
          "type": "uint8"
        },
        {
          "internalType": "enum Offering.OfferStatus",
          "name": "status",
          "type": "uint8"
        },
        {
          "internalType": "string",
          "name": "ref",
          "type": "string"
        }
      ],
      "stateMutability": "view",
      "type": "function"
    },
    {
      "inputs": [],
      "name": "owner",
      "outputs": [
        {
          "internalType": "address",
          "name": "",
          "type": "address"
        }
      ],
      "stateMutability": "view",
      "type": "function"
    },
    {
      "inputs": [
        {
          "internalType": "uint256",
          "name": "",
          "type": "uint256"
        }
      ],
      "name": "products",
      "outputs": [
        {
          "internalType": "address",
          "name": "phoneHash",
          "type": "address"
        },
        {
          "internalType": "uint256",
          "name": "timestamp",
          "type": "uint256"
        },
        {
          "internalType": "uint256",
          "name": "offerId",
          "type": "uint256"
        },
        {
          "internalType": "uint256",
          "name": "proposalId",
          "type": "uint256"
        },
        {
          "internalType": "uint256",
          "name": "topUpAmount",
          "type": "uint256"
        },
        {
          "internalType": "enum Offering.ProductStatus",
          "name": "status",
          "type": "uint8"
        }
      ],
      "stateMutability": "view",
      "type": "function"
    },
    {
      "inputs": [
        {
          "internalType": "uint256",
          "name": "",
          "type": "uint256"
        }
      ],
      "name": "proposals",
      "outputs": [
        {
          "internalType": "uint8",
          "name": "minScoring",
          "type": "uint8"
        },
        {
          "internalType": "uint256",
          "name": "capital",
          "type": "uint256"
        },
        {
          "internalType": "uint256",
          "name": "interest",
          "type": "uint256"
        },
        {
          "internalType": "uint256",
          "name": "validityPeriod",
          "type": "uint256"
        },
        {
          "internalType": "string",
          "name": "description",
          "type": "string"
        },
        {
          "internalType": "enum Offering.ProposalStatus",
          "name": "status",
          "type": "uint8"
        }
      ],
      "stateMutability": "view",
      "type": "function"
    },
    {
      "inputs": [],
      "name": "renounceOwnership",
      "outputs": [],
      "stateMutability": "nonpayable",
      "type": "function"
    },
    {
      "inputs": [
        {
          "internalType": "address",
          "name": "newOwner",
          "type": "address"
        }
      ],
      "name": "transferOwnership",
      "outputs": [],
      "stateMutability": "nonpayable",
      "type": "function"
    },
    {
      "inputs": [
        {
          "internalType": "uint8",
          "name": "_minScoring",
          "type": "uint8"
        },
        {
          "internalType": "uint256",
          "name": "_capital",
          "type": "uint256"
        },
        {
          "internalType": "uint256",
          "name": "_interest",
          "type": "uint256"
        },
        {
          "internalType": "string",
          "name": "_description",
          "type": "string"
        }
      ],
      "name": "addProposal",
      "outputs": [],
      "stateMutability": "nonpayable",
      "type": "function"
    },
    {
      "inputs": [
        {
          "internalType": "uint256",
          "name": "_id",
          "type": "uint256"
        }
      ],
      "name": "closedProposal",
      "outputs": [],
      "stateMutability": "nonpayable",
      "type": "function"
    },
    {
      "inputs": [],
      "name": "proposalsCount",
      "outputs": [
        {
          "internalType": "uint256",
          "name": "",
          "type": "uint256"
        }
      ],
      "stateMutability": "view",
      "type": "function"
    },
    {
      "inputs": [
        {
          "internalType": "address",
          "name": "_phoneHash",
          "type": "address"
        },
        {
          "internalType": "string",
          "name": "_ref",
          "type": "string"
        }
      ],
      "name": "lowBalance",
      "outputs": [],
      "stateMutability": "nonpayable",
      "type": "function"
    },
    {
      "inputs": [
        {
          "internalType": "address",
          "name": "_phoneHash",
          "type": "address"
        }
      ],
      "name": "eligibility",
      "outputs": [
        {
          "internalType": "uint8",
          "name": "",
          "type": "uint8"
        },
        {
          "internalType": "enum Offering.EligibilityReason",
          "name": "",
          "type": "uint8"
        }
      ],
      "stateMutability": "pure",
      "type": "function"
    },
    {
      "inputs": [
        {
          "internalType": "uint8",
          "name": "_scoring",
          "type": "uint8"
        }
      ],
      "name": "getOfferProposals",
      "outputs": [
        {
          "internalType": "uint256[]",
          "name": "",
          "type": "uint256[]"
        }
      ],
      "stateMutability": "view",
      "type": "function"
    },
    {
      "inputs": [],
      "name": "getUniqueId",
      "outputs": [
        {
          "internalType": "address",
          "name": "",
          "type": "address"
        }
      ],
      "stateMutability": "nonpayable",
      "type": "function"
    }
  ],
  "bytecode": "0x6080604052600060015534801561001557600080fd5b5061003261002761003760201b60201c565b61003f60201b60201c565b610103565b600033905090565b60008060009054906101000a900473ffffffffffffffffffffffffffffffffffffffff169050816000806101000a81548173ffffffffffffffffffffffffffffffffffffffff021916908373ffffffffffffffffffffffffffffffffffffffff1602179055508173ffffffffffffffffffffffffffffffffffffffff168173ffffffffffffffffffffffffffffffffffffffff167f8be0079c531659141344cd1fd0a4f28419497f9722a3daafe3b4186f6b6457e060405160405180910390a35050565b611e13806101126000396000f3fe608060405234801561001057600080fd5b50600436106100cf5760003560e01c8063715018a61161008c5780638da5cb5b116100665780638da5cb5b14610233578063ab63d7f214610251578063bdcf208c1461026f578063f2fde38b1461028b576100cf565b8063715018a6146101c05780637acc0b20146101ca5780638a72ea6a146101ff576100cf565b8063013cf08b146100d45780630a9f46ad146101095780631ac8d4441461012757806346747b381461014357806347466dc31461017357806363c36dec1461018f575b600080fd5b6100ee60048036038101906100e991906112ae565b6102a7565b60405161010096959493929190611838565b60405180910390f35b610111610395565b60405161011e919061171d565b60405180910390f35b610141600480360381019061013c9190611252565b6103a2565b005b61015d600480360381019061015891906112db565b610638565b60405161016a919061169b565b60405180910390f35b61018d600480360381019061018891906112ae565b6107b0565b005b6101a960048036038101906101a49190611225565b6108c6565b6040516101b792919061180f565b60405180910390f35b6101c8610981565b005b6101e460048036038101906101df91906112ae565b610a09565b6040516101f69695949392919061163a565b60405180910390f35b610219600480360381019061021491906112ae565b610a82565b60405161022a9594939291906115e0565b60405180910390f35b61023b610b8a565b6040516102489190611595565b60405180910390f35b610259610bb3565b6040516102669190611595565b60405180910390f35b61028960048036038101906102849190611308565b610c02565b005b6102a560048036038101906102a09190611225565b610e07565b005b600381815481106102b757600080fd5b90600052602060002090600602016000915090508060000160009054906101000a900460ff16908060010154908060020154908060030154908060040180546102ff90611ab0565b80601f016020809104026020016040519081016040528092919081815260200182805461032b90611ab0565b80156103785780601f1061034d57610100808354040283529160200191610378565b820191906000526020600020905b81548152906001019060200180831161035b57829003601f168201915b5050505050908060050160009054906101000a900460ff16905086565b6000600380549050905090565b7f251fc0df7e56c36cfc4f618ef67296b8e2c41ce1ce473e5187bfec66743b38d382826040516103d39291906115b0565b60405180910390a16000806103e7846108c6565b80925081935050506103f7610fcb565b84816000019073ffffffffffffffffffffffffffffffffffffffff16908173ffffffffffffffffffffffffffffffffffffffff168152505042816020018181525050818160400190600481111561045157610450611bb9565b5b9081600481111561046557610464611bb9565b5b8152505060008160800190600181111561048257610481611bb9565b5b9081600181111561049657610495611bb9565b5b815250506104a383610638565b8160600181905250838160a00181905250600281908060018154018082558091505060019003906000526020600020906006020160009091909190915060008201518160000160006101000a81548173ffffffffffffffffffffffffffffffffffffffff021916908373ffffffffffffffffffffffffffffffffffffffff1602179055506020820151816001015560408201518160020160006101000a81548160ff0219169083600481111561055c5761055b611bb9565b5b0217905550606082015181600301908051906020019061057d92919061103b565b5060808201518160040160006101000a81548160ff021916908360018111156105a9576105a8611bb9565b5b021790555060a08201518160050190805190602001906105ca929190611088565b5050507f6a2d36566113fdc14dbc5b9458a0ba3a3eb54e394c2eb29fb26efdfee664f55e6001600280549050610600919061194b565b8260000151836020015184604001518560600151888a6040516106299796959493929190611738565b60405180910390a15050505050565b60606000600367ffffffffffffffff81111561065757610656611c46565b5b6040519080825280602002602001820160405280156106855781602001602082028036833780820191505090505b5090506000808460ff16141561069f5781925050506107ab565b6000600190505b600380549050811080156106ba5750600382105b156107a457600060018111156106d3576106d2611bb9565b5b600382815481106106e7576106e6611c17565b5b906000526020600020906006020160050160009054906101000a900460ff16600181111561071857610717611bb9565b5b14801561075d57506003818154811061073457610733611c17565b5b906000526020600020906006020160000160009054906101000a900460ff1660ff168560ff1610155b15610791578083838151811061077657610775611c17565b5b602002602001018181525050818061078d90611b13565b9250505b808061079c90611b13565b9150506106a6565b5081925050505b919050565b6107b8610eff565b73ffffffffffffffffffffffffffffffffffffffff166107d6610b8a565b73ffffffffffffffffffffffffffffffffffffffff161461082c576040517f08c379a0000000000000000000000000000000000000000000000000000000008152600401610823906116fd565b60405180910390fd5b806003805490508110610874576040517f08c379a000000000000000000000000000000000000000000000000000000000815260040161086b906116bd565b60405180910390fd5b60016003838154811061088a57610889611c17565b5b906000526020600020906006020160050160006101000a81548160ff021916908360018111156108bd576108bc611bb9565b5b02179055505050565b60008073718cea3706787aa03bd936b76303fa00660c5f4273ffffffffffffffffffffffffffffffffffffffff168373ffffffffffffffffffffffffffffffffffffffff16141561091e57600360009150915061097c565b733ad53d26d15a658a84fe8ca9ffc8aa3a7240c1a073ffffffffffffffffffffffffffffffffffffffff168373ffffffffffffffffffffffffffffffffffffffff16141561097357600660009150915061097c565b60006003915091505b915091565b610989610eff565b73ffffffffffffffffffffffffffffffffffffffff166109a7610b8a565b73ffffffffffffffffffffffffffffffffffffffff16146109fd576040517f08c379a00000000000000000000000000000000000000000000000000000000081526004016109f4906116fd565b60405180910390fd5b610a076000610f07565b565b60048181548110610a1957600080fd5b90600052602060002090600602016000915090508060000160009054906101000a900473ffffffffffffffffffffffffffffffffffffffff16908060010154908060020154908060030154908060040154908060050160009054906101000a900460ff16905086565b60028181548110610a9257600080fd5b90600052602060002090600602016000915090508060000160009054906101000a900473ffffffffffffffffffffffffffffffffffffffff16908060010154908060020160009054906101000a900460ff16908060040160009054906101000a900460ff1690806005018054610b0790611ab0565b80601f0160208091040260200160405190810160405280929190818152602001828054610b3390611ab0565b8015610b805780601f10610b5557610100808354040283529160200191610b80565b820191906000526020600020905b815481529060010190602001808311610b6357829003601f168201915b5050505050905085565b60008060009054906101000a900473ffffffffffffffffffffffffffffffffffffffff16905090565b600060016000815480929190610bc890611b13565b91905055504233600154604051602001610be493929190611558565b6040516020818303038152906040528051906020012060601c905090565b610c0a610eff565b73ffffffffffffffffffffffffffffffffffffffff16610c28610b8a565b73ffffffffffffffffffffffffffffffffffffffff1614610c7e576040517f08c379a0000000000000000000000000000000000000000000000000000000008152600401610c75906116fd565b60405180910390fd5b610c8661110e565b84816000019060ff16908160ff1681525050838160200181815250508281604001818152505081816080018190525060008160a001906001811115610cce57610ccd611bb9565b5b90816001811115610ce257610ce1611bb9565b5b81525050600381908060018154018082558091505060019003906000526020600020906006020160009091909190915060008201518160000160006101000a81548160ff021916908360ff1602179055506020820151816001015560408201518160020155606082015181600301556080820151816004019080519060200190610d6d929190611088565b5060a08201518160050160006101000a81548160ff02191690836001811115610d9957610d98611bb9565b5b021790555050507f0dd92ec7c9e4620459d0f39f48975327d855d61513c1e839e5ae03d1ca7644726001600380549050610dd3919061194b565b8260000151836020015184604001518560800151604051610df89594939291906117b5565b60405180910390a15050505050565b610e0f610eff565b73ffffffffffffffffffffffffffffffffffffffff16610e2d610b8a565b73ffffffffffffffffffffffffffffffffffffffff1614610e83576040517f08c379a0000000000000000000000000000000000000000000000000000000008152600401610e7a906116fd565b60405180910390fd5b600073ffffffffffffffffffffffffffffffffffffffff168173ffffffffffffffffffffffffffffffffffffffff161415610ef3576040517f08c379a0000000000000000000000000000000000000000000000000000000008152600401610eea906116dd565b60405180910390fd5b610efc81610f07565b50565b600033905090565b60008060009054906101000a900473ffffffffffffffffffffffffffffffffffffffff169050816000806101000a81548173ffffffffffffffffffffffffffffffffffffffff021916908373ffffffffffffffffffffffffffffffffffffffff1602179055508173ffffffffffffffffffffffffffffffffffffffff168173ffffffffffffffffffffffffffffffffffffffff167f8be0079c531659141344cd1fd0a4f28419497f9722a3daafe3b4186f6b6457e060405160405180910390a35050565b6040518060c00160405280600073ffffffffffffffffffffffffffffffffffffffff168152602001600081526020016000600481111561100e5761100d611bb9565b5b8152602001606081526020016000600181111561102e5761102d611bb9565b5b8152602001606081525090565b828054828255906000526020600020908101928215611077579160200282015b8281111561107657825182559160200191906001019061105b565b5b5090506110849190611159565b5090565b82805461109490611ab0565b90600052602060002090601f0160209004810192826110b657600085556110fd565b82601f106110cf57805160ff19168380011785556110fd565b828001600101855582156110fd579182015b828111156110fc5782518255916020019190600101906110e1565b5b50905061110a9190611159565b5090565b6040518060c00160405280600060ff168152602001600081526020016000815260200160008152602001606081526020016000600181111561115357611152611bb9565b5b81525090565b5b8082111561117257600081600090555060010161115a565b5090565b6000611189611184846118c5565b6118a0565b9050828152602081018484840111156111a5576111a4611c7a565b5b6111b0848285611a6e565b509392505050565b6000813590506111c781611d98565b92915050565b600082601f8301126111e2576111e1611c75565b5b81356111f2848260208601611176565b91505092915050565b60008135905061120a81611daf565b92915050565b60008135905061121f81611dc6565b92915050565b60006020828403121561123b5761123a611c84565b5b6000611249848285016111b8565b91505092915050565b6000806040838503121561126957611268611c84565b5b6000611277858286016111b8565b925050602083013567ffffffffffffffff81111561129857611297611c7f565b5b6112a4858286016111cd565b9150509250929050565b6000602082840312156112c4576112c3611c84565b5b60006112d2848285016111fb565b91505092915050565b6000602082840312156112f1576112f0611c84565b5b60006112ff84828501611210565b91505092915050565b6000806000806080858703121561132257611321611c84565b5b600061133087828801611210565b9450506020611341878288016111fb565b9350506040611352878288016111fb565b925050606085013567ffffffffffffffff81111561137357611372611c7f565b5b61137f878288016111cd565b91505092959194509250565b60006113978383611505565b60208301905092915050565b6113ac8161197f565b82525050565b6113c36113be8261197f565b611b5c565b82525050565b60006113d482611906565b6113de8185611929565b93506113e9836118f6565b8060005b8381101561141a578151611401888261138b565b975061140c8361191c565b9250506001810190506113ed565b5085935050505092915050565b61143081611a14565b82525050565b61143f81611a26565b82525050565b61144e81611a38565b82525050565b61145d81611a4a565b82525050565b600061146e82611911565b611478818561193a565b9350611488818560208601611a7d565b61149181611c89565b840191505092915050565b60006114a960168361193a565b91506114b482611ca7565b602082019050919050565b60006114cc60268361193a565b91506114d782611cd0565b604082019050919050565b60006114ef60208361193a565b91506114fa82611d1f565b602082019050919050565b61150e816119fd565b82525050565b61151d816119fd565b82525050565b61153461152f826119fd565b611b80565b82525050565b61154381611a5c565b82525050565b61155281611a07565b82525050565b60006115648286611523565b60208201915061157482856113b2565b6014820191506115848284611523565b602082019150819050949350505050565b60006020820190506115aa60008301846113a3565b92915050565b60006040820190506115c560008301856113a3565b81810360208301526115d78184611463565b90509392505050565b600060a0820190506115f560008301886113a3565b6116026020830187611514565b61160f6040830186611427565b61161c6060830185611436565b818103608083015261162e8184611463565b90509695505050505050565b600060c08201905061164f60008301896113a3565b61165c6020830188611514565b6116696040830187611514565b6116766060830186611514565b6116836080830185611514565b61169060a0830184611445565b979650505050505050565b600060208201905081810360008301526116b581846113c9565b905092915050565b600060208201905081810360008301526116d68161149c565b9050919050565b600060208201905081810360008301526116f6816114bf565b9050919050565b60006020820190508181036000830152611716816114e2565b9050919050565b60006020820190506117326000830184611514565b92915050565b600060e08201905061174d600083018a611514565b61175a60208301896113a3565b6117676040830188611514565b6117746060830187611427565b818103608083015261178681866113c9565b905061179560a083018561153a565b81810360c08301526117a78184611463565b905098975050505050505050565b600060a0820190506117ca6000830188611514565b6117d76020830187611549565b6117e46040830186611514565b6117f16060830185611514565b81810360808301526118038184611463565b90509695505050505050565b60006040820190506118246000830185611549565b6118316020830184611427565b9392505050565b600060c08201905061184d6000830189611549565b61185a6020830188611514565b6118676040830187611514565b6118746060830186611514565b81810360808301526118868185611463565b905061189560a0830184611454565b979650505050505050565b60006118aa6118bb565b90506118b68282611ae2565b919050565b6000604051905090565b600067ffffffffffffffff8211156118e0576118df611c46565b5b6118e982611c89565b9050602081019050919050565b6000819050602082019050919050565b600081519050919050565b600081519050919050565b6000602082019050919050565b600082825260208201905092915050565b600082825260208201905092915050565b6000611956826119fd565b9150611961836119fd565b92508282101561197457611973611b8a565b5b828203905092915050565b600061198a826119dd565b9050919050565b600081905061199f82611d48565b919050565b60008190506119b282611d5c565b919050565b60008190506119c582611d70565b919050565b60008190506119d882611d84565b919050565b600073ffffffffffffffffffffffffffffffffffffffff82169050919050565b6000819050919050565b600060ff82169050919050565b6000611a1f82611991565b9050919050565b6000611a31826119a4565b9050919050565b6000611a43826119b7565b9050919050565b6000611a55826119ca565b9050919050565b6000611a6782611a07565b9050919050565b82818337600083830152505050565b60005b83811015611a9b578082015181840152602081019050611a80565b83811115611aaa576000848401525b50505050565b60006002820490506001821680611ac857607f821691505b60208210811415611adc57611adb611be8565b5b50919050565b611aeb82611c89565b810181811067ffffffffffffffff82111715611b0a57611b09611c46565b5b80604052505050565b6000611b1e826119fd565b91507fffffffffffffffffffffffffffffffffffffffffffffffffffffffffffffffff821415611b5157611b50611b8a565b5b600182019050919050565b6000611b6782611b6e565b9050919050565b6000611b7982611c9a565b9050919050565b6000819050919050565b7f4e487b7100000000000000000000000000000000000000000000000000000000600052601160045260246000fd5b7f4e487b7100000000000000000000000000000000000000000000000000000000600052602160045260246000fd5b7f4e487b7100000000000000000000000000000000000000000000000000000000600052602260045260246000fd5b7f4e487b7100000000000000000000000000000000000000000000000000000000600052603260045260246000fd5b7f4e487b7100000000000000000000000000000000000000000000000000000000600052604160045260246000fd5b600080fd5b600080fd5b600080fd5b600080fd5b6000601f19601f8301169050919050565b60008160601b9050919050565b7f50726f706f73616c20646f65736e277420657869737400000000000000000000600082015250565b7f4f776e61626c653a206e6577206f776e657220697320746865207a65726f206160008201527f6464726573730000000000000000000000000000000000000000000000000000602082015250565b7f4f776e61626c653a2063616c6c6572206973206e6f7420746865206f776e6572600082015250565b60058110611d5957611d58611bb9565b5b50565b60028110611d6d57611d6c611bb9565b5b50565b60028110611d8157611d80611bb9565b5b50565b60028110611d9557611d94611bb9565b5b50565b611da18161197f565b8114611dac57600080fd5b50565b611db8816119fd565b8114611dc357600080fd5b50565b611dcf81611a07565b8114611dda57600080fd5b5056fea2646970667358221220d89eda934636fb18f17ec9609572fe61fdfd4f3355893a277c220bbf020ea1dd64736f6c63430008060033",
  "immutableReferences": {},
  "source": "// SPDX-License-Identifier: MIT\npragma solidity ^0.8.6;\n\nimport \"@openzeppelin/contracts/access/Ownable.sol\";\n\ncontract Offering is Ownable {\n    uint256 private nonce = 0;\n\n    enum OfferStatus {\n        New,\n        Accepted\n    }\n\n    enum ProductStatus {\n        Active,\n        Closed\n    }\n\n    enum ProposalStatus {\n        Active,\n        Closed\n    }\n\n    enum EligibilityReason {\n        None,\n        UnknowUser,\n        LowUser,\n        DoubleSpent,\n        Other\n    }\n\n    struct Offer {\n        address phoneHash;\n        uint256 timestamp;\n        EligibilityReason reason;\n        uint256[] proposals;\n        OfferStatus status;\n        string ref;\n    }\n\n    struct Product {\n        address phoneHash;\n        uint256 timestamp;\n        uint256 offerId;\n        uint256 proposalId;\n        uint256 topUpAmount;\n        ProductStatus status;\n    }\n\n    struct Proposal {\n        uint8 minScoring;\n        uint256 capital;\n        uint256 interest;\n        uint256 validityPeriod;\n        string description;\n        ProposalStatus status;\n    }\n\n    Offer[] public offers;\n    Proposal[] public proposals;\n    Product[] public products;\n\n    event ProposalAdded(\n        uint256 proposalId,\n        uint8 minScoring,\n        uint256 capital,\n        uint256 interest,\n        string description\n    );\n    event LowBalanceReceived(address phoneHash, string ref);\n\n    event OfferSent(\n        uint256 offerId,\n        address phoneHash,\n        uint256 timestamp,\n        EligibilityReason reason,\n        uint256[] proposals,\n        uint256 scoring,\n        string ref\n    );\n    event AcceptanceReceived(\n        address phoneHash,\n        uint256 offerId,\n        uint256 proposalId\n    );\n    event ConfirmationSent(\n        uint256 productId,\n        uint256 offerId,\n        address phoneHash,\n        uint256 timestamp\n    );\n    event TopUpReceived(address phoneHash, uint256 productId, uint256 amount);\n    event AcknowledgeSent(address phoneHash, uint256 productId, uint256 amount);\n\n    modifier existProposal(uint256 id) {\n        require(id < proposals.length, \"Proposal doesn't exist\");\n        _;\n    }\n\n    modifier existOffer(uint256 id) {\n        require(id < offers.length, \"Offer doesn't exist\");\n        _;\n    }\n\n    modifier existProduct(uint256 id) {\n        require(id < products.length, \"Product doesn't exist\");\n        _;\n    }\n\n    constructor() {}\n\n    function addProposal(\n        uint8 _minScoring,\n        uint256 _capital,\n        uint256 _interest,\n        string memory _description\n    ) public onlyOwner {\n        Proposal memory proposalData;\n\n        proposalData.minScoring = _minScoring;\n        proposalData.capital = _capital;\n        proposalData.interest = _interest;\n        proposalData.description = _description;\n        proposalData.status = ProposalStatus.Active;\n        proposals.push(proposalData);\n\n        emit ProposalAdded(\n            (proposals.length - 1),\n            proposalData.minScoring,\n            proposalData.capital,\n            proposalData.interest,\n            proposalData.description\n        );\n    }\n\n    function closedProposal(uint256 _id) public onlyOwner existProposal(_id) {\n        proposals[_id].status = ProposalStatus.Closed;\n    }\n\n    function proposalsCount() public view returns (uint256) {\n        return proposals.length;\n    }\n\n    function lowBalance(address _phoneHash, string memory _ref) public {\n        emit LowBalanceReceived(_phoneHash, _ref);\n\n        uint8 scoring;\n        EligibilityReason eligibilityReason;\n        (scoring, eligibilityReason) = eligibility(_phoneHash);\n\n        //Register Offer\n        Offer memory offerData;\n        offerData.phoneHash = _phoneHash;\n        offerData.timestamp = block.timestamp;\n        offerData.reason = eligibilityReason;\n        offerData.status = OfferStatus.New;\n        offerData.proposals = getOfferProposals(scoring);\n        offerData.ref = _ref;\n        offers.push(offerData);\n\n        emit OfferSent(\n            (offers.length - 1),\n            offerData.phoneHash,\n            offerData.timestamp,\n            offerData.reason,\n            offerData.proposals,\n            scoring,\n            _ref\n        );\n    }\n\n/*\n    function acceptance(\n        address _phoneHash,\n        uint256 _offerId,\n        uint256 _proposalId\n    ) public {\n        emit AcceptanceReceived(_phoneHash, _offerId, _proposalId);\n        offers[_offerId].status = OfferStatus.Accepted;\n\n        Product memory productData;\n        productData.offerId = _offerId;\n        productData.proposalId = _proposalId;\n        productData.phoneHash = _phoneHash;\n        productData.timestamp = block.timestamp;\n        productData.status = ProductStatus.Active;\n        products.push(productData);\n\n        emit ConfirmationSent(\n            (products.length - 1),\n            productData.offerId,\n            productData.phoneHash,\n            productData.timestamp\n        );\n    }\n\n    function topUp(\n        address _phoneHash,\n        uint256 _productId,\n        uint256 _amount\n    ) public {\n        emit TopUpReceived(_phoneHash, _productId, _amount);\n\n        products[_productId].status = ProductStatus.Closed;\n        //TODO: Manage check topUpAmount\n        products[_productId].topUpAmount = _amount;\n\n        emit AcknowledgeSent(_phoneHash, _productId, _amount);\n    }\n*/\n\n    function eligibility(address _phoneHash)\n        public\n        pure\n        returns (uint8, EligibilityReason)\n    {\n        //TODO: Manage eligibility (scoring)\n        if (_phoneHash == 0x718CEA3706787aa03Bd936b76303fA00660C5f42) {\n            return (3, EligibilityReason.None);\n        } else if (_phoneHash == 0x3ad53d26D15A658A84Fe8cA9FFc8aA3a7240C1a0) {\n            return (6, EligibilityReason.None);\n        } else {\n            return (0, EligibilityReason.DoubleSpent);\n        }\n    }\n\n    function getOfferProposals(uint8 _scoring)\n        public\n        view\n        returns (uint256[] memory)\n    {\n        uint256[] memory offerProposals = new uint256[](3);\n        uint256 offerProposalsIndex = 0;\n\n        if (_scoring == 0) {\n            return offerProposals;\n        }\n        for (\n            uint256 i = 1;\n            (i < proposals.length && offerProposalsIndex < 3);\n            i++\n        ) {\n            if (\n                proposals[i].status == ProposalStatus.Active &&\n                _scoring >= proposals[i].minScoring\n            ) {\n                offerProposals[offerProposalsIndex] = i;\n                offerProposalsIndex++;\n            }\n        }\n        return offerProposals;\n    }\n\n    function getUniqueId() public returns (address) {\n        nonce++;\n        return\n            address(\n                bytes20(\n                    keccak256(\n                        abi.encodePacked(block.timestamp, msg.sender, nonce)\n                    )\n                )\n            );\n    }\n}\n",
  "sourcePath": "/home/keymon/work/projet-pro/dApp/timelapse/contracts/Offering.sol",
  "compiler": {
    "name": "solc",
    "version": "0.8.6+commit.11564f7e.Emscripten.clang"
  },
  "schemaVersion": "3.4.1",
  "updatedAt": "2021-07-13T16:17:51.959Z",
  "devdoc": {
    "kind": "dev",
    "methods": {
      "owner()": {
        "details": "Returns the address of the current owner."
      },
      "renounceOwnership()": {
        "details": "Leaves the contract without owner. It will not be possible to call `onlyOwner` functions anymore. Can only be called by the current owner. NOTE: Renouncing ownership will leave the contract without an owner, thereby removing any functionality that is only available to the owner."
      },
      "transferOwnership(address)": {
        "details": "Transfers ownership of the contract to a new account (`newOwner`). Can only be called by the current owner."
      }
    },
    "version": 1
  },
  "userdoc": {
    "kind": "user",
    "methods": {},
    "version": 1
  }
}