{
  "contractName": "Offering",
  "abi": [
    {
      "inputs": [],
      "stateMutability": "nonpayable",
      "type": "constructor"
    },
    {
      "anonymous": false,
      "inputs": [
        {
          "indexed": false,
          "internalType": "address",
          "name": "phoneHash",
          "type": "address"
        },
        {
          "indexed": false,
          "internalType": "uint256",
          "name": "offerId",
          "type": "uint256"
        },
        {
          "indexed": false,
          "internalType": "uint256",
          "name": "proposalId",
          "type": "uint256"
        }
      ],
      "name": "AcceptanceReceived",
      "type": "event"
    },
    {
      "anonymous": false,
      "inputs": [
        {
          "indexed": false,
          "internalType": "address",
          "name": "phoneHash",
          "type": "address"
        },
        {
          "indexed": false,
          "internalType": "uint256",
          "name": "productId",
          "type": "uint256"
        },
        {
          "indexed": false,
          "internalType": "uint256",
          "name": "amount",
          "type": "uint256"
        }
      ],
      "name": "AcknowledgeSent",
      "type": "event"
    },
    {
      "anonymous": false,
      "inputs": [
        {
          "indexed": false,
          "internalType": "uint256",
          "name": "id",
          "type": "uint256"
        },
        {
          "indexed": false,
          "internalType": "uint256",
          "name": "offerId",
          "type": "uint256"
        },
        {
          "indexed": false,
          "internalType": "address",
          "name": "phoneHash",
          "type": "address"
        },
        {
          "indexed": false,
          "internalType": "uint256",
          "name": "timestamp",
          "type": "uint256"
        }
      ],
      "name": "ConfirmationSent",
      "type": "event"
    },
    {
      "anonymous": false,
      "inputs": [
        {
          "indexed": false,
          "internalType": "address",
          "name": "phoneHash",
          "type": "address"
        },
        {
          "indexed": false,
          "internalType": "string",
          "name": "ref",
          "type": "string"
        }
      ],
      "name": "LowBalanceReceived",
      "type": "event"
    },
    {
      "anonymous": false,
      "inputs": [
        {
          "indexed": false,
          "internalType": "uint256",
          "name": "id",
          "type": "uint256"
        },
        {
          "indexed": false,
          "internalType": "address",
          "name": "phoneHash",
          "type": "address"
        },
        {
          "indexed": false,
          "internalType": "uint256",
          "name": "timestamp",
          "type": "uint256"
        },
        {
          "indexed": false,
          "internalType": "enum Offering.EligibilityReason",
          "name": "reason",
          "type": "uint8"
        },
        {
          "indexed": false,
          "internalType": "uint256[]",
          "name": "proposals",
          "type": "uint256[]"
        },
        {
          "indexed": false,
          "internalType": "uint256",
          "name": "scoring",
          "type": "uint256"
        }
      ],
      "name": "OfferSent",
      "type": "event"
    },
    {
      "anonymous": false,
      "inputs": [
        {
          "indexed": true,
          "internalType": "address",
          "name": "previousOwner",
          "type": "address"
        },
        {
          "indexed": true,
          "internalType": "address",
          "name": "newOwner",
          "type": "address"
        }
      ],
      "name": "OwnershipTransferred",
      "type": "event"
    },
    {
      "anonymous": false,
      "inputs": [
        {
          "indexed": false,
          "internalType": "uint256",
          "name": "id",
          "type": "uint256"
        },
        {
          "indexed": false,
          "internalType": "uint8",
          "name": "minScoring",
          "type": "uint8"
        },
        {
          "indexed": false,
          "internalType": "string",
          "name": "description",
          "type": "string"
        }
      ],
      "name": "ProposalAdded",
      "type": "event"
    },
    {
      "anonymous": false,
      "inputs": [
        {
          "indexed": false,
          "internalType": "address",
          "name": "phoneHash",
          "type": "address"
        },
        {
          "indexed": false,
          "internalType": "uint256",
          "name": "productId",
          "type": "uint256"
        },
        {
          "indexed": false,
          "internalType": "uint256",
          "name": "amount",
          "type": "uint256"
        }
      ],
      "name": "TopUpReceived",
      "type": "event"
    },
    {
      "inputs": [
        {
          "internalType": "uint256",
          "name": "",
          "type": "uint256"
        }
      ],
      "name": "offers",
      "outputs": [
        {
          "internalType": "address",
          "name": "phoneHash",
          "type": "address"
        },
        {
          "internalType": "uint256",
          "name": "timestamp",
          "type": "uint256"
        },
        {
          "internalType": "enum Offering.EligibilityReason",
          "name": "reason",
          "type": "uint8"
        },
        {
          "internalType": "enum Offering.OfferStatus",
          "name": "status",
          "type": "uint8"
        },
        {
          "internalType": "string",
          "name": "ref",
          "type": "string"
        }
      ],
      "stateMutability": "view",
      "type": "function",
      "constant": true
    },
    {
      "inputs": [],
      "name": "owner",
      "outputs": [
        {
          "internalType": "address",
          "name": "",
          "type": "address"
        }
      ],
      "stateMutability": "view",
      "type": "function",
      "constant": true
    },
    {
      "inputs": [
        {
          "internalType": "uint256",
          "name": "",
          "type": "uint256"
        }
      ],
      "name": "products",
      "outputs": [
        {
          "internalType": "address",
          "name": "phoneHash",
          "type": "address"
        },
        {
          "internalType": "uint256",
          "name": "timestamp",
          "type": "uint256"
        },
        {
          "internalType": "uint256",
          "name": "offerId",
          "type": "uint256"
        },
        {
          "internalType": "uint256",
          "name": "proposalId",
          "type": "uint256"
        },
        {
          "internalType": "uint256",
          "name": "topUpAmount",
          "type": "uint256"
        },
        {
          "internalType": "enum Offering.ProductStatus",
          "name": "status",
          "type": "uint8"
        }
      ],
      "stateMutability": "view",
      "type": "function",
      "constant": true
    },
    {
      "inputs": [
        {
          "internalType": "uint256",
          "name": "",
          "type": "uint256"
        }
      ],
      "name": "proposals",
      "outputs": [
        {
          "internalType": "uint8",
          "name": "minScoring",
          "type": "uint8"
        },
        {
          "internalType": "string",
          "name": "description",
          "type": "string"
        },
        {
          "internalType": "enum Offering.ProposalStatus",
          "name": "status",
          "type": "uint8"
        }
      ],
      "stateMutability": "view",
      "type": "function",
      "constant": true
    },
    {
      "inputs": [],
      "name": "renounceOwnership",
      "outputs": [],
      "stateMutability": "nonpayable",
      "type": "function"
    },
    {
      "inputs": [
        {
          "internalType": "address",
          "name": "newOwner",
          "type": "address"
        }
      ],
      "name": "transferOwnership",
      "outputs": [],
      "stateMutability": "nonpayable",
      "type": "function"
    },
    {
      "inputs": [
        {
          "internalType": "uint8",
          "name": "_minScoring",
          "type": "uint8"
        },
        {
          "internalType": "string",
          "name": "_description",
          "type": "string"
        }
      ],
      "name": "addProposal",
      "outputs": [],
      "stateMutability": "nonpayable",
      "type": "function"
    },
    {
      "inputs": [
        {
          "internalType": "uint256",
          "name": "_id",
          "type": "uint256"
        }
      ],
      "name": "closedProposal",
      "outputs": [],
      "stateMutability": "nonpayable",
      "type": "function"
    },
    {
      "inputs": [],
      "name": "proposalsCount",
      "outputs": [
        {
          "internalType": "uint256",
          "name": "",
          "type": "uint256"
        }
      ],
      "stateMutability": "view",
      "type": "function",
      "constant": true
    },
    {
      "inputs": [
        {
          "internalType": "address",
          "name": "_phoneHash",
          "type": "address"
        },
        {
          "internalType": "string",
          "name": "ref",
          "type": "string"
        }
      ],
      "name": "lowBalance",
      "outputs": [],
      "stateMutability": "nonpayable",
      "type": "function"
    },
    {
      "inputs": [
        {
          "internalType": "address",
          "name": "_phoneHash",
          "type": "address"
        },
        {
          "internalType": "uint256",
          "name": "_offerId",
          "type": "uint256"
        },
        {
          "internalType": "uint256",
          "name": "_proposalId",
          "type": "uint256"
        }
      ],
      "name": "acceptance",
      "outputs": [],
      "stateMutability": "nonpayable",
      "type": "function"
    },
    {
      "inputs": [
        {
          "internalType": "address",
          "name": "_phoneHash",
          "type": "address"
        },
        {
          "internalType": "uint256",
          "name": "_productId",
          "type": "uint256"
        },
        {
          "internalType": "uint256",
          "name": "_amount",
          "type": "uint256"
        }
      ],
      "name": "topUp",
      "outputs": [],
      "stateMutability": "nonpayable",
      "type": "function"
    },
    {
      "inputs": [
        {
          "internalType": "address",
          "name": "_phoneHash",
          "type": "address"
        }
      ],
      "name": "eligibility",
      "outputs": [
        {
          "internalType": "uint8",
          "name": "",
          "type": "uint8"
        },
        {
          "internalType": "enum Offering.EligibilityReason",
          "name": "",
          "type": "uint8"
        }
      ],
      "stateMutability": "pure",
      "type": "function",
      "constant": true
    },
    {
      "inputs": [
        {
          "internalType": "uint8",
          "name": "_scoring",
          "type": "uint8"
        }
      ],
      "name": "getOfferProposals",
      "outputs": [
        {
          "internalType": "uint256[]",
          "name": "",
          "type": "uint256[]"
        }
      ],
      "stateMutability": "view",
      "type": "function",
      "constant": true
    },
    {
      "inputs": [],
      "name": "getUniqueId",
      "outputs": [
        {
          "internalType": "address",
          "name": "",
          "type": "address"
        }
      ],
      "stateMutability": "nonpayable",
      "type": "function"
    }
  ],
  "bytecode": "0x6080604052600060015534801561001557600080fd5b5061003261002761003760201b60201c565b61003f60201b60201c565b610103565b600033905090565b60008060009054906101000a900473ffffffffffffffffffffffffffffffffffffffff169050816000806101000a81548173ffffffffffffffffffffffffffffffffffffffff021916908373ffffffffffffffffffffffffffffffffffffffff1602179055508173ffffffffffffffffffffffffffffffffffffffff168173ffffffffffffffffffffffffffffffffffffffff167f8be0079c531659141344cd1fd0a4f28419497f9722a3daafe3b4186f6b6457e060405160405180910390a35050565b6121e880620001136000396000f3fe608060405234801561001057600080fd5b50600436106100f55760003560e01c8063715018a611610097578063ab63d7f211610066578063ab63d7f214610290578063c0f2308e146102ae578063d5ed1f27146102ca578063f2fde38b146102e6576100f5565b8063715018a6146101ff5780637acc0b20146102095780638a72ea6a1461023e5780638da5cb5b14610272576100f5565b806346747b38116100d357806346747b381461016657806347466dc31461019657806351cb4f38146101b257806363c36dec146101ce576100f5565b8063013cf08b146100fa5780630a9f46ad1461012c5780631ac8d4441461014a575b600080fd5b610114600480360381019061010f9190611689565b610302565b60405161012393929190611c37565b60405180910390f35b6101346103de565b6040516101419190611b08565b60405180910390f35b610164600480360381019061015f91906115da565b6103eb565b005b610180600480360381019061017b91906116b6565b61067f565b60405161018d9190611a86565b60405180910390f35b6101b060048036038101906101ab9190611689565b6107f7565b005b6101cc60048036038101906101c791906116e3565b61090d565b005b6101e860048036038101906101e391906115ad565b610ad2565b6040516101f6929190611c0e565b60405180910390f35b610207610b8d565b005b610223600480360381019061021e9190611689565b610c15565b60405161023596959493929190611a25565b60405180910390f35b61025860048036038101906102539190611689565b610c8e565b604051610269959493929190611994565b60405180910390f35b61027a610d96565b6040516102879190611949565b60405180910390f35b610298610dbf565b6040516102a59190611949565b60405180910390f35b6102c860048036038101906102c39190611636565b610e0e565b005b6102e460048036038101906102df9190611636565b611053565b005b61030060048036038101906102fb91906115ad565b611146565b005b6003818154811061031257600080fd5b90600052602060002090600302016000915090508060000160009054906101000a900460ff169080600101805461034890611e85565b80601f016020809104026020016040519081016040528092919081815260200182805461037490611e85565b80156103c15780601f10610396576101008083540402835291602001916103c1565b820191906000526020600020905b8154815290600101906020018083116103a457829003601f168201915b5050505050908060020160009054906101000a900460ff16905083565b6000600380549050905090565b7f251fc0df7e56c36cfc4f618ef67296b8e2c41ce1ce473e5187bfec66743b38d3828260405161041c929190611964565b60405180910390a160008061043084610ad2565b809250819350505061044061130a565b84816000019073ffffffffffffffffffffffffffffffffffffffff16908173ffffffffffffffffffffffffffffffffffffffff168152505042816020018181525050818160400190600481111561049a57610499611f8e565b5b908160048111156104ae576104ad611f8e565b5b815250506000816080019060018111156104cb576104ca611f8e565b5b908160018111156104df576104de611f8e565b5b815250506104ec8361067f565b8160600181905250838160a00181905250600281908060018154018082558091505060019003906000526020600020906006020160009091909190915060008201518160000160006101000a81548173ffffffffffffffffffffffffffffffffffffffff021916908373ffffffffffffffffffffffffffffffffffffffff1602179055506020820151816001015560408201518160020160006101000a81548160ff021916908360048111156105a5576105a4611f8e565b5b021790555060608201518160030190805190602001906105c692919061137a565b5060808201518160040160006101000a81548160ff021916908360018111156105f2576105f1611f8e565b5b021790555060a08201518160050190805190602001906106139291906113c7565b5050507ff1f4d55683836333e3170292366c1631d1ba0e1b9027684cb8c6487840a4c76260016002805490506106499190611d20565b82600001518360200151846040015185606001518860405161067096959493929190611b23565b60405180910390a15050505050565b60606000600367ffffffffffffffff81111561069e5761069d61201b565b5b6040519080825280602002602001820160405280156106cc5781602001602082028036833780820191505090505b5090506000808460ff1614156106e65781925050506107f2565b6000600190505b600380549050811080156107015750600382105b156107eb576000600181111561071a57610719611f8e565b5b6003828154811061072e5761072d611fec565b5b906000526020600020906003020160020160009054906101000a900460ff16600181111561075f5761075e611f8e565b5b1480156107a457506003818154811061077b5761077a611fec565b5b906000526020600020906003020160000160009054906101000a900460ff1660ff168560ff1610155b156107d857808383815181106107bd576107bc611fec565b5b60200260200101818152505081806107d490611ee8565b9250505b80806107e390611ee8565b9150506106ed565b5081925050505b919050565b6107ff61123e565b73ffffffffffffffffffffffffffffffffffffffff1661081d610d96565b73ffffffffffffffffffffffffffffffffffffffff1614610873576040517f08c379a000000000000000000000000000000000000000000000000000000000815260040161086a90611ae8565b60405180910390fd5b8060038054905081106108bb576040517f08c379a00000000000000000000000000000000000000000000000000000000081526004016108b290611aa8565b60405180910390fd5b6001600383815481106108d1576108d0611fec565b5b906000526020600020906003020160020160006101000a81548160ff0219169083600181111561090457610903611f8e565b5b02179055505050565b61091561123e565b73ffffffffffffffffffffffffffffffffffffffff16610933610d96565b73ffffffffffffffffffffffffffffffffffffffff1614610989576040517f08c379a000000000000000000000000000000000000000000000000000000000815260040161098090611ae8565b60405180910390fd5b61099161144d565b82816000019060ff16908160ff16815250508181602001819052506000816040019060018111156109c5576109c4611f8e565b5b908160018111156109d9576109d8611f8e565b5b81525050600381908060018154018082558091505060019003906000526020600020906003020160009091909190915060008201518160000160006101000a81548160ff021916908360ff1602179055506020820151816001019080519060200190610a469291906113c7565b5060408201518160020160006101000a81548160ff02191690836001811115610a7257610a71611f8e565b5b021790555050507f7dafcff367e2f0fc8eb8907031ee372657d5e0eac27f3b48c6daee39b689d66c6001600380549050610aac9190611d20565b82600001518360200151604051610ac593929190611bd0565b60405180910390a1505050565b60008073718cea3706787aa03bd936b76303fa00660c5f4273ffffffffffffffffffffffffffffffffffffffff168373ffffffffffffffffffffffffffffffffffffffff161415610b2a576003600091509150610b88565b733ad53d26d15a658a84fe8ca9ffc8aa3a7240c1a073ffffffffffffffffffffffffffffffffffffffff168373ffffffffffffffffffffffffffffffffffffffff161415610b7f576006600091509150610b88565b60006003915091505b915091565b610b9561123e565b73ffffffffffffffffffffffffffffffffffffffff16610bb3610d96565b73ffffffffffffffffffffffffffffffffffffffff1614610c09576040517f08c379a0000000000000000000000000000000000000000000000000000000008152600401610c0090611ae8565b60405180910390fd5b610c136000611246565b565b60048181548110610c2557600080fd5b90600052602060002090600602016000915090508060000160009054906101000a900473ffffffffffffffffffffffffffffffffffffffff16908060010154908060020154908060030154908060040154908060050160009054906101000a900460ff16905086565b60028181548110610c9e57600080fd5b90600052602060002090600602016000915090508060000160009054906101000a900473ffffffffffffffffffffffffffffffffffffffff16908060010154908060020160009054906101000a900460ff16908060040160009054906101000a900460ff1690806005018054610d1390611e85565b80601f0160208091040260200160405190810160405280929190818152602001828054610d3f90611e85565b8015610d8c5780601f10610d6157610100808354040283529160200191610d8c565b820191906000526020600020905b815481529060010190602001808311610d6f57829003601f168201915b5050505050905085565b60008060009054906101000a900473ffffffffffffffffffffffffffffffffffffffff16905090565b600060016000815480929190610dd490611ee8565b91905055504233600154604051602001610df09392919061190c565b6040516020818303038152906040528051906020012060601c905090565b7ffd633a42d4f218d97cbfecb6472186609432d2d07e3a7eb52d0da4e6c1be5172838383604051610e41939291906119ee565b60405180910390a1600160028381548110610e5f57610e5e611fec565b5b906000526020600020906006020160040160006101000a81548160ff02191690836001811115610e9257610e91611f8e565b5b0217905550610e9f611483565b828160400181815250508181606001818152505083816000019073ffffffffffffffffffffffffffffffffffffffff16908173ffffffffffffffffffffffffffffffffffffffff16815250504281602001818152505060008160a001906001811115610f0e57610f0d611f8e565b5b90816001811115610f2257610f21611f8e565b5b81525050600481908060018154018082558091505060019003906000526020600020906006020160009091909190915060008201518160000160006101000a81548173ffffffffffffffffffffffffffffffffffffffff021916908373ffffffffffffffffffffffffffffffffffffffff1602179055506020820151816001015560408201518160020155606082015181600301556080820151816004015560a08201518160050160006101000a81548160ff02191690836001811115610fec57610feb611f8e565b5b021790555050507f91551a88382be7835ce01fbf21484723623079542a670d5ab836ef55c6b6088560016004805490506110269190611d20565b8260400151836000015184602001516040516110459493929190611b8b565b60405180910390a150505050565b7fd38c4fe5b0a3cb3196c58af9fa89da00b028573ffb3fd8f08d41a4b5966c52e9838383604051611086939291906119ee565b60405180910390a16001600483815481106110a4576110a3611fec565b5b906000526020600020906006020160050160006101000a81548160ff021916908360018111156110d7576110d6611f8e565b5b021790555080600483815481106110f1576110f0611fec565b5b9060005260206000209060060201600401819055507f86df561c035f1d98da81b75467ad3e7b09a98da6f2a88802d99a10a21439de7a838383604051611139939291906119ee565b60405180910390a1505050565b61114e61123e565b73ffffffffffffffffffffffffffffffffffffffff1661116c610d96565b73ffffffffffffffffffffffffffffffffffffffff16146111c2576040517f08c379a00000000000000000000000000000000000000000000000000000000081526004016111b990611ae8565b60405180910390fd5b600073ffffffffffffffffffffffffffffffffffffffff168173ffffffffffffffffffffffffffffffffffffffff161415611232576040517f08c379a000000000000000000000000000000000000000000000000000000000815260040161122990611ac8565b60405180910390fd5b61123b81611246565b50565b600033905090565b60008060009054906101000a900473ffffffffffffffffffffffffffffffffffffffff169050816000806101000a81548173ffffffffffffffffffffffffffffffffffffffff021916908373ffffffffffffffffffffffffffffffffffffffff1602179055508173ffffffffffffffffffffffffffffffffffffffff168173ffffffffffffffffffffffffffffffffffffffff167f8be0079c531659141344cd1fd0a4f28419497f9722a3daafe3b4186f6b6457e060405160405180910390a35050565b6040518060c00160405280600073ffffffffffffffffffffffffffffffffffffffff168152602001600081526020016000600481111561134d5761134c611f8e565b5b8152602001606081526020016000600181111561136d5761136c611f8e565b5b8152602001606081525090565b8280548282559060005260206000209081019282156113b6579160200282015b828111156113b557825182559160200191906001019061139a565b5b5090506113c391906114e1565b5090565b8280546113d390611e85565b90600052602060002090601f0160209004810192826113f5576000855561143c565b82601f1061140e57805160ff191683800117855561143c565b8280016001018555821561143c579182015b8281111561143b578251825591602001919060010190611420565b5b50905061144991906114e1565b5090565b6040518060600160405280600060ff168152602001606081526020016000600181111561147d5761147c611f8e565b5b81525090565b6040518060c00160405280600073ffffffffffffffffffffffffffffffffffffffff16815260200160008152602001600081526020016000815260200160008152602001600060018111156114db576114da611f8e565b5b81525090565b5b808211156114fa5760008160009055506001016114e2565b5090565b600061151161150c84611c9a565b611c75565b90508281526020810184848401111561152d5761152c61204f565b5b611538848285611e43565b509392505050565b60008135905061154f8161216d565b92915050565b600082601f83011261156a5761156961204a565b5b813561157a8482602086016114fe565b91505092915050565b60008135905061159281612184565b92915050565b6000813590506115a78161219b565b92915050565b6000602082840312156115c3576115c2612059565b5b60006115d184828501611540565b91505092915050565b600080604083850312156115f1576115f0612059565b5b60006115ff85828601611540565b925050602083013567ffffffffffffffff8111156116205761161f612054565b5b61162c85828601611555565b9150509250929050565b60008060006060848603121561164f5761164e612059565b5b600061165d86828701611540565b935050602061166e86828701611583565b925050604061167f86828701611583565b9150509250925092565b60006020828403121561169f5761169e612059565b5b60006116ad84828501611583565b91505092915050565b6000602082840312156116cc576116cb612059565b5b60006116da84828501611598565b91505092915050565b600080604083850312156116fa576116f9612059565b5b600061170885828601611598565b925050602083013567ffffffffffffffff81111561172957611728612054565b5b61173585828601611555565b9150509250929050565b600061174b83836118b9565b60208301905092915050565b61176081611d54565b82525050565b61177761177282611d54565b611f31565b82525050565b600061178882611cdb565b6117928185611cfe565b935061179d83611ccb565b8060005b838110156117ce5781516117b5888261173f565b97506117c083611cf1565b9250506001810190506117a1565b5085935050505092915050565b6117e481611de9565b82525050565b6117f381611dfb565b82525050565b61180281611e0d565b82525050565b61181181611e1f565b82525050565b600061182282611ce6565b61182c8185611d0f565b935061183c818560208601611e52565b6118458161205e565b840191505092915050565b600061185d601683611d0f565b91506118688261207c565b602082019050919050565b6000611880602683611d0f565b915061188b826120a5565b604082019050919050565b60006118a3602083611d0f565b91506118ae826120f4565b602082019050919050565b6118c281611dd2565b82525050565b6118d181611dd2565b82525050565b6118e86118e382611dd2565b611f55565b82525050565b6118f781611e31565b82525050565b61190681611ddc565b82525050565b600061191882866118d7565b6020820191506119288285611766565b60148201915061193882846118d7565b602082019150819050949350505050565b600060208201905061195e6000830184611757565b92915050565b60006040820190506119796000830185611757565b818103602083015261198b8184611817565b90509392505050565b600060a0820190506119a96000830188611757565b6119b660208301876118c8565b6119c360408301866117db565b6119d060608301856117ea565b81810360808301526119e28184611817565b90509695505050505050565b6000606082019050611a036000830186611757565b611a1060208301856118c8565b611a1d60408301846118c8565b949350505050565b600060c082019050611a3a6000830189611757565b611a4760208301886118c8565b611a5460408301876118c8565b611a6160608301866118c8565b611a6e60808301856118c8565b611a7b60a08301846117f9565b979650505050505050565b60006020820190508181036000830152611aa0818461177d565b905092915050565b60006020820190508181036000830152611ac181611850565b9050919050565b60006020820190508181036000830152611ae181611873565b9050919050565b60006020820190508181036000830152611b0181611896565b9050919050565b6000602082019050611b1d60008301846118c8565b92915050565b600060c082019050611b3860008301896118c8565b611b456020830188611757565b611b5260408301876118c8565b611b5f60608301866117db565b8181036080830152611b71818561177d565b9050611b8060a08301846118ee565b979650505050505050565b6000608082019050611ba060008301876118c8565b611bad60208301866118c8565b611bba6040830185611757565b611bc760608301846118c8565b95945050505050565b6000606082019050611be560008301866118c8565b611bf260208301856118fd565b8181036040830152611c048184611817565b9050949350505050565b6000604082019050611c2360008301856118fd565b611c3060208301846117db565b9392505050565b6000606082019050611c4c60008301866118fd565b8181036020830152611c5e8185611817565b9050611c6d6040830184611808565b949350505050565b6000611c7f611c90565b9050611c8b8282611eb7565b919050565b6000604051905090565b600067ffffffffffffffff821115611cb557611cb461201b565b5b611cbe8261205e565b9050602081019050919050565b6000819050602082019050919050565b600081519050919050565b600081519050919050565b6000602082019050919050565b600082825260208201905092915050565b600082825260208201905092915050565b6000611d2b82611dd2565b9150611d3683611dd2565b925082821015611d4957611d48611f5f565b5b828203905092915050565b6000611d5f82611db2565b9050919050565b6000819050611d748261211d565b919050565b6000819050611d8782612131565b919050565b6000819050611d9a82612145565b919050565b6000819050611dad82612159565b919050565b600073ffffffffffffffffffffffffffffffffffffffff82169050919050565b6000819050919050565b600060ff82169050919050565b6000611df482611d66565b9050919050565b6000611e0682611d79565b9050919050565b6000611e1882611d8c565b9050919050565b6000611e2a82611d9f565b9050919050565b6000611e3c82611ddc565b9050919050565b82818337600083830152505050565b60005b83811015611e70578082015181840152602081019050611e55565b83811115611e7f576000848401525b50505050565b60006002820490506001821680611e9d57607f821691505b60208210811415611eb157611eb0611fbd565b5b50919050565b611ec08261205e565b810181811067ffffffffffffffff82111715611edf57611ede61201b565b5b80604052505050565b6000611ef382611dd2565b91507fffffffffffffffffffffffffffffffffffffffffffffffffffffffffffffffff821415611f2657611f25611f5f565b5b600182019050919050565b6000611f3c82611f43565b9050919050565b6000611f4e8261206f565b9050919050565b6000819050919050565b7f4e487b7100000000000000000000000000000000000000000000000000000000600052601160045260246000fd5b7f4e487b7100000000000000000000000000000000000000000000000000000000600052602160045260246000fd5b7f4e487b7100000000000000000000000000000000000000000000000000000000600052602260045260246000fd5b7f4e487b7100000000000000000000000000000000000000000000000000000000600052603260045260246000fd5b7f4e487b7100000000000000000000000000000000000000000000000000000000600052604160045260246000fd5b600080fd5b600080fd5b600080fd5b600080fd5b6000601f19601f8301169050919050565b60008160601b9050919050565b7f50726f706f73616c20646f65736e277420657869737400000000000000000000600082015250565b7f4f776e61626c653a206e6577206f776e657220697320746865207a65726f206160008201527f6464726573730000000000000000000000000000000000000000000000000000602082015250565b7f4f776e61626c653a2063616c6c6572206973206e6f7420746865206f776e6572600082015250565b6005811061212e5761212d611f8e565b5b50565b6002811061214257612141611f8e565b5b50565b6002811061215657612155611f8e565b5b50565b6002811061216a57612169611f8e565b5b50565b61217681611d54565b811461218157600080fd5b50565b61218d81611dd2565b811461219857600080fd5b50565b6121a481611ddc565b81146121af57600080fd5b5056fea26469706673582212209679b419d915c716d1320b75fd7ac5a760aed00f6a489d0702a6e96f8602642264736f6c63430008060033",
  "immutableReferences": {},
  "source": "// SPDX-License-Identifier: MIT\npragma solidity ^0.8.6;\n\nimport \"@openzeppelin/contracts/access/Ownable.sol\";\n\ncontract Offering is Ownable {\n    uint256 private nonce = 0;\n\n    enum OfferStatus {\n        New,\n        Accepted\n    }\n\n    enum ProductStatus {\n        Active,\n        Closed\n    }\n\n    enum ProposalStatus {\n        Active,\n        Closed\n    }\n\n    enum EligibilityReason {\n        None,\n        UnknowUser,\n        LowUser,\n        DoubleSpent,\n        Other\n    }\n\n    struct Offer {\n        address phoneHash;\n        uint256 timestamp;\n        EligibilityReason reason;\n        uint256[] proposals;\n        OfferStatus status;\n        string ref;\n    }\n\n    struct Product {\n        address phoneHash;\n        uint256 timestamp;\n        uint256 offerId;\n        uint256 proposalId;\n        uint256 topUpAmount;\n        ProductStatus status;\n    }\n\n    struct Proposal {\n        uint8 minScoring;\n        string description;\n        ProposalStatus status;\n    }\n\n    Offer[] public offers;\n    Proposal[] public proposals;\n    Product[] public products;\n\n    event ProposalAdded(uint256 id, uint8 minScoring, string description);\n    event LowBalanceReceived(address phoneHash, string ref);\n\n    event OfferSent(\n        uint256 id,\n        address phoneHash,\n        uint256 timestamp,\n        EligibilityReason reason,\n        uint256[] proposals,\n        uint256 scoring\n    );\n    event AcceptanceReceived(\n        address phoneHash,\n        uint256 offerId,\n        uint256 proposalId\n    );\n    event ConfirmationSent(\n        uint256 id,\n        uint256 offerId,\n        address phoneHash,\n        uint256 timestamp\n    );\n    event TopUpReceived(\n        address phoneHash,\n        uint256 productId,\n        uint256 amount\n    );\n    event AcknowledgeSent(\n        address phoneHash,\n        uint256 productId,\n        uint256 amount\n    );\n\n    modifier existProposal(uint256 id) {\n        require(id < proposals.length, \"Proposal doesn't exist\");\n        _;\n    }\n\n    modifier existOffer(uint256 id) {\n        require(id < offers.length, \"Offer doesn't exist\");\n        _;\n    }\n\n    modifier existProduct(uint256 id) {\n        require(id < products.length, \"Product doesn't exist\");\n        _;\n    }\n\n    constructor() {}\n\n    function addProposal(\n        uint8 _minScoring,\n        string memory _description\n    ) public onlyOwner {\n        Proposal memory proposalData;\n\n        proposalData.minScoring = _minScoring;\n        proposalData.description = _description;\n        proposalData.status = ProposalStatus.Active;\n        proposals.push(proposalData);\n\n        emit ProposalAdded(\n            (proposals.length - 1),\n            proposalData.minScoring,\n            proposalData.description\n        );\n    }\n\n    function closedProposal(uint256 _id) public onlyOwner existProposal(_id) {\n        proposals[_id].status = ProposalStatus.Closed;\n    }\n\n    function proposalsCount() public view returns (uint256) {\n        return proposals.length;\n    }\n\n    function lowBalance(address _phoneHash, string memory ref) public {\n        emit LowBalanceReceived(_phoneHash, ref);\n\n        uint8 scoring;\n        EligibilityReason eligibilityReason;\n        (scoring, eligibilityReason) = eligibility(_phoneHash);\n\n        //Register Offer\n        Offer memory offerData;\n        offerData.phoneHash = _phoneHash;\n        offerData.timestamp = block.timestamp;\n        offerData.reason = eligibilityReason;\n        offerData.status = OfferStatus.New;\n        offerData.proposals = getOfferProposals(scoring);\n        offerData.ref = ref;\n        offers.push(offerData);\n\n        emit OfferSent(\n            (offers.length - 1),\n            offerData.phoneHash,\n            offerData.timestamp,\n            offerData.reason,\n            offerData.proposals,\n            scoring\n        );\n    }\n\n    function acceptance(\n        address _phoneHash,\n        uint256 _offerId,\n        uint256 _proposalId\n    ) public {\n        emit AcceptanceReceived(_phoneHash, _offerId, _proposalId);\n        offers[_offerId].status = OfferStatus.Accepted;\n\n        Product memory productData;\n        productData.offerId = _offerId;\n        productData.proposalId = _proposalId;\n        productData.phoneHash = _phoneHash;\n        productData.timestamp = block.timestamp;\n        productData.status = ProductStatus.Active;\n        products.push(productData);\n\n        emit ConfirmationSent(\n            (products.length - 1),\n            productData.offerId,\n            productData.phoneHash,\n            productData.timestamp\n        );\n    }\n\n    function topUp(\n        address _phoneHash,\n        uint256 _productId,\n        uint256 _amount\n    ) public {\n        emit TopUpReceived(_phoneHash, _productId, _amount);\n\n        products[_productId].status = ProductStatus.Closed;\n        //TODO: Manage check topUpAmount\n        products[_productId].topUpAmount = _amount;\n\n        emit AcknowledgeSent(_phoneHash, _productId, _amount);\n    }\n\n    function eligibility(address _phoneHash)\n        public\n        pure\n        returns (uint8, EligibilityReason)\n    {\n        //TODO: Manage eligibility (scoring)\n        if (_phoneHash == 0x718CEA3706787aa03Bd936b76303fA00660C5f42) {\n            return (3, EligibilityReason.None);\n        } else if (_phoneHash == 0x3ad53d26D15A658A84Fe8cA9FFc8aA3a7240C1a0) {\n            return (6, EligibilityReason.None);\n        } else {\n            return (0, EligibilityReason.DoubleSpent);\n        }\n    }\n\n    function getOfferProposals(uint8 _scoring)\n        public\n        view\n        returns (uint256[] memory)\n    {\n        uint256[] memory offerProposals = new uint256[](3);\n        uint256 offerProposalsIndex = 0;\n\n        if (_scoring == 0) {\n            return offerProposals;\n        }\n        for (\n            uint256 i = 1;\n            (i < proposals.length && offerProposalsIndex < 3);\n            i++\n        ) {\n            if (proposals[i].status == ProposalStatus.Active && _scoring >= proposals[i].minScoring) {\n                offerProposals[offerProposalsIndex] = i;\n                offerProposalsIndex++;\n            }\n        }\n        return offerProposals;\n    }\n\n    function getUniqueId() public returns (address) {\n        nonce++;\n        return\n            address(\n                bytes20(\n                    keccak256(\n                        abi.encodePacked(block.timestamp, msg.sender, nonce)\n                    )\n                )\n            );\n    }\n}\n",
  "sourcePath": "/home/keymon/work/projet-pro/dApp/timelapse/contracts/Offering.sol",
  "compiler": {
    "name": "solc",
    "version": "0.8.6+commit.11564f7e.Emscripten.clang"
  },
  "schemaVersion": "3.4.1",
  "updatedAt": "2021-07-09T15:19:08.802Z",
  "networkType": "ethereum",
  "devdoc": {
    "kind": "dev",
    "methods": {
      "owner()": {
        "details": "Returns the address of the current owner."
      },
      "renounceOwnership()": {
        "details": "Leaves the contract without owner. It will not be possible to call `onlyOwner` functions anymore. Can only be called by the current owner. NOTE: Renouncing ownership will leave the contract without an owner, thereby removing any functionality that is only available to the owner."
      },
      "transferOwnership(address)": {
        "details": "Transfers ownership of the contract to a new account (`newOwner`). Can only be called by the current owner."
      }
    },
    "version": 1
  },
  "userdoc": {
    "kind": "user",
    "methods": {},
    "version": 1
  }
}