{
  "contractName": "Offering",
  "abi": [
    {
      "inputs": [],
      "stateMutability": "nonpayable",
      "type": "constructor"
    },
    {
      "anonymous": false,
      "inputs": [
        {
          "indexed": false,
          "internalType": "address",
          "name": "phoneHash",
          "type": "address"
        },
        {
          "indexed": false,
          "internalType": "uint256",
          "name": "offerId",
          "type": "uint256"
        },
        {
          "indexed": false,
          "internalType": "uint256",
          "name": "proposalId",
          "type": "uint256"
        }
      ],
      "name": "AcceptanceReceived",
      "type": "event"
    },
    {
      "anonymous": false,
      "inputs": [
        {
          "indexed": false,
          "internalType": "uint256",
          "name": "id",
          "type": "uint256"
        },
        {
          "indexed": false,
          "internalType": "address",
          "name": "phoneHash",
          "type": "address"
        },
        {
          "indexed": false,
          "internalType": "uint256",
          "name": "productId",
          "type": "uint256"
        },
        {
          "indexed": false,
          "internalType": "uint256",
          "name": "amount",
          "type": "uint256"
        }
      ],
      "name": "AcknowledgeSent",
      "type": "event"
    },
    {
      "anonymous": false,
      "inputs": [
        {
          "indexed": false,
          "internalType": "uint256",
          "name": "id",
          "type": "uint256"
        },
        {
          "indexed": false,
          "internalType": "uint256",
          "name": "offerId",
          "type": "uint256"
        },
        {
          "indexed": false,
          "internalType": "address",
          "name": "phoneHash",
          "type": "address"
        },
        {
          "indexed": false,
          "internalType": "uint256",
          "name": "timestamp",
          "type": "uint256"
        }
      ],
      "name": "ConfirmationSent",
      "type": "event"
    },
    {
      "anonymous": false,
      "inputs": [
        {
          "indexed": false,
          "internalType": "address",
          "name": "phoneHash",
          "type": "address"
        }
      ],
      "name": "LowBalanceReceived",
      "type": "event"
    },
    {
      "anonymous": false,
      "inputs": [
        {
          "indexed": false,
          "internalType": "uint256",
          "name": "id",
          "type": "uint256"
        },
        {
          "indexed": false,
          "internalType": "address",
          "name": "phoneHash",
          "type": "address"
        },
        {
          "indexed": false,
          "internalType": "uint256",
          "name": "timestamp",
          "type": "uint256"
        },
        {
          "indexed": false,
          "internalType": "enum Offering.EligibilityReason",
          "name": "reason",
          "type": "uint8"
        },
        {
          "indexed": false,
          "internalType": "uint256[]",
          "name": "proposals",
          "type": "uint256[]"
        },
        {
          "indexed": false,
          "internalType": "uint256",
          "name": "scoring",
          "type": "uint256"
        }
      ],
      "name": "OfferSent",
      "type": "event"
    },
    {
      "anonymous": false,
      "inputs": [
        {
          "indexed": true,
          "internalType": "address",
          "name": "previousOwner",
          "type": "address"
        },
        {
          "indexed": true,
          "internalType": "address",
          "name": "newOwner",
          "type": "address"
        }
      ],
      "name": "OwnershipTransferred",
      "type": "event"
    },
    {
      "anonymous": false,
      "inputs": [
        {
          "indexed": false,
          "internalType": "uint256",
          "name": "id",
          "type": "uint256"
        },
        {
          "indexed": false,
          "internalType": "uint8",
          "name": "minScoring",
          "type": "uint8"
        },
        {
          "indexed": false,
          "internalType": "string",
          "name": "description",
          "type": "string"
        }
      ],
      "name": "ProposalAdded",
      "type": "event"
    },
    {
      "anonymous": false,
      "inputs": [
        {
          "indexed": false,
          "internalType": "uint256",
          "name": "id",
          "type": "uint256"
        },
        {
          "indexed": false,
          "internalType": "address",
          "name": "phoneHash",
          "type": "address"
        },
        {
          "indexed": false,
          "internalType": "uint256",
          "name": "productId",
          "type": "uint256"
        },
        {
          "indexed": false,
          "internalType": "uint256",
          "name": "amount",
          "type": "uint256"
        }
      ],
      "name": "TopUpReceived",
      "type": "event"
    },
    {
      "inputs": [
        {
          "internalType": "uint256",
          "name": "",
          "type": "uint256"
        }
      ],
      "name": "offers",
      "outputs": [
        {
          "internalType": "address",
          "name": "phoneHash",
          "type": "address"
        },
        {
          "internalType": "uint256",
          "name": "timestamp",
          "type": "uint256"
        },
        {
          "internalType": "enum Offering.EligibilityReason",
          "name": "reason",
          "type": "uint8"
        },
        {
          "internalType": "enum Offering.OfferStatus",
          "name": "status",
          "type": "uint8"
        }
      ],
      "stateMutability": "view",
      "type": "function",
      "constant": true
    },
    {
      "inputs": [],
      "name": "owner",
      "outputs": [
        {
          "internalType": "address",
          "name": "",
          "type": "address"
        }
      ],
      "stateMutability": "view",
      "type": "function",
      "constant": true
    },
    {
      "inputs": [
        {
          "internalType": "uint256",
          "name": "",
          "type": "uint256"
        }
      ],
      "name": "products",
      "outputs": [
        {
          "internalType": "address",
          "name": "phoneHash",
          "type": "address"
        },
        {
          "internalType": "uint256",
          "name": "timestamp",
          "type": "uint256"
        },
        {
          "internalType": "uint256",
          "name": "offerId",
          "type": "uint256"
        },
        {
          "internalType": "uint256",
          "name": "proposalId",
          "type": "uint256"
        },
        {
          "internalType": "uint256",
          "name": "topUpAmount",
          "type": "uint256"
        },
        {
          "internalType": "enum Offering.ProductStatus",
          "name": "status",
          "type": "uint8"
        }
      ],
      "stateMutability": "view",
      "type": "function",
      "constant": true
    },
    {
      "inputs": [
        {
          "internalType": "uint256",
          "name": "",
          "type": "uint256"
        }
      ],
      "name": "proposals",
      "outputs": [
        {
          "internalType": "uint8",
          "name": "minScoring",
          "type": "uint8"
        },
        {
          "internalType": "string",
          "name": "description",
          "type": "string"
        },
        {
          "internalType": "enum Offering.ProposalStatus",
          "name": "status",
          "type": "uint8"
        }
      ],
      "stateMutability": "view",
      "type": "function",
      "constant": true
    },
    {
      "inputs": [],
      "name": "renounceOwnership",
      "outputs": [],
      "stateMutability": "nonpayable",
      "type": "function"
    },
    {
      "inputs": [
        {
          "internalType": "address",
          "name": "newOwner",
          "type": "address"
        }
      ],
      "name": "transferOwnership",
      "outputs": [],
      "stateMutability": "nonpayable",
      "type": "function"
    },
    {
      "inputs": [
        {
          "internalType": "uint8",
          "name": "_minScoring",
          "type": "uint8"
        },
        {
          "internalType": "string",
          "name": "_description",
          "type": "string"
        }
      ],
      "name": "addProposal",
      "outputs": [],
      "stateMutability": "nonpayable",
      "type": "function"
    },
    {
      "inputs": [],
      "name": "proposalsCount",
      "outputs": [
        {
          "internalType": "uint256",
          "name": "",
          "type": "uint256"
        }
      ],
      "stateMutability": "view",
      "type": "function",
      "constant": true
    },
    {
      "inputs": [
        {
          "internalType": "address",
          "name": "_phoneHash",
          "type": "address"
        }
      ],
      "name": "lowBalance",
      "outputs": [],
      "stateMutability": "nonpayable",
      "type": "function"
    },
    {
      "inputs": [
        {
          "internalType": "address",
          "name": "_phoneHash",
          "type": "address"
        },
        {
          "internalType": "uint256",
          "name": "_offerId",
          "type": "uint256"
        },
        {
          "internalType": "uint256",
          "name": "_proposalId",
          "type": "uint256"
        }
      ],
      "name": "acceptance",
      "outputs": [],
      "stateMutability": "nonpayable",
      "type": "function"
    },
    {
      "inputs": [
        {
          "internalType": "uint256",
          "name": "_id",
          "type": "uint256"
        },
        {
          "internalType": "address",
          "name": "_phoneHash",
          "type": "address"
        },
        {
          "internalType": "uint256",
          "name": "_productId",
          "type": "uint256"
        },
        {
          "internalType": "uint256",
          "name": "_amount",
          "type": "uint256"
        }
      ],
      "name": "topUp",
      "outputs": [],
      "stateMutability": "nonpayable",
      "type": "function"
    },
    {
      "inputs": [
        {
          "internalType": "address",
          "name": "_phoneHash",
          "type": "address"
        }
      ],
      "name": "eligibility",
      "outputs": [
        {
          "internalType": "uint8",
          "name": "",
          "type": "uint8"
        },
        {
          "internalType": "enum Offering.EligibilityReason",
          "name": "",
          "type": "uint8"
        }
      ],
      "stateMutability": "pure",
      "type": "function",
      "constant": true
    },
    {
      "inputs": [
        {
          "internalType": "uint8",
          "name": "_scoring",
          "type": "uint8"
        }
      ],
      "name": "getOfferProposals",
      "outputs": [
        {
          "internalType": "uint256[]",
          "name": "",
          "type": "uint256[]"
        }
      ],
      "stateMutability": "view",
      "type": "function",
      "constant": true
    },
    {
      "inputs": [],
      "name": "getUniqueId",
      "outputs": [
        {
          "internalType": "address",
          "name": "",
          "type": "address"
        }
      ],
      "stateMutability": "nonpayable",
      "type": "function"
    }
  ],
  "bytecode": "0x6080604052600060015534801561001557600080fd5b5061003261002761003760201b60201c565b61003f60201b60201c565b610103565b600033905090565b60008060009054906101000a900473ffffffffffffffffffffffffffffffffffffffff169050816000806101000a81548173ffffffffffffffffffffffffffffffffffffffff021916908373ffffffffffffffffffffffffffffffffffffffff1602179055508173ffffffffffffffffffffffffffffffffffffffff168173ffffffffffffffffffffffffffffffffffffffff167f8be0079c531659141344cd1fd0a4f28419497f9722a3daafe3b4186f6b6457e060405160405180910390a35050565b611f2c806101126000396000f3fe608060405234801561001057600080fd5b50600436106100ea5760003560e01c80638a72ea6a1161008c578063ab63d7f211610066578063ab63d7f214610268578063ba6eed1514610286578063c0f2308e146102a2578063f2fde38b146102be576100ea565b80638a72ea6a146101fb5780638a7b0a651461022e5780638da5cb5b1461024a576100ea565b806351cb4f38116100c857806351cb4f381461016f57806363c36dec1461018b578063715018a6146101bc5780637acc0b20146101c6576100ea565b8063013cf08b146100ef5780630a9f46ad1461012157806346747b381461013f575b600080fd5b610109600480360381019061010491906113d2565b6102da565b604051610118939291906119a4565b60405180910390f35b6101296103b6565b6040516101369190611830565b60405180910390f35b61015960048036038101906101549190611466565b6103c3565b60405161016691906117ce565b60405180910390f35b61018960048036038101906101849190611493565b6104d7565b005b6101a560048036038101906101a09190611352565b61069c565b6040516101b392919061197b565b60405180910390f35b6101c4610757565b005b6101e060048036038101906101db91906113d2565b6107df565b6040516101f29695949392919061176d565b60405180910390f35b610215600480360381019061021091906113d2565b610858565b60405161022594939291906116f1565b60405180910390f35b61024860048036038101906102439190611352565b6108d2565b005b610252610b3d565b60405161025f91906116d6565b60405180910390f35b610270610b66565b60405161027d91906116d6565b60405180910390f35b6102a0600480360381019061029b91906113ff565b610bb5565b005b6102bc60048036038101906102b7919061137f565b610cad565b005b6102d860048036038101906102d39190611352565b610ef2565b005b600381815481106102ea57600080fd5b90600052602060002090600302016000915090508060000160009054906101000a900460ff169080600101805461032090611bf2565b80601f016020809104026020016040519081016040528092919081815260200182805461034c90611bf2565b80156103995780601f1061036e57610100808354040283529160200191610399565b820191906000526020600020905b81548152906001019060200180831161037c57829003601f168201915b5050505050908060020160009054906101000a900460ff16905083565b6000600380549050905090565b60606000600367ffffffffffffffff8111156103e2576103e1611d88565b5b6040519080825280602002602001820160405280156104105781602001602082028036833780820191505090505b5090506000808460ff16141561042a5781925050506104d2565b6000600190505b600380549050811080156104455750600382105b156104cb576003818154811061045e5761045d611d59565b5b906000526020600020906003020160000160009054906101000a900460ff1660ff168560ff16106104b8578083838151811061049d5761049c611d59565b5b60200260200101818152505081806104b490611c55565b9250505b80806104c390611c55565b915050610431565b5081925050505b919050565b6104df610fea565b73ffffffffffffffffffffffffffffffffffffffff166104fd610b3d565b73ffffffffffffffffffffffffffffffffffffffff1614610553576040517f08c379a000000000000000000000000000000000000000000000000000000000815260040161054a90611810565b60405180910390fd5b61055b6110b6565b82816000019060ff16908160ff168152505081816020018190525060008160400190600181111561058f5761058e611cfb565b5b908160018111156105a3576105a2611cfb565b5b81525050600381908060018154018082558091505060019003906000526020600020906003020160009091909190915060008201518160000160006101000a81548160ff021916908360ff16021790555060208201518160010190805190602001906106109291906110ec565b5060408201518160020160006101000a81548160ff0219169083600181111561063c5761063b611cfb565b5b021790555050507f7dafcff367e2f0fc8eb8907031ee372657d5e0eac27f3b48c6daee39b689d66c60016003805490506106769190611a8d565b8260000151836020015160405161068f9392919061193d565b60405180910390a1505050565b60008073718cea3706787aa03bd936b76303fa00660c5f4273ffffffffffffffffffffffffffffffffffffffff168373ffffffffffffffffffffffffffffffffffffffff1614156106f4576003600091509150610752565b733ad53d26d15a658a84fe8ca9ffc8aa3a7240c1a073ffffffffffffffffffffffffffffffffffffffff168373ffffffffffffffffffffffffffffffffffffffff161415610749576006600091509150610752565b60006003915091505b915091565b61075f610fea565b73ffffffffffffffffffffffffffffffffffffffff1661077d610b3d565b73ffffffffffffffffffffffffffffffffffffffff16146107d3576040517f08c379a00000000000000000000000000000000000000000000000000000000081526004016107ca90611810565b60405180910390fd5b6107dd6000610ff2565b565b600481815481106107ef57600080fd5b90600052602060002090600602016000915090508060000160009054906101000a900473ffffffffffffffffffffffffffffffffffffffff16908060010154908060020154908060030154908060040154908060050160009054906101000a900460ff16905086565b6002818154811061086857600080fd5b90600052602060002090600502016000915090508060000160009054906101000a900473ffffffffffffffffffffffffffffffffffffffff16908060010154908060020160009054906101000a900460ff16908060040160009054906101000a900460ff16905084565b7fc26beeb5be64efb35a3fe875520918f55a38ecdf612af5756e2622cc97a67c868160405161090191906116d6565b60405180910390a16000806109158361069c565b8092508193505050610925611172565b83816000019073ffffffffffffffffffffffffffffffffffffffff16908173ffffffffffffffffffffffffffffffffffffffff168152505042816020018181525050818160400190600481111561097f5761097e611cfb565b5b9081600481111561099357610992611cfb565b5b815250506000816080019060018111156109b0576109af611cfb565b5b908160018111156109c4576109c3611cfb565b5b815250506109d1836103c3565b8160600181905250600281908060018154018082558091505060019003906000526020600020906005020160009091909190915060008201518160000160006101000a81548173ffffffffffffffffffffffffffffffffffffffff021916908373ffffffffffffffffffffffffffffffffffffffff1602179055506020820151816001015560408201518160020160006101000a81548160ff02191690836004811115610a8157610a80611cfb565b5b02179055506060820151816003019080519060200190610aa29291906111db565b5060808201518160040160006101000a81548160ff02191690836001811115610ace57610acd611cfb565b5b021790555050507ff1f4d55683836333e3170292366c1631d1ba0e1b9027684cb8c6487840a4c7626001600280549050610b089190611a8d565b826000015183602001518460400151856060015188604051610b2f9695949392919061184b565b60405180910390a150505050565b60008060009054906101000a900473ffffffffffffffffffffffffffffffffffffffff16905090565b600060016000815480929190610b7b90611c55565b91905055504233600154604051602001610b9793929190611699565b6040516020818303038152906040528051906020012060601c905090565b7f091c561f61dcd61b642b33f4579bb661a5b5f174b39822c4b7361ce13f71e18884848484604051610bea94939291906118b3565b60405180910390a1600160048381548110610c0857610c07611d59565b5b906000526020600020906006020160050160006101000a81548160ff02191690836001811115610c3b57610c3a611cfb565b5b02179055508060048381548110610c5557610c54611d59565b5b9060005260206000209060060201600401819055507f3475ec82613dd171c3d7dfc3fb55b8678eca1d733a629d681bbbb144657e2d8284848484604051610c9f94939291906118b3565b60405180910390a150505050565b7ffd633a42d4f218d97cbfecb6472186609432d2d07e3a7eb52d0da4e6c1be5172838383604051610ce093929190611736565b60405180910390a1600160028381548110610cfe57610cfd611d59565b5b906000526020600020906005020160040160006101000a81548160ff02191690836001811115610d3157610d30611cfb565b5b0217905550610d3e611228565b828160400181815250508181606001818152505083816000019073ffffffffffffffffffffffffffffffffffffffff16908173ffffffffffffffffffffffffffffffffffffffff16815250504281602001818152505060008160a001906001811115610dad57610dac611cfb565b5b90816001811115610dc157610dc0611cfb565b5b81525050600481908060018154018082558091505060019003906000526020600020906006020160009091909190915060008201518160000160006101000a81548173ffffffffffffffffffffffffffffffffffffffff021916908373ffffffffffffffffffffffffffffffffffffffff1602179055506020820151816001015560408201518160020155606082015181600301556080820151816004015560a08201518160050160006101000a81548160ff02191690836001811115610e8b57610e8a611cfb565b5b021790555050507f91551a88382be7835ce01fbf21484723623079542a670d5ab836ef55c6b608856001600480549050610ec59190611a8d565b826040015183600001518460200151604051610ee494939291906118f8565b60405180910390a150505050565b610efa610fea565b73ffffffffffffffffffffffffffffffffffffffff16610f18610b3d565b73ffffffffffffffffffffffffffffffffffffffff1614610f6e576040517f08c379a0000000000000000000000000000000000000000000000000000000008152600401610f6590611810565b60405180910390fd5b600073ffffffffffffffffffffffffffffffffffffffff168173ffffffffffffffffffffffffffffffffffffffff161415610fde576040517f08c379a0000000000000000000000000000000000000000000000000000000008152600401610fd5906117f0565b60405180910390fd5b610fe781610ff2565b50565b600033905090565b60008060009054906101000a900473ffffffffffffffffffffffffffffffffffffffff169050816000806101000a81548173ffffffffffffffffffffffffffffffffffffffff021916908373ffffffffffffffffffffffffffffffffffffffff1602179055508173ffffffffffffffffffffffffffffffffffffffff168173ffffffffffffffffffffffffffffffffffffffff167f8be0079c531659141344cd1fd0a4f28419497f9722a3daafe3b4186f6b6457e060405160405180910390a35050565b6040518060600160405280600060ff16815260200160608152602001600060018111156110e6576110e5611cfb565b5b81525090565b8280546110f890611bf2565b90600052602060002090601f01602090048101928261111a5760008555611161565b82601f1061113357805160ff1916838001178555611161565b82800160010185558215611161579182015b82811115611160578251825591602001919060010190611145565b5b50905061116e9190611286565b5090565b6040518060a00160405280600073ffffffffffffffffffffffffffffffffffffffff16815260200160008152602001600060048111156111b5576111b4611cfb565b5b815260200160608152602001600060018111156111d5576111d4611cfb565b5b81525090565b828054828255906000526020600020908101928215611217579160200282015b828111156112165782518255916020019190600101906111fb565b5b5090506112249190611286565b5090565b6040518060c00160405280600073ffffffffffffffffffffffffffffffffffffffff16815260200160008152602001600081526020016000815260200160008152602001600060018111156112805761127f611cfb565b5b81525090565b5b8082111561129f576000816000905550600101611287565b5090565b60006112b66112b184611a07565b6119e2565b9050828152602081018484840111156112d2576112d1611dbc565b5b6112dd848285611bb0565b509392505050565b6000813590506112f481611eb1565b92915050565b600082601f83011261130f5761130e611db7565b5b813561131f8482602086016112a3565b91505092915050565b60008135905061133781611ec8565b92915050565b60008135905061134c81611edf565b92915050565b60006020828403121561136857611367611dc6565b5b6000611376848285016112e5565b91505092915050565b60008060006060848603121561139857611397611dc6565b5b60006113a6868287016112e5565b93505060206113b786828701611328565b92505060406113c886828701611328565b9150509250925092565b6000602082840312156113e8576113e7611dc6565b5b60006113f684828501611328565b91505092915050565b6000806000806080858703121561141957611418611dc6565b5b600061142787828801611328565b9450506020611438878288016112e5565b935050604061144987828801611328565b925050606061145a87828801611328565b91505092959194509250565b60006020828403121561147c5761147b611dc6565b5b600061148a8482850161133d565b91505092915050565b600080604083850312156114aa576114a9611dc6565b5b60006114b88582860161133d565b925050602083013567ffffffffffffffff8111156114d9576114d8611dc1565b5b6114e5858286016112fa565b9150509250929050565b60006114fb8383611646565b60208301905092915050565b61151081611ac1565b82525050565b61152761152282611ac1565b611c9e565b82525050565b600061153882611a48565b6115428185611a6b565b935061154d83611a38565b8060005b8381101561157e57815161156588826114ef565b975061157083611a5e565b925050600181019050611551565b5085935050505092915050565b61159481611b56565b82525050565b6115a381611b68565b82525050565b6115b281611b7a565b82525050565b6115c181611b8c565b82525050565b60006115d282611a53565b6115dc8185611a7c565b93506115ec818560208601611bbf565b6115f581611dcb565b840191505092915050565b600061160d602683611a7c565b915061161882611de9565b604082019050919050565b6000611630602083611a7c565b915061163b82611e38565b602082019050919050565b61164f81611b3f565b82525050565b61165e81611b3f565b82525050565b61167561167082611b3f565b611cc2565b82525050565b61168481611b9e565b82525050565b61169381611b49565b82525050565b60006116a58286611664565b6020820191506116b58285611516565b6014820191506116c58284611664565b602082019150819050949350505050565b60006020820190506116eb6000830184611507565b92915050565b60006080820190506117066000830187611507565b6117136020830186611655565b611720604083018561158b565b61172d606083018461159a565b95945050505050565b600060608201905061174b6000830186611507565b6117586020830185611655565b6117656040830184611655565b949350505050565b600060c0820190506117826000830189611507565b61178f6020830188611655565b61179c6040830187611655565b6117a96060830186611655565b6117b66080830185611655565b6117c360a08301846115a9565b979650505050505050565b600060208201905081810360008301526117e8818461152d565b905092915050565b6000602082019050818103600083015261180981611600565b9050919050565b6000602082019050818103600083015261182981611623565b9050919050565b60006020820190506118456000830184611655565b92915050565b600060c0820190506118606000830189611655565b61186d6020830188611507565b61187a6040830187611655565b611887606083018661158b565b8181036080830152611899818561152d565b90506118a860a083018461167b565b979650505050505050565b60006080820190506118c86000830187611655565b6118d56020830186611507565b6118e26040830185611655565b6118ef6060830184611655565b95945050505050565b600060808201905061190d6000830187611655565b61191a6020830186611655565b6119276040830185611507565b6119346060830184611655565b95945050505050565b60006060820190506119526000830186611655565b61195f602083018561168a565b818103604083015261197181846115c7565b9050949350505050565b6000604082019050611990600083018561168a565b61199d602083018461158b565b9392505050565b60006060820190506119b9600083018661168a565b81810360208301526119cb81856115c7565b90506119da60408301846115b8565b949350505050565b60006119ec6119fd565b90506119f88282611c24565b919050565b6000604051905090565b600067ffffffffffffffff821115611a2257611a21611d88565b5b611a2b82611dcb565b9050602081019050919050565b6000819050602082019050919050565b600081519050919050565b600081519050919050565b6000602082019050919050565b600082825260208201905092915050565b600082825260208201905092915050565b6000611a9882611b3f565b9150611aa383611b3f565b925082821015611ab657611ab5611ccc565b5b828203905092915050565b6000611acc82611b1f565b9050919050565b6000819050611ae182611e61565b919050565b6000819050611af482611e75565b919050565b6000819050611b0782611e89565b919050565b6000819050611b1a82611e9d565b919050565b600073ffffffffffffffffffffffffffffffffffffffff82169050919050565b6000819050919050565b600060ff82169050919050565b6000611b6182611ad3565b9050919050565b6000611b7382611ae6565b9050919050565b6000611b8582611af9565b9050919050565b6000611b9782611b0c565b9050919050565b6000611ba982611b49565b9050919050565b82818337600083830152505050565b60005b83811015611bdd578082015181840152602081019050611bc2565b83811115611bec576000848401525b50505050565b60006002820490506001821680611c0a57607f821691505b60208210811415611c1e57611c1d611d2a565b5b50919050565b611c2d82611dcb565b810181811067ffffffffffffffff82111715611c4c57611c4b611d88565b5b80604052505050565b6000611c6082611b3f565b91507fffffffffffffffffffffffffffffffffffffffffffffffffffffffffffffffff821415611c9357611c92611ccc565b5b600182019050919050565b6000611ca982611cb0565b9050919050565b6000611cbb82611ddc565b9050919050565b6000819050919050565b7f4e487b7100000000000000000000000000000000000000000000000000000000600052601160045260246000fd5b7f4e487b7100000000000000000000000000000000000000000000000000000000600052602160045260246000fd5b7f4e487b7100000000000000000000000000000000000000000000000000000000600052602260045260246000fd5b7f4e487b7100000000000000000000000000000000000000000000000000000000600052603260045260246000fd5b7f4e487b7100000000000000000000000000000000000000000000000000000000600052604160045260246000fd5b600080fd5b600080fd5b600080fd5b600080fd5b6000601f19601f8301169050919050565b60008160601b9050919050565b7f4f776e61626c653a206e6577206f776e657220697320746865207a65726f206160008201527f6464726573730000000000000000000000000000000000000000000000000000602082015250565b7f4f776e61626c653a2063616c6c6572206973206e6f7420746865206f776e6572600082015250565b60058110611e7257611e71611cfb565b5b50565b60028110611e8657611e85611cfb565b5b50565b60028110611e9a57611e99611cfb565b5b50565b60028110611eae57611ead611cfb565b5b50565b611eba81611ac1565b8114611ec557600080fd5b50565b611ed181611b3f565b8114611edc57600080fd5b50565b611ee881611b49565b8114611ef357600080fd5b5056fea2646970667358221220d0b5e07e28e34199a76b8bbe5462e9dc1fd52eff5321083a9d891150fcf6f20964736f6c63430008060033",
  "immutableReferences": {},
  "source": "// SPDX-License-Identifier: MIT\npragma solidity ^0.8.6;\n\nimport \"@openzeppelin/contracts/access/Ownable.sol\";\n\ncontract Offering is Ownable {\n    uint256 private nonce = 0;\n\n    enum OfferStatus {\n        New,\n        Accepted\n    }\n\n    enum ProductStatus {\n        Active,\n        Closed\n    }\n\n    enum ProposalStatus {\n        Active,\n        Closed\n    }\n\n    enum EligibilityReason {\n        None,\n        UnknowUser,\n        LowUser,\n        DoubleSpent,\n        Other\n    }\n\n    struct Offer {\n        address phoneHash;\n        uint256 timestamp;\n        EligibilityReason reason;\n        uint256[] proposals;\n        OfferStatus status;\n    }\n\n    struct Product {\n        address phoneHash;\n        uint256 timestamp;\n        uint256 offerId;\n        uint256 proposalId;\n        uint256 topUpAmount;\n        ProductStatus status;\n    }\n\n    struct Proposal {\n        uint8 minScoring;\n        string description;\n        ProposalStatus status;\n    }\n\n    Offer[] public offers;\n    Proposal[] public proposals;\n    Product[] public products;\n\n    event ProposalAdded(uint256 id, uint8 minScoring, string description);\n    event LowBalanceReceived(address phoneHash);\n\n    event OfferSent(\n        uint256 id,\n        address phoneHash,\n        uint256 timestamp,\n        EligibilityReason reason,\n        uint256[] proposals,\n        uint256 scoring\n    );\n    event AcceptanceReceived(\n        address phoneHash,\n        uint256 offerId,\n        uint256 proposalId\n    );\n    event ConfirmationSent(\n        uint256 id,\n        uint256 offerId,\n        address phoneHash,\n        uint256 timestamp\n    );\n    event TopUpReceived(\n        uint256 id,\n        address phoneHash,\n        uint256 productId,\n        uint256 amount\n    );\n    event AcknowledgeSent(\n        uint256 id,\n        address phoneHash,\n        uint256 productId,\n        uint256 amount\n    );\n\n    constructor() {}\n\n    function addProposal(\n        uint8 _minScoring,\n        string memory _description\n    ) public onlyOwner {\n        Proposal memory proposalData;\n\n        proposalData.minScoring = _minScoring;\n        proposalData.description = _description;\n        proposalData.status = ProposalStatus.Active;\n        proposals.push(proposalData);\n\n        emit ProposalAdded(\n            (proposals.length - 1),\n            proposalData.minScoring,\n            proposalData.description\n        );\n    }\n\n    function proposalsCount() public view returns (uint256) {\n        return proposals.length;\n    }\n\n    function lowBalance(address _phoneHash) public {\n        emit LowBalanceReceived(_phoneHash);\n\n        uint8 scoring;\n        EligibilityReason eligibilityReason;\n        (scoring, eligibilityReason) = eligibility(_phoneHash);\n\n        //Register Offer\n        Offer memory offerData;\n        offerData.phoneHash = _phoneHash;\n        offerData.timestamp = block.timestamp;\n        offerData.reason = eligibilityReason;\n        offerData.status = OfferStatus.New;\n        offerData.proposals = getOfferProposals(scoring);\n        offers.push(offerData);\n\n        emit OfferSent(\n            (offers.length - 1),\n            offerData.phoneHash,\n            offerData.timestamp,\n            offerData.reason,\n            offerData.proposals,\n            scoring\n        );\n    }\n\n    function acceptance(\n        address _phoneHash,\n        uint256 _offerId,\n        uint256 _proposalId\n    ) public {\n        emit AcceptanceReceived(_phoneHash, _offerId, _proposalId);\n        offers[_offerId].status = OfferStatus.Accepted;\n\n        Product memory productData;\n        productData.offerId = _offerId;\n        productData.proposalId = _proposalId;\n        productData.phoneHash = _phoneHash;\n        productData.timestamp = block.timestamp;\n        productData.status = ProductStatus.Active;\n        products.push(productData);\n\n        emit ConfirmationSent(\n            (products.length - 1),\n            productData.offerId,\n            productData.phoneHash,\n            productData.timestamp\n        );\n    }\n\n    function topUp(\n        uint256 _id,\n        address _phoneHash,\n        uint256 _productId,\n        uint256 _amount\n    ) public {\n        emit TopUpReceived(_id, _phoneHash, _productId, _amount);\n\n        products[_productId].status = ProductStatus.Closed;\n        //TODO: Manage check topUpAmount\n        products[_productId].topUpAmount = _amount;\n\n        emit AcknowledgeSent(_id, _phoneHash, _productId, _amount);\n    }\n\n    function eligibility(address _phoneHash)\n        public\n        pure\n        returns (uint8, EligibilityReason)\n    {\n        //TODO: Manage eligibility (scoring)\n        if (_phoneHash == 0x718CEA3706787aa03Bd936b76303fA00660C5f42) {\n            return (3, EligibilityReason.None);\n        } else if (_phoneHash == 0x3ad53d26D15A658A84Fe8cA9FFc8aA3a7240C1a0) {\n            return (6, EligibilityReason.None);\n        } else {\n            return (0, EligibilityReason.DoubleSpent);\n        }\n    }\n\n    function getOfferProposals(uint8 _scoring)\n        public\n        view\n        returns (uint256[] memory)\n    {\n        uint256[] memory offerProposals = new uint256[](3);\n        uint256 offerProposalsIndex = 0;\n\n        if (_scoring == 0) {\n            return offerProposals;\n        }\n        for (\n            uint256 i = 1;\n            (i < proposals.length && offerProposalsIndex < 3);\n            i++\n        ) {\n            if (_scoring >= proposals[i].minScoring) {\n                offerProposals[offerProposalsIndex] = i;\n                offerProposalsIndex++;\n            }\n        }\n        return offerProposals;\n    }\n\n    function getUniqueId() public returns (address) {\n        nonce++;\n        return\n            address(\n                bytes20(\n                    keccak256(\n                        abi.encodePacked(block.timestamp, msg.sender, nonce)\n                    )\n                )\n            );\n    }\n}\n",
  "sourcePath": "/home/keymon/work/projet-pro/dApp/timelapse/contracts/Offering.sol",
  "compiler": {
    "name": "solc",
    "version": "0.8.6+commit.11564f7e.Emscripten.clang"
  },
  "schemaVersion": "3.4.1",
  "updatedAt": "2021-07-08T18:52:39.836Z",
  "networkType": "ethereum",
  "devdoc": {
    "kind": "dev",
    "methods": {
      "owner()": {
        "details": "Returns the address of the current owner."
      },
      "renounceOwnership()": {
        "details": "Leaves the contract without owner. It will not be possible to call `onlyOwner` functions anymore. Can only be called by the current owner. NOTE: Renouncing ownership will leave the contract without an owner, thereby removing any functionality that is only available to the owner."
      },
      "transferOwnership(address)": {
        "details": "Transfers ownership of the contract to a new account (`newOwner`). Can only be called by the current owner."
      }
    },
    "version": 1
  },
  "userdoc": {
    "kind": "user",
    "methods": {},
    "version": 1
  }
}