{
  "contractName": "Scoring",
  "abi": [
    {
      "inputs": [],
      "stateMutability": "nonpayable",
      "type": "constructor"
    },
    {
      "inputs": [
        {
          "internalType": "uint256",
          "name": "_previousScore",
          "type": "uint256"
        },
        {
          "internalType": "uint256",
          "name": "_acceptanceTimestamp",
          "type": "uint256"
        },
        {
          "internalType": "uint256",
          "name": "_paidTimestamp",
          "type": "uint256"
        }
      ],
      "name": "process",
      "outputs": [
        {
          "internalType": "uint256",
          "name": "",
          "type": "uint256"
        }
      ],
      "stateMutability": "view",
      "type": "function"
    }
  ],
  "bytecode": "0x608060405234801561001057600080fd5b5061015c806100206000396000f3fe608060405234801561001057600080fd5b506004361061002b5760003560e01c80637c99f6a614610030575b600080fd5b61004a60048036038101906100459190610083565b610060565b60405161005791906100e5565b60405180910390f35b600080809150509392505050565b60008135905061007d8161010f565b92915050565b60008060006060848603121561009c5761009b61010a565b5b60006100aa8682870161006e565b93505060206100bb8682870161006e565b92505060406100cc8682870161006e565b9150509250925092565b6100df81610100565b82525050565b60006020820190506100fa60008301846100d6565b92915050565b6000819050919050565b600080fd5b61011881610100565b811461012357600080fd5b5056fea2646970667358221220883b06a7807a63e81b082d7ff62888d5594c61ca30e4a741ad528c49d3f15f5664736f6c63430008060033",
  "immutableReferences": {},
  "source": "// SPDX-License-Identifier: MIT\npragma solidity ^0.8.6;\n\ncontract Scoring {\n    constructor() {}\n\n    function process(uint _previousScore, uint _acceptanceTimestamp, uint _paidTimestamp) public view returns(uint) {\n        uint score;\n        // mettre les calculs et la logique pour scorer correctement\n        return score;\n    }\n}",
  "sourcePath": "/home/keymon/work/projet-pro/dApp/timelapse/contracts/Scoring.sol",
  "compiler": {
    "name": "solc",
    "version": "0.8.6+commit.11564f7e.Emscripten.clang"
  },
  "schemaVersion": "3.4.1",
  "updatedAt": "2021-07-13T16:15:08.885Z",
  "devdoc": {
    "kind": "dev",
    "methods": {},
    "version": 1
  },
  "userdoc": {
    "kind": "user",
    "methods": {},
    "version": 1
  }
}