{
  "contractName": "Timelapse",
  "abi": [
    {
      "inputs": [
        {
          "internalType": "address",
          "name": "_billingAddress",
          "type": "address"
        },
        {
          "internalType": "address",
          "name": "_offeringAddress",
          "type": "address"
        }
      ],
      "stateMutability": "nonpayable",
      "type": "constructor"
    },
    {
      "anonymous": false,
      "inputs": [
        {
          "indexed": true,
          "internalType": "address",
          "name": "previousOwner",
          "type": "address"
        },
        {
          "indexed": true,
          "internalType": "address",
          "name": "newOwner",
          "type": "address"
        }
      ],
      "name": "OwnershipTransferred",
      "type": "event"
    },
    {
      "inputs": [],
      "name": "billing",
      "outputs": [
        {
          "internalType": "contract Billing",
          "name": "",
          "type": "address"
        }
      ],
      "stateMutability": "view",
      "type": "function",
      "constant": true
    },
    {
      "inputs": [],
      "name": "owner",
      "outputs": [
        {
          "internalType": "address",
          "name": "",
          "type": "address"
        }
      ],
      "stateMutability": "view",
      "type": "function",
      "constant": true
    },
    {
      "inputs": [],
      "name": "renounceOwnership",
      "outputs": [],
      "stateMutability": "nonpayable",
      "type": "function"
    },
    {
      "inputs": [
        {
          "internalType": "address",
          "name": "newOwner",
          "type": "address"
        }
      ],
      "name": "transferOwnership",
      "outputs": [],
      "stateMutability": "nonpayable",
      "type": "function"
    },
    {
      "inputs": [
        {
          "internalType": "uint8",
          "name": "_minScoring",
          "type": "uint8"
        },
        {
          "internalType": "uint256",
          "name": "_capital",
          "type": "uint256"
        },
        {
          "internalType": "uint256",
          "name": "_interest",
          "type": "uint256"
        },
        {
          "internalType": "string",
          "name": "_description",
          "type": "string"
        }
      ],
      "name": "addProposal",
      "outputs": [],
      "stateMutability": "nonpayable",
      "type": "function"
    },
    {
      "inputs": [
        {
          "internalType": "uint256",
          "name": "_id",
          "type": "uint256"
        }
      ],
      "name": "closeProposal",
      "outputs": [],
      "stateMutability": "nonpayable",
      "type": "function"
    },
    {
      "inputs": [
        {
          "internalType": "address",
          "name": "_phoneHash",
          "type": "address"
        }
      ],
      "name": "addToScore",
      "outputs": [],
      "stateMutability": "nonpayable",
      "type": "function"
    },
    {
      "inputs": [
        {
          "internalType": "address",
          "name": "_phoneHash",
          "type": "address"
        },
        {
          "internalType": "string",
          "name": "_ref",
          "type": "string"
        },
        {
          "internalType": "uint256",
          "name": "_acceptanceTimestamp",
          "type": "uint256"
        },
        {
          "internalType": "uint256",
          "name": "_offerId",
          "type": "uint256"
        },
        {
          "internalType": "uint256",
          "name": "_proposalId",
          "type": "uint256"
        }
      ],
      "name": "acceptance",
      "outputs": [],
      "stateMutability": "nonpayable",
      "type": "function"
    },
    {
      "inputs": [
        {
          "internalType": "address",
          "name": "_phoneHash",
          "type": "address"
        },
        {
          "internalType": "uint256",
          "name": "_paidTimestamp",
          "type": "uint256"
        }
      ],
      "name": "topUp",
      "outputs": [],
      "stateMutability": "nonpayable",
      "type": "function"
    },
    {
      "inputs": [
        {
          "internalType": "address",
          "name": "_phoneHash",
          "type": "address"
        },
        {
          "internalType": "string",
          "name": "_ref",
          "type": "string"
        }
      ],
      "name": "lowBalance",
      "outputs": [],
      "stateMutability": "nonpayable",
      "type": "function"
    },
    {
      "inputs": [
        {
          "internalType": "address",
          "name": "_phoneHash",
          "type": "address"
        },
        {
          "internalType": "uint256",
          "name": "_startTimestamp",
          "type": "uint256"
        },
        {
          "internalType": "uint256",
          "name": "_endTimestamp",
          "type": "uint256"
        }
      ],
      "name": "getCustomerActivitiesLog",
      "outputs": [
        {
          "components": [
            {
              "internalType": "string",
              "name": "log",
              "type": "string"
            },
            {
              "internalType": "uint256",
              "name": "timestamp",
              "type": "uint256"
            },
            {
              "internalType": "string",
              "name": "status",
              "type": "string"
            }
          ],
          "internalType": "struct Timelapse.CustomerActivity[]",
          "name": "",
          "type": "tuple[]"
        }
      ],
      "stateMutability": "view",
      "type": "function",
      "constant": true
    },
    {
      "inputs": [
        {
          "internalType": "uint256",
          "name": "_startTimestamp",
          "type": "uint256"
        },
        {
          "internalType": "uint256",
          "name": "_endTimestamp",
          "type": "uint256"
        }
      ],
      "name": "generateInvoicing",
      "outputs": [
        {
          "components": [
            {
              "internalType": "uint256",
              "name": "totalCapital",
              "type": "uint256"
            },
            {
              "internalType": "uint256",
              "name": "totalInterest",
              "type": "uint256"
            }
          ],
          "internalType": "struct Timelapse.Invoice[]",
          "name": "",
          "type": "tuple[]"
        }
      ],
      "stateMutability": "view",
      "type": "function",
      "constant": true
    },
    {
      "inputs": [
        {
          "internalType": "uint256",
          "name": "_startTimestamp",
          "type": "uint256"
        },
        {
          "internalType": "uint256",
          "name": "_endTimestamp",
          "type": "uint256"
        }
      ],
      "name": "generateReporting",
      "outputs": [
        {
          "components": [
            {
              "internalType": "uint256",
              "name": "offersCount",
              "type": "uint256"
            },
            {
              "internalType": "uint256",
              "name": "acceptedOffersCount",
              "type": "uint256"
            },
            {
              "internalType": "uint256",
              "name": "totalCapitalLoans",
              "type": "uint256"
            },
            {
              "internalType": "uint256",
              "name": "totalInterestLoans",
              "type": "uint256"
            },
            {
              "internalType": "uint256",
              "name": "closedTopupsCount",
              "type": "uint256"
            },
            {
              "internalType": "uint256",
              "name": "totalCapitalGain",
              "type": "uint256"
            },
            {
              "internalType": "uint256",
              "name": "totalInterestGain",
              "type": "uint256"
            },
            {
              "internalType": "uint256",
              "name": "acceptanceTimestamp",
              "type": "uint256"
            },
            {
              "internalType": "uint256",
              "name": "paidTimestamp",
              "type": "uint256"
            }
          ],
          "internalType": "struct Timelapse.Reporting[]",
          "name": "",
          "type": "tuple[]"
        }
      ],
      "stateMutability": "view",
      "type": "function",
      "constant": true
    }
  ],
  "bytecode": "0x60806040523480156200001157600080fd5b5060405162004767380380620047678339818101604052810190620000379190620001c4565b620000576200004b620000e160201b60201c565b620000e960201b60201c565b81600160006101000a81548173ffffffffffffffffffffffffffffffffffffffff021916908373ffffffffffffffffffffffffffffffffffffffff16021790555080600260006101000a81548173ffffffffffffffffffffffffffffffffffffffff021916908373ffffffffffffffffffffffffffffffffffffffff16021790555050506200025e565b600033905090565b60008060009054906101000a900473ffffffffffffffffffffffffffffffffffffffff169050816000806101000a81548173ffffffffffffffffffffffffffffffffffffffff021916908373ffffffffffffffffffffffffffffffffffffffff1602179055508173ffffffffffffffffffffffffffffffffffffffff168173ffffffffffffffffffffffffffffffffffffffff167f8be0079c531659141344cd1fd0a4f28419497f9722a3daafe3b4186f6b6457e060405160405180910390a35050565b600081519050620001be8162000244565b92915050565b60008060408385031215620001de57620001dd6200023f565b5b6000620001ee85828601620001ad565b92505060206200020185828601620001ad565b9150509250929050565b600062000218826200021f565b9050919050565b600073ffffffffffffffffffffffffffffffffffffffff82169050919050565b600080fd5b6200024f816200020b565b81146200025b57600080fd5b50565b6144f9806200026e6000396000f3fe608060405234801561001057600080fd5b50600436106100cf5760003560e01c8063bdcf208c1161008c578063f2fde38b11610066578063f2fde38b146101ea578063f324e9d114610206578063f3963cba14610222578063f6410c011461023e576100cf565b8063bdcf208c14610182578063d6f7ddf91461019e578063d75fa655146101ba576100cf565b80630386a016146100d45780631ac8d444146100f0578063294a70e41461010c578063715018a61461012a5780638da5cb5b14610134578063a1f4274314610152575b600080fd5b6100ee60048036038101906100e991906135eb565b61026e565b005b61010a6004803603810190610105919061328f565b61037a565b005b610114610535565b6040516101219190613e31565b60405180910390f35b61013261055b565b005b61013c6105e3565b6040516101499190613c8f565b60405180910390f35b61016c60048036038101906101679190613645565b61060c565b6040516101799190613ded565b60405180910390f35b61019c600480360381019061019791906136b2565b610a4a565b005b6101b860048036038101906101b39190613382565b610b5f565b005b6101d460048036038101906101cf9190613645565b61106d565b6040516101e19190613e0f565b60405180910390f35b61020460048036038101906101ff9190613262565b6119c6565b005b610220600480360381019061021b91906132eb565b611abe565b005b61023c60048036038101906102379190613262565b611c86565b005b61025860048036038101906102539190613459565b611d92565b6040516102659190613dcb565b60405180910390f35b610276612e93565b73ffffffffffffffffffffffffffffffffffffffff166102946105e3565b73ffffffffffffffffffffffffffffffffffffffff16146102ea576040517f08c379a00000000000000000000000000000000000000000000000000000000081526004016102e190613e6c565b60405180910390fd5b600260009054906101000a900473ffffffffffffffffffffffffffffffffffffffff1673ffffffffffffffffffffffffffffffffffffffff16630386a016826040518263ffffffff1660e01b81526004016103459190613e8c565b600060405180830381600087803b15801561035f57600080fd5b505af1158015610373573d6000803e3d6000fd5b5050505050565b610382612e93565b73ffffffffffffffffffffffffffffffffffffffff166103a06105e3565b73ffffffffffffffffffffffffffffffffffffffff16146103f6576040517f08c379a00000000000000000000000000000000000000000000000000000000081526004016103ed90613e6c565b60405180910390fd5b600260009054906101000a900473ffffffffffffffffffffffffffffffffffffffff1673ffffffffffffffffffffffffffffffffffffffff1663116c327b8383600160009054906101000a900473ffffffffffffffffffffffffffffffffffffffff1673ffffffffffffffffffffffffffffffffffffffff1663d47875d0876040518263ffffffff1660e01b81526004016104919190613c8f565b60206040518083038186803b1580156104a957600080fd5b505afa1580156104bd573d6000803e3d6000fd5b505050506040513d601f19601f820116820180604052508101906104e19190613685565b6040518463ffffffff1660e01b81526004016104ff93929190613cf6565b600060405180830381600087803b15801561051957600080fd5b505af115801561052d573d6000803e3d6000fd5b505050505050565b600160009054906101000a900473ffffffffffffffffffffffffffffffffffffffff1681565b610563612e93565b73ffffffffffffffffffffffffffffffffffffffff166105816105e3565b73ffffffffffffffffffffffffffffffffffffffff16146105d7576040517f08c379a00000000000000000000000000000000000000000000000000000000081526004016105ce90613e6c565b60405180910390fd5b6105e16000612e9b565b565b60008060009054906101000a900473ffffffffffffffffffffffffffffffffffffffff16905090565b606060008060006001925060008367ffffffffffffffff811115610633576106326142fb565b5b60405190808252806020026020018201604052801561066c57816020015b610659612f5f565b8152602001906001900390816106515790505b5090506000600160009054906101000a900473ffffffffffffffffffffffffffffffffffffffff1673ffffffffffffffffffffffffffffffffffffffff1663fcdc4eb76040518163ffffffff1660e01b815260040160206040518083038186803b1580156106d957600080fd5b505afa1580156106ed573d6000803e3d6000fd5b505050506040513d601f19601f820116820180604052508101906107119190613618565b90505b600081118015610722575082155b15610a3c576000806000600160009054906101000a900473ffffffffffffffffffffffffffffffffffffffff1673ffffffffffffffffffffffffffffffffffffffff166356564b7c60018661077791906140ab565b6040518263ffffffff1660e01b81526004016107939190613e8c565b60006040518083038186803b1580156107ab57600080fd5b505afa1580156107bf573d6000803e3d6000fd5b505050506040513d6000823e3d601f19601f820116820180604052508101906107e89190613527565b94509450945050506000831415801561080057508a83105b1561080a57600195505b8a831015801561081a5750898311155b801561084957506001808111156108345761083361429d565b5b8260018111156108475761084661429d565b5b145b15610a26576000600260009054906101000a900473ffffffffffffffffffffffffffffffffffffffff1673ffffffffffffffffffffffffffffffffffffffff16637acc0b20836040518263ffffffff1660e01b81526004016108ab9190613e8c565b60a06040518083038186803b1580156108c357600080fd5b505afa1580156108d7573d6000803e3d6000fd5b505050506040513d601f19601f820116820180604052508101906108fb91906134ac565b509350505050600080600260009054906101000a900473ffffffffffffffffffffffffffffffffffffffff1673ffffffffffffffffffffffffffffffffffffffff1663013cf08b846040518263ffffffff1660e01b815260040161095f9190613e8c565b60006040518083038186803b15801561097757600080fd5b505afa15801561098b573d6000803e3d6000fd5b505050506040513d6000823e3d601f19601f820116820180604052508101906109b49190613735565b505050925092505081888b815181106109d0576109cf6142cc565b5b60200260200101516000018181516109e89190614055565b9150818152505080888b81518110610a0357610a026142cc565b5b6020026020010151602001818151610a1b9190614055565b915081815250505050505b5050508080610a34906141a0565b915050610714565b508094505050505092915050565b610a52612e93565b73ffffffffffffffffffffffffffffffffffffffff16610a706105e3565b73ffffffffffffffffffffffffffffffffffffffff1614610ac6576040517f08c379a0000000000000000000000000000000000000000000000000000000008152600401610abd90613e6c565b60405180910390fd5b600260009054906101000a900473ffffffffffffffffffffffffffffffffffffffff1673ffffffffffffffffffffffffffffffffffffffff1663bdcf208c858585856040518563ffffffff1660e01b8152600401610b279493929190613ed0565b600060405180830381600087803b158015610b4157600080fd5b505af1158015610b55573d6000803e3d6000fd5b5050505050505050565b610b67612e93565b73ffffffffffffffffffffffffffffffffffffffff16610b856105e3565b73ffffffffffffffffffffffffffffffffffffffff1614610bdb576040517f08c379a0000000000000000000000000000000000000000000000000000000008152600401610bd290613e6c565b60405180910390fd5b6000600160009054906101000a900473ffffffffffffffffffffffffffffffffffffffff1673ffffffffffffffffffffffffffffffffffffffff166356564b7c600160009054906101000a900473ffffffffffffffffffffffffffffffffffffffff1673ffffffffffffffffffffffffffffffffffffffff1663cb949e51866040518263ffffffff1660e01b8152600401610c769190613c8f565b60c06040518083038186803b158015610c8e57600080fd5b505afa158015610ca2573d6000803e3d6000fd5b505050506040513d601f19601f82011682018060405250810190610cc691906135be565b60a001516040518263ffffffff1660e01b8152600401610ce69190613e8c565b60006040518083038186803b158015610cfe57600080fd5b505afa158015610d12573d6000803e3d6000fd5b505050506040513d6000823e3d601f19601f82011682018060405250810190610d3b9190613527565b9450505050506000600260009054906101000a900473ffffffffffffffffffffffffffffffffffffffff1673ffffffffffffffffffffffffffffffffffffffff16637acc0b20836040518263ffffffff1660e01b8152600401610d9e9190613e8c565b60a06040518083038186803b158015610db657600080fd5b505afa158015610dca573d6000803e3d6000fd5b505050506040513d601f19601f82011682018060405250810190610dee91906134ac565b509350505050600080600260009054906101000a900473ffffffffffffffffffffffffffffffffffffffff1673ffffffffffffffffffffffffffffffffffffffff1663013cf08b846040518263ffffffff1660e01b8152600401610e529190613e8c565b60006040518083038186803b158015610e6a57600080fd5b505afa158015610e7e573d6000803e3d6000fd5b505050506040513d6000823e3d601f19601f82011682018060405250810190610ea79190613735565b5050509250925050600160009054906101000a900473ffffffffffffffffffffffffffffffffffffffff1673ffffffffffffffffffffffffffffffffffffffff1663d8dd1827878385610efa9190614055565b6040518363ffffffff1660e01b8152600401610f17929190613d34565b600060405180830381600087803b158015610f3157600080fd5b505af1158015610f45573d6000803e3d6000fd5b50505050600160009054906101000a900473ffffffffffffffffffffffffffffffffffffffff1673ffffffffffffffffffffffffffffffffffffffff1663f3963cba876040518263ffffffff1660e01b8152600401610fa49190613c8f565b600060405180830381600087803b158015610fbe57600080fd5b505af1158015610fd2573d6000803e3d6000fd5b50505050600160009054906101000a900473ffffffffffffffffffffffffffffffffffffffff1673ffffffffffffffffffffffffffffffffffffffff166345df777987876040518363ffffffff1660e01b8152600401611033929190613d34565b600060405180830381600087803b15801561104d57600080fd5b505af1158015611061573d6000803e3d6000fd5b50505050505050505050565b606060008060008060006001945060008567ffffffffffffffff811115611097576110966142fb565b5b6040519080825280602002602001820160405280156110d057816020015b6110bd612f79565b8152602001906001900390816110b55790505b5090506000600260009054906101000a900473ffffffffffffffffffffffffffffffffffffffff1673ffffffffffffffffffffffffffffffffffffffff1663e0026ab36040518163ffffffff1660e01b815260040160206040518083038186803b15801561113d57600080fd5b505afa158015611151573d6000803e3d6000fd5b505050506040513d601f19601f820116820180604052508101906111759190613618565b90505b600081118015611186575084155b1561131e57600080600260009054906101000a900473ffffffffffffffffffffffffffffffffffffffff1673ffffffffffffffffffffffffffffffffffffffff16638a72ea6a6001856111d991906140ab565b6040518263ffffffff1660e01b81526004016111f59190613e8c565b60006040518083038186803b15801561120d57600080fd5b505afa158015611221573d6000803e3d6000fd5b505050506040513d6000823e3d601f19601f8201168201806040525081019061124a91906133c2565b509350509250508b82101561125e57600196505b8b821015801561126e57508a8211155b15611309576001848981518110611288576112876142cc565b5b60200260200101516000018181516112a09190614055565b915081815250506001808111156112ba576112b961429d565b5b8160018111156112cd576112cc61429d565b5b14156113085760018489815181106112e8576112e76142cc565b5b60200260200101516020018181516113009190614055565b915081815250505b5b50508080611316906141a0565b915050611178565b506000600160009054906101000a900473ffffffffffffffffffffffffffffffffffffffff1673ffffffffffffffffffffffffffffffffffffffff1663fcdc4eb76040518163ffffffff1660e01b815260040160206040518083038186803b15801561138957600080fd5b505afa15801561139d573d6000803e3d6000fd5b505050506040513d601f19601f820116820180604052508101906113c19190613618565b90505b6000811180156113db57508315806113da575082155b5b156119b657600080600080600160009054906101000a900473ffffffffffffffffffffffffffffffffffffffff1673ffffffffffffffffffffffffffffffffffffffff166356564b7c60018761143191906140ab565b6040518263ffffffff1660e01b815260040161144d9190613e8c565b60006040518083038186803b15801561146557600080fd5b505afa158015611479573d6000803e3d6000fd5b505050506040513d6000823e3d601f19601f820116820180604052508101906114a29190613527565b94509450945094505083868b815181106114bf576114be6142cc565b5b602002602001015160e001818152505082868b815181106114e3576114e26142cc565b5b60200260200101516101000181815250506000841415801561150457508d84105b156115125760019750611730565b8d841015801561152257508c8411155b801561155257506000600181111561153d5761153c61429d565b5b8260018111156115505761154f61429d565b5b145b1561172f576000600260009054906101000a900473ffffffffffffffffffffffffffffffffffffffff1673ffffffffffffffffffffffffffffffffffffffff16637acc0b20836040518263ffffffff1660e01b81526004016115b49190613e8c565b60a06040518083038186803b1580156115cc57600080fd5b505afa1580156115e0573d6000803e3d6000fd5b505050506040513d601f19601f8201168201806040525081019061160491906134ac565b509350505050600080600260009054906101000a900473ffffffffffffffffffffffffffffffffffffffff1673ffffffffffffffffffffffffffffffffffffffff1663013cf08b846040518263ffffffff1660e01b81526004016116689190613e8c565b60006040518083038186803b15801561168057600080fd5b505afa158015611694573d6000803e3d6000fd5b505050506040513d6000823e3d601f19601f820116820180604052508101906116bd9190613735565b505050925092505081898e815181106116d9576116d86142cc565b5b60200260200101516040018181516116f19190614055565b9150818152505080898e8151811061170c5761170b6142cc565b5b60200260200101516060018181516117249190614055565b915081815250505050505b5b6000831415801561174057508d83105b1561174e576001965061199f565b8d831015801561175e57508c8311155b801561178d57506001808111156117785761177761429d565b5b82600181111561178b5761178a61429d565b5b145b1561199e576000600260009054906101000a900473ffffffffffffffffffffffffffffffffffffffff1673ffffffffffffffffffffffffffffffffffffffff16637acc0b20836040518263ffffffff1660e01b81526004016117ef9190613e8c565b60a06040518083038186803b15801561180757600080fd5b505afa15801561181b573d6000803e3d6000fd5b505050506040513d601f19601f8201168201806040525081019061183f91906134ac565b509350505050600080600260009054906101000a900473ffffffffffffffffffffffffffffffffffffffff1673ffffffffffffffffffffffffffffffffffffffff1663013cf08b846040518263ffffffff1660e01b81526004016118a39190613e8c565b60006040518083038186803b1580156118bb57600080fd5b505afa1580156118cf573d6000803e3d6000fd5b505050506040513d6000823e3d601f19601f820116820180604052508101906118f89190613735565b50505092509250506001898e81518110611915576119146142cc565b5b602002602001015160800181815161192d9190614055565b9150818152505081898e81518110611948576119476142cc565b5b602002602001015160a0018181516119609190614055565b9150818152505080898e8151811061197b5761197a6142cc565b5b602002602001015160c0018181516119939190614055565b915081815250505050505b5b5050505080806119ae906141a0565b9150506113c4565b5080965050505050505092915050565b6119ce612e93565b73ffffffffffffffffffffffffffffffffffffffff166119ec6105e3565b73ffffffffffffffffffffffffffffffffffffffff1614611a42576040517f08c379a0000000000000000000000000000000000000000000000000000000008152600401611a3990613e6c565b60405180910390fd5b600073ffffffffffffffffffffffffffffffffffffffff168173ffffffffffffffffffffffffffffffffffffffff161415611ab2576040517f08c379a0000000000000000000000000000000000000000000000000000000008152600401611aa990613e4c565b60405180910390fd5b611abb81612e9b565b50565b611ac6612e93565b73ffffffffffffffffffffffffffffffffffffffff16611ae46105e3565b73ffffffffffffffffffffffffffffffffffffffff1614611b3a576040517f08c379a0000000000000000000000000000000000000000000000000000000008152600401611b3190613e6c565b60405180910390fd5b600160009054906101000a900473ffffffffffffffffffffffffffffffffffffffff1673ffffffffffffffffffffffffffffffffffffffff16637a67e6cc868686600260009054906101000a900473ffffffffffffffffffffffffffffffffffffffff1673ffffffffffffffffffffffffffffffffffffffff1663b6ca45958b8a8a8a6040518563ffffffff1660e01b8152600401611bdc9493929190613d5d565b602060405180830381600087803b158015611bf657600080fd5b505af1158015611c0a573d6000803e3d6000fd5b505050506040513d601f19601f82011682018060405250810190611c2e9190613618565b6040518563ffffffff1660e01b8152600401611c4d9493929190613caa565b600060405180830381600087803b158015611c6757600080fd5b505af1158015611c7b573d6000803e3d6000fd5b505050505050505050565b611c8e612e93565b73ffffffffffffffffffffffffffffffffffffffff16611cac6105e3565b73ffffffffffffffffffffffffffffffffffffffff1614611d02576040517f08c379a0000000000000000000000000000000000000000000000000000000008152600401611cf990613e6c565b60405180910390fd5b600160009054906101000a900473ffffffffffffffffffffffffffffffffffffffff1673ffffffffffffffffffffffffffffffffffffffff1663f3963cba826040518263ffffffff1660e01b8152600401611d5d9190613c8f565b600060405180830381600087803b158015611d7757600080fd5b505af1158015611d8b573d6000803e3d6000fd5b5050505050565b606060008060005b600260009054906101000a900473ffffffffffffffffffffffffffffffffffffffff1673ffffffffffffffffffffffffffffffffffffffff166380ec3727886040518263ffffffff1660e01b8152600401611df59190613c8f565b60206040518083038186803b158015611e0d57600080fd5b505afa158015611e21573d6000803e3d6000fd5b505050506040513d601f19601f82011682018060405250810190611e459190613618565b8160ff161015611ff1576000600260009054906101000a900473ffffffffffffffffffffffffffffffffffffffff1673ffffffffffffffffffffffffffffffffffffffff1663db7b1e1c89846040518363ffffffff1660e01b8152600401611eae929190613da2565b60206040518083038186803b158015611ec657600080fd5b505afa158015611eda573d6000803e3d6000fd5b505050506040513d601f19601f82011682018060405250810190611efe9190613618565b90506000600260009054906101000a900473ffffffffffffffffffffffffffffffffffffffff1673ffffffffffffffffffffffffffffffffffffffff16638a72ea6a836040518263ffffffff1660e01b8152600401611f5d9190613e8c565b60006040518083038186803b158015611f7557600080fd5b505afa158015611f89573d6000803e3d6000fd5b505050506040513d6000823e3d601f19601f82011682018060405250810190611fb291906133c2565b505050915050878110158015611fc85750868111155b15611fdc578480611fd8906141fb565b9550505b50508080611fe990614244565b915050611d9a565b5060005b600160009054906101000a900473ffffffffffffffffffffffffffffffffffffffff1673ffffffffffffffffffffffffffffffffffffffff1663c23a179f886040518263ffffffff1660e01b81526004016120509190613c8f565b60206040518083038186803b15801561206857600080fd5b505afa15801561207c573d6000803e3d6000fd5b505050506040513d601f19601f820116820180604052508101906120a09190613618565b8160ff161015612273576000600160009054906101000a900473ffffffffffffffffffffffffffffffffffffffff1673ffffffffffffffffffffffffffffffffffffffff16639941556889846040518363ffffffff1660e01b8152600401612109929190613da2565b60206040518083038186803b15801561212157600080fd5b505afa158015612135573d6000803e3d6000fd5b505050506040513d601f19601f820116820180604052508101906121599190613618565b9050600080600160009054906101000a900473ffffffffffffffffffffffffffffffffffffffff1673ffffffffffffffffffffffffffffffffffffffff166356564b7c846040518263ffffffff1660e01b81526004016121b99190613e8c565b60006040518083038186803b1580156121d157600080fd5b505afa1580156121e5573d6000803e3d6000fd5b505050506040513d6000823e3d601f19601f8201168201806040525081019061220e9190613527565b505092509250508882101580156122255750878211155b15612239578580612235906141fb565b9650505b8881101580156122495750878111155b1561225d578580612259906141fb565b9650505b505050808061226b90614244565b915050611ff5565b5060008267ffffffffffffffff8111156122905761228f6142fb565b5b6040519080825280602002602001820160405280156122c957816020015b6122b6612fc5565b8152602001906001900390816122ae5790505b50905060005b600260009054906101000a900473ffffffffffffffffffffffffffffffffffffffff1673ffffffffffffffffffffffffffffffffffffffff166380ec3727896040518263ffffffff1660e01b815260040161232a9190613c8f565b60206040518083038186803b15801561234257600080fd5b505afa158015612356573d6000803e3d6000fd5b505050506040513d601f19601f8201168201806040525081019061237a9190613618565b8160ff161015612902576000600260009054906101000a900473ffffffffffffffffffffffffffffffffffffffff1673ffffffffffffffffffffffffffffffffffffffff1663db7b1e1c8a846040518363ffffffff1660e01b81526004016123e3929190613da2565b60206040518083038186803b1580156123fb57600080fd5b505afa15801561240f573d6000803e3d6000fd5b505050506040513d601f19601f820116820180604052508101906124339190613618565b90506000600260009054906101000a900473ffffffffffffffffffffffffffffffffffffffff1673ffffffffffffffffffffffffffffffffffffffff16638a72ea6a836040518263ffffffff1660e01b81526004016124929190613e8c565b60006040518083038186803b1580156124aa57600080fd5b505afa1580156124be573d6000803e3d6000fd5b505050506040513d6000823e3d601f19601f820116820180604052508101906124e791906133c2565b5050509150508881101580156124fd5750878111155b156128ed576040518060400160405280600781526020017f4f666665723a200000000000000000000000000000000000000000000000000081525084868151811061254b5761254a6142cc565b5b6020026020010151600001819052506000600260009054906101000a900473ffffffffffffffffffffffffffffffffffffffff1673ffffffffffffffffffffffffffffffffffffffff1663267e07d5846040518263ffffffff1660e01b81526004016125b79190613e8c565b60206040518083038186803b1580156125cf57600080fd5b505afa1580156125e3573d6000803e3d6000fd5b505050506040513d601f19601f820116820180604052508101906126079190613618565b905060005b81811015612860576000600260009054906101000a900473ffffffffffffffffffffffffffffffffffffffff1673ffffffffffffffffffffffffffffffffffffffff1663013cf08b600260009054906101000a900473ffffffffffffffffffffffffffffffffffffffff1673ffffffffffffffffffffffffffffffffffffffff16637c8dd0d688866040518363ffffffff1660e01b81526004016126b1929190613ea7565b60206040518083038186803b1580156126c957600080fd5b505afa1580156126dd573d6000803e3d6000fd5b505050506040513d601f19601f820116820180604052508101906127019190613618565b6040518263ffffffff1660e01b815260040161271d9190613e8c565b60006040518083038186803b15801561273557600080fd5b505afa158015612749573d6000803e3d6000fd5b505050506040513d6000823e3d601f19601f820116820180604052508101906127729190613735565b5094505050505060008214156127e957868881518110612795576127946142cc565b5b602002602001015160000151816040516020016127b3929190613c1a565b6040516020818303038152906040528789815181106127d5576127d46142cc565b5b60200260200101516000018190525061284c565b8688815181106127fc576127fb6142cc565b5b6020026020010151600001518160405160200161281a929190613c3e565b60405160208183030381529060405287898151811061283c5761283b6142cc565b5b6020026020010151600001819052505b508080612858906141fb565b91505061260c565b5081858781518110612875576128746142cc565b5b602002602001015160200181815250506040518060400160405280600581526020017f4f666665720000000000000000000000000000000000000000000000000000008152508587815181106128ce576128cd6142cc565b5b60200260200101516040018190525085806128e8906141fb565b965050505b505080806128fa90614244565b9150506122cf565b5060005b600160009054906101000a900473ffffffffffffffffffffffffffffffffffffffff1673ffffffffffffffffffffffffffffffffffffffff1663c23a179f896040518263ffffffff1660e01b81526004016129619190613c8f565b60206040518083038186803b15801561297957600080fd5b505afa15801561298d573d6000803e3d6000fd5b505050506040513d601f19601f820116820180604052508101906129b19190613618565b811015612e85576000600160009054906101000a900473ffffffffffffffffffffffffffffffffffffffff1673ffffffffffffffffffffffffffffffffffffffff1663994155688a846040518363ffffffff1660e01b8152600401612a17929190613d34565b60206040518083038186803b158015612a2f57600080fd5b505afa158015612a43573d6000803e3d6000fd5b505050506040513d601f19601f82011682018060405250810190612a679190613618565b90506000806000600160009054906101000a900473ffffffffffffffffffffffffffffffffffffffff1673ffffffffffffffffffffffffffffffffffffffff166356564b7c856040518263ffffffff1660e01b8152600401612ac99190613e8c565b60006040518083038186803b158015612ae157600080fd5b505afa158015612af5573d6000803e3d6000fd5b505050506040513d6000823e3d601f19601f82011682018060405250810190612b1e9190613527565b94505093509350506000600260009054906101000a900473ffffffffffffffffffffffffffffffffffffffff1673ffffffffffffffffffffffffffffffffffffffff16637acc0b20836040518263ffffffff1660e01b8152600401612b839190613e8c565b60a06040518083038186803b158015612b9b57600080fd5b505afa158015612baf573d6000803e3d6000fd5b505050506040513d601f19601f82011682018060405250810190612bd391906134ac565b5093505050506000600260009054906101000a900473ffffffffffffffffffffffffffffffffffffffff1673ffffffffffffffffffffffffffffffffffffffff1663013cf08b836040518263ffffffff1660e01b8152600401612c369190613e8c565b60006040518083038186803b158015612c4e57600080fd5b505afa158015612c62573d6000803e3d6000fd5b505050506040513d6000823e3d601f19601f82011682018060405250810190612c8b9190613735565b509450505050508c8510158015612ca257508b8511155b15612d745780604051602001612cb89190613c6d565b604051602081830303815290604052888a81518110612cda57612cd96142cc565b5b60200260200101516000018190525084888a81518110612cfd57612cfc6142cc565b5b602002602001015160200181815250506040518060400160405280600881526020017f4163636570746564000000000000000000000000000000000000000000000000815250888a81518110612d5657612d556142cc565b5b6020026020010151604001819052508880612d70906141fb565b9950505b8c8410158015612d8457508b8411155b15612e6c576040518060400160405280600581526020017f546f707570000000000000000000000000000000000000000000000000000000815250888a81518110612dd257612dd16142cc565b5b60200260200101516000018190525083888a81518110612df557612df46142cc565b5b602002602001015160200181815250506040518060400160405280600681526020017f436c6f7365640000000000000000000000000000000000000000000000000000815250888a81518110612e4e57612e4d6142cc565b5b6020026020010151604001819052508880612e68906141fb565b9950505b5050505050508080612e7d906141fb565b915050612906565b508093505050509392505050565b600033905090565b60008060009054906101000a900473ffffffffffffffffffffffffffffffffffffffff169050816000806101000a81548173ffffffffffffffffffffffffffffffffffffffff021916908373ffffffffffffffffffffffffffffffffffffffff1602179055508173ffffffffffffffffffffffffffffffffffffffff168173ffffffffffffffffffffffffffffffffffffffff167f8be0079c531659141344cd1fd0a4f28419497f9722a3daafe3b4186f6b6457e060405160405180910390a35050565b604051806040016040528060008152602001600081525090565b6040518061012001604052806000815260200160008152602001600081526020016000815260200160008152602001600081526020016000815260200160008152602001600081525090565b60405180606001604052806060815260200160008152602001606081525090565b6000612ff9612ff484613f41565b613f1c565b90508281526020810184848401111561301557613014614334565b5b61302084828561415e565b509392505050565b600061303b61303684613f41565b613f1c565b90508281526020810184848401111561305757613056614334565b5b61306284828561416d565b509392505050565b6000813590506130798161441e565b92915050565b60008151905061308e8161441e565b92915050565b6000815190506130a381614435565b92915050565b6000815190506130b881614445565b92915050565b6000815190506130cd81614455565b92915050565b6000815190506130e281614465565b92915050565b6000815190506130f781614475565b92915050565b60008151905061310c81614485565b92915050565b600082601f8301126131275761312661432a565b5b8135613137848260208601612fe6565b91505092915050565b600082601f8301126131555761315461432a565b5b8151613165848260208601613028565b91505092915050565b600060c082840312156131845761318361432f565b5b61318e60c0613f1c565b9050600061319e84828501613094565b60008301525060206131b28482850161324d565b60208301525060406131c684828501613223565b60408301525060606131da84828501613223565b60608301525060806131ee84828501613223565b60808301525060a061320284828501613223565b60a08301525092915050565b60008135905061321d81614495565b92915050565b60008151905061323281614495565b92915050565b600081359050613247816144ac565b92915050565b60008151905061325c816144ac565b92915050565b6000602082840312156132785761327761433e565b5b60006132868482850161306a565b91505092915050565b600080604083850312156132a6576132a561433e565b5b60006132b48582860161306a565b925050602083013567ffffffffffffffff8111156132d5576132d4614339565b5b6132e185828601613112565b9150509250929050565b600080600080600060a086880312156133075761330661433e565b5b60006133158882890161306a565b955050602086013567ffffffffffffffff81111561333657613335614339565b5b61334288828901613112565b94505060406133538882890161320e565b93505060606133648882890161320e565b92505060806133758882890161320e565b9150509295509295909350565b600080604083850312156133995761339861433e565b5b60006133a78582860161306a565b92505060206133b88582860161320e565b9150509250929050565b600080600080600060a086880312156133de576133dd61433e565b5b60006133ec8882890161307f565b95505060206133fd88828901613223565b945050604061340e888289016130a9565b935050606061341f888289016130d3565b925050608086015167ffffffffffffffff8111156134405761343f614339565b5b61344c88828901613140565b9150509295509295909350565b6000806000606084860312156134725761347161433e565b5b60006134808682870161306a565b93505060206134918682870161320e565b92505060406134a28682870161320e565b9150509250925092565b600080600080600060a086880312156134c8576134c761433e565b5b60006134d68882890161307f565b95505060206134e788828901613223565b94505060406134f888828901613223565b935050606061350988828901613223565b925050608061351a888289016130e8565b9150509295509295909350565b600080600080600060a086880312156135435761354261433e565b5b600086015167ffffffffffffffff81111561356157613560614339565b5b61356d88828901613140565b955050602061357e88828901613223565b945050604061358f88828901613223565b93505060606135a0888289016130be565b92505060806135b188828901613223565b9150509295509295909350565b600060c082840312156135d4576135d361433e565b5b60006135e28482850161316e565b91505092915050565b6000602082840312156136015761360061433e565b5b600061360f8482850161320e565b91505092915050565b60006020828403121561362e5761362d61433e565b5b600061363c84828501613223565b91505092915050565b6000806040838503121561365c5761365b61433e565b5b600061366a8582860161320e565b925050602061367b8582860161320e565b9150509250929050565b60006020828403121561369b5761369a61433e565b5b60006136a98482850161324d565b91505092915050565b600080600080608085870312156136cc576136cb61433e565b5b60006136da87828801613238565b94505060206136eb8782880161320e565b93505060406136fc8782880161320e565b925050606085013567ffffffffffffffff81111561371d5761371c614339565b5b61372987828801613112565b91505092959194509250565b60008060008060008060c087890312156137525761375161433e565b5b600061376089828a0161324d565b965050602061377189828a01613223565b955050604061378289828a01613223565b945050606061379389828a01613223565b935050608087015167ffffffffffffffff8111156137b4576137b3614339565b5b6137c089828a01613140565b92505060a06137d189828a016130fd565b9150509295509295509295565b60006137ea8383613aa1565b905092915050565b60006137fe8383613af8565b60408301905092915050565b60006138168383613b27565b6101208301905092915050565b61382c816140df565b82525050565b600061383d82613fa2565b6138478185613ff5565b93508360208202850161385985613f72565b8060005b85811015613895578484038952815161387685826137de565b945061388183613fce565b925060208a0199505060018101905061385d565b50829750879550505050505092915050565b60006138b282613fad565b6138bc8185614006565b93506138c783613f82565b8060005b838110156138f85781516138df88826137f2565b97506138ea83613fdb565b9250506001810190506138cb565b5085935050505092915050565b600061391082613fb8565b61391a8185614017565b935061392583613f92565b8060005b8381101561395657815161393d888261380a565b975061394883613fe8565b925050600181019050613929565b5085935050505092915050565b61396c81614128565b82525050565b600061397d82613fc3565b6139878185614028565b935061399781856020860161416d565b6139a081614343565b840191505092915050565b60006139b682613fc3565b6139c08185614039565b93506139d081856020860161416d565b6139d981614343565b840191505092915050565b60006139ef82613fc3565b6139f9818561404a565b9350613a0981856020860161416d565b80840191505092915050565b6000613a22602683614039565b9150613a2d82614354565b604082019050919050565b6000613a45600a8361404a565b9150613a50826143a3565b600a82019050919050565b6000613a68602083614039565b9150613a73826143cc565b602082019050919050565b6000613a8b60038361404a565b9150613a96826143f5565b600382019050919050565b60006060830160008301518482036000860152613abe8282613972565b9150506020830151613ad36020860182613bde565b5060408301518482036040860152613aeb8282613972565b9150508091505092915050565b604082016000820151613b0e6000850182613bde565b506020820151613b216020850182613bde565b50505050565b61012082016000820151613b3e6000850182613bde565b506020820151613b516020850182613bde565b506040820151613b646040850182613bde565b506060820151613b776060850182613bde565b506080820151613b8a6080850182613bde565b5060a0820151613b9d60a0850182613bde565b5060c0820151613bb060c0850182613bde565b5060e0820151613bc360e0850182613bde565b50610100820151613bd8610100850182613bde565b50505050565b613be781614111565b82525050565b613bf681614111565b82525050565b613c058161414c565b82525050565b613c148161411b565b82525050565b6000613c2682856139e4565b9150613c3282846139e4565b91508190509392505050565b6000613c4a82856139e4565b9150613c5582613a7e565b9150613c6182846139e4565b91508190509392505050565b6000613c7882613a38565b9150613c8482846139e4565b915081905092915050565b6000602082019050613ca46000830184613823565b92915050565b6000608082019050613cbf6000830187613823565b8181036020830152613cd181866139ab565b9050613ce06040830185613bed565b613ced6060830184613bed565b95945050505050565b6000606082019050613d0b6000830186613823565b8181036020830152613d1d81856139ab565b9050613d2c6040830184613c0b565b949350505050565b6000604082019050613d496000830185613823565b613d566020830184613bed565b9392505050565b6000608082019050613d726000830187613823565b613d7f6020830186613bed565b613d8c6040830185613bed565b613d996060830184613bed565b95945050505050565b6000604082019050613db76000830185613823565b613dc46020830184613bfc565b9392505050565b60006020820190508181036000830152613de58184613832565b905092915050565b60006020820190508181036000830152613e0781846138a7565b905092915050565b60006020820190508181036000830152613e298184613905565b905092915050565b6000602082019050613e466000830184613963565b92915050565b60006020820190508181036000830152613e6581613a15565b9050919050565b60006020820190508181036000830152613e8581613a5b565b9050919050565b6000602082019050613ea16000830184613bed565b92915050565b6000604082019050613ebc6000830185613bed565b613ec96020830184613bed565b9392505050565b6000608082019050613ee56000830187613c0b565b613ef26020830186613bed565b613eff6040830185613bed565b8181036060830152613f1181846139ab565b905095945050505050565b6000613f26613f37565b9050613f3282826141ca565b919050565b6000604051905090565b600067ffffffffffffffff821115613f5c57613f5b6142fb565b5b613f6582614343565b9050602081019050919050565b6000819050602082019050919050565b6000819050602082019050919050565b6000819050602082019050919050565b600081519050919050565b600081519050919050565b600081519050919050565b600081519050919050565b6000602082019050919050565b6000602082019050919050565b6000602082019050919050565b600082825260208201905092915050565b600082825260208201905092915050565b600082825260208201905092915050565b600082825260208201905092915050565b600082825260208201905092915050565b600081905092915050565b600061406082614111565b915061406b83614111565b9250827fffffffffffffffffffffffffffffffffffffffffffffffffffffffffffffffff038211156140a05761409f61426e565b5b828201905092915050565b60006140b682614111565b91506140c183614111565b9250828210156140d4576140d361426e565b5b828203905092915050565b60006140ea826140f1565b9050919050565b600073ffffffffffffffffffffffffffffffffffffffff82169050919050565b6000819050919050565b600060ff82169050919050565b60006141338261413a565b9050919050565b6000614145826140f1565b9050919050565b60006141578261411b565b9050919050565b82818337600083830152505050565b60005b8381101561418b578082015181840152602081019050614170565b8381111561419a576000848401525b50505050565b60006141ab82614111565b915060008214156141bf576141be61426e565b5b600182039050919050565b6141d382614343565b810181811067ffffffffffffffff821117156141f2576141f16142fb565b5b80604052505050565b600061420682614111565b91507fffffffffffffffffffffffffffffffffffffffffffffffffffffffffffffffff8214156142395761423861426e565b5b600182019050919050565b600061424f8261411b565b915060ff8214156142635761426261426e565b5b600182019050919050565b7f4e487b7100000000000000000000000000000000000000000000000000000000600052601160045260246000fd5b7f4e487b7100000000000000000000000000000000000000000000000000000000600052602160045260246000fd5b7f4e487b7100000000000000000000000000000000000000000000000000000000600052603260045260246000fd5b7f4e487b7100000000000000000000000000000000000000000000000000000000600052604160045260246000fd5b600080fd5b600080fd5b600080fd5b600080fd5b600080fd5b6000601f19601f8301169050919050565b7f4f776e61626c653a206e6577206f776e657220697320746865207a65726f206160008201527f6464726573730000000000000000000000000000000000000000000000000000602082015250565b7f41636365707465643a2000000000000000000000000000000000000000000000600082015250565b7f4f776e61626c653a2063616c6c6572206973206e6f7420746865206f776e6572600082015250565b7f202f200000000000000000000000000000000000000000000000000000000000600082015250565b614427816140df565b811461443257600080fd5b50565b6003811061444257600080fd5b50565b6005811061445257600080fd5b50565b6002811061446257600080fd5b50565b6002811061447257600080fd5b50565b6002811061448257600080fd5b50565b6002811061449257600080fd5b50565b61449e81614111565b81146144a957600080fd5b50565b6144b58161411b565b81146144c057600080fd5b5056fea2646970667358221220ee7e12604407d47a3b9e70b757170396c84a68fc5dd46c613c552dd313d5a4a564736f6c63430008060033",
  "immutableReferences": {},
  "source": "// SPDX-License-Identifier: MIT\npragma solidity ^0.8.6;\n\nimport \"./Billing.sol\";\nimport \"./Offering.sol\";\nimport \"@openzeppelin/contracts/access/Ownable.sol\";\n\n/**\n * @title This Smart Contract is the entry point of Timelapse.\n * @notice Communicate with API(server/watcher) part and dApp\n * @author Keeymon, DavidRochus\n */\ncontract Timelapse is Ownable {\n    /**\n     * @dev Customer Billing Activity\n     */\n    Billing public billing;\n\n    /**\n     * @dev Customer Offering Activity\n     */\n    Offering offering;\n\n    /**\n     * @dev Customer Activity\n     */\n    struct CustomerActivity {\n        string log;\n        uint256 timestamp;\n        string status;\n    }\n\n    /**\n     * @dev Invoice information\n     */\n    struct Invoice {\n        uint256 totalCapital;\n        uint256 totalInterest;\n    }\n\n    /**\n     * @dev Reporting information\n     */\n    struct Reporting {\n        uint256 offersCount;\n        uint256 acceptedOffersCount;\n        uint256 totalCapitalLoans;\n        uint256 totalInterestLoans;\n        uint256 closedTopupsCount;\n        uint256 totalCapitalGain;\n        uint256 totalInterestGain;\n        uint256 acceptanceTimestamp;\n        uint256 paidTimestamp;\n    }\n\n    /**\n     * @dev Smart Contract constructor\n     */\n    constructor(address _billingAddress, address _offeringAddress) {\n        billing = Billing(_billingAddress);\n        offering = Offering(_offeringAddress);\n    }\n\n    /**\n     * @notice Add a proposal\n     * @param _minScoring The minimum score needed by customer to receive this proposal\n     * @param _capital Capital part of the proposal amount\n     * @param _interest Interest part of the proposal amount\n     * @param _description A description of the proposal\n     * @dev Add a proposal with the following information: minimum scoring `_minScoring`, amount `_capital` + `_interest`, description `_description`\n     */\n    function addProposal(\n        uint8 _minScoring,\n        uint256 _capital,\n        uint256 _interest,\n        string memory _description\n    ) public onlyOwner {\n        offering.addProposal(_minScoring, _capital, _interest, _description);\n    }\n\n    /**\n     * @notice Close a proposal\n     * @param _id ID of the proposal to close\n     * @dev Close the proposal with the ID `_id`\n     */\n    function closeProposal(uint256 _id) public onlyOwner {\n        offering.closeProposal(_id);\n    }\n\n    /**\n     * @notice Increase scoring information of a customer\n     * @param _phoneHash The address that identifies to the customer\n     * @dev This function is directly called when API receives a topUp for a customer (identified with `_phoneHash`) with a target other than Timelapse\n     */\n    function addToScore(address _phoneHash) public onlyOwner {\n        billing.addToScore(_phoneHash);\n    }\n\n    /**\n     * @notice Accept the offer\n     * @param _phoneHash The address that identifies to the customer\n     * @param _ref Reference of the telecom provider\n     * @param _acceptanceTimestamp Timestamp of the acceptance\n     * @param _offerId ID of the offer\n     * @param _proposalId ID of the proposal\n     * @dev Accept the offer `_offerId` (By choosing proposal `_proposalId`) of a customer (identified with `_phoneHash`) with reference `_ref` at timestamp `_acceptanceTimestamp`\n     */\n    function acceptance(\n        address _phoneHash,\n        string memory _ref,\n        uint256 _acceptanceTimestamp,\n        uint256 _offerId,\n        uint256 _proposalId\n    ) public onlyOwner {\n        billing.acceptanceBilling(\n            _phoneHash,\n            _ref,\n            _acceptanceTimestamp,\n            offering.createProduct(\n                _phoneHash,\n                _acceptanceTimestamp,\n                _offerId,\n                _proposalId\n            )\n        );\n    }\n\n    /**\n     * @notice TopUp the last product of a customer\n     * @param _phoneHash The address that identifies to the customer\n     * @param _paidTimestamp Timestamp of the acceptance\n     * @dev TopUp the last product of a customer (identified with `_phoneHash`) at timestamp `_paidTimestamp`\n     */\n    function topUp(address _phoneHash, uint256 _paidTimestamp)\n        public\n        onlyOwner\n    {\n        (, , , , uint256 productId) = billing.histories(\n            billing.getCustomer(_phoneHash).lastAcceptanceID\n        );\n        (, , , uint256 proposalId, ) = offering.products(productId);\n        (, uint256 capital, uint256 interest, , , ) = offering.proposals(\n            proposalId\n        );\n        billing.addToCustomerAmount(_phoneHash, capital + interest);\n        billing.addToScore(_phoneHash);\n        billing.topUpBilling(_phoneHash, _paidTimestamp);\n    }\n\n    /**\n     * @notice Manage the \"low balances\" received and generate an offer\n     * @param _phoneHash The address that identifies to the customer\n     * @param _ref Reference of the telecom provider\n     * @dev Manage lowBalance (with reference `_ref`) of a customer (identified with `_phoneHash`)\n     */\n    function lowBalance(address _phoneHash, string memory _ref)\n        public\n        onlyOwner\n    {\n        offering.lowBalanceOffering(\n            _phoneHash,\n            _ref,\n            billing.getScore(_phoneHash)\n        );\n    }\n\n    /**\n     * @notice Get customer activities log\n     * @param _phoneHash The address that identifies to the customer\n     * @param _startTimestamp Start of the search timeframe\n     * @param _endTimestamp End of the search timeframe\n     * @return Score The computed customer score\n     * @dev Get activities log of a customer (identified with `_phoneHash`)\n     */\n    function getCustomerActivitiesLog(\n        address _phoneHash,\n        uint256 _startTimestamp,\n        uint256 _endTimestamp\n    ) public view returns (CustomerActivity[] memory) {\n        uint256 customerActivitiesSize;\n        uint256 customerActivitiesIndex;\n        for (uint8 i = 0; i < offering.getOfferSize(_phoneHash); i++) {\n            uint256 offeringIndex = offering.offerList(_phoneHash, i);\n            (, uint256 timestamp, , , ) = offering.offers(offeringIndex);\n            if (timestamp >= _startTimestamp && timestamp <= _endTimestamp) {\n                customerActivitiesSize++;\n            }\n        }\n        for (uint8 i = 0; i < billing.getHistorySize(_phoneHash); i++) {\n            uint256 historyIndex = billing.historyList(_phoneHash, i);\n            (, uint256 acceptanceTimestamp, uint256 paidTimestamp, , ) = billing\n            .histories(historyIndex);\n            if (\n                acceptanceTimestamp >= _startTimestamp &&\n                acceptanceTimestamp <= _endTimestamp\n            ) {\n                customerActivitiesSize++;\n            }\n            if (\n                paidTimestamp >= _startTimestamp &&\n                paidTimestamp <= _endTimestamp\n            ) {\n                customerActivitiesSize++;\n            }\n        }\n        CustomerActivity[] memory customerActivities = new CustomerActivity[](\n            customerActivitiesSize\n        );\n        for (uint8 i = 0; i < offering.getOfferSize(_phoneHash); i++) {\n            uint256 offeringIndex = offering.offerList(_phoneHash, i);\n            (, uint256 timestamp, , , ) = offering.offers(offeringIndex);\n            if (timestamp >= _startTimestamp && timestamp <= _endTimestamp) {\n                customerActivities[customerActivitiesIndex].log = \"Offer: \";\n                uint256 numberProposal = offering.getProposalOfferSize(\n                    offeringIndex\n                );\n                for (uint256 j = 0; j < numberProposal; j++) {\n                    (, , , , string memory description, ) = offering.proposals(\n                        offering.getIndexProposalOffer(offeringIndex, j)\n                    );\n                    if (j == 0) {\n                        customerActivities[customerActivitiesIndex]\n                        .log = string(\n                            abi.encodePacked(\n                                customerActivities[customerActivitiesIndex].log,\n                                description\n                            )\n                        );\n                    } else {\n                        customerActivities[customerActivitiesIndex]\n                        .log = string(\n                            abi.encodePacked(\n                                customerActivities[customerActivitiesIndex].log,\n                                \" / \",\n                                description\n                            )\n                        );\n                    }\n                }\n                customerActivities[customerActivitiesIndex]\n                .timestamp = timestamp;\n                customerActivities[customerActivitiesIndex].status = \"Offer\";\n                customerActivitiesIndex++;\n            }\n        }\n        for (uint256 i = 0; i < billing.getHistorySize(_phoneHash); i++) {\n            uint256 historyIndex = billing.historyList(_phoneHash, i);\n            (\n                ,\n                uint256 acceptanceTimestamp,\n                uint256 paidTimestamp,\n                ,\n                uint256 productId\n            ) = billing.histories(historyIndex);\n            (, , , uint256 proposalId, ) = offering.products(productId);\n            (, , , , string memory descriptionProposal, ) = offering.proposals(\n                proposalId\n            );\n            if (\n                acceptanceTimestamp >= _startTimestamp &&\n                acceptanceTimestamp <= _endTimestamp\n            ) {\n                customerActivities[customerActivitiesIndex].log = string(\n                    abi.encodePacked(\"Accepted: \", descriptionProposal)\n                );\n                customerActivities[customerActivitiesIndex]\n                .timestamp = acceptanceTimestamp;\n                customerActivities[customerActivitiesIndex].status = \"Accepted\";\n                customerActivitiesIndex++;\n            }\n            if (\n                paidTimestamp >= _startTimestamp &&\n                paidTimestamp <= _endTimestamp\n            ) {\n                customerActivities[customerActivitiesIndex].log = \"Topup\";\n                customerActivities[customerActivitiesIndex]\n                .timestamp = paidTimestamp;\n                customerActivities[customerActivitiesIndex].status = \"Closed\";\n                customerActivitiesIndex++;\n            }\n        }\n        return customerActivities;\n    }\n\n    /**\n     * @notice Generate invoicing for a given period\n     * @param _startTimestamp Start of the invoicing period\n     * @param _endTimestamp End of the invoicing period\n     * @return The invoice\n     * @dev Generate invoicing for a given period (between _startTimestamp and _endTimestamp)\n     */\n    function generateInvoicing(uint256 _startTimestamp, uint256 _endTimestamp)\n        public\n        view\n        returns (Invoice[] memory)\n    {\n        uint256 invoiceSize;\n        uint256 invoiceIndex;\n        bool outOfInvoicingWindow;\n        // In POC context, we will only use 1 global invoice. In the next phases, splitted invoice could be returned for a given period\n        invoiceSize = 1;\n        Invoice[] memory invoice = new Invoice[](invoiceSize);\n        for (\n            uint256 i = billing.getHistoriesSize();\n            i > 0 && !(outOfInvoicingWindow);\n            i--\n        ) {\n            (\n                ,\n                ,\n                uint256 paidTimestamp,\n                Billing.HistoryStatus status,\n                uint256 productId\n            ) = billing.histories(i - 1);\n            if (paidTimestamp != 0 && paidTimestamp < _startTimestamp) {\n                outOfInvoicingWindow = true;\n            }\n            if (\n                paidTimestamp >= _startTimestamp &&\n                paidTimestamp <= _endTimestamp &&\n                status == Billing.HistoryStatus.Closed\n            ) {\n                (, , , uint256 proposalId, ) = offering.products(productId);\n                (, uint256 capital, uint256 interest, , , ) = offering\n                .proposals(proposalId);\n                invoice[invoiceIndex].totalCapital += capital;\n                invoice[invoiceIndex].totalInterest += interest;\n            }\n        }\n        return invoice;\n    }\n\n    /**\n     * @notice Generate reporting for a given period\n     * @param _startTimestamp Start of the reporting period\n     * @param _endTimestamp End of the reporting period\n     * @return The reporting\n     * @dev Generate reporting for a given period (between _startTimestamp and _endTimestamp)\n     */\n    function generateReporting(uint256 _startTimestamp, uint256 _endTimestamp)\n        public\n        view\n        returns (Reporting[] memory)\n    {\n        uint256 reportingSize;\n        uint256 reportingIndex;\n        bool outOfReportingWindow1;\n        bool outOfReportingWindow2;\n        bool outOfReportingWindow3;\n        // In POC context, we will only use 1 global reporting. In the next phases, splitted reporting could be returned for a given period\n        reportingSize = 1;\n        Reporting[] memory reporting = new Reporting[](reportingSize);\n        for (\n            uint256 i = offering.getOffersSize();\n            i > 0 && !(outOfReportingWindow1);\n            i--\n        ) {\n            (, uint256 timestamp, , Offering.OfferStatus status, ) = offering\n            .offers(i - 1);\n            if (timestamp < _startTimestamp) {\n                outOfReportingWindow1 = true;\n            }\n            if (timestamp >= _startTimestamp && timestamp <= _endTimestamp) {\n                reporting[reportingIndex].offersCount += 1;\n                if (status == Offering.OfferStatus.Accepted) {\n                    reporting[reportingIndex].acceptedOffersCount += 1;\n                }\n            }\n        }\n        for (\n            uint256 i = billing.getHistoriesSize();\n            i > 0 && (!(outOfReportingWindow2) || !(outOfReportingWindow3));\n            i--\n        ) {\n            (\n                ,\n                uint256 acceptanceTimestamp,\n                uint256 paidTimestamp,\n                Billing.HistoryStatus status,\n                uint256 productId\n            ) = billing.histories(i - 1);\n            reporting[reportingIndex].acceptanceTimestamp = acceptanceTimestamp;\n            reporting[reportingIndex].paidTimestamp = paidTimestamp;\n            if (\n                acceptanceTimestamp != 0 &&\n                acceptanceTimestamp < _startTimestamp\n            ) {\n                outOfReportingWindow2 = true;\n            } else {\n                if (\n                    acceptanceTimestamp >= _startTimestamp &&\n                    acceptanceTimestamp <= _endTimestamp &&\n                    status == Billing.HistoryStatus.Active\n                ) {\n                    (, , , uint256 proposalId, ) = offering.products(productId);\n                    (, uint256 capital, uint256 interest, , , ) = offering\n                    .proposals(proposalId);\n                    reporting[reportingIndex].totalCapitalLoans += capital;\n                    reporting[reportingIndex].totalInterestLoans += interest;\n                }\n            }\n            if (paidTimestamp != 0 && paidTimestamp < _startTimestamp) {\n                outOfReportingWindow3 = true;\n            } else {\n                if (\n                    paidTimestamp >= _startTimestamp &&\n                    paidTimestamp <= _endTimestamp &&\n                    status == Billing.HistoryStatus.Closed\n                ) {\n                    (, , , uint256 proposalId, ) = offering.products(productId);\n                    (, uint256 capital, uint256 interest, , , ) = offering\n                    .proposals(proposalId);\n                    reporting[reportingIndex].closedTopupsCount += 1;\n                    reporting[reportingIndex].totalCapitalGain += capital;\n                    reporting[reportingIndex].totalInterestGain += interest;\n                }\n            }\n        }\n        return reporting;\n    }\n}\n",
  "sourcePath": "/Users/davidrochus/Dev/workspace/timelapse/contracts/Timelapse.sol",
  "compiler": {
    "name": "solc",
    "version": "0.8.6+commit.11564f7e.Emscripten.clang"
  },
  "schemaVersion": "3.4.1",
  "updatedAt": "2021-07-25T09:11:11.479Z",
  "networkType": "ethereum",
  "devdoc": {
    "author": "Keeymon, DavidRochus",
    "kind": "dev",
    "methods": {
      "acceptance(address,string,uint256,uint256,uint256)": {
        "details": "Accept the offer `_offerId` (By choosing proposal `_proposalId`) of a customer (identified with `_phoneHash`) with reference `_ref` at timestamp `_acceptanceTimestamp`",
        "params": {
          "_acceptanceTimestamp": "Timestamp of the acceptance",
          "_offerId": "ID of the offer",
          "_phoneHash": "The address that identifies to the customer",
          "_proposalId": "ID of the proposal",
          "_ref": "Reference of the telecom provider"
        }
      },
      "addProposal(uint8,uint256,uint256,string)": {
        "details": "Add a proposal with the following information: minimum scoring `_minScoring`, amount `_capital` + `_interest`, description `_description`",
        "params": {
          "_capital": "Capital part of the proposal amount",
          "_description": "A description of the proposal",
          "_interest": "Interest part of the proposal amount",
          "_minScoring": "The minimum score needed by customer to receive this proposal"
        }
      },
      "addToScore(address)": {
        "details": "This function is directly called when API receives a topUp for a customer (identified with `_phoneHash`) with a target other than Timelapse",
        "params": {
          "_phoneHash": "The address that identifies to the customer"
        }
      },
      "closeProposal(uint256)": {
        "details": "Close the proposal with the ID `_id`",
        "params": {
          "_id": "ID of the proposal to close"
        }
      },
      "constructor": {
        "details": "Smart Contract constructor"
      },
      "generateInvoicing(uint256,uint256)": {
        "details": "Generate invoicing for a given period (between _startTimestamp and _endTimestamp)",
        "params": {
          "_endTimestamp": "End of the invoicing period",
          "_startTimestamp": "Start of the invoicing period"
        },
        "returns": {
          "_0": "The invoice"
        }
      },
      "generateReporting(uint256,uint256)": {
        "details": "Generate reporting for a given period (between _startTimestamp and _endTimestamp)",
        "params": {
          "_endTimestamp": "End of the reporting period",
          "_startTimestamp": "Start of the reporting period"
        },
        "returns": {
          "_0": "The reporting"
        }
      },
      "getCustomerActivitiesLog(address,uint256,uint256)": {
        "details": "Get activities log of a customer (identified with `_phoneHash`)",
        "params": {
          "_endTimestamp": "End of the search timeframe",
          "_phoneHash": "The address that identifies to the customer",
          "_startTimestamp": "Start of the search timeframe"
        },
        "returns": {
          "_0": "Score The computed customer score"
        }
      },
      "lowBalance(address,string)": {
        "details": "Manage lowBalance (with reference `_ref`) of a customer (identified with `_phoneHash`)",
        "params": {
          "_phoneHash": "The address that identifies to the customer",
          "_ref": "Reference of the telecom provider"
        }
      },
      "owner()": {
        "details": "Returns the address of the current owner."
      },
      "renounceOwnership()": {
        "details": "Leaves the contract without owner. It will not be possible to call `onlyOwner` functions anymore. Can only be called by the current owner. NOTE: Renouncing ownership will leave the contract without an owner, thereby removing any functionality that is only available to the owner."
      },
      "topUp(address,uint256)": {
        "details": "TopUp the last product of a customer (identified with `_phoneHash`) at timestamp `_paidTimestamp`",
        "params": {
          "_paidTimestamp": "Timestamp of the acceptance",
          "_phoneHash": "The address that identifies to the customer"
        }
      },
      "transferOwnership(address)": {
        "details": "Transfers ownership of the contract to a new account (`newOwner`). Can only be called by the current owner."
      }
    },
    "stateVariables": {
      "billing": {
        "details": "Customer Billing Activity"
      },
      "offering": {
        "details": "Customer Offering Activity"
      }
    },
    "title": "This Smart Contract is the entry point of Timelapse.",
    "version": 1
  },
  "userdoc": {
    "kind": "user",
    "methods": {
      "acceptance(address,string,uint256,uint256,uint256)": {
        "notice": "Accept the offer"
      },
      "addProposal(uint8,uint256,uint256,string)": {
        "notice": "Add a proposal"
      },
      "addToScore(address)": {
        "notice": "Increase scoring information of a customer"
      },
      "closeProposal(uint256)": {
        "notice": "Close a proposal"
      },
      "generateInvoicing(uint256,uint256)": {
        "notice": "Generate invoicing for a given period"
      },
      "generateReporting(uint256,uint256)": {
        "notice": "Generate reporting for a given period"
      },
      "getCustomerActivitiesLog(address,uint256,uint256)": {
        "notice": "Get customer activities log"
      },
      "lowBalance(address,string)": {
        "notice": "Manage the \"low balances\" received and generate an offer"
      },
      "topUp(address,uint256)": {
        "notice": "TopUp the last product of a customer"
      }
    },
    "notice": "Communicate with API(server/watcher) part and dApp",
    "version": 1
  }
}