{
  "contractName": "Timelapse",
  "abi": [
    {
      "inputs": [],
      "stateMutability": "nonpayable",
      "type": "constructor"
    },
    {
      "anonymous": false,
      "inputs": [
        {
          "indexed": false,
          "internalType": "address",
          "name": "phoneHash",
          "type": "address"
        },
        {
          "indexed": false,
          "internalType": "uint256",
          "name": "offerId",
          "type": "uint256"
        },
        {
          "indexed": false,
          "internalType": "uint256",
          "name": "proposalId",
          "type": "uint256"
        }
      ],
      "name": "AcceptanceReceived",
      "type": "event"
    },
    {
      "anonymous": false,
      "inputs": [
        {
          "indexed": false,
          "internalType": "address",
          "name": "phoneHash",
          "type": "address"
        },
        {
          "indexed": false,
          "internalType": "string",
          "name": "ref",
          "type": "string"
        },
        {
          "indexed": false,
          "internalType": "uint256",
          "name": "acceptanceTimestamp",
          "type": "uint256"
        }
      ],
      "name": "AcceptanceReceived",
      "type": "event"
    },
    {
      "anonymous": false,
      "inputs": [
        {
          "indexed": false,
          "internalType": "address",
          "name": "phoneHash",
          "type": "address"
        },
        {
          "indexed": false,
          "internalType": "string",
          "name": "ref",
          "type": "string"
        }
      ],
      "name": "Acknowledge",
      "type": "event"
    },
    {
      "anonymous": false,
      "inputs": [
        {
          "indexed": false,
          "internalType": "address",
          "name": "phoneHash",
          "type": "address"
        },
        {
          "indexed": false,
          "internalType": "uint256",
          "name": "productId",
          "type": "uint256"
        },
        {
          "indexed": false,
          "internalType": "uint256",
          "name": "amount",
          "type": "uint256"
        }
      ],
      "name": "AcknowledgeSent",
      "type": "event"
    },
    {
      "anonymous": false,
      "inputs": [
        {
          "indexed": false,
          "internalType": "address",
          "name": "phoneHash",
          "type": "address"
        },
        {
          "indexed": false,
          "internalType": "string",
          "name": "ref",
          "type": "string"
        },
        {
          "indexed": false,
          "internalType": "uint256",
          "name": "acceptanceTimestamp",
          "type": "uint256"
        }
      ],
      "name": "Confirmation",
      "type": "event"
    },
    {
      "anonymous": false,
      "inputs": [
        {
          "indexed": false,
          "internalType": "uint256",
          "name": "productId",
          "type": "uint256"
        },
        {
          "indexed": false,
          "internalType": "uint256",
          "name": "offerId",
          "type": "uint256"
        },
        {
          "indexed": false,
          "internalType": "address",
          "name": "phoneHash",
          "type": "address"
        },
        {
          "indexed": false,
          "internalType": "uint256",
          "name": "timestamp",
          "type": "uint256"
        }
      ],
      "name": "ConfirmationSent",
      "type": "event"
    },
    {
      "anonymous": false,
      "inputs": [
        {
          "indexed": false,
          "internalType": "address",
          "name": "phoneHash",
          "type": "address"
        }
      ],
      "name": "CustomerIsDeleted",
      "type": "event"
    },
    {
      "anonymous": false,
      "inputs": [
        {
          "indexed": false,
          "internalType": "address",
          "name": "phoneHash",
          "type": "address"
        },
        {
          "indexed": false,
          "internalType": "string",
          "name": "ref",
          "type": "string"
        }
      ],
      "name": "LowBalanceReceived",
      "type": "event"
    },
    {
      "anonymous": false,
      "inputs": [
        {
          "indexed": false,
          "internalType": "uint256",
          "name": "offerId",
          "type": "uint256"
        },
        {
          "indexed": false,
          "internalType": "address",
          "name": "phoneHash",
          "type": "address"
        },
        {
          "indexed": false,
          "internalType": "uint256",
          "name": "timestamp",
          "type": "uint256"
        },
        {
          "indexed": false,
          "internalType": "enum Offering.EligibilityReason",
          "name": "reason",
          "type": "uint8"
        },
        {
          "indexed": false,
          "internalType": "uint256[]",
          "name": "proposals",
          "type": "uint256[]"
        },
        {
          "indexed": false,
          "internalType": "uint256",
          "name": "scoring",
          "type": "uint256"
        },
        {
          "indexed": false,
          "internalType": "string",
          "name": "ref",
          "type": "string"
        }
      ],
      "name": "OfferSent",
      "type": "event"
    },
    {
      "anonymous": false,
      "inputs": [
        {
          "indexed": true,
          "internalType": "address",
          "name": "previousOwner",
          "type": "address"
        },
        {
          "indexed": true,
          "internalType": "address",
          "name": "newOwner",
          "type": "address"
        }
      ],
      "name": "OwnershipTransferred",
      "type": "event"
    },
    {
      "anonymous": false,
      "inputs": [
        {
          "indexed": false,
          "internalType": "uint256",
          "name": "proposalId",
          "type": "uint256"
        },
        {
          "indexed": false,
          "internalType": "uint8",
          "name": "minScoring",
          "type": "uint8"
        },
        {
          "indexed": false,
          "internalType": "uint256",
          "name": "capital",
          "type": "uint256"
        },
        {
          "indexed": false,
          "internalType": "uint256",
          "name": "interest",
          "type": "uint256"
        },
        {
          "indexed": false,
          "internalType": "string",
          "name": "description",
          "type": "string"
        }
      ],
      "name": "ProposalAdded",
      "type": "event"
    },
    {
      "anonymous": false,
      "inputs": [
        {
          "indexed": false,
          "internalType": "address",
          "name": "phoneHash",
          "type": "address"
        },
        {
          "indexed": false,
          "internalType": "uint8",
          "name": "score",
          "type": "uint8"
        }
      ],
      "name": "ScoreChange",
      "type": "event"
    },
    {
      "anonymous": false,
      "inputs": [
        {
          "indexed": false,
          "internalType": "address",
          "name": "phoneHash",
          "type": "address"
        },
        {
          "indexed": false,
          "internalType": "uint256",
          "name": "productId",
          "type": "uint256"
        },
        {
          "indexed": false,
          "internalType": "uint256",
          "name": "amount",
          "type": "uint256"
        }
      ],
      "name": "TopUpReceived",
      "type": "event"
    },
    {
      "anonymous": false,
      "inputs": [
        {
          "indexed": false,
          "internalType": "address",
          "name": "phoneHash",
          "type": "address"
        },
        {
          "indexed": false,
          "internalType": "string",
          "name": "ref",
          "type": "string"
        }
      ],
      "name": "TopUpReceived",
      "type": "event"
    },
    {
      "inputs": [
        {
          "internalType": "address",
          "name": "_phoneHash",
          "type": "address"
        },
        {
          "internalType": "string",
          "name": "_ref",
          "type": "string"
        },
        {
          "internalType": "uint256",
          "name": "_acceptanceTimestamp",
          "type": "uint256"
        }
      ],
      "name": "acceptance",
      "outputs": [],
      "stateMutability": "nonpayable",
      "type": "function"
    },
    {
      "inputs": [
        {
          "internalType": "uint8",
          "name": "_minScoring",
          "type": "uint8"
        },
        {
          "internalType": "uint256",
          "name": "_capital",
          "type": "uint256"
        },
        {
          "internalType": "uint256",
          "name": "_interest",
          "type": "uint256"
        },
        {
          "internalType": "string",
          "name": "_description",
          "type": "string"
        }
      ],
      "name": "addProposal",
      "outputs": [],
      "stateMutability": "nonpayable",
      "type": "function"
    },
    {
      "inputs": [
        {
          "internalType": "address",
          "name": "_phoneHash",
          "type": "address"
        },
        {
          "internalType": "uint8",
          "name": "_score",
          "type": "uint8"
        }
      ],
      "name": "changeScore",
      "outputs": [],
      "stateMutability": "nonpayable",
      "type": "function"
    },
    {
      "inputs": [
        {
          "internalType": "uint256",
          "name": "_id",
          "type": "uint256"
        }
      ],
      "name": "closedProposal",
      "outputs": [],
      "stateMutability": "nonpayable",
      "type": "function"
    },
    {
      "inputs": [
        {
          "internalType": "address",
          "name": "",
          "type": "address"
        }
      ],
      "name": "customers",
      "outputs": [
        {
          "internalType": "enum Billing.CustomerStatus",
          "name": "status",
          "type": "uint8"
        },
        {
          "internalType": "uint8",
          "name": "score",
          "type": "uint8"
        }
      ],
      "stateMutability": "view",
      "type": "function"
    },
    {
      "inputs": [
        {
          "internalType": "uint8",
          "name": "_scoring",
          "type": "uint8"
        }
      ],
      "name": "getOfferProposals",
      "outputs": [
        {
          "internalType": "uint256[]",
          "name": "",
          "type": "uint256[]"
        }
      ],
      "stateMutability": "view",
      "type": "function"
    },
    {
      "inputs": [],
      "name": "getUniqueId",
      "outputs": [
        {
          "internalType": "address",
          "name": "",
          "type": "address"
        }
      ],
      "stateMutability": "nonpayable",
      "type": "function"
    },
    {
      "inputs": [
        {
          "internalType": "address",
          "name": "_phoneHash",
          "type": "address"
        }
      ],
      "name": "isActiveCustomer",
      "outputs": [
        {
          "internalType": "bool",
          "name": "",
          "type": "bool"
        }
      ],
      "stateMutability": "view",
      "type": "function"
    },
    {
      "inputs": [
        {
          "internalType": "uint256",
          "name": "",
          "type": "uint256"
        }
      ],
      "name": "offers",
      "outputs": [
        {
          "internalType": "address",
          "name": "phoneHash",
          "type": "address"
        },
        {
          "internalType": "uint256",
          "name": "timestamp",
          "type": "uint256"
        },
        {
          "internalType": "enum Offering.EligibilityReason",
          "name": "reason",
          "type": "uint8"
        },
        {
          "internalType": "enum Offering.OfferStatus",
          "name": "status",
          "type": "uint8"
        },
        {
          "internalType": "string",
          "name": "ref",
          "type": "string"
        }
      ],
      "stateMutability": "view",
      "type": "function"
    },
    {
      "inputs": [],
      "name": "owner",
      "outputs": [
        {
          "internalType": "address",
          "name": "",
          "type": "address"
        }
      ],
      "stateMutability": "view",
      "type": "function"
    },
    {
      "inputs": [
        {
          "internalType": "uint256",
          "name": "_previousScore",
          "type": "uint256"
        },
        {
          "internalType": "uint256",
          "name": "_acceptanceTimestamp",
          "type": "uint256"
        },
        {
          "internalType": "uint256",
          "name": "_paidTimestamp",
          "type": "uint256"
        }
      ],
      "name": "process",
      "outputs": [
        {
          "internalType": "uint8",
          "name": "",
          "type": "uint8"
        }
      ],
      "stateMutability": "view",
      "type": "function"
    },
    {
      "inputs": [
        {
          "internalType": "uint256",
          "name": "",
          "type": "uint256"
        }
      ],
      "name": "products",
      "outputs": [
        {
          "internalType": "address",
          "name": "phoneHash",
          "type": "address"
        },
        {
          "internalType": "uint256",
          "name": "timestamp",
          "type": "uint256"
        },
        {
          "internalType": "uint256",
          "name": "offerId",
          "type": "uint256"
        },
        {
          "internalType": "uint256",
          "name": "proposalId",
          "type": "uint256"
        },
        {
          "internalType": "uint256",
          "name": "topUpAmount",
          "type": "uint256"
        },
        {
          "internalType": "enum Offering.ProductStatus",
          "name": "status",
          "type": "uint8"
        }
      ],
      "stateMutability": "view",
      "type": "function"
    },
    {
      "inputs": [
        {
          "internalType": "uint256",
          "name": "",
          "type": "uint256"
        }
      ],
      "name": "proposals",
      "outputs": [
        {
          "internalType": "uint8",
          "name": "minScoring",
          "type": "uint8"
        },
        {
          "internalType": "uint256",
          "name": "capital",
          "type": "uint256"
        },
        {
          "internalType": "uint256",
          "name": "interest",
          "type": "uint256"
        },
        {
          "internalType": "uint256",
          "name": "validityPeriod",
          "type": "uint256"
        },
        {
          "internalType": "string",
          "name": "description",
          "type": "string"
        },
        {
          "internalType": "enum Offering.ProposalStatus",
          "name": "status",
          "type": "uint8"
        }
      ],
      "stateMutability": "view",
      "type": "function"
    },
    {
      "inputs": [],
      "name": "proposalsCount",
      "outputs": [
        {
          "internalType": "uint256",
          "name": "",
          "type": "uint256"
        }
      ],
      "stateMutability": "view",
      "type": "function"
    },
    {
      "inputs": [],
      "name": "renounceOwnership",
      "outputs": [],
      "stateMutability": "nonpayable",
      "type": "function"
    },
    {
      "inputs": [
        {
          "internalType": "address",
          "name": "_phoneHash",
          "type": "address"
        },
        {
          "internalType": "uint256",
          "name": "_paidTimestamp",
          "type": "uint256"
        }
      ],
      "name": "topUpBilling",
      "outputs": [],
      "stateMutability": "nonpayable",
      "type": "function"
    },
    {
      "inputs": [
        {
          "internalType": "address",
          "name": "newOwner",
          "type": "address"
        }
      ],
      "name": "transferOwnership",
      "outputs": [],
      "stateMutability": "nonpayable",
      "type": "function"
    },
    {
      "inputs": [
        {
          "internalType": "address",
          "name": "_phoneHash",
          "type": "address"
        },
        {
          "internalType": "uint256",
          "name": "_acceptanceTimestamp",
          "type": "uint256"
        },
        {
          "internalType": "uint256",
          "name": "_paidTimestamp",
          "type": "uint256"
        }
      ],
      "name": "addToScore",
      "outputs": [],
      "stateMutability": "nonpayable",
      "type": "function"
    },
    {
      "inputs": [
        {
          "internalType": "address",
          "name": "_phoneHash",
          "type": "address"
        },
        {
          "internalType": "uint256",
          "name": "_paidTimestamp",
          "type": "uint256"
        }
      ],
      "name": "topUp",
      "outputs": [],
      "stateMutability": "nonpayable",
      "type": "function"
    },
    {
      "inputs": [],
      "name": "lowBalance",
      "outputs": [],
      "stateMutability": "nonpayable",
      "type": "function"
    },
    {
      "inputs": [
        {
          "internalType": "address",
          "name": "_phoneHash",
          "type": "address"
        },
        {
          "internalType": "string",
          "name": "_ref",
          "type": "string"
        },
        {
          "internalType": "uint8",
          "name": "_score",
          "type": "uint8"
        }
      ],
      "name": "lowBalance",
      "outputs": [],
      "stateMutability": "nonpayable",
      "type": "function"
    }
  ],
  "bytecode": "0x608060405260006002553480156200001657600080fd5b50620000376200002b6200003d60201b60201c565b6200004560201b60201c565b62000109565b600033905090565b60008060009054906101000a900473ffffffffffffffffffffffffffffffffffffffff169050816000806101000a81548173ffffffffffffffffffffffffffffffffffffffff021916908373ffffffffffffffffffffffffffffffffffffffff1602179055508173ffffffffffffffffffffffffffffffffffffffff168173ffffffffffffffffffffffffffffffffffffffff167f8be0079c531659141344cd1fd0a4f28419497f9722a3daafe3b4186f6b6457e060405160405180910390a35050565b6130c280620001196000396000f3fe608060405234801561001057600080fd5b50600436106101375760003560e01c80637acc0b20116100b85780638da5cb5b1161007c5780638da5cb5b146103455780639ef91d9114610363578063ab63d7f214610393578063bdcf208c146103b1578063d6f7ddf9146103cd578063f2fde38b146103e957610137565b80637acc0b20146102745780637c99f6a6146102a95780637f61479d146102d9578063898ebe58146102f55780638a72ea6a1461031157610137565b806345df7779116100ff57806345df7779146101e657806346747b381461020257806347466dc3146102325780635a7529df1461024e578063715018a61461026a57610137565b8063013cf08b1461013c5780630a9f46ad14610171578063110afc491461018f578063336989ae146101995780633ef3e0cb146101ca575b600080fd5b610156600480360381019061015191906121db565b610405565b604051610168969594939291906129ec565b60405180910390f35b6101796104f3565b60405161018691906128df565b60405180910390f35b610197610500565b005b6101b360048036038101906101ae9190611ffd565b610502565b6040516101c19291906127f6565b60405180910390f35b6101e460048036038101906101df919061219b565b610540565b005b61020060048036038101906101fb9190612108565b6106a3565b005b61021c6004803603810190610217919061225b565b610cc0565b60405161022991906127b9565b60405180910390f35b61024c600480360381019061024791906121db565b610e38565b005b61026860048036038101906102639190612099565b610f4e565b005b61027261119f565b005b61028e600480360381019061028991906121db565b611227565b6040516102a09695949392919061272f565b60405180910390f35b6102c360048036038101906102be9190612208565b6112a0565b6040516102d091906129d1565b60405180910390f35b6102f360048036038101906102ee919061202a565b6112ae565b005b61030f600480360381019061030a9190612148565b6114e4565b005b61032b600480360381019061032691906121db565b611683565b60405161033c9594939291906126d5565b60405180910390f35b61034d61178b565b60405161035a919061261c565b60405180910390f35b61037d60048036038101906103789190611ffd565b6117b4565b60405161038a91906127db565b60405180910390f35b61039b611841565b6040516103a8919061261c565b60405180910390f35b6103cb60048036038101906103c69190612288565b611890565b005b6103e760048036038101906103e29190612108565b611a95565b005b61040360048036038101906103fe9190611ffd565b611bdf565b005b6004818154811061041557600080fd5b90600052602060002090600602016000915090508060000160009054906101000a900460ff169080600101549080600201549080600301549080600401805461045d90612caa565b80601f016020809104026020016040519081016040528092919081815260200182805461048990612caa565b80156104d65780601f106104ab576101008083540402835291602001916104d6565b820191906000526020600020905b8154815290600101906020018083116104b957829003601f168201915b5050505050908060050160009054906101000a900460ff16905086565b6000600480549050905090565b565b60016020528060005260406000206000915090508060000160009054906101000a900460ff16908060000160019054906101000a900460ff16905082565b610548611cd7565b73ffffffffffffffffffffffffffffffffffffffff1661056661178b565b73ffffffffffffffffffffffffffffffffffffffff16146105bc576040517f08c379a00000000000000000000000000000000000000000000000000000000081526004016105b39061289f565b60405180910390fd5b80600160008473ffffffffffffffffffffffffffffffffffffffff1673ffffffffffffffffffffffffffffffffffffffff16815260200190815260200160002060000160016101000a81548160ff021916908360ff1602179055507f67300a8a7a64e6ba305144189169d4bf615482b42e8fd241a6c5fc20879374a782600160008573ffffffffffffffffffffffffffffffffffffffff1673ffffffffffffffffffffffffffffffffffffffff16815260200190815260200160002060000160019054906101000a900460ff16604051610697929190612790565b60405180910390a15050565b6106ab611cd7565b73ffffffffffffffffffffffffffffffffffffffff166106c961178b565b73ffffffffffffffffffffffffffffffffffffffff161461071f576040517f08c379a00000000000000000000000000000000000000000000000000000000081526004016107169061289f565b60405180910390fd5b816000600181111561073457610733612db3565b5b600160008373ffffffffffffffffffffffffffffffffffffffff1673ffffffffffffffffffffffffffffffffffffffff16815260200190815260200160002060000160009054906101000a900460ff16600181111561079657610795612db3565b5b146107d6576040517f08c379a00000000000000000000000000000000000000000000000000000000081526004016107cd906128bf565b60405180910390fd5b600060018060008673ffffffffffffffffffffffffffffffffffffffff1673ffffffffffffffffffffffffffffffffffffffff168152602001908152602001600020600101805490506108299190612b14565b90506000600160008673ffffffffffffffffffffffffffffffffffffffff1673ffffffffffffffffffffffffffffffffffffffff16815260200190815260200160002060010180549050116108b3576040517f08c379a00000000000000000000000000000000000000000000000000000000081526004016108aa9061287f565b60405180910390fd5b600060018111156108c7576108c6612db3565b5b600160008673ffffffffffffffffffffffffffffffffffffffff1673ffffffffffffffffffffffffffffffffffffffff168152602001908152602001600020600101828154811061091b5761091a612e11565b5b906000526020600020906004020160020160009054906101000a900460ff16600181111561094c5761094b612db3565b5b1461098c576040517f08c379a00000000000000000000000000000000000000000000000000000000081526004016109839061281f565b60405180910390fd5b7fa3a756c9361873f5cd34cb71ba3b6ebc76b90321aa2767387c016991dfb4f63a84600160008773ffffffffffffffffffffffffffffffffffffffff1673ffffffffffffffffffffffffffffffffffffffff1681526020019081526020016000206001018381548110610a0257610a01612e11565b5b9060005260206000209060040201600301604051610a219291906126a5565b60405180910390a182600160008673ffffffffffffffffffffffffffffffffffffffff1673ffffffffffffffffffffffffffffffffffffffff1681526020019081526020016000206001018281548110610a7e57610a7d612e11565b5b90600052602060002090600402016001018190555060018060008673ffffffffffffffffffffffffffffffffffffffff1673ffffffffffffffffffffffffffffffffffffffff1681526020019081526020016000206001018281548110610ae857610ae7612e11565b5b906000526020600020906004020160020160006101000a81548160ff02191690836001811115610b1b57610b1a612db3565b5b02179055506000600160008673ffffffffffffffffffffffffffffffffffffffff1673ffffffffffffffffffffffffffffffffffffffff16815260200190815260200160002060000160019054906101000a900460ff1660ff161415610c1d5760018060008673ffffffffffffffffffffffffffffffffffffffff1673ffffffffffffffffffffffffffffffffffffffff16815260200190815260200160002060000160006101000a81548160ff02191690836001811115610be057610bdf612db3565b5b02179055507f1eacdda6365a7f824e9b515212eda6b8fb050f25bc505f857ac21c025a64e6f184604051610c14919061261c565b60405180910390a15b7fd3866d48a40f2de06c735e96a984d47ce6783b334002603c31e3f4bc05bd51c584600160008773ffffffffffffffffffffffffffffffffffffffff1673ffffffffffffffffffffffffffffffffffffffff1681526020019081526020016000206001018381548110610c9357610c92612e11565b5b9060005260206000209060040201600301604051610cb29291906126a5565b60405180910390a150505050565b60606000600367ffffffffffffffff811115610cdf57610cde612e40565b5b604051908082528060200260200182016040528015610d0d5781602001602082028036833780820191505090505b5090506000808460ff161415610d27578192505050610e33565b6000600190505b60048054905081108015610d425750600382105b15610e2c5760006001811115610d5b57610d5a612db3565b5b60048281548110610d6f57610d6e612e11565b5b906000526020600020906006020160050160009054906101000a900460ff166001811115610da057610d9f612db3565b5b148015610de5575060048181548110610dbc57610dbb612e11565b5b906000526020600020906006020160000160009054906101000a900460ff1660ff168560ff1610155b15610e195780838381518110610dfe57610dfd612e11565b5b6020026020010181815250508180610e1590612d0d565b9250505b8080610e2490612d0d565b915050610d2e565b5081925050505b919050565b610e40611cd7565b73ffffffffffffffffffffffffffffffffffffffff16610e5e61178b565b73ffffffffffffffffffffffffffffffffffffffff1614610eb4576040517f08c379a0000000000000000000000000000000000000000000000000000000008152600401610eab9061289f565b60405180910390fd5b806004805490508110610efc576040517f08c379a0000000000000000000000000000000000000000000000000000000008152600401610ef39061283f565b60405180910390fd5b600160048381548110610f1257610f11612e11565b5b906000526020600020906006020160050160006101000a81548160ff02191690836001811115610f4557610f44612db3565b5b02179055505050565b7f251fc0df7e56c36cfc4f618ef67296b8e2c41ce1ce473e5187bfec66743b38d38383604051610f7f929190612637565b60405180910390a1610f8f611da3565b83816000019073ffffffffffffffffffffffffffffffffffffffff16908173ffffffffffffffffffffffffffffffffffffffff168152505042816020018181525050600081608001906001811115610fea57610fe9612db3565b5b90816001811115610ffe57610ffd612db3565b5b8152505061100b82610cc0565b8160600181905250828160a00181905250600381908060018154018082558091505060019003906000526020600020906006020160009091909190915060008201518160000160006101000a81548173ffffffffffffffffffffffffffffffffffffffff021916908373ffffffffffffffffffffffffffffffffffffffff1602179055506020820151816001015560408201518160020160006101000a81548160ff021916908360048111156110c4576110c3612db3565b5b021790555060608201518160030190805190602001906110e5929190611e13565b5060808201518160040160006101000a81548160ff0219169083600181111561111157611110612db3565b5b021790555060a0820151816005019080519060200190611132929190611e60565b5050507f6a2d36566113fdc14dbc5b9458a0ba3a3eb54e394c2eb29fb26efdfee664f55e60016003805490506111689190612b14565b8260000151836020015184604001518560600151878960405161119197969594939291906128fa565b60405180910390a150505050565b6111a7611cd7565b73ffffffffffffffffffffffffffffffffffffffff166111c561178b565b73ffffffffffffffffffffffffffffffffffffffff161461121b576040517f08c379a00000000000000000000000000000000000000000000000000000000081526004016112129061289f565b60405180910390fd5b6112256000611cdf565b565b6005818154811061123757600080fd5b90600052602060002090600602016000915090508060000160009054906101000a900473ffffffffffffffffffffffffffffffffffffffff16908060010154908060020154908060030154908060040154908060050160009054906101000a900460ff16905086565b600080809150509392505050565b82600060018111156112c3576112c2612db3565b5b600160008373ffffffffffffffffffffffffffffffffffffffff1673ffffffffffffffffffffffffffffffffffffffff16815260200190815260200160002060000160009054906101000a900460ff16600181111561132557611324612db3565b5b14611365576040517f08c379a000000000000000000000000000000000000000000000000000000000815260040161135c906128bf565b60405180910390fd5b7fd9b8c2cc3eb9a560bd0f08689340a119d3b98b77fd516a8a3f728493d18dc59b84848460405161139893929190612667565b60405180910390a1600160008573ffffffffffffffffffffffffffffffffffffffff1673ffffffffffffffffffffffffffffffffffffffff1681526020019081526020016000206001016040518060800160405280848152602001600081526020016000600181111561140e5761140d612db3565b5b8152602001858152509080600181540180825580915050600190039060005260206000209060040201600090919091909150600082015181600001556020820151816001015560408201518160020160006101000a81548160ff0219169083600181111561147f5761147e612db3565b5b021790555060608201518160030190805190602001906114a0929190611e60565b5050507f814b246d1dad06f336e34264a3a1dab47d4b041329e5d0dd774e9cb108d462898484846040516114d693929190612667565b60405180910390a150505050565b6114ec611cd7565b73ffffffffffffffffffffffffffffffffffffffff1661150a61178b565b73ffffffffffffffffffffffffffffffffffffffff1614611560576040517f08c379a00000000000000000000000000000000000000000000000000000000081526004016115579061289f565b60405180910390fd5b826000600181111561157557611574612db3565b5b600160008373ffffffffffffffffffffffffffffffffffffffff1673ffffffffffffffffffffffffffffffffffffffff16815260200190815260200160002060000160009054906101000a900460ff1660018111156115d7576115d6612db3565b5b14611617576040517f08c379a000000000000000000000000000000000000000000000000000000000815260040161160e906128bf565b60405180910390fd5b61167d84611678600160008873ffffffffffffffffffffffffffffffffffffffff1673ffffffffffffffffffffffffffffffffffffffff16815260200190815260200160002060000160019054906101000a900460ff1660ff1686866112a0565b610540565b50505050565b6003818154811061169357600080fd5b90600052602060002090600602016000915090508060000160009054906101000a900473ffffffffffffffffffffffffffffffffffffffff16908060010154908060020160009054906101000a900460ff16908060040160009054906101000a900460ff169080600501805461170890612caa565b80601f016020809104026020016040519081016040528092919081815260200182805461173490612caa565b80156117815780601f1061175657610100808354040283529160200191611781565b820191906000526020600020905b81548152906001019060200180831161176457829003601f168201915b5050505050905085565b60008060009054906101000a900473ffffffffffffffffffffffffffffffffffffffff16905090565b60008060018111156117c9576117c8612db3565b5b600160008473ffffffffffffffffffffffffffffffffffffffff1673ffffffffffffffffffffffffffffffffffffffff16815260200190815260200160002060000160009054906101000a900460ff16600181111561182b5761182a612db3565b5b1461183757600061183a565b60015b9050919050565b60006002600081548092919061185690612d0d565b91905055504233600254604051602001611872939291906125df565b6040516020818303038152906040528051906020012060601c905090565b611898611cd7565b73ffffffffffffffffffffffffffffffffffffffff166118b661178b565b73ffffffffffffffffffffffffffffffffffffffff161461190c576040517f08c379a00000000000000000000000000000000000000000000000000000000081526004016119039061289f565b60405180910390fd5b611914611ee6565b84816000019060ff16908160ff1681525050838160200181815250508281604001818152505081816080018190525060008160a00190600181111561195c5761195b612db3565b5b908160018111156119705761196f612db3565b5b81525050600481908060018154018082558091505060019003906000526020600020906006020160009091909190915060008201518160000160006101000a81548160ff021916908360ff16021790555060208201518160010155604082015181600201556060820151816003015560808201518160040190805190602001906119fb929190611e60565b5060a08201518160050160006101000a81548160ff02191690836001811115611a2757611a26612db3565b5b021790555050507f0dd92ec7c9e4620459d0f39f48975327d855d61513c1e839e5ae03d1ca7644726001600480549050611a619190612b14565b8260000151836020015184604001518560800151604051611a86959493929190612977565b60405180910390a15050505050565b611a9d611cd7565b73ffffffffffffffffffffffffffffffffffffffff16611abb61178b565b73ffffffffffffffffffffffffffffffffffffffff1614611b11576040517f08c379a0000000000000000000000000000000000000000000000000000000008152600401611b089061289f565b60405180910390fd5b611bd182600160008573ffffffffffffffffffffffffffffffffffffffff1673ffffffffffffffffffffffffffffffffffffffff16815260200190815260200160002060010160018060008773ffffffffffffffffffffffffffffffffffffffff1673ffffffffffffffffffffffffffffffffffffffff16815260200190815260200160002060010180549050611ba89190612b14565b81548110611bb957611bb8612e11565b5b906000526020600020906004020160000154836114e4565b611bdb82826106a3565b5050565b611be7611cd7565b73ffffffffffffffffffffffffffffffffffffffff16611c0561178b565b73ffffffffffffffffffffffffffffffffffffffff1614611c5b576040517f08c379a0000000000000000000000000000000000000000000000000000000008152600401611c529061289f565b60405180910390fd5b600073ffffffffffffffffffffffffffffffffffffffff168173ffffffffffffffffffffffffffffffffffffffff161415611ccb576040517f08c379a0000000000000000000000000000000000000000000000000000000008152600401611cc29061285f565b60405180910390fd5b611cd481611cdf565b50565b600033905090565b60008060009054906101000a900473ffffffffffffffffffffffffffffffffffffffff169050816000806101000a81548173ffffffffffffffffffffffffffffffffffffffff021916908373ffffffffffffffffffffffffffffffffffffffff1602179055508173ffffffffffffffffffffffffffffffffffffffff168173ffffffffffffffffffffffffffffffffffffffff167f8be0079c531659141344cd1fd0a4f28419497f9722a3daafe3b4186f6b6457e060405160405180910390a35050565b6040518060c00160405280600073ffffffffffffffffffffffffffffffffffffffff1681526020016000815260200160006004811115611de657611de5612db3565b5b81526020016060815260200160006001811115611e0657611e05612db3565b5b8152602001606081525090565b828054828255906000526020600020908101928215611e4f579160200282015b82811115611e4e578251825591602001919060010190611e33565b5b509050611e5c9190611f31565b5090565b828054611e6c90612caa565b90600052602060002090601f016020900481019282611e8e5760008555611ed5565b82601f10611ea757805160ff1916838001178555611ed5565b82800160010185558215611ed5579182015b82811115611ed4578251825591602001919060010190611eb9565b5b509050611ee29190611f31565b5090565b6040518060c00160405280600060ff1681526020016000815260200160008152602001600081526020016060815260200160006001811115611f2b57611f2a612db3565b5b81525090565b5b80821115611f4a576000816000905550600101611f32565b5090565b6000611f61611f5c84612a79565b612a54565b905082815260208101848484011115611f7d57611f7c612e74565b5b611f88848285612c68565b509392505050565b600081359050611f9f81613047565b92915050565b600082601f830112611fba57611fb9612e6f565b5b8135611fca848260208601611f4e565b91505092915050565b600081359050611fe28161305e565b92915050565b600081359050611ff781613075565b92915050565b60006020828403121561201357612012612e7e565b5b600061202184828501611f90565b91505092915050565b60008060006060848603121561204357612042612e7e565b5b600061205186828701611f90565b935050602084013567ffffffffffffffff81111561207257612071612e79565b5b61207e86828701611fa5565b925050604061208f86828701611fd3565b9150509250925092565b6000806000606084860312156120b2576120b1612e7e565b5b60006120c086828701611f90565b935050602084013567ffffffffffffffff8111156120e1576120e0612e79565b5b6120ed86828701611fa5565b92505060406120fe86828701611fe8565b9150509250925092565b6000806040838503121561211f5761211e612e7e565b5b600061212d85828601611f90565b925050602061213e85828601611fd3565b9150509250929050565b60008060006060848603121561216157612160612e7e565b5b600061216f86828701611f90565b935050602061218086828701611fd3565b925050604061219186828701611fd3565b9150509250925092565b600080604083850312156121b2576121b1612e7e565b5b60006121c085828601611f90565b92505060206121d185828601611fe8565b9150509250929050565b6000602082840312156121f1576121f0612e7e565b5b60006121ff84828501611fd3565b91505092915050565b60008060006060848603121561222157612220612e7e565b5b600061222f86828701611fd3565b935050602061224086828701611fd3565b925050604061225186828701611fd3565b9150509250925092565b60006020828403121561227157612270612e7e565b5b600061227f84828501611fe8565b91505092915050565b600080600080608085870312156122a2576122a1612e7e565b5b60006122b087828801611fe8565b94505060206122c187828801611fd3565b93505060406122d287828801611fd3565b925050606085013567ffffffffffffffff8111156122f3576122f2612e79565b5b6122ff87828801611fa5565b91505092959194509250565b6000612317838361258c565b60208301905092915050565b61232c81612b48565b82525050565b61234361233e82612b48565b612d56565b82525050565b600061235482612acf565b61235e8185612af2565b935061236983612aaa565b8060005b8381101561239a578151612381888261230b565b975061238c83612ae5565b92505060018101905061236d565b5085935050505092915050565b6123b081612b5a565b82525050565b6123bf81612bfc565b82525050565b6123ce81612c0e565b82525050565b6123dd81612c20565b82525050565b6123ec81612c32565b82525050565b6123fb81612c44565b82525050565b600061240c82612ada565b6124168185612b03565b9350612426818560208601612c77565b61242f81612e83565b840191505092915050565b6000815461244781612caa565b6124518186612b03565b9450600182166000811461246c576001811461247e576124b1565b60ff19831686526020860193506124b1565b61248785612aba565b60005b838110156124a95781548189015260018201915060208101905061248a565b808801955050505b50505092915050565b60006124c7602583612b03565b91506124d282612ea1565b604082019050919050565b60006124ea601683612b03565b91506124f582612ef0565b602082019050919050565b600061250d602683612b03565b915061251882612f19565b604082019050919050565b6000612530601783612b03565b915061253b82612f68565b602082019050919050565b6000612553602083612b03565b915061255e82612f91565b602082019050919050565b6000612576601083612b03565b915061258182612fba565b602082019050919050565b61259581612be5565b82525050565b6125a481612be5565b82525050565b6125bb6125b682612be5565b612d7a565b82525050565b6125ca81612c56565b82525050565b6125d981612bef565b82525050565b60006125eb82866125aa565b6020820191506125fb8285612332565b60148201915061260b82846125aa565b602082019150819050949350505050565b60006020820190506126316000830184612323565b92915050565b600060408201905061264c6000830185612323565b818103602083015261265e8184612401565b90509392505050565b600060608201905061267c6000830186612323565b818103602083015261268e8185612401565b905061269d604083018461259b565b949350505050565b60006040820190506126ba6000830185612323565b81810360208301526126cc818461243a565b90509392505050565b600060a0820190506126ea6000830188612323565b6126f7602083018761259b565b61270460408301866123c5565b61271160608301856123d4565b81810360808301526127238184612401565b90509695505050505050565b600060c0820190506127446000830189612323565b612751602083018861259b565b61275e604083018761259b565b61276b606083018661259b565b612778608083018561259b565b61278560a08301846123e3565b979650505050505050565b60006040820190506127a56000830185612323565b6127b260208301846125d0565b9392505050565b600060208201905081810360008301526127d38184612349565b905092915050565b60006020820190506127f060008301846123a7565b92915050565b600060408201905061280b60008301856123b6565b61281860208301846125d0565b9392505050565b60006020820190508181036000830152612838816124ba565b9050919050565b60006020820190508181036000830152612858816124dd565b9050919050565b6000602082019050818103600083015261287881612500565b9050919050565b6000602082019050818103600083015261289881612523565b9050919050565b600060208201905081810360008301526128b881612546565b9050919050565b600060208201905081810360008301526128d881612569565b9050919050565b60006020820190506128f4600083018461259b565b92915050565b600060e08201905061290f600083018a61259b565b61291c6020830189612323565b612929604083018861259b565b61293660608301876123c5565b81810360808301526129488186612349565b905061295760a08301856125c1565b81810360c08301526129698184612401565b905098975050505050505050565b600060a08201905061298c600083018861259b565b61299960208301876125d0565b6129a6604083018661259b565b6129b3606083018561259b565b81810360808301526129c58184612401565b90509695505050505050565b60006020820190506129e660008301846125d0565b92915050565b600060c082019050612a0160008301896125d0565b612a0e602083018861259b565b612a1b604083018761259b565b612a28606083018661259b565b8181036080830152612a3a8185612401565b9050612a4960a08301846123f2565b979650505050505050565b6000612a5e612a6f565b9050612a6a8282612cdc565b919050565b6000604051905090565b600067ffffffffffffffff821115612a9457612a93612e40565b5b612a9d82612e83565b9050602081019050919050565b6000819050602082019050919050565b60008190508160005260206000209050919050565b600081519050919050565b600081519050919050565b6000602082019050919050565b600082825260208201905092915050565b600082825260208201905092915050565b6000612b1f82612be5565b9150612b2a83612be5565b925082821015612b3d57612b3c612d84565b5b828203905092915050565b6000612b5382612bc5565b9050919050565b60008115159050919050565b6000819050612b7482612fe3565b919050565b6000819050612b8782612ff7565b919050565b6000819050612b9a8261300b565b919050565b6000819050612bad8261301f565b919050565b6000819050612bc082613033565b919050565b600073ffffffffffffffffffffffffffffffffffffffff82169050919050565b6000819050919050565b600060ff82169050919050565b6000612c0782612b66565b9050919050565b6000612c1982612b79565b9050919050565b6000612c2b82612b8c565b9050919050565b6000612c3d82612b9f565b9050919050565b6000612c4f82612bb2565b9050919050565b6000612c6182612bef565b9050919050565b82818337600083830152505050565b60005b83811015612c95578082015181840152602081019050612c7a565b83811115612ca4576000848401525b50505050565b60006002820490506001821680612cc257607f821691505b60208210811415612cd657612cd5612de2565b5b50919050565b612ce582612e83565b810181811067ffffffffffffffff82111715612d0457612d03612e40565b5b80604052505050565b6000612d1882612be5565b91507fffffffffffffffffffffffffffffffffffffffffffffffffffffffffffffffff821415612d4b57612d4a612d84565b5b600182019050919050565b6000612d6182612d68565b9050919050565b6000612d7382612e94565b9050919050565b6000819050919050565b7f4e487b7100000000000000000000000000000000000000000000000000000000600052601160045260246000fd5b7f4e487b7100000000000000000000000000000000000000000000000000000000600052602160045260246000fd5b7f4e487b7100000000000000000000000000000000000000000000000000000000600052602260045260246000fd5b7f4e487b7100000000000000000000000000000000000000000000000000000000600052603260045260246000fd5b7f4e487b7100000000000000000000000000000000000000000000000000000000600052604160045260246000fd5b600080fd5b600080fd5b600080fd5b600080fd5b6000601f19601f8301169050919050565b60008160601b9050919050565b7f54686520637573746f6d657220686173206e6f2070726f6475637420746f207260008201527f6566756e64000000000000000000000000000000000000000000000000000000602082015250565b7f50726f706f73616c20646f65736e277420657869737400000000000000000000600082015250565b7f4f776e61626c653a206e6577206f776e657220697320746865207a65726f206160008201527f6464726573730000000000000000000000000000000000000000000000000000602082015250565b7f50686f6e65206973206e6f742072656769737465726564000000000000000000600082015250565b7f4f776e61626c653a2063616c6c6572206973206e6f7420746865206f776e6572600082015250565b7f426c6f636b656420637573746f6d657200000000000000000000000000000000600082015250565b60028110612ff457612ff3612db3565b5b50565b6005811061300857613007612db3565b5b50565b6002811061301c5761301b612db3565b5b50565b600281106130305761302f612db3565b5b50565b6002811061304457613043612db3565b5b50565b61305081612b48565b811461305b57600080fd5b50565b61306781612be5565b811461307257600080fd5b50565b61307e81612bef565b811461308957600080fd5b5056fea264697066735822122078234024c87245ce601c7a49ebda8d2d2160e1df01fc12e727d56bf0cdc4ca8764736f6c63430008060033",
  "immutableReferences": {},
  "source": "// SPDX-License-Identifier: MIT\npragma solidity ^0.8.6;\n\nimport \"./Billing.sol\";\nimport \"./Offering.sol\";\nimport \"@openzeppelin/contracts/access/Ownable.sol\";\n\ncontract Timelapse is Ownable, Billing, Offering {\n\n    constructor() {}\n\n    function addToScore(address _phoneHash, uint _acceptanceTimestamp, uint _paidTimestamp) public onlyOwner activeCustomer(_phoneHash) {\n        changeScore(_phoneHash, process(customers[_phoneHash].score, _acceptanceTimestamp, _paidTimestamp));\n    }\n\n    function topUp(address _phoneHash, uint _paidTimestamp) public onlyOwner {\n        addToScore(_phoneHash, customers[_phoneHash].history[customers[_phoneHash].history.length - 1].acceptanceTimestamp, _paidTimestamp);\n        topUpBilling(_phoneHash, _paidTimestamp);\n    }\n\n    function lowBalance() public {\n\n    }\n}",
  "sourcePath": "/home/keymon/work/projet-pro/dApp/timelapse/contracts/Timelapse.sol",
  "compiler": {
    "name": "solc",
    "version": "0.8.6+commit.11564f7e.Emscripten.clang"
  },
  "schemaVersion": "3.4.1",
  "updatedAt": "2021-07-13T17:27:00.299Z",
  "devdoc": {
    "kind": "dev",
    "methods": {
      "owner()": {
        "details": "Returns the address of the current owner."
      },
      "renounceOwnership()": {
        "details": "Leaves the contract without owner. It will not be possible to call `onlyOwner` functions anymore. Can only be called by the current owner. NOTE: Renouncing ownership will leave the contract without an owner, thereby removing any functionality that is only available to the owner."
      },
      "transferOwnership(address)": {
        "details": "Transfers ownership of the contract to a new account (`newOwner`). Can only be called by the current owner."
      }
    },
    "version": 1
  },
  "userdoc": {
    "kind": "user",
    "methods": {},
    "version": 1
  }
}