{
  "contractName": "Timelapse",
  "abi": [
    {
      "inputs": [
        {
          "internalType": "address",
          "name": "_billingAddress",
          "type": "address"
        },
        {
          "internalType": "address",
          "name": "_offeringAddress",
          "type": "address"
        }
      ],
      "stateMutability": "nonpayable",
      "type": "constructor"
    },
    {
      "anonymous": false,
      "inputs": [
        {
          "indexed": true,
          "internalType": "address",
          "name": "previousOwner",
          "type": "address"
        },
        {
          "indexed": true,
          "internalType": "address",
          "name": "newOwner",
          "type": "address"
        }
      ],
      "name": "OwnershipTransferred",
      "type": "event"
    },
    {
      "inputs": [],
      "name": "billing",
      "outputs": [
        {
          "internalType": "contract Billing",
          "name": "",
          "type": "address"
        }
      ],
      "stateMutability": "view",
      "type": "function",
      "constant": true
    },
    {
      "inputs": [],
      "name": "offering",
      "outputs": [
        {
          "internalType": "contract Offering",
          "name": "",
          "type": "address"
        }
      ],
      "stateMutability": "view",
      "type": "function",
      "constant": true
    },
    {
      "inputs": [],
      "name": "owner",
      "outputs": [
        {
          "internalType": "address",
          "name": "",
          "type": "address"
        }
      ],
      "stateMutability": "view",
      "type": "function",
      "constant": true
    },
    {
      "inputs": [],
      "name": "renounceOwnership",
      "outputs": [],
      "stateMutability": "nonpayable",
      "type": "function"
    },
    {
      "inputs": [
        {
          "internalType": "address",
          "name": "newOwner",
          "type": "address"
        }
      ],
      "name": "transferOwnership",
      "outputs": [],
      "stateMutability": "nonpayable",
      "type": "function"
    },
    {
      "inputs": [
        {
          "internalType": "uint8",
          "name": "_minScoring",
          "type": "uint8"
        },
        {
          "internalType": "uint256",
          "name": "_capital",
          "type": "uint256"
        },
        {
          "internalType": "uint256",
          "name": "_interest",
          "type": "uint256"
        },
        {
          "internalType": "string",
          "name": "_description",
          "type": "string"
        }
      ],
      "name": "addProposal",
      "outputs": [],
      "stateMutability": "nonpayable",
      "type": "function"
    },
    {
      "inputs": [
        {
          "internalType": "uint256",
          "name": "_id",
          "type": "uint256"
        }
      ],
      "name": "closeProposal",
      "outputs": [],
      "stateMutability": "nonpayable",
      "type": "function"
    },
    {
      "inputs": [
        {
          "internalType": "address",
          "name": "_phoneHash",
          "type": "address"
        }
      ],
      "name": "addToScore",
      "outputs": [],
      "stateMutability": "nonpayable",
      "type": "function"
    },
    {
      "inputs": [
        {
          "internalType": "address",
          "name": "_phoneHash",
          "type": "address"
        },
        {
          "internalType": "string",
          "name": "_ref",
          "type": "string"
        },
        {
          "internalType": "uint256",
          "name": "_acceptanceTimestamp",
          "type": "uint256"
        },
        {
          "internalType": "uint256",
          "name": "_offerId",
          "type": "uint256"
        },
        {
          "internalType": "uint256",
          "name": "_proposalId",
          "type": "uint256"
        }
      ],
      "name": "acceptance",
      "outputs": [],
      "stateMutability": "nonpayable",
      "type": "function"
    },
    {
      "inputs": [
        {
          "internalType": "address",
          "name": "_phoneHash",
          "type": "address"
        },
        {
          "internalType": "uint256",
          "name": "_paidTimestamp",
          "type": "uint256"
        }
      ],
      "name": "topUp",
      "outputs": [],
      "stateMutability": "nonpayable",
      "type": "function"
    },
    {
      "inputs": [
        {
          "internalType": "address",
          "name": "_phoneHash",
          "type": "address"
        },
        {
          "internalType": "string",
          "name": "_ref",
          "type": "string"
        }
      ],
      "name": "lowBalance",
      "outputs": [],
      "stateMutability": "nonpayable",
      "type": "function"
    },
    {
      "inputs": [
        {
          "internalType": "address",
          "name": "_phoneHash",
          "type": "address"
        },
        {
          "internalType": "uint256",
          "name": "_startTimestamp",
          "type": "uint256"
        },
        {
          "internalType": "uint256",
          "name": "_endTimestamp",
          "type": "uint256"
        }
      ],
      "name": "getCustomerActivitiesLog",
      "outputs": [
        {
          "components": [
            {
              "internalType": "string",
              "name": "log",
              "type": "string"
            },
            {
              "internalType": "string",
              "name": "status",
              "type": "string"
            },
            {
              "internalType": "uint256",
              "name": "timestamp",
              "type": "uint256"
            }
          ],
          "internalType": "struct Timelapse.CustomerActivity[]",
          "name": "",
          "type": "tuple[]"
        }
      ],
      "stateMutability": "view",
      "type": "function",
      "constant": true
    },
    {
      "inputs": [
        {
          "internalType": "uint256",
          "name": "_startTimestamp",
          "type": "uint256"
        },
        {
          "internalType": "uint256",
          "name": "_endTimestamp",
          "type": "uint256"
        }
      ],
      "name": "generateInvoicing",
      "outputs": [
        {
          "components": [
            {
              "internalType": "uint256",
              "name": "totalCapital",
              "type": "uint256"
            },
            {
              "internalType": "uint256",
              "name": "totalInterest",
              "type": "uint256"
            }
          ],
          "internalType": "struct Timelapse.Invoice[]",
          "name": "",
          "type": "tuple[]"
        }
      ],
      "stateMutability": "view",
      "type": "function",
      "constant": true
    },
    {
      "inputs": [
        {
          "internalType": "uint256",
          "name": "_startTimestamp",
          "type": "uint256"
        },
        {
          "internalType": "uint256",
          "name": "_endTimestamp",
          "type": "uint256"
        }
      ],
      "name": "generateReporting",
      "outputs": [
        {
          "components": [
            {
              "internalType": "uint256",
              "name": "offersCount",
              "type": "uint256"
            },
            {
              "internalType": "uint256",
              "name": "acceptedOffersCount",
              "type": "uint256"
            },
            {
              "internalType": "uint256",
              "name": "totalCapitalLoans",
              "type": "uint256"
            },
            {
              "internalType": "uint256",
              "name": "totalInterestLoans",
              "type": "uint256"
            },
            {
              "internalType": "uint256",
              "name": "closedTopupsCount",
              "type": "uint256"
            },
            {
              "internalType": "uint256",
              "name": "totalCapitalGain",
              "type": "uint256"
            },
            {
              "internalType": "uint256",
              "name": "totalInterestGain",
              "type": "uint256"
            },
            {
              "internalType": "uint256",
              "name": "acceptanceTimestamp",
              "type": "uint256"
            },
            {
              "internalType": "uint256",
              "name": "paidTimestamp",
              "type": "uint256"
            }
          ],
          "internalType": "struct Timelapse.Reporting[]",
          "name": "",
          "type": "tuple[]"
        }
      ],
      "stateMutability": "view",
      "type": "function",
      "constant": true
    }
  ],
  "bytecode": "0x60806040523480156200001157600080fd5b5060405162004814380380620048148339818101604052810190620000379190620001c4565b620000576200004b620000e160201b60201c565b620000e960201b60201c565b81600160006101000a81548173ffffffffffffffffffffffffffffffffffffffff021916908373ffffffffffffffffffffffffffffffffffffffff16021790555080600260006101000a81548173ffffffffffffffffffffffffffffffffffffffff021916908373ffffffffffffffffffffffffffffffffffffffff16021790555050506200025e565b600033905090565b60008060009054906101000a900473ffffffffffffffffffffffffffffffffffffffff169050816000806101000a81548173ffffffffffffffffffffffffffffffffffffffff021916908373ffffffffffffffffffffffffffffffffffffffff1602179055508173ffffffffffffffffffffffffffffffffffffffff168173ffffffffffffffffffffffffffffffffffffffff167f8be0079c531659141344cd1fd0a4f28419497f9722a3daafe3b4186f6b6457e060405160405180910390a35050565b600081519050620001be8162000244565b92915050565b60008060408385031215620001de57620001dd6200023f565b5b6000620001ee85828601620001ad565b92505060206200020185828601620001ad565b9150509250929050565b600062000218826200021f565b9050919050565b600073ffffffffffffffffffffffffffffffffffffffff82169050919050565b600080fd5b6200024f816200020b565b81146200025b57600080fd5b50565b6145a6806200026e6000396000f3fe608060405234801561001057600080fd5b50600436106100ea5760003560e01c8063bdcf208c1161008c578063f2fde38b11610066578063f2fde38b14610223578063f324e9d11461023f578063f3963cba1461025b578063f6410c0114610277576100ea565b8063bdcf208c146101bb578063d6f7ddf9146101d7578063d75fa655146101f3576100ea565b8063715018a6116100c8578063715018a6146101455780638da5cb5b1461014f578063a1f427431461016d578063b266cb011461019d576100ea565b80630386a016146100ef5780631ac8d4441461010b578063294a70e414610127575b600080fd5b61010960048036038101906101049190613678565b6102a7565b005b610125600480360381019061012091906132ee565b6103b3565b005b61012f61056e565b60405161013c9190613e9f565b60405180910390f35b61014d610594565b005b61015761061c565b6040516101649190613cfd565b60405180910390f35b610187600480360381019061018291906136d2565b610645565b6040516101949190613e5b565b60405180910390f35b6101a5610a83565b6040516101b29190613eba565b60405180910390f35b6101d560048036038101906101d091906137ba565b610aa9565b005b6101f160048036038101906101ec91906133e1565b610bbe565b005b61020d600480360381019061020891906136d2565b6110cc565b60405161021a9190613e7d565b60405180910390f35b61023d600480360381019061023891906132c1565b611a25565b005b6102596004803603810190610254919061334a565b611b1d565b005b610275600480360381019061027091906132c1565b611ce5565b005b610291600480360381019061028c9190613421565b611df1565b60405161029e9190613e39565b60405180910390f35b6102af612ef2565b73ffffffffffffffffffffffffffffffffffffffff166102cd61061c565b73ffffffffffffffffffffffffffffffffffffffff1614610323576040517f08c379a000000000000000000000000000000000000000000000000000000000815260040161031a90613ef5565b60405180910390fd5b600260009054906101000a900473ffffffffffffffffffffffffffffffffffffffff1673ffffffffffffffffffffffffffffffffffffffff16630386a016826040518263ffffffff1660e01b815260040161037e9190613f15565b600060405180830381600087803b15801561039857600080fd5b505af11580156103ac573d6000803e3d6000fd5b5050505050565b6103bb612ef2565b73ffffffffffffffffffffffffffffffffffffffff166103d961061c565b73ffffffffffffffffffffffffffffffffffffffff161461042f576040517f08c379a000000000000000000000000000000000000000000000000000000000815260040161042690613ef5565b60405180910390fd5b600260009054906101000a900473ffffffffffffffffffffffffffffffffffffffff1673ffffffffffffffffffffffffffffffffffffffff1663116c327b8383600160009054906101000a900473ffffffffffffffffffffffffffffffffffffffff1673ffffffffffffffffffffffffffffffffffffffff1663d47875d0876040518263ffffffff1660e01b81526004016104ca9190613cfd565b60206040518083038186803b1580156104e257600080fd5b505afa1580156104f6573d6000803e3d6000fd5b505050506040513d601f19601f8201168201806040525081019061051a919061378d565b6040518463ffffffff1660e01b815260040161053893929190613d64565b600060405180830381600087803b15801561055257600080fd5b505af1158015610566573d6000803e3d6000fd5b505050505050565b600160009054906101000a900473ffffffffffffffffffffffffffffffffffffffff1681565b61059c612ef2565b73ffffffffffffffffffffffffffffffffffffffff166105ba61061c565b73ffffffffffffffffffffffffffffffffffffffff1614610610576040517f08c379a000000000000000000000000000000000000000000000000000000000815260040161060790613ef5565b60405180910390fd5b61061a6000612efa565b565b60008060009054906101000a900473ffffffffffffffffffffffffffffffffffffffff16905090565b606060008060006001925060008367ffffffffffffffff81111561066c5761066b6143a8565b5b6040519080825280602002602001820160405280156106a557816020015b610692612fbe565b81526020019060019003908161068a5790505b5090506000600160009054906101000a900473ffffffffffffffffffffffffffffffffffffffff1673ffffffffffffffffffffffffffffffffffffffff1663fcdc4eb76040518163ffffffff1660e01b815260040160206040518083038186803b15801561071257600080fd5b505afa158015610726573d6000803e3d6000fd5b505050506040513d601f19601f8201168201806040525081019061074a91906136a5565b90505b60008111801561075b575082155b15610a75576000806000600160009054906101000a900473ffffffffffffffffffffffffffffffffffffffff1673ffffffffffffffffffffffffffffffffffffffff166356564b7c6001866107b09190614134565b6040518263ffffffff1660e01b81526004016107cc9190613f15565b60006040518083038186803b1580156107e457600080fd5b505afa1580156107f8573d6000803e3d6000fd5b505050506040513d6000823e3d601f19601f82011682018060405250810190610821919061350b565b94509450945050506000831415801561083957508a83105b1561084357600195505b8a83101580156108535750898311155b8015610882575060018081111561086d5761086c61434a565b5b8160018111156108805761087f61434a565b5b145b15610a5f576000600260009054906101000a900473ffffffffffffffffffffffffffffffffffffffff1673ffffffffffffffffffffffffffffffffffffffff16637acc0b20846040518263ffffffff1660e01b81526004016108e49190613f15565b60a06040518083038186803b1580156108fc57600080fd5b505afa158015610910573d6000803e3d6000fd5b505050506040513d601f19601f820116820180604052508101906109349190613712565b505092505050600080600260009054906101000a900473ffffffffffffffffffffffffffffffffffffffff1673ffffffffffffffffffffffffffffffffffffffff1663013cf08b846040518263ffffffff1660e01b81526004016109989190613f15565b60006040518083038186803b1580156109b057600080fd5b505afa1580156109c4573d6000803e3d6000fd5b505050506040513d6000823e3d601f19601f820116820180604052508101906109ed91906135a2565b505093509350505081888b81518110610a0957610a08614379565b5b6020026020010151600001818151610a2191906140de565b9150818152505080888b81518110610a3c57610a3b614379565b5b6020026020010151602001818151610a5491906140de565b915081815250505050505b5050508080610a6d9061424d565b91505061074d565b508094505050505092915050565b600260009054906101000a900473ffffffffffffffffffffffffffffffffffffffff1681565b610ab1612ef2565b73ffffffffffffffffffffffffffffffffffffffff16610acf61061c565b73ffffffffffffffffffffffffffffffffffffffff1614610b25576040517f08c379a0000000000000000000000000000000000000000000000000000000008152600401610b1c90613ef5565b60405180910390fd5b600260009054906101000a900473ffffffffffffffffffffffffffffffffffffffff1673ffffffffffffffffffffffffffffffffffffffff1663bdcf208c858585856040518563ffffffff1660e01b8152600401610b869493929190613f59565b600060405180830381600087803b158015610ba057600080fd5b505af1158015610bb4573d6000803e3d6000fd5b5050505050505050565b610bc6612ef2565b73ffffffffffffffffffffffffffffffffffffffff16610be461061c565b73ffffffffffffffffffffffffffffffffffffffff1614610c3a576040517f08c379a0000000000000000000000000000000000000000000000000000000008152600401610c3190613ef5565b60405180910390fd5b6000600160009054906101000a900473ffffffffffffffffffffffffffffffffffffffff1673ffffffffffffffffffffffffffffffffffffffff166356564b7c600160009054906101000a900473ffffffffffffffffffffffffffffffffffffffff1673ffffffffffffffffffffffffffffffffffffffff1663cb949e51866040518263ffffffff1660e01b8152600401610cd59190613cfd565b60c06040518083038186803b158015610ced57600080fd5b505afa158015610d01573d6000803e3d6000fd5b505050506040513d601f19601f82011682018060405250810190610d25919061364b565b608001516040518263ffffffff1660e01b8152600401610d459190613f15565b60006040518083038186803b158015610d5d57600080fd5b505afa158015610d71573d6000803e3d6000fd5b505050506040513d6000823e3d601f19601f82011682018060405250810190610d9a919061350b565b5093505050506000600260009054906101000a900473ffffffffffffffffffffffffffffffffffffffff1673ffffffffffffffffffffffffffffffffffffffff16637acc0b20836040518263ffffffff1660e01b8152600401610dfd9190613f15565b60a06040518083038186803b158015610e1557600080fd5b505afa158015610e29573d6000803e3d6000fd5b505050506040513d601f19601f82011682018060405250810190610e4d9190613712565b505092505050600080600260009054906101000a900473ffffffffffffffffffffffffffffffffffffffff1673ffffffffffffffffffffffffffffffffffffffff1663013cf08b846040518263ffffffff1660e01b8152600401610eb19190613f15565b60006040518083038186803b158015610ec957600080fd5b505afa158015610edd573d6000803e3d6000fd5b505050506040513d6000823e3d601f19601f82011682018060405250810190610f0691906135a2565b5050935093505050600160009054906101000a900473ffffffffffffffffffffffffffffffffffffffff1673ffffffffffffffffffffffffffffffffffffffff1663d8dd1827878385610f5991906140de565b6040518363ffffffff1660e01b8152600401610f76929190613da2565b600060405180830381600087803b158015610f9057600080fd5b505af1158015610fa4573d6000803e3d6000fd5b50505050600160009054906101000a900473ffffffffffffffffffffffffffffffffffffffff1673ffffffffffffffffffffffffffffffffffffffff1663f3963cba876040518263ffffffff1660e01b81526004016110039190613cfd565b600060405180830381600087803b15801561101d57600080fd5b505af1158015611031573d6000803e3d6000fd5b50505050600160009054906101000a900473ffffffffffffffffffffffffffffffffffffffff1673ffffffffffffffffffffffffffffffffffffffff166345df777987876040518363ffffffff1660e01b8152600401611092929190613da2565b600060405180830381600087803b1580156110ac57600080fd5b505af11580156110c0573d6000803e3d6000fd5b50505050505050505050565b606060008060008060006001945060008567ffffffffffffffff8111156110f6576110f56143a8565b5b60405190808252806020026020018201604052801561112f57816020015b61111c612fd8565b8152602001906001900390816111145790505b5090506000600260009054906101000a900473ffffffffffffffffffffffffffffffffffffffff1673ffffffffffffffffffffffffffffffffffffffff1663e0026ab36040518163ffffffff1660e01b815260040160206040518083038186803b15801561119c57600080fd5b505afa1580156111b0573d6000803e3d6000fd5b505050506040513d601f19601f820116820180604052508101906111d491906136a5565b90505b6000811180156111e5575084155b1561137d57600080600260009054906101000a900473ffffffffffffffffffffffffffffffffffffffff1673ffffffffffffffffffffffffffffffffffffffff16638a72ea6a6001856112389190614134565b6040518263ffffffff1660e01b81526004016112549190613f15565b60006040518083038186803b15801561126c57600080fd5b505afa158015611280573d6000803e3d6000fd5b505050506040513d6000823e3d601f19601f820116820180604052508101906112a99190613474565b945050509250508b8210156112bd57600196505b8b82101580156112cd57508a8211155b156113685760018489815181106112e7576112e6614379565b5b60200260200101516000018181516112ff91906140de565b915081815250506001808111156113195761131861434a565b5b81600181111561132c5761132b61434a565b5b141561136757600184898151811061134757611346614379565b5b602002602001015160200181815161135f91906140de565b915081815250505b5b505080806113759061424d565b9150506111d7565b506000600160009054906101000a900473ffffffffffffffffffffffffffffffffffffffff1673ffffffffffffffffffffffffffffffffffffffff1663fcdc4eb76040518163ffffffff1660e01b815260040160206040518083038186803b1580156113e857600080fd5b505afa1580156113fc573d6000803e3d6000fd5b505050506040513d601f19601f8201168201806040525081019061142091906136a5565b90505b60008111801561143a5750831580611439575082155b5b15611a1557600080600080600160009054906101000a900473ffffffffffffffffffffffffffffffffffffffff1673ffffffffffffffffffffffffffffffffffffffff166356564b7c6001876114909190614134565b6040518263ffffffff1660e01b81526004016114ac9190613f15565b60006040518083038186803b1580156114c457600080fd5b505afa1580156114d8573d6000803e3d6000fd5b505050506040513d6000823e3d601f19601f82011682018060405250810190611501919061350b565b94509450945094505083868b8151811061151e5761151d614379565b5b602002602001015160e001818152505082868b8151811061154257611541614379565b5b60200260200101516101000181815250506000841415801561156357508d84105b15611571576001975061178f565b8d841015801561158157508c8411155b80156115b157506000600181111561159c5761159b61434a565b5b8160018111156115af576115ae61434a565b5b145b1561178e576000600260009054906101000a900473ffffffffffffffffffffffffffffffffffffffff1673ffffffffffffffffffffffffffffffffffffffff16637acc0b20846040518263ffffffff1660e01b81526004016116139190613f15565b60a06040518083038186803b15801561162b57600080fd5b505afa15801561163f573d6000803e3d6000fd5b505050506040513d601f19601f820116820180604052508101906116639190613712565b505092505050600080600260009054906101000a900473ffffffffffffffffffffffffffffffffffffffff1673ffffffffffffffffffffffffffffffffffffffff1663013cf08b846040518263ffffffff1660e01b81526004016116c79190613f15565b60006040518083038186803b1580156116df57600080fd5b505afa1580156116f3573d6000803e3d6000fd5b505050506040513d6000823e3d601f19601f8201168201806040525081019061171c91906135a2565b505093509350505081898e8151811061173857611737614379565b5b602002602001015160400181815161175091906140de565b9150818152505080898e8151811061176b5761176a614379565b5b602002602001015160600181815161178391906140de565b915081815250505050505b5b6000831415801561179f57508d83105b156117ad57600196506119fe565b8d83101580156117bd57508c8311155b80156117ec57506001808111156117d7576117d661434a565b5b8160018111156117ea576117e961434a565b5b145b156119fd576000600260009054906101000a900473ffffffffffffffffffffffffffffffffffffffff1673ffffffffffffffffffffffffffffffffffffffff16637acc0b20846040518263ffffffff1660e01b815260040161184e9190613f15565b60a06040518083038186803b15801561186657600080fd5b505afa15801561187a573d6000803e3d6000fd5b505050506040513d601f19601f8201168201806040525081019061189e9190613712565b505092505050600080600260009054906101000a900473ffffffffffffffffffffffffffffffffffffffff1673ffffffffffffffffffffffffffffffffffffffff1663013cf08b846040518263ffffffff1660e01b81526004016119029190613f15565b60006040518083038186803b15801561191a57600080fd5b505afa15801561192e573d6000803e3d6000fd5b505050506040513d6000823e3d601f19601f8201168201806040525081019061195791906135a2565b50509350935050506001898e8151811061197457611973614379565b5b602002602001015160800181815161198c91906140de565b9150818152505081898e815181106119a7576119a6614379565b5b602002602001015160a0018181516119bf91906140de565b9150818152505080898e815181106119da576119d9614379565b5b602002602001015160c0018181516119f291906140de565b915081815250505050505b5b505050508080611a0d9061424d565b915050611423565b5080965050505050505092915050565b611a2d612ef2565b73ffffffffffffffffffffffffffffffffffffffff16611a4b61061c565b73ffffffffffffffffffffffffffffffffffffffff1614611aa1576040517f08c379a0000000000000000000000000000000000000000000000000000000008152600401611a9890613ef5565b60405180910390fd5b600073ffffffffffffffffffffffffffffffffffffffff168173ffffffffffffffffffffffffffffffffffffffff161415611b11576040517f08c379a0000000000000000000000000000000000000000000000000000000008152600401611b0890613ed5565b60405180910390fd5b611b1a81612efa565b50565b611b25612ef2565b73ffffffffffffffffffffffffffffffffffffffff16611b4361061c565b73ffffffffffffffffffffffffffffffffffffffff1614611b99576040517f08c379a0000000000000000000000000000000000000000000000000000000008152600401611b9090613ef5565b60405180910390fd5b600160009054906101000a900473ffffffffffffffffffffffffffffffffffffffff1673ffffffffffffffffffffffffffffffffffffffff16637a67e6cc868686600260009054906101000a900473ffffffffffffffffffffffffffffffffffffffff1673ffffffffffffffffffffffffffffffffffffffff1663b6ca45958b8a8a8a6040518563ffffffff1660e01b8152600401611c3b9493929190613dcb565b602060405180830381600087803b158015611c5557600080fd5b505af1158015611c69573d6000803e3d6000fd5b505050506040513d601f19601f82011682018060405250810190611c8d91906136a5565b6040518563ffffffff1660e01b8152600401611cac9493929190613d18565b600060405180830381600087803b158015611cc657600080fd5b505af1158015611cda573d6000803e3d6000fd5b505050505050505050565b611ced612ef2565b73ffffffffffffffffffffffffffffffffffffffff16611d0b61061c565b73ffffffffffffffffffffffffffffffffffffffff1614611d61576040517f08c379a0000000000000000000000000000000000000000000000000000000008152600401611d5890613ef5565b60405180910390fd5b600160009054906101000a900473ffffffffffffffffffffffffffffffffffffffff1673ffffffffffffffffffffffffffffffffffffffff1663f3963cba826040518263ffffffff1660e01b8152600401611dbc9190613cfd565b600060405180830381600087803b158015611dd657600080fd5b505af1158015611dea573d6000803e3d6000fd5b5050505050565b606060008060005b600260009054906101000a900473ffffffffffffffffffffffffffffffffffffffff1673ffffffffffffffffffffffffffffffffffffffff166380ec3727886040518263ffffffff1660e01b8152600401611e549190613cfd565b60206040518083038186803b158015611e6c57600080fd5b505afa158015611e80573d6000803e3d6000fd5b505050506040513d601f19601f82011682018060405250810190611ea491906136a5565b8160ff161015612050576000600260009054906101000a900473ffffffffffffffffffffffffffffffffffffffff1673ffffffffffffffffffffffffffffffffffffffff1663db7b1e1c89846040518363ffffffff1660e01b8152600401611f0d929190613e10565b60206040518083038186803b158015611f2557600080fd5b505afa158015611f39573d6000803e3d6000fd5b505050506040513d601f19601f82011682018060405250810190611f5d91906136a5565b90506000600260009054906101000a900473ffffffffffffffffffffffffffffffffffffffff1673ffffffffffffffffffffffffffffffffffffffff16638a72ea6a836040518263ffffffff1660e01b8152600401611fbc9190613f15565b60006040518083038186803b158015611fd457600080fd5b505afa158015611fe8573d6000803e3d6000fd5b505050506040513d6000823e3d601f19601f820116820180604052508101906120119190613474565b5050509150508781101580156120275750868111155b1561203b578480612037906142a8565b9550505b50508080612048906142f1565b915050611df9565b5060005b600160009054906101000a900473ffffffffffffffffffffffffffffffffffffffff1673ffffffffffffffffffffffffffffffffffffffff1663c23a179f886040518263ffffffff1660e01b81526004016120af9190613cfd565b60206040518083038186803b1580156120c757600080fd5b505afa1580156120db573d6000803e3d6000fd5b505050506040513d601f19601f820116820180604052508101906120ff91906136a5565b8160ff1610156122d2576000600160009054906101000a900473ffffffffffffffffffffffffffffffffffffffff1673ffffffffffffffffffffffffffffffffffffffff16639941556889846040518363ffffffff1660e01b8152600401612168929190613e10565b60206040518083038186803b15801561218057600080fd5b505afa158015612194573d6000803e3d6000fd5b505050506040513d601f19601f820116820180604052508101906121b891906136a5565b9050600080600160009054906101000a900473ffffffffffffffffffffffffffffffffffffffff1673ffffffffffffffffffffffffffffffffffffffff166356564b7c846040518263ffffffff1660e01b81526004016122189190613f15565b60006040518083038186803b15801561223057600080fd5b505afa158015612244573d6000803e3d6000fd5b505050506040513d6000823e3d601f19601f8201168201806040525081019061226d919061350b565b505092509250508882101580156122845750878211155b15612298578580612294906142a8565b9650505b8881101580156122a85750878111155b156122bc5785806122b8906142a8565b9650505b50505080806122ca906142f1565b915050612054565b5060008267ffffffffffffffff8111156122ef576122ee6143a8565b5b60405190808252806020026020018201604052801561232857816020015b612315613024565b81526020019060019003908161230d5790505b50905060005b600260009054906101000a900473ffffffffffffffffffffffffffffffffffffffff1673ffffffffffffffffffffffffffffffffffffffff166380ec3727896040518263ffffffff1660e01b81526004016123899190613cfd565b60206040518083038186803b1580156123a157600080fd5b505afa1580156123b5573d6000803e3d6000fd5b505050506040513d601f19601f820116820180604052508101906123d991906136a5565b8160ff161015612961576000600260009054906101000a900473ffffffffffffffffffffffffffffffffffffffff1673ffffffffffffffffffffffffffffffffffffffff1663db7b1e1c8a846040518363ffffffff1660e01b8152600401612442929190613e10565b60206040518083038186803b15801561245a57600080fd5b505afa15801561246e573d6000803e3d6000fd5b505050506040513d601f19601f8201168201806040525081019061249291906136a5565b90506000600260009054906101000a900473ffffffffffffffffffffffffffffffffffffffff1673ffffffffffffffffffffffffffffffffffffffff16638a72ea6a836040518263ffffffff1660e01b81526004016124f19190613f15565b60006040518083038186803b15801561250957600080fd5b505afa15801561251d573d6000803e3d6000fd5b505050506040513d6000823e3d601f19601f820116820180604052508101906125469190613474565b50505091505088811015801561255c5750878111155b1561294c576040518060400160405280600781526020017f4f666665723a20000000000000000000000000000000000000000000000000008152508486815181106125aa576125a9614379565b5b6020026020010151600001819052506000600260009054906101000a900473ffffffffffffffffffffffffffffffffffffffff1673ffffffffffffffffffffffffffffffffffffffff1663267e07d5846040518263ffffffff1660e01b81526004016126169190613f15565b60206040518083038186803b15801561262e57600080fd5b505afa158015612642573d6000803e3d6000fd5b505050506040513d601f19601f8201168201806040525081019061266691906136a5565b905060005b818110156128bf576000600260009054906101000a900473ffffffffffffffffffffffffffffffffffffffff1673ffffffffffffffffffffffffffffffffffffffff1663013cf08b600260009054906101000a900473ffffffffffffffffffffffffffffffffffffffff1673ffffffffffffffffffffffffffffffffffffffff16637c8dd0d688866040518363ffffffff1660e01b8152600401612710929190613f30565b60206040518083038186803b15801561272857600080fd5b505afa15801561273c573d6000803e3d6000fd5b505050506040513d601f19601f8201168201806040525081019061276091906136a5565b6040518263ffffffff1660e01b815260040161277c9190613f15565b60006040518083038186803b15801561279457600080fd5b505afa1580156127a8573d6000803e3d6000fd5b505050506040513d6000823e3d601f19601f820116820180604052508101906127d191906135a2565b505050505090506000821415612848578688815181106127f4576127f3614379565b5b60200260200101516000015181604051602001612812929190613c88565b60405160208183030381529060405287898151811061283457612833614379565b5b6020026020010151600001819052506128ab565b86888151811061285b5761285a614379565b5b60200260200101516000015181604051602001612879929190613cac565b60405160208183030381529060405287898151811061289b5761289a614379565b5b6020026020010151600001819052505b5080806128b7906142a8565b91505061266b565b50818587815181106128d4576128d3614379565b5b602002602001015160400181815250506040518060400160405280600581526020017f4f6666657200000000000000000000000000000000000000000000000000000081525085878151811061292d5761292c614379565b5b6020026020010151602001819052508580612947906142a8565b965050505b50508080612959906142f1565b91505061232e565b5060005b600160009054906101000a900473ffffffffffffffffffffffffffffffffffffffff1673ffffffffffffffffffffffffffffffffffffffff1663c23a179f896040518263ffffffff1660e01b81526004016129c09190613cfd565b60206040518083038186803b1580156129d857600080fd5b505afa1580156129ec573d6000803e3d6000fd5b505050506040513d601f19601f82011682018060405250810190612a1091906136a5565b811015612ee4576000600160009054906101000a900473ffffffffffffffffffffffffffffffffffffffff1673ffffffffffffffffffffffffffffffffffffffff1663994155688a846040518363ffffffff1660e01b8152600401612a76929190613da2565b60206040518083038186803b158015612a8e57600080fd5b505afa158015612aa2573d6000803e3d6000fd5b505050506040513d601f19601f82011682018060405250810190612ac691906136a5565b90506000806000600160009054906101000a900473ffffffffffffffffffffffffffffffffffffffff1673ffffffffffffffffffffffffffffffffffffffff166356564b7c856040518263ffffffff1660e01b8152600401612b289190613f15565b60006040518083038186803b158015612b4057600080fd5b505afa158015612b54573d6000803e3d6000fd5b505050506040513d6000823e3d601f19601f82011682018060405250810190612b7d919061350b565b50935093509350506000600260009054906101000a900473ffffffffffffffffffffffffffffffffffffffff1673ffffffffffffffffffffffffffffffffffffffff16637acc0b20836040518263ffffffff1660e01b8152600401612be29190613f15565b60a06040518083038186803b158015612bfa57600080fd5b505afa158015612c0e573d6000803e3d6000fd5b505050506040513d601f19601f82011682018060405250810190612c329190613712565b5050925050506000600260009054906101000a900473ffffffffffffffffffffffffffffffffffffffff1673ffffffffffffffffffffffffffffffffffffffff1663013cf08b836040518263ffffffff1660e01b8152600401612c959190613f15565b60006040518083038186803b158015612cad57600080fd5b505afa158015612cc1573d6000803e3d6000fd5b505050506040513d6000823e3d601f19601f82011682018060405250810190612cea91906135a2565b505050505090508c8510158015612d0157508b8511155b15612dd35780604051602001612d179190613cdb565b604051602081830303815290604052888a81518110612d3957612d38614379565b5b60200260200101516000018190525084888a81518110612d5c57612d5b614379565b5b602002602001015160400181815250506040518060400160405280600881526020017f4163636570746564000000000000000000000000000000000000000000000000815250888a81518110612db557612db4614379565b5b6020026020010151602001819052508880612dcf906142a8565b9950505b8c8410158015612de357508b8411155b15612ecb576040518060400160405280600581526020017f546f707570000000000000000000000000000000000000000000000000000000815250888a81518110612e3157612e30614379565b5b60200260200101516000018190525083888a81518110612e5457612e53614379565b5b602002602001015160400181815250506040518060400160405280600681526020017f436c6f7365640000000000000000000000000000000000000000000000000000815250888a81518110612ead57612eac614379565b5b6020026020010151602001819052508880612ec7906142a8565b9950505b5050505050508080612edc906142a8565b915050612965565b508093505050509392505050565b600033905090565b60008060009054906101000a900473ffffffffffffffffffffffffffffffffffffffff169050816000806101000a81548173ffffffffffffffffffffffffffffffffffffffff021916908373ffffffffffffffffffffffffffffffffffffffff1602179055508173ffffffffffffffffffffffffffffffffffffffff168173ffffffffffffffffffffffffffffffffffffffff167f8be0079c531659141344cd1fd0a4f28419497f9722a3daafe3b4186f6b6457e060405160405180910390a35050565b604051806040016040528060008152602001600081525090565b6040518061012001604052806000815260200160008152602001600081526020016000815260200160008152602001600081526020016000815260200160008152602001600081525090565b60405180606001604052806060815260200160608152602001600081525090565b600061305861305384613fca565b613fa5565b905082815260208101848484011115613074576130736143e1565b5b61307f84828561420b565b509392505050565b600061309a61309584613fca565b613fa5565b9050828152602081018484840111156130b6576130b56143e1565b5b6130c184828561421a565b509392505050565b6000813590506130d8816144cb565b92915050565b6000815190506130ed816144cb565b92915050565b600081519050613102816144e2565b92915050565b600081519050613117816144f2565b92915050565b60008151905061312c81614502565b92915050565b60008151905061314181614512565b92915050565b60008151905061315681614522565b92915050565b60008151905061316b81614532565b92915050565b600082601f830112613186576131856143d7565b5b8135613196848260208601613045565b91505092915050565b600082601f8301126131b4576131b36143d7565b5b81516131c4848260208601613087565b91505092915050565b600060c082840312156131e3576131e26143dc565b5b6131ed60c0613fa5565b905060006131fd848285016132ac565b600083015250602061321184828501613282565b602083015250604061322584828501613282565b604083015250606061323984828501613282565b606083015250608061324d84828501613282565b60808301525060a0613261848285016130f3565b60a08301525092915050565b60008135905061327c81614542565b92915050565b60008151905061329181614542565b92915050565b6000813590506132a681614559565b92915050565b6000815190506132bb81614559565b92915050565b6000602082840312156132d7576132d66143eb565b5b60006132e5848285016130c9565b91505092915050565b60008060408385031215613305576133046143eb565b5b6000613313858286016130c9565b925050602083013567ffffffffffffffff811115613334576133336143e6565b5b61334085828601613171565b9150509250929050565b600080600080600060a08688031215613366576133656143eb565b5b6000613374888289016130c9565b955050602086013567ffffffffffffffff811115613395576133946143e6565b5b6133a188828901613171565b94505060406133b28882890161326d565b93505060606133c38882890161326d565b92505060806133d48882890161326d565b9150509295509295909350565b600080604083850312156133f8576133f76143eb565b5b6000613406858286016130c9565b92505060206134178582860161326d565b9150509250929050565b60008060006060848603121561343a576134396143eb565b5b6000613448868287016130c9565b93505060206134598682870161326d565b925050604061346a8682870161326d565b9150509250925092565b600080600080600060a086880312156134905761348f6143eb565b5b600086015167ffffffffffffffff8111156134ae576134ad6143e6565b5b6134ba8882890161319f565b95505060206134cb88828901613282565b94505060406134dc888289016130de565b93505060606134ed88828901613108565b92505060806134fe88828901613132565b9150509295509295909350565b600080600080600060a08688031215613527576135266143eb565b5b600086015167ffffffffffffffff811115613545576135446143e6565b5b6135518882890161319f565b955050602061356288828901613282565b945050604061357388828901613282565b935050606061358488828901613282565b92505060806135958882890161311d565b9150509295509295909350565b60008060008060008060c087890312156135bf576135be6143eb565b5b600087015167ffffffffffffffff8111156135dd576135dc6143e6565b5b6135e989828a0161319f565b96505060206135fa89828a016132ac565b955050604061360b89828a01613282565b945050606061361c89828a01613282565b935050608061362d89828a01613282565b92505060a061363e89828a0161315c565b9150509295509295509295565b600060c08284031215613661576136606143eb565b5b600061366f848285016131cd565b91505092915050565b60006020828403121561368e5761368d6143eb565b5b600061369c8482850161326d565b91505092915050565b6000602082840312156136bb576136ba6143eb565b5b60006136c984828501613282565b91505092915050565b600080604083850312156136e9576136e86143eb565b5b60006136f78582860161326d565b92505060206137088582860161326d565b9150509250929050565b600080600080600060a0868803121561372e5761372d6143eb565b5b600061373c88828901613282565b955050602061374d88828901613282565b945050604061375e88828901613282565b935050606061376f888289016130de565b925050608061378088828901613147565b9150509295509295909350565b6000602082840312156137a3576137a26143eb565b5b60006137b1848285016132ac565b91505092915050565b600080600080608085870312156137d4576137d36143eb565b5b60006137e287828801613297565b94505060206137f38782880161326d565b93505060406138048782880161326d565b925050606085013567ffffffffffffffff811115613825576138246143e6565b5b61383187828801613171565b91505092959194509250565b60006138498383613b0f565b905092915050565b600061385d8383613b66565b60408301905092915050565b60006138758383613b95565b6101208301905092915050565b61388b81614168565b82525050565b600061389c8261402b565b6138a6818561407e565b9350836020820285016138b885613ffb565b8060005b858110156138f457848403895281516138d5858261383d565b94506138e083614057565b925060208a019950506001810190506138bc565b50829750879550505050505092915050565b600061391182614036565b61391b818561408f565b93506139268361400b565b8060005b8381101561395757815161393e8882613851565b975061394983614064565b92505060018101905061392a565b5085935050505092915050565b600061396f82614041565b61397981856140a0565b93506139848361401b565b8060005b838110156139b557815161399c8882613869565b97506139a783614071565b925050600181019050613988565b5085935050505092915050565b6139cb816141b1565b82525050565b6139da816141d5565b82525050565b60006139eb8261404c565b6139f581856140b1565b9350613a0581856020860161421a565b613a0e816143f0565b840191505092915050565b6000613a248261404c565b613a2e81856140c2565b9350613a3e81856020860161421a565b613a47816143f0565b840191505092915050565b6000613a5d8261404c565b613a6781856140d3565b9350613a7781856020860161421a565b80840191505092915050565b6000613a906026836140c2565b9150613a9b82614401565b604082019050919050565b6000613ab3600a836140d3565b9150613abe82614450565b600a82019050919050565b6000613ad66020836140c2565b9150613ae182614479565b602082019050919050565b6000613af96003836140d3565b9150613b04826144a2565b600382019050919050565b60006060830160008301518482036000860152613b2c82826139e0565b91505060208301518482036020860152613b4682826139e0565b9150506040830151613b5b6040860182613c4c565b508091505092915050565b604082016000820151613b7c6000850182613c4c565b506020820151613b8f6020850182613c4c565b50505050565b61012082016000820151613bac6000850182613c4c565b506020820151613bbf6020850182613c4c565b506040820151613bd26040850182613c4c565b506060820151613be56060850182613c4c565b506080820151613bf86080850182613c4c565b5060a0820151613c0b60a0850182613c4c565b5060c0820151613c1e60c0850182613c4c565b5060e0820151613c3160e0850182613c4c565b50610100820151613c46610100850182613c4c565b50505050565b613c558161419a565b82525050565b613c648161419a565b82525050565b613c73816141f9565b82525050565b613c82816141a4565b82525050565b6000613c948285613a52565b9150613ca08284613a52565b91508190509392505050565b6000613cb88285613a52565b9150613cc382613aec565b9150613ccf8284613a52565b91508190509392505050565b6000613ce682613aa6565b9150613cf28284613a52565b915081905092915050565b6000602082019050613d126000830184613882565b92915050565b6000608082019050613d2d6000830187613882565b8181036020830152613d3f8186613a19565b9050613d4e6040830185613c5b565b613d5b6060830184613c5b565b95945050505050565b6000606082019050613d796000830186613882565b8181036020830152613d8b8185613a19565b9050613d9a6040830184613c79565b949350505050565b6000604082019050613db76000830185613882565b613dc46020830184613c5b565b9392505050565b6000608082019050613de06000830187613882565b613ded6020830186613c5b565b613dfa6040830185613c5b565b613e076060830184613c5b565b95945050505050565b6000604082019050613e256000830185613882565b613e326020830184613c6a565b9392505050565b60006020820190508181036000830152613e538184613891565b905092915050565b60006020820190508181036000830152613e758184613906565b905092915050565b60006020820190508181036000830152613e978184613964565b905092915050565b6000602082019050613eb460008301846139c2565b92915050565b6000602082019050613ecf60008301846139d1565b92915050565b60006020820190508181036000830152613eee81613a83565b9050919050565b60006020820190508181036000830152613f0e81613ac9565b9050919050565b6000602082019050613f2a6000830184613c5b565b92915050565b6000604082019050613f456000830185613c5b565b613f526020830184613c5b565b9392505050565b6000608082019050613f6e6000830187613c79565b613f7b6020830186613c5b565b613f886040830185613c5b565b8181036060830152613f9a8184613a19565b905095945050505050565b6000613faf613fc0565b9050613fbb8282614277565b919050565b6000604051905090565b600067ffffffffffffffff821115613fe557613fe46143a8565b5b613fee826143f0565b9050602081019050919050565b6000819050602082019050919050565b6000819050602082019050919050565b6000819050602082019050919050565b600081519050919050565b600081519050919050565b600081519050919050565b600081519050919050565b6000602082019050919050565b6000602082019050919050565b6000602082019050919050565b600082825260208201905092915050565b600082825260208201905092915050565b600082825260208201905092915050565b600082825260208201905092915050565b600082825260208201905092915050565b600081905092915050565b60006140e98261419a565b91506140f48361419a565b9250827fffffffffffffffffffffffffffffffffffffffffffffffffffffffffffffffff038211156141295761412861431b565b5b828201905092915050565b600061413f8261419a565b915061414a8361419a565b92508282101561415d5761415c61431b565b5b828203905092915050565b60006141738261417a565b9050919050565b600073ffffffffffffffffffffffffffffffffffffffff82169050919050565b6000819050919050565b600060ff82169050919050565b60006141bc826141c3565b9050919050565b60006141ce8261417a565b9050919050565b60006141e0826141e7565b9050919050565b60006141f28261417a565b9050919050565b6000614204826141a4565b9050919050565b82818337600083830152505050565b60005b8381101561423857808201518184015260208101905061421d565b83811115614247576000848401525b50505050565b60006142588261419a565b9150600082141561426c5761426b61431b565b5b600182039050919050565b614280826143f0565b810181811067ffffffffffffffff8211171561429f5761429e6143a8565b5b80604052505050565b60006142b38261419a565b91507fffffffffffffffffffffffffffffffffffffffffffffffffffffffffffffffff8214156142e6576142e561431b565b5b600182019050919050565b60006142fc826141a4565b915060ff8214156143105761430f61431b565b5b600182019050919050565b7f4e487b7100000000000000000000000000000000000000000000000000000000600052601160045260246000fd5b7f4e487b7100000000000000000000000000000000000000000000000000000000600052602160045260246000fd5b7f4e487b7100000000000000000000000000000000000000000000000000000000600052603260045260246000fd5b7f4e487b7100000000000000000000000000000000000000000000000000000000600052604160045260246000fd5b600080fd5b600080fd5b600080fd5b600080fd5b600080fd5b6000601f19601f8301169050919050565b7f4f776e61626c653a206e6577206f776e657220697320746865207a65726f206160008201527f6464726573730000000000000000000000000000000000000000000000000000602082015250565b7f41636365707465643a2000000000000000000000000000000000000000000000600082015250565b7f4f776e61626c653a2063616c6c6572206973206e6f7420746865206f776e6572600082015250565b7f202f200000000000000000000000000000000000000000000000000000000000600082015250565b6144d481614168565b81146144df57600080fd5b50565b600381106144ef57600080fd5b50565b600581106144ff57600080fd5b50565b6002811061450f57600080fd5b50565b6002811061451f57600080fd5b50565b6002811061452f57600080fd5b50565b6002811061453f57600080fd5b50565b61454b8161419a565b811461455657600080fd5b50565b614562816141a4565b811461456d57600080fd5b5056fea26469706673582212204cbfef2950335a2c1da777ea625243338820c13c48e19941297331a8766aa96564736f6c63430008060033",
  "immutableReferences": {},
  "source": "// SPDX-License-Identifier: MIT\npragma solidity 0.8.6;\n\nimport \"./Billing.sol\";\nimport \"./Offering.sol\";\nimport \"@openzeppelin/contracts/access/Ownable.sol\";\n\n/**\n * @title This Smart Contract is the entry point of Timelapse.\n * @notice Communicate with API(server/watcher) part and dApp\n * @author Keeymon, DavidRochus\n */\ncontract Timelapse is Ownable {\n    /**\n     * @dev Customer Billing Activity\n     */\n    Billing public billing;\n\n    /**\n     * @dev Customer Offering Activity\n     */\n    Offering public offering;\n\n    /**\n     * @dev Customer Activity\n     */\n    struct CustomerActivity {\n        string log;\n        string status;\n        uint256 timestamp;\n    }\n\n    /**\n     * @dev Invoice information\n     */\n    struct Invoice {\n        uint256 totalCapital;\n        uint256 totalInterest;\n    }\n\n    /**\n     * @dev Reporting information\n     */\n    struct Reporting {\n        uint256 offersCount;\n        uint256 acceptedOffersCount;\n        uint256 totalCapitalLoans;\n        uint256 totalInterestLoans;\n        uint256 closedTopupsCount;\n        uint256 totalCapitalGain;\n        uint256 totalInterestGain;\n        uint256 acceptanceTimestamp;\n        uint256 paidTimestamp;\n    }\n\n    /**\n     * @dev Smart Contract constructor\n     */\n    constructor(address _billingAddress, address _offeringAddress) {\n        billing = Billing(_billingAddress);\n        offering = Offering(_offeringAddress);\n    }\n\n    /**\n     * @notice Add a proposal\n     * @param _minScoring The minimum score needed by customer to receive this proposal\n     * @param _capital Capital part of the proposal amount\n     * @param _interest Interest part of the proposal amount\n     * @param _description A description of the proposal\n     * @dev Add a proposal with the following information: minimum scoring `_minScoring`, amount `_capital` + `_interest`, description `_description`\n     */\n    function addProposal(\n        uint8 _minScoring,\n        uint256 _capital,\n        uint256 _interest,\n        string memory _description\n    ) external onlyOwner {\n        offering.addProposal(_minScoring, _capital, _interest, _description);\n    }\n\n    /**\n     * @notice Close a proposal\n     * @param _id ID of the proposal to close\n     * @dev Close the proposal with the ID `_id`\n     */\n    function closeProposal(uint256 _id) external onlyOwner {\n        offering.closeProposal(_id);\n    }\n\n    /**\n     * @notice Increase scoring information of a customer\n     * @param _phoneHash The address that identifies to the customer\n     * @dev This function is directly called when API receives a topUp for a customer (identified with `_phoneHash`) with a target other than Timelapse\n     */\n    function addToScore(address _phoneHash) external onlyOwner {\n        billing.addToScore(_phoneHash);\n    }\n\n    /**\n     * @notice Accept the offer\n     * @param _phoneHash The address that identifies to the customer\n     * @param _ref Reference of the telecom provider\n     * @param _acceptanceTimestamp Timestamp of the acceptance\n     * @param _offerId ID of the offer\n     * @param _proposalId ID of the proposal\n     * @dev Accept the offer `_offerId` (By choosing proposal `_proposalId`) of a customer (identified with `_phoneHash`) with reference `_ref` at timestamp `_acceptanceTimestamp`\n     */\n    function acceptance(\n        address _phoneHash,\n        string memory _ref,\n        uint256 _acceptanceTimestamp,\n        uint256 _offerId,\n        uint256 _proposalId\n    ) external onlyOwner {\n        billing.acceptanceBilling(\n            _phoneHash,\n            _ref,\n            _acceptanceTimestamp,\n            offering.createProduct(\n                _phoneHash,\n                _acceptanceTimestamp,\n                _offerId,\n                _proposalId\n            )\n        );\n    }\n\n    /**\n     * @notice TopUp the last product of a customer\n     * @param _phoneHash The address that identifies to the customer\n     * @param _paidTimestamp Timestamp of the acceptance\n     * @dev TopUp the last product of a customer (identified with `_phoneHash`) at timestamp `_paidTimestamp`\n     */\n    function topUp(address _phoneHash, uint256 _paidTimestamp)\n        external\n        onlyOwner\n    {\n        (, , , uint256 productId, ) = billing.histories(\n            billing.getCustomer(_phoneHash).lastAcceptanceID\n        );\n        (, , uint256 proposalId, , ) = offering.products(productId);\n        (, , uint256 capital, uint256 interest, , ) = offering.proposals(\n            proposalId\n        );\n        billing.addToCustomerAmount(_phoneHash, capital + interest);\n        billing.addToScore(_phoneHash);\n        billing.topUpBilling(_phoneHash, _paidTimestamp);\n    }\n\n    /**\n     * @notice Manage the \"low balances\" received and generate an offer\n     * @param _phoneHash The address that identifies to the customer\n     * @param _ref Reference of the telecom provider\n     * @dev Manage lowBalance (with reference `_ref`) of a customer (identified with `_phoneHash`)\n     */\n    function lowBalance(address _phoneHash, string memory _ref)\n        external\n        onlyOwner\n    {\n        offering.lowBalanceOffering(\n            _phoneHash,\n            _ref,\n            billing.getScore(_phoneHash)\n        );\n    }\n\n    /**\n     * @notice Get customer activities log\n     * @param _phoneHash The address that identifies to the customer\n     * @param _startTimestamp Start of the search timeframe\n     * @param _endTimestamp End of the search timeframe\n     * @return Score The computed customer score\n     * @dev Get activities log of a customer (identified with `_phoneHash`)\n     */\n    function getCustomerActivitiesLog(\n        address _phoneHash,\n        uint256 _startTimestamp,\n        uint256 _endTimestamp\n    ) external view returns (CustomerActivity[] memory) {\n        uint256 customerActivitiesSize;\n        uint256 customerActivitiesIndex;\n        for (uint8 i = 0; i < offering.getOfferSize(_phoneHash); i++) {\n            uint256 offeringIndex = offering.offerList(_phoneHash, i);\n            (, uint256 timestamp, , , ) = offering.offers(offeringIndex);\n            if (timestamp >= _startTimestamp && timestamp <= _endTimestamp) {\n                customerActivitiesSize++;\n            }\n        }\n        for (uint8 i = 0; i < billing.getHistorySize(_phoneHash); i++) {\n            uint256 historyIndex = billing.historyList(_phoneHash, i);\n            (, uint256 acceptanceTimestamp, uint256 paidTimestamp, , ) = billing\n                .histories(historyIndex);\n            if (\n                acceptanceTimestamp >= _startTimestamp &&\n                acceptanceTimestamp <= _endTimestamp\n            ) {\n                customerActivitiesSize++;\n            }\n            if (\n                paidTimestamp >= _startTimestamp &&\n                paidTimestamp <= _endTimestamp\n            ) {\n                customerActivitiesSize++;\n            }\n        }\n        CustomerActivity[] memory customerActivities = new CustomerActivity[](\n            customerActivitiesSize\n        );\n        for (uint8 i = 0; i < offering.getOfferSize(_phoneHash); i++) {\n            uint256 offeringIndex = offering.offerList(_phoneHash, i);\n            (, uint256 timestamp, , , ) = offering.offers(offeringIndex);\n            if (timestamp >= _startTimestamp && timestamp <= _endTimestamp) {\n                customerActivities[customerActivitiesIndex].log = \"Offer: \";\n                uint256 numberProposal = offering.getProposalOfferSize(\n                    offeringIndex\n                );\n                for (uint256 j = 0; j < numberProposal; j++) {\n                    (string memory description, , , , , ) = offering.proposals(\n                        offering.getIndexProposalOffer(offeringIndex, j)\n                    );\n                    if (j == 0) {\n                        customerActivities[customerActivitiesIndex]\n                            .log = string(\n                            abi.encodePacked(\n                                customerActivities[customerActivitiesIndex].log,\n                                description\n                            )\n                        );\n                    } else {\n                        customerActivities[customerActivitiesIndex]\n                            .log = string(\n                            abi.encodePacked(\n                                customerActivities[customerActivitiesIndex].log,\n                                \" / \",\n                                description\n                            )\n                        );\n                    }\n                }\n                customerActivities[customerActivitiesIndex]\n                    .timestamp = timestamp;\n                customerActivities[customerActivitiesIndex].status = \"Offer\";\n                customerActivitiesIndex++;\n            }\n        }\n        for (uint256 i = 0; i < billing.getHistorySize(_phoneHash); i++) {\n            uint256 historyIndex = billing.historyList(_phoneHash, i);\n            (\n                ,\n                uint256 acceptanceTimestamp,\n                uint256 paidTimestamp,\n                uint256 productId,\n\n            ) = billing.histories(historyIndex);\n            (, , uint256 proposalId, , ) = offering.products(productId);\n            (string memory descriptionProposal, , , , , ) = offering.proposals(\n                proposalId\n            );\n            if (\n                acceptanceTimestamp >= _startTimestamp &&\n                acceptanceTimestamp <= _endTimestamp\n            ) {\n                customerActivities[customerActivitiesIndex].log = string(\n                    abi.encodePacked(\"Accepted: \", descriptionProposal)\n                );\n                customerActivities[customerActivitiesIndex]\n                    .timestamp = acceptanceTimestamp;\n                customerActivities[customerActivitiesIndex].status = \"Accepted\";\n                customerActivitiesIndex++;\n            }\n            if (\n                paidTimestamp >= _startTimestamp &&\n                paidTimestamp <= _endTimestamp\n            ) {\n                customerActivities[customerActivitiesIndex].log = \"Topup\";\n                customerActivities[customerActivitiesIndex]\n                    .timestamp = paidTimestamp;\n                customerActivities[customerActivitiesIndex].status = \"Closed\";\n                customerActivitiesIndex++;\n            }\n        }\n        return customerActivities;\n    }\n\n    /**\n     * @notice Generate invoicing for a given period\n     * @param _startTimestamp Start of the invoicing period\n     * @param _endTimestamp End of the invoicing period\n     * @return The invoice\n     * @dev Generate invoicing for a given period (between _startTimestamp and _endTimestamp)\n     */\n    function generateInvoicing(uint256 _startTimestamp, uint256 _endTimestamp)\n        external\n        view\n        returns (Invoice[] memory)\n    {\n        uint256 invoiceSize;\n        uint256 invoiceIndex;\n        bool outOfInvoicingWindow;\n        // In POC context, we will only use 1 global invoice. In the next phases, splitted invoice could be returned for a given period\n        invoiceSize = 1;\n        Invoice[] memory invoice = new Invoice[](invoiceSize);\n        for (\n            uint256 i = billing.getHistoriesSize();\n            i > 0 && !(outOfInvoicingWindow);\n            i--\n        ) {\n            (\n                ,\n                ,\n                uint256 paidTimestamp,\n                uint256 productId,\n                Billing.HistoryStatus status\n            ) = billing.histories(i - 1);\n            if (paidTimestamp != 0 && paidTimestamp < _startTimestamp) {\n                outOfInvoicingWindow = true;\n            }\n            if (\n                paidTimestamp >= _startTimestamp &&\n                paidTimestamp <= _endTimestamp &&\n                status == Billing.HistoryStatus.Closed\n            ) {\n                (, , uint256 proposalId, , ) = offering.products(productId);\n                (, , uint256 capital, uint256 interest, , ) = offering\n                    .proposals(proposalId);\n                invoice[invoiceIndex].totalCapital += capital;\n                invoice[invoiceIndex].totalInterest += interest;\n            }\n        }\n        return invoice;\n    }\n\n    /**\n     * @notice Generate reporting for a given period\n     * @param _startTimestamp Start of the reporting period\n     * @param _endTimestamp End of the reporting period\n     * @return The reporting\n     * @dev Generate reporting for a given period (between _startTimestamp and _endTimestamp)\n     */\n    function generateReporting(uint256 _startTimestamp, uint256 _endTimestamp)\n        external\n        view\n        returns (Reporting[] memory)\n    {\n        uint256 reportingSize;\n        uint256 reportingIndex;\n        bool outOfReportingWindow1;\n        bool outOfReportingWindow2;\n        bool outOfReportingWindow3;\n        // In POC context, we will only use 1 global reporting. In the next phases, splitted reporting could be returned for a given period\n        reportingSize = 1;\n        Reporting[] memory reporting = new Reporting[](reportingSize);\n        for (\n            uint256 i = offering.getOffersSize();\n            i > 0 && !(outOfReportingWindow1);\n            i--\n        ) {\n            (, uint256 timestamp, , , Offering.OfferStatus status) = offering\n                .offers(i - 1);\n            if (timestamp < _startTimestamp) {\n                outOfReportingWindow1 = true;\n            }\n            if (timestamp >= _startTimestamp && timestamp <= _endTimestamp) {\n                reporting[reportingIndex].offersCount += 1;\n                if (status == Offering.OfferStatus.Accepted) {\n                    reporting[reportingIndex].acceptedOffersCount += 1;\n                }\n            }\n        }\n        for (\n            uint256 i = billing.getHistoriesSize();\n            i > 0 && (!(outOfReportingWindow2) || !(outOfReportingWindow3));\n            i--\n        ) {\n            (\n                ,\n                uint256 acceptanceTimestamp,\n                uint256 paidTimestamp,\n                uint256 productId,\n                Billing.HistoryStatus status\n            ) = billing.histories(i - 1);\n            reporting[reportingIndex].acceptanceTimestamp = acceptanceTimestamp;\n            reporting[reportingIndex].paidTimestamp = paidTimestamp;\n            if (\n                acceptanceTimestamp != 0 &&\n                acceptanceTimestamp < _startTimestamp\n            ) {\n                outOfReportingWindow2 = true;\n            } else {\n                if (\n                    acceptanceTimestamp >= _startTimestamp &&\n                    acceptanceTimestamp <= _endTimestamp &&\n                    status == Billing.HistoryStatus.Active\n                ) {\n                    (, , uint256 proposalId, , ) = offering.products(productId);\n                    (, , uint256 capital, uint256 interest, , ) = offering\n                        .proposals(proposalId);\n                    reporting[reportingIndex].totalCapitalLoans += capital;\n                    reporting[reportingIndex].totalInterestLoans += interest;\n                }\n            }\n            if (paidTimestamp != 0 && paidTimestamp < _startTimestamp) {\n                outOfReportingWindow3 = true;\n            } else {\n                if (\n                    paidTimestamp >= _startTimestamp &&\n                    paidTimestamp <= _endTimestamp &&\n                    status == Billing.HistoryStatus.Closed\n                ) {\n                    (, , uint256 proposalId, , ) = offering.products(productId);\n                    (, , uint256 capital, uint256 interest, , ) = offering\n                        .proposals(proposalId);\n                    reporting[reportingIndex].closedTopupsCount += 1;\n                    reporting[reportingIndex].totalCapitalGain += capital;\n                    reporting[reportingIndex].totalInterestGain += interest;\n                }\n            }\n        }\n        return reporting;\n    }\n}\n",
  "sourcePath": "/Users/davidrochus/Dev/workspace/timelapse/contracts/Timelapse.sol",
  "compiler": {
    "name": "solc",
    "version": "0.8.6+commit.11564f7e.Emscripten.clang"
  },
  "schemaVersion": "3.4.1",
  "updatedAt": "2021-08-01T12:07:18.380Z",
  "networkType": "ethereum",
  "devdoc": {
    "author": "Keeymon, DavidRochus",
    "kind": "dev",
    "methods": {
      "acceptance(address,string,uint256,uint256,uint256)": {
        "details": "Accept the offer `_offerId` (By choosing proposal `_proposalId`) of a customer (identified with `_phoneHash`) with reference `_ref` at timestamp `_acceptanceTimestamp`",
        "params": {
          "_acceptanceTimestamp": "Timestamp of the acceptance",
          "_offerId": "ID of the offer",
          "_phoneHash": "The address that identifies to the customer",
          "_proposalId": "ID of the proposal",
          "_ref": "Reference of the telecom provider"
        }
      },
      "addProposal(uint8,uint256,uint256,string)": {
        "details": "Add a proposal with the following information: minimum scoring `_minScoring`, amount `_capital` + `_interest`, description `_description`",
        "params": {
          "_capital": "Capital part of the proposal amount",
          "_description": "A description of the proposal",
          "_interest": "Interest part of the proposal amount",
          "_minScoring": "The minimum score needed by customer to receive this proposal"
        }
      },
      "addToScore(address)": {
        "details": "This function is directly called when API receives a topUp for a customer (identified with `_phoneHash`) with a target other than Timelapse",
        "params": {
          "_phoneHash": "The address that identifies to the customer"
        }
      },
      "closeProposal(uint256)": {
        "details": "Close the proposal with the ID `_id`",
        "params": {
          "_id": "ID of the proposal to close"
        }
      },
      "constructor": {
        "details": "Smart Contract constructor"
      },
      "generateInvoicing(uint256,uint256)": {
        "details": "Generate invoicing for a given period (between _startTimestamp and _endTimestamp)",
        "params": {
          "_endTimestamp": "End of the invoicing period",
          "_startTimestamp": "Start of the invoicing period"
        },
        "returns": {
          "_0": "The invoice"
        }
      },
      "generateReporting(uint256,uint256)": {
        "details": "Generate reporting for a given period (between _startTimestamp and _endTimestamp)",
        "params": {
          "_endTimestamp": "End of the reporting period",
          "_startTimestamp": "Start of the reporting period"
        },
        "returns": {
          "_0": "The reporting"
        }
      },
      "getCustomerActivitiesLog(address,uint256,uint256)": {
        "details": "Get activities log of a customer (identified with `_phoneHash`)",
        "params": {
          "_endTimestamp": "End of the search timeframe",
          "_phoneHash": "The address that identifies to the customer",
          "_startTimestamp": "Start of the search timeframe"
        },
        "returns": {
          "_0": "Score The computed customer score"
        }
      },
      "lowBalance(address,string)": {
        "details": "Manage lowBalance (with reference `_ref`) of a customer (identified with `_phoneHash`)",
        "params": {
          "_phoneHash": "The address that identifies to the customer",
          "_ref": "Reference of the telecom provider"
        }
      },
      "owner()": {
        "details": "Returns the address of the current owner."
      },
      "renounceOwnership()": {
        "details": "Leaves the contract without owner. It will not be possible to call `onlyOwner` functions anymore. Can only be called by the current owner. NOTE: Renouncing ownership will leave the contract without an owner, thereby removing any functionality that is only available to the owner."
      },
      "topUp(address,uint256)": {
        "details": "TopUp the last product of a customer (identified with `_phoneHash`) at timestamp `_paidTimestamp`",
        "params": {
          "_paidTimestamp": "Timestamp of the acceptance",
          "_phoneHash": "The address that identifies to the customer"
        }
      },
      "transferOwnership(address)": {
        "details": "Transfers ownership of the contract to a new account (`newOwner`). Can only be called by the current owner."
      }
    },
    "stateVariables": {
      "billing": {
        "details": "Customer Billing Activity"
      },
      "offering": {
        "details": "Customer Offering Activity"
      }
    },
    "title": "This Smart Contract is the entry point of Timelapse.",
    "version": 1
  },
  "userdoc": {
    "kind": "user",
    "methods": {
      "acceptance(address,string,uint256,uint256,uint256)": {
        "notice": "Accept the offer"
      },
      "addProposal(uint8,uint256,uint256,string)": {
        "notice": "Add a proposal"
      },
      "addToScore(address)": {
        "notice": "Increase scoring information of a customer"
      },
      "closeProposal(uint256)": {
        "notice": "Close a proposal"
      },
      "generateInvoicing(uint256,uint256)": {
        "notice": "Generate invoicing for a given period"
      },
      "generateReporting(uint256,uint256)": {
        "notice": "Generate reporting for a given period"
      },
      "getCustomerActivitiesLog(address,uint256,uint256)": {
        "notice": "Get customer activities log"
      },
      "lowBalance(address,string)": {
        "notice": "Manage the \"low balances\" received and generate an offer"
      },
      "topUp(address,uint256)": {
        "notice": "TopUp the last product of a customer"
      }
    },
    "notice": "Communicate with API(server/watcher) part and dApp",
    "version": 1
  }
}