{
  "contractName": "Timelapse",
  "abi": [
    {
      "inputs": [],
      "stateMutability": "nonpayable",
      "type": "constructor"
    },
    {
      "anonymous": false,
      "inputs": [
        {
          "indexed": false,
          "internalType": "address",
          "name": "phoneHash",
          "type": "address"
        },
        {
          "indexed": false,
          "internalType": "uint256",
          "name": "offerId",
          "type": "uint256"
        },
        {
          "indexed": false,
          "internalType": "uint256",
          "name": "proposalId",
          "type": "uint256"
        }
      ],
      "name": "AcceptanceReceived",
      "type": "event"
    },
    {
      "anonymous": false,
      "inputs": [
        {
          "indexed": false,
          "internalType": "address",
          "name": "phoneHash",
          "type": "address"
        },
        {
          "indexed": false,
          "internalType": "string",
          "name": "ref",
          "type": "string"
        },
        {
          "indexed": false,
          "internalType": "uint256",
          "name": "acceptanceTimestamp",
          "type": "uint256"
        }
      ],
      "name": "AcceptanceReceived",
      "type": "event"
    },
    {
      "anonymous": false,
      "inputs": [
        {
          "indexed": false,
          "internalType": "address",
          "name": "phoneHash",
          "type": "address"
        },
        {
          "indexed": false,
          "internalType": "uint256",
          "name": "productId",
          "type": "uint256"
        },
        {
          "indexed": false,
          "internalType": "uint256",
          "name": "amount",
          "type": "uint256"
        }
      ],
      "name": "AcknowledgeSent",
      "type": "event"
    },
    {
      "anonymous": false,
      "inputs": [
        {
          "indexed": false,
          "internalType": "address",
          "name": "phoneHash",
          "type": "address"
        },
        {
          "indexed": false,
          "internalType": "string",
          "name": "ref",
          "type": "string"
        },
        {
          "indexed": false,
          "internalType": "uint256",
          "name": "acceptanceTimestamp",
          "type": "uint256"
        }
      ],
      "name": "Confirmation",
      "type": "event"
    },
    {
      "anonymous": false,
      "inputs": [
        {
          "indexed": false,
          "internalType": "uint256",
          "name": "productId",
          "type": "uint256"
        },
        {
          "indexed": false,
          "internalType": "uint256",
          "name": "offerId",
          "type": "uint256"
        },
        {
          "indexed": false,
          "internalType": "address",
          "name": "phoneHash",
          "type": "address"
        },
        {
          "indexed": false,
          "internalType": "uint256",
          "name": "timestamp",
          "type": "uint256"
        }
      ],
      "name": "ConfirmationSent",
      "type": "event"
    },
    {
      "anonymous": false,
      "inputs": [
        {
          "indexed": false,
          "internalType": "address",
          "name": "phoneHash",
          "type": "address"
        }
      ],
      "name": "CustomerIsDeleted",
      "type": "event"
    },
    {
      "anonymous": false,
      "inputs": [
        {
          "indexed": false,
          "internalType": "address",
          "name": "phoneHash",
          "type": "address"
        },
        {
          "indexed": false,
          "internalType": "string",
          "name": "ref",
          "type": "string"
        }
      ],
      "name": "LowBalanceReceived",
      "type": "event"
    },
    {
      "anonymous": false,
      "inputs": [
        {
          "indexed": false,
          "internalType": "uint256",
          "name": "offerId",
          "type": "uint256"
        },
        {
          "indexed": false,
          "internalType": "address",
          "name": "phoneHash",
          "type": "address"
        },
        {
          "indexed": false,
          "internalType": "uint256",
          "name": "timestamp",
          "type": "uint256"
        },
        {
          "indexed": false,
          "internalType": "enum Offering.EligibilityReason",
          "name": "reason",
          "type": "uint8"
        },
        {
          "indexed": false,
          "internalType": "uint256[]",
          "name": "proposals",
          "type": "uint256[]"
        },
        {
          "indexed": false,
          "internalType": "uint256",
          "name": "scoring",
          "type": "uint256"
        },
        {
          "indexed": false,
          "internalType": "string",
          "name": "ref",
          "type": "string"
        }
      ],
      "name": "OfferSent",
      "type": "event"
    },
    {
      "anonymous": false,
      "inputs": [
        {
          "indexed": true,
          "internalType": "address",
          "name": "previousOwner",
          "type": "address"
        },
        {
          "indexed": true,
          "internalType": "address",
          "name": "newOwner",
          "type": "address"
        }
      ],
      "name": "OwnershipTransferred",
      "type": "event"
    },
    {
      "anonymous": false,
      "inputs": [
        {
          "indexed": false,
          "internalType": "uint256",
          "name": "proposalId",
          "type": "uint256"
        },
        {
          "indexed": false,
          "internalType": "uint8",
          "name": "minScoring",
          "type": "uint8"
        },
        {
          "indexed": false,
          "internalType": "uint256",
          "name": "capital",
          "type": "uint256"
        },
        {
          "indexed": false,
          "internalType": "uint256",
          "name": "interest",
          "type": "uint256"
        },
        {
          "indexed": false,
          "internalType": "string",
          "name": "description",
          "type": "string"
        }
      ],
      "name": "ProposalAdded",
      "type": "event"
    },
    {
      "anonymous": false,
      "inputs": [
        {
          "indexed": false,
          "internalType": "address",
          "name": "phoneHash",
          "type": "address"
        },
        {
          "indexed": false,
          "internalType": "uint256",
          "name": "score",
          "type": "uint256"
        }
      ],
      "name": "ScoreChange",
      "type": "event"
    },
    {
      "anonymous": false,
      "inputs": [
        {
          "indexed": false,
          "internalType": "address",
          "name": "phoneHash",
          "type": "address"
        },
        {
          "indexed": false,
          "internalType": "uint256",
          "name": "productId",
          "type": "uint256"
        },
        {
          "indexed": false,
          "internalType": "uint256",
          "name": "amount",
          "type": "uint256"
        }
      ],
      "name": "TopUpReceived",
      "type": "event"
    },
    {
      "anonymous": false,
      "inputs": [
        {
          "indexed": false,
          "internalType": "address",
          "name": "phoneHash",
          "type": "address"
        },
        {
          "indexed": false,
          "internalType": "string",
          "name": "ref",
          "type": "string"
        }
      ],
      "name": "TopUpReceived",
      "type": "event"
    },
    {
      "inputs": [
        {
          "internalType": "address",
          "name": "_phoneHash",
          "type": "address"
        },
        {
          "internalType": "string",
          "name": "_ref",
          "type": "string"
        },
        {
          "internalType": "uint256",
          "name": "_acceptanceTimestamp",
          "type": "uint256"
        }
      ],
      "name": "acceptance",
      "outputs": [],
      "stateMutability": "nonpayable",
      "type": "function"
    },
    {
      "inputs": [
        {
          "internalType": "uint8",
          "name": "_minScoring",
          "type": "uint8"
        },
        {
          "internalType": "uint256",
          "name": "_capital",
          "type": "uint256"
        },
        {
          "internalType": "uint256",
          "name": "_interest",
          "type": "uint256"
        },
        {
          "internalType": "string",
          "name": "_description",
          "type": "string"
        }
      ],
      "name": "addProposal",
      "outputs": [],
      "stateMutability": "nonpayable",
      "type": "function"
    },
    {
      "inputs": [
        {
          "internalType": "address",
          "name": "_phoneHash",
          "type": "address"
        },
        {
          "internalType": "uint256",
          "name": "_score",
          "type": "uint256"
        }
      ],
      "name": "changeScore",
      "outputs": [],
      "stateMutability": "nonpayable",
      "type": "function"
    },
    {
      "inputs": [
        {
          "internalType": "uint256",
          "name": "_id",
          "type": "uint256"
        }
      ],
      "name": "closedProposal",
      "outputs": [],
      "stateMutability": "nonpayable",
      "type": "function"
    },
    {
      "inputs": [
        {
          "internalType": "address",
          "name": "",
          "type": "address"
        }
      ],
      "name": "customers",
      "outputs": [
        {
          "internalType": "enum Billing.CustomerStatus",
          "name": "status",
          "type": "uint8"
        },
        {
          "internalType": "uint256",
          "name": "score",
          "type": "uint256"
        }
      ],
      "stateMutability": "view",
      "type": "function"
    },
    {
      "inputs": [
        {
          "internalType": "address",
          "name": "_phoneHash",
          "type": "address"
        }
      ],
      "name": "eligibility",
      "outputs": [
        {
          "internalType": "uint8",
          "name": "",
          "type": "uint8"
        },
        {
          "internalType": "enum Offering.EligibilityReason",
          "name": "",
          "type": "uint8"
        }
      ],
      "stateMutability": "pure",
      "type": "function"
    },
    {
      "inputs": [
        {
          "internalType": "uint8",
          "name": "_scoring",
          "type": "uint8"
        }
      ],
      "name": "getOfferProposals",
      "outputs": [
        {
          "internalType": "uint256[]",
          "name": "",
          "type": "uint256[]"
        }
      ],
      "stateMutability": "view",
      "type": "function"
    },
    {
      "inputs": [],
      "name": "getUniqueId",
      "outputs": [
        {
          "internalType": "address",
          "name": "",
          "type": "address"
        }
      ],
      "stateMutability": "nonpayable",
      "type": "function"
    },
    {
      "inputs": [
        {
          "internalType": "address",
          "name": "_phoneHash",
          "type": "address"
        }
      ],
      "name": "isActiveCustomer",
      "outputs": [
        {
          "internalType": "bool",
          "name": "",
          "type": "bool"
        }
      ],
      "stateMutability": "view",
      "type": "function"
    },
    {
      "inputs": [
        {
          "internalType": "address",
          "name": "_phoneHash",
          "type": "address"
        },
        {
          "internalType": "string",
          "name": "_ref",
          "type": "string"
        }
      ],
      "name": "lowBalance",
      "outputs": [],
      "stateMutability": "nonpayable",
      "type": "function"
    },
    {
      "inputs": [
        {
          "internalType": "uint256",
          "name": "",
          "type": "uint256"
        }
      ],
      "name": "offers",
      "outputs": [
        {
          "internalType": "address",
          "name": "phoneHash",
          "type": "address"
        },
        {
          "internalType": "uint256",
          "name": "timestamp",
          "type": "uint256"
        },
        {
          "internalType": "enum Offering.EligibilityReason",
          "name": "reason",
          "type": "uint8"
        },
        {
          "internalType": "enum Offering.OfferStatus",
          "name": "status",
          "type": "uint8"
        },
        {
          "internalType": "string",
          "name": "ref",
          "type": "string"
        }
      ],
      "stateMutability": "view",
      "type": "function"
    },
    {
      "inputs": [],
      "name": "owner",
      "outputs": [
        {
          "internalType": "address",
          "name": "",
          "type": "address"
        }
      ],
      "stateMutability": "view",
      "type": "function"
    },
    {
      "inputs": [
        {
          "internalType": "uint256",
          "name": "_previousScore",
          "type": "uint256"
        },
        {
          "internalType": "uint256",
          "name": "_acceptanceTimestamp",
          "type": "uint256"
        },
        {
          "internalType": "uint256",
          "name": "_paidTimestamp",
          "type": "uint256"
        }
      ],
      "name": "process",
      "outputs": [
        {
          "internalType": "uint256",
          "name": "",
          "type": "uint256"
        }
      ],
      "stateMutability": "view",
      "type": "function"
    },
    {
      "inputs": [
        {
          "internalType": "uint256",
          "name": "",
          "type": "uint256"
        }
      ],
      "name": "products",
      "outputs": [
        {
          "internalType": "address",
          "name": "phoneHash",
          "type": "address"
        },
        {
          "internalType": "uint256",
          "name": "timestamp",
          "type": "uint256"
        },
        {
          "internalType": "uint256",
          "name": "offerId",
          "type": "uint256"
        },
        {
          "internalType": "uint256",
          "name": "proposalId",
          "type": "uint256"
        },
        {
          "internalType": "uint256",
          "name": "topUpAmount",
          "type": "uint256"
        },
        {
          "internalType": "enum Offering.ProductStatus",
          "name": "status",
          "type": "uint8"
        }
      ],
      "stateMutability": "view",
      "type": "function"
    },
    {
      "inputs": [
        {
          "internalType": "uint256",
          "name": "",
          "type": "uint256"
        }
      ],
      "name": "proposals",
      "outputs": [
        {
          "internalType": "uint8",
          "name": "minScoring",
          "type": "uint8"
        },
        {
          "internalType": "uint256",
          "name": "capital",
          "type": "uint256"
        },
        {
          "internalType": "uint256",
          "name": "interest",
          "type": "uint256"
        },
        {
          "internalType": "uint256",
          "name": "validityPeriod",
          "type": "uint256"
        },
        {
          "internalType": "string",
          "name": "description",
          "type": "string"
        },
        {
          "internalType": "enum Offering.ProposalStatus",
          "name": "status",
          "type": "uint8"
        }
      ],
      "stateMutability": "view",
      "type": "function"
    },
    {
      "inputs": [],
      "name": "proposalsCount",
      "outputs": [
        {
          "internalType": "uint256",
          "name": "",
          "type": "uint256"
        }
      ],
      "stateMutability": "view",
      "type": "function"
    },
    {
      "inputs": [],
      "name": "renounceOwnership",
      "outputs": [],
      "stateMutability": "nonpayable",
      "type": "function"
    },
    {
      "inputs": [
        {
          "internalType": "address",
          "name": "_phoneHash",
          "type": "address"
        },
        {
          "internalType": "uint256",
          "name": "_paidTimestamp",
          "type": "uint256"
        }
      ],
      "name": "topUpBilling",
      "outputs": [],
      "stateMutability": "nonpayable",
      "type": "function"
    },
    {
      "inputs": [
        {
          "internalType": "address",
          "name": "newOwner",
          "type": "address"
        }
      ],
      "name": "transferOwnership",
      "outputs": [],
      "stateMutability": "nonpayable",
      "type": "function"
    },
    {
      "inputs": [
        {
          "internalType": "address",
          "name": "_phoneHash",
          "type": "address"
        },
        {
          "internalType": "uint256",
          "name": "_acceptanceTimestamp",
          "type": "uint256"
        },
        {
          "internalType": "uint256",
          "name": "_paidTimestamp",
          "type": "uint256"
        }
      ],
      "name": "addToScore",
      "outputs": [],
      "stateMutability": "nonpayable",
      "type": "function"
    },
    {
      "inputs": [
        {
          "internalType": "address",
          "name": "_phoneHash",
          "type": "address"
        },
        {
          "internalType": "uint256",
          "name": "_paidTimestamp",
          "type": "uint256"
        }
      ],
      "name": "topUp",
      "outputs": [],
      "stateMutability": "nonpayable",
      "type": "function"
    }
  ],
  "bytecode": "0x608060405260006002553480156200001657600080fd5b50620000376200002b6200003d60201b60201c565b6200004560201b60201c565b62000109565b600033905090565b60008060009054906101000a900473ffffffffffffffffffffffffffffffffffffffff169050816000806101000a81548173ffffffffffffffffffffffffffffffffffffffff021916908373ffffffffffffffffffffffffffffffffffffffff1602179055508173ffffffffffffffffffffffffffffffffffffffff168173ffffffffffffffffffffffffffffffffffffffff167f8be0079c531659141344cd1fd0a4f28419497f9722a3daafe3b4186f6b6457e060405160405180910390a35050565b6130b780620001196000396000f3fe608060405234801561001057600080fd5b50600436106101375760003560e01c80637c99f6a6116100b85780639ef91d911161007c5780639ef91d911461036e578063ab63d7f21461039e578063bdcf208c146103bc578063d1089d40146103d8578063d6f7ddf9146103f4578063f2fde38b1461041057610137565b80637c99f6a6146102b45780637f61479d146102e4578063898ebe58146103005780638a72ea6a1461031c5780638da5cb5b1461035057610137565b806346747b38116100ff57806346747b38146101f857806347466dc31461022857806363c36dec14610244578063715018a6146102755780637acc0b201461027f57610137565b8063013cf08b1461013c5780630a9f46ad146101715780631ac8d4441461018f578063336989ae146101ab57806345df7779146101dc575b600080fd5b610156600480360381019061015191906121c2565b61042c565b604051610168969594939291906129e1565b60405180910390f35b61017961051a565b60405161018691906128c6565b60405180910390f35b6101a960048036038101906101a49190612064565b610527565b005b6101c560048036038101906101c09190612037565b6107bd565b6040516101d39291906127dd565b60405180910390f35b6101f660048036038101906101f1919061212f565b6107ee565b005b610212600480360381019061020d9190612242565b610d5e565b60405161021f91906127a0565b60405180910390f35b610242600480360381019061023d91906121c2565b610ed6565b005b61025e60048036038101906102599190612037565b610fec565b60405161026c9291906129b8565b60405180910390f35b61027d6110a7565b005b610299600480360381019061029491906121c2565b61112f565b6040516102ab9695949392919061273f565b60405180910390f35b6102ce60048036038101906102c991906121ef565b6111a8565b6040516102db91906128c6565b60405180910390f35b6102fe60048036038101906102f991906120c0565b6111b6565b005b61031a6004803603810190610315919061216f565b6113ec565b005b610336600480360381019061033191906121c2565b61157b565b6040516103479594939291906126e5565b60405180910390f35b610358611683565b6040516103659190612603565b60405180910390f35b61038860048036038101906103839190612037565b6116ac565b60405161039591906127c2565b60405180910390f35b6103a6611739565b6040516103b39190612603565b60405180910390f35b6103d660048036038101906103d1919061226f565b611788565b005b6103f260048036038101906103ed919061212f565b61198d565b005b61040e6004803603810190610409919061212f565b611acf565b005b61042a60048036038101906104259190612037565b611c19565b005b6004818154811061043c57600080fd5b90600052602060002090600602016000915090508060000160009054906101000a900460ff169080600101549080600201549080600301549080600401805461048490612c9f565b80601f01602080910402602001604051908101604052809291908181526020018280546104b090612c9f565b80156104fd5780601f106104d2576101008083540402835291602001916104fd565b820191906000526020600020905b8154815290600101906020018083116104e057829003601f168201915b5050505050908060050160009054906101000a900460ff16905086565b6000600480549050905090565b7f251fc0df7e56c36cfc4f618ef67296b8e2c41ce1ce473e5187bfec66743b38d3828260405161055892919061261e565b60405180910390a160008061056c84610fec565b809250819350505061057c611ddd565b84816000019073ffffffffffffffffffffffffffffffffffffffff16908173ffffffffffffffffffffffffffffffffffffffff16815250504281602001818152505081816040019060048111156105d6576105d5612da8565b5b908160048111156105ea576105e9612da8565b5b8152505060008160800190600181111561060757610606612da8565b5b9081600181111561061b5761061a612da8565b5b8152505061062883610d5e565b8160600181905250838160a00181905250600381908060018154018082558091505060019003906000526020600020906006020160009091909190915060008201518160000160006101000a81548173ffffffffffffffffffffffffffffffffffffffff021916908373ffffffffffffffffffffffffffffffffffffffff1602179055506020820151816001015560408201518160020160006101000a81548160ff021916908360048111156106e1576106e0612da8565b5b02179055506060820151816003019080519060200190610702929190611e4d565b5060808201518160040160006101000a81548160ff0219169083600181111561072e5761072d612da8565b5b021790555060a082015181600501908051906020019061074f929190611e9a565b5050507f6a2d36566113fdc14dbc5b9458a0ba3a3eb54e394c2eb29fb26efdfee664f55e60016003805490506107859190612b09565b8260000151836020015184604001518560600151888a6040516107ae97969594939291906128e1565b60405180910390a15050505050565b60016020528060005260406000206000915090508060000160009054906101000a900460ff16908060010154905082565b6107f6611d11565b73ffffffffffffffffffffffffffffffffffffffff16610814611683565b73ffffffffffffffffffffffffffffffffffffffff161461086a576040517f08c379a000000000000000000000000000000000000000000000000000000000815260040161086190612886565b60405180910390fd5b816000600181111561087f5761087e612da8565b5b600160008373ffffffffffffffffffffffffffffffffffffffff1673ffffffffffffffffffffffffffffffffffffffff16815260200190815260200160002060000160009054906101000a900460ff1660018111156108e1576108e0612da8565b5b14610921576040517f08c379a0000000000000000000000000000000000000000000000000000000008152600401610918906128a6565b60405180910390fd5b600060018060008673ffffffffffffffffffffffffffffffffffffffff1673ffffffffffffffffffffffffffffffffffffffff168152602001908152602001600020600201805490506109749190612b09565b90506000600160008673ffffffffffffffffffffffffffffffffffffffff1673ffffffffffffffffffffffffffffffffffffffff16815260200190815260200160002060020180549050116109fe576040517f08c379a00000000000000000000000000000000000000000000000000000000081526004016109f590612866565b60405180910390fd5b60006001811115610a1257610a11612da8565b5b600160008673ffffffffffffffffffffffffffffffffffffffff1673ffffffffffffffffffffffffffffffffffffffff1681526020019081526020016000206002018281548110610a6657610a65612e06565b5b906000526020600020906004020160020160009054906101000a900460ff166001811115610a9757610a96612da8565b5b14610ad7576040517f08c379a0000000000000000000000000000000000000000000000000000000008152600401610ace90612806565b60405180910390fd5b82600160008673ffffffffffffffffffffffffffffffffffffffff1673ffffffffffffffffffffffffffffffffffffffff1681526020019081526020016000206002018281548110610b2c57610b2b612e06565b5b90600052602060002090600402016001018190555060018060008673ffffffffffffffffffffffffffffffffffffffff1673ffffffffffffffffffffffffffffffffffffffff1681526020019081526020016000206002018281548110610b9657610b95612e06565b5b906000526020600020906004020160020160006101000a81548160ff02191690836001811115610bc957610bc8612da8565b5b02179055507fa3a756c9361873f5cd34cb71ba3b6ebc76b90321aa2767387c016991dfb4f63a84600160008773ffffffffffffffffffffffffffffffffffffffff1673ffffffffffffffffffffffffffffffffffffffff1681526020019081526020016000206002018381548110610c4457610c43612e06565b5b9060005260206000209060040201600301604051610c6392919061268c565b60405180910390a16000600160008673ffffffffffffffffffffffffffffffffffffffff1673ffffffffffffffffffffffffffffffffffffffff168152602001908152602001600020600101541415610d585760018060008673ffffffffffffffffffffffffffffffffffffffff1673ffffffffffffffffffffffffffffffffffffffff16815260200190815260200160002060000160006101000a81548160ff02191690836001811115610d1b57610d1a612da8565b5b02179055507f1eacdda6365a7f824e9b515212eda6b8fb050f25bc505f857ac21c025a64e6f184604051610d4f9190612603565b60405180910390a15b50505050565b60606000600367ffffffffffffffff811115610d7d57610d7c612e35565b5b604051908082528060200260200182016040528015610dab5781602001602082028036833780820191505090505b5090506000808460ff161415610dc5578192505050610ed1565b6000600190505b60048054905081108015610de05750600382105b15610eca5760006001811115610df957610df8612da8565b5b60048281548110610e0d57610e0c612e06565b5b906000526020600020906006020160050160009054906101000a900460ff166001811115610e3e57610e3d612da8565b5b148015610e83575060048181548110610e5a57610e59612e06565b5b906000526020600020906006020160000160009054906101000a900460ff1660ff168560ff1610155b15610eb75780838381518110610e9c57610e9b612e06565b5b6020026020010181815250508180610eb390612d02565b9250505b8080610ec290612d02565b915050610dcc565b5081925050505b919050565b610ede611d11565b73ffffffffffffffffffffffffffffffffffffffff16610efc611683565b73ffffffffffffffffffffffffffffffffffffffff1614610f52576040517f08c379a0000000000000000000000000000000000000000000000000000000008152600401610f4990612886565b60405180910390fd5b806004805490508110610f9a576040517f08c379a0000000000000000000000000000000000000000000000000000000008152600401610f9190612826565b60405180910390fd5b600160048381548110610fb057610faf612e06565b5b906000526020600020906006020160050160006101000a81548160ff02191690836001811115610fe357610fe2612da8565b5b02179055505050565b60008073718cea3706787aa03bd936b76303fa00660c5f4273ffffffffffffffffffffffffffffffffffffffff168373ffffffffffffffffffffffffffffffffffffffff1614156110445760036000915091506110a2565b733ad53d26d15a658a84fe8ca9ffc8aa3a7240c1a073ffffffffffffffffffffffffffffffffffffffff168373ffffffffffffffffffffffffffffffffffffffff1614156110995760066000915091506110a2565b60006003915091505b915091565b6110af611d11565b73ffffffffffffffffffffffffffffffffffffffff166110cd611683565b73ffffffffffffffffffffffffffffffffffffffff1614611123576040517f08c379a000000000000000000000000000000000000000000000000000000000815260040161111a90612886565b60405180910390fd5b61112d6000611d19565b565b6005818154811061113f57600080fd5b90600052602060002090600602016000915090508060000160009054906101000a900473ffffffffffffffffffffffffffffffffffffffff16908060010154908060020154908060030154908060040154908060050160009054906101000a900460ff16905086565b600080809150509392505050565b82600060018111156111cb576111ca612da8565b5b600160008373ffffffffffffffffffffffffffffffffffffffff1673ffffffffffffffffffffffffffffffffffffffff16815260200190815260200160002060000160009054906101000a900460ff16600181111561122d5761122c612da8565b5b1461126d576040517f08c379a0000000000000000000000000000000000000000000000000000000008152600401611264906128a6565b60405180910390fd5b7fd9b8c2cc3eb9a560bd0f08689340a119d3b98b77fd516a8a3f728493d18dc59b8484846040516112a09392919061264e565b60405180910390a1600160008573ffffffffffffffffffffffffffffffffffffffff1673ffffffffffffffffffffffffffffffffffffffff1681526020019081526020016000206002016040518060800160405280848152602001600081526020016000600181111561131657611315612da8565b5b8152602001858152509080600181540180825580915050600190039060005260206000209060040201600090919091909150600082015181600001556020820151816001015560408201518160020160006101000a81548160ff0219169083600181111561138757611386612da8565b5b021790555060608201518160030190805190602001906113a8929190611e9a565b5050507f814b246d1dad06f336e34264a3a1dab47d4b041329e5d0dd774e9cb108d462898484846040516113de9392919061264e565b60405180910390a150505050565b6113f4611d11565b73ffffffffffffffffffffffffffffffffffffffff16611412611683565b73ffffffffffffffffffffffffffffffffffffffff1614611468576040517f08c379a000000000000000000000000000000000000000000000000000000000815260040161145f90612886565b60405180910390fd5b826000600181111561147d5761147c612da8565b5b600160008373ffffffffffffffffffffffffffffffffffffffff1673ffffffffffffffffffffffffffffffffffffffff16815260200190815260200160002060000160009054906101000a900460ff1660018111156114df576114de612da8565b5b1461151f576040517f08c379a0000000000000000000000000000000000000000000000000000000008152600401611516906128a6565b60405180910390fd5b61157584611570600160008873ffffffffffffffffffffffffffffffffffffffff1673ffffffffffffffffffffffffffffffffffffffff1681526020019081526020016000206001015486866111a8565b61198d565b50505050565b6003818154811061158b57600080fd5b90600052602060002090600602016000915090508060000160009054906101000a900473ffffffffffffffffffffffffffffffffffffffff16908060010154908060020160009054906101000a900460ff16908060040160009054906101000a900460ff169080600501805461160090612c9f565b80601f016020809104026020016040519081016040528092919081815260200182805461162c90612c9f565b80156116795780601f1061164e57610100808354040283529160200191611679565b820191906000526020600020905b81548152906001019060200180831161165c57829003601f168201915b5050505050905085565b60008060009054906101000a900473ffffffffffffffffffffffffffffffffffffffff16905090565b60008060018111156116c1576116c0612da8565b5b600160008473ffffffffffffffffffffffffffffffffffffffff1673ffffffffffffffffffffffffffffffffffffffff16815260200190815260200160002060000160009054906101000a900460ff16600181111561172357611722612da8565b5b1461172f576000611732565b60015b9050919050565b60006002600081548092919061174e90612d02565b9190505550423360025460405160200161176a939291906125c6565b6040516020818303038152906040528051906020012060601c905090565b611790611d11565b73ffffffffffffffffffffffffffffffffffffffff166117ae611683565b73ffffffffffffffffffffffffffffffffffffffff1614611804576040517f08c379a00000000000000000000000000000000000000000000000000000000081526004016117fb90612886565b60405180910390fd5b61180c611f20565b84816000019060ff16908160ff1681525050838160200181815250508281604001818152505081816080018190525060008160a00190600181111561185457611853612da8565b5b9081600181111561186857611867612da8565b5b81525050600481908060018154018082558091505060019003906000526020600020906006020160009091909190915060008201518160000160006101000a81548160ff021916908360ff16021790555060208201518160010155604082015181600201556060820151816003015560808201518160040190805190602001906118f3929190611e9a565b5060a08201518160050160006101000a81548160ff0219169083600181111561191f5761191e612da8565b5b021790555050507f0dd92ec7c9e4620459d0f39f48975327d855d61513c1e839e5ae03d1ca76447260016004805490506119599190612b09565b826000015183602001518460400151856080015160405161197e95949392919061295e565b60405180910390a15050505050565b611995611d11565b73ffffffffffffffffffffffffffffffffffffffff166119b3611683565b73ffffffffffffffffffffffffffffffffffffffff1614611a09576040517f08c379a0000000000000000000000000000000000000000000000000000000008152600401611a0090612886565b60405180910390fd5b80600160008473ffffffffffffffffffffffffffffffffffffffff1673ffffffffffffffffffffffffffffffffffffffff168152602001908152602001600020600101819055507f392c39309f267601298d01383eca81bc058e81fcd3212a0d9ea2e1af2bb9aead82600160008573ffffffffffffffffffffffffffffffffffffffff1673ffffffffffffffffffffffffffffffffffffffff16815260200190815260200160002060010154604051611ac39291906126bc565b60405180910390a15050565b611ad7611d11565b73ffffffffffffffffffffffffffffffffffffffff16611af5611683565b73ffffffffffffffffffffffffffffffffffffffff1614611b4b576040517f08c379a0000000000000000000000000000000000000000000000000000000008152600401611b4290612886565b60405180910390fd5b611c0b82600160008573ffffffffffffffffffffffffffffffffffffffff1673ffffffffffffffffffffffffffffffffffffffff16815260200190815260200160002060020160018060008773ffffffffffffffffffffffffffffffffffffffff1673ffffffffffffffffffffffffffffffffffffffff16815260200190815260200160002060020180549050611be29190612b09565b81548110611bf357611bf2612e06565b5b906000526020600020906004020160000154836113ec565b611c1582826107ee565b5050565b611c21611d11565b73ffffffffffffffffffffffffffffffffffffffff16611c3f611683565b73ffffffffffffffffffffffffffffffffffffffff1614611c95576040517f08c379a0000000000000000000000000000000000000000000000000000000008152600401611c8c90612886565b60405180910390fd5b600073ffffffffffffffffffffffffffffffffffffffff168173ffffffffffffffffffffffffffffffffffffffff161415611d05576040517f08c379a0000000000000000000000000000000000000000000000000000000008152600401611cfc90612846565b60405180910390fd5b611d0e81611d19565b50565b600033905090565b60008060009054906101000a900473ffffffffffffffffffffffffffffffffffffffff169050816000806101000a81548173ffffffffffffffffffffffffffffffffffffffff021916908373ffffffffffffffffffffffffffffffffffffffff1602179055508173ffffffffffffffffffffffffffffffffffffffff168173ffffffffffffffffffffffffffffffffffffffff167f8be0079c531659141344cd1fd0a4f28419497f9722a3daafe3b4186f6b6457e060405160405180910390a35050565b6040518060c00160405280600073ffffffffffffffffffffffffffffffffffffffff1681526020016000815260200160006004811115611e2057611e1f612da8565b5b81526020016060815260200160006001811115611e4057611e3f612da8565b5b8152602001606081525090565b828054828255906000526020600020908101928215611e89579160200282015b82811115611e88578251825591602001919060010190611e6d565b5b509050611e969190611f6b565b5090565b828054611ea690612c9f565b90600052602060002090601f016020900481019282611ec85760008555611f0f565b82601f10611ee157805160ff1916838001178555611f0f565b82800160010185558215611f0f579182015b82811115611f0e578251825591602001919060010190611ef3565b5b509050611f1c9190611f6b565b5090565b6040518060c00160405280600060ff1681526020016000815260200160008152602001600081526020016060815260200160006001811115611f6557611f64612da8565b5b81525090565b5b80821115611f84576000816000905550600101611f6c565b5090565b6000611f9b611f9684612a6e565b612a49565b905082815260208101848484011115611fb757611fb6612e69565b5b611fc2848285612c5d565b509392505050565b600081359050611fd98161303c565b92915050565b600082601f830112611ff457611ff3612e64565b5b8135612004848260208601611f88565b91505092915050565b60008135905061201c81613053565b92915050565b6000813590506120318161306a565b92915050565b60006020828403121561204d5761204c612e73565b5b600061205b84828501611fca565b91505092915050565b6000806040838503121561207b5761207a612e73565b5b600061208985828601611fca565b925050602083013567ffffffffffffffff8111156120aa576120a9612e6e565b5b6120b685828601611fdf565b9150509250929050565b6000806000606084860312156120d9576120d8612e73565b5b60006120e786828701611fca565b935050602084013567ffffffffffffffff81111561210857612107612e6e565b5b61211486828701611fdf565b92505060406121258682870161200d565b9150509250925092565b6000806040838503121561214657612145612e73565b5b600061215485828601611fca565b92505060206121658582860161200d565b9150509250929050565b60008060006060848603121561218857612187612e73565b5b600061219686828701611fca565b93505060206121a78682870161200d565b92505060406121b88682870161200d565b9150509250925092565b6000602082840312156121d8576121d7612e73565b5b60006121e68482850161200d565b91505092915050565b60008060006060848603121561220857612207612e73565b5b60006122168682870161200d565b93505060206122278682870161200d565b92505060406122388682870161200d565b9150509250925092565b60006020828403121561225857612257612e73565b5b600061226684828501612022565b91505092915050565b6000806000806080858703121561228957612288612e73565b5b600061229787828801612022565b94505060206122a88782880161200d565b93505060406122b98782880161200d565b925050606085013567ffffffffffffffff8111156122da576122d9612e6e565b5b6122e687828801611fdf565b91505092959194509250565b60006122fe8383612573565b60208301905092915050565b61231381612b3d565b82525050565b61232a61232582612b3d565b612d4b565b82525050565b600061233b82612ac4565b6123458185612ae7565b935061235083612a9f565b8060005b8381101561238157815161236888826122f2565b975061237383612ada565b925050600181019050612354565b5085935050505092915050565b61239781612b4f565b82525050565b6123a681612bf1565b82525050565b6123b581612c03565b82525050565b6123c481612c15565b82525050565b6123d381612c27565b82525050565b6123e281612c39565b82525050565b60006123f382612acf565b6123fd8185612af8565b935061240d818560208601612c6c565b61241681612e78565b840191505092915050565b6000815461242e81612c9f565b6124388186612af8565b94506001821660008114612453576001811461246557612498565b60ff1983168652602086019350612498565b61246e85612aaf565b60005b8381101561249057815481890152600182019150602081019050612471565b808801955050505b50505092915050565b60006124ae602583612af8565b91506124b982612e96565b604082019050919050565b60006124d1601683612af8565b91506124dc82612ee5565b602082019050919050565b60006124f4602683612af8565b91506124ff82612f0e565b604082019050919050565b6000612517601783612af8565b915061252282612f5d565b602082019050919050565b600061253a602083612af8565b915061254582612f86565b602082019050919050565b600061255d601083612af8565b915061256882612faf565b602082019050919050565b61257c81612bda565b82525050565b61258b81612bda565b82525050565b6125a261259d82612bda565b612d6f565b82525050565b6125b181612c4b565b82525050565b6125c081612be4565b82525050565b60006125d28286612591565b6020820191506125e28285612319565b6014820191506125f28284612591565b602082019150819050949350505050565b6000602082019050612618600083018461230a565b92915050565b6000604082019050612633600083018561230a565b818103602083015261264581846123e8565b90509392505050565b6000606082019050612663600083018661230a565b818103602083015261267581856123e8565b90506126846040830184612582565b949350505050565b60006040820190506126a1600083018561230a565b81810360208301526126b38184612421565b90509392505050565b60006040820190506126d1600083018561230a565b6126de6020830184612582565b9392505050565b600060a0820190506126fa600083018861230a565b6127076020830187612582565b61271460408301866123ac565b61272160608301856123bb565b818103608083015261273381846123e8565b90509695505050505050565b600060c082019050612754600083018961230a565b6127616020830188612582565b61276e6040830187612582565b61277b6060830186612582565b6127886080830185612582565b61279560a08301846123ca565b979650505050505050565b600060208201905081810360008301526127ba8184612330565b905092915050565b60006020820190506127d7600083018461238e565b92915050565b60006040820190506127f2600083018561239d565b6127ff6020830184612582565b9392505050565b6000602082019050818103600083015261281f816124a1565b9050919050565b6000602082019050818103600083015261283f816124c4565b9050919050565b6000602082019050818103600083015261285f816124e7565b9050919050565b6000602082019050818103600083015261287f8161250a565b9050919050565b6000602082019050818103600083015261289f8161252d565b9050919050565b600060208201905081810360008301526128bf81612550565b9050919050565b60006020820190506128db6000830184612582565b92915050565b600060e0820190506128f6600083018a612582565b612903602083018961230a565b6129106040830188612582565b61291d60608301876123ac565b818103608083015261292f8186612330565b905061293e60a08301856125a8565b81810360c083015261295081846123e8565b905098975050505050505050565b600060a0820190506129736000830188612582565b61298060208301876125b7565b61298d6040830186612582565b61299a6060830185612582565b81810360808301526129ac81846123e8565b90509695505050505050565b60006040820190506129cd60008301856125b7565b6129da60208301846123ac565b9392505050565b600060c0820190506129f660008301896125b7565b612a036020830188612582565b612a106040830187612582565b612a1d6060830186612582565b8181036080830152612a2f81856123e8565b9050612a3e60a08301846123d9565b979650505050505050565b6000612a53612a64565b9050612a5f8282612cd1565b919050565b6000604051905090565b600067ffffffffffffffff821115612a8957612a88612e35565b5b612a9282612e78565b9050602081019050919050565b6000819050602082019050919050565b60008190508160005260206000209050919050565b600081519050919050565b600081519050919050565b6000602082019050919050565b600082825260208201905092915050565b600082825260208201905092915050565b6000612b1482612bda565b9150612b1f83612bda565b925082821015612b3257612b31612d79565b5b828203905092915050565b6000612b4882612bba565b9050919050565b60008115159050919050565b6000819050612b6982612fd8565b919050565b6000819050612b7c82612fec565b919050565b6000819050612b8f82613000565b919050565b6000819050612ba282613014565b919050565b6000819050612bb582613028565b919050565b600073ffffffffffffffffffffffffffffffffffffffff82169050919050565b6000819050919050565b600060ff82169050919050565b6000612bfc82612b5b565b9050919050565b6000612c0e82612b6e565b9050919050565b6000612c2082612b81565b9050919050565b6000612c3282612b94565b9050919050565b6000612c4482612ba7565b9050919050565b6000612c5682612be4565b9050919050565b82818337600083830152505050565b60005b83811015612c8a578082015181840152602081019050612c6f565b83811115612c99576000848401525b50505050565b60006002820490506001821680612cb757607f821691505b60208210811415612ccb57612cca612dd7565b5b50919050565b612cda82612e78565b810181811067ffffffffffffffff82111715612cf957612cf8612e35565b5b80604052505050565b6000612d0d82612bda565b91507fffffffffffffffffffffffffffffffffffffffffffffffffffffffffffffffff821415612d4057612d3f612d79565b5b600182019050919050565b6000612d5682612d5d565b9050919050565b6000612d6882612e89565b9050919050565b6000819050919050565b7f4e487b7100000000000000000000000000000000000000000000000000000000600052601160045260246000fd5b7f4e487b7100000000000000000000000000000000000000000000000000000000600052602160045260246000fd5b7f4e487b7100000000000000000000000000000000000000000000000000000000600052602260045260246000fd5b7f4e487b7100000000000000000000000000000000000000000000000000000000600052603260045260246000fd5b7f4e487b7100000000000000000000000000000000000000000000000000000000600052604160045260246000fd5b600080fd5b600080fd5b600080fd5b600080fd5b6000601f19601f8301169050919050565b60008160601b9050919050565b7f54686520637573746f6d657220686173206e6f2070726f6475637420746f207260008201527f6566756e64000000000000000000000000000000000000000000000000000000602082015250565b7f50726f706f73616c20646f65736e277420657869737400000000000000000000600082015250565b7f4f776e61626c653a206e6577206f776e657220697320746865207a65726f206160008201527f6464726573730000000000000000000000000000000000000000000000000000602082015250565b7f50686f6e65206973206e6f742072656769737465726564000000000000000000600082015250565b7f4f776e61626c653a2063616c6c6572206973206e6f7420746865206f776e6572600082015250565b7f426c6f636b656420637573746f6d657200000000000000000000000000000000600082015250565b60028110612fe957612fe8612da8565b5b50565b60058110612ffd57612ffc612da8565b5b50565b6002811061301157613010612da8565b5b50565b6002811061302557613024612da8565b5b50565b6002811061303957613038612da8565b5b50565b61304581612b3d565b811461305057600080fd5b50565b61305c81612bda565b811461306757600080fd5b50565b61307381612be4565b811461307e57600080fd5b5056fea2646970667358221220437c4d1a0a497539c4d022f7fe20c7eedcfd3e129502f6f210a3c52422ca3f6d64736f6c63430008060033",
  "immutableReferences": {},
  "source": "// SPDX-License-Identifier: MIT\npragma solidity ^0.8.6;\n\nimport \"./Billing.sol\";\nimport \"./Scoring.sol\";\nimport \"./Offering.sol\";\nimport \"@openzeppelin/contracts/access/Ownable.sol\";\n\ncontract Timelapse is Ownable, Billing, Offering, Scoring {\n\n    constructor() {}\n\n    function addToScore(address _phoneHash, uint _acceptanceTimestamp, uint _paidTimestamp) public onlyOwner activeCustomer(_phoneHash) {\n        changeScore(_phoneHash, process(customers[_phoneHash].score, _acceptanceTimestamp, _paidTimestamp));\n    }\n\n    function topUp(address _phoneHash, uint _paidTimestamp) public onlyOwner {\n        addToScore(_phoneHash, customers[_phoneHash].history[customers[_phoneHash].history.length - 1].acceptanceTimestamp, _paidTimestamp);\n        topUpBilling(_phoneHash, _paidTimestamp);\n    }\n}",
  "sourcePath": "/home/keymon/work/projet-pro/dApp/timelapse/contracts/Timelapse.sol",
  "compiler": {
    "name": "solc",
    "version": "0.8.6+commit.11564f7e.Emscripten.clang"
  },
  "schemaVersion": "3.4.1",
  "updatedAt": "2021-07-13T16:17:51.973Z",
  "devdoc": {
    "kind": "dev",
    "methods": {
      "owner()": {
        "details": "Returns the address of the current owner."
      },
      "renounceOwnership()": {
        "details": "Leaves the contract without owner. It will not be possible to call `onlyOwner` functions anymore. Can only be called by the current owner. NOTE: Renouncing ownership will leave the contract without an owner, thereby removing any functionality that is only available to the owner."
      },
      "transferOwnership(address)": {
        "details": "Transfers ownership of the contract to a new account (`newOwner`). Can only be called by the current owner."
      }
    },
    "version": 1
  },
  "userdoc": {
    "kind": "user",
    "methods": {},
    "version": 1
  }
}