{
  "contractName": "Timelapse",
  "abi": [
    {
      "inputs": [
        {
          "internalType": "address",
          "name": "_billingAddress",
          "type": "address"
        },
        {
          "internalType": "address",
          "name": "_offeringAddress",
          "type": "address"
        }
      ],
      "stateMutability": "nonpayable",
      "type": "constructor"
    },
    {
      "anonymous": false,
      "inputs": [
        {
          "indexed": true,
          "internalType": "address",
          "name": "previousOwner",
          "type": "address"
        },
        {
          "indexed": true,
          "internalType": "address",
          "name": "newOwner",
          "type": "address"
        }
      ],
      "name": "OwnershipTransferred",
      "type": "event"
    },
    {
      "inputs": [],
      "name": "owner",
      "outputs": [
        {
          "internalType": "address",
          "name": "",
          "type": "address"
        }
      ],
      "stateMutability": "view",
      "type": "function",
      "constant": true
    },
    {
      "inputs": [],
      "name": "renounceOwnership",
      "outputs": [],
      "stateMutability": "nonpayable",
      "type": "function"
    },
    {
      "inputs": [
        {
          "internalType": "address",
          "name": "newOwner",
          "type": "address"
        }
      ],
      "name": "transferOwnership",
      "outputs": [],
      "stateMutability": "nonpayable",
      "type": "function"
    },
    {
      "inputs": [
        {
          "internalType": "uint8",
          "name": "_minScoring",
          "type": "uint8"
        },
        {
          "internalType": "uint256",
          "name": "_capital",
          "type": "uint256"
        },
        {
          "internalType": "uint256",
          "name": "_interest",
          "type": "uint256"
        },
        {
          "internalType": "string",
          "name": "_description",
          "type": "string"
        }
      ],
      "name": "addProposal",
      "outputs": [],
      "stateMutability": "nonpayable",
      "type": "function"
    },
    {
      "inputs": [
        {
          "internalType": "uint256",
          "name": "_id",
          "type": "uint256"
        }
      ],
      "name": "closedProposal",
      "outputs": [],
      "stateMutability": "nonpayable",
      "type": "function"
    },
    {
      "inputs": [
        {
          "internalType": "address",
          "name": "_phoneHash",
          "type": "address"
        }
      ],
      "name": "addToScore",
      "outputs": [],
      "stateMutability": "nonpayable",
      "type": "function"
    },
    {
      "inputs": [
        {
          "internalType": "address",
          "name": "_phoneHash",
          "type": "address"
        },
        {
          "internalType": "string",
          "name": "_ref",
          "type": "string"
        },
        {
          "internalType": "uint256",
          "name": "_acceptanceTimestamp",
          "type": "uint256"
        },
        {
          "internalType": "uint256",
          "name": "_idOffer",
          "type": "uint256"
        },
        {
          "internalType": "uint256",
          "name": "_idProposal",
          "type": "uint256"
        }
      ],
      "name": "acceptance",
      "outputs": [],
      "stateMutability": "nonpayable",
      "type": "function"
    },
    {
      "inputs": [
        {
          "internalType": "address",
          "name": "_phoneHash",
          "type": "address"
        },
        {
          "internalType": "uint256",
          "name": "_paidTimestamp",
          "type": "uint256"
        }
      ],
      "name": "topUp",
      "outputs": [],
      "stateMutability": "nonpayable",
      "type": "function"
    },
    {
      "inputs": [
        {
          "internalType": "address",
          "name": "_phoneHash",
          "type": "address"
        },
        {
          "internalType": "string",
          "name": "_ref",
          "type": "string"
        }
      ],
      "name": "lowBalance",
      "outputs": [],
      "stateMutability": "nonpayable",
      "type": "function"
    },
    {
      "inputs": [
        {
          "internalType": "address",
          "name": "_phoneHash",
          "type": "address"
        },
        {
          "internalType": "uint256",
          "name": "_startTimestamp",
          "type": "uint256"
        },
        {
          "internalType": "uint256",
          "name": "_endTimestamp",
          "type": "uint256"
        }
      ],
      "name": "getCustomerActivitiesLog",
      "outputs": [
        {
          "components": [
            {
              "internalType": "string",
              "name": "log",
              "type": "string"
            },
            {
              "internalType": "uint256",
              "name": "timestamp",
              "type": "uint256"
            },
            {
              "internalType": "string",
              "name": "status",
              "type": "string"
            }
          ],
          "internalType": "struct Timelapse.CustomerActivity[]",
          "name": "",
          "type": "tuple[]"
        }
      ],
      "stateMutability": "view",
      "type": "function",
      "constant": true
    }
  ],
  "bytecode": "0x60806040523480156200001157600080fd5b506040516200301c3803806200301c8339818101604052810190620000379190620001c4565b620000576200004b620000e160201b60201c565b620000e960201b60201c565b81600160006101000a81548173ffffffffffffffffffffffffffffffffffffffff021916908373ffffffffffffffffffffffffffffffffffffffff16021790555080600260006101000a81548173ffffffffffffffffffffffffffffffffffffffff021916908373ffffffffffffffffffffffffffffffffffffffff16021790555050506200025e565b600033905090565b60008060009054906101000a900473ffffffffffffffffffffffffffffffffffffffff169050816000806101000a81548173ffffffffffffffffffffffffffffffffffffffff021916908373ffffffffffffffffffffffffffffffffffffffff1602179055508173ffffffffffffffffffffffffffffffffffffffff168173ffffffffffffffffffffffffffffffffffffffff167f8be0079c531659141344cd1fd0a4f28419497f9722a3daafe3b4186f6b6457e060405160405180910390a35050565b600081519050620001be8162000244565b92915050565b60008060408385031215620001de57620001dd6200023f565b5b6000620001ee85828601620001ad565b92505060206200020185828601620001ad565b9150509250929050565b600062000218826200021f565b9050919050565b600073ffffffffffffffffffffffffffffffffffffffff82169050919050565b600080fd5b6200024f816200020b565b81146200025b57600080fd5b50565b612dae806200026e6000396000f3fe608060405234801561001057600080fd5b506004361061009e5760003560e01c8063d6f7ddf911610066578063d6f7ddf91461011f578063f2fde38b1461013b578063f324e9d114610157578063f3963cba14610173578063f6410c011461018f5761009e565b80631ac8d444146100a357806347466dc3146100bf578063715018a6146100db5780638da5cb5b146100e5578063bdcf208c14610103575b600080fd5b6100bd60048036038101906100b89190611e8d565b6101bf565b005b6100d960048036038101906100d49190612249565b6102fe565b005b6100e361040a565b005b6100ed610492565b6040516100fa91906126cb565b60405180910390f35b61011d600480360381019061011891906122d0565b6104bb565b005b61013960048036038101906101349190611f80565b6105d0565b005b61015560048036038101906101509190611e60565b610ae7565b005b610171600480360381019061016c9190611ee9565b610bdf565b005b61018d60048036038101906101889190611e60565b610d2b565b005b6101a960048036038101906101a49190612057565b610e37565b6040516101b69190612807565b60405180910390f35b600260009054906101000a900473ffffffffffffffffffffffffffffffffffffffff1673ffffffffffffffffffffffffffffffffffffffff1663116c327b8383600160009054906101000a900473ffffffffffffffffffffffffffffffffffffffff1673ffffffffffffffffffffffffffffffffffffffff1663d47875d0876040518263ffffffff1660e01b815260040161025a91906126cb565b60206040518083038186803b15801561027257600080fd5b505afa158015610286573d6000803e3d6000fd5b505050506040513d601f19601f820116820180604052508101906102aa91906122a3565b6040518463ffffffff1660e01b81526004016102c893929190612732565b600060405180830381600087803b1580156102e257600080fd5b505af11580156102f6573d6000803e3d6000fd5b505050505050565b610306611b97565b73ffffffffffffffffffffffffffffffffffffffff16610324610492565b73ffffffffffffffffffffffffffffffffffffffff161461037a576040517f08c379a000000000000000000000000000000000000000000000000000000000815260040161037190612849565b60405180910390fd5b600260009054906101000a900473ffffffffffffffffffffffffffffffffffffffff1673ffffffffffffffffffffffffffffffffffffffff166347466dc3826040518263ffffffff1660e01b81526004016103d59190612869565b600060405180830381600087803b1580156103ef57600080fd5b505af1158015610403573d6000803e3d6000fd5b5050505050565b610412611b97565b73ffffffffffffffffffffffffffffffffffffffff16610430610492565b73ffffffffffffffffffffffffffffffffffffffff1614610486576040517f08c379a000000000000000000000000000000000000000000000000000000000815260040161047d90612849565b60405180910390fd5b6104906000611b9f565b565b60008060009054906101000a900473ffffffffffffffffffffffffffffffffffffffff16905090565b6104c3611b97565b73ffffffffffffffffffffffffffffffffffffffff166104e1610492565b73ffffffffffffffffffffffffffffffffffffffff1614610537576040517f08c379a000000000000000000000000000000000000000000000000000000000815260040161052e90612849565b60405180910390fd5b600260009054906101000a900473ffffffffffffffffffffffffffffffffffffffff1673ffffffffffffffffffffffffffffffffffffffff1663bdcf208c858585856040518563ffffffff1660e01b815260040161059894939291906128ad565b600060405180830381600087803b1580156105b257600080fd5b505af11580156105c6573d6000803e3d6000fd5b5050505050505050565b6105d8611b97565b73ffffffffffffffffffffffffffffffffffffffff166105f6610492565b73ffffffffffffffffffffffffffffffffffffffff161461064c576040517f08c379a000000000000000000000000000000000000000000000000000000000815260040161064390612849565b60405180910390fd5b6000600160009054906101000a900473ffffffffffffffffffffffffffffffffffffffff1673ffffffffffffffffffffffffffffffffffffffff1663336989ae846040518263ffffffff1660e01b81526004016106a991906126cb565b60c06040518083038186803b1580156106c157600080fd5b505afa1580156106d5573d6000803e3d6000fd5b505050506040513d601f19601f820116820180604052508101906106f99190612125565b955050505050506000600160009054906101000a900473ffffffffffffffffffffffffffffffffffffffff1673ffffffffffffffffffffffffffffffffffffffff1663fcf7ff2a85846040518363ffffffff1660e01b815260040161075f929190612770565b60006040518083038186803b15801561077757600080fd5b505afa15801561078b573d6000803e3d6000fd5b505050506040513d6000823e3d601f19601f820116820180604052508101906107b491906121b2565b9450505050506000600260009054906101000a900473ffffffffffffffffffffffffffffffffffffffff1673ffffffffffffffffffffffffffffffffffffffff16637acc0b20836040518263ffffffff1660e01b81526004016108179190612869565b60a06040518083038186803b15801561082f57600080fd5b505afa158015610843573d6000803e3d6000fd5b505050506040513d601f19601f8201168201806040525081019061086791906120aa565b509350505050600080600260009054906101000a900473ffffffffffffffffffffffffffffffffffffffff1673ffffffffffffffffffffffffffffffffffffffff1663013cf08b846040518263ffffffff1660e01b81526004016108cb9190612869565b60006040518083038186803b1580156108e357600080fd5b505afa1580156108f7573d6000803e3d6000fd5b505050506040513d6000823e3d601f19601f820116820180604052508101906109209190612353565b5050509250925050600160009054906101000a900473ffffffffffffffffffffffffffffffffffffffff1673ffffffffffffffffffffffffffffffffffffffff1663d8dd182788838561097391906129c0565b6040518363ffffffff1660e01b8152600401610990929190612770565b600060405180830381600087803b1580156109aa57600080fd5b505af11580156109be573d6000803e3d6000fd5b50505050600160009054906101000a900473ffffffffffffffffffffffffffffffffffffffff1673ffffffffffffffffffffffffffffffffffffffff1663f3963cba886040518263ffffffff1660e01b8152600401610a1d91906126cb565b600060405180830381600087803b158015610a3757600080fd5b505af1158015610a4b573d6000803e3d6000fd5b50505050600160009054906101000a900473ffffffffffffffffffffffffffffffffffffffff1673ffffffffffffffffffffffffffffffffffffffff166345df777988886040518363ffffffff1660e01b8152600401610aac929190612770565b600060405180830381600087803b158015610ac657600080fd5b505af1158015610ada573d6000803e3d6000fd5b5050505050505050505050565b610aef611b97565b73ffffffffffffffffffffffffffffffffffffffff16610b0d610492565b73ffffffffffffffffffffffffffffffffffffffff1614610b63576040517f08c379a0000000000000000000000000000000000000000000000000000000008152600401610b5a90612849565b60405180910390fd5b600073ffffffffffffffffffffffffffffffffffffffff168173ffffffffffffffffffffffffffffffffffffffff161415610bd3576040517f08c379a0000000000000000000000000000000000000000000000000000000008152600401610bca90612829565b60405180910390fd5b610bdc81611b9f565b50565b600160009054906101000a900473ffffffffffffffffffffffffffffffffffffffff1673ffffffffffffffffffffffffffffffffffffffff16637a67e6cc868686600260009054906101000a900473ffffffffffffffffffffffffffffffffffffffff1673ffffffffffffffffffffffffffffffffffffffff1663b6ca45958b8a8a8a6040518563ffffffff1660e01b8152600401610c819493929190612799565b602060405180830381600087803b158015610c9b57600080fd5b505af1158015610caf573d6000803e3d6000fd5b505050506040513d601f19601f82011682018060405250810190610cd39190612276565b6040518563ffffffff1660e01b8152600401610cf294939291906126e6565b600060405180830381600087803b158015610d0c57600080fd5b505af1158015610d20573d6000803e3d6000fd5b505050505050505050565b610d33611b97565b73ffffffffffffffffffffffffffffffffffffffff16610d51610492565b73ffffffffffffffffffffffffffffffffffffffff1614610da7576040517f08c379a0000000000000000000000000000000000000000000000000000000008152600401610d9e90612849565b60405180910390fd5b600160009054906101000a900473ffffffffffffffffffffffffffffffffffffffff1673ffffffffffffffffffffffffffffffffffffffff1663f3963cba826040518263ffffffff1660e01b8152600401610e0291906126cb565b600060405180830381600087803b158015610e1c57600080fd5b505af1158015610e30573d6000803e3d6000fd5b5050505050565b606060008060005b600160009054906101000a900473ffffffffffffffffffffffffffffffffffffffff1673ffffffffffffffffffffffffffffffffffffffff1663c23a179f886040518263ffffffff1660e01b8152600401610e9a91906126cb565b60206040518083038186803b158015610eb257600080fd5b505afa158015610ec6573d6000803e3d6000fd5b505050506040513d601f19601f82011682018060405250810190610eea9190612276565b8160ff1610156111a2576000806000600160009054906101000a900473ffffffffffffffffffffffffffffffffffffffff1673ffffffffffffffffffffffffffffffffffffffff1663fcf7ff2a8b866040518363ffffffff1660e01b8152600401610f569291906127de565b60006040518083038186803b158015610f6e57600080fd5b505afa158015610f82573d6000803e3d6000fd5b505050506040513d6000823e3d601f19601f82011682018060405250810190610fab91906121b2565b94505093509350506000600260009054906101000a900473ffffffffffffffffffffffffffffffffffffffff1673ffffffffffffffffffffffffffffffffffffffff16637acc0b20836040518263ffffffff1660e01b81526004016110109190612869565b60a06040518083038186803b15801561102857600080fd5b505afa15801561103c573d6000803e3d6000fd5b505050506040513d601f19601f8201168201806040525081019061106091906120aa565b5050925050506000600260009054906101000a900473ffffffffffffffffffffffffffffffffffffffff1673ffffffffffffffffffffffffffffffffffffffff16638a72ea6a836040518263ffffffff1660e01b81526004016110c39190612869565b60006040518083038186803b1580156110db57600080fd5b505afa1580156110ef573d6000803e3d6000fd5b505050506040513d6000823e3d601f19601f820116820180604052508101906111189190611fc0565b5050509150508a811015801561112e5750898111155b1561114257878061113e90612ae4565b9850505b8a85101580156111525750898511155b1561116657878061116290612ae4565b9850505b8a84101580156111765750898411155b1561118a57878061118690612ae4565b9850505b5050505050808061119a90612b2d565b915050610e3f565b5060008267ffffffffffffffff8111156111bf576111be612bb5565b5b6040519080825280602002602001820160405280156111f857816020015b6111e5611c63565b8152602001906001900390816111dd5790505b50905060005b600160009054906101000a900473ffffffffffffffffffffffffffffffffffffffff1673ffffffffffffffffffffffffffffffffffffffff1663c23a179f896040518263ffffffff1660e01b815260040161125991906126cb565b60206040518083038186803b15801561127157600080fd5b505afa158015611285573d6000803e3d6000fd5b505050506040513d601f19601f820116820180604052508101906112a99190612276565b811015611b89576000806000600160009054906101000a900473ffffffffffffffffffffffffffffffffffffffff1673ffffffffffffffffffffffffffffffffffffffff1663fcf7ff2a8c866040518363ffffffff1660e01b8152600401611312929190612770565b60006040518083038186803b15801561132a57600080fd5b505afa15801561133e573d6000803e3d6000fd5b505050506040513d6000823e3d601f19601f8201168201806040525081019061136791906121b2565b9450509350935050600080600260009054906101000a900473ffffffffffffffffffffffffffffffffffffffff1673ffffffffffffffffffffffffffffffffffffffff16637acc0b20846040518263ffffffff1660e01b81526004016113cd9190612869565b60a06040518083038186803b1580156113e557600080fd5b505afa1580156113f9573d6000803e3d6000fd5b505050506040513d601f19601f8201168201806040525081019061141d91906120aa565b509350935050506000600260009054906101000a900473ffffffffffffffffffffffffffffffffffffffff1673ffffffffffffffffffffffffffffffffffffffff1663013cf08b836040518263ffffffff1660e01b81526004016114819190612869565b60006040518083038186803b15801561149957600080fd5b505afa1580156114ad573d6000803e3d6000fd5b505050506040513d6000823e3d601f19601f820116820180604052508101906114d69190612353565b509450505050506000600260009054906101000a900473ffffffffffffffffffffffffffffffffffffffff1673ffffffffffffffffffffffffffffffffffffffff16638a72ea6a856040518263ffffffff1660e01b815260040161153a9190612869565b60006040518083038186803b15801561155257600080fd5b505afa158015611566573d6000803e3d6000fd5b505050506040513d6000823e3d601f19601f8201168201806040525081019061158f9190611fc0565b5050509150508d81101580156115a557508c8111155b15611995576040518060400160405280600781526020017f4f666665723a2000000000000000000000000000000000000000000000000000815250898b815181106115f3576115f2612b86565b5b6020026020010151600001819052506000600260009054906101000a900473ffffffffffffffffffffffffffffffffffffffff1673ffffffffffffffffffffffffffffffffffffffff1663f8730a07866040518263ffffffff1660e01b815260040161165f9190612869565b60206040518083038186803b15801561167757600080fd5b505afa15801561168b573d6000803e3d6000fd5b505050506040513d601f19601f820116820180604052508101906116af9190612276565b905060005b81811015611908576000600260009054906101000a900473ffffffffffffffffffffffffffffffffffffffff1673ffffffffffffffffffffffffffffffffffffffff1663013cf08b600260009054906101000a900473ffffffffffffffffffffffffffffffffffffffff1673ffffffffffffffffffffffffffffffffffffffff16637c8dd0d68a866040518363ffffffff1660e01b8152600401611759929190612884565b60206040518083038186803b15801561177157600080fd5b505afa158015611785573d6000803e3d6000fd5b505050506040513d601f19601f820116820180604052508101906117a99190612276565b6040518263ffffffff1660e01b81526004016117c59190612869565b60006040518083038186803b1580156117dd57600080fd5b505afa1580156117f1573d6000803e3d6000fd5b505050506040513d6000823e3d601f19601f8201168201806040525081019061181a9190612353565b509450505050506000821415611891578b8d8151811061183d5761183c612b86565b5b6020026020010151600001518160405160200161185b929190612656565b6040516020818303038152906040528c8e8151811061187d5761187c612b86565b5b6020026020010151600001819052506118f4565b8b8d815181106118a4576118a3612b86565b5b602002602001015160000151816040516020016118c292919061267a565b6040516020818303038152906040528c8e815181106118e4576118e3612b86565b5b6020026020010151600001819052505b50808061190090612ae4565b9150506116b4565b50818a8c8151811061191d5761191c612b86565b5b602002602001015160200181815250506040518060400160405280600581526020017f4f666665720000000000000000000000000000000000000000000000000000008152508a8c8151811061197657611975612b86565b5b6020026020010151604001819052508a8061199090612ae4565b9b5050505b8d87101580156119a557508c8711155b15611a7757816040516020016119bb91906126a9565b604051602081830303815290604052898b815181106119dd576119dc612b86565b5b60200260200101516000018190525086898b81518110611a00576119ff612b86565b5b602002602001015160200181815250506040518060400160405280600881526020017f4163636570746564000000000000000000000000000000000000000000000000815250898b81518110611a5957611a58612b86565b5b6020026020010151604001819052508980611a7390612ae4565b9a50505b8d8610158015611a8757508c8611155b15611b6f576040518060400160405280600581526020017f546f707570000000000000000000000000000000000000000000000000000000815250898b81518110611ad557611ad4612b86565b5b60200260200101516000018190525085898b81518110611af857611af7612b86565b5b602002602001015160200181815250506040518060400160405280600681526020017f436c6f7365640000000000000000000000000000000000000000000000000000815250898b81518110611b5157611b50612b86565b5b6020026020010151604001819052508980611b6b90612ae4565b9a50505b505050505050508080611b8190612ae4565b9150506111fe565b508093505050509392505050565b600033905090565b60008060009054906101000a900473ffffffffffffffffffffffffffffffffffffffff169050816000806101000a81548173ffffffffffffffffffffffffffffffffffffffff021916908373ffffffffffffffffffffffffffffffffffffffff1602179055508173ffffffffffffffffffffffffffffffffffffffff168173ffffffffffffffffffffffffffffffffffffffff167f8be0079c531659141344cd1fd0a4f28419497f9722a3daafe3b4186f6b6457e060405160405180910390a35050565b60405180606001604052806060815260200160008152602001606081525090565b6000611c97611c928461291e565b6128f9565b905082815260208101848484011115611cb357611cb2612be9565b5b611cbe848285612a71565b509392505050565b6000611cd9611cd48461291e565b6128f9565b905082815260208101848484011115611cf557611cf4612be9565b5b611d00848285612a80565b509392505050565b600081359050611d1781612cd3565b92915050565b600081519050611d2c81612cd3565b92915050565b600081519050611d4181612cea565b92915050565b600081519050611d5681612cfa565b92915050565b600081519050611d6b81612d0a565b92915050565b600081519050611d8081612d1a565b92915050565b600081519050611d9581612d2a565b92915050565b600081519050611daa81612d3a565b92915050565b600082601f830112611dc557611dc4612be4565b5b8135611dd5848260208601611c84565b91505092915050565b600082601f830112611df357611df2612be4565b5b8151611e03848260208601611cc6565b91505092915050565b600081359050611e1b81612d4a565b92915050565b600081519050611e3081612d4a565b92915050565b600081359050611e4581612d61565b92915050565b600081519050611e5a81612d61565b92915050565b600060208284031215611e7657611e75612bf3565b5b6000611e8484828501611d08565b91505092915050565b60008060408385031215611ea457611ea3612bf3565b5b6000611eb285828601611d08565b925050602083013567ffffffffffffffff811115611ed357611ed2612bee565b5b611edf85828601611db0565b9150509250929050565b600080600080600060a08688031215611f0557611f04612bf3565b5b6000611f1388828901611d08565b955050602086013567ffffffffffffffff811115611f3457611f33612bee565b5b611f4088828901611db0565b9450506040611f5188828901611e0c565b9350506060611f6288828901611e0c565b9250506080611f7388828901611e0c565b9150509295509295909350565b60008060408385031215611f9757611f96612bf3565b5b6000611fa585828601611d08565b9250506020611fb685828601611e0c565b9150509250929050565b600080600080600060a08688031215611fdc57611fdb612bf3565b5b6000611fea88828901611d1d565b9550506020611ffb88828901611e21565b945050604061200c88828901611d47565b935050606061201d88828901611d71565b925050608086015167ffffffffffffffff81111561203e5761203d612bee565b5b61204a88828901611dde565b9150509295509295909350565b6000806000606084860312156120705761206f612bf3565b5b600061207e86828701611d08565b935050602061208f86828701611e0c565b92505060406120a086828701611e0c565b9150509250925092565b600080600080600060a086880312156120c6576120c5612bf3565b5b60006120d488828901611d1d565b95505060206120e588828901611e21565b94505060406120f688828901611e21565b935050606061210788828901611e21565b925050608061211888828901611d86565b9150509295509295909350565b60008060008060008060c0878903121561214257612141612bf3565b5b600061215089828a01611d32565b965050602061216189828a01611e4b565b955050604061217289828a01611e21565b945050606061218389828a01611e21565b935050608061219489828a01611e21565b92505060a06121a589828a01611e21565b9150509295509295509295565b600080600080600060a086880312156121ce576121cd612bf3565b5b600086015167ffffffffffffffff8111156121ec576121eb612bee565b5b6121f888828901611dde565b955050602061220988828901611e21565b945050604061221a88828901611e21565b935050606061222b88828901611d5c565b925050608061223c88828901611e21565b9150509295509295909350565b60006020828403121561225f5761225e612bf3565b5b600061226d84828501611e0c565b91505092915050565b60006020828403121561228c5761228b612bf3565b5b600061229a84828501611e21565b91505092915050565b6000602082840312156122b9576122b8612bf3565b5b60006122c784828501611e4b565b91505092915050565b600080600080608085870312156122ea576122e9612bf3565b5b60006122f887828801611e36565b945050602061230987828801611e0c565b935050604061231a87828801611e0c565b925050606085013567ffffffffffffffff81111561233b5761233a612bee565b5b61234787828801611db0565b91505092959194509250565b60008060008060008060c087890312156123705761236f612bf3565b5b600061237e89828a01611e4b565b965050602061238f89828a01611e21565b95505060406123a089828a01611e21565b94505060606123b189828a01611e21565b935050608087015167ffffffffffffffff8111156123d2576123d1612bee565b5b6123de89828a01611dde565b92505060a06123ef89828a01611d9b565b9150509295509295509295565b600061240883836125c3565b905092915050565b61241981612a16565b82525050565b600061242a8261295f565b6124348185612982565b9350836020820285016124468561294f565b8060005b85811015612482578484038952815161246385826123fc565b945061246e83612975565b925060208a0199505060018101905061244a565b50829750879550505050505092915050565b600061249f8261296a565b6124a98185612993565b93506124b9818560208601612a80565b6124c281612bf8565b840191505092915050565b60006124d88261296a565b6124e281856129a4565b93506124f2818560208601612a80565b6124fb81612bf8565b840191505092915050565b60006125118261296a565b61251b81856129b5565b935061252b818560208601612a80565b80840191505092915050565b60006125446026836129a4565b915061254f82612c09565b604082019050919050565b6000612567600a836129b5565b915061257282612c58565b600a82019050919050565b600061258a6020836129a4565b915061259582612c81565b602082019050919050565b60006125ad6003836129b5565b91506125b882612caa565b600382019050919050565b600060608301600083015184820360008601526125e08282612494565b91505060208301516125f5602086018261261a565b506040830151848203604086015261260d8282612494565b9150508091505092915050565b61262381612a48565b82525050565b61263281612a48565b82525050565b61264181612a5f565b82525050565b61265081612a52565b82525050565b60006126628285612506565b915061266e8284612506565b91508190509392505050565b60006126868285612506565b9150612691826125a0565b915061269d8284612506565b91508190509392505050565b60006126b48261255a565b91506126c08284612506565b915081905092915050565b60006020820190506126e06000830184612410565b92915050565b60006080820190506126fb6000830187612410565b818103602083015261270d81866124cd565b905061271c6040830185612629565b6127296060830184612629565b95945050505050565b60006060820190506127476000830186612410565b818103602083015261275981856124cd565b90506127686040830184612647565b949350505050565b60006040820190506127856000830185612410565b6127926020830184612629565b9392505050565b60006080820190506127ae6000830187612410565b6127bb6020830186612629565b6127c86040830185612629565b6127d56060830184612629565b95945050505050565b60006040820190506127f36000830185612410565b6128006020830184612638565b9392505050565b60006020820190508181036000830152612821818461241f565b905092915050565b6000602082019050818103600083015261284281612537565b9050919050565b600060208201905081810360008301526128628161257d565b9050919050565b600060208201905061287e6000830184612629565b92915050565b60006040820190506128996000830185612629565b6128a66020830184612629565b9392505050565b60006080820190506128c26000830187612647565b6128cf6020830186612629565b6128dc6040830185612629565b81810360608301526128ee81846124cd565b905095945050505050565b6000612903612914565b905061290f8282612ab3565b919050565b6000604051905090565b600067ffffffffffffffff82111561293957612938612bb5565b5b61294282612bf8565b9050602081019050919050565b6000819050602082019050919050565b600081519050919050565b600081519050919050565b6000602082019050919050565b600082825260208201905092915050565b600082825260208201905092915050565b600082825260208201905092915050565b600081905092915050565b60006129cb82612a48565b91506129d683612a48565b9250827fffffffffffffffffffffffffffffffffffffffffffffffffffffffffffffffff03821115612a0b57612a0a612b57565b5b828201905092915050565b6000612a2182612a28565b9050919050565b600073ffffffffffffffffffffffffffffffffffffffff82169050919050565b6000819050919050565b600060ff82169050919050565b6000612a6a82612a52565b9050919050565b82818337600083830152505050565b60005b83811015612a9e578082015181840152602081019050612a83565b83811115612aad576000848401525b50505050565b612abc82612bf8565b810181811067ffffffffffffffff82111715612adb57612ada612bb5565b5b80604052505050565b6000612aef82612a48565b91507fffffffffffffffffffffffffffffffffffffffffffffffffffffffffffffffff821415612b2257612b21612b57565b5b600182019050919050565b6000612b3882612a52565b915060ff821415612b4c57612b4b612b57565b5b600182019050919050565b7f4e487b7100000000000000000000000000000000000000000000000000000000600052601160045260246000fd5b7f4e487b7100000000000000000000000000000000000000000000000000000000600052603260045260246000fd5b7f4e487b7100000000000000000000000000000000000000000000000000000000600052604160045260246000fd5b600080fd5b600080fd5b600080fd5b600080fd5b6000601f19601f8301169050919050565b7f4f776e61626c653a206e6577206f776e657220697320746865207a65726f206160008201527f6464726573730000000000000000000000000000000000000000000000000000602082015250565b7f41636365707465643a2000000000000000000000000000000000000000000000600082015250565b7f4f776e61626c653a2063616c6c6572206973206e6f7420746865206f776e6572600082015250565b7f202f200000000000000000000000000000000000000000000000000000000000600082015250565b612cdc81612a16565b8114612ce757600080fd5b50565b60028110612cf757600080fd5b50565b60058110612d0757600080fd5b50565b60028110612d1757600080fd5b50565b60028110612d2757600080fd5b50565b60028110612d3757600080fd5b50565b60028110612d4757600080fd5b50565b612d5381612a48565b8114612d5e57600080fd5b50565b612d6a81612a52565b8114612d7557600080fd5b5056fea26469706673582212202683aab170f9955fd8f3477a65989c65b9a95eb74d8d61321585139b2edc74b964736f6c63430008060033",
  "immutableReferences": {},
  "source": "// SPDX-License-Identifier: MIT\npragma solidity ^0.8.6;\n\nimport \"./Billing.sol\";\nimport \"./Offering.sol\";\nimport \"@openzeppelin/contracts/access/Ownable.sol\";\n\n/**\n * @title This Smart Contract is the entry point of Timelapse.\n * @notice Communicate with API(server/watcher) part and dApp\n * @author Keeymon, DavidRochus\n */\ncontract Timelapse is Ownable {\n\n    /**\n      * @dev Customer Billing Activity\n      */\n    Billing billing;\n\n    /**\n      * @dev Customer Offering Activity\n      */\n    Offering offering;\n\n\n\n    /**\n     * @dev Customer Activity\n     */\n    struct CustomerActivity {\n        string log;\n        uint256 timestamp;\n        string status;\n    }\n\n    /**\n     * @dev Smart Contract constructor\n     */\n    constructor(address _billingAddress, address _offeringAddress) {\n        billing = Billing(_billingAddress);\n        offering = Offering(_offeringAddress);\n    }\n\n    /**\n      * @notice Add a proposal\n      * @param _minScoring The minimum score needed by customer to receive this proposal\n      * @param _capital Capital part of the proposal amount\n      * @param _interest Interest part of the proposal amount\n      * @param _description A description of the proposal\n      * @dev Add a proposal with the following information: minimum scoring `_minScoring`, amount `_capital` + `_interest`, description `_description`\n      */\n    function addProposal(\n        uint8 _minScoring,\n        uint256 _capital,\n        uint256 _interest,\n        string memory _description\n    ) public onlyOwner {\n        offering.addProposal(_minScoring, _capital, _interest, _description);\n    }\n\n    /**\n      * @notice Close a proposal\n      * @param _id ID of the proposal to close\n      * @dev Close the proposal with the ID `_id`\n      */\n    function closedProposal(uint256 _id) public onlyOwner {\n        offering.closedProposal(_id);\n    }\n\n    /**\n      * @notice Increase scoring information of a customer\n      * @param _phoneHash The address that identifies to the customer\n      * @dev This function is directly called when API receives a topUp for a customer (identified with `_phoneHash`) with a target other than Timelapse\n      */\n    function addToScore(address _phoneHash) public onlyOwner {\n        billing.addToScore(_phoneHash);\n    }\n\n    /**\n      * @notice Accept the offer\n      * @param _phoneHash The address that identifies to the customer\n      * @param _ref Reference of the telecom provider\n      * @param _acceptanceTimestamp Timestamp of the acceptance\n      * @param _idOffer ID of the offer\n      * @param _idProposal ID of the proposal\n      * @dev Accept the offer `_idOffer` (By choosing proposal `_idProposal`) of a customer (identified with `_phoneHash`) with reference `_ref` at timestamp `_acceptanceTimestamp`\n      */\n    //function acceptance(address _phoneHash, string memory _ref, uint _acceptanceTimestamp, uint256 _idOffer, uint256 _idProposal) public activeCustomer(_phoneHash) {\n    function acceptance(address _phoneHash, string memory _ref, uint _acceptanceTimestamp, uint256 _idOffer, uint256 _idProposal) public {\n        billing.acceptanceBilling(_phoneHash, _ref, _acceptanceTimestamp, offering.createProduct(_phoneHash, _acceptanceTimestamp, _idOffer, _idProposal));\n    }\n\n     /**\n      * @notice TopUp the last product of a customer\n      * @param _phoneHash The address that identifies to the customer\n      * @param _paidTimestamp Timestamp of the acceptance\n      * @dev TopUp the last product of a customer (identified with `_phoneHash`) at timestamp `_paidTimestamp`\n      */\n    //function topUp(address _phoneHash, uint _paidTimestamp) public onlyOwner activeCustomer(_phoneHash) {\n    function topUp(address _phoneHash, uint _paidTimestamp) public onlyOwner {\n        (,,,,,uint256 lastAcceptanceID) = billing.customers(_phoneHash);\n        (,,,,uint256 idProduct) = billing.histories(_phoneHash, lastAcceptanceID);\n        (,,,uint256 idProposal,) = offering.products(idProduct);\n        (,uint256 capital,uint256 interest,,,) = offering.proposals(idProposal);\n        billing.addToCustomerAmount(_phoneHash, capital + interest);\n\n        billing.addToScore(_phoneHash);\n        billing.topUpBilling(_phoneHash, _paidTimestamp);\n    }\n\n    /**\n      * @notice Manage the \"low balances\" received and generate an offer\n      * @param _phoneHash The address that identifies to the customer\n      * @param _ref Reference of the telecom provider\n      * @dev Manage lowBalance (with reference `_ref`) of a customer (identified with `_phoneHash`)\n      */\n    function lowBalance(address _phoneHash, string memory _ref) public {\n        offering.lowBalanceOffering(_phoneHash, _ref, billing.getScore(_phoneHash));\n    }\n\n    /**\n      * @notice Get customer activities log\n      * @param _phoneHash The address that identifies to the customer\n      * @param _startTimestamp Start of the search timeframe\n      * @param _endTimestamp End of the search timeframe\n      * @return Score The computed customer score \n      * @dev Get activities log of a customer (identified with `_phoneHash`)\n      */\n    function getCustomerActivitiesLog(address _phoneHash, uint256 _startTimestamp, uint256 _endTimestamp) public view returns(CustomerActivity[] memory) {\n         uint256 customerActivitiesSize;\n         uint256 customerActivitiesIndex;\n\n        for (uint8 i = 0; i < billing.getHistorySize(_phoneHash); i++) {\n            (,uint256 acceptanceTimestamp, uint256 paidTimestamp,,uint256 idProduct) = billing.histories(_phoneHash, i);\n            (,,uint256 idOffer,,) = offering.products(idProduct);\n            (,uint timestamp,,,) = offering.offers(idOffer);\n            if(timestamp >= _startTimestamp && timestamp <= _endTimestamp) {\n                customerActivitiesSize++;\n            }\n            if(acceptanceTimestamp >= _startTimestamp && acceptanceTimestamp <= _endTimestamp) {\n                customerActivitiesSize++;\n            }\n            if(paidTimestamp >= _startTimestamp && paidTimestamp <= _endTimestamp) {\n                customerActivitiesSize++;\n            }\n        }\n        CustomerActivity[] memory customerActivities = new CustomerActivity[](customerActivitiesSize);\n        for (uint256 i = 0; i < billing.getHistorySize(_phoneHash); i++) {\n            (,uint256 acceptanceTimestamp, uint256 paidTimestamp,,uint256 idProduct) = billing.histories(_phoneHash, i);\n            (,,uint256 idOffer,uint256 idProposal,) = offering.products(idProduct);\n            (,,,,string memory descriptionProposal,) = offering.proposals(idProposal);\n            (,uint timestamp,,,) = offering.offers(idOffer);\n            if(timestamp >= _startTimestamp && timestamp <= _endTimestamp) {\n                customerActivities[customerActivitiesIndex].log = \"Offer: \";\n                uint256 numberProposal = offering.getSizeProposalOffer(idOffer);\n                for (uint256 j = 0; j < numberProposal; j++) {\n                    (,,,,string memory description,) = offering.proposals(offering.getIndexProposalOffer(idOffer, j));\n                    if(j == 0) { \n                        customerActivities[customerActivitiesIndex].log = string(abi.encodePacked(customerActivities[customerActivitiesIndex].log, description));\n                    } else {\n                        customerActivities[customerActivitiesIndex].log = string(abi.encodePacked(customerActivities[customerActivitiesIndex].log, \" / \", description));\n                    }\n                }\n\n                customerActivities[customerActivitiesIndex].timestamp = timestamp;\n                customerActivities[customerActivitiesIndex].status = \"Offer\";\n                customerActivitiesIndex++;\n            }\n\n            if(acceptanceTimestamp >= _startTimestamp && acceptanceTimestamp <= _endTimestamp) {\n                customerActivities[customerActivitiesIndex].log = string(abi.encodePacked(\"Accepted: \", descriptionProposal));\n                customerActivities[customerActivitiesIndex].timestamp = acceptanceTimestamp;\n                customerActivities[customerActivitiesIndex].status = \"Accepted\";\n                customerActivitiesIndex++;\n            }\n\n            if(paidTimestamp >= _startTimestamp && paidTimestamp <= _endTimestamp) {\n                customerActivities[customerActivitiesIndex].log = \"Topup\";\n                customerActivities[customerActivitiesIndex].timestamp = paidTimestamp;\n                customerActivities[customerActivitiesIndex].status = \"Closed\";\n                customerActivitiesIndex++;\n            }\n        }\n        return customerActivities;\n    }\n}",
  "sourcePath": "/Users/davidrochus/Dev/workspace/timelapse/contracts/Timelapse.sol",
  "compiler": {
    "name": "solc",
    "version": "0.8.6+commit.11564f7e.Emscripten.clang"
  },
  "schemaVersion": "3.4.1",
  "updatedAt": "2021-07-20T20:26:07.313Z",
  "networkType": "ethereum",
  "devdoc": {
    "author": "Keeymon, DavidRochus",
    "kind": "dev",
    "methods": {
      "acceptance(address,string,uint256,uint256,uint256)": {
        "details": "Accept the offer `_idOffer` (By choosing proposal `_idProposal`) of a customer (identified with `_phoneHash`) with reference `_ref` at timestamp `_acceptanceTimestamp`",
        "params": {
          "_acceptanceTimestamp": "Timestamp of the acceptance",
          "_idOffer": "ID of the offer",
          "_idProposal": "ID of the proposal",
          "_phoneHash": "The address that identifies to the customer",
          "_ref": "Reference of the telecom provider"
        }
      },
      "addProposal(uint8,uint256,uint256,string)": {
        "details": "Add a proposal with the following information: minimum scoring `_minScoring`, amount `_capital` + `_interest`, description `_description`",
        "params": {
          "_capital": "Capital part of the proposal amount",
          "_description": "A description of the proposal",
          "_interest": "Interest part of the proposal amount",
          "_minScoring": "The minimum score needed by customer to receive this proposal"
        }
      },
      "addToScore(address)": {
        "details": "This function is directly called when API receives a topUp for a customer (identified with `_phoneHash`) with a target other than Timelapse",
        "params": {
          "_phoneHash": "The address that identifies to the customer"
        }
      },
      "closedProposal(uint256)": {
        "details": "Close the proposal with the ID `_id`",
        "params": {
          "_id": "ID of the proposal to close"
        }
      },
      "constructor": {
        "details": "Smart Contract constructor"
      },
      "getCustomerActivitiesLog(address,uint256,uint256)": {
        "details": "Get activities log of a customer (identified with `_phoneHash`)",
        "params": {
          "_endTimestamp": "End of the search timeframe",
          "_phoneHash": "The address that identifies to the customer",
          "_startTimestamp": "Start of the search timeframe"
        },
        "returns": {
          "_0": "Score The computed customer score "
        }
      },
      "lowBalance(address,string)": {
        "details": "Manage lowBalance (with reference `_ref`) of a customer (identified with `_phoneHash`)",
        "params": {
          "_phoneHash": "The address that identifies to the customer",
          "_ref": "Reference of the telecom provider"
        }
      },
      "owner()": {
        "details": "Returns the address of the current owner."
      },
      "renounceOwnership()": {
        "details": "Leaves the contract without owner. It will not be possible to call `onlyOwner` functions anymore. Can only be called by the current owner. NOTE: Renouncing ownership will leave the contract without an owner, thereby removing any functionality that is only available to the owner."
      },
      "topUp(address,uint256)": {
        "details": "TopUp the last product of a customer (identified with `_phoneHash`) at timestamp `_paidTimestamp`",
        "params": {
          "_paidTimestamp": "Timestamp of the acceptance",
          "_phoneHash": "The address that identifies to the customer"
        }
      },
      "transferOwnership(address)": {
        "details": "Transfers ownership of the contract to a new account (`newOwner`). Can only be called by the current owner."
      }
    },
    "stateVariables": {
      "billing": {
        "details": "Customer Billing Activity"
      },
      "offering": {
        "details": "Customer Offering Activity"
      }
    },
    "title": "This Smart Contract is the entry point of Timelapse.",
    "version": 1
  },
  "userdoc": {
    "kind": "user",
    "methods": {
      "acceptance(address,string,uint256,uint256,uint256)": {
        "notice": "Accept the offer"
      },
      "addProposal(uint8,uint256,uint256,string)": {
        "notice": "Add a proposal"
      },
      "addToScore(address)": {
        "notice": "Increase scoring information of a customer"
      },
      "closedProposal(uint256)": {
        "notice": "Close a proposal"
      },
      "getCustomerActivitiesLog(address,uint256,uint256)": {
        "notice": "Get customer activities log"
      },
      "lowBalance(address,string)": {
        "notice": "Manage the \"low balances\" received and generate an offer"
      },
      "topUp(address,uint256)": {
        "notice": "TopUp the last product of a customer"
      }
    },
    "notice": "Communicate with API(server/watcher) part and dApp",
    "version": 1
  }
}