{
  "contractName": "Timelapse",
  "abi": [
    {
      "inputs": [],
      "stateMutability": "nonpayable",
      "type": "constructor"
    },
    {
      "anonymous": false,
      "inputs": [
        {
          "indexed": false,
          "internalType": "address",
          "name": "phoneHash",
          "type": "address"
        },
        {
          "indexed": false,
          "internalType": "uint256",
          "name": "idOffer",
          "type": "uint256"
        },
        {
          "indexed": false,
          "internalType": "uint256",
          "name": "idProposal",
          "type": "uint256"
        }
      ],
      "name": "AcceptanceReceived",
      "type": "event"
    },
    {
      "anonymous": false,
      "inputs": [
        {
          "indexed": false,
          "internalType": "address",
          "name": "phoneHash",
          "type": "address"
        },
        {
          "indexed": false,
          "internalType": "string",
          "name": "ref",
          "type": "string"
        },
        {
          "indexed": false,
          "internalType": "uint256",
          "name": "acceptanceTimestamp",
          "type": "uint256"
        },
        {
          "indexed": false,
          "internalType": "uint256",
          "name": "idProduct",
          "type": "uint256"
        }
      ],
      "name": "AcceptanceReceived",
      "type": "event"
    },
    {
      "anonymous": false,
      "inputs": [
        {
          "indexed": false,
          "internalType": "address",
          "name": "phoneHash",
          "type": "address"
        },
        {
          "indexed": false,
          "internalType": "string",
          "name": "ref",
          "type": "string"
        }
      ],
      "name": "Acknowledge",
      "type": "event"
    },
    {
      "anonymous": false,
      "inputs": [
        {
          "indexed": false,
          "internalType": "address",
          "name": "phoneHash",
          "type": "address"
        },
        {
          "indexed": false,
          "internalType": "uint256",
          "name": "productId",
          "type": "uint256"
        },
        {
          "indexed": false,
          "internalType": "uint256",
          "name": "amount",
          "type": "uint256"
        }
      ],
      "name": "AcknowledgeSent",
      "type": "event"
    },
    {
      "anonymous": false,
      "inputs": [
        {
          "indexed": false,
          "internalType": "address",
          "name": "phoneHash",
          "type": "address"
        },
        {
          "indexed": false,
          "internalType": "string",
          "name": "ref",
          "type": "string"
        },
        {
          "indexed": false,
          "internalType": "uint256",
          "name": "acceptanceTimestamp",
          "type": "uint256"
        },
        {
          "indexed": false,
          "internalType": "uint256",
          "name": "idProduct",
          "type": "uint256"
        }
      ],
      "name": "Confirmation",
      "type": "event"
    },
    {
      "anonymous": false,
      "inputs": [
        {
          "indexed": false,
          "internalType": "uint256",
          "name": "productId",
          "type": "uint256"
        },
        {
          "indexed": false,
          "internalType": "uint256",
          "name": "idOffer",
          "type": "uint256"
        },
        {
          "indexed": false,
          "internalType": "address",
          "name": "phoneHash",
          "type": "address"
        },
        {
          "indexed": false,
          "internalType": "uint256",
          "name": "timestamp",
          "type": "uint256"
        }
      ],
      "name": "ConfirmationSent",
      "type": "event"
    },
    {
      "anonymous": false,
      "inputs": [
        {
          "indexed": false,
          "internalType": "address",
          "name": "phoneHash",
          "type": "address"
        }
      ],
      "name": "CustomerIsDeleted",
      "type": "event"
    },
    {
      "anonymous": false,
      "inputs": [
        {
          "indexed": false,
          "internalType": "address",
          "name": "phoneHash",
          "type": "address"
        },
        {
          "indexed": false,
          "internalType": "string",
          "name": "ref",
          "type": "string"
        }
      ],
      "name": "LowBalanceReceived",
      "type": "event"
    },
    {
      "anonymous": false,
      "inputs": [
        {
          "indexed": false,
          "internalType": "uint256",
          "name": "idOffer",
          "type": "uint256"
        },
        {
          "indexed": false,
          "internalType": "address",
          "name": "phoneHash",
          "type": "address"
        },
        {
          "indexed": false,
          "internalType": "uint256",
          "name": "timestamp",
          "type": "uint256"
        },
        {
          "indexed": false,
          "internalType": "enum Offering.EligibilityReason",
          "name": "reason",
          "type": "uint8"
        },
        {
          "indexed": false,
          "internalType": "uint256[]",
          "name": "proposals",
          "type": "uint256[]"
        },
        {
          "indexed": false,
          "internalType": "uint256",
          "name": "scoring",
          "type": "uint256"
        },
        {
          "indexed": false,
          "internalType": "string",
          "name": "ref",
          "type": "string"
        }
      ],
      "name": "OfferSent",
      "type": "event"
    },
    {
      "anonymous": false,
      "inputs": [
        {
          "indexed": true,
          "internalType": "address",
          "name": "previousOwner",
          "type": "address"
        },
        {
          "indexed": true,
          "internalType": "address",
          "name": "newOwner",
          "type": "address"
        }
      ],
      "name": "OwnershipTransferred",
      "type": "event"
    },
    {
      "anonymous": false,
      "inputs": [
        {
          "indexed": false,
          "internalType": "uint256",
          "name": "idProposal",
          "type": "uint256"
        },
        {
          "indexed": false,
          "internalType": "uint8",
          "name": "minScoring",
          "type": "uint8"
        },
        {
          "indexed": false,
          "internalType": "uint256",
          "name": "capital",
          "type": "uint256"
        },
        {
          "indexed": false,
          "internalType": "uint256",
          "name": "interest",
          "type": "uint256"
        },
        {
          "indexed": false,
          "internalType": "string",
          "name": "description",
          "type": "string"
        }
      ],
      "name": "ProposalAdded",
      "type": "event"
    },
    {
      "anonymous": false,
      "inputs": [
        {
          "indexed": false,
          "internalType": "address",
          "name": "phoneHash",
          "type": "address"
        },
        {
          "indexed": false,
          "internalType": "uint8",
          "name": "score",
          "type": "uint8"
        }
      ],
      "name": "ScoreChange",
      "type": "event"
    },
    {
      "anonymous": false,
      "inputs": [
        {
          "indexed": false,
          "internalType": "address",
          "name": "phoneHash",
          "type": "address"
        },
        {
          "indexed": false,
          "internalType": "uint256",
          "name": "productId",
          "type": "uint256"
        },
        {
          "indexed": false,
          "internalType": "uint256",
          "name": "amount",
          "type": "uint256"
        }
      ],
      "name": "TopUpReceived",
      "type": "event"
    },
    {
      "anonymous": false,
      "inputs": [
        {
          "indexed": false,
          "internalType": "address",
          "name": "phoneHash",
          "type": "address"
        },
        {
          "indexed": false,
          "internalType": "string",
          "name": "ref",
          "type": "string"
        }
      ],
      "name": "TopUpReceived",
      "type": "event"
    },
    {
      "inputs": [
        {
          "internalType": "address",
          "name": "_phoneHash",
          "type": "address"
        },
        {
          "internalType": "string",
          "name": "_ref",
          "type": "string"
        },
        {
          "internalType": "uint256",
          "name": "_acceptanceTimestamp",
          "type": "uint256"
        },
        {
          "internalType": "uint256",
          "name": "idProduct",
          "type": "uint256"
        }
      ],
      "name": "acceptanceBilling",
      "outputs": [],
      "stateMutability": "nonpayable",
      "type": "function"
    },
    {
      "inputs": [
        {
          "internalType": "uint8",
          "name": "_minScoring",
          "type": "uint8"
        },
        {
          "internalType": "uint256",
          "name": "_capital",
          "type": "uint256"
        },
        {
          "internalType": "uint256",
          "name": "_interest",
          "type": "uint256"
        },
        {
          "internalType": "string",
          "name": "_description",
          "type": "string"
        }
      ],
      "name": "addProposal",
      "outputs": [],
      "stateMutability": "nonpayable",
      "type": "function"
    },
    {
      "inputs": [
        {
          "internalType": "address",
          "name": "_phoneHash",
          "type": "address"
        },
        {
          "internalType": "uint8",
          "name": "_score",
          "type": "uint8"
        }
      ],
      "name": "changeScore",
      "outputs": [],
      "stateMutability": "nonpayable",
      "type": "function"
    },
    {
      "inputs": [
        {
          "internalType": "uint256",
          "name": "_id",
          "type": "uint256"
        }
      ],
      "name": "closedProposal",
      "outputs": [],
      "stateMutability": "nonpayable",
      "type": "function"
    },
    {
      "inputs": [
        {
          "internalType": "address",
          "name": "_phoneHash",
          "type": "address"
        },
        {
          "internalType": "uint256",
          "name": "_acceptanceTimestamp",
          "type": "uint256"
        },
        {
          "internalType": "uint256",
          "name": "_idOffer",
          "type": "uint256"
        },
        {
          "internalType": "uint256",
          "name": "_idProposal",
          "type": "uint256"
        }
      ],
      "name": "createProduct",
      "outputs": [
        {
          "internalType": "uint256",
          "name": "",
          "type": "uint256"
        }
      ],
      "stateMutability": "nonpayable",
      "type": "function"
    },
    {
      "inputs": [
        {
          "internalType": "address",
          "name": "",
          "type": "address"
        }
      ],
      "name": "customers",
      "outputs": [
        {
          "internalType": "enum Billing.CustomerStatus",
          "name": "status",
          "type": "uint8"
        },
        {
          "internalType": "uint8",
          "name": "score",
          "type": "uint8"
        },
        {
          "internalType": "uint256",
          "name": "nbTopUp",
          "type": "uint256"
        },
        {
          "internalType": "uint256",
          "name": "amount",
          "type": "uint256"
        },
        {
          "internalType": "uint256",
          "name": "firstTopUp",
          "type": "uint256"
        }
      ],
      "stateMutability": "view",
      "type": "function"
    },
    {
      "inputs": [
        {
          "internalType": "uint8",
          "name": "_scoring",
          "type": "uint8"
        }
      ],
      "name": "getOfferProposals",
      "outputs": [
        {
          "internalType": "uint256[]",
          "name": "",
          "type": "uint256[]"
        }
      ],
      "stateMutability": "view",
      "type": "function"
    },
    {
      "inputs": [],
      "name": "getUniqueId",
      "outputs": [
        {
          "internalType": "address",
          "name": "",
          "type": "address"
        }
      ],
      "stateMutability": "nonpayable",
      "type": "function"
    },
    {
      "inputs": [
        {
          "internalType": "address",
          "name": "_phoneHash",
          "type": "address"
        }
      ],
      "name": "isActiveCustomer",
      "outputs": [
        {
          "internalType": "bool",
          "name": "",
          "type": "bool"
        }
      ],
      "stateMutability": "view",
      "type": "function"
    },
    {
      "inputs": [
        {
          "internalType": "address",
          "name": "_phoneHash",
          "type": "address"
        },
        {
          "internalType": "string",
          "name": "_ref",
          "type": "string"
        },
        {
          "internalType": "uint8",
          "name": "_score",
          "type": "uint8"
        }
      ],
      "name": "lowBalanceOffering",
      "outputs": [],
      "stateMutability": "nonpayable",
      "type": "function"
    },
    {
      "inputs": [
        {
          "internalType": "uint256",
          "name": "",
          "type": "uint256"
        }
      ],
      "name": "offers",
      "outputs": [
        {
          "internalType": "address",
          "name": "phoneHash",
          "type": "address"
        },
        {
          "internalType": "uint256",
          "name": "timestamp",
          "type": "uint256"
        },
        {
          "internalType": "enum Offering.EligibilityReason",
          "name": "reason",
          "type": "uint8"
        },
        {
          "internalType": "enum Offering.OfferStatus",
          "name": "status",
          "type": "uint8"
        },
        {
          "internalType": "string",
          "name": "ref",
          "type": "string"
        }
      ],
      "stateMutability": "view",
      "type": "function"
    },
    {
      "inputs": [],
      "name": "owner",
      "outputs": [
        {
          "internalType": "address",
          "name": "",
          "type": "address"
        }
      ],
      "stateMutability": "view",
      "type": "function"
    },
    {
      "inputs": [
        {
          "internalType": "uint256",
          "name": "",
          "type": "uint256"
        }
      ],
      "name": "products",
      "outputs": [
        {
          "internalType": "address",
          "name": "phoneHash",
          "type": "address"
        },
        {
          "internalType": "uint256",
          "name": "timestamp",
          "type": "uint256"
        },
        {
          "internalType": "uint256",
          "name": "idOffer",
          "type": "uint256"
        },
        {
          "internalType": "uint256",
          "name": "idProposal",
          "type": "uint256"
        },
        {
          "internalType": "enum Offering.ProductStatus",
          "name": "status",
          "type": "uint8"
        }
      ],
      "stateMutability": "view",
      "type": "function"
    },
    {
      "inputs": [
        {
          "internalType": "uint256",
          "name": "",
          "type": "uint256"
        }
      ],
      "name": "proposals",
      "outputs": [
        {
          "internalType": "uint8",
          "name": "minScoring",
          "type": "uint8"
        },
        {
          "internalType": "uint256",
          "name": "capital",
          "type": "uint256"
        },
        {
          "internalType": "uint256",
          "name": "interest",
          "type": "uint256"
        },
        {
          "internalType": "uint256",
          "name": "validityPeriod",
          "type": "uint256"
        },
        {
          "internalType": "string",
          "name": "description",
          "type": "string"
        },
        {
          "internalType": "enum Offering.ProposalStatus",
          "name": "status",
          "type": "uint8"
        }
      ],
      "stateMutability": "view",
      "type": "function"
    },
    {
      "inputs": [],
      "name": "proposalsCount",
      "outputs": [
        {
          "internalType": "uint256",
          "name": "",
          "type": "uint256"
        }
      ],
      "stateMutability": "view",
      "type": "function"
    },
    {
      "inputs": [],
      "name": "renounceOwnership",
      "outputs": [],
      "stateMutability": "nonpayable",
      "type": "function"
    },
    {
      "inputs": [
        {
          "internalType": "address",
          "name": "_phoneHash",
          "type": "address"
        },
        {
          "internalType": "uint256",
          "name": "_paidTimestamp",
          "type": "uint256"
        }
      ],
      "name": "topUpBilling",
      "outputs": [],
      "stateMutability": "nonpayable",
      "type": "function"
    },
    {
      "inputs": [
        {
          "internalType": "address",
          "name": "newOwner",
          "type": "address"
        }
      ],
      "name": "transferOwnership",
      "outputs": [],
      "stateMutability": "nonpayable",
      "type": "function"
    },
    {
      "inputs": [
        {
          "internalType": "address",
          "name": "_phoneHash",
          "type": "address"
        }
      ],
      "name": "addToScore",
      "outputs": [],
      "stateMutability": "nonpayable",
      "type": "function"
    },
    {
      "inputs": [
        {
          "internalType": "address",
          "name": "_phoneHash",
          "type": "address"
        },
        {
          "internalType": "string",
          "name": "_ref",
          "type": "string"
        },
        {
          "internalType": "uint256",
          "name": "_acceptanceTimestamp",
          "type": "uint256"
        },
        {
          "internalType": "uint256",
          "name": "_idOffer",
          "type": "uint256"
        },
        {
          "internalType": "uint256",
          "name": "_idProposal",
          "type": "uint256"
        }
      ],
      "name": "acceptance",
      "outputs": [],
      "stateMutability": "nonpayable",
      "type": "function"
    },
    {
      "inputs": [
        {
          "internalType": "address",
          "name": "_phoneHash",
          "type": "address"
        },
        {
          "internalType": "uint256",
          "name": "_paidTimestamp",
          "type": "uint256"
        }
      ],
      "name": "topUp",
      "outputs": [],
      "stateMutability": "nonpayable",
      "type": "function"
    },
    {
      "inputs": [
        {
          "internalType": "address",
          "name": "_phoneHash",
          "type": "address"
        },
        {
          "internalType": "string",
          "name": "_ref",
          "type": "string"
        }
      ],
      "name": "lowBalance",
      "outputs": [],
      "stateMutability": "nonpayable",
      "type": "function"
    },
    {
      "inputs": [
        {
          "components": [
            {
              "internalType": "enum Billing.CustomerStatus",
              "name": "status",
              "type": "uint8"
            },
            {
              "internalType": "uint8",
              "name": "score",
              "type": "uint8"
            },
            {
              "internalType": "uint256",
              "name": "nbTopUp",
              "type": "uint256"
            },
            {
              "internalType": "uint256",
              "name": "amount",
              "type": "uint256"
            },
            {
              "internalType": "uint256",
              "name": "firstTopUp",
              "type": "uint256"
            },
            {
              "components": [
                {
                  "internalType": "string",
                  "name": "ref",
                  "type": "string"
                },
                {
                  "internalType": "uint256",
                  "name": "acceptanceTimestamp",
                  "type": "uint256"
                },
                {
                  "internalType": "uint256",
                  "name": "paidTimestamp",
                  "type": "uint256"
                },
                {
                  "internalType": "enum Billing.HistoryStatus",
                  "name": "status",
                  "type": "uint8"
                },
                {
                  "internalType": "uint256",
                  "name": "idProduct",
                  "type": "uint256"
                }
              ],
              "internalType": "struct Billing.History[]",
              "name": "history",
              "type": "tuple[]"
            }
          ],
          "internalType": "struct Billing.Customer",
          "name": "_customer",
          "type": "tuple"
        }
      ],
      "name": "process",
      "outputs": [
        {
          "internalType": "uint8",
          "name": "",
          "type": "uint8"
        }
      ],
      "stateMutability": "view",
      "type": "function"
    }
  ],
  "bytecode": "0x608060405260006002553480156200001657600080fd5b50620000376200002b6200003d60201b60201c565b6200004560201b60201c565b62000109565b600033905090565b60008060009054906101000a900473ffffffffffffffffffffffffffffffffffffffff169050816000806101000a81548173ffffffffffffffffffffffffffffffffffffffff021916908373ffffffffffffffffffffffffffffffffffffffff1602179055508173ffffffffffffffffffffffffffffffffffffffff168173ffffffffffffffffffffffffffffffffffffffff167f8be0079c531659141344cd1fd0a4f28419497f9722a3daafe3b4186f6b6457e060405160405180910390a35050565b613d1780620001196000396000f3fe608060405234801561001057600080fd5b506004361061014d5760003560e01c80637a67e6cc116100c3578063b6ca45951161007c578063b6ca4595146103bf578063bdcf208c146103ef578063d6f7ddf91461040b578063f2fde38b14610427578063f324e9d114610443578063f3963cba1461045f5761014d565b80637a67e6cc146102cf5780637acc0b20146102eb5780638a72ea6a1461031f5780638da5cb5b146103535780639ef91d9114610371578063ab63d7f2146103a15761014d565b80633ef3e0cb116101155780633ef3e0cb1461021157806345df77791461022d57806346747b381461024957806347466dc314610279578063573f671814610295578063715018a6146102c55761014d565b8063013cf08b146101525780630a9f46ad14610187578063116c327b146101a55780631ac8d444146101c1578063336989ae146101dd575b600080fd5b61016c60048036038101906101679190612da8565b61047b565b60405161017e96959493929190613590565b60405180910390f35b61018f610569565b60405161019c9190613483565b60405180910390f35b6101bf60048036038101906101ba9190612c09565b610576565b005b6101db60048036038101906101d69190612a93565b6107c7565b005b6101f760048036038101906101f29190612a66565b610825565b604051610208959493929190613370565b60405180910390f35b61022b60048036038101906102269190612d1f565b610875565b005b61024760048036038101906102429190612c78565b6109d8565b005b610263600480360381019061025e9190612dd5565b610ff5565b6040516102709190613333565b60405180910390f35b610293600480360381019061028e9190612da8565b61116d565b005b6102af60048036038101906102aa9190612d5f565b611283565b6040516102bc9190613575565b60405180910390f35b6102cd611293565b005b6102e960048036038101906102e49190612aef565b61131b565b005b61030560048036038101906103009190612da8565b611566565b6040516103169594939291906132b7565b60405180910390f35b61033960048036038101906103349190612da8565b6115d9565b60405161034a95949392919061325d565b60405180910390f35b61035b6116e1565b6040516103689190613196565b60405180910390f35b61038b60048036038101906103869190612a66565b61170a565b6040516103989190613355565b60405180910390f35b6103a9611797565b6040516103b69190613196565b60405180910390f35b6103d960048036038101906103d49190612cb8565b6117e6565b6040516103e69190613483565b60405180910390f35b61040960048036038101906104049190612e02565b611998565b005b61042560048036038101906104209190612c78565b611b9d565b005b610441600480360381019061043c9190612a66565b611fa2565b005b61045d60048036038101906104589190612b72565b61209a565b005b61047960048036038101906104749190612a66565b612170565b005b6004818154811061048b57600080fd5b90600052602060002090600602016000915090508060000160009054906101000a900460ff16908060010154908060020154908060030154908060040180546104d3906138d0565b80601f01602080910402602001604051908101604052809291908181526020018280546104ff906138d0565b801561054c5780601f106105215761010080835404028352916020019161054c565b820191906000526020600020905b81548152906001019060200180831161052f57829003601f168201915b5050505050908060050160009054906101000a900460ff16905086565b6000600480549050905090565b7f251fc0df7e56c36cfc4f618ef67296b8e2c41ce1ce473e5187bfec66743b38d383836040516105a79291906131b1565b60405180910390a16105b76125c2565b83816000019073ffffffffffffffffffffffffffffffffffffffff16908173ffffffffffffffffffffffffffffffffffffffff168152505042816020018181525050600081608001906001811115610612576106116139d9565b5b90816001811115610626576106256139d9565b5b8152505061063382610ff5565b8160600181905250828160a00181905250600381908060018154018082558091505060019003906000526020600020906006020160009091909190915060008201518160000160006101000a81548173ffffffffffffffffffffffffffffffffffffffff021916908373ffffffffffffffffffffffffffffffffffffffff1602179055506020820151816001015560408201518160020160006101000a81548160ff021916908360048111156106ec576106eb6139d9565b5b0217905550606082015181600301908051906020019061070d929190612632565b5060808201518160040160006101000a81548160ff02191690836001811115610739576107386139d9565b5b021790555060a082015181600501908051906020019061075a92919061267f565b5050507f6a2d36566113fdc14dbc5b9458a0ba3a3eb54e394c2eb29fb26efdfee664f55e6001600380549050610790919061373a565b826000015183602001518460400151856060015187896040516107b9979695949392919061349e565b60405180910390a150505050565b6108218282600160008673ffffffffffffffffffffffffffffffffffffffff1673ffffffffffffffffffffffffffffffffffffffff16815260200190815260200160002060000160019054906101000a900460ff16610576565b5050565b60016020528060005260406000206000915090508060000160009054906101000a900460ff16908060000160019054906101000a900460ff16908060010154908060020154908060030154905085565b61087d6124f6565b73ffffffffffffffffffffffffffffffffffffffff1661089b6116e1565b73ffffffffffffffffffffffffffffffffffffffff16146108f1576040517f08c379a00000000000000000000000000000000000000000000000000000000081526004016108e890613443565b60405180910390fd5b80600160008473ffffffffffffffffffffffffffffffffffffffff1673ffffffffffffffffffffffffffffffffffffffff16815260200190815260200160002060000160016101000a81548160ff021916908360ff1602179055507f67300a8a7a64e6ba305144189169d4bf615482b42e8fd241a6c5fc20879374a782600160008573ffffffffffffffffffffffffffffffffffffffff1673ffffffffffffffffffffffffffffffffffffffff16815260200190815260200160002060000160019054906101000a900460ff166040516109cc92919061330a565b60405180910390a15050565b6109e06124f6565b73ffffffffffffffffffffffffffffffffffffffff166109fe6116e1565b73ffffffffffffffffffffffffffffffffffffffff1614610a54576040517f08c379a0000000000000000000000000000000000000000000000000000000008152600401610a4b90613443565b60405180910390fd5b8160006001811115610a6957610a686139d9565b5b600160008373ffffffffffffffffffffffffffffffffffffffff1673ffffffffffffffffffffffffffffffffffffffff16815260200190815260200160002060000160009054906101000a900460ff166001811115610acb57610aca6139d9565b5b14610b0b576040517f08c379a0000000000000000000000000000000000000000000000000000000008152600401610b0290613463565b60405180910390fd5b600060018060008673ffffffffffffffffffffffffffffffffffffffff1673ffffffffffffffffffffffffffffffffffffffff16815260200190815260200160002060040180549050610b5e919061373a565b90506000600160008673ffffffffffffffffffffffffffffffffffffffff1673ffffffffffffffffffffffffffffffffffffffff1681526020019081526020016000206004018054905011610be8576040517f08c379a0000000000000000000000000000000000000000000000000000000008152600401610bdf90613423565b60405180910390fd5b60006001811115610bfc57610bfb6139d9565b5b600160008673ffffffffffffffffffffffffffffffffffffffff1673ffffffffffffffffffffffffffffffffffffffff1681526020019081526020016000206004018281548110610c5057610c4f613a37565b5b906000526020600020906005020160030160009054906101000a900460ff166001811115610c8157610c806139d9565b5b14610cc1576040517f08c379a0000000000000000000000000000000000000000000000000000000008152600401610cb8906133c3565b60405180910390fd5b7fa3a756c9361873f5cd34cb71ba3b6ebc76b90321aa2767387c016991dfb4f63a84600160008773ffffffffffffffffffffffffffffffffffffffff1673ffffffffffffffffffffffffffffffffffffffff1681526020019081526020016000206004018381548110610d3757610d36613a37565b5b9060005260206000209060050201600001604051610d5692919061322d565b60405180910390a182600160008673ffffffffffffffffffffffffffffffffffffffff1673ffffffffffffffffffffffffffffffffffffffff1681526020019081526020016000206004018281548110610db357610db2613a37565b5b90600052602060002090600502016002018190555060018060008673ffffffffffffffffffffffffffffffffffffffff1673ffffffffffffffffffffffffffffffffffffffff1681526020019081526020016000206004018281548110610e1d57610e1c613a37565b5b906000526020600020906005020160030160006101000a81548160ff02191690836001811115610e5057610e4f6139d9565b5b02179055506000600160008673ffffffffffffffffffffffffffffffffffffffff1673ffffffffffffffffffffffffffffffffffffffff16815260200190815260200160002060000160019054906101000a900460ff1660ff161415610f525760018060008673ffffffffffffffffffffffffffffffffffffffff1673ffffffffffffffffffffffffffffffffffffffff16815260200190815260200160002060000160006101000a81548160ff02191690836001811115610f1557610f146139d9565b5b02179055507f1eacdda6365a7f824e9b515212eda6b8fb050f25bc505f857ac21c025a64e6f184604051610f499190613196565b60405180910390a15b7fd3866d48a40f2de06c735e96a984d47ce6783b334002603c31e3f4bc05bd51c584600160008773ffffffffffffffffffffffffffffffffffffffff1673ffffffffffffffffffffffffffffffffffffffff1681526020019081526020016000206004018381548110610fc857610fc7613a37565b5b9060005260206000209060050201600001604051610fe792919061322d565b60405180910390a150505050565b60606000600367ffffffffffffffff81111561101457611013613a66565b5b6040519080825280602002602001820160405280156110425781602001602082028036833780820191505090505b5090506000808460ff16141561105c578192505050611168565b6000600190505b600480549050811080156110775750600382105b1561116157600060018111156110905761108f6139d9565b5b600482815481106110a4576110a3613a37565b5b906000526020600020906006020160050160009054906101000a900460ff1660018111156110d5576110d46139d9565b5b14801561111a5750600481815481106110f1576110f0613a37565b5b906000526020600020906006020160000160009054906101000a900460ff1660ff168560ff1610155b1561114e578083838151811061113357611132613a37565b5b602002602001018181525050818061114a90613933565b9250505b808061115990613933565b915050611063565b5081925050505b919050565b6111756124f6565b73ffffffffffffffffffffffffffffffffffffffff166111936116e1565b73ffffffffffffffffffffffffffffffffffffffff16146111e9576040517f08c379a00000000000000000000000000000000000000000000000000000000081526004016111e090613443565b60405180910390fd5b806004805490508110611231576040517f08c379a0000000000000000000000000000000000000000000000000000000008152600401611228906133e3565b60405180910390fd5b60016004838154811061124757611246613a37565b5b906000526020600020906006020160050160006101000a81548160ff0219169083600181111561127a576112796139d9565b5b02179055505050565b6000806003905080915050919050565b61129b6124f6565b73ffffffffffffffffffffffffffffffffffffffff166112b96116e1565b73ffffffffffffffffffffffffffffffffffffffff161461130f576040517f08c379a000000000000000000000000000000000000000000000000000000000815260040161130690613443565b60405180910390fd5b61131960006124fe565b565b83600060018111156113305761132f6139d9565b5b600160008373ffffffffffffffffffffffffffffffffffffffff1673ffffffffffffffffffffffffffffffffffffffff16815260200190815260200160002060000160009054906101000a900460ff166001811115611392576113916139d9565b5b146113d2576040517f08c379a00000000000000000000000000000000000000000000000000000000081526004016113c990613463565b60405180910390fd5b7f031870b979bdc77dc0b1037a1aac37c55a178ab3bec4f8ba1ca1fc452e30578b8585858560405161140794939291906131e1565b60405180910390a1600160008673ffffffffffffffffffffffffffffffffffffffff1673ffffffffffffffffffffffffffffffffffffffff1681526020019081526020016000206004016040518060a001604052808681526020018581526020016000815260200160006001811115611483576114826139d9565b5b815260200184815250908060018154018082558091505060019003906000526020600020906005020160009091909190915060008201518160000190805190602001906114d192919061267f565b50602082015181600101556040820151816002015560608201518160030160006101000a81548160ff02191690836001811115611511576115106139d9565b5b02179055506080820151816004015550507f52420d39a0f366bd8078120494fcd7ffb3971e79291fa625dd9de26e856075248585858560405161155794939291906131e1565b60405180910390a15050505050565b6005818154811061157657600080fd5b90600052602060002090600502016000915090508060000160009054906101000a900473ffffffffffffffffffffffffffffffffffffffff16908060010154908060020154908060030154908060040160009054906101000a900460ff16905085565b600381815481106115e957600080fd5b90600052602060002090600602016000915090508060000160009054906101000a900473ffffffffffffffffffffffffffffffffffffffff16908060010154908060020160009054906101000a900460ff16908060040160009054906101000a900460ff169080600501805461165e906138d0565b80601f016020809104026020016040519081016040528092919081815260200182805461168a906138d0565b80156116d75780601f106116ac576101008083540402835291602001916116d7565b820191906000526020600020905b8154815290600101906020018083116116ba57829003601f168201915b5050505050905085565b60008060009054906101000a900473ffffffffffffffffffffffffffffffffffffffff16905090565b600080600181111561171f5761171e6139d9565b5b600160008473ffffffffffffffffffffffffffffffffffffffff1673ffffffffffffffffffffffffffffffffffffffff16815260200190815260200160002060000160009054906101000a900460ff166001811115611781576117806139d9565b5b1461178d576000611790565b60015b9050919050565b6000600260008154809291906117ac90613933565b919050555042336002546040516020016117c893929190613159565b6040516020818303038152906040528051906020012060601c905090565b60006117f06124f6565b73ffffffffffffffffffffffffffffffffffffffff1661180e6116e1565b73ffffffffffffffffffffffffffffffffffffffff1614611864576040517f08c379a000000000000000000000000000000000000000000000000000000000815260040161185b90613443565b60405180910390fd5b60006040518060a001604052808773ffffffffffffffffffffffffffffffffffffffff168152602001868152602001858152602001848152602001600060018111156118b3576118b26139d9565b5b8152509050600581908060018154018082558091505060019003906000526020600020906005020160009091909190915060008201518160000160006101000a81548173ffffffffffffffffffffffffffffffffffffffff021916908373ffffffffffffffffffffffffffffffffffffffff16021790555060208201518160010155604082015181600201556060820151816003015560808201518160040160006101000a81548160ff02191690836001811115611974576119736139d9565b5b02179055505050600160058054905061198d919061373a565b915050949350505050565b6119a06124f6565b73ffffffffffffffffffffffffffffffffffffffff166119be6116e1565b73ffffffffffffffffffffffffffffffffffffffff1614611a14576040517f08c379a0000000000000000000000000000000000000000000000000000000008152600401611a0b90613443565b60405180910390fd5b611a1c612705565b84816000019060ff16908160ff1681525050838160200181815250508281604001818152505081816080018190525060008160a001906001811115611a6457611a636139d9565b5b90816001811115611a7857611a776139d9565b5b81525050600481908060018154018082558091505060019003906000526020600020906006020160009091909190915060008201518160000160006101000a81548160ff021916908360ff1602179055506020820151816001015560408201518160020155606082015181600301556080820151816004019080519060200190611b0392919061267f565b5060a08201518160050160006101000a81548160ff02191690836001811115611b2f57611b2e6139d9565b5b021790555050507f0dd92ec7c9e4620459d0f39f48975327d855d61513c1e839e5ae03d1ca7644726001600480549050611b69919061373a565b8260000151836020015184604001518560800151604051611b8e95949392919061351b565b60405180910390a15050505050565b611ba56124f6565b73ffffffffffffffffffffffffffffffffffffffff16611bc36116e1565b73ffffffffffffffffffffffffffffffffffffffff1614611c19576040517f08c379a0000000000000000000000000000000000000000000000000000000008152600401611c1090613443565b60405180910390fd5b8160006001811115611c2e57611c2d6139d9565b5b600160008373ffffffffffffffffffffffffffffffffffffffff1673ffffffffffffffffffffffffffffffffffffffff16815260200190815260200160002060000160009054906101000a900460ff166001811115611c9057611c8f6139d9565b5b14611cd0576040517f08c379a0000000000000000000000000000000000000000000000000000000008152600401611cc790613463565b60405180910390fd5b600160008473ffffffffffffffffffffffffffffffffffffffff1673ffffffffffffffffffffffffffffffffffffffff1681526020019081526020016000206001016000815480929190611d2390613933565b919050555060046005600160008673ffffffffffffffffffffffffffffffffffffffff1673ffffffffffffffffffffffffffffffffffffffff16815260200190815260200160002060040160018060008873ffffffffffffffffffffffffffffffffffffffff1673ffffffffffffffffffffffffffffffffffffffff16815260200190815260200160002060040180549050611dbf919061373a565b81548110611dd057611dcf613a37565b5b90600052602060002090600502016004015481548110611df357611df2613a37565b5b90600052602060002090600502016003015481548110611e1657611e15613a37565b5b90600052602060002090600602016002015460046005600160008773ffffffffffffffffffffffffffffffffffffffff1673ffffffffffffffffffffffffffffffffffffffff16815260200190815260200160002060040160018060008973ffffffffffffffffffffffffffffffffffffffff1673ffffffffffffffffffffffffffffffffffffffff16815260200190815260200160002060040180549050611ebf919061373a565b81548110611ed057611ecf613a37565b5b90600052602060002090600502016004015481548110611ef357611ef2613a37565b5b90600052602060002090600502016003015481548110611f1657611f15613a37565b5b906000526020600020906006020160010154611f3291906136e4565b600160008573ffffffffffffffffffffffffffffffffffffffff1673ffffffffffffffffffffffffffffffffffffffff1681526020019081526020016000206002016000828254611f8391906136e4565b92505081905550611f9383612170565b611f9d83836109d8565b505050565b611faa6124f6565b73ffffffffffffffffffffffffffffffffffffffff16611fc86116e1565b73ffffffffffffffffffffffffffffffffffffffff161461201e576040517f08c379a000000000000000000000000000000000000000000000000000000000815260040161201590613443565b60405180910390fd5b600073ffffffffffffffffffffffffffffffffffffffff168173ffffffffffffffffffffffffffffffffffffffff16141561208e576040517f08c379a000000000000000000000000000000000000000000000000000000000815260040161208590613403565b60405180910390fd5b612097816124fe565b50565b84600060018111156120af576120ae6139d9565b5b600160008373ffffffffffffffffffffffffffffffffffffffff1673ffffffffffffffffffffffffffffffffffffffff16815260200190815260200160002060000160009054906101000a900460ff166001811115612111576121106139d9565b5b14612151576040517f08c379a000000000000000000000000000000000000000000000000000000000815260040161214890613463565b60405180910390fd5b6121688686866121638a8989896117e6565b61131b565b505050505050565b6121786124f6565b73ffffffffffffffffffffffffffffffffffffffff166121966116e1565b73ffffffffffffffffffffffffffffffffffffffff16146121ec576040517f08c379a00000000000000000000000000000000000000000000000000000000081526004016121e390613443565b60405180910390fd5b8060006001811115612201576122006139d9565b5b600160008373ffffffffffffffffffffffffffffffffffffffff1673ffffffffffffffffffffffffffffffffffffffff16815260200190815260200160002060000160009054906101000a900460ff166001811115612263576122626139d9565b5b146122a3576040517f08c379a000000000000000000000000000000000000000000000000000000000815260040161229a90613463565b60405180910390fd5b6000600160008473ffffffffffffffffffffffffffffffffffffffff1673ffffffffffffffffffffffffffffffffffffffff1681526020019081526020016000206040518060c00160405290816000820160009054906101000a900460ff166001811115612314576123136139d9565b5b6001811115612326576123256139d9565b5b81526020016000820160019054906101000a900460ff1660ff1660ff16815260200160018201548152602001600282015481526020016003820154815260200160048201805480602002602001604051908101604052809291908181526020016000905b828210156124a757838290600052602060002090600502016040518060a00160405290816000820180546123bd906138d0565b80601f01602080910402602001604051908101604052809291908181526020018280546123e9906138d0565b80156124365780601f1061240b57610100808354040283529160200191612436565b820191906000526020600020905b81548152906001019060200180831161241957829003601f168201915b5050505050815260200160018201548152602001600282015481526020016003820160009054906101000a900460ff166001811115612478576124776139d9565b5b600181111561248a576124896139d9565b5b81526020016004820154815250508152602001906001019061238a565b505050508152505090506000816080015114156124c957428160800181815250505b8060400180518091906124db90613933565b815250506124f1836124ec83611283565b610875565b505050565b600033905090565b60008060009054906101000a900473ffffffffffffffffffffffffffffffffffffffff169050816000806101000a81548173ffffffffffffffffffffffffffffffffffffffff021916908373ffffffffffffffffffffffffffffffffffffffff1602179055508173ffffffffffffffffffffffffffffffffffffffff168173ffffffffffffffffffffffffffffffffffffffff167f8be0079c531659141344cd1fd0a4f28419497f9722a3daafe3b4186f6b6457e060405160405180910390a35050565b6040518060c00160405280600073ffffffffffffffffffffffffffffffffffffffff1681526020016000815260200160006004811115612605576126046139d9565b5b81526020016060815260200160006001811115612625576126246139d9565b5b8152602001606081525090565b82805482825590600052602060002090810192821561266e579160200282015b8281111561266d578251825591602001919060010190612652565b5b50905061267b9190612750565b5090565b82805461268b906138d0565b90600052602060002090601f0160209004810192826126ad57600085556126f4565b82601f106126c657805160ff19168380011785556126f4565b828001600101855582156126f4579182015b828111156126f35782518255916020019190600101906126d8565b5b5090506127019190612750565b5090565b6040518060c00160405280600060ff168152602001600081526020016000815260200160008152602001606081526020016000600181111561274a576127496139d9565b5b81525090565b5b80821115612769576000816000905550600101612751565b5090565b600061278061277b8461361d565b6135f8565b905080838252602082019050828560208602820111156127a3576127a2613aa4565b5b60005b858110156127f157813567ffffffffffffffff8111156127c9576127c8613a95565b5b8086016127d68982612994565b855260208501945060208401935050506001810190506127a6565b5050509392505050565b600061280e61280984613649565b6135f8565b90508281526020810184848401111561282a57612829613aa9565b5b61283584828561388e565b509392505050565b60008135905061284c81613c7c565b92915050565b600082601f83011261286757612866613a95565b5b813561287784826020860161276d565b91505092915050565b60008135905061288f81613c93565b92915050565b6000813590506128a481613ca3565b92915050565b600082601f8301126128bf576128be613a95565b5b81356128cf8482602086016127fb565b91505092915050565b600060c082840312156128ee576128ed613a9a565b5b6128f860c06135f8565b9050600061290884828501612880565b600083015250602061291c84828501612a51565b602083015250604061293084828501612a3c565b604083015250606061294484828501612a3c565b606083015250608061295884828501612a3c565b60808301525060a082013567ffffffffffffffff81111561297c5761297b613a9f565b5b61298884828501612852565b60a08301525092915050565b600060a082840312156129aa576129a9613a9a565b5b6129b460a06135f8565b9050600082013567ffffffffffffffff8111156129d4576129d3613a9f565b5b6129e0848285016128aa565b60008301525060206129f484828501612a3c565b6020830152506040612a0884828501612a3c565b6040830152506060612a1c84828501612895565b6060830152506080612a3084828501612a3c565b60808301525092915050565b600081359050612a4b81613cb3565b92915050565b600081359050612a6081613cca565b92915050565b600060208284031215612a7c57612a7b613ab3565b5b6000612a8a8482850161283d565b91505092915050565b60008060408385031215612aaa57612aa9613ab3565b5b6000612ab88582860161283d565b925050602083013567ffffffffffffffff811115612ad957612ad8613aae565b5b612ae5858286016128aa565b9150509250929050565b60008060008060808587031215612b0957612b08613ab3565b5b6000612b178782880161283d565b945050602085013567ffffffffffffffff811115612b3857612b37613aae565b5b612b44878288016128aa565b9350506040612b5587828801612a3c565b9250506060612b6687828801612a3c565b91505092959194509250565b600080600080600060a08688031215612b8e57612b8d613ab3565b5b6000612b9c8882890161283d565b955050602086013567ffffffffffffffff811115612bbd57612bbc613aae565b5b612bc9888289016128aa565b9450506040612bda88828901612a3c565b9350506060612beb88828901612a3c565b9250506080612bfc88828901612a3c565b9150509295509295909350565b600080600060608486031215612c2257612c21613ab3565b5b6000612c308682870161283d565b935050602084013567ffffffffffffffff811115612c5157612c50613aae565b5b612c5d868287016128aa565b9250506040612c6e86828701612a51565b9150509250925092565b60008060408385031215612c8f57612c8e613ab3565b5b6000612c9d8582860161283d565b9250506020612cae85828601612a3c565b9150509250929050565b60008060008060808587031215612cd257612cd1613ab3565b5b6000612ce08782880161283d565b9450506020612cf187828801612a3c565b9350506040612d0287828801612a3c565b9250506060612d1387828801612a3c565b91505092959194509250565b60008060408385031215612d3657612d35613ab3565b5b6000612d448582860161283d565b9250506020612d5585828601612a51565b9150509250929050565b600060208284031215612d7557612d74613ab3565b5b600082013567ffffffffffffffff811115612d9357612d92613aae565b5b612d9f848285016128d8565b91505092915050565b600060208284031215612dbe57612dbd613ab3565b5b6000612dcc84828501612a3c565b91505092915050565b600060208284031215612deb57612dea613ab3565b5b6000612df984828501612a51565b91505092915050565b60008060008060808587031215612e1c57612e1b613ab3565b5b6000612e2a87828801612a51565b9450506020612e3b87828801612a3c565b9350506040612e4c87828801612a3c565b925050606085013567ffffffffffffffff811115612e6d57612e6c613aae565b5b612e79878288016128aa565b91505092959194509250565b6000612e918383613106565b60208301905092915050565b612ea68161376e565b82525050565b612ebd612eb88261376e565b61397c565b82525050565b6000612ece8261369f565b612ed881856136c2565b9350612ee38361367a565b8060005b83811015612f14578151612efb8882612e85565b9750612f06836136b5565b925050600181019050612ee7565b5085935050505092915050565b612f2a81613780565b82525050565b612f3981613822565b82525050565b612f4881613834565b82525050565b612f5781613846565b82525050565b612f6681613858565b82525050565b612f758161386a565b82525050565b6000612f86826136aa565b612f9081856136d3565b9350612fa081856020860161389d565b612fa981613ab8565b840191505092915050565b60008154612fc1816138d0565b612fcb81866136d3565b94506001821660008114612fe65760018114612ff85761302b565b60ff198316865260208601935061302b565b6130018561368a565b60005b8381101561302357815481890152600182019150602081019050613004565b808801955050505b50505092915050565b60006130416025836136d3565b915061304c82613ad6565b604082019050919050565b60006130646016836136d3565b915061306f82613b25565b602082019050919050565b60006130876026836136d3565b915061309282613b4e565b604082019050919050565b60006130aa6017836136d3565b91506130b582613b9d565b602082019050919050565b60006130cd6020836136d3565b91506130d882613bc6565b602082019050919050565b60006130f06010836136d3565b91506130fb82613bef565b602082019050919050565b61310f8161380b565b82525050565b61311e8161380b565b82525050565b6131356131308261380b565b6139a0565b82525050565b6131448161387c565b82525050565b61315381613815565b82525050565b60006131658286613124565b6020820191506131758285612eac565b6014820191506131858284613124565b602082019150819050949350505050565b60006020820190506131ab6000830184612e9d565b92915050565b60006040820190506131c66000830185612e9d565b81810360208301526131d88184612f7b565b90509392505050565b60006080820190506131f66000830187612e9d565b81810360208301526132088186612f7b565b90506132176040830185613115565b6132246060830184613115565b95945050505050565b60006040820190506132426000830185612e9d565b81810360208301526132548184612fb4565b90509392505050565b600060a0820190506132726000830188612e9d565b61327f6020830187613115565b61328c6040830186612f3f565b6132996060830185612f4e565b81810360808301526132ab8184612f7b565b90509695505050505050565b600060a0820190506132cc6000830188612e9d565b6132d96020830187613115565b6132e66040830186613115565b6132f36060830185613115565b6133006080830184612f5d565b9695505050505050565b600060408201905061331f6000830185612e9d565b61332c602083018461314a565b9392505050565b6000602082019050818103600083015261334d8184612ec3565b905092915050565b600060208201905061336a6000830184612f21565b92915050565b600060a0820190506133856000830188612f30565b613392602083018761314a565b61339f6040830186613115565b6133ac6060830185613115565b6133b96080830184613115565b9695505050505050565b600060208201905081810360008301526133dc81613034565b9050919050565b600060208201905081810360008301526133fc81613057565b9050919050565b6000602082019050818103600083015261341c8161307a565b9050919050565b6000602082019050818103600083015261343c8161309d565b9050919050565b6000602082019050818103600083015261345c816130c0565b9050919050565b6000602082019050818103600083015261347c816130e3565b9050919050565b60006020820190506134986000830184613115565b92915050565b600060e0820190506134b3600083018a613115565b6134c06020830189612e9d565b6134cd6040830188613115565b6134da6060830187612f3f565b81810360808301526134ec8186612ec3565b90506134fb60a083018561313b565b81810360c083015261350d8184612f7b565b905098975050505050505050565b600060a0820190506135306000830188613115565b61353d602083018761314a565b61354a6040830186613115565b6135576060830185613115565b81810360808301526135698184612f7b565b90509695505050505050565b600060208201905061358a600083018461314a565b92915050565b600060c0820190506135a5600083018961314a565b6135b26020830188613115565b6135bf6040830187613115565b6135cc6060830186613115565b81810360808301526135de8185612f7b565b90506135ed60a0830184612f6c565b979650505050505050565b6000613602613613565b905061360e8282613902565b919050565b6000604051905090565b600067ffffffffffffffff82111561363857613637613a66565b5b602082029050602081019050919050565b600067ffffffffffffffff82111561366457613663613a66565b5b61366d82613ab8565b9050602081019050919050565b6000819050602082019050919050565b60008190508160005260206000209050919050565b600081519050919050565b600081519050919050565b6000602082019050919050565b600082825260208201905092915050565b600082825260208201905092915050565b60006136ef8261380b565b91506136fa8361380b565b9250827fffffffffffffffffffffffffffffffffffffffffffffffffffffffffffffffff0382111561372f5761372e6139aa565b5b828201905092915050565b60006137458261380b565b91506137508361380b565b925082821015613763576137626139aa565b5b828203905092915050565b6000613779826137eb565b9050919050565b60008115159050919050565b600081905061379a82613c18565b919050565b60008190506137ad82613c2c565b919050565b60008190506137c082613c40565b919050565b60008190506137d382613c54565b919050565b60008190506137e682613c68565b919050565b600073ffffffffffffffffffffffffffffffffffffffff82169050919050565b6000819050919050565b600060ff82169050919050565b600061382d8261378c565b9050919050565b600061383f8261379f565b9050919050565b6000613851826137b2565b9050919050565b6000613863826137c5565b9050919050565b6000613875826137d8565b9050919050565b600061388782613815565b9050919050565b82818337600083830152505050565b60005b838110156138bb5780820151818401526020810190506138a0565b838111156138ca576000848401525b50505050565b600060028204905060018216806138e857607f821691505b602082108114156138fc576138fb613a08565b5b50919050565b61390b82613ab8565b810181811067ffffffffffffffff8211171561392a57613929613a66565b5b80604052505050565b600061393e8261380b565b91507fffffffffffffffffffffffffffffffffffffffffffffffffffffffffffffffff821415613971576139706139aa565b5b600182019050919050565b60006139878261398e565b9050919050565b600061399982613ac9565b9050919050565b6000819050919050565b7f4e487b7100000000000000000000000000000000000000000000000000000000600052601160045260246000fd5b7f4e487b7100000000000000000000000000000000000000000000000000000000600052602160045260246000fd5b7f4e487b7100000000000000000000000000000000000000000000000000000000600052602260045260246000fd5b7f4e487b7100000000000000000000000000000000000000000000000000000000600052603260045260246000fd5b7f4e487b7100000000000000000000000000000000000000000000000000000000600052604160045260246000fd5b600080fd5b600080fd5b600080fd5b600080fd5b600080fd5b600080fd5b600080fd5b6000601f19601f8301169050919050565b60008160601b9050919050565b7f54686520637573746f6d657220686173206e6f2070726f6475637420746f207260008201527f6566756e64000000000000000000000000000000000000000000000000000000602082015250565b7f50726f706f73616c20646f65736e277420657869737400000000000000000000600082015250565b7f4f776e61626c653a206e6577206f776e657220697320746865207a65726f206160008201527f6464726573730000000000000000000000000000000000000000000000000000602082015250565b7f50686f6e65206973206e6f742072656769737465726564000000000000000000600082015250565b7f4f776e61626c653a2063616c6c6572206973206e6f7420746865206f776e6572600082015250565b7f426c6f636b656420637573746f6d657200000000000000000000000000000000600082015250565b60028110613c2957613c286139d9565b5b50565b60058110613c3d57613c3c6139d9565b5b50565b60028110613c5157613c506139d9565b5b50565b60028110613c6557613c646139d9565b5b50565b60028110613c7957613c786139d9565b5b50565b613c858161376e565b8114613c9057600080fd5b50565b60028110613ca057600080fd5b50565b60028110613cb057600080fd5b50565b613cbc8161380b565b8114613cc757600080fd5b50565b613cd381613815565b8114613cde57600080fd5b5056fea2646970667358221220be5a99f3a76810698e50fabb1138c5f46a2d85a987bd5e82f5e559aeaeed43ab64736f6c63430008060033",
  "immutableReferences": {},
  "source": "// SPDX-License-Identifier: MIT\npragma solidity ^0.8.6;\n\nimport \"./Billing.sol\";\nimport \"./Offering.sol\";\nimport \"@openzeppelin/contracts/access/Ownable.sol\";\n\ncontract Timelapse is Ownable, Billing, Offering {\n\n    constructor() {}\n\n    function addToScore(address _phoneHash) public onlyOwner activeCustomer(_phoneHash) {\n        Customer memory customer = customers[_phoneHash];\n        if(customer.firstTopUp == 0)\n            customer.firstTopUp = block.timestamp;\n        customer.nbTopUp++;\n        changeScore(_phoneHash, process(customer));\n    }\n\n    function acceptance(address _phoneHash, string memory _ref, uint _acceptanceTimestamp, uint256 _idOffer, uint256 _idProposal) public activeCustomer(_phoneHash) {\n        acceptanceBilling(_phoneHash, _ref, _acceptanceTimestamp, createProduct(_phoneHash, _acceptanceTimestamp, _idOffer, _idProposal));\n    }\n\n    function topUp(address _phoneHash, uint _paidTimestamp) public onlyOwner activeCustomer(_phoneHash) {\n        customers[_phoneHash].nbTopUp++;\n        customers[_phoneHash].amount += proposals[products[customers[_phoneHash].history[customers[_phoneHash].history.length - 1].idProduct].idProposal].capital +\n                                        proposals[products[customers[_phoneHash].history[customers[_phoneHash].history.length - 1].idProduct].idProposal].interest;\n        addToScore(_phoneHash);\n        topUpBilling(_phoneHash, _paidTimestamp);\n    }\n\n    function lowBalance(address _phoneHash, string memory _ref) public {\n        lowBalanceOffering(_phoneHash, _ref, customers[_phoneHash].score);\n    }\n\n    function process(Customer memory _customer) public view returns(uint8) {\n        uint8 score;\n        // mettre les calculs et la logique pour scorer correctement\n        // \n        score = 3;\n        return score;\n    }\n}",
  "sourcePath": "/home/keymon/work/projet-pro/dApp/timelapse/contracts/Timelapse.sol",
  "compiler": {
    "name": "solc",
    "version": "0.8.6+commit.11564f7e.Emscripten.clang"
  },
  "schemaVersion": "3.4.1",
  "updatedAt": "2021-07-14T11:11:03.673Z",
  "devdoc": {
    "kind": "dev",
    "methods": {
      "owner()": {
        "details": "Returns the address of the current owner."
      },
      "renounceOwnership()": {
        "details": "Leaves the contract without owner. It will not be possible to call `onlyOwner` functions anymore. Can only be called by the current owner. NOTE: Renouncing ownership will leave the contract without an owner, thereby removing any functionality that is only available to the owner."
      },
      "transferOwnership(address)": {
        "details": "Transfers ownership of the contract to a new account (`newOwner`). Can only be called by the current owner."
      }
    },
    "version": 1
  },
  "userdoc": {
    "kind": "user",
    "methods": {},
    "version": 1
  }
}