{
  "contractName": "Timelapse",
  "abi": [
    {
      "inputs": [
        {
          "internalType": "address",
          "name": "_billingAddress",
          "type": "address"
        },
        {
          "internalType": "address",
          "name": "_offeringAddress",
          "type": "address"
        }
      ],
      "stateMutability": "nonpayable",
      "type": "constructor"
    },
    {
      "anonymous": false,
      "inputs": [
        {
          "indexed": true,
          "internalType": "address",
          "name": "previousOwner",
          "type": "address"
        },
        {
          "indexed": true,
          "internalType": "address",
          "name": "newOwner",
          "type": "address"
        }
      ],
      "name": "OwnershipTransferred",
      "type": "event"
    },
    {
      "inputs": [],
      "name": "owner",
      "outputs": [
        {
          "internalType": "address",
          "name": "",
          "type": "address"
        }
      ],
      "stateMutability": "view",
      "type": "function"
    },
    {
      "inputs": [],
      "name": "renounceOwnership",
      "outputs": [],
      "stateMutability": "nonpayable",
      "type": "function"
    },
    {
      "inputs": [
        {
          "internalType": "address",
          "name": "newOwner",
          "type": "address"
        }
      ],
      "name": "transferOwnership",
      "outputs": [],
      "stateMutability": "nonpayable",
      "type": "function"
    },
    {
      "inputs": [
        {
          "internalType": "address",
          "name": "_phoneHash",
          "type": "address"
        }
      ],
      "name": "addToScore",
      "outputs": [],
      "stateMutability": "nonpayable",
      "type": "function"
    },
    {
      "inputs": [
        {
          "internalType": "address",
          "name": "_phoneHash",
          "type": "address"
        },
        {
          "internalType": "string",
          "name": "_ref",
          "type": "string"
        },
        {
          "internalType": "uint256",
          "name": "_acceptanceTimestamp",
          "type": "uint256"
        },
        {
          "internalType": "uint256",
          "name": "_idOffer",
          "type": "uint256"
        },
        {
          "internalType": "uint256",
          "name": "_idProposal",
          "type": "uint256"
        }
      ],
      "name": "acceptance",
      "outputs": [],
      "stateMutability": "nonpayable",
      "type": "function"
    },
    {
      "inputs": [
        {
          "internalType": "address",
          "name": "_phoneHash",
          "type": "address"
        },
        {
          "internalType": "uint256",
          "name": "_paidTimestamp",
          "type": "uint256"
        }
      ],
      "name": "topUp",
      "outputs": [],
      "stateMutability": "nonpayable",
      "type": "function"
    },
    {
      "inputs": [
        {
          "internalType": "address",
          "name": "_phoneHash",
          "type": "address"
        },
        {
          "internalType": "string",
          "name": "_ref",
          "type": "string"
        }
      ],
      "name": "lowBalance",
      "outputs": [],
      "stateMutability": "nonpayable",
      "type": "function"
    },
    {
      "inputs": [
        {
          "internalType": "address",
          "name": "_phoneHash",
          "type": "address"
        },
        {
          "internalType": "uint256",
          "name": "_startTimestamp",
          "type": "uint256"
        },
        {
          "internalType": "uint256",
          "name": "_endTimestamp",
          "type": "uint256"
        }
      ],
      "name": "getCustomerActivitiesLog",
      "outputs": [
        {
          "components": [
            {
              "internalType": "string",
              "name": "log",
              "type": "string"
            },
            {
              "internalType": "uint256",
              "name": "timestamp",
              "type": "uint256"
            },
            {
              "internalType": "string",
              "name": "status",
              "type": "string"
            }
          ],
          "internalType": "struct Timelapse.CustomerActivity[]",
          "name": "",
          "type": "tuple[]"
        }
      ],
      "stateMutability": "view",
      "type": "function"
    }
  ],
  "bytecode": "0x60806040523480156200001157600080fd5b5060405162002c9c38038062002c9c8339818101604052810190620000379190620001c4565b620000576200004b620000e160201b60201c565b620000e960201b60201c565b81600160006101000a81548173ffffffffffffffffffffffffffffffffffffffff021916908373ffffffffffffffffffffffffffffffffffffffff16021790555080600260006101000a81548173ffffffffffffffffffffffffffffffffffffffff021916908373ffffffffffffffffffffffffffffffffffffffff16021790555050506200025e565b600033905090565b60008060009054906101000a900473ffffffffffffffffffffffffffffffffffffffff169050816000806101000a81548173ffffffffffffffffffffffffffffffffffffffff021916908373ffffffffffffffffffffffffffffffffffffffff1602179055508173ffffffffffffffffffffffffffffffffffffffff168173ffffffffffffffffffffffffffffffffffffffff167f8be0079c531659141344cd1fd0a4f28419497f9722a3daafe3b4186f6b6457e060405160405180910390a35050565b600081519050620001be8162000244565b92915050565b60008060408385031215620001de57620001dd6200023f565b5b6000620001ee85828601620001ad565b92505060206200020185828601620001ad565b9150509250929050565b600062000218826200021f565b9050919050565b600073ffffffffffffffffffffffffffffffffffffffff82169050919050565b600080fd5b6200024f816200020b565b81146200025b57600080fd5b50565b612a2e806200026e6000396000f3fe608060405234801561001057600080fd5b50600436106100885760003560e01c8063f2fde38b1161005b578063f2fde38b146100ed578063f324e9d114610109578063f3963cba14610125578063f6410c011461014157610088565b80631ac8d4441461008d578063715018a6146100a95780638da5cb5b146100b3578063d6f7ddf9146100d1575b600080fd5b6100a760048036038101906100a29190611c09565b610171565b005b6100b16102b0565b005b6100bb610338565b6040516100c89190612397565b60405180910390f35b6100eb60048036038101906100e69190611cfc565b610361565b005b61010760048036038101906101029190611bdc565b610878565b005b610123600480360381019061011e9190611c65565b610970565b005b61013f600480360381019061013a9190611bdc565b610abc565b005b61015b60048036038101906101569190611dd3565b610bc8565b60405161016891906124d3565b60405180910390f35b600260009054906101000a900473ffffffffffffffffffffffffffffffffffffffff1673ffffffffffffffffffffffffffffffffffffffff1663116c327b8383600160009054906101000a900473ffffffffffffffffffffffffffffffffffffffff1673ffffffffffffffffffffffffffffffffffffffff1663d47875d0876040518263ffffffff1660e01b815260040161020c9190612397565b60206040518083038186803b15801561022457600080fd5b505afa158015610238573d6000803e3d6000fd5b505050506040513d601f19601f8201168201806040525081019061025c9190611ff2565b6040518463ffffffff1660e01b815260040161027a939291906123fe565b600060405180830381600087803b15801561029457600080fd5b505af11580156102a8573d6000803e3d6000fd5b505050505050565b6102b8611928565b73ffffffffffffffffffffffffffffffffffffffff166102d6610338565b73ffffffffffffffffffffffffffffffffffffffff161461032c576040517f08c379a000000000000000000000000000000000000000000000000000000000815260040161032390612515565b60405180910390fd5b6103366000611930565b565b60008060009054906101000a900473ffffffffffffffffffffffffffffffffffffffff16905090565b610369611928565b73ffffffffffffffffffffffffffffffffffffffff16610387610338565b73ffffffffffffffffffffffffffffffffffffffff16146103dd576040517f08c379a00000000000000000000000000000000000000000000000000000000081526004016103d490612515565b60405180910390fd5b6000600160009054906101000a900473ffffffffffffffffffffffffffffffffffffffff1673ffffffffffffffffffffffffffffffffffffffff1663336989ae846040518263ffffffff1660e01b815260040161043a9190612397565b60c06040518083038186803b15801561045257600080fd5b505afa158015610466573d6000803e3d6000fd5b505050506040513d601f19601f8201168201806040525081019061048a9190611ea1565b955050505050506000600160009054906101000a900473ffffffffffffffffffffffffffffffffffffffff1673ffffffffffffffffffffffffffffffffffffffff1663fcf7ff2a85846040518363ffffffff1660e01b81526004016104f092919061243c565b60006040518083038186803b15801561050857600080fd5b505afa15801561051c573d6000803e3d6000fd5b505050506040513d6000823e3d601f19601f820116820180604052508101906105459190611f2e565b9450505050506000600260009054906101000a900473ffffffffffffffffffffffffffffffffffffffff1673ffffffffffffffffffffffffffffffffffffffff16637acc0b20836040518263ffffffff1660e01b81526004016105a89190612535565b60a06040518083038186803b1580156105c057600080fd5b505afa1580156105d4573d6000803e3d6000fd5b505050506040513d601f19601f820116820180604052508101906105f89190611e26565b509350505050600080600260009054906101000a900473ffffffffffffffffffffffffffffffffffffffff1673ffffffffffffffffffffffffffffffffffffffff1663013cf08b846040518263ffffffff1660e01b815260040161065c9190612535565b60006040518083038186803b15801561067457600080fd5b505afa158015610688573d6000803e3d6000fd5b505050506040513d6000823e3d601f19601f820116820180604052508101906106b1919061201f565b5050509250925050600160009054906101000a900473ffffffffffffffffffffffffffffffffffffffff1673ffffffffffffffffffffffffffffffffffffffff1663d8dd18278883856107049190612640565b6040518363ffffffff1660e01b815260040161072192919061243c565b600060405180830381600087803b15801561073b57600080fd5b505af115801561074f573d6000803e3d6000fd5b50505050600160009054906101000a900473ffffffffffffffffffffffffffffffffffffffff1673ffffffffffffffffffffffffffffffffffffffff1663f3963cba886040518263ffffffff1660e01b81526004016107ae9190612397565b600060405180830381600087803b1580156107c857600080fd5b505af11580156107dc573d6000803e3d6000fd5b50505050600160009054906101000a900473ffffffffffffffffffffffffffffffffffffffff1673ffffffffffffffffffffffffffffffffffffffff166345df777988886040518363ffffffff1660e01b815260040161083d92919061243c565b600060405180830381600087803b15801561085757600080fd5b505af115801561086b573d6000803e3d6000fd5b5050505050505050505050565b610880611928565b73ffffffffffffffffffffffffffffffffffffffff1661089e610338565b73ffffffffffffffffffffffffffffffffffffffff16146108f4576040517f08c379a00000000000000000000000000000000000000000000000000000000081526004016108eb90612515565b60405180910390fd5b600073ffffffffffffffffffffffffffffffffffffffff168173ffffffffffffffffffffffffffffffffffffffff161415610964576040517f08c379a000000000000000000000000000000000000000000000000000000000815260040161095b906124f5565b60405180910390fd5b61096d81611930565b50565b600160009054906101000a900473ffffffffffffffffffffffffffffffffffffffff1673ffffffffffffffffffffffffffffffffffffffff16637a67e6cc868686600260009054906101000a900473ffffffffffffffffffffffffffffffffffffffff1673ffffffffffffffffffffffffffffffffffffffff1663b6ca45958b8a8a8a6040518563ffffffff1660e01b8152600401610a129493929190612465565b602060405180830381600087803b158015610a2c57600080fd5b505af1158015610a40573d6000803e3d6000fd5b505050506040513d601f19601f82011682018060405250810190610a649190611fc5565b6040518563ffffffff1660e01b8152600401610a8394939291906123b2565b600060405180830381600087803b158015610a9d57600080fd5b505af1158015610ab1573d6000803e3d6000fd5b505050505050505050565b610ac4611928565b73ffffffffffffffffffffffffffffffffffffffff16610ae2610338565b73ffffffffffffffffffffffffffffffffffffffff1614610b38576040517f08c379a0000000000000000000000000000000000000000000000000000000008152600401610b2f90612515565b60405180910390fd5b600160009054906101000a900473ffffffffffffffffffffffffffffffffffffffff1673ffffffffffffffffffffffffffffffffffffffff1663f3963cba826040518263ffffffff1660e01b8152600401610b939190612397565b600060405180830381600087803b158015610bad57600080fd5b505af1158015610bc1573d6000803e3d6000fd5b5050505050565b606060008060005b600160009054906101000a900473ffffffffffffffffffffffffffffffffffffffff1673ffffffffffffffffffffffffffffffffffffffff1663c23a179f886040518263ffffffff1660e01b8152600401610c2b9190612397565b60206040518083038186803b158015610c4357600080fd5b505afa158015610c57573d6000803e3d6000fd5b505050506040513d601f19601f82011682018060405250810190610c7b9190611fc5565b8160ff161015610f33576000806000600160009054906101000a900473ffffffffffffffffffffffffffffffffffffffff1673ffffffffffffffffffffffffffffffffffffffff1663fcf7ff2a8b866040518363ffffffff1660e01b8152600401610ce79291906124aa565b60006040518083038186803b158015610cff57600080fd5b505afa158015610d13573d6000803e3d6000fd5b505050506040513d6000823e3d601f19601f82011682018060405250810190610d3c9190611f2e565b94505093509350506000600260009054906101000a900473ffffffffffffffffffffffffffffffffffffffff1673ffffffffffffffffffffffffffffffffffffffff16637acc0b20836040518263ffffffff1660e01b8152600401610da19190612535565b60a06040518083038186803b158015610db957600080fd5b505afa158015610dcd573d6000803e3d6000fd5b505050506040513d601f19601f82011682018060405250810190610df19190611e26565b5050925050506000600260009054906101000a900473ffffffffffffffffffffffffffffffffffffffff1673ffffffffffffffffffffffffffffffffffffffff16638a72ea6a836040518263ffffffff1660e01b8152600401610e549190612535565b60006040518083038186803b158015610e6c57600080fd5b505afa158015610e80573d6000803e3d6000fd5b505050506040513d6000823e3d601f19601f82011682018060405250810190610ea99190611d3c565b5050509150508a8110158015610ebf5750898111155b15610ed3578780610ecf90612764565b9850505b8a8510158015610ee35750898511155b15610ef7578780610ef390612764565b9850505b8a8410158015610f075750898411155b15610f1b578780610f1790612764565b9850505b50505050508080610f2b906127ad565b915050610bd0565b5060008267ffffffffffffffff811115610f5057610f4f612835565b5b604051908082528060200260200182016040528015610f8957816020015b610f766119f4565b815260200190600190039081610f6e5790505b50905060005b600160009054906101000a900473ffffffffffffffffffffffffffffffffffffffff1673ffffffffffffffffffffffffffffffffffffffff1663c23a179f896040518263ffffffff1660e01b8152600401610fea9190612397565b60206040518083038186803b15801561100257600080fd5b505afa158015611016573d6000803e3d6000fd5b505050506040513d601f19601f8201168201806040525081019061103a9190611fc5565b81101561191a576000806000600160009054906101000a900473ffffffffffffffffffffffffffffffffffffffff1673ffffffffffffffffffffffffffffffffffffffff1663fcf7ff2a8c866040518363ffffffff1660e01b81526004016110a392919061243c565b60006040518083038186803b1580156110bb57600080fd5b505afa1580156110cf573d6000803e3d6000fd5b505050506040513d6000823e3d601f19601f820116820180604052508101906110f89190611f2e565b9450509350935050600080600260009054906101000a900473ffffffffffffffffffffffffffffffffffffffff1673ffffffffffffffffffffffffffffffffffffffff16637acc0b20846040518263ffffffff1660e01b815260040161115e9190612535565b60a06040518083038186803b15801561117657600080fd5b505afa15801561118a573d6000803e3d6000fd5b505050506040513d601f19601f820116820180604052508101906111ae9190611e26565b509350935050506000600260009054906101000a900473ffffffffffffffffffffffffffffffffffffffff1673ffffffffffffffffffffffffffffffffffffffff1663013cf08b836040518263ffffffff1660e01b81526004016112129190612535565b60006040518083038186803b15801561122a57600080fd5b505afa15801561123e573d6000803e3d6000fd5b505050506040513d6000823e3d601f19601f82011682018060405250810190611267919061201f565b509450505050506000600260009054906101000a900473ffffffffffffffffffffffffffffffffffffffff1673ffffffffffffffffffffffffffffffffffffffff16638a72ea6a856040518263ffffffff1660e01b81526004016112cb9190612535565b60006040518083038186803b1580156112e357600080fd5b505afa1580156112f7573d6000803e3d6000fd5b505050506040513d6000823e3d601f19601f820116820180604052508101906113209190611d3c565b5050509150508d811015801561133657508c8111155b15611726576040518060400160405280600781526020017f4f666665723a2000000000000000000000000000000000000000000000000000815250898b8151811061138457611383612806565b5b6020026020010151600001819052506000600260009054906101000a900473ffffffffffffffffffffffffffffffffffffffff1673ffffffffffffffffffffffffffffffffffffffff1663f8730a07866040518263ffffffff1660e01b81526004016113f09190612535565b60206040518083038186803b15801561140857600080fd5b505afa15801561141c573d6000803e3d6000fd5b505050506040513d601f19601f820116820180604052508101906114409190611fc5565b905060005b81811015611699576000600260009054906101000a900473ffffffffffffffffffffffffffffffffffffffff1673ffffffffffffffffffffffffffffffffffffffff1663013cf08b600260009054906101000a900473ffffffffffffffffffffffffffffffffffffffff1673ffffffffffffffffffffffffffffffffffffffff16637c8dd0d68a866040518363ffffffff1660e01b81526004016114ea929190612550565b60206040518083038186803b15801561150257600080fd5b505afa158015611516573d6000803e3d6000fd5b505050506040513d601f19601f8201168201806040525081019061153a9190611fc5565b6040518263ffffffff1660e01b81526004016115569190612535565b60006040518083038186803b15801561156e57600080fd5b505afa158015611582573d6000803e3d6000fd5b505050506040513d6000823e3d601f19601f820116820180604052508101906115ab919061201f565b509450505050506000821415611622578b8d815181106115ce576115cd612806565b5b602002602001015160000151816040516020016115ec929190612322565b6040516020818303038152906040528c8e8151811061160e5761160d612806565b5b602002602001015160000181905250611685565b8b8d8151811061163557611634612806565b5b60200260200101516000015181604051602001611653929190612346565b6040516020818303038152906040528c8e8151811061167557611674612806565b5b6020026020010151600001819052505b50808061169190612764565b915050611445565b50818a8c815181106116ae576116ad612806565b5b602002602001015160200181815250506040518060400160405280600581526020017f4f666665720000000000000000000000000000000000000000000000000000008152508a8c8151811061170757611706612806565b5b6020026020010151604001819052508a8061172190612764565b9b5050505b8d871015801561173657508c8711155b15611808578160405160200161174c9190612375565b604051602081830303815290604052898b8151811061176e5761176d612806565b5b60200260200101516000018190525086898b8151811061179157611790612806565b5b602002602001015160200181815250506040518060400160405280600881526020017f4163636570746564000000000000000000000000000000000000000000000000815250898b815181106117ea576117e9612806565b5b602002602001015160400181905250898061180490612764565b9a50505b8d861015801561181857508c8611155b15611900576040518060400160405280600581526020017f546f707570000000000000000000000000000000000000000000000000000000815250898b8151811061186657611865612806565b5b60200260200101516000018190525085898b8151811061188957611888612806565b5b602002602001015160200181815250506040518060400160405280600681526020017f436c6f7365640000000000000000000000000000000000000000000000000000815250898b815181106118e2576118e1612806565b5b60200260200101516040018190525089806118fc90612764565b9a50505b50505050505050808061191290612764565b915050610f8f565b508093505050509392505050565b600033905090565b60008060009054906101000a900473ffffffffffffffffffffffffffffffffffffffff169050816000806101000a81548173ffffffffffffffffffffffffffffffffffffffff021916908373ffffffffffffffffffffffffffffffffffffffff1602179055508173ffffffffffffffffffffffffffffffffffffffff168173ffffffffffffffffffffffffffffffffffffffff167f8be0079c531659141344cd1fd0a4f28419497f9722a3daafe3b4186f6b6457e060405160405180910390a35050565b60405180606001604052806060815260200160008152602001606081525090565b6000611a28611a238461259e565b612579565b905082815260208101848484011115611a4457611a43612869565b5b611a4f8482856126f1565b509392505050565b6000611a6a611a658461259e565b612579565b905082815260208101848484011115611a8657611a85612869565b5b611a91848285612700565b509392505050565b600081359050611aa881612953565b92915050565b600081519050611abd81612953565b92915050565b600081519050611ad28161296a565b92915050565b600081519050611ae78161297a565b92915050565b600081519050611afc8161298a565b92915050565b600081519050611b118161299a565b92915050565b600081519050611b26816129aa565b92915050565b600081519050611b3b816129ba565b92915050565b600082601f830112611b5657611b55612864565b5b8135611b66848260208601611a15565b91505092915050565b600082601f830112611b8457611b83612864565b5b8151611b94848260208601611a57565b91505092915050565b600081359050611bac816129ca565b92915050565b600081519050611bc1816129ca565b92915050565b600081519050611bd6816129e1565b92915050565b600060208284031215611bf257611bf1612873565b5b6000611c0084828501611a99565b91505092915050565b60008060408385031215611c2057611c1f612873565b5b6000611c2e85828601611a99565b925050602083013567ffffffffffffffff811115611c4f57611c4e61286e565b5b611c5b85828601611b41565b9150509250929050565b600080600080600060a08688031215611c8157611c80612873565b5b6000611c8f88828901611a99565b955050602086013567ffffffffffffffff811115611cb057611caf61286e565b5b611cbc88828901611b41565b9450506040611ccd88828901611b9d565b9350506060611cde88828901611b9d565b9250506080611cef88828901611b9d565b9150509295509295909350565b60008060408385031215611d1357611d12612873565b5b6000611d2185828601611a99565b9250506020611d3285828601611b9d565b9150509250929050565b600080600080600060a08688031215611d5857611d57612873565b5b6000611d6688828901611aae565b9550506020611d7788828901611bb2565b9450506040611d8888828901611ad8565b9350506060611d9988828901611b02565b925050608086015167ffffffffffffffff811115611dba57611db961286e565b5b611dc688828901611b6f565b9150509295509295909350565b600080600060608486031215611dec57611deb612873565b5b6000611dfa86828701611a99565b9350506020611e0b86828701611b9d565b9250506040611e1c86828701611b9d565b9150509250925092565b600080600080600060a08688031215611e4257611e41612873565b5b6000611e5088828901611aae565b9550506020611e6188828901611bb2565b9450506040611e7288828901611bb2565b9350506060611e8388828901611bb2565b9250506080611e9488828901611b17565b9150509295509295909350565b60008060008060008060c08789031215611ebe57611ebd612873565b5b6000611ecc89828a01611ac3565b9650506020611edd89828a01611bc7565b9550506040611eee89828a01611bb2565b9450506060611eff89828a01611bb2565b9350506080611f1089828a01611bb2565b92505060a0611f2189828a01611bb2565b9150509295509295509295565b600080600080600060a08688031215611f4a57611f49612873565b5b600086015167ffffffffffffffff811115611f6857611f6761286e565b5b611f7488828901611b6f565b9550506020611f8588828901611bb2565b9450506040611f9688828901611bb2565b9350506060611fa788828901611aed565b9250506080611fb888828901611bb2565b9150509295509295909350565b600060208284031215611fdb57611fda612873565b5b6000611fe984828501611bb2565b91505092915050565b60006020828403121561200857612007612873565b5b600061201684828501611bc7565b91505092915050565b60008060008060008060c0878903121561203c5761203b612873565b5b600061204a89828a01611bc7565b965050602061205b89828a01611bb2565b955050604061206c89828a01611bb2565b945050606061207d89828a01611bb2565b935050608087015167ffffffffffffffff81111561209e5761209d61286e565b5b6120aa89828a01611b6f565b92505060a06120bb89828a01611b2c565b9150509295509295509295565b60006120d4838361228f565b905092915050565b6120e581612696565b82525050565b60006120f6826125df565b6121008185612602565b935083602082028501612112856125cf565b8060005b8581101561214e578484038952815161212f85826120c8565b945061213a836125f5565b925060208a01995050600181019050612116565b50829750879550505050505092915050565b600061216b826125ea565b6121758185612613565b9350612185818560208601612700565b61218e81612878565b840191505092915050565b60006121a4826125ea565b6121ae8185612624565b93506121be818560208601612700565b6121c781612878565b840191505092915050565b60006121dd826125ea565b6121e78185612635565b93506121f7818560208601612700565b80840191505092915050565b6000612210602683612624565b915061221b82612889565b604082019050919050565b6000612233600a83612635565b915061223e826128d8565b600a82019050919050565b6000612256602083612624565b915061226182612901565b602082019050919050565b6000612279600383612635565b91506122848261292a565b600382019050919050565b600060608301600083015184820360008601526122ac8282612160565b91505060208301516122c160208601826122e6565b50604083015184820360408601526122d98282612160565b9150508091505092915050565b6122ef816126c8565b82525050565b6122fe816126c8565b82525050565b61230d816126df565b82525050565b61231c816126d2565b82525050565b600061232e82856121d2565b915061233a82846121d2565b91508190509392505050565b600061235282856121d2565b915061235d8261226c565b915061236982846121d2565b91508190509392505050565b600061238082612226565b915061238c82846121d2565b915081905092915050565b60006020820190506123ac60008301846120dc565b92915050565b60006080820190506123c760008301876120dc565b81810360208301526123d98186612199565b90506123e860408301856122f5565b6123f560608301846122f5565b95945050505050565b600060608201905061241360008301866120dc565b81810360208301526124258185612199565b90506124346040830184612313565b949350505050565b600060408201905061245160008301856120dc565b61245e60208301846122f5565b9392505050565b600060808201905061247a60008301876120dc565b61248760208301866122f5565b61249460408301856122f5565b6124a160608301846122f5565b95945050505050565b60006040820190506124bf60008301856120dc565b6124cc6020830184612304565b9392505050565b600060208201905081810360008301526124ed81846120eb565b905092915050565b6000602082019050818103600083015261250e81612203565b9050919050565b6000602082019050818103600083015261252e81612249565b9050919050565b600060208201905061254a60008301846122f5565b92915050565b600060408201905061256560008301856122f5565b61257260208301846122f5565b9392505050565b6000612583612594565b905061258f8282612733565b919050565b6000604051905090565b600067ffffffffffffffff8211156125b9576125b8612835565b5b6125c282612878565b9050602081019050919050565b6000819050602082019050919050565b600081519050919050565b600081519050919050565b6000602082019050919050565b600082825260208201905092915050565b600082825260208201905092915050565b600082825260208201905092915050565b600081905092915050565b600061264b826126c8565b9150612656836126c8565b9250827fffffffffffffffffffffffffffffffffffffffffffffffffffffffffffffffff0382111561268b5761268a6127d7565b5b828201905092915050565b60006126a1826126a8565b9050919050565b600073ffffffffffffffffffffffffffffffffffffffff82169050919050565b6000819050919050565b600060ff82169050919050565b60006126ea826126d2565b9050919050565b82818337600083830152505050565b60005b8381101561271e578082015181840152602081019050612703565b8381111561272d576000848401525b50505050565b61273c82612878565b810181811067ffffffffffffffff8211171561275b5761275a612835565b5b80604052505050565b600061276f826126c8565b91507fffffffffffffffffffffffffffffffffffffffffffffffffffffffffffffffff8214156127a2576127a16127d7565b5b600182019050919050565b60006127b8826126d2565b915060ff8214156127cc576127cb6127d7565b5b600182019050919050565b7f4e487b7100000000000000000000000000000000000000000000000000000000600052601160045260246000fd5b7f4e487b7100000000000000000000000000000000000000000000000000000000600052603260045260246000fd5b7f4e487b7100000000000000000000000000000000000000000000000000000000600052604160045260246000fd5b600080fd5b600080fd5b600080fd5b600080fd5b6000601f19601f8301169050919050565b7f4f776e61626c653a206e6577206f776e657220697320746865207a65726f206160008201527f6464726573730000000000000000000000000000000000000000000000000000602082015250565b7f41636365707465643a2000000000000000000000000000000000000000000000600082015250565b7f4f776e61626c653a2063616c6c6572206973206e6f7420746865206f776e6572600082015250565b7f202f200000000000000000000000000000000000000000000000000000000000600082015250565b61295c81612696565b811461296757600080fd5b50565b6002811061297757600080fd5b50565b6005811061298757600080fd5b50565b6002811061299757600080fd5b50565b600281106129a757600080fd5b50565b600281106129b757600080fd5b50565b600281106129c757600080fd5b50565b6129d3816126c8565b81146129de57600080fd5b50565b6129ea816126d2565b81146129f557600080fd5b5056fea2646970667358221220a78884361585a460e85140b4cabf5949cda23644577993aa9c01050db0e0882b64736f6c63430008060033",
  "immutableReferences": {},
  "source": "// SPDX-License-Identifier: MIT\npragma solidity ^0.8.6;\n\nimport \"./Billing.sol\";\nimport \"./Offering.sol\";\nimport \"@openzeppelin/contracts/access/Ownable.sol\";\n\n/**\n * @title This Smart Contract is the entry point of Timelapse.\n * @notice Communicate with API(server/watcher) part and dApp\n * @author Keeymon, DavidRochus\n */\ncontract Timelapse is Ownable {\n\n    /**\n      * @dev Customer Billing Activity\n      */\n    Billing billing;\n\n    /**\n      * @dev Customer Offering Activity\n      */\n    Offering offering;\n\n\n\n    /**\n     * @dev Customer Activity\n     */\n    struct CustomerActivity {\n        string log;\n        uint256 timestamp;\n        string status;\n    }\n\n    /**\n     * @dev Smart Contract constructor\n     */\n    constructor(address _billingAddress, address _offeringAddress) {\n        billing = Billing(_billingAddress);\n        offering = Offering(_offeringAddress);\n    }\n\n    /**\n      * @notice Increase scoring information of a customer\n      * @param _phoneHash The address that identifies to the customer\n      * @dev This function is directly called when API receives a topUp for a customer (identified with `_phoneHash`) with a target other than Timelapse\n      */\n    function addToScore(address _phoneHash) public onlyOwner {\n        billing.addToScore(_phoneHash);\n    }\n\n    /**\n      * @notice Accept the offer\n      * @param _phoneHash The address that identifies to the customer\n      * @param _ref Reference of the telecom provider\n      * @param _acceptanceTimestamp Timestamp of the acceptance\n      * @param _idOffer ID of the offer\n      * @param _idProposal ID of the proposal\n      * @dev Accept the offer `_idOffer` (By choosing proposal `_idProposal`) of a customer (identified with `_phoneHash`) with reference `_ref` at timestamp `_acceptanceTimestamp`\n      */\n    //function acceptance(address _phoneHash, string memory _ref, uint _acceptanceTimestamp, uint256 _idOffer, uint256 _idProposal) public activeCustomer(_phoneHash) {\n    function acceptance(address _phoneHash, string memory _ref, uint _acceptanceTimestamp, uint256 _idOffer, uint256 _idProposal) public {\n        billing.acceptanceBilling(_phoneHash, _ref, _acceptanceTimestamp, offering.createProduct(_phoneHash, _acceptanceTimestamp, _idOffer, _idProposal));\n    }\n\n     /**\n      * @notice TopUp the last product of a customer\n      * @param _phoneHash The address that identifies to the customer\n      * @param _paidTimestamp Timestamp of the acceptance\n      * @dev TopUp the last product of a customer (identified with `_phoneHash`) at timestamp `_paidTimestamp`\n      */\n    //function topUp(address _phoneHash, uint _paidTimestamp) public onlyOwner activeCustomer(_phoneHash) {\n    function topUp(address _phoneHash, uint _paidTimestamp) public onlyOwner {\n        (,,,,,uint256 lastAcceptanceID) = billing.customers(_phoneHash);\n        (,,,,uint256 idProduct) = billing.histories(_phoneHash, lastAcceptanceID);\n        (,,,uint256 idProposal,) = offering.products(idProduct);\n        (,uint256 capital,uint256 interest,,,) = offering.proposals(idProposal);\n        billing.addToCustomerAmount(_phoneHash, capital + interest);\n\n        billing.addToScore(_phoneHash);\n        billing.topUpBilling(_phoneHash, _paidTimestamp);\n    }\n\n    /**\n      * @notice Manage the \"low balances\" received and generate an offer\n      * @param _phoneHash The address that identifies to the customer\n      * @param _ref Reference of the telecom provider\n      * @dev Manage lowBalance (with reference `_ref`) of a customer (identified with `_phoneHash`)\n      */\n    function lowBalance(address _phoneHash, string memory _ref) public {\n        offering.lowBalanceOffering(_phoneHash, _ref, billing.getScore(_phoneHash));\n    }\n\n    /**\n      * @notice Get customer activities log\n      * @param _phoneHash The address that identifies to the customer\n      * @param _startTimestamp Start of the search timeframe\n      * @param _endTimestamp End of the search timeframe\n      * @return Score The computed customer score \n      * @dev Get activities log of a customer (identified with `_phoneHash`)\n      */\n    function getCustomerActivitiesLog(address _phoneHash, uint256 _startTimestamp, uint256 _endTimestamp) public view returns(CustomerActivity[] memory) {\n         uint256 customerActivitiesSize = 0;\n         uint256 customerActivitiesIndex = 0;\n\n        for (uint8 i = 0; i < billing.getHistorySize(_phoneHash); i++) {\n            (,uint256 acceptanceTimestamp, uint256 paidTimestamp,,uint256 idProduct) = billing.histories(_phoneHash, i);\n            (,,uint256 idOffer,,) = offering.products(idProduct);\n            (,uint timestamp,,,) = offering.offers(idOffer);\n            if(timestamp >= _startTimestamp && timestamp <= _endTimestamp) {\n                customerActivitiesSize++;\n            }\n            if(acceptanceTimestamp >= _startTimestamp && acceptanceTimestamp <= _endTimestamp) {\n                customerActivitiesSize++;\n            }\n            if(paidTimestamp >= _startTimestamp && paidTimestamp <= _endTimestamp) {\n                customerActivitiesSize++;\n            }\n        }\n        CustomerActivity[] memory customerActivities = new CustomerActivity[](customerActivitiesSize);\n        for (uint256 i = 0; i < billing.getHistorySize(_phoneHash); i++) {\n            (,uint256 acceptanceTimestamp, uint256 paidTimestamp,,uint256 idProduct) = billing.histories(_phoneHash, i);\n            (,,uint256 idOffer,uint256 idProposal,) = offering.products(idProduct);\n            (,,,,string memory descriptionProposal,) = offering.proposals(idProposal);\n            (,uint timestamp,,,) = offering.offers(idOffer);\n            if(timestamp >= _startTimestamp && timestamp <= _endTimestamp) {\n                customerActivities[customerActivitiesIndex].log = \"Offer: \";\n                uint256 numberProposal = offering.getSizeProposalOffer(idOffer);\n                for (uint256 j = 0; j < numberProposal; j++) {\n                    (,,,,string memory description,) = offering.proposals(offering.getIndexProposalOffer(idOffer, j));\n                    if(j == 0) { \n                        customerActivities[customerActivitiesIndex].log = string(abi.encodePacked(customerActivities[customerActivitiesIndex].log, description));\n                    } else {\n                        customerActivities[customerActivitiesIndex].log = string(abi.encodePacked(customerActivities[customerActivitiesIndex].log, \" / \", description));\n                    }\n                }\n\n                customerActivities[customerActivitiesIndex].timestamp = timestamp;\n                customerActivities[customerActivitiesIndex].status = \"Offer\";\n                customerActivitiesIndex++;\n            }\n\n            if(acceptanceTimestamp >= _startTimestamp && acceptanceTimestamp <= _endTimestamp) {\n                customerActivities[customerActivitiesIndex].log = string(abi.encodePacked(\"Accepted: \", descriptionProposal));\n                customerActivities[customerActivitiesIndex].timestamp = acceptanceTimestamp;\n                customerActivities[customerActivitiesIndex].status = \"Accepted\";\n                customerActivitiesIndex++;\n            }\n\n            if(paidTimestamp >= _startTimestamp && paidTimestamp <= _endTimestamp) {\n                customerActivities[customerActivitiesIndex].log = \"Topup\";\n                customerActivities[customerActivitiesIndex].timestamp = paidTimestamp;\n                customerActivities[customerActivitiesIndex].status = \"Closed\";\n                customerActivitiesIndex++;\n            }\n        }\n        return customerActivities;\n    }\n}",
  "sourcePath": "/home/keymon/work/projet-pro/dApp/timelapse/contracts/Timelapse.sol",
  "compiler": {
    "name": "solc",
    "version": "0.8.6+commit.11564f7e.Emscripten.clang"
  },
  "schemaVersion": "3.4.1",
  "updatedAt": "2021-07-20T18:28:21.279Z",
  "devdoc": {
    "author": "Keeymon, DavidRochus",
    "kind": "dev",
    "methods": {
      "acceptance(address,string,uint256,uint256,uint256)": {
        "details": "Accept the offer `_idOffer` (By choosing proposal `_idProposal`) of a customer (identified with `_phoneHash`) with reference `_ref` at timestamp `_acceptanceTimestamp`",
        "params": {
          "_acceptanceTimestamp": "Timestamp of the acceptance",
          "_idOffer": "ID of the offer",
          "_idProposal": "ID of the proposal",
          "_phoneHash": "The address that identifies to the customer",
          "_ref": "Reference of the telecom provider"
        }
      },
      "addToScore(address)": {
        "details": "This function is directly called when API receives a topUp for a customer (identified with `_phoneHash`) with a target other than Timelapse",
        "params": {
          "_phoneHash": "The address that identifies to the customer"
        }
      },
      "constructor": {
        "details": "Smart Contract constructor"
      },
      "getCustomerActivitiesLog(address,uint256,uint256)": {
        "details": "Get activities log of a customer (identified with `_phoneHash`)",
        "params": {
          "_endTimestamp": "End of the search timeframe",
          "_phoneHash": "The address that identifies to the customer",
          "_startTimestamp": "Start of the search timeframe"
        },
        "returns": {
          "_0": "Score The computed customer score "
        }
      },
      "lowBalance(address,string)": {
        "details": "Manage lowBalance (with reference `_ref`) of a customer (identified with `_phoneHash`)",
        "params": {
          "_phoneHash": "The address that identifies to the customer",
          "_ref": "Reference of the telecom provider"
        }
      },
      "owner()": {
        "details": "Returns the address of the current owner."
      },
      "renounceOwnership()": {
        "details": "Leaves the contract without owner. It will not be possible to call `onlyOwner` functions anymore. Can only be called by the current owner. NOTE: Renouncing ownership will leave the contract without an owner, thereby removing any functionality that is only available to the owner."
      },
      "topUp(address,uint256)": {
        "details": "TopUp the last product of a customer (identified with `_phoneHash`) at timestamp `_paidTimestamp`",
        "params": {
          "_paidTimestamp": "Timestamp of the acceptance",
          "_phoneHash": "The address that identifies to the customer"
        }
      },
      "transferOwnership(address)": {
        "details": "Transfers ownership of the contract to a new account (`newOwner`). Can only be called by the current owner."
      }
    },
    "stateVariables": {
      "billing": {
        "details": "Customer Billing Activity"
      },
      "offering": {
        "details": "Customer Offering Activity"
      }
    },
    "title": "This Smart Contract is the entry point of Timelapse.",
    "version": 1
  },
  "userdoc": {
    "kind": "user",
    "methods": {
      "acceptance(address,string,uint256,uint256,uint256)": {
        "notice": "Accept the offer"
      },
      "addToScore(address)": {
        "notice": "Increase scoring information of a customer"
      },
      "getCustomerActivitiesLog(address,uint256,uint256)": {
        "notice": "Get customer activities log"
      },
      "lowBalance(address,string)": {
        "notice": "Manage the \"low balances\" received and generate an offer"
      },
      "topUp(address,uint256)": {
        "notice": "TopUp the last product of a customer"
      }
    },
    "notice": "Communicate with API(server/watcher) part and dApp",
    "version": 1
  }
}