{
  "contractName": "Timelapse",
  "abi": [
    {
      "inputs": [
        {
          "internalType": "address",
          "name": "_billingAddress",
          "type": "address"
        },
        {
          "internalType": "address",
          "name": "_offeringAddress",
          "type": "address"
        }
      ],
      "stateMutability": "nonpayable",
      "type": "constructor"
    },
    {
      "anonymous": false,
      "inputs": [
        {
          "indexed": true,
          "internalType": "address",
          "name": "previousOwner",
          "type": "address"
        },
        {
          "indexed": true,
          "internalType": "address",
          "name": "newOwner",
          "type": "address"
        }
      ],
      "name": "OwnershipTransferred",
      "type": "event"
    },
    {
      "inputs": [],
      "name": "billing",
      "outputs": [
        {
          "internalType": "contract Billing",
          "name": "",
          "type": "address"
        }
      ],
      "stateMutability": "view",
      "type": "function",
      "constant": true
    },
    {
      "inputs": [],
      "name": "owner",
      "outputs": [
        {
          "internalType": "address",
          "name": "",
          "type": "address"
        }
      ],
      "stateMutability": "view",
      "type": "function",
      "constant": true
    },
    {
      "inputs": [],
      "name": "renounceOwnership",
      "outputs": [],
      "stateMutability": "nonpayable",
      "type": "function"
    },
    {
      "inputs": [
        {
          "internalType": "address",
          "name": "newOwner",
          "type": "address"
        }
      ],
      "name": "transferOwnership",
      "outputs": [],
      "stateMutability": "nonpayable",
      "type": "function"
    },
    {
      "inputs": [
        {
          "internalType": "uint8",
          "name": "_minScoring",
          "type": "uint8"
        },
        {
          "internalType": "uint256",
          "name": "_capital",
          "type": "uint256"
        },
        {
          "internalType": "uint256",
          "name": "_interest",
          "type": "uint256"
        },
        {
          "internalType": "string",
          "name": "_description",
          "type": "string"
        }
      ],
      "name": "addProposal",
      "outputs": [],
      "stateMutability": "nonpayable",
      "type": "function"
    },
    {
      "inputs": [
        {
          "internalType": "uint256",
          "name": "_id",
          "type": "uint256"
        }
      ],
      "name": "closedProposal",
      "outputs": [],
      "stateMutability": "nonpayable",
      "type": "function"
    },
    {
      "inputs": [
        {
          "internalType": "address",
          "name": "_phoneHash",
          "type": "address"
        }
      ],
      "name": "addToScore",
      "outputs": [],
      "stateMutability": "nonpayable",
      "type": "function"
    },
    {
      "inputs": [
        {
          "internalType": "address",
          "name": "_phoneHash",
          "type": "address"
        },
        {
          "internalType": "string",
          "name": "_ref",
          "type": "string"
        },
        {
          "internalType": "uint256",
          "name": "_acceptanceTimestamp",
          "type": "uint256"
        },
        {
          "internalType": "uint256",
          "name": "_idOffer",
          "type": "uint256"
        },
        {
          "internalType": "uint256",
          "name": "_idProposal",
          "type": "uint256"
        }
      ],
      "name": "acceptance",
      "outputs": [],
      "stateMutability": "nonpayable",
      "type": "function"
    },
    {
      "inputs": [
        {
          "internalType": "address",
          "name": "_phoneHash",
          "type": "address"
        },
        {
          "internalType": "uint256",
          "name": "_paidTimestamp",
          "type": "uint256"
        }
      ],
      "name": "topUp",
      "outputs": [],
      "stateMutability": "nonpayable",
      "type": "function"
    },
    {
      "inputs": [
        {
          "internalType": "address",
          "name": "_phoneHash",
          "type": "address"
        },
        {
          "internalType": "string",
          "name": "_ref",
          "type": "string"
        }
      ],
      "name": "lowBalance",
      "outputs": [],
      "stateMutability": "nonpayable",
      "type": "function"
    },
    {
      "inputs": [
        {
          "internalType": "address",
          "name": "_phoneHash",
          "type": "address"
        },
        {
          "internalType": "uint256",
          "name": "_startTimestamp",
          "type": "uint256"
        },
        {
          "internalType": "uint256",
          "name": "_endTimestamp",
          "type": "uint256"
        }
      ],
      "name": "getCustomerActivitiesLog",
      "outputs": [
        {
          "components": [
            {
              "internalType": "string",
              "name": "log",
              "type": "string"
            },
            {
              "internalType": "uint256",
              "name": "timestamp",
              "type": "uint256"
            },
            {
              "internalType": "string",
              "name": "status",
              "type": "string"
            }
          ],
          "internalType": "struct Timelapse.CustomerActivity[]",
          "name": "",
          "type": "tuple[]"
        }
      ],
      "stateMutability": "view",
      "type": "function",
      "constant": true
    },
    {
      "inputs": [
        {
          "internalType": "uint256",
          "name": "_startTimestamp",
          "type": "uint256"
        },
        {
          "internalType": "uint256",
          "name": "_endTimestamp",
          "type": "uint256"
        }
      ],
      "name": "generateInvoicing",
      "outputs": [
        {
          "components": [
            {
              "internalType": "uint256",
              "name": "totalCapital",
              "type": "uint256"
            },
            {
              "internalType": "uint256",
              "name": "totalInterest",
              "type": "uint256"
            }
          ],
          "internalType": "struct Timelapse.Invoice[]",
          "name": "",
          "type": "tuple[]"
        }
      ],
      "stateMutability": "view",
      "type": "function",
      "constant": true
    },
    {
      "inputs": [
        {
          "internalType": "uint256",
          "name": "_startTimestamp",
          "type": "uint256"
        },
        {
          "internalType": "uint256",
          "name": "_endTimestamp",
          "type": "uint256"
        }
      ],
      "name": "generateReporting",
      "outputs": [
        {
          "components": [
            {
              "internalType": "uint256",
              "name": "offersCount",
              "type": "uint256"
            },
            {
              "internalType": "uint256",
              "name": "acceptedOffersCount",
              "type": "uint256"
            },
            {
              "internalType": "uint256",
              "name": "totalCapitalLoans",
              "type": "uint256"
            },
            {
              "internalType": "uint256",
              "name": "totalInterestLoans",
              "type": "uint256"
            },
            {
              "internalType": "uint256",
              "name": "closedTopupsCount",
              "type": "uint256"
            },
            {
              "internalType": "uint256",
              "name": "totalCapitalGain",
              "type": "uint256"
            },
            {
              "internalType": "uint256",
              "name": "totalInterestGain",
              "type": "uint256"
            },
            {
              "internalType": "uint256",
              "name": "acceptanceTimestamp",
              "type": "uint256"
            },
            {
              "internalType": "uint256",
              "name": "paidTimestamp",
              "type": "uint256"
            }
          ],
          "internalType": "struct Timelapse.Reporting[]",
          "name": "",
          "type": "tuple[]"
        }
      ],
      "stateMutability": "view",
      "type": "function",
      "constant": true
    }
  ],
  "bytecode": "0x60806040523480156200001157600080fd5b50604051620046c4380380620046c48339818101604052810190620000379190620001c4565b620000576200004b620000e160201b60201c565b620000e960201b60201c565b81600160006101000a81548173ffffffffffffffffffffffffffffffffffffffff021916908373ffffffffffffffffffffffffffffffffffffffff16021790555080600260006101000a81548173ffffffffffffffffffffffffffffffffffffffff021916908373ffffffffffffffffffffffffffffffffffffffff16021790555050506200025e565b600033905090565b60008060009054906101000a900473ffffffffffffffffffffffffffffffffffffffff169050816000806101000a81548173ffffffffffffffffffffffffffffffffffffffff021916908373ffffffffffffffffffffffffffffffffffffffff1602179055508173ffffffffffffffffffffffffffffffffffffffff168173ffffffffffffffffffffffffffffffffffffffff167f8be0079c531659141344cd1fd0a4f28419497f9722a3daafe3b4186f6b6457e060405160405180910390a35050565b600081519050620001be8162000244565b92915050565b60008060408385031215620001de57620001dd6200023f565b5b6000620001ee85828601620001ad565b92505060206200020185828601620001ad565b9150509250929050565b600062000218826200021f565b9050919050565b600073ffffffffffffffffffffffffffffffffffffffff82169050919050565b600080fd5b6200024f816200020b565b81146200025b57600080fd5b50565b614456806200026e6000396000f3fe608060405234801561001057600080fd5b50600436106100cf5760003560e01c8063bdcf208c1161008c578063f2fde38b11610066578063f2fde38b146101ea578063f324e9d114610206578063f3963cba14610222578063f6410c011461023e576100cf565b8063bdcf208c14610182578063d6f7ddf91461019e578063d75fa655146101ba576100cf565b80631ac8d444146100d4578063294a70e4146100f057806347466dc31461010e578063715018a61461012a5780638da5cb5b14610134578063a1f4274314610152575b600080fd5b6100ee60048036038101906100e991906131ec565b61026e565b005b6100f8610429565b6040516101059190613d8e565b60405180910390f35b61012860048036038101906101239190613548565b61044f565b005b61013261055b565b005b61013c6105e3565b6040516101499190613bec565b60405180910390f35b61016c600480360381019061016791906135a2565b61060c565b6040516101799190613d4a565b60405180910390f35b61019c6004803603810190610197919061360f565b610a3d565b005b6101b860048036038101906101b391906132df565b610b52565b005b6101d460048036038101906101cf91906135a2565b611060565b6040516101e19190613d6c565b60405180910390f35b61020460048036038101906101ff91906131bf565b61199f565b005b610220600480360381019061021b9190613248565b611a97565b005b61023c600480360381019061023791906131bf565b611be3565b005b610258600480360381019061025391906133b6565b611cef565b6040516102659190613d28565b60405180910390f35b610276612df0565b73ffffffffffffffffffffffffffffffffffffffff166102946105e3565b73ffffffffffffffffffffffffffffffffffffffff16146102ea576040517f08c379a00000000000000000000000000000000000000000000000000000000081526004016102e190613dc9565b60405180910390fd5b600260009054906101000a900473ffffffffffffffffffffffffffffffffffffffff1673ffffffffffffffffffffffffffffffffffffffff1663116c327b8383600160009054906101000a900473ffffffffffffffffffffffffffffffffffffffff1673ffffffffffffffffffffffffffffffffffffffff1663d47875d0876040518263ffffffff1660e01b81526004016103859190613bec565b60206040518083038186803b15801561039d57600080fd5b505afa1580156103b1573d6000803e3d6000fd5b505050506040513d601f19601f820116820180604052508101906103d591906135e2565b6040518463ffffffff1660e01b81526004016103f393929190613c53565b600060405180830381600087803b15801561040d57600080fd5b505af1158015610421573d6000803e3d6000fd5b505050505050565b600160009054906101000a900473ffffffffffffffffffffffffffffffffffffffff1681565b610457612df0565b73ffffffffffffffffffffffffffffffffffffffff166104756105e3565b73ffffffffffffffffffffffffffffffffffffffff16146104cb576040517f08c379a00000000000000000000000000000000000000000000000000000000081526004016104c290613dc9565b60405180910390fd5b600260009054906101000a900473ffffffffffffffffffffffffffffffffffffffff1673ffffffffffffffffffffffffffffffffffffffff166347466dc3826040518263ffffffff1660e01b81526004016105269190613de9565b600060405180830381600087803b15801561054057600080fd5b505af1158015610554573d6000803e3d6000fd5b5050505050565b610563612df0565b73ffffffffffffffffffffffffffffffffffffffff166105816105e3565b73ffffffffffffffffffffffffffffffffffffffff16146105d7576040517f08c379a00000000000000000000000000000000000000000000000000000000081526004016105ce90613dc9565b60405180910390fd5b6105e16000612df8565b565b60008060009054906101000a900473ffffffffffffffffffffffffffffffffffffffff16905090565b606060008060006001925060008367ffffffffffffffff81111561063357610632614258565b5b60405190808252806020026020018201604052801561066c57816020015b610659612ebc565b8152602001906001900390816106515790505b5090506000600160009054906101000a900473ffffffffffffffffffffffffffffffffffffffff1673ffffffffffffffffffffffffffffffffffffffff1663fcdc4eb76040518163ffffffff1660e01b815260040160206040518083038186803b1580156106d957600080fd5b505afa1580156106ed573d6000803e3d6000fd5b505050506040513d601f19601f820116820180604052508101906107119190613575565b90505b600081118015610722575082155b15610a2f576000806000600160009054906101000a900473ffffffffffffffffffffffffffffffffffffffff1673ffffffffffffffffffffffffffffffffffffffff166356564b7c6001866107779190614008565b6040518263ffffffff1660e01b81526004016107939190613de9565b60006040518083038186803b1580156107ab57600080fd5b505afa1580156107bf573d6000803e3d6000fd5b505050506040513d6000823e3d601f19601f820116820180604052508101906107e89190613484565b94509450945050508a8310156107fd57600195505b8a831015801561080d5750898311155b801561083c5750600180811115610827576108266141fa565b5b82600181111561083a576108396141fa565b5b145b15610a19576000600260009054906101000a900473ffffffffffffffffffffffffffffffffffffffff1673ffffffffffffffffffffffffffffffffffffffff16637acc0b20836040518263ffffffff1660e01b815260040161089e9190613de9565b60a06040518083038186803b1580156108b657600080fd5b505afa1580156108ca573d6000803e3d6000fd5b505050506040513d601f19601f820116820180604052508101906108ee9190613409565b509350505050600080600260009054906101000a900473ffffffffffffffffffffffffffffffffffffffff1673ffffffffffffffffffffffffffffffffffffffff1663013cf08b846040518263ffffffff1660e01b81526004016109529190613de9565b60006040518083038186803b15801561096a57600080fd5b505afa15801561097e573d6000803e3d6000fd5b505050506040513d6000823e3d601f19601f820116820180604052508101906109a79190613692565b505050925092505081888b815181106109c3576109c2614229565b5b60200260200101516000018181516109db9190613fb2565b9150818152505080888b815181106109f6576109f5614229565b5b6020026020010151602001818151610a0e9190613fb2565b915081815250505050505b5050508080610a27906140fd565b915050610714565b508094505050505092915050565b610a45612df0565b73ffffffffffffffffffffffffffffffffffffffff16610a636105e3565b73ffffffffffffffffffffffffffffffffffffffff1614610ab9576040517f08c379a0000000000000000000000000000000000000000000000000000000008152600401610ab090613dc9565b60405180910390fd5b600260009054906101000a900473ffffffffffffffffffffffffffffffffffffffff1673ffffffffffffffffffffffffffffffffffffffff1663bdcf208c858585856040518563ffffffff1660e01b8152600401610b1a9493929190613e2d565b600060405180830381600087803b158015610b3457600080fd5b505af1158015610b48573d6000803e3d6000fd5b5050505050505050565b610b5a612df0565b73ffffffffffffffffffffffffffffffffffffffff16610b786105e3565b73ffffffffffffffffffffffffffffffffffffffff1614610bce576040517f08c379a0000000000000000000000000000000000000000000000000000000008152600401610bc590613dc9565b60405180910390fd5b6000600160009054906101000a900473ffffffffffffffffffffffffffffffffffffffff1673ffffffffffffffffffffffffffffffffffffffff166356564b7c600160009054906101000a900473ffffffffffffffffffffffffffffffffffffffff1673ffffffffffffffffffffffffffffffffffffffff1663cb949e51866040518263ffffffff1660e01b8152600401610c699190613bec565b60c06040518083038186803b158015610c8157600080fd5b505afa158015610c95573d6000803e3d6000fd5b505050506040513d601f19601f82011682018060405250810190610cb9919061351b565b60a001516040518263ffffffff1660e01b8152600401610cd99190613de9565b60006040518083038186803b158015610cf157600080fd5b505afa158015610d05573d6000803e3d6000fd5b505050506040513d6000823e3d601f19601f82011682018060405250810190610d2e9190613484565b9450505050506000600260009054906101000a900473ffffffffffffffffffffffffffffffffffffffff1673ffffffffffffffffffffffffffffffffffffffff16637acc0b20836040518263ffffffff1660e01b8152600401610d919190613de9565b60a06040518083038186803b158015610da957600080fd5b505afa158015610dbd573d6000803e3d6000fd5b505050506040513d601f19601f82011682018060405250810190610de19190613409565b509350505050600080600260009054906101000a900473ffffffffffffffffffffffffffffffffffffffff1673ffffffffffffffffffffffffffffffffffffffff1663013cf08b846040518263ffffffff1660e01b8152600401610e459190613de9565b60006040518083038186803b158015610e5d57600080fd5b505afa158015610e71573d6000803e3d6000fd5b505050506040513d6000823e3d601f19601f82011682018060405250810190610e9a9190613692565b5050509250925050600160009054906101000a900473ffffffffffffffffffffffffffffffffffffffff1673ffffffffffffffffffffffffffffffffffffffff1663d8dd1827878385610eed9190613fb2565b6040518363ffffffff1660e01b8152600401610f0a929190613c91565b600060405180830381600087803b158015610f2457600080fd5b505af1158015610f38573d6000803e3d6000fd5b50505050600160009054906101000a900473ffffffffffffffffffffffffffffffffffffffff1673ffffffffffffffffffffffffffffffffffffffff1663f3963cba876040518263ffffffff1660e01b8152600401610f979190613bec565b600060405180830381600087803b158015610fb157600080fd5b505af1158015610fc5573d6000803e3d6000fd5b50505050600160009054906101000a900473ffffffffffffffffffffffffffffffffffffffff1673ffffffffffffffffffffffffffffffffffffffff166345df777987876040518363ffffffff1660e01b8152600401611026929190613c91565b600060405180830381600087803b15801561104057600080fd5b505af1158015611054573d6000803e3d6000fd5b50505050505050505050565b606060008060008060006001945060008567ffffffffffffffff81111561108a57611089614258565b5b6040519080825280602002602001820160405280156110c357816020015b6110b0612ed6565b8152602001906001900390816110a85790505b5090506000600260009054906101000a900473ffffffffffffffffffffffffffffffffffffffff1673ffffffffffffffffffffffffffffffffffffffff1663e0026ab36040518163ffffffff1660e01b815260040160206040518083038186803b15801561113057600080fd5b505afa158015611144573d6000803e3d6000fd5b505050506040513d601f19601f820116820180604052508101906111689190613575565b90505b600081118015611179575084155b1561131157600080600260009054906101000a900473ffffffffffffffffffffffffffffffffffffffff1673ffffffffffffffffffffffffffffffffffffffff16638a72ea6a6001856111cc9190614008565b6040518263ffffffff1660e01b81526004016111e89190613de9565b60006040518083038186803b15801561120057600080fd5b505afa158015611214573d6000803e3d6000fd5b505050506040513d6000823e3d601f19601f8201168201806040525081019061123d919061331f565b509350509250508b82101561125157600196505b8b821015801561126157508a8211155b156112fc57600184898151811061127b5761127a614229565b5b60200260200101516000018181516112939190613fb2565b915081815250506001808111156112ad576112ac6141fa565b5b8160018111156112c0576112bf6141fa565b5b14156112fb5760018489815181106112db576112da614229565b5b60200260200101516020018181516112f39190613fb2565b915081815250505b5b50508080611309906140fd565b91505061116b565b506000600160009054906101000a900473ffffffffffffffffffffffffffffffffffffffff1673ffffffffffffffffffffffffffffffffffffffff1663fcdc4eb76040518163ffffffff1660e01b815260040160206040518083038186803b15801561137c57600080fd5b505afa158015611390573d6000803e3d6000fd5b505050506040513d601f19601f820116820180604052508101906113b49190613575565b90505b6000811180156113ce57508315806113cd575082155b5b1561198f57600080600080600160009054906101000a900473ffffffffffffffffffffffffffffffffffffffff1673ffffffffffffffffffffffffffffffffffffffff166356564b7c6001876114249190614008565b6040518263ffffffff1660e01b81526004016114409190613de9565b60006040518083038186803b15801561145857600080fd5b505afa15801561146c573d6000803e3d6000fd5b505050506040513d6000823e3d601f19601f820116820180604052508101906114959190613484565b94509450945094505083868b815181106114b2576114b1614229565b5b602002602001015160e001818152505082868b815181106114d6576114d5614229565b5b60200260200101516101000181815250508d8410156114f85760019750611716565b8d841015801561150857508c8411155b8015611538575060006001811115611523576115226141fa565b5b826001811115611536576115356141fa565b5b145b15611715576000600260009054906101000a900473ffffffffffffffffffffffffffffffffffffffff1673ffffffffffffffffffffffffffffffffffffffff16637acc0b20836040518263ffffffff1660e01b815260040161159a9190613de9565b60a06040518083038186803b1580156115b257600080fd5b505afa1580156115c6573d6000803e3d6000fd5b505050506040513d601f19601f820116820180604052508101906115ea9190613409565b509350505050600080600260009054906101000a900473ffffffffffffffffffffffffffffffffffffffff1673ffffffffffffffffffffffffffffffffffffffff1663013cf08b846040518263ffffffff1660e01b815260040161164e9190613de9565b60006040518083038186803b15801561166657600080fd5b505afa15801561167a573d6000803e3d6000fd5b505050506040513d6000823e3d601f19601f820116820180604052508101906116a39190613692565b505050925092505081898e815181106116bf576116be614229565b5b60200260200101516040018181516116d79190613fb2565b9150818152505080898e815181106116f2576116f1614229565b5b602002602001015160600181815161170a9190613fb2565b915081815250505050505b5b8d8310156117275760019650611978565b8d831015801561173757508c8311155b80156117665750600180811115611751576117506141fa565b5b826001811115611764576117636141fa565b5b145b15611977576000600260009054906101000a900473ffffffffffffffffffffffffffffffffffffffff1673ffffffffffffffffffffffffffffffffffffffff16637acc0b20836040518263ffffffff1660e01b81526004016117c89190613de9565b60a06040518083038186803b1580156117e057600080fd5b505afa1580156117f4573d6000803e3d6000fd5b505050506040513d601f19601f820116820180604052508101906118189190613409565b509350505050600080600260009054906101000a900473ffffffffffffffffffffffffffffffffffffffff1673ffffffffffffffffffffffffffffffffffffffff1663013cf08b846040518263ffffffff1660e01b815260040161187c9190613de9565b60006040518083038186803b15801561189457600080fd5b505afa1580156118a8573d6000803e3d6000fd5b505050506040513d6000823e3d601f19601f820116820180604052508101906118d19190613692565b50505092509250506001898e815181106118ee576118ed614229565b5b60200260200101516080018181516119069190613fb2565b9150818152505081898e8151811061192157611920614229565b5b602002602001015160a0018181516119399190613fb2565b9150818152505080898e8151811061195457611953614229565b5b602002602001015160c00181815161196c9190613fb2565b915081815250505050505b5b505050508080611987906140fd565b9150506113b7565b5080965050505050505092915050565b6119a7612df0565b73ffffffffffffffffffffffffffffffffffffffff166119c56105e3565b73ffffffffffffffffffffffffffffffffffffffff1614611a1b576040517f08c379a0000000000000000000000000000000000000000000000000000000008152600401611a1290613dc9565b60405180910390fd5b600073ffffffffffffffffffffffffffffffffffffffff168173ffffffffffffffffffffffffffffffffffffffff161415611a8b576040517f08c379a0000000000000000000000000000000000000000000000000000000008152600401611a8290613da9565b60405180910390fd5b611a9481612df8565b50565b600160009054906101000a900473ffffffffffffffffffffffffffffffffffffffff1673ffffffffffffffffffffffffffffffffffffffff16637a67e6cc868686600260009054906101000a900473ffffffffffffffffffffffffffffffffffffffff1673ffffffffffffffffffffffffffffffffffffffff1663b6ca45958b8a8a8a6040518563ffffffff1660e01b8152600401611b399493929190613cba565b602060405180830381600087803b158015611b5357600080fd5b505af1158015611b67573d6000803e3d6000fd5b505050506040513d601f19601f82011682018060405250810190611b8b9190613575565b6040518563ffffffff1660e01b8152600401611baa9493929190613c07565b600060405180830381600087803b158015611bc457600080fd5b505af1158015611bd8573d6000803e3d6000fd5b505050505050505050565b611beb612df0565b73ffffffffffffffffffffffffffffffffffffffff16611c096105e3565b73ffffffffffffffffffffffffffffffffffffffff1614611c5f576040517f08c379a0000000000000000000000000000000000000000000000000000000008152600401611c5690613dc9565b60405180910390fd5b600160009054906101000a900473ffffffffffffffffffffffffffffffffffffffff1673ffffffffffffffffffffffffffffffffffffffff1663f3963cba826040518263ffffffff1660e01b8152600401611cba9190613bec565b600060405180830381600087803b158015611cd457600080fd5b505af1158015611ce8573d6000803e3d6000fd5b5050505050565b606060008060005b600260009054906101000a900473ffffffffffffffffffffffffffffffffffffffff1673ffffffffffffffffffffffffffffffffffffffff166380ec3727886040518263ffffffff1660e01b8152600401611d529190613bec565b60206040518083038186803b158015611d6a57600080fd5b505afa158015611d7e573d6000803e3d6000fd5b505050506040513d601f19601f82011682018060405250810190611da29190613575565b8160ff161015611f4e576000600260009054906101000a900473ffffffffffffffffffffffffffffffffffffffff1673ffffffffffffffffffffffffffffffffffffffff1663db7b1e1c89846040518363ffffffff1660e01b8152600401611e0b929190613cff565b60206040518083038186803b158015611e2357600080fd5b505afa158015611e37573d6000803e3d6000fd5b505050506040513d601f19601f82011682018060405250810190611e5b9190613575565b90506000600260009054906101000a900473ffffffffffffffffffffffffffffffffffffffff1673ffffffffffffffffffffffffffffffffffffffff16638a72ea6a836040518263ffffffff1660e01b8152600401611eba9190613de9565b60006040518083038186803b158015611ed257600080fd5b505afa158015611ee6573d6000803e3d6000fd5b505050506040513d6000823e3d601f19601f82011682018060405250810190611f0f919061331f565b505050915050878110158015611f255750868111155b15611f39578480611f3590614158565b9550505b50508080611f46906141a1565b915050611cf7565b5060005b600160009054906101000a900473ffffffffffffffffffffffffffffffffffffffff1673ffffffffffffffffffffffffffffffffffffffff1663c23a179f886040518263ffffffff1660e01b8152600401611fad9190613bec565b60206040518083038186803b158015611fc557600080fd5b505afa158015611fd9573d6000803e3d6000fd5b505050506040513d601f19601f82011682018060405250810190611ffd9190613575565b8160ff1610156121d0576000600160009054906101000a900473ffffffffffffffffffffffffffffffffffffffff1673ffffffffffffffffffffffffffffffffffffffff16639941556889846040518363ffffffff1660e01b8152600401612066929190613cff565b60206040518083038186803b15801561207e57600080fd5b505afa158015612092573d6000803e3d6000fd5b505050506040513d601f19601f820116820180604052508101906120b69190613575565b9050600080600160009054906101000a900473ffffffffffffffffffffffffffffffffffffffff1673ffffffffffffffffffffffffffffffffffffffff166356564b7c846040518263ffffffff1660e01b81526004016121169190613de9565b60006040518083038186803b15801561212e57600080fd5b505afa158015612142573d6000803e3d6000fd5b505050506040513d6000823e3d601f19601f8201168201806040525081019061216b9190613484565b505092509250508882101580156121825750878211155b1561219657858061219290614158565b9650505b8881101580156121a65750878111155b156121ba5785806121b690614158565b9650505b50505080806121c8906141a1565b915050611f52565b5060008267ffffffffffffffff8111156121ed576121ec614258565b5b60405190808252806020026020018201604052801561222657816020015b612213612f22565b81526020019060019003908161220b5790505b50905060005b600260009054906101000a900473ffffffffffffffffffffffffffffffffffffffff1673ffffffffffffffffffffffffffffffffffffffff166380ec3727896040518263ffffffff1660e01b81526004016122879190613bec565b60206040518083038186803b15801561229f57600080fd5b505afa1580156122b3573d6000803e3d6000fd5b505050506040513d601f19601f820116820180604052508101906122d79190613575565b8160ff16101561285f576000600260009054906101000a900473ffffffffffffffffffffffffffffffffffffffff1673ffffffffffffffffffffffffffffffffffffffff1663db7b1e1c8a846040518363ffffffff1660e01b8152600401612340929190613cff565b60206040518083038186803b15801561235857600080fd5b505afa15801561236c573d6000803e3d6000fd5b505050506040513d601f19601f820116820180604052508101906123909190613575565b90506000600260009054906101000a900473ffffffffffffffffffffffffffffffffffffffff1673ffffffffffffffffffffffffffffffffffffffff16638a72ea6a836040518263ffffffff1660e01b81526004016123ef9190613de9565b60006040518083038186803b15801561240757600080fd5b505afa15801561241b573d6000803e3d6000fd5b505050506040513d6000823e3d601f19601f82011682018060405250810190612444919061331f565b50505091505088811015801561245a5750878111155b1561284a576040518060400160405280600781526020017f4f666665723a20000000000000000000000000000000000000000000000000008152508486815181106124a8576124a7614229565b5b6020026020010151600001819052506000600260009054906101000a900473ffffffffffffffffffffffffffffffffffffffff1673ffffffffffffffffffffffffffffffffffffffff1663f8730a07846040518263ffffffff1660e01b81526004016125149190613de9565b60206040518083038186803b15801561252c57600080fd5b505afa158015612540573d6000803e3d6000fd5b505050506040513d601f19601f820116820180604052508101906125649190613575565b905060005b818110156127bd576000600260009054906101000a900473ffffffffffffffffffffffffffffffffffffffff1673ffffffffffffffffffffffffffffffffffffffff1663013cf08b600260009054906101000a900473ffffffffffffffffffffffffffffffffffffffff1673ffffffffffffffffffffffffffffffffffffffff16637c8dd0d688866040518363ffffffff1660e01b815260040161260e929190613e04565b60206040518083038186803b15801561262657600080fd5b505afa15801561263a573d6000803e3d6000fd5b505050506040513d601f19601f8201168201806040525081019061265e9190613575565b6040518263ffffffff1660e01b815260040161267a9190613de9565b60006040518083038186803b15801561269257600080fd5b505afa1580156126a6573d6000803e3d6000fd5b505050506040513d6000823e3d601f19601f820116820180604052508101906126cf9190613692565b509450505050506000821415612746578688815181106126f2576126f1614229565b5b60200260200101516000015181604051602001612710929190613b77565b60405160208183030381529060405287898151811061273257612731614229565b5b6020026020010151600001819052506127a9565b86888151811061275957612758614229565b5b60200260200101516000015181604051602001612777929190613b9b565b60405160208183030381529060405287898151811061279957612798614229565b5b6020026020010151600001819052505b5080806127b590614158565b915050612569565b50818587815181106127d2576127d1614229565b5b602002602001015160200181815250506040518060400160405280600581526020017f4f6666657200000000000000000000000000000000000000000000000000000081525085878151811061282b5761282a614229565b5b602002602001015160400181905250858061284590614158565b965050505b50508080612857906141a1565b91505061222c565b5060005b600160009054906101000a900473ffffffffffffffffffffffffffffffffffffffff1673ffffffffffffffffffffffffffffffffffffffff1663c23a179f896040518263ffffffff1660e01b81526004016128be9190613bec565b60206040518083038186803b1580156128d657600080fd5b505afa1580156128ea573d6000803e3d6000fd5b505050506040513d601f19601f8201168201806040525081019061290e9190613575565b811015612de2576000600160009054906101000a900473ffffffffffffffffffffffffffffffffffffffff1673ffffffffffffffffffffffffffffffffffffffff1663994155688a846040518363ffffffff1660e01b8152600401612974929190613c91565b60206040518083038186803b15801561298c57600080fd5b505afa1580156129a0573d6000803e3d6000fd5b505050506040513d601f19601f820116820180604052508101906129c49190613575565b90506000806000600160009054906101000a900473ffffffffffffffffffffffffffffffffffffffff1673ffffffffffffffffffffffffffffffffffffffff166356564b7c856040518263ffffffff1660e01b8152600401612a269190613de9565b60006040518083038186803b158015612a3e57600080fd5b505afa158015612a52573d6000803e3d6000fd5b505050506040513d6000823e3d601f19601f82011682018060405250810190612a7b9190613484565b94505093509350506000600260009054906101000a900473ffffffffffffffffffffffffffffffffffffffff1673ffffffffffffffffffffffffffffffffffffffff16637acc0b20836040518263ffffffff1660e01b8152600401612ae09190613de9565b60a06040518083038186803b158015612af857600080fd5b505afa158015612b0c573d6000803e3d6000fd5b505050506040513d601f19601f82011682018060405250810190612b309190613409565b5093505050506000600260009054906101000a900473ffffffffffffffffffffffffffffffffffffffff1673ffffffffffffffffffffffffffffffffffffffff1663013cf08b836040518263ffffffff1660e01b8152600401612b939190613de9565b60006040518083038186803b158015612bab57600080fd5b505afa158015612bbf573d6000803e3d6000fd5b505050506040513d6000823e3d601f19601f82011682018060405250810190612be89190613692565b509450505050508c8510158015612bff57508b8511155b15612cd15780604051602001612c159190613bca565b604051602081830303815290604052888a81518110612c3757612c36614229565b5b60200260200101516000018190525084888a81518110612c5a57612c59614229565b5b602002602001015160200181815250506040518060400160405280600881526020017f4163636570746564000000000000000000000000000000000000000000000000815250888a81518110612cb357612cb2614229565b5b6020026020010151604001819052508880612ccd90614158565b9950505b8c8410158015612ce157508b8411155b15612dc9576040518060400160405280600581526020017f546f707570000000000000000000000000000000000000000000000000000000815250888a81518110612d2f57612d2e614229565b5b60200260200101516000018190525083888a81518110612d5257612d51614229565b5b602002602001015160200181815250506040518060400160405280600681526020017f436c6f7365640000000000000000000000000000000000000000000000000000815250888a81518110612dab57612daa614229565b5b6020026020010151604001819052508880612dc590614158565b9950505b5050505050508080612dda90614158565b915050612863565b508093505050509392505050565b600033905090565b60008060009054906101000a900473ffffffffffffffffffffffffffffffffffffffff169050816000806101000a81548173ffffffffffffffffffffffffffffffffffffffff021916908373ffffffffffffffffffffffffffffffffffffffff1602179055508173ffffffffffffffffffffffffffffffffffffffff168173ffffffffffffffffffffffffffffffffffffffff167f8be0079c531659141344cd1fd0a4f28419497f9722a3daafe3b4186f6b6457e060405160405180910390a35050565b604051806040016040528060008152602001600081525090565b6040518061012001604052806000815260200160008152602001600081526020016000815260200160008152602001600081526020016000815260200160008152602001600081525090565b60405180606001604052806060815260200160008152602001606081525090565b6000612f56612f5184613e9e565b613e79565b905082815260208101848484011115612f7257612f71614291565b5b612f7d8482856140bb565b509392505050565b6000612f98612f9384613e9e565b613e79565b905082815260208101848484011115612fb457612fb3614291565b5b612fbf8482856140ca565b509392505050565b600081359050612fd68161437b565b92915050565b600081519050612feb8161437b565b92915050565b60008151905061300081614392565b92915050565b600081519050613015816143a2565b92915050565b60008151905061302a816143b2565b92915050565b60008151905061303f816143c2565b92915050565b600081519050613054816143d2565b92915050565b600081519050613069816143e2565b92915050565b600082601f83011261308457613083614287565b5b8135613094848260208601612f43565b91505092915050565b600082601f8301126130b2576130b1614287565b5b81516130c2848260208601612f85565b91505092915050565b600060c082840312156130e1576130e061428c565b5b6130eb60c0613e79565b905060006130fb84828501612ff1565b600083015250602061310f848285016131aa565b602083015250604061312384828501613180565b604083015250606061313784828501613180565b606083015250608061314b84828501613180565b60808301525060a061315f84828501613180565b60a08301525092915050565b60008135905061317a816143f2565b92915050565b60008151905061318f816143f2565b92915050565b6000813590506131a481614409565b92915050565b6000815190506131b981614409565b92915050565b6000602082840312156131d5576131d461429b565b5b60006131e384828501612fc7565b91505092915050565b600080604083850312156132035761320261429b565b5b600061321185828601612fc7565b925050602083013567ffffffffffffffff81111561323257613231614296565b5b61323e8582860161306f565b9150509250929050565b600080600080600060a086880312156132645761326361429b565b5b600061327288828901612fc7565b955050602086013567ffffffffffffffff81111561329357613292614296565b5b61329f8882890161306f565b94505060406132b08882890161316b565b93505060606132c18882890161316b565b92505060806132d28882890161316b565b9150509295509295909350565b600080604083850312156132f6576132f561429b565b5b600061330485828601612fc7565b92505060206133158582860161316b565b9150509250929050565b600080600080600060a0868803121561333b5761333a61429b565b5b600061334988828901612fdc565b955050602061335a88828901613180565b945050604061336b88828901613006565b935050606061337c88828901613030565b925050608086015167ffffffffffffffff81111561339d5761339c614296565b5b6133a98882890161309d565b9150509295509295909350565b6000806000606084860312156133cf576133ce61429b565b5b60006133dd86828701612fc7565b93505060206133ee8682870161316b565b92505060406133ff8682870161316b565b9150509250925092565b600080600080600060a086880312156134255761342461429b565b5b600061343388828901612fdc565b955050602061344488828901613180565b945050604061345588828901613180565b935050606061346688828901613180565b925050608061347788828901613045565b9150509295509295909350565b600080600080600060a086880312156134a05761349f61429b565b5b600086015167ffffffffffffffff8111156134be576134bd614296565b5b6134ca8882890161309d565b95505060206134db88828901613180565b94505060406134ec88828901613180565b93505060606134fd8882890161301b565b925050608061350e88828901613180565b9150509295509295909350565b600060c082840312156135315761353061429b565b5b600061353f848285016130cb565b91505092915050565b60006020828403121561355e5761355d61429b565b5b600061356c8482850161316b565b91505092915050565b60006020828403121561358b5761358a61429b565b5b600061359984828501613180565b91505092915050565b600080604083850312156135b9576135b861429b565b5b60006135c78582860161316b565b92505060206135d88582860161316b565b9150509250929050565b6000602082840312156135f8576135f761429b565b5b6000613606848285016131aa565b91505092915050565b600080600080608085870312156136295761362861429b565b5b600061363787828801613195565b94505060206136488782880161316b565b93505060406136598782880161316b565b925050606085013567ffffffffffffffff81111561367a57613679614296565b5b6136868782880161306f565b91505092959194509250565b60008060008060008060c087890312156136af576136ae61429b565b5b60006136bd89828a016131aa565b96505060206136ce89828a01613180565b95505060406136df89828a01613180565b94505060606136f089828a01613180565b935050608087015167ffffffffffffffff81111561371157613710614296565b5b61371d89828a0161309d565b92505060a061372e89828a0161305a565b9150509295509295509295565b600061374783836139fe565b905092915050565b600061375b8383613a55565b60408301905092915050565b60006137738383613a84565b6101208301905092915050565b6137898161403c565b82525050565b600061379a82613eff565b6137a48185613f52565b9350836020820285016137b685613ecf565b8060005b858110156137f257848403895281516137d3858261373b565b94506137de83613f2b565b925060208a019950506001810190506137ba565b50829750879550505050505092915050565b600061380f82613f0a565b6138198185613f63565b935061382483613edf565b8060005b8381101561385557815161383c888261374f565b975061384783613f38565b925050600181019050613828565b5085935050505092915050565b600061386d82613f15565b6138778185613f74565b935061388283613eef565b8060005b838110156138b357815161389a8882613767565b97506138a583613f45565b925050600181019050613886565b5085935050505092915050565b6138c981614085565b82525050565b60006138da82613f20565b6138e48185613f85565b93506138f48185602086016140ca565b6138fd816142a0565b840191505092915050565b600061391382613f20565b61391d8185613f96565b935061392d8185602086016140ca565b613936816142a0565b840191505092915050565b600061394c82613f20565b6139568185613fa7565b93506139668185602086016140ca565b80840191505092915050565b600061397f602683613f96565b915061398a826142b1565b604082019050919050565b60006139a2600a83613fa7565b91506139ad82614300565b600a82019050919050565b60006139c5602083613f96565b91506139d082614329565b602082019050919050565b60006139e8600383613fa7565b91506139f382614352565b600382019050919050565b60006060830160008301518482036000860152613a1b82826138cf565b9150506020830151613a306020860182613b3b565b5060408301518482036040860152613a4882826138cf565b9150508091505092915050565b604082016000820151613a6b6000850182613b3b565b506020820151613a7e6020850182613b3b565b50505050565b61012082016000820151613a9b6000850182613b3b565b506020820151613aae6020850182613b3b565b506040820151613ac16040850182613b3b565b506060820151613ad46060850182613b3b565b506080820151613ae76080850182613b3b565b5060a0820151613afa60a0850182613b3b565b5060c0820151613b0d60c0850182613b3b565b5060e0820151613b2060e0850182613b3b565b50610100820151613b35610100850182613b3b565b50505050565b613b448161406e565b82525050565b613b538161406e565b82525050565b613b62816140a9565b82525050565b613b7181614078565b82525050565b6000613b838285613941565b9150613b8f8284613941565b91508190509392505050565b6000613ba78285613941565b9150613bb2826139db565b9150613bbe8284613941565b91508190509392505050565b6000613bd582613995565b9150613be18284613941565b915081905092915050565b6000602082019050613c016000830184613780565b92915050565b6000608082019050613c1c6000830187613780565b8181036020830152613c2e8186613908565b9050613c3d6040830185613b4a565b613c4a6060830184613b4a565b95945050505050565b6000606082019050613c686000830186613780565b8181036020830152613c7a8185613908565b9050613c896040830184613b68565b949350505050565b6000604082019050613ca66000830185613780565b613cb36020830184613b4a565b9392505050565b6000608082019050613ccf6000830187613780565b613cdc6020830186613b4a565b613ce96040830185613b4a565b613cf66060830184613b4a565b95945050505050565b6000604082019050613d146000830185613780565b613d216020830184613b59565b9392505050565b60006020820190508181036000830152613d42818461378f565b905092915050565b60006020820190508181036000830152613d648184613804565b905092915050565b60006020820190508181036000830152613d868184613862565b905092915050565b6000602082019050613da360008301846138c0565b92915050565b60006020820190508181036000830152613dc281613972565b9050919050565b60006020820190508181036000830152613de2816139b8565b9050919050565b6000602082019050613dfe6000830184613b4a565b92915050565b6000604082019050613e196000830185613b4a565b613e266020830184613b4a565b9392505050565b6000608082019050613e426000830187613b68565b613e4f6020830186613b4a565b613e5c6040830185613b4a565b8181036060830152613e6e8184613908565b905095945050505050565b6000613e83613e94565b9050613e8f8282614127565b919050565b6000604051905090565b600067ffffffffffffffff821115613eb957613eb8614258565b5b613ec2826142a0565b9050602081019050919050565b6000819050602082019050919050565b6000819050602082019050919050565b6000819050602082019050919050565b600081519050919050565b600081519050919050565b600081519050919050565b600081519050919050565b6000602082019050919050565b6000602082019050919050565b6000602082019050919050565b600082825260208201905092915050565b600082825260208201905092915050565b600082825260208201905092915050565b600082825260208201905092915050565b600082825260208201905092915050565b600081905092915050565b6000613fbd8261406e565b9150613fc88361406e565b9250827fffffffffffffffffffffffffffffffffffffffffffffffffffffffffffffffff03821115613ffd57613ffc6141cb565b5b828201905092915050565b60006140138261406e565b915061401e8361406e565b925082821015614031576140306141cb565b5b828203905092915050565b60006140478261404e565b9050919050565b600073ffffffffffffffffffffffffffffffffffffffff82169050919050565b6000819050919050565b600060ff82169050919050565b600061409082614097565b9050919050565b60006140a28261404e565b9050919050565b60006140b482614078565b9050919050565b82818337600083830152505050565b60005b838110156140e85780820151818401526020810190506140cd565b838111156140f7576000848401525b50505050565b60006141088261406e565b9150600082141561411c5761411b6141cb565b5b600182039050919050565b614130826142a0565b810181811067ffffffffffffffff8211171561414f5761414e614258565b5b80604052505050565b60006141638261406e565b91507fffffffffffffffffffffffffffffffffffffffffffffffffffffffffffffffff821415614196576141956141cb565b5b600182019050919050565b60006141ac82614078565b915060ff8214156141c0576141bf6141cb565b5b600182019050919050565b7f4e487b7100000000000000000000000000000000000000000000000000000000600052601160045260246000fd5b7f4e487b7100000000000000000000000000000000000000000000000000000000600052602160045260246000fd5b7f4e487b7100000000000000000000000000000000000000000000000000000000600052603260045260246000fd5b7f4e487b7100000000000000000000000000000000000000000000000000000000600052604160045260246000fd5b600080fd5b600080fd5b600080fd5b600080fd5b600080fd5b6000601f19601f8301169050919050565b7f4f776e61626c653a206e6577206f776e657220697320746865207a65726f206160008201527f6464726573730000000000000000000000000000000000000000000000000000602082015250565b7f41636365707465643a2000000000000000000000000000000000000000000000600082015250565b7f4f776e61626c653a2063616c6c6572206973206e6f7420746865206f776e6572600082015250565b7f202f200000000000000000000000000000000000000000000000000000000000600082015250565b6143848161403c565b811461438f57600080fd5b50565b6003811061439f57600080fd5b50565b600581106143af57600080fd5b50565b600281106143bf57600080fd5b50565b600281106143cf57600080fd5b50565b600281106143df57600080fd5b50565b600281106143ef57600080fd5b50565b6143fb8161406e565b811461440657600080fd5b50565b61441281614078565b811461441d57600080fd5b5056fea2646970667358221220011d398370e0ef3bd33d9e8ab5c6e30e7b2a21b1ac0aad26a028460952b59ae664736f6c63430008060033",
  "immutableReferences": {},
  "source": "// SPDX-License-Identifier: MIT\npragma solidity ^0.8.6;\n\nimport \"./Billing.sol\";\nimport \"./Offering.sol\";\nimport \"@openzeppelin/contracts/access/Ownable.sol\";\n\n/**\n * @title This Smart Contract is the entry point of Timelapse.\n * @notice Communicate with API(server/watcher) part and dApp\n * @author Keeymon, DavidRochus\n */\ncontract Timelapse is Ownable {\n\n    /**\n      * @dev Customer Billing Activity\n      */\n    Billing public billing;\n\n    /**\n      * @dev Customer Offering Activity\n      */\n    Offering offering;\n\n    /**\n     * @dev Customer Activity\n     */\n    struct CustomerActivity {\n        string log;\n        uint256 timestamp;\n        string status;\n    }\n\n    /**\n     * @dev Invoice information\n     */\n    struct Invoice {\n        uint256 totalCapital;\n        uint256 totalInterest;\n    }\n\n    /**\n     * @dev Reporting information\n     */\n    struct Reporting {\n        uint256 offersCount;\n        uint256 acceptedOffersCount;\n        uint256 totalCapitalLoans;\n        uint256 totalInterestLoans;\n        uint256 closedTopupsCount;\n        uint256 totalCapitalGain;\n        uint256 totalInterestGain;\n        uint256 acceptanceTimestamp;\n        uint256 paidTimestamp;\n    }\n\n    /**\n     * @dev Smart Contract constructor\n     */\n    constructor(address _billingAddress, address _offeringAddress) {\n        billing = Billing(_billingAddress);\n        offering = Offering(_offeringAddress);\n    }\n\n    /**\n      * @notice Add a proposal\n      * @param _minScoring The minimum score needed by customer to receive this proposal\n      * @param _capital Capital part of the proposal amount\n      * @param _interest Interest part of the proposal amount\n      * @param _description A description of the proposal\n      * @dev Add a proposal with the following information: minimum scoring `_minScoring`, amount `_capital` + `_interest`, description `_description`\n      */\n    function addProposal(\n        uint8 _minScoring,\n        uint256 _capital,\n        uint256 _interest,\n        string memory _description\n    ) public onlyOwner {\n        offering.addProposal(_minScoring, _capital, _interest, _description);\n    }\n\n    /**\n      * @notice Close a proposal\n      * @param _id ID of the proposal to close\n      * @dev Close the proposal with the ID `_id`\n      */\n    function closedProposal(uint256 _id) public onlyOwner {\n        offering.closedProposal(_id);\n    }\n\n    /**\n      * @notice Increase scoring information of a customer\n      * @param _phoneHash The address that identifies to the customer\n      * @dev This function is directly called when API receives a topUp for a customer (identified with `_phoneHash`) with a target other than Timelapse\n      */\n    function addToScore(address _phoneHash) public onlyOwner {\n        billing.addToScore(_phoneHash);\n    }\n\n    /**\n      * @notice Accept the offer\n      * @param _phoneHash The address that identifies to the customer\n      * @param _ref Reference of the telecom provider\n      * @param _acceptanceTimestamp Timestamp of the acceptance\n      * @param _idOffer ID of the offer\n      * @param _idProposal ID of the proposal\n      * @dev Accept the offer `_idOffer` (By choosing proposal `_idProposal`) of a customer (identified with `_phoneHash`) with reference `_ref` at timestamp `_acceptanceTimestamp`\n      */\n    //function acceptance(address _phoneHash, string memory _ref, uint _acceptanceTimestamp, uint256 _idOffer, uint256 _idProposal) public activeCustomer(_phoneHash) {\n    function acceptance(address _phoneHash, string memory _ref, uint _acceptanceTimestamp, uint256 _idOffer, uint256 _idProposal) public {\n        billing.acceptanceBilling(_phoneHash, _ref, _acceptanceTimestamp, offering.createProduct(_phoneHash, _acceptanceTimestamp, _idOffer, _idProposal));\n    }\n\n     /**\n      * @notice TopUp the last product of a customer\n      * @param _phoneHash The address that identifies to the customer\n      * @param _paidTimestamp Timestamp of the acceptance\n      * @dev TopUp the last product of a customer (identified with `_phoneHash`) at timestamp `_paidTimestamp`\n      */\n    //function topUp(address _phoneHash, uint _paidTimestamp) public onlyOwner activeCustomer(_phoneHash) {\n    function topUp(address _phoneHash, uint _paidTimestamp) public onlyOwner {\n        (,,,,uint256 idProduct) = billing.histories(billing.getCustomer(_phoneHash).lastAcceptanceID);\n        (,,,uint256 idProposal,) = offering.products(idProduct);\n        (,uint256 capital,uint256 interest,,,) = offering.proposals(idProposal);\n        billing.addToCustomerAmount(_phoneHash, capital + interest);\n\n        billing.addToScore(_phoneHash);\n        billing.topUpBilling(_phoneHash, _paidTimestamp);\n    }\n\n    /**\n      * @notice Manage the \"low balances\" received and generate an offer\n      * @param _phoneHash The address that identifies to the customer\n      * @param _ref Reference of the telecom provider\n      * @dev Manage lowBalance (with reference `_ref`) of a customer (identified with `_phoneHash`)\n      */\n    function lowBalance(address _phoneHash, string memory _ref) public onlyOwner {\n        offering.lowBalanceOffering(_phoneHash, _ref, billing.getScore(_phoneHash));\n    }\n\n    /**\n      * @notice Get customer activities log\n      * @param _phoneHash The address that identifies to the customer\n      * @param _startTimestamp Start of the search timeframe\n      * @param _endTimestamp End of the search timeframe\n      * @return Score The computed customer score \n      * @dev Get activities log of a customer (identified with `_phoneHash`)\n      */\n    function getCustomerActivitiesLog(address _phoneHash, uint256 _startTimestamp, uint256 _endTimestamp) public view returns(CustomerActivity[] memory) {\n         uint256 customerActivitiesSize;\n         uint256 customerActivitiesIndex;\n\n        for (uint8 i = 0; i < offering.getOfferSize(_phoneHash); i++) {\n            uint256 offeringIndex = offering.offerList(_phoneHash, i);\n            (,uint256 timestamp,,,) = offering.offers(offeringIndex);   \n            if(timestamp >= _startTimestamp && timestamp <= _endTimestamp) {\n                customerActivitiesSize++;\n            }\n        }\n        for (uint8 i = 0; i < billing.getHistorySize(_phoneHash); i++) {\n            uint256 historyIndex = billing.historyList(_phoneHash, i);\n            (,uint256 acceptanceTimestamp, uint256 paidTimestamp,,) = billing.histories(historyIndex);\n            if(acceptanceTimestamp >= _startTimestamp && acceptanceTimestamp <= _endTimestamp) {\n                customerActivitiesSize++;\n            }\n            if(paidTimestamp >= _startTimestamp && paidTimestamp <= _endTimestamp) {\n                customerActivitiesSize++;\n            }\n        }\n        CustomerActivity[] memory customerActivities = new CustomerActivity[](customerActivitiesSize);\n        for (uint8 i = 0; i < offering.getOfferSize(_phoneHash); i++) {\n            uint256 offeringIndex = offering.offerList(_phoneHash, i);\n            (,uint256 timestamp,,,) = offering.offers(offeringIndex);\n            if(timestamp >= _startTimestamp && timestamp <= _endTimestamp) {\n                customerActivities[customerActivitiesIndex].log = \"Offer: \";\n                uint256 numberProposal = offering.getSizeProposalOffer(offeringIndex);\n                for (uint256 j = 0; j < numberProposal; j++) {\n                    (,,,,string memory description,) = offering.proposals(offering.getIndexProposalOffer(offeringIndex, j));\n                    if(j == 0) { \n                        customerActivities[customerActivitiesIndex].log = string(abi.encodePacked(customerActivities[customerActivitiesIndex].log, description));\n                    } else {\n                        customerActivities[customerActivitiesIndex].log = string(abi.encodePacked(customerActivities[customerActivitiesIndex].log, \" / \", description));\n                    }\n                }\n\n                customerActivities[customerActivitiesIndex].timestamp = timestamp;\n                customerActivities[customerActivitiesIndex].status = \"Offer\";\n                customerActivitiesIndex++;\n            }\n        }\n        for (uint256 i = 0; i < billing.getHistorySize(_phoneHash); i++) {\n            uint256 historyIndex = billing.historyList(_phoneHash, i);\n            (,uint256 acceptanceTimestamp, uint256 paidTimestamp,,uint256 idProduct) = billing.histories(historyIndex);\n            (,,,uint256 idProposal,) = offering.products(idProduct);\n            (,,,,string memory descriptionProposal,) = offering.proposals(idProposal);\n\n            if(acceptanceTimestamp >= _startTimestamp && acceptanceTimestamp <= _endTimestamp) {\n                customerActivities[customerActivitiesIndex].log = string(abi.encodePacked(\"Accepted: \", descriptionProposal));\n                customerActivities[customerActivitiesIndex].timestamp = acceptanceTimestamp;\n                customerActivities[customerActivitiesIndex].status = \"Accepted\";\n                customerActivitiesIndex++;\n            }\n\n            if(paidTimestamp >= _startTimestamp && paidTimestamp <= _endTimestamp) {\n                customerActivities[customerActivitiesIndex].log = \"Topup\";\n                customerActivities[customerActivitiesIndex].timestamp = paidTimestamp;\n                customerActivities[customerActivitiesIndex].status = \"Closed\";\n                customerActivitiesIndex++;\n            }\n        }\n        return customerActivities;\n    }\n\n    /**\n      * @notice Generate invoicing for a given period\n      * @param _startTimestamp Start of the invoicing period\n      * @param _endTimestamp End of the invoicing period\n      * @return The invoice \n      * @dev Generate invoicing for a given period (between _startTimestamp and _endTimestamp)\n      */\n    function generateInvoicing(uint256 _startTimestamp, uint256 _endTimestamp) public view returns(Invoice[] memory) {\n        uint256 invoiceSize;\n        uint256 invoiceIndex;\n        bool outOfInvoicingWindow;\n        // In POC context, we will only use 1 global invoice. In the next phases, splitted invoice could be returned for a given period\n        invoiceSize = 1;\n        Invoice[] memory invoice = new Invoice[](invoiceSize);\n\n        for (uint256 i = billing.getHistoriesSize(); i > 0 && !(outOfInvoicingWindow); i--) {\n            (,, uint256 paidTimestamp, Billing.HistoryStatus status, uint256 idProduct) = billing.histories(i-1);\n            \n            if(paidTimestamp < _startTimestamp){\n                outOfInvoicingWindow = true;\n            }\n            if(paidTimestamp >= _startTimestamp && paidTimestamp <= _endTimestamp && status == Billing.HistoryStatus.Closed){\n                (,,,uint256 idProposal,) = offering.products(idProduct);\n                (,uint256 capital,uint256 interest,,,) = offering.proposals(idProposal);\n                invoice[invoiceIndex].totalCapital += capital;\n                invoice[invoiceIndex].totalInterest += interest;\n            }\n        }\n\n        return invoice;\n    }\n\n    /**\n      * @notice Generate reporting for a given period\n      * @param _startTimestamp Start of the reporting period\n      * @param _endTimestamp End of the reporting period\n      * @return The reporting \n      * @dev Generate reporting for a given period (between _startTimestamp and _endTimestamp)\n      */\n    function generateReporting(uint256 _startTimestamp, uint256 _endTimestamp) public view returns(Reporting[] memory) {\n        uint256 reportingSize;\n        uint256 reportingIndex;\n        bool outOfReportingWindow1;\n        bool outOfReportingWindow2;\n        bool outOfReportingWindow3;\n        // In POC context, we will only use 1 global reporting. In the next phases, splitted reporting could be returned for a given period\n        reportingSize = 1;\n        Reporting[] memory reporting = new Reporting[](reportingSize);\n\n        for (uint256 i = offering.getOffersSize(); i > 0 && !(outOfReportingWindow1); i--) {\n            (,uint timestamp,,Offering.OfferStatus status,) = offering.offers(i-1);\n            if(timestamp < _startTimestamp){\n                outOfReportingWindow1 = true;\n            }\n            if(timestamp >= _startTimestamp && timestamp <= _endTimestamp){\n                reporting[reportingIndex].offersCount += 1;\n                if(status == Offering.OfferStatus.Accepted){\n                    reporting[reportingIndex].acceptedOffersCount += 1;\n                }\n            }\n        }\n\n        for (uint256 i = billing.getHistoriesSize(); i > 0 && (!(outOfReportingWindow2) || !(outOfReportingWindow3)); i--) {\n            (,uint256 acceptanceTimestamp, uint256 paidTimestamp, Billing.HistoryStatus status, uint256 idProduct) = billing.histories(i-1);\n\n            reporting[reportingIndex].acceptanceTimestamp = acceptanceTimestamp;\n            reporting[reportingIndex].paidTimestamp = paidTimestamp;\n\n            if(acceptanceTimestamp < _startTimestamp){\n                outOfReportingWindow2 = true;\n            } else {\n                if(acceptanceTimestamp >= _startTimestamp && acceptanceTimestamp <= _endTimestamp && status == Billing.HistoryStatus.Active){\n                    (,,,uint256 idProposal,) = offering.products(idProduct);\n                    (,uint256 capital,uint256 interest,,,) = offering.proposals(idProposal);\n                    reporting[reportingIndex].totalCapitalLoans += capital;\n                    reporting[reportingIndex].totalInterestLoans += interest;\n                }\n            }\n            if(paidTimestamp < _startTimestamp){\n                outOfReportingWindow3 = true;\n            } else {\n                if(paidTimestamp >= _startTimestamp && paidTimestamp <= _endTimestamp && status == Billing.HistoryStatus.Closed){\n                    (,,,uint256 idProposal,) = offering.products(idProduct);\n                    (,uint256 capital,uint256 interest,,,) = offering.proposals(idProposal);\n                    reporting[reportingIndex].closedTopupsCount += 1;\n                    reporting[reportingIndex].totalCapitalGain += capital;\n                    reporting[reportingIndex].totalInterestGain += interest;\n                }\n            }\n        }\n\n        return reporting;\n    }\n}",
  "sourcePath": "/Users/davidrochus/Dev/workspace/timelapse/contracts/Timelapse.sol",
  "compiler": {
    "name": "solc",
    "version": "0.8.6+commit.11564f7e.Emscripten.clang"
  },
  "schemaVersion": "3.4.1",
  "updatedAt": "2021-07-23T13:23:34.807Z",
  "networkType": "ethereum",
  "devdoc": {
    "author": "Keeymon, DavidRochus",
    "kind": "dev",
    "methods": {
      "acceptance(address,string,uint256,uint256,uint256)": {
        "details": "Accept the offer `_idOffer` (By choosing proposal `_idProposal`) of a customer (identified with `_phoneHash`) with reference `_ref` at timestamp `_acceptanceTimestamp`",
        "params": {
          "_acceptanceTimestamp": "Timestamp of the acceptance",
          "_idOffer": "ID of the offer",
          "_idProposal": "ID of the proposal",
          "_phoneHash": "The address that identifies to the customer",
          "_ref": "Reference of the telecom provider"
        }
      },
      "addProposal(uint8,uint256,uint256,string)": {
        "details": "Add a proposal with the following information: minimum scoring `_minScoring`, amount `_capital` + `_interest`, description `_description`",
        "params": {
          "_capital": "Capital part of the proposal amount",
          "_description": "A description of the proposal",
          "_interest": "Interest part of the proposal amount",
          "_minScoring": "The minimum score needed by customer to receive this proposal"
        }
      },
      "addToScore(address)": {
        "details": "This function is directly called when API receives a topUp for a customer (identified with `_phoneHash`) with a target other than Timelapse",
        "params": {
          "_phoneHash": "The address that identifies to the customer"
        }
      },
      "closedProposal(uint256)": {
        "details": "Close the proposal with the ID `_id`",
        "params": {
          "_id": "ID of the proposal to close"
        }
      },
      "constructor": {
        "details": "Smart Contract constructor"
      },
      "generateInvoicing(uint256,uint256)": {
        "details": "Generate invoicing for a given period (between _startTimestamp and _endTimestamp)",
        "params": {
          "_endTimestamp": "End of the invoicing period",
          "_startTimestamp": "Start of the invoicing period"
        },
        "returns": {
          "_0": "The invoice "
        }
      },
      "generateReporting(uint256,uint256)": {
        "details": "Generate reporting for a given period (between _startTimestamp and _endTimestamp)",
        "params": {
          "_endTimestamp": "End of the reporting period",
          "_startTimestamp": "Start of the reporting period"
        },
        "returns": {
          "_0": "The reporting "
        }
      },
      "getCustomerActivitiesLog(address,uint256,uint256)": {
        "details": "Get activities log of a customer (identified with `_phoneHash`)",
        "params": {
          "_endTimestamp": "End of the search timeframe",
          "_phoneHash": "The address that identifies to the customer",
          "_startTimestamp": "Start of the search timeframe"
        },
        "returns": {
          "_0": "Score The computed customer score "
        }
      },
      "lowBalance(address,string)": {
        "details": "Manage lowBalance (with reference `_ref`) of a customer (identified with `_phoneHash`)",
        "params": {
          "_phoneHash": "The address that identifies to the customer",
          "_ref": "Reference of the telecom provider"
        }
      },
      "owner()": {
        "details": "Returns the address of the current owner."
      },
      "renounceOwnership()": {
        "details": "Leaves the contract without owner. It will not be possible to call `onlyOwner` functions anymore. Can only be called by the current owner. NOTE: Renouncing ownership will leave the contract without an owner, thereby removing any functionality that is only available to the owner."
      },
      "topUp(address,uint256)": {
        "details": "TopUp the last product of a customer (identified with `_phoneHash`) at timestamp `_paidTimestamp`",
        "params": {
          "_paidTimestamp": "Timestamp of the acceptance",
          "_phoneHash": "The address that identifies to the customer"
        }
      },
      "transferOwnership(address)": {
        "details": "Transfers ownership of the contract to a new account (`newOwner`). Can only be called by the current owner."
      }
    },
    "stateVariables": {
      "billing": {
        "details": "Customer Billing Activity"
      },
      "offering": {
        "details": "Customer Offering Activity"
      }
    },
    "title": "This Smart Contract is the entry point of Timelapse.",
    "version": 1
  },
  "userdoc": {
    "kind": "user",
    "methods": {
      "acceptance(address,string,uint256,uint256,uint256)": {
        "notice": "Accept the offer"
      },
      "addProposal(uint8,uint256,uint256,string)": {
        "notice": "Add a proposal"
      },
      "addToScore(address)": {
        "notice": "Increase scoring information of a customer"
      },
      "closedProposal(uint256)": {
        "notice": "Close a proposal"
      },
      "generateInvoicing(uint256,uint256)": {
        "notice": "Generate invoicing for a given period"
      },
      "generateReporting(uint256,uint256)": {
        "notice": "Generate reporting for a given period"
      },
      "getCustomerActivitiesLog(address,uint256,uint256)": {
        "notice": "Get customer activities log"
      },
      "lowBalance(address,string)": {
        "notice": "Manage the \"low balances\" received and generate an offer"
      },
      "topUp(address,uint256)": {
        "notice": "TopUp the last product of a customer"
      }
    },
    "notice": "Communicate with API(server/watcher) part and dApp",
    "version": 1
  }
}