{
  "contractName": "Timelapse",
  "abi": [
    {
      "inputs": [
        {
          "internalType": "address",
          "name": "_billingAddress",
          "type": "address"
        },
        {
          "internalType": "address",
          "name": "_offeringAddress",
          "type": "address"
        }
      ],
      "stateMutability": "nonpayable",
      "type": "constructor"
    },
    {
      "anonymous": false,
      "inputs": [
        {
          "indexed": true,
          "internalType": "address",
          "name": "previousOwner",
          "type": "address"
        },
        {
          "indexed": true,
          "internalType": "address",
          "name": "newOwner",
          "type": "address"
        }
      ],
      "name": "OwnershipTransferred",
      "type": "event"
    },
    {
      "inputs": [],
      "name": "owner",
      "outputs": [
        {
          "internalType": "address",
          "name": "",
          "type": "address"
        }
      ],
      "stateMutability": "view",
      "type": "function",
      "constant": true
    },
    {
      "inputs": [],
      "name": "renounceOwnership",
      "outputs": [],
      "stateMutability": "nonpayable",
      "type": "function"
    },
    {
      "inputs": [
        {
          "internalType": "address",
          "name": "newOwner",
          "type": "address"
        }
      ],
      "name": "transferOwnership",
      "outputs": [],
      "stateMutability": "nonpayable",
      "type": "function"
    },
    {
      "inputs": [
        {
          "internalType": "uint8",
          "name": "_minScoring",
          "type": "uint8"
        },
        {
          "internalType": "uint256",
          "name": "_capital",
          "type": "uint256"
        },
        {
          "internalType": "uint256",
          "name": "_interest",
          "type": "uint256"
        },
        {
          "internalType": "string",
          "name": "_description",
          "type": "string"
        }
      ],
      "name": "addProposal",
      "outputs": [],
      "stateMutability": "nonpayable",
      "type": "function"
    },
    {
      "inputs": [
        {
          "internalType": "uint256",
          "name": "_id",
          "type": "uint256"
        }
      ],
      "name": "closedProposal",
      "outputs": [],
      "stateMutability": "nonpayable",
      "type": "function"
    },
    {
      "inputs": [
        {
          "internalType": "address",
          "name": "_phoneHash",
          "type": "address"
        }
      ],
      "name": "addToScore",
      "outputs": [],
      "stateMutability": "nonpayable",
      "type": "function"
    },
    {
      "inputs": [
        {
          "internalType": "address",
          "name": "_phoneHash",
          "type": "address"
        },
        {
          "internalType": "string",
          "name": "_ref",
          "type": "string"
        },
        {
          "internalType": "uint256",
          "name": "_acceptanceTimestamp",
          "type": "uint256"
        },
        {
          "internalType": "uint256",
          "name": "_idOffer",
          "type": "uint256"
        },
        {
          "internalType": "uint256",
          "name": "_idProposal",
          "type": "uint256"
        }
      ],
      "name": "acceptance",
      "outputs": [],
      "stateMutability": "nonpayable",
      "type": "function"
    },
    {
      "inputs": [
        {
          "internalType": "address",
          "name": "_phoneHash",
          "type": "address"
        },
        {
          "internalType": "uint256",
          "name": "_paidTimestamp",
          "type": "uint256"
        }
      ],
      "name": "topUp",
      "outputs": [],
      "stateMutability": "nonpayable",
      "type": "function"
    },
    {
      "inputs": [
        {
          "internalType": "address",
          "name": "_phoneHash",
          "type": "address"
        },
        {
          "internalType": "string",
          "name": "_ref",
          "type": "string"
        }
      ],
      "name": "lowBalance",
      "outputs": [],
      "stateMutability": "nonpayable",
      "type": "function"
    },
    {
      "inputs": [
        {
          "internalType": "address",
          "name": "_phoneHash",
          "type": "address"
        },
        {
          "internalType": "uint256",
          "name": "_startTimestamp",
          "type": "uint256"
        },
        {
          "internalType": "uint256",
          "name": "_endTimestamp",
          "type": "uint256"
        }
      ],
      "name": "getCustomerActivitiesLog",
      "outputs": [
        {
          "components": [
            {
              "internalType": "string",
              "name": "log",
              "type": "string"
            },
            {
              "internalType": "uint256",
              "name": "timestamp",
              "type": "uint256"
            },
            {
              "internalType": "string",
              "name": "status",
              "type": "string"
            }
          ],
          "internalType": "struct Timelapse.CustomerActivity[]",
          "name": "",
          "type": "tuple[]"
        }
      ],
      "stateMutability": "view",
      "type": "function",
      "constant": true
    },
    {
      "inputs": [
        {
          "internalType": "uint256",
          "name": "_startTimestamp",
          "type": "uint256"
        },
        {
          "internalType": "uint256",
          "name": "_endTimestamp",
          "type": "uint256"
        }
      ],
      "name": "generateInvoicing",
      "outputs": [
        {
          "components": [
            {
              "internalType": "uint256",
              "name": "totalCapital",
              "type": "uint256"
            },
            {
              "internalType": "uint256",
              "name": "totalInterest",
              "type": "uint256"
            }
          ],
          "internalType": "struct Timelapse.Invoice[]",
          "name": "",
          "type": "tuple[]"
        }
      ],
      "stateMutability": "view",
      "type": "function",
      "constant": true
    }
  ],
  "bytecode": "0x60806040523480156200001157600080fd5b50604051620037cd380380620037cd8339818101604052810190620000379190620001c4565b620000576200004b620000e160201b60201c565b620000e960201b60201c565b81600160006101000a81548173ffffffffffffffffffffffffffffffffffffffff021916908373ffffffffffffffffffffffffffffffffffffffff16021790555080600260006101000a81548173ffffffffffffffffffffffffffffffffffffffff021916908373ffffffffffffffffffffffffffffffffffffffff16021790555050506200025e565b600033905090565b60008060009054906101000a900473ffffffffffffffffffffffffffffffffffffffff169050816000806101000a81548173ffffffffffffffffffffffffffffffffffffffff021916908373ffffffffffffffffffffffffffffffffffffffff1602179055508173ffffffffffffffffffffffffffffffffffffffff168173ffffffffffffffffffffffffffffffffffffffff167f8be0079c531659141344cd1fd0a4f28419497f9722a3daafe3b4186f6b6457e060405160405180910390a35050565b600081519050620001be8162000244565b92915050565b60008060408385031215620001de57620001dd6200023f565b5b6000620001ee85828601620001ad565b92505060206200020185828601620001ad565b9150509250929050565b600062000218826200021f565b9050919050565b600073ffffffffffffffffffffffffffffffffffffffff82169050919050565b600080fd5b6200024f816200020b565b81146200025b57600080fd5b50565b61355f806200026e6000396000f3fe608060405234801561001057600080fd5b50600436106100a95760003560e01c8063bdcf208c11610071578063bdcf208c1461013e578063d6f7ddf91461015a578063f2fde38b14610176578063f324e9d114610192578063f3963cba146101ae578063f6410c01146101ca576100a9565b80631ac8d444146100ae57806347466dc3146100ca578063715018a6146100e65780638da5cb5b146100f0578063a1f427431461010e575b600080fd5b6100c860048036038101906100c39190612471565b6101fa565b005b6100e460048036038101906100df919061282d565b610339565b005b6100ee610445565b005b6100f86104cd565b6040516101059190612d94565b60405180910390f35b61012860048036038101906101239190612887565b6104f6565b6040516101359190612ef2565b60405180910390f35b610158600480360381019061015391906128f4565b610927565b005b610174600480360381019061016f9190612564565b610a3c565b005b610190600480360381019061018b9190612444565b610f51565b005b6101ac60048036038101906101a791906124cd565b611049565b005b6101c860048036038101906101c39190612444565b611195565b005b6101e460048036038101906101df919061263b565b6112a1565b6040516101f19190612ed0565b60405180910390f35b600260009054906101000a900473ffffffffffffffffffffffffffffffffffffffff1673ffffffffffffffffffffffffffffffffffffffff1663116c327b8383600160009054906101000a900473ffffffffffffffffffffffffffffffffffffffff1673ffffffffffffffffffffffffffffffffffffffff1663d47875d0876040518263ffffffff1660e01b81526004016102959190612d94565b60206040518083038186803b1580156102ad57600080fd5b505afa1580156102c1573d6000803e3d6000fd5b505050506040513d601f19601f820116820180604052508101906102e591906128c7565b6040518463ffffffff1660e01b815260040161030393929190612dfb565b600060405180830381600087803b15801561031d57600080fd5b505af1158015610331573d6000803e3d6000fd5b505050505050565b610341612161565b73ffffffffffffffffffffffffffffffffffffffff1661035f6104cd565b73ffffffffffffffffffffffffffffffffffffffff16146103b5576040517f08c379a00000000000000000000000000000000000000000000000000000000081526004016103ac90612f34565b60405180910390fd5b600260009054906101000a900473ffffffffffffffffffffffffffffffffffffffff1673ffffffffffffffffffffffffffffffffffffffff166347466dc3826040518263ffffffff1660e01b81526004016104109190612f54565b600060405180830381600087803b15801561042a57600080fd5b505af115801561043e573d6000803e3d6000fd5b5050505050565b61044d612161565b73ffffffffffffffffffffffffffffffffffffffff1661046b6104cd565b73ffffffffffffffffffffffffffffffffffffffff16146104c1576040517f08c379a00000000000000000000000000000000000000000000000000000000081526004016104b890612f34565b60405180910390fd5b6104cb6000612169565b565b60008060009054906101000a900473ffffffffffffffffffffffffffffffffffffffff16905090565b606060008060006001925060008367ffffffffffffffff81111561051d5761051c613366565b5b60405190808252806020026020018201604052801561055657816020015b61054361222d565b81526020019060019003908161053b5790505b5090506000600160009054906101000a900473ffffffffffffffffffffffffffffffffffffffff1673ffffffffffffffffffffffffffffffffffffffff1663fcdc4eb76040518163ffffffff1660e01b815260040160206040518083038186803b1580156105c357600080fd5b505afa1580156105d7573d6000803e3d6000fd5b505050506040513d601f19601f820116820180604052508101906105fb919061285a565b90505b60008111801561060c575082155b15610919576000806000600160009054906101000a900473ffffffffffffffffffffffffffffffffffffffff1673ffffffffffffffffffffffffffffffffffffffff166356564b7c600186610661919061313a565b6040518263ffffffff1660e01b815260040161067d9190612f54565b60006040518083038186803b15801561069557600080fd5b505afa1580156106a9573d6000803e3d6000fd5b505050506040513d6000823e3d601f19601f820116820180604052508101906106d29190612796565b94509450945050508a8310156106e757600195505b8a83101580156106f75750898311155b8015610726575060018081111561071157610710613308565b5b82600181111561072457610723613308565b5b145b15610903576000600260009054906101000a900473ffffffffffffffffffffffffffffffffffffffff1673ffffffffffffffffffffffffffffffffffffffff16637acc0b20836040518263ffffffff1660e01b81526004016107889190612f54565b60a06040518083038186803b1580156107a057600080fd5b505afa1580156107b4573d6000803e3d6000fd5b505050506040513d601f19601f820116820180604052508101906107d8919061268e565b509350505050600080600260009054906101000a900473ffffffffffffffffffffffffffffffffffffffff1673ffffffffffffffffffffffffffffffffffffffff1663013cf08b846040518263ffffffff1660e01b815260040161083c9190612f54565b60006040518083038186803b15801561085457600080fd5b505afa158015610868573d6000803e3d6000fd5b505050506040513d6000823e3d601f19601f820116820180604052508101906108919190612977565b505050925092505081888b815181106108ad576108ac613337565b5b60200260200101516000018181516108c591906130e4565b9150818152505080888b815181106108e0576108df613337565b5b60200260200101516020018181516108f891906130e4565b915081815250505050505b50505080806109119061320b565b9150506105fe565b508094505050505092915050565b61092f612161565b73ffffffffffffffffffffffffffffffffffffffff1661094d6104cd565b73ffffffffffffffffffffffffffffffffffffffff16146109a3576040517f08c379a000000000000000000000000000000000000000000000000000000000815260040161099a90612f34565b60405180910390fd5b600260009054906101000a900473ffffffffffffffffffffffffffffffffffffffff1673ffffffffffffffffffffffffffffffffffffffff1663bdcf208c858585856040518563ffffffff1660e01b8152600401610a049493929190612f98565b600060405180830381600087803b158015610a1e57600080fd5b505af1158015610a32573d6000803e3d6000fd5b5050505050505050565b610a44612161565b73ffffffffffffffffffffffffffffffffffffffff16610a626104cd565b73ffffffffffffffffffffffffffffffffffffffff1614610ab8576040517f08c379a0000000000000000000000000000000000000000000000000000000008152600401610aaf90612f34565b60405180910390fd5b6000600160009054906101000a900473ffffffffffffffffffffffffffffffffffffffff1673ffffffffffffffffffffffffffffffffffffffff1663336989ae846040518263ffffffff1660e01b8152600401610b159190612d94565b60c06040518083038186803b158015610b2d57600080fd5b505afa158015610b41573d6000803e3d6000fd5b505050506040513d601f19601f82011682018060405250810190610b659190612709565b955050505050506000600160009054906101000a900473ffffffffffffffffffffffffffffffffffffffff1673ffffffffffffffffffffffffffffffffffffffff166356564b7c836040518263ffffffff1660e01b8152600401610bc99190612f54565b60006040518083038186803b158015610be157600080fd5b505afa158015610bf5573d6000803e3d6000fd5b505050506040513d6000823e3d601f19601f82011682018060405250810190610c1e9190612796565b9450505050506000600260009054906101000a900473ffffffffffffffffffffffffffffffffffffffff1673ffffffffffffffffffffffffffffffffffffffff16637acc0b20836040518263ffffffff1660e01b8152600401610c819190612f54565b60a06040518083038186803b158015610c9957600080fd5b505afa158015610cad573d6000803e3d6000fd5b505050506040513d601f19601f82011682018060405250810190610cd1919061268e565b509350505050600080600260009054906101000a900473ffffffffffffffffffffffffffffffffffffffff1673ffffffffffffffffffffffffffffffffffffffff1663013cf08b846040518263ffffffff1660e01b8152600401610d359190612f54565b60006040518083038186803b158015610d4d57600080fd5b505afa158015610d61573d6000803e3d6000fd5b505050506040513d6000823e3d601f19601f82011682018060405250810190610d8a9190612977565b5050509250925050600160009054906101000a900473ffffffffffffffffffffffffffffffffffffffff1673ffffffffffffffffffffffffffffffffffffffff1663d8dd1827888385610ddd91906130e4565b6040518363ffffffff1660e01b8152600401610dfa929190612e39565b600060405180830381600087803b158015610e1457600080fd5b505af1158015610e28573d6000803e3d6000fd5b50505050600160009054906101000a900473ffffffffffffffffffffffffffffffffffffffff1673ffffffffffffffffffffffffffffffffffffffff1663f3963cba886040518263ffffffff1660e01b8152600401610e879190612d94565b600060405180830381600087803b158015610ea157600080fd5b505af1158015610eb5573d6000803e3d6000fd5b50505050600160009054906101000a900473ffffffffffffffffffffffffffffffffffffffff1673ffffffffffffffffffffffffffffffffffffffff166345df777988886040518363ffffffff1660e01b8152600401610f16929190612e39565b600060405180830381600087803b158015610f3057600080fd5b505af1158015610f44573d6000803e3d6000fd5b5050505050505050505050565b610f59612161565b73ffffffffffffffffffffffffffffffffffffffff16610f776104cd565b73ffffffffffffffffffffffffffffffffffffffff1614610fcd576040517f08c379a0000000000000000000000000000000000000000000000000000000008152600401610fc490612f34565b60405180910390fd5b600073ffffffffffffffffffffffffffffffffffffffff168173ffffffffffffffffffffffffffffffffffffffff16141561103d576040517f08c379a000000000000000000000000000000000000000000000000000000000815260040161103490612f14565b60405180910390fd5b61104681612169565b50565b600160009054906101000a900473ffffffffffffffffffffffffffffffffffffffff1673ffffffffffffffffffffffffffffffffffffffff16637a67e6cc868686600260009054906101000a900473ffffffffffffffffffffffffffffffffffffffff1673ffffffffffffffffffffffffffffffffffffffff1663b6ca45958b8a8a8a6040518563ffffffff1660e01b81526004016110eb9493929190612e62565b602060405180830381600087803b15801561110557600080fd5b505af1158015611119573d6000803e3d6000fd5b505050506040513d601f19601f8201168201806040525081019061113d919061285a565b6040518563ffffffff1660e01b815260040161115c9493929190612daf565b600060405180830381600087803b15801561117657600080fd5b505af115801561118a573d6000803e3d6000fd5b505050505050505050565b61119d612161565b73ffffffffffffffffffffffffffffffffffffffff166111bb6104cd565b73ffffffffffffffffffffffffffffffffffffffff1614611211576040517f08c379a000000000000000000000000000000000000000000000000000000000815260040161120890612f34565b60405180910390fd5b600160009054906101000a900473ffffffffffffffffffffffffffffffffffffffff1673ffffffffffffffffffffffffffffffffffffffff1663f3963cba826040518263ffffffff1660e01b815260040161126c9190612d94565b600060405180830381600087803b15801561128657600080fd5b505af115801561129a573d6000803e3d6000fd5b5050505050565b606060008060005b600160009054906101000a900473ffffffffffffffffffffffffffffffffffffffff1673ffffffffffffffffffffffffffffffffffffffff1663c23a179f886040518263ffffffff1660e01b81526004016113049190612d94565b60206040518083038186803b15801561131c57600080fd5b505afa158015611330573d6000803e3d6000fd5b505050506040513d601f19601f82011682018060405250810190611354919061285a565b8160ff1610156116bc576000600160009054906101000a900473ffffffffffffffffffffffffffffffffffffffff1673ffffffffffffffffffffffffffffffffffffffff16639941556889846040518363ffffffff1660e01b81526004016113bd929190612ea7565b60206040518083038186803b1580156113d557600080fd5b505afa1580156113e9573d6000803e3d6000fd5b505050506040513d601f19601f8201168201806040525081019061140d919061285a565b90506000806000600160009054906101000a900473ffffffffffffffffffffffffffffffffffffffff1673ffffffffffffffffffffffffffffffffffffffff166356564b7c856040518263ffffffff1660e01b815260040161146f9190612f54565b60006040518083038186803b15801561148757600080fd5b505afa15801561149b573d6000803e3d6000fd5b505050506040513d6000823e3d601f19601f820116820180604052508101906114c49190612796565b94505093509350506000600260009054906101000a900473ffffffffffffffffffffffffffffffffffffffff1673ffffffffffffffffffffffffffffffffffffffff16637acc0b20836040518263ffffffff1660e01b81526004016115299190612f54565b60a06040518083038186803b15801561154157600080fd5b505afa158015611555573d6000803e3d6000fd5b505050506040513d601f19601f82011682018060405250810190611579919061268e565b5050925050506000600260009054906101000a900473ffffffffffffffffffffffffffffffffffffffff1673ffffffffffffffffffffffffffffffffffffffff16638a72ea6a836040518263ffffffff1660e01b81526004016115dc9190612f54565b60006040518083038186803b1580156115f457600080fd5b505afa158015611608573d6000803e3d6000fd5b505050506040513d6000823e3d601f19601f8201168201806040525081019061163191906125a4565b5050509150508b811015801561164757508a8111155b1561165b57888061165790613266565b9950505b8b851015801561166b57508a8511155b1561167f57888061167b90613266565b9950505b8b841015801561168f57508a8411155b156116a357888061169f90613266565b9950505b50505050505080806116b4906132af565b9150506112a9565b5060008267ffffffffffffffff8111156116d9576116d8613366565b5b60405190808252806020026020018201604052801561171257816020015b6116ff612247565b8152602001906001900390816116f75790505b50905060005b600160009054906101000a900473ffffffffffffffffffffffffffffffffffffffff1673ffffffffffffffffffffffffffffffffffffffff1663c23a179f896040518263ffffffff1660e01b81526004016117739190612d94565b60206040518083038186803b15801561178b57600080fd5b505afa15801561179f573d6000803e3d6000fd5b505050506040513d601f19601f820116820180604052508101906117c3919061285a565b811015612153576000600160009054906101000a900473ffffffffffffffffffffffffffffffffffffffff1673ffffffffffffffffffffffffffffffffffffffff1663994155688a846040518363ffffffff1660e01b8152600401611829929190612e39565b60206040518083038186803b15801561184157600080fd5b505afa158015611855573d6000803e3d6000fd5b505050506040513d601f19601f82011682018060405250810190611879919061285a565b90506000806000600160009054906101000a900473ffffffffffffffffffffffffffffffffffffffff1673ffffffffffffffffffffffffffffffffffffffff166356564b7c856040518263ffffffff1660e01b81526004016118db9190612f54565b60006040518083038186803b1580156118f357600080fd5b505afa158015611907573d6000803e3d6000fd5b505050506040513d6000823e3d601f19601f820116820180604052508101906119309190612796565b9450509350935050600080600260009054906101000a900473ffffffffffffffffffffffffffffffffffffffff1673ffffffffffffffffffffffffffffffffffffffff16637acc0b20846040518263ffffffff1660e01b81526004016119969190612f54565b60a06040518083038186803b1580156119ae57600080fd5b505afa1580156119c2573d6000803e3d6000fd5b505050506040513d601f19601f820116820180604052508101906119e6919061268e565b509350935050506000600260009054906101000a900473ffffffffffffffffffffffffffffffffffffffff1673ffffffffffffffffffffffffffffffffffffffff1663013cf08b836040518263ffffffff1660e01b8152600401611a4a9190612f54565b60006040518083038186803b158015611a6257600080fd5b505afa158015611a76573d6000803e3d6000fd5b505050506040513d6000823e3d601f19601f82011682018060405250810190611a9f9190612977565b509450505050506000600260009054906101000a900473ffffffffffffffffffffffffffffffffffffffff1673ffffffffffffffffffffffffffffffffffffffff16638a72ea6a856040518263ffffffff1660e01b8152600401611b039190612f54565b60006040518083038186803b158015611b1b57600080fd5b505afa158015611b2f573d6000803e3d6000fd5b505050506040513d6000823e3d601f19601f82011682018060405250810190611b5891906125a4565b5050509150508e8110158015611b6e57508d8111155b15611f5e576040518060400160405280600781526020017f4f666665723a20000000000000000000000000000000000000000000000000008152508a8c81518110611bbc57611bbb613337565b5b6020026020010151600001819052506000600260009054906101000a900473ffffffffffffffffffffffffffffffffffffffff1673ffffffffffffffffffffffffffffffffffffffff1663f8730a07866040518263ffffffff1660e01b8152600401611c289190612f54565b60206040518083038186803b158015611c4057600080fd5b505afa158015611c54573d6000803e3d6000fd5b505050506040513d601f19601f82011682018060405250810190611c78919061285a565b905060005b81811015611ed1576000600260009054906101000a900473ffffffffffffffffffffffffffffffffffffffff1673ffffffffffffffffffffffffffffffffffffffff1663013cf08b600260009054906101000a900473ffffffffffffffffffffffffffffffffffffffff1673ffffffffffffffffffffffffffffffffffffffff16637c8dd0d68a866040518363ffffffff1660e01b8152600401611d22929190612f6f565b60206040518083038186803b158015611d3a57600080fd5b505afa158015611d4e573d6000803e3d6000fd5b505050506040513d601f19601f82011682018060405250810190611d72919061285a565b6040518263ffffffff1660e01b8152600401611d8e9190612f54565b60006040518083038186803b158015611da657600080fd5b505afa158015611dba573d6000803e3d6000fd5b505050506040513d6000823e3d601f19601f82011682018060405250810190611de39190612977565b509450505050506000821415611e5a578c8e81518110611e0657611e05613337565b5b60200260200101516000015181604051602001611e24929190612d1f565b6040516020818303038152906040528d8f81518110611e4657611e45613337565b5b602002602001015160000181905250611ebd565b8c8e81518110611e6d57611e6c613337565b5b60200260200101516000015181604051602001611e8b929190612d43565b6040516020818303038152906040528d8f81518110611ead57611eac613337565b5b6020026020010151600001819052505b508080611ec990613266565b915050611c7d565b50818b8d81518110611ee657611ee5613337565b5b602002602001015160200181815250506040518060400160405280600581526020017f4f666665720000000000000000000000000000000000000000000000000000008152508b8d81518110611f3f57611f3e613337565b5b6020026020010151604001819052508b80611f5990613266565b9c5050505b8e8710158015611f6e57508d8711155b156120405781604051602001611f849190612d72565b6040516020818303038152906040528a8c81518110611fa657611fa5613337565b5b602002602001015160000181905250868a8c81518110611fc957611fc8613337565b5b602002602001015160200181815250506040518060400160405280600881526020017f41636365707465640000000000000000000000000000000000000000000000008152508a8c8151811061202257612021613337565b5b6020026020010151604001819052508a8061203c90613266565b9b50505b8e861015801561205057508d8611155b15612138576040518060400160405280600581526020017f546f7075700000000000000000000000000000000000000000000000000000008152508a8c8151811061209e5761209d613337565b5b602002602001015160000181905250858a8c815181106120c1576120c0613337565b5b602002602001015160200181815250506040518060400160405280600681526020017f436c6f73656400000000000000000000000000000000000000000000000000008152508a8c8151811061211a57612119613337565b5b6020026020010151604001819052508a8061213490613266565b9b50505b5050505050505050808061214b90613266565b915050611718565b508093505050509392505050565b600033905090565b60008060009054906101000a900473ffffffffffffffffffffffffffffffffffffffff169050816000806101000a81548173ffffffffffffffffffffffffffffffffffffffff021916908373ffffffffffffffffffffffffffffffffffffffff1602179055508173ffffffffffffffffffffffffffffffffffffffff168173ffffffffffffffffffffffffffffffffffffffff167f8be0079c531659141344cd1fd0a4f28419497f9722a3daafe3b4186f6b6457e060405160405180910390a35050565b604051806040016040528060008152602001600081525090565b60405180606001604052806060815260200160008152602001606081525090565b600061227b61227684613009565b612fe4565b9050828152602081018484840111156122975761229661339a565b5b6122a28482856131c9565b509392505050565b60006122bd6122b884613009565b612fe4565b9050828152602081018484840111156122d9576122d861339a565b5b6122e48482856131d8565b509392505050565b6000813590506122fb81613484565b92915050565b60008151905061231081613484565b92915050565b6000815190506123258161349b565b92915050565b60008151905061233a816134ab565b92915050565b60008151905061234f816134bb565b92915050565b600081519050612364816134cb565b92915050565b600081519050612379816134db565b92915050565b60008151905061238e816134eb565b92915050565b600082601f8301126123a9576123a8613395565b5b81356123b9848260208601612268565b91505092915050565b600082601f8301126123d7576123d6613395565b5b81516123e78482602086016122aa565b91505092915050565b6000813590506123ff816134fb565b92915050565b600081519050612414816134fb565b92915050565b60008135905061242981613512565b92915050565b60008151905061243e81613512565b92915050565b60006020828403121561245a576124596133a4565b5b6000612468848285016122ec565b91505092915050565b60008060408385031215612488576124876133a4565b5b6000612496858286016122ec565b925050602083013567ffffffffffffffff8111156124b7576124b661339f565b5b6124c385828601612394565b9150509250929050565b600080600080600060a086880312156124e9576124e86133a4565b5b60006124f7888289016122ec565b955050602086013567ffffffffffffffff8111156125185761251761339f565b5b61252488828901612394565b9450506040612535888289016123f0565b9350506060612546888289016123f0565b9250506080612557888289016123f0565b9150509295509295909350565b6000806040838503121561257b5761257a6133a4565b5b6000612589858286016122ec565b925050602061259a858286016123f0565b9150509250929050565b600080600080600060a086880312156125c0576125bf6133a4565b5b60006125ce88828901612301565b95505060206125df88828901612405565b94505060406125f08882890161232b565b935050606061260188828901612355565b925050608086015167ffffffffffffffff8111156126225761262161339f565b5b61262e888289016123c2565b9150509295509295909350565b600080600060608486031215612654576126536133a4565b5b6000612662868287016122ec565b9350506020612673868287016123f0565b9250506040612684868287016123f0565b9150509250925092565b600080600080600060a086880312156126aa576126a96133a4565b5b60006126b888828901612301565b95505060206126c988828901612405565b94505060406126da88828901612405565b93505060606126eb88828901612405565b92505060806126fc8882890161236a565b9150509295509295909350565b60008060008060008060c08789031215612726576127256133a4565b5b600061273489828a01612316565b965050602061274589828a0161242f565b955050604061275689828a01612405565b945050606061276789828a01612405565b935050608061277889828a01612405565b92505060a061278989828a01612405565b9150509295509295509295565b600080600080600060a086880312156127b2576127b16133a4565b5b600086015167ffffffffffffffff8111156127d0576127cf61339f565b5b6127dc888289016123c2565b95505060206127ed88828901612405565b94505060406127fe88828901612405565b935050606061280f88828901612340565b925050608061282088828901612405565b9150509295509295909350565b600060208284031215612843576128426133a4565b5b6000612851848285016123f0565b91505092915050565b6000602082840312156128705761286f6133a4565b5b600061287e84828501612405565b91505092915050565b6000806040838503121561289e5761289d6133a4565b5b60006128ac858286016123f0565b92505060206128bd858286016123f0565b9150509250929050565b6000602082840312156128dd576128dc6133a4565b5b60006128eb8482850161242f565b91505092915050565b6000806000806080858703121561290e5761290d6133a4565b5b600061291c8782880161241a565b945050602061292d878288016123f0565b935050604061293e878288016123f0565b925050606085013567ffffffffffffffff81111561295f5761295e61339f565b5b61296b87828801612394565b91505092959194509250565b60008060008060008060c08789031215612994576129936133a4565b5b60006129a289828a0161242f565b96505060206129b389828a01612405565b95505060406129c489828a01612405565b94505060606129d589828a01612405565b935050608087015167ffffffffffffffff8111156129f6576129f561339f565b5b612a0289828a016123c2565b92505060a0612a1389828a0161237f565b9150509295509295509295565b6000612a2c8383612c5d565b905092915050565b6000612a408383612cb4565b60408301905092915050565b612a558161316e565b82525050565b6000612a668261305a565b612a708185613095565b935083602082028501612a828561303a565b8060005b85811015612abe5784840389528151612a9f8582612a20565b9450612aaa8361307b565b925060208a01995050600181019050612a86565b50829750879550505050505092915050565b6000612adb82613065565b612ae581856130a6565b9350612af08361304a565b8060005b83811015612b21578151612b088882612a34565b9750612b1383613088565b925050600181019050612af4565b5085935050505092915050565b6000612b3982613070565b612b4381856130b7565b9350612b538185602086016131d8565b612b5c816133a9565b840191505092915050565b6000612b7282613070565b612b7c81856130c8565b9350612b8c8185602086016131d8565b612b95816133a9565b840191505092915050565b6000612bab82613070565b612bb581856130d9565b9350612bc58185602086016131d8565b80840191505092915050565b6000612bde6026836130c8565b9150612be9826133ba565b604082019050919050565b6000612c01600a836130d9565b9150612c0c82613409565b600a82019050919050565b6000612c246020836130c8565b9150612c2f82613432565b602082019050919050565b6000612c476003836130d9565b9150612c528261345b565b600382019050919050565b60006060830160008301518482036000860152612c7a8282612b2e565b9150506020830151612c8f6020860182612ce3565b5060408301518482036040860152612ca78282612b2e565b9150508091505092915050565b604082016000820151612cca6000850182612ce3565b506020820151612cdd6020850182612ce3565b50505050565b612cec816131a0565b82525050565b612cfb816131a0565b82525050565b612d0a816131b7565b82525050565b612d19816131aa565b82525050565b6000612d2b8285612ba0565b9150612d378284612ba0565b91508190509392505050565b6000612d4f8285612ba0565b9150612d5a82612c3a565b9150612d668284612ba0565b91508190509392505050565b6000612d7d82612bf4565b9150612d898284612ba0565b915081905092915050565b6000602082019050612da96000830184612a4c565b92915050565b6000608082019050612dc46000830187612a4c565b8181036020830152612dd68186612b67565b9050612de56040830185612cf2565b612df26060830184612cf2565b95945050505050565b6000606082019050612e106000830186612a4c565b8181036020830152612e228185612b67565b9050612e316040830184612d10565b949350505050565b6000604082019050612e4e6000830185612a4c565b612e5b6020830184612cf2565b9392505050565b6000608082019050612e776000830187612a4c565b612e846020830186612cf2565b612e916040830185612cf2565b612e9e6060830184612cf2565b95945050505050565b6000604082019050612ebc6000830185612a4c565b612ec96020830184612d01565b9392505050565b60006020820190508181036000830152612eea8184612a5b565b905092915050565b60006020820190508181036000830152612f0c8184612ad0565b905092915050565b60006020820190508181036000830152612f2d81612bd1565b9050919050565b60006020820190508181036000830152612f4d81612c17565b9050919050565b6000602082019050612f696000830184612cf2565b92915050565b6000604082019050612f846000830185612cf2565b612f916020830184612cf2565b9392505050565b6000608082019050612fad6000830187612d10565b612fba6020830186612cf2565b612fc76040830185612cf2565b8181036060830152612fd98184612b67565b905095945050505050565b6000612fee612fff565b9050612ffa8282613235565b919050565b6000604051905090565b600067ffffffffffffffff82111561302457613023613366565b5b61302d826133a9565b9050602081019050919050565b6000819050602082019050919050565b6000819050602082019050919050565b600081519050919050565b600081519050919050565b600081519050919050565b6000602082019050919050565b6000602082019050919050565b600082825260208201905092915050565b600082825260208201905092915050565b600082825260208201905092915050565b600082825260208201905092915050565b600081905092915050565b60006130ef826131a0565b91506130fa836131a0565b9250827fffffffffffffffffffffffffffffffffffffffffffffffffffffffffffffffff0382111561312f5761312e6132d9565b5b828201905092915050565b6000613145826131a0565b9150613150836131a0565b925082821015613163576131626132d9565b5b828203905092915050565b600061317982613180565b9050919050565b600073ffffffffffffffffffffffffffffffffffffffff82169050919050565b6000819050919050565b600060ff82169050919050565b60006131c2826131aa565b9050919050565b82818337600083830152505050565b60005b838110156131f65780820151818401526020810190506131db565b83811115613205576000848401525b50505050565b6000613216826131a0565b9150600082141561322a576132296132d9565b5b600182039050919050565b61323e826133a9565b810181811067ffffffffffffffff8211171561325d5761325c613366565b5b80604052505050565b6000613271826131a0565b91507fffffffffffffffffffffffffffffffffffffffffffffffffffffffffffffffff8214156132a4576132a36132d9565b5b600182019050919050565b60006132ba826131aa565b915060ff8214156132ce576132cd6132d9565b5b600182019050919050565b7f4e487b7100000000000000000000000000000000000000000000000000000000600052601160045260246000fd5b7f4e487b7100000000000000000000000000000000000000000000000000000000600052602160045260246000fd5b7f4e487b7100000000000000000000000000000000000000000000000000000000600052603260045260246000fd5b7f4e487b7100000000000000000000000000000000000000000000000000000000600052604160045260246000fd5b600080fd5b600080fd5b600080fd5b600080fd5b6000601f19601f8301169050919050565b7f4f776e61626c653a206e6577206f776e657220697320746865207a65726f206160008201527f6464726573730000000000000000000000000000000000000000000000000000602082015250565b7f41636365707465643a2000000000000000000000000000000000000000000000600082015250565b7f4f776e61626c653a2063616c6c6572206973206e6f7420746865206f776e6572600082015250565b7f202f200000000000000000000000000000000000000000000000000000000000600082015250565b61348d8161316e565b811461349857600080fd5b50565b600281106134a857600080fd5b50565b600581106134b857600080fd5b50565b600281106134c857600080fd5b50565b600281106134d857600080fd5b50565b600281106134e857600080fd5b50565b600281106134f857600080fd5b50565b613504816131a0565b811461350f57600080fd5b50565b61351b816131aa565b811461352657600080fd5b5056fea26469706673582212209b772311018727292541488f23fa3d82722d8316f919dfb8bdb2ea8573cf7d9464736f6c63430008060033",
  "immutableReferences": {},
  "source": "// SPDX-License-Identifier: MIT\npragma solidity ^0.8.6;\n\nimport \"./Billing.sol\";\nimport \"./Offering.sol\";\nimport \"@openzeppelin/contracts/access/Ownable.sol\";\n\n/**\n * @title This Smart Contract is the entry point of Timelapse.\n * @notice Communicate with API(server/watcher) part and dApp\n * @author Keeymon, DavidRochus\n */\ncontract Timelapse is Ownable {\n\n    /**\n      * @dev Customer Billing Activity\n      */\n    Billing billing;\n\n    /**\n      * @dev Customer Offering Activity\n      */\n    Offering offering;\n\n    /**\n     * @dev Customer Activity\n     */\n    struct CustomerActivity {\n        string log;\n        uint256 timestamp;\n        string status;\n    }\n\n    /**\n     * @dev Invoice information\n     */\n    struct Invoice {\n        uint256 totalCapital;\n        uint256 totalInterest;\n    }\n\n    /**\n     * @dev Smart Contract constructor\n     */\n    constructor(address _billingAddress, address _offeringAddress) {\n        billing = Billing(_billingAddress);\n        offering = Offering(_offeringAddress);\n    }\n\n    /**\n      * @notice Add a proposal\n      * @param _minScoring The minimum score needed by customer to receive this proposal\n      * @param _capital Capital part of the proposal amount\n      * @param _interest Interest part of the proposal amount\n      * @param _description A description of the proposal\n      * @dev Add a proposal with the following information: minimum scoring `_minScoring`, amount `_capital` + `_interest`, description `_description`\n      */\n    function addProposal(\n        uint8 _minScoring,\n        uint256 _capital,\n        uint256 _interest,\n        string memory _description\n    ) public onlyOwner {\n        offering.addProposal(_minScoring, _capital, _interest, _description);\n    }\n\n    /**\n      * @notice Close a proposal\n      * @param _id ID of the proposal to close\n      * @dev Close the proposal with the ID `_id`\n      */\n    function closedProposal(uint256 _id) public onlyOwner {\n        offering.closedProposal(_id);\n    }\n\n    /**\n      * @notice Increase scoring information of a customer\n      * @param _phoneHash The address that identifies to the customer\n      * @dev This function is directly called when API receives a topUp for a customer (identified with `_phoneHash`) with a target other than Timelapse\n      */\n    function addToScore(address _phoneHash) public onlyOwner {\n        billing.addToScore(_phoneHash);\n    }\n\n    /**\n      * @notice Accept the offer\n      * @param _phoneHash The address that identifies to the customer\n      * @param _ref Reference of the telecom provider\n      * @param _acceptanceTimestamp Timestamp of the acceptance\n      * @param _idOffer ID of the offer\n      * @param _idProposal ID of the proposal\n      * @dev Accept the offer `_idOffer` (By choosing proposal `_idProposal`) of a customer (identified with `_phoneHash`) with reference `_ref` at timestamp `_acceptanceTimestamp`\n      */\n    //function acceptance(address _phoneHash, string memory _ref, uint _acceptanceTimestamp, uint256 _idOffer, uint256 _idProposal) public activeCustomer(_phoneHash) {\n    function acceptance(address _phoneHash, string memory _ref, uint _acceptanceTimestamp, uint256 _idOffer, uint256 _idProposal) public {\n        billing.acceptanceBilling(_phoneHash, _ref, _acceptanceTimestamp, offering.createProduct(_phoneHash, _acceptanceTimestamp, _idOffer, _idProposal));\n    }\n\n     /**\n      * @notice TopUp the last product of a customer\n      * @param _phoneHash The address that identifies to the customer\n      * @param _paidTimestamp Timestamp of the acceptance\n      * @dev TopUp the last product of a customer (identified with `_phoneHash`) at timestamp `_paidTimestamp`\n      */\n    //function topUp(address _phoneHash, uint _paidTimestamp) public onlyOwner activeCustomer(_phoneHash) {\n    function topUp(address _phoneHash, uint _paidTimestamp) public onlyOwner {\n        (,,,,,uint256 lastAcceptanceID) = billing.customers(_phoneHash);\n        //(,,,,uint256 idProduct) = billing.histories(_phoneHash, lastAcceptanceID);\n        (,,,,uint256 idProduct) = billing.histories(lastAcceptanceID);\n        (,,,uint256 idProposal,) = offering.products(idProduct);\n        (,uint256 capital,uint256 interest,,,) = offering.proposals(idProposal);\n        billing.addToCustomerAmount(_phoneHash, capital + interest);\n\n        billing.addToScore(_phoneHash);\n        billing.topUpBilling(_phoneHash, _paidTimestamp);\n    }\n\n    /**\n      * @notice Manage the \"low balances\" received and generate an offer\n      * @param _phoneHash The address that identifies to the customer\n      * @param _ref Reference of the telecom provider\n      * @dev Manage lowBalance (with reference `_ref`) of a customer (identified with `_phoneHash`)\n      */\n    function lowBalance(address _phoneHash, string memory _ref) public {\n        offering.lowBalanceOffering(_phoneHash, _ref, billing.getScore(_phoneHash));\n    }\n\n    /**\n      * @notice Get customer activities log\n      * @param _phoneHash The address that identifies to the customer\n      * @param _startTimestamp Start of the search timeframe\n      * @param _endTimestamp End of the search timeframe\n      * @return Score The computed customer score \n      * @dev Get activities log of a customer (identified with `_phoneHash`)\n      */\n    function getCustomerActivitiesLog(address _phoneHash, uint256 _startTimestamp, uint256 _endTimestamp) public view returns(CustomerActivity[] memory) {\n         uint256 customerActivitiesSize;\n         uint256 customerActivitiesIndex;\n\n        for (uint8 i = 0; i < billing.getHistorySize(_phoneHash); i++) {\n            //(,uint256 acceptanceTimestamp, uint256 paidTimestamp,,uint256 idProduct) = billing.histories(_phoneHash, i);\n            uint256 historyIndex = billing.historyList(_phoneHash, i);\n            (,uint256 acceptanceTimestamp, uint256 paidTimestamp,,uint256 idProduct) = billing.histories(historyIndex);\n            (,,uint256 idOffer,,) = offering.products(idProduct);\n            (,uint timestamp,,,) = offering.offers(idOffer);\n            if(timestamp >= _startTimestamp && timestamp <= _endTimestamp) {\n                customerActivitiesSize++;\n            }\n            if(acceptanceTimestamp >= _startTimestamp && acceptanceTimestamp <= _endTimestamp) {\n                customerActivitiesSize++;\n            }\n            if(paidTimestamp >= _startTimestamp && paidTimestamp <= _endTimestamp) {\n                customerActivitiesSize++;\n            }\n        }\n        CustomerActivity[] memory customerActivities = new CustomerActivity[](customerActivitiesSize);\n        for (uint256 i = 0; i < billing.getHistorySize(_phoneHash); i++) {\n            //(,uint256 acceptanceTimestamp, uint256 paidTimestamp,,uint256 idProduct) = billing.histories(_phoneHash, i);\n            uint256 historyIndex = billing.historyList(_phoneHash, i);\n            (,uint256 acceptanceTimestamp, uint256 paidTimestamp,,uint256 idProduct) = billing.histories(historyIndex);\n            (,,uint256 idOffer,uint256 idProposal,) = offering.products(idProduct);\n            (,,,,string memory descriptionProposal,) = offering.proposals(idProposal);\n            (,uint timestamp,,,) = offering.offers(idOffer);\n            if(timestamp >= _startTimestamp && timestamp <= _endTimestamp) {\n                customerActivities[customerActivitiesIndex].log = \"Offer: \";\n                uint256 numberProposal = offering.getSizeProposalOffer(idOffer);\n                for (uint256 j = 0; j < numberProposal; j++) {\n                    (,,,,string memory description,) = offering.proposals(offering.getIndexProposalOffer(idOffer, j));\n                    if(j == 0) { \n                        customerActivities[customerActivitiesIndex].log = string(abi.encodePacked(customerActivities[customerActivitiesIndex].log, description));\n                    } else {\n                        customerActivities[customerActivitiesIndex].log = string(abi.encodePacked(customerActivities[customerActivitiesIndex].log, \" / \", description));\n                    }\n                }\n\n                customerActivities[customerActivitiesIndex].timestamp = timestamp;\n                customerActivities[customerActivitiesIndex].status = \"Offer\";\n                customerActivitiesIndex++;\n            }\n\n            if(acceptanceTimestamp >= _startTimestamp && acceptanceTimestamp <= _endTimestamp) {\n                customerActivities[customerActivitiesIndex].log = string(abi.encodePacked(\"Accepted: \", descriptionProposal));\n                customerActivities[customerActivitiesIndex].timestamp = acceptanceTimestamp;\n                customerActivities[customerActivitiesIndex].status = \"Accepted\";\n                customerActivitiesIndex++;\n            }\n\n            if(paidTimestamp >= _startTimestamp && paidTimestamp <= _endTimestamp) {\n                customerActivities[customerActivitiesIndex].log = \"Topup\";\n                customerActivities[customerActivitiesIndex].timestamp = paidTimestamp;\n                customerActivities[customerActivitiesIndex].status = \"Closed\";\n                customerActivitiesIndex++;\n            }\n        }\n        return customerActivities;\n    }\n\n    /**\n      * @notice Generate invoicing for a given period\n      * @param _startTimestamp Start of the invoicing period\n      * @param _endTimestamp End of the invoicing period\n      * @return The invoice \n      * @dev Generate invoicing for a given period (between _startTimestamp and _endTimestamp)\n      */\n    function generateInvoicing(uint256 _startTimestamp, uint256 _endTimestamp) public view returns(Invoice[] memory) {\n        uint256 invoiceSize;\n        uint256 invoiceIndex;\n        bool outOfInvoicingWindow;\n        // In POC context, we will only use 1 global invoice. In the next phases, additional invoice could be returned for a given period\n        invoiceSize = 1;\n        Invoice[] memory invoice = new Invoice[](invoiceSize);\n\n        // invoice[invoiceIndex].totalCapital = 500;\n        // invoice[invoiceIndex].totalInterest = 100;\n\n        //for (uint256 i = (billing.getHistoriesSize() - 1); i >= 0 && !outOfInvoicingWindow; i--) {\n        for (uint256 i = billing.getHistoriesSize(); i > 0 && !(outOfInvoicingWindow); i--) {\n            (,, uint256 paidTimestamp, Billing.HistoryStatus status, uint256 idProduct) = billing.histories(i-1);\n            \n            if(paidTimestamp < _startTimestamp){\n                outOfInvoicingWindow = true;\n            }\n            if(paidTimestamp >= _startTimestamp && paidTimestamp <= _endTimestamp && status == Billing.HistoryStatus.Closed){\n                (,,,uint256 idProposal,) = offering.products(idProduct);\n                (,uint256 capital,uint256 interest,,,) = offering.proposals(idProposal);\n                invoice[invoiceIndex].totalCapital += capital;\n                invoice[invoiceIndex].totalInterest += interest;\n            }\n        }\n\n        return invoice;\n    }\n}",
  "sourcePath": "/Users/davidrochus/Dev/workspace/timelapse/contracts/Timelapse.sol",
  "compiler": {
    "name": "solc",
    "version": "0.8.6+commit.11564f7e.Emscripten.clang"
  },
  "schemaVersion": "3.4.1",
  "updatedAt": "2021-07-21T07:45:01.031Z",
  "networkType": "ethereum",
  "devdoc": {
    "author": "Keeymon, DavidRochus",
    "kind": "dev",
    "methods": {
      "acceptance(address,string,uint256,uint256,uint256)": {
        "details": "Accept the offer `_idOffer` (By choosing proposal `_idProposal`) of a customer (identified with `_phoneHash`) with reference `_ref` at timestamp `_acceptanceTimestamp`",
        "params": {
          "_acceptanceTimestamp": "Timestamp of the acceptance",
          "_idOffer": "ID of the offer",
          "_idProposal": "ID of the proposal",
          "_phoneHash": "The address that identifies to the customer",
          "_ref": "Reference of the telecom provider"
        }
      },
      "addProposal(uint8,uint256,uint256,string)": {
        "details": "Add a proposal with the following information: minimum scoring `_minScoring`, amount `_capital` + `_interest`, description `_description`",
        "params": {
          "_capital": "Capital part of the proposal amount",
          "_description": "A description of the proposal",
          "_interest": "Interest part of the proposal amount",
          "_minScoring": "The minimum score needed by customer to receive this proposal"
        }
      },
      "addToScore(address)": {
        "details": "This function is directly called when API receives a topUp for a customer (identified with `_phoneHash`) with a target other than Timelapse",
        "params": {
          "_phoneHash": "The address that identifies to the customer"
        }
      },
      "closedProposal(uint256)": {
        "details": "Close the proposal with the ID `_id`",
        "params": {
          "_id": "ID of the proposal to close"
        }
      },
      "constructor": {
        "details": "Smart Contract constructor"
      },
      "generateInvoicing(uint256,uint256)": {
        "details": "Generate invoicing for a given period (between _startTimestamp and _endTimestamp)",
        "params": {
          "_endTimestamp": "End of the invoicing period",
          "_startTimestamp": "Start of the invoicing period"
        },
        "returns": {
          "_0": "The invoice "
        }
      },
      "getCustomerActivitiesLog(address,uint256,uint256)": {
        "details": "Get activities log of a customer (identified with `_phoneHash`)",
        "params": {
          "_endTimestamp": "End of the search timeframe",
          "_phoneHash": "The address that identifies to the customer",
          "_startTimestamp": "Start of the search timeframe"
        },
        "returns": {
          "_0": "Score The computed customer score "
        }
      },
      "lowBalance(address,string)": {
        "details": "Manage lowBalance (with reference `_ref`) of a customer (identified with `_phoneHash`)",
        "params": {
          "_phoneHash": "The address that identifies to the customer",
          "_ref": "Reference of the telecom provider"
        }
      },
      "owner()": {
        "details": "Returns the address of the current owner."
      },
      "renounceOwnership()": {
        "details": "Leaves the contract without owner. It will not be possible to call `onlyOwner` functions anymore. Can only be called by the current owner. NOTE: Renouncing ownership will leave the contract without an owner, thereby removing any functionality that is only available to the owner."
      },
      "topUp(address,uint256)": {
        "details": "TopUp the last product of a customer (identified with `_phoneHash`) at timestamp `_paidTimestamp`",
        "params": {
          "_paidTimestamp": "Timestamp of the acceptance",
          "_phoneHash": "The address that identifies to the customer"
        }
      },
      "transferOwnership(address)": {
        "details": "Transfers ownership of the contract to a new account (`newOwner`). Can only be called by the current owner."
      }
    },
    "stateVariables": {
      "billing": {
        "details": "Customer Billing Activity"
      },
      "offering": {
        "details": "Customer Offering Activity"
      }
    },
    "title": "This Smart Contract is the entry point of Timelapse.",
    "version": 1
  },
  "userdoc": {
    "kind": "user",
    "methods": {
      "acceptance(address,string,uint256,uint256,uint256)": {
        "notice": "Accept the offer"
      },
      "addProposal(uint8,uint256,uint256,string)": {
        "notice": "Add a proposal"
      },
      "addToScore(address)": {
        "notice": "Increase scoring information of a customer"
      },
      "closedProposal(uint256)": {
        "notice": "Close a proposal"
      },
      "generateInvoicing(uint256,uint256)": {
        "notice": "Generate invoicing for a given period"
      },
      "getCustomerActivitiesLog(address,uint256,uint256)": {
        "notice": "Get customer activities log"
      },
      "lowBalance(address,string)": {
        "notice": "Manage the \"low balances\" received and generate an offer"
      },
      "topUp(address,uint256)": {
        "notice": "TopUp the last product of a customer"
      }
    },
    "notice": "Communicate with API(server/watcher) part and dApp",
    "version": 1
  }
}