{
  "contractName": "Timelapse",
  "abi": [
    {
      "inputs": [],
      "stateMutability": "nonpayable",
      "type": "constructor"
    },
    {
      "anonymous": false,
      "inputs": [
        {
          "indexed": false,
          "internalType": "address",
          "name": "phoneHash",
          "type": "address"
        },
        {
          "indexed": false,
          "internalType": "uint256",
          "name": "offerId",
          "type": "uint256"
        },
        {
          "indexed": false,
          "internalType": "uint256",
          "name": "proposalId",
          "type": "uint256"
        }
      ],
      "name": "AcceptanceReceived",
      "type": "event"
    },
    {
      "anonymous": false,
      "inputs": [
        {
          "indexed": false,
          "internalType": "address",
          "name": "phoneHash",
          "type": "address"
        },
        {
          "indexed": false,
          "internalType": "string",
          "name": "ref",
          "type": "string"
        },
        {
          "indexed": false,
          "internalType": "uint256",
          "name": "acceptanceTimestamp",
          "type": "uint256"
        },
        {
          "indexed": false,
          "internalType": "uint256",
          "name": "idOffer",
          "type": "uint256"
        },
        {
          "indexed": false,
          "internalType": "uint256",
          "name": "idProposal",
          "type": "uint256"
        }
      ],
      "name": "AcceptanceReceived",
      "type": "event"
    },
    {
      "anonymous": false,
      "inputs": [
        {
          "indexed": false,
          "internalType": "address",
          "name": "phoneHash",
          "type": "address"
        },
        {
          "indexed": false,
          "internalType": "string",
          "name": "ref",
          "type": "string"
        }
      ],
      "name": "Acknowledge",
      "type": "event"
    },
    {
      "anonymous": false,
      "inputs": [
        {
          "indexed": false,
          "internalType": "address",
          "name": "phoneHash",
          "type": "address"
        },
        {
          "indexed": false,
          "internalType": "uint256",
          "name": "productId",
          "type": "uint256"
        },
        {
          "indexed": false,
          "internalType": "uint256",
          "name": "amount",
          "type": "uint256"
        }
      ],
      "name": "AcknowledgeSent",
      "type": "event"
    },
    {
      "anonymous": false,
      "inputs": [
        {
          "indexed": false,
          "internalType": "address",
          "name": "phoneHash",
          "type": "address"
        },
        {
          "indexed": false,
          "internalType": "string",
          "name": "ref",
          "type": "string"
        },
        {
          "indexed": false,
          "internalType": "uint256",
          "name": "acceptanceTimestamp",
          "type": "uint256"
        },
        {
          "indexed": false,
          "internalType": "uint256",
          "name": "idOffer",
          "type": "uint256"
        },
        {
          "indexed": false,
          "internalType": "uint256",
          "name": "idProposal",
          "type": "uint256"
        }
      ],
      "name": "Confirmation",
      "type": "event"
    },
    {
      "anonymous": false,
      "inputs": [
        {
          "indexed": false,
          "internalType": "uint256",
          "name": "productId",
          "type": "uint256"
        },
        {
          "indexed": false,
          "internalType": "uint256",
          "name": "offerId",
          "type": "uint256"
        },
        {
          "indexed": false,
          "internalType": "address",
          "name": "phoneHash",
          "type": "address"
        },
        {
          "indexed": false,
          "internalType": "uint256",
          "name": "timestamp",
          "type": "uint256"
        }
      ],
      "name": "ConfirmationSent",
      "type": "event"
    },
    {
      "anonymous": false,
      "inputs": [
        {
          "indexed": false,
          "internalType": "address",
          "name": "phoneHash",
          "type": "address"
        }
      ],
      "name": "CustomerIsDeleted",
      "type": "event"
    },
    {
      "anonymous": false,
      "inputs": [
        {
          "indexed": false,
          "internalType": "address",
          "name": "phoneHash",
          "type": "address"
        },
        {
          "indexed": false,
          "internalType": "string",
          "name": "ref",
          "type": "string"
        }
      ],
      "name": "LowBalanceReceived",
      "type": "event"
    },
    {
      "anonymous": false,
      "inputs": [
        {
          "indexed": false,
          "internalType": "uint256",
          "name": "offerId",
          "type": "uint256"
        },
        {
          "indexed": false,
          "internalType": "address",
          "name": "phoneHash",
          "type": "address"
        },
        {
          "indexed": false,
          "internalType": "uint256",
          "name": "timestamp",
          "type": "uint256"
        },
        {
          "indexed": false,
          "internalType": "enum Offering.EligibilityReason",
          "name": "reason",
          "type": "uint8"
        },
        {
          "indexed": false,
          "internalType": "uint256[]",
          "name": "proposals",
          "type": "uint256[]"
        },
        {
          "indexed": false,
          "internalType": "uint256",
          "name": "scoring",
          "type": "uint256"
        },
        {
          "indexed": false,
          "internalType": "string",
          "name": "ref",
          "type": "string"
        }
      ],
      "name": "OfferSent",
      "type": "event"
    },
    {
      "anonymous": false,
      "inputs": [
        {
          "indexed": true,
          "internalType": "address",
          "name": "previousOwner",
          "type": "address"
        },
        {
          "indexed": true,
          "internalType": "address",
          "name": "newOwner",
          "type": "address"
        }
      ],
      "name": "OwnershipTransferred",
      "type": "event"
    },
    {
      "anonymous": false,
      "inputs": [
        {
          "indexed": false,
          "internalType": "uint256",
          "name": "proposalId",
          "type": "uint256"
        },
        {
          "indexed": false,
          "internalType": "uint8",
          "name": "minScoring",
          "type": "uint8"
        },
        {
          "indexed": false,
          "internalType": "uint256",
          "name": "capital",
          "type": "uint256"
        },
        {
          "indexed": false,
          "internalType": "uint256",
          "name": "interest",
          "type": "uint256"
        },
        {
          "indexed": false,
          "internalType": "string",
          "name": "description",
          "type": "string"
        }
      ],
      "name": "ProposalAdded",
      "type": "event"
    },
    {
      "anonymous": false,
      "inputs": [
        {
          "indexed": false,
          "internalType": "address",
          "name": "phoneHash",
          "type": "address"
        },
        {
          "indexed": false,
          "internalType": "uint8",
          "name": "score",
          "type": "uint8"
        }
      ],
      "name": "ScoreChange",
      "type": "event"
    },
    {
      "anonymous": false,
      "inputs": [
        {
          "indexed": false,
          "internalType": "address",
          "name": "phoneHash",
          "type": "address"
        },
        {
          "indexed": false,
          "internalType": "uint256",
          "name": "productId",
          "type": "uint256"
        },
        {
          "indexed": false,
          "internalType": "uint256",
          "name": "amount",
          "type": "uint256"
        }
      ],
      "name": "TopUpReceived",
      "type": "event"
    },
    {
      "anonymous": false,
      "inputs": [
        {
          "indexed": false,
          "internalType": "address",
          "name": "phoneHash",
          "type": "address"
        },
        {
          "indexed": false,
          "internalType": "string",
          "name": "ref",
          "type": "string"
        }
      ],
      "name": "TopUpReceived",
      "type": "event"
    },
    {
      "inputs": [
        {
          "internalType": "address",
          "name": "_phoneHash",
          "type": "address"
        },
        {
          "internalType": "string",
          "name": "_ref",
          "type": "string"
        },
        {
          "internalType": "uint256",
          "name": "_acceptanceTimestamp",
          "type": "uint256"
        },
        {
          "internalType": "uint256",
          "name": "idOffer",
          "type": "uint256"
        },
        {
          "internalType": "uint256",
          "name": "idProposal",
          "type": "uint256"
        }
      ],
      "name": "acceptance",
      "outputs": [],
      "stateMutability": "nonpayable",
      "type": "function"
    },
    {
      "inputs": [
        {
          "internalType": "uint8",
          "name": "_minScoring",
          "type": "uint8"
        },
        {
          "internalType": "uint256",
          "name": "_capital",
          "type": "uint256"
        },
        {
          "internalType": "uint256",
          "name": "_interest",
          "type": "uint256"
        },
        {
          "internalType": "string",
          "name": "_description",
          "type": "string"
        }
      ],
      "name": "addProposal",
      "outputs": [],
      "stateMutability": "nonpayable",
      "type": "function"
    },
    {
      "inputs": [
        {
          "internalType": "address",
          "name": "_phoneHash",
          "type": "address"
        },
        {
          "internalType": "uint8",
          "name": "_score",
          "type": "uint8"
        }
      ],
      "name": "changeScore",
      "outputs": [],
      "stateMutability": "nonpayable",
      "type": "function"
    },
    {
      "inputs": [
        {
          "internalType": "uint256",
          "name": "_id",
          "type": "uint256"
        }
      ],
      "name": "closedProposal",
      "outputs": [],
      "stateMutability": "nonpayable",
      "type": "function"
    },
    {
      "inputs": [
        {
          "internalType": "address",
          "name": "",
          "type": "address"
        }
      ],
      "name": "customers",
      "outputs": [
        {
          "internalType": "enum Billing.CustomerStatus",
          "name": "status",
          "type": "uint8"
        },
        {
          "internalType": "uint8",
          "name": "score",
          "type": "uint8"
        }
      ],
      "stateMutability": "view",
      "type": "function"
    },
    {
      "inputs": [
        {
          "internalType": "uint8",
          "name": "_scoring",
          "type": "uint8"
        }
      ],
      "name": "getOfferProposals",
      "outputs": [
        {
          "internalType": "uint256[]",
          "name": "",
          "type": "uint256[]"
        }
      ],
      "stateMutability": "view",
      "type": "function"
    },
    {
      "inputs": [],
      "name": "getUniqueId",
      "outputs": [
        {
          "internalType": "address",
          "name": "",
          "type": "address"
        }
      ],
      "stateMutability": "nonpayable",
      "type": "function"
    },
    {
      "inputs": [
        {
          "internalType": "address",
          "name": "_phoneHash",
          "type": "address"
        }
      ],
      "name": "isActiveCustomer",
      "outputs": [
        {
          "internalType": "bool",
          "name": "",
          "type": "bool"
        }
      ],
      "stateMutability": "view",
      "type": "function"
    },
    {
      "inputs": [
        {
          "internalType": "address",
          "name": "_phoneHash",
          "type": "address"
        },
        {
          "internalType": "string",
          "name": "_ref",
          "type": "string"
        },
        {
          "internalType": "uint8",
          "name": "_score",
          "type": "uint8"
        }
      ],
      "name": "lowBalanceOffering",
      "outputs": [],
      "stateMutability": "nonpayable",
      "type": "function"
    },
    {
      "inputs": [
        {
          "internalType": "uint256",
          "name": "",
          "type": "uint256"
        }
      ],
      "name": "offers",
      "outputs": [
        {
          "internalType": "address",
          "name": "phoneHash",
          "type": "address"
        },
        {
          "internalType": "uint256",
          "name": "timestamp",
          "type": "uint256"
        },
        {
          "internalType": "enum Offering.EligibilityReason",
          "name": "reason",
          "type": "uint8"
        },
        {
          "internalType": "enum Offering.OfferStatus",
          "name": "status",
          "type": "uint8"
        },
        {
          "internalType": "string",
          "name": "ref",
          "type": "string"
        }
      ],
      "stateMutability": "view",
      "type": "function"
    },
    {
      "inputs": [],
      "name": "owner",
      "outputs": [
        {
          "internalType": "address",
          "name": "",
          "type": "address"
        }
      ],
      "stateMutability": "view",
      "type": "function"
    },
    {
      "inputs": [
        {
          "internalType": "uint256",
          "name": "_previousScore",
          "type": "uint256"
        },
        {
          "internalType": "uint256",
          "name": "_acceptanceTimestamp",
          "type": "uint256"
        },
        {
          "internalType": "uint256",
          "name": "_paidTimestamp",
          "type": "uint256"
        }
      ],
      "name": "process",
      "outputs": [
        {
          "internalType": "uint8",
          "name": "",
          "type": "uint8"
        }
      ],
      "stateMutability": "view",
      "type": "function"
    },
    {
      "inputs": [
        {
          "internalType": "uint256",
          "name": "",
          "type": "uint256"
        }
      ],
      "name": "products",
      "outputs": [
        {
          "internalType": "address",
          "name": "phoneHash",
          "type": "address"
        },
        {
          "internalType": "uint256",
          "name": "timestamp",
          "type": "uint256"
        },
        {
          "internalType": "uint256",
          "name": "offerId",
          "type": "uint256"
        },
        {
          "internalType": "uint256",
          "name": "proposalId",
          "type": "uint256"
        },
        {
          "internalType": "uint256",
          "name": "topUpAmount",
          "type": "uint256"
        },
        {
          "internalType": "enum Offering.ProductStatus",
          "name": "status",
          "type": "uint8"
        }
      ],
      "stateMutability": "view",
      "type": "function"
    },
    {
      "inputs": [
        {
          "internalType": "uint256",
          "name": "",
          "type": "uint256"
        }
      ],
      "name": "proposals",
      "outputs": [
        {
          "internalType": "uint8",
          "name": "minScoring",
          "type": "uint8"
        },
        {
          "internalType": "uint256",
          "name": "capital",
          "type": "uint256"
        },
        {
          "internalType": "uint256",
          "name": "interest",
          "type": "uint256"
        },
        {
          "internalType": "uint256",
          "name": "validityPeriod",
          "type": "uint256"
        },
        {
          "internalType": "string",
          "name": "description",
          "type": "string"
        },
        {
          "internalType": "enum Offering.ProposalStatus",
          "name": "status",
          "type": "uint8"
        }
      ],
      "stateMutability": "view",
      "type": "function"
    },
    {
      "inputs": [],
      "name": "proposalsCount",
      "outputs": [
        {
          "internalType": "uint256",
          "name": "",
          "type": "uint256"
        }
      ],
      "stateMutability": "view",
      "type": "function"
    },
    {
      "inputs": [],
      "name": "renounceOwnership",
      "outputs": [],
      "stateMutability": "nonpayable",
      "type": "function"
    },
    {
      "inputs": [
        {
          "internalType": "address",
          "name": "_phoneHash",
          "type": "address"
        },
        {
          "internalType": "uint256",
          "name": "_paidTimestamp",
          "type": "uint256"
        }
      ],
      "name": "topUpBilling",
      "outputs": [],
      "stateMutability": "nonpayable",
      "type": "function"
    },
    {
      "inputs": [
        {
          "internalType": "address",
          "name": "newOwner",
          "type": "address"
        }
      ],
      "name": "transferOwnership",
      "outputs": [],
      "stateMutability": "nonpayable",
      "type": "function"
    },
    {
      "inputs": [
        {
          "internalType": "address",
          "name": "_phoneHash",
          "type": "address"
        },
        {
          "internalType": "uint256",
          "name": "_acceptanceTimestamp",
          "type": "uint256"
        },
        {
          "internalType": "uint256",
          "name": "_paidTimestamp",
          "type": "uint256"
        }
      ],
      "name": "addToScore",
      "outputs": [],
      "stateMutability": "nonpayable",
      "type": "function"
    },
    {
      "inputs": [
        {
          "internalType": "address",
          "name": "_phoneHash",
          "type": "address"
        },
        {
          "internalType": "uint256",
          "name": "_paidTimestamp",
          "type": "uint256"
        }
      ],
      "name": "topUp",
      "outputs": [],
      "stateMutability": "nonpayable",
      "type": "function"
    },
    {
      "inputs": [
        {
          "internalType": "address",
          "name": "_phoneHash",
          "type": "address"
        },
        {
          "internalType": "string",
          "name": "_ref",
          "type": "string"
        }
      ],
      "name": "lowBalance",
      "outputs": [],
      "stateMutability": "nonpayable",
      "type": "function"
    }
  ],
  "bytecode": "0x608060405260006002553480156200001657600080fd5b50620000376200002b6200003d60201b60201c565b6200004560201b60201c565b62000109565b600033905090565b60008060009054906101000a900473ffffffffffffffffffffffffffffffffffffffff169050816000806101000a81548173ffffffffffffffffffffffffffffffffffffffff021916908373ffffffffffffffffffffffffffffffffffffffff1602179055508173ffffffffffffffffffffffffffffffffffffffff168173ffffffffffffffffffffffffffffffffffffffff167f8be0079c531659141344cd1fd0a4f28419497f9722a3daafe3b4186f6b6457e060405160405180910390a35050565b6131fe80620001196000396000f3fe608060405234801561001057600080fd5b50600436106101375760003560e01c80637acc0b20116100b85780639ef91d911161007c5780639ef91d9114610359578063ab63d7f214610389578063bdcf208c146103a7578063d6f7ddf9146103c3578063f2fde38b146103df578063f324e9d1146103fb57610137565b80637acc0b20146102865780637c99f6a6146102bb578063898ebe58146102eb5780638a72ea6a146103075780638da5cb5b1461033b57610137565b80633ef3e0cb116100ff5780633ef3e0cb146101f857806345df77791461021457806346747b381461023057806347466dc314610260578063715018a61461027c57610137565b8063013cf08b1461013c5780630a9f46ad14610171578063116c327b1461018f5780631ac8d444146101ab578063336989ae146101c7575b600080fd5b610156600480360381019061015191906122fb565b610417565b60405161016896959493929190612b28565b60405180910390f35b610179610505565b6040516101869190612a1b565b60405180910390f35b6101a960048036038101906101a491906121b9565b610512565b005b6101c560048036038101906101c091906120c6565b610763565b005b6101e160048036038101906101dc9190612099565b6107c1565b6040516101ef929190612932565b60405180910390f35b610212600480360381019061020d91906122bb565b6107ff565b005b61022e60048036038101906102299190612228565b610962565b005b61024a6004803603810190610245919061237b565b610f7f565b60405161025791906128f5565b60405180910390f35b61027a600480360381019061027591906122fb565b6110f7565b005b61028461120d565b005b6102a0600480360381019061029b91906122fb565b611295565b6040516102b29695949392919061286b565b60405180910390f35b6102d560048036038101906102d09190612328565b61130e565b6040516102e29190612b0d565b60405180910390f35b61030560048036038101906103009190612268565b611320565b005b610321600480360381019061031c91906122fb565b6114bf565b604051610332959493929190612811565b60405180910390f35b6103436115c7565b604051610350919061273c565b60405180910390f35b610373600480360381019061036e9190612099565b6115f0565b6040516103809190612917565b60405180910390f35b61039161167d565b60405161039e919061273c565b60405180910390f35b6103c160048036038101906103bc91906123a8565b6116cc565b005b6103dd60048036038101906103d89190612228565b6118d1565b005b6103f960048036038101906103f49190612099565b611a1b565b005b61041560048036038101906104109190612122565b611b13565b005b6004818154811061042757600080fd5b90600052602060002090600602016000915090508060000160009054906101000a900460ff169080600101549080600201549080600301549080600401805461046f90612de6565b80601f016020809104026020016040519081016040528092919081815260200182805461049b90612de6565b80156104e85780601f106104bd576101008083540402835291602001916104e8565b820191906000526020600020905b8154815290600101906020018083116104cb57829003601f168201915b5050505050908060050160009054906101000a900460ff16905086565b6000600480549050905090565b7f251fc0df7e56c36cfc4f618ef67296b8e2c41ce1ce473e5187bfec66743b38d38383604051610543929190612757565b60405180910390a1610553611e3f565b83816000019073ffffffffffffffffffffffffffffffffffffffff16908173ffffffffffffffffffffffffffffffffffffffff1681525050428160200181815250506000816080019060018111156105ae576105ad612eef565b5b908160018111156105c2576105c1612eef565b5b815250506105cf82610f7f565b8160600181905250828160a00181905250600381908060018154018082558091505060019003906000526020600020906006020160009091909190915060008201518160000160006101000a81548173ffffffffffffffffffffffffffffffffffffffff021916908373ffffffffffffffffffffffffffffffffffffffff1602179055506020820151816001015560408201518160020160006101000a81548160ff0219169083600481111561068857610687612eef565b5b021790555060608201518160030190805190602001906106a9929190611eaf565b5060808201518160040160006101000a81548160ff021916908360018111156106d5576106d4612eef565b5b021790555060a08201518160050190805190602001906106f6929190611efc565b5050507f6a2d36566113fdc14dbc5b9458a0ba3a3eb54e394c2eb29fb26efdfee664f55e600160038054905061072c9190612c50565b826000015183602001518460400151856060015187896040516107559796959493929190612a36565b60405180910390a150505050565b6107bd8282600160008673ffffffffffffffffffffffffffffffffffffffff1673ffffffffffffffffffffffffffffffffffffffff16815260200190815260200160002060000160019054906101000a900460ff16610512565b5050565b60016020528060005260406000206000915090508060000160009054906101000a900460ff16908060000160019054906101000a900460ff16905082565b610807611d73565b73ffffffffffffffffffffffffffffffffffffffff166108256115c7565b73ffffffffffffffffffffffffffffffffffffffff161461087b576040517f08c379a0000000000000000000000000000000000000000000000000000000008152600401610872906129db565b60405180910390fd5b80600160008473ffffffffffffffffffffffffffffffffffffffff1673ffffffffffffffffffffffffffffffffffffffff16815260200190815260200160002060000160016101000a81548160ff021916908360ff1602179055507f67300a8a7a64e6ba305144189169d4bf615482b42e8fd241a6c5fc20879374a782600160008573ffffffffffffffffffffffffffffffffffffffff1673ffffffffffffffffffffffffffffffffffffffff16815260200190815260200160002060000160019054906101000a900460ff166040516109569291906128cc565b60405180910390a15050565b61096a611d73565b73ffffffffffffffffffffffffffffffffffffffff166109886115c7565b73ffffffffffffffffffffffffffffffffffffffff16146109de576040517f08c379a00000000000000000000000000000000000000000000000000000000081526004016109d5906129db565b60405180910390fd5b81600060018111156109f3576109f2612eef565b5b600160008373ffffffffffffffffffffffffffffffffffffffff1673ffffffffffffffffffffffffffffffffffffffff16815260200190815260200160002060000160009054906101000a900460ff166001811115610a5557610a54612eef565b5b14610a95576040517f08c379a0000000000000000000000000000000000000000000000000000000008152600401610a8c906129fb565b60405180910390fd5b600060018060008673ffffffffffffffffffffffffffffffffffffffff1673ffffffffffffffffffffffffffffffffffffffff16815260200190815260200160002060010180549050610ae89190612c50565b90506000600160008673ffffffffffffffffffffffffffffffffffffffff1673ffffffffffffffffffffffffffffffffffffffff1681526020019081526020016000206001018054905011610b72576040517f08c379a0000000000000000000000000000000000000000000000000000000008152600401610b69906129bb565b60405180910390fd5b60006001811115610b8657610b85612eef565b5b600160008673ffffffffffffffffffffffffffffffffffffffff1673ffffffffffffffffffffffffffffffffffffffff1681526020019081526020016000206001018281548110610bda57610bd9612f4d565b5b906000526020600020906006020160030160009054906101000a900460ff166001811115610c0b57610c0a612eef565b5b14610c4b576040517f08c379a0000000000000000000000000000000000000000000000000000000008152600401610c429061295b565b60405180910390fd5b7fa3a756c9361873f5cd34cb71ba3b6ebc76b90321aa2767387c016991dfb4f63a84600160008773ffffffffffffffffffffffffffffffffffffffff1673ffffffffffffffffffffffffffffffffffffffff1681526020019081526020016000206001018381548110610cc157610cc0612f4d565b5b9060005260206000209060060201600001604051610ce09291906127e1565b60405180910390a182600160008673ffffffffffffffffffffffffffffffffffffffff1673ffffffffffffffffffffffffffffffffffffffff1681526020019081526020016000206001018281548110610d3d57610d3c612f4d565b5b90600052602060002090600602016002018190555060018060008673ffffffffffffffffffffffffffffffffffffffff1673ffffffffffffffffffffffffffffffffffffffff1681526020019081526020016000206001018281548110610da757610da6612f4d565b5b906000526020600020906006020160030160006101000a81548160ff02191690836001811115610dda57610dd9612eef565b5b02179055506000600160008673ffffffffffffffffffffffffffffffffffffffff1673ffffffffffffffffffffffffffffffffffffffff16815260200190815260200160002060000160019054906101000a900460ff1660ff161415610edc5760018060008673ffffffffffffffffffffffffffffffffffffffff1673ffffffffffffffffffffffffffffffffffffffff16815260200190815260200160002060000160006101000a81548160ff02191690836001811115610e9f57610e9e612eef565b5b02179055507f1eacdda6365a7f824e9b515212eda6b8fb050f25bc505f857ac21c025a64e6f184604051610ed3919061273c565b60405180910390a15b7fd3866d48a40f2de06c735e96a984d47ce6783b334002603c31e3f4bc05bd51c584600160008773ffffffffffffffffffffffffffffffffffffffff1673ffffffffffffffffffffffffffffffffffffffff1681526020019081526020016000206001018381548110610f5257610f51612f4d565b5b9060005260206000209060060201600001604051610f719291906127e1565b60405180910390a150505050565b60606000600367ffffffffffffffff811115610f9e57610f9d612f7c565b5b604051908082528060200260200182016040528015610fcc5781602001602082028036833780820191505090505b5090506000808460ff161415610fe65781925050506110f2565b6000600190505b600480549050811080156110015750600382105b156110eb576000600181111561101a57611019612eef565b5b6004828154811061102e5761102d612f4d565b5b906000526020600020906006020160050160009054906101000a900460ff16600181111561105f5761105e612eef565b5b1480156110a457506004818154811061107b5761107a612f4d565b5b906000526020600020906006020160000160009054906101000a900460ff1660ff168560ff1610155b156110d857808383815181106110bd576110bc612f4d565b5b60200260200101818152505081806110d490612e49565b9250505b80806110e390612e49565b915050610fed565b5081925050505b919050565b6110ff611d73565b73ffffffffffffffffffffffffffffffffffffffff1661111d6115c7565b73ffffffffffffffffffffffffffffffffffffffff1614611173576040517f08c379a000000000000000000000000000000000000000000000000000000000815260040161116a906129db565b60405180910390fd5b8060048054905081106111bb576040517f08c379a00000000000000000000000000000000000000000000000000000000081526004016111b29061297b565b60405180910390fd5b6001600483815481106111d1576111d0612f4d565b5b906000526020600020906006020160050160006101000a81548160ff0219169083600181111561120457611203612eef565b5b02179055505050565b611215611d73565b73ffffffffffffffffffffffffffffffffffffffff166112336115c7565b73ffffffffffffffffffffffffffffffffffffffff1614611289576040517f08c379a0000000000000000000000000000000000000000000000000000000008152600401611280906129db565b60405180910390fd5b6112936000611d7b565b565b600581815481106112a557600080fd5b90600052602060002090600602016000915090508060000160009054906101000a900473ffffffffffffffffffffffffffffffffffffffff16908060010154908060020154908060030154908060040154908060050160009054906101000a900460ff16905086565b60008060039050809150509392505050565b611328611d73565b73ffffffffffffffffffffffffffffffffffffffff166113466115c7565b73ffffffffffffffffffffffffffffffffffffffff161461139c576040517f08c379a0000000000000000000000000000000000000000000000000000000008152600401611393906129db565b60405180910390fd5b82600060018111156113b1576113b0612eef565b5b600160008373ffffffffffffffffffffffffffffffffffffffff1673ffffffffffffffffffffffffffffffffffffffff16815260200190815260200160002060000160009054906101000a900460ff16600181111561141357611412612eef565b5b14611453576040517f08c379a000000000000000000000000000000000000000000000000000000000815260040161144a906129fb565b60405180910390fd5b6114b9846114b4600160008873ffffffffffffffffffffffffffffffffffffffff1673ffffffffffffffffffffffffffffffffffffffff16815260200190815260200160002060000160019054906101000a900460ff1660ff16868661130e565b6107ff565b50505050565b600381815481106114cf57600080fd5b90600052602060002090600602016000915090508060000160009054906101000a900473ffffffffffffffffffffffffffffffffffffffff16908060010154908060020160009054906101000a900460ff16908060040160009054906101000a900460ff169080600501805461154490612de6565b80601f016020809104026020016040519081016040528092919081815260200182805461157090612de6565b80156115bd5780601f10611592576101008083540402835291602001916115bd565b820191906000526020600020905b8154815290600101906020018083116115a057829003601f168201915b5050505050905085565b60008060009054906101000a900473ffffffffffffffffffffffffffffffffffffffff16905090565b600080600181111561160557611604612eef565b5b600160008473ffffffffffffffffffffffffffffffffffffffff1673ffffffffffffffffffffffffffffffffffffffff16815260200190815260200160002060000160009054906101000a900460ff16600181111561166757611666612eef565b5b14611673576000611676565b60015b9050919050565b60006002600081548092919061169290612e49565b919050555042336002546040516020016116ae939291906126ff565b6040516020818303038152906040528051906020012060601c905090565b6116d4611d73565b73ffffffffffffffffffffffffffffffffffffffff166116f26115c7565b73ffffffffffffffffffffffffffffffffffffffff1614611748576040517f08c379a000000000000000000000000000000000000000000000000000000000815260040161173f906129db565b60405180910390fd5b611750611f82565b84816000019060ff16908160ff1681525050838160200181815250508281604001818152505081816080018190525060008160a00190600181111561179857611797612eef565b5b908160018111156117ac576117ab612eef565b5b81525050600481908060018154018082558091505060019003906000526020600020906006020160009091909190915060008201518160000160006101000a81548160ff021916908360ff1602179055506020820151816001015560408201518160020155606082015181600301556080820151816004019080519060200190611837929190611efc565b5060a08201518160050160006101000a81548160ff0219169083600181111561186357611862612eef565b5b021790555050507f0dd92ec7c9e4620459d0f39f48975327d855d61513c1e839e5ae03d1ca764472600160048054905061189d9190612c50565b82600001518360200151846040015185608001516040516118c2959493929190612ab3565b60405180910390a15050505050565b6118d9611d73565b73ffffffffffffffffffffffffffffffffffffffff166118f76115c7565b73ffffffffffffffffffffffffffffffffffffffff161461194d576040517f08c379a0000000000000000000000000000000000000000000000000000000008152600401611944906129db565b60405180910390fd5b611a0d82600160008573ffffffffffffffffffffffffffffffffffffffff1673ffffffffffffffffffffffffffffffffffffffff16815260200190815260200160002060010160018060008773ffffffffffffffffffffffffffffffffffffffff1673ffffffffffffffffffffffffffffffffffffffff168152602001908152602001600020600101805490506119e49190612c50565b815481106119f5576119f4612f4d565b5b90600052602060002090600602016001015483611320565b611a178282610962565b5050565b611a23611d73565b73ffffffffffffffffffffffffffffffffffffffff16611a416115c7565b73ffffffffffffffffffffffffffffffffffffffff1614611a97576040517f08c379a0000000000000000000000000000000000000000000000000000000008152600401611a8e906129db565b60405180910390fd5b600073ffffffffffffffffffffffffffffffffffffffff168173ffffffffffffffffffffffffffffffffffffffff161415611b07576040517f08c379a0000000000000000000000000000000000000000000000000000000008152600401611afe9061299b565b60405180910390fd5b611b1081611d7b565b50565b8460006001811115611b2857611b27612eef565b5b600160008373ffffffffffffffffffffffffffffffffffffffff1673ffffffffffffffffffffffffffffffffffffffff16815260200190815260200160002060000160009054906101000a900460ff166001811115611b8a57611b89612eef565b5b14611bca576040517f08c379a0000000000000000000000000000000000000000000000000000000008152600401611bc1906129fb565b60405180910390fd5b7f7f091c68c6205dcb150d504c6b309d6555334a046e5ea7b760e11abf3976d75a8686868686604051611c01959493929190612787565b60405180910390a1600160008773ffffffffffffffffffffffffffffffffffffffff1673ffffffffffffffffffffffffffffffffffffffff1681526020019081526020016000206001016040518060c001604052808781526020018681526020016000815260200160006001811115611c7d57611c7c612eef565b5b81526020018581526020018481525090806001815401808255809150506001900390600052602060002090600602016000909190919091506000820151816000019080519060200190611cd1929190611efc565b50602082015181600101556040820151816002015560608201518160030160006101000a81548160ff02191690836001811115611d1157611d10612eef565b5b02179055506080820151816004015560a0820151816005015550507f478c6abaacbcfc930dd3e22e9e4f8c303ed81d742ecea8a85a2eef9ab69ce4888686868686604051611d63959493929190612787565b60405180910390a1505050505050565b600033905090565b60008060009054906101000a900473ffffffffffffffffffffffffffffffffffffffff169050816000806101000a81548173ffffffffffffffffffffffffffffffffffffffff021916908373ffffffffffffffffffffffffffffffffffffffff1602179055508173ffffffffffffffffffffffffffffffffffffffff168173ffffffffffffffffffffffffffffffffffffffff167f8be0079c531659141344cd1fd0a4f28419497f9722a3daafe3b4186f6b6457e060405160405180910390a35050565b6040518060c00160405280600073ffffffffffffffffffffffffffffffffffffffff1681526020016000815260200160006004811115611e8257611e81612eef565b5b81526020016060815260200160006001811115611ea257611ea1612eef565b5b8152602001606081525090565b828054828255906000526020600020908101928215611eeb579160200282015b82811115611eea578251825591602001919060010190611ecf565b5b509050611ef89190611fcd565b5090565b828054611f0890612de6565b90600052602060002090601f016020900481019282611f2a5760008555611f71565b82601f10611f4357805160ff1916838001178555611f71565b82800160010185558215611f71579182015b82811115611f70578251825591602001919060010190611f55565b5b509050611f7e9190611fcd565b5090565b6040518060c00160405280600060ff1681526020016000815260200160008152602001600081526020016060815260200160006001811115611fc757611fc6612eef565b5b81525090565b5b80821115611fe6576000816000905550600101611fce565b5090565b6000611ffd611ff884612bb5565b612b90565b90508281526020810184848401111561201957612018612fb0565b5b612024848285612da4565b509392505050565b60008135905061203b81613183565b92915050565b600082601f83011261205657612055612fab565b5b8135612066848260208601611fea565b91505092915050565b60008135905061207e8161319a565b92915050565b600081359050612093816131b1565b92915050565b6000602082840312156120af576120ae612fba565b5b60006120bd8482850161202c565b91505092915050565b600080604083850312156120dd576120dc612fba565b5b60006120eb8582860161202c565b925050602083013567ffffffffffffffff81111561210c5761210b612fb5565b5b61211885828601612041565b9150509250929050565b600080600080600060a0868803121561213e5761213d612fba565b5b600061214c8882890161202c565b955050602086013567ffffffffffffffff81111561216d5761216c612fb5565b5b61217988828901612041565b945050604061218a8882890161206f565b935050606061219b8882890161206f565b92505060806121ac8882890161206f565b9150509295509295909350565b6000806000606084860312156121d2576121d1612fba565b5b60006121e08682870161202c565b935050602084013567ffffffffffffffff81111561220157612200612fb5565b5b61220d86828701612041565b925050604061221e86828701612084565b9150509250925092565b6000806040838503121561223f5761223e612fba565b5b600061224d8582860161202c565b925050602061225e8582860161206f565b9150509250929050565b60008060006060848603121561228157612280612fba565b5b600061228f8682870161202c565b93505060206122a08682870161206f565b92505060406122b18682870161206f565b9150509250925092565b600080604083850312156122d2576122d1612fba565b5b60006122e08582860161202c565b92505060206122f185828601612084565b9150509250929050565b60006020828403121561231157612310612fba565b5b600061231f8482850161206f565b91505092915050565b60008060006060848603121561234157612340612fba565b5b600061234f8682870161206f565b93505060206123608682870161206f565b92505060406123718682870161206f565b9150509250925092565b60006020828403121561239157612390612fba565b5b600061239f84828501612084565b91505092915050565b600080600080608085870312156123c2576123c1612fba565b5b60006123d087828801612084565b94505060206123e18782880161206f565b93505060406123f28782880161206f565b925050606085013567ffffffffffffffff81111561241357612412612fb5565b5b61241f87828801612041565b91505092959194509250565b600061243783836126ac565b60208301905092915050565b61244c81612c84565b82525050565b61246361245e82612c84565b612e92565b82525050565b600061247482612c0b565b61247e8185612c2e565b935061248983612be6565b8060005b838110156124ba5781516124a1888261242b565b97506124ac83612c21565b92505060018101905061248d565b5085935050505092915050565b6124d081612c96565b82525050565b6124df81612d38565b82525050565b6124ee81612d4a565b82525050565b6124fd81612d5c565b82525050565b61250c81612d6e565b82525050565b61251b81612d80565b82525050565b600061252c82612c16565b6125368185612c3f565b9350612546818560208601612db3565b61254f81612fbf565b840191505092915050565b6000815461256781612de6565b6125718186612c3f565b9450600182166000811461258c576001811461259e576125d1565b60ff19831686526020860193506125d1565b6125a785612bf6565b60005b838110156125c9578154818901526001820191506020810190506125aa565b808801955050505b50505092915050565b60006125e7602583612c3f565b91506125f282612fdd565b604082019050919050565b600061260a601683612c3f565b91506126158261302c565b602082019050919050565b600061262d602683612c3f565b915061263882613055565b604082019050919050565b6000612650601783612c3f565b915061265b826130a4565b602082019050919050565b6000612673602083612c3f565b915061267e826130cd565b602082019050919050565b6000612696601083612c3f565b91506126a1826130f6565b602082019050919050565b6126b581612d21565b82525050565b6126c481612d21565b82525050565b6126db6126d682612d21565b612eb6565b82525050565b6126ea81612d92565b82525050565b6126f981612d2b565b82525050565b600061270b82866126ca565b60208201915061271b8285612452565b60148201915061272b82846126ca565b602082019150819050949350505050565b60006020820190506127516000830184612443565b92915050565b600060408201905061276c6000830185612443565b818103602083015261277e8184612521565b90509392505050565b600060a08201905061279c6000830188612443565b81810360208301526127ae8187612521565b90506127bd60408301866126bb565b6127ca60608301856126bb565b6127d760808301846126bb565b9695505050505050565b60006040820190506127f66000830185612443565b8181036020830152612808818461255a565b90509392505050565b600060a0820190506128266000830188612443565b61283360208301876126bb565b61284060408301866124e5565b61284d60608301856124f4565b818103608083015261285f8184612521565b90509695505050505050565b600060c0820190506128806000830189612443565b61288d60208301886126bb565b61289a60408301876126bb565b6128a760608301866126bb565b6128b460808301856126bb565b6128c160a0830184612503565b979650505050505050565b60006040820190506128e16000830185612443565b6128ee60208301846126f0565b9392505050565b6000602082019050818103600083015261290f8184612469565b905092915050565b600060208201905061292c60008301846124c7565b92915050565b600060408201905061294760008301856124d6565b61295460208301846126f0565b9392505050565b60006020820190508181036000830152612974816125da565b9050919050565b60006020820190508181036000830152612994816125fd565b9050919050565b600060208201905081810360008301526129b481612620565b9050919050565b600060208201905081810360008301526129d481612643565b9050919050565b600060208201905081810360008301526129f481612666565b9050919050565b60006020820190508181036000830152612a1481612689565b9050919050565b6000602082019050612a3060008301846126bb565b92915050565b600060e082019050612a4b600083018a6126bb565b612a586020830189612443565b612a6560408301886126bb565b612a7260608301876124e5565b8181036080830152612a848186612469565b9050612a9360a08301856126e1565b81810360c0830152612aa58184612521565b905098975050505050505050565b600060a082019050612ac860008301886126bb565b612ad560208301876126f0565b612ae260408301866126bb565b612aef60608301856126bb565b8181036080830152612b018184612521565b90509695505050505050565b6000602082019050612b2260008301846126f0565b92915050565b600060c082019050612b3d60008301896126f0565b612b4a60208301886126bb565b612b5760408301876126bb565b612b6460608301866126bb565b8181036080830152612b768185612521565b9050612b8560a0830184612512565b979650505050505050565b6000612b9a612bab565b9050612ba68282612e18565b919050565b6000604051905090565b600067ffffffffffffffff821115612bd057612bcf612f7c565b5b612bd982612fbf565b9050602081019050919050565b6000819050602082019050919050565b60008190508160005260206000209050919050565b600081519050919050565b600081519050919050565b6000602082019050919050565b600082825260208201905092915050565b600082825260208201905092915050565b6000612c5b82612d21565b9150612c6683612d21565b925082821015612c7957612c78612ec0565b5b828203905092915050565b6000612c8f82612d01565b9050919050565b60008115159050919050565b6000819050612cb08261311f565b919050565b6000819050612cc382613133565b919050565b6000819050612cd682613147565b919050565b6000819050612ce98261315b565b919050565b6000819050612cfc8261316f565b919050565b600073ffffffffffffffffffffffffffffffffffffffff82169050919050565b6000819050919050565b600060ff82169050919050565b6000612d4382612ca2565b9050919050565b6000612d5582612cb5565b9050919050565b6000612d6782612cc8565b9050919050565b6000612d7982612cdb565b9050919050565b6000612d8b82612cee565b9050919050565b6000612d9d82612d2b565b9050919050565b82818337600083830152505050565b60005b83811015612dd1578082015181840152602081019050612db6565b83811115612de0576000848401525b50505050565b60006002820490506001821680612dfe57607f821691505b60208210811415612e1257612e11612f1e565b5b50919050565b612e2182612fbf565b810181811067ffffffffffffffff82111715612e4057612e3f612f7c565b5b80604052505050565b6000612e5482612d21565b91507fffffffffffffffffffffffffffffffffffffffffffffffffffffffffffffffff821415612e8757612e86612ec0565b5b600182019050919050565b6000612e9d82612ea4565b9050919050565b6000612eaf82612fd0565b9050919050565b6000819050919050565b7f4e487b7100000000000000000000000000000000000000000000000000000000600052601160045260246000fd5b7f4e487b7100000000000000000000000000000000000000000000000000000000600052602160045260246000fd5b7f4e487b7100000000000000000000000000000000000000000000000000000000600052602260045260246000fd5b7f4e487b7100000000000000000000000000000000000000000000000000000000600052603260045260246000fd5b7f4e487b7100000000000000000000000000000000000000000000000000000000600052604160045260246000fd5b600080fd5b600080fd5b600080fd5b600080fd5b6000601f19601f8301169050919050565b60008160601b9050919050565b7f54686520637573746f6d657220686173206e6f2070726f6475637420746f207260008201527f6566756e64000000000000000000000000000000000000000000000000000000602082015250565b7f50726f706f73616c20646f65736e277420657869737400000000000000000000600082015250565b7f4f776e61626c653a206e6577206f776e657220697320746865207a65726f206160008201527f6464726573730000000000000000000000000000000000000000000000000000602082015250565b7f50686f6e65206973206e6f742072656769737465726564000000000000000000600082015250565b7f4f776e61626c653a2063616c6c6572206973206e6f7420746865206f776e6572600082015250565b7f426c6f636b656420637573746f6d657200000000000000000000000000000000600082015250565b600281106131305761312f612eef565b5b50565b6005811061314457613143612eef565b5b50565b6002811061315857613157612eef565b5b50565b6002811061316c5761316b612eef565b5b50565b600281106131805761317f612eef565b5b50565b61318c81612c84565b811461319757600080fd5b50565b6131a381612d21565b81146131ae57600080fd5b50565b6131ba81612d2b565b81146131c557600080fd5b5056fea26469706673582212202427af0a83c2c1ad6ce9b58785135ab0fc8acec21bd7f3734fd37a9b470276c164736f6c63430008060033",
  "immutableReferences": {},
  "source": "// SPDX-License-Identifier: MIT\npragma solidity ^0.8.6;\n\nimport \"./Billing.sol\";\nimport \"./Offering.sol\";\nimport \"@openzeppelin/contracts/access/Ownable.sol\";\n\ncontract Timelapse is Ownable, Billing, Offering {\n\n    constructor() {}\n\n    function addToScore(address _phoneHash, uint _acceptanceTimestamp, uint _paidTimestamp) public onlyOwner activeCustomer(_phoneHash) {\n        changeScore(_phoneHash, process(customers[_phoneHash].score, _acceptanceTimestamp, _paidTimestamp));\n    }\n\n    function topUp(address _phoneHash, uint _paidTimestamp) public onlyOwner {\n        addToScore(_phoneHash, customers[_phoneHash].history[customers[_phoneHash].history.length - 1].acceptanceTimestamp, _paidTimestamp);\n        topUpBilling(_phoneHash, _paidTimestamp);\n    }\n\n    function lowBalance(address _phoneHash, string memory _ref) public {\n        lowBalanceOffering(_phoneHash, _ref, customers[_phoneHash].score);\n    }\n}",
  "sourcePath": "/home/keymon/work/projet-pro/dApp/timelapse/contracts/Timelapse.sol",
  "compiler": {
    "name": "solc",
    "version": "0.8.6+commit.11564f7e.Emscripten.clang"
  },
  "schemaVersion": "3.4.1",
  "updatedAt": "2021-07-13T21:24:59.126Z",
  "devdoc": {
    "kind": "dev",
    "methods": {
      "owner()": {
        "details": "Returns the address of the current owner."
      },
      "renounceOwnership()": {
        "details": "Leaves the contract without owner. It will not be possible to call `onlyOwner` functions anymore. Can only be called by the current owner. NOTE: Renouncing ownership will leave the contract without an owner, thereby removing any functionality that is only available to the owner."
      },
      "transferOwnership(address)": {
        "details": "Transfers ownership of the contract to a new account (`newOwner`). Can only be called by the current owner."
      }
    },
    "version": 1
  },
  "userdoc": {
    "kind": "user",
    "methods": {},
    "version": 1
  }
}