{
  "contractName": "Timelapse",
  "abi": [
    {
      "inputs": [],
      "stateMutability": "nonpayable",
      "type": "constructor"
    },
    {
      "anonymous": false,
      "inputs": [
        {
          "indexed": false,
          "internalType": "address",
          "name": "phoneHash",
          "type": "address"
        },
        {
          "indexed": false,
          "internalType": "uint256",
          "name": "idOffer",
          "type": "uint256"
        },
        {
          "indexed": false,
          "internalType": "uint256",
          "name": "idProposal",
          "type": "uint256"
        }
      ],
      "name": "AcceptanceReceived",
      "type": "event"
    },
    {
      "anonymous": false,
      "inputs": [
        {
          "indexed": false,
          "internalType": "address",
          "name": "phoneHash",
          "type": "address"
        },
        {
          "indexed": false,
          "internalType": "string",
          "name": "ref",
          "type": "string"
        },
        {
          "indexed": false,
          "internalType": "uint256",
          "name": "acceptanceTimestamp",
          "type": "uint256"
        },
        {
          "indexed": false,
          "internalType": "uint256",
          "name": "idProduct",
          "type": "uint256"
        }
      ],
      "name": "AcceptanceReceived",
      "type": "event"
    },
    {
      "anonymous": false,
      "inputs": [
        {
          "indexed": false,
          "internalType": "address",
          "name": "phoneHash",
          "type": "address"
        },
        {
          "indexed": false,
          "internalType": "string",
          "name": "ref",
          "type": "string"
        }
      ],
      "name": "Acknowledge",
      "type": "event"
    },
    {
      "anonymous": false,
      "inputs": [
        {
          "indexed": false,
          "internalType": "address",
          "name": "phoneHash",
          "type": "address"
        },
        {
          "indexed": false,
          "internalType": "uint256",
          "name": "productId",
          "type": "uint256"
        },
        {
          "indexed": false,
          "internalType": "uint256",
          "name": "amount",
          "type": "uint256"
        }
      ],
      "name": "AcknowledgeSent",
      "type": "event"
    },
    {
      "anonymous": false,
      "inputs": [
        {
          "indexed": false,
          "internalType": "address",
          "name": "phoneHash",
          "type": "address"
        },
        {
          "indexed": false,
          "internalType": "string",
          "name": "ref",
          "type": "string"
        },
        {
          "indexed": false,
          "internalType": "uint256",
          "name": "acceptanceTimestamp",
          "type": "uint256"
        },
        {
          "indexed": false,
          "internalType": "uint256",
          "name": "idProduct",
          "type": "uint256"
        }
      ],
      "name": "Confirmation",
      "type": "event"
    },
    {
      "anonymous": false,
      "inputs": [
        {
          "indexed": false,
          "internalType": "uint256",
          "name": "productId",
          "type": "uint256"
        },
        {
          "indexed": false,
          "internalType": "uint256",
          "name": "idOffer",
          "type": "uint256"
        },
        {
          "indexed": false,
          "internalType": "address",
          "name": "phoneHash",
          "type": "address"
        },
        {
          "indexed": false,
          "internalType": "uint256",
          "name": "timestamp",
          "type": "uint256"
        }
      ],
      "name": "ConfirmationSent",
      "type": "event"
    },
    {
      "anonymous": false,
      "inputs": [
        {
          "indexed": false,
          "internalType": "address",
          "name": "phoneHash",
          "type": "address"
        }
      ],
      "name": "CustomerIsDeleted",
      "type": "event"
    },
    {
      "anonymous": false,
      "inputs": [
        {
          "indexed": false,
          "internalType": "address",
          "name": "phoneHash",
          "type": "address"
        },
        {
          "indexed": false,
          "internalType": "string",
          "name": "ref",
          "type": "string"
        }
      ],
      "name": "LowBalanceReceived",
      "type": "event"
    },
    {
      "anonymous": false,
      "inputs": [
        {
          "indexed": false,
          "internalType": "uint256",
          "name": "idOffer",
          "type": "uint256"
        },
        {
          "indexed": false,
          "internalType": "address",
          "name": "phoneHash",
          "type": "address"
        },
        {
          "indexed": false,
          "internalType": "uint256",
          "name": "timestamp",
          "type": "uint256"
        },
        {
          "indexed": false,
          "internalType": "enum Offering.EligibilityReason",
          "name": "reason",
          "type": "uint8"
        },
        {
          "indexed": false,
          "internalType": "uint256[]",
          "name": "proposals",
          "type": "uint256[]"
        },
        {
          "indexed": false,
          "internalType": "uint256",
          "name": "scoring",
          "type": "uint256"
        },
        {
          "indexed": false,
          "internalType": "string",
          "name": "ref",
          "type": "string"
        }
      ],
      "name": "OfferSent",
      "type": "event"
    },
    {
      "anonymous": false,
      "inputs": [
        {
          "indexed": true,
          "internalType": "address",
          "name": "previousOwner",
          "type": "address"
        },
        {
          "indexed": true,
          "internalType": "address",
          "name": "newOwner",
          "type": "address"
        }
      ],
      "name": "OwnershipTransferred",
      "type": "event"
    },
    {
      "anonymous": false,
      "inputs": [
        {
          "indexed": false,
          "internalType": "uint256",
          "name": "idProposal",
          "type": "uint256"
        },
        {
          "indexed": false,
          "internalType": "uint8",
          "name": "minScoring",
          "type": "uint8"
        },
        {
          "indexed": false,
          "internalType": "uint256",
          "name": "capital",
          "type": "uint256"
        },
        {
          "indexed": false,
          "internalType": "uint256",
          "name": "interest",
          "type": "uint256"
        },
        {
          "indexed": false,
          "internalType": "string",
          "name": "description",
          "type": "string"
        }
      ],
      "name": "ProposalAdded",
      "type": "event"
    },
    {
      "anonymous": false,
      "inputs": [
        {
          "indexed": false,
          "internalType": "address",
          "name": "phoneHash",
          "type": "address"
        },
        {
          "indexed": false,
          "internalType": "uint8",
          "name": "score",
          "type": "uint8"
        }
      ],
      "name": "ScoreChange",
      "type": "event"
    },
    {
      "anonymous": false,
      "inputs": [
        {
          "indexed": false,
          "internalType": "address",
          "name": "phoneHash",
          "type": "address"
        },
        {
          "indexed": false,
          "internalType": "uint256",
          "name": "productId",
          "type": "uint256"
        },
        {
          "indexed": false,
          "internalType": "uint256",
          "name": "amount",
          "type": "uint256"
        }
      ],
      "name": "TopUpReceived",
      "type": "event"
    },
    {
      "anonymous": false,
      "inputs": [
        {
          "indexed": false,
          "internalType": "address",
          "name": "phoneHash",
          "type": "address"
        },
        {
          "indexed": false,
          "internalType": "string",
          "name": "ref",
          "type": "string"
        }
      ],
      "name": "TopUpReceived",
      "type": "event"
    },
    {
      "inputs": [
        {
          "internalType": "address",
          "name": "_phoneHash",
          "type": "address"
        },
        {
          "internalType": "string",
          "name": "_ref",
          "type": "string"
        },
        {
          "internalType": "uint256",
          "name": "_acceptanceTimestamp",
          "type": "uint256"
        },
        {
          "internalType": "uint256",
          "name": "_idProduct",
          "type": "uint256"
        }
      ],
      "name": "acceptanceBilling",
      "outputs": [],
      "stateMutability": "nonpayable",
      "type": "function"
    },
    {
      "inputs": [
        {
          "internalType": "uint8",
          "name": "_minScoring",
          "type": "uint8"
        },
        {
          "internalType": "uint256",
          "name": "_capital",
          "type": "uint256"
        },
        {
          "internalType": "uint256",
          "name": "_interest",
          "type": "uint256"
        },
        {
          "internalType": "string",
          "name": "_description",
          "type": "string"
        }
      ],
      "name": "addProposal",
      "outputs": [],
      "stateMutability": "nonpayable",
      "type": "function"
    },
    {
      "inputs": [
        {
          "internalType": "address",
          "name": "_phoneHash",
          "type": "address"
        },
        {
          "internalType": "uint8",
          "name": "_score",
          "type": "uint8"
        }
      ],
      "name": "changeScore",
      "outputs": [],
      "stateMutability": "nonpayable",
      "type": "function"
    },
    {
      "inputs": [
        {
          "internalType": "uint256",
          "name": "_id",
          "type": "uint256"
        }
      ],
      "name": "closedProposal",
      "outputs": [],
      "stateMutability": "nonpayable",
      "type": "function"
    },
    {
      "inputs": [
        {
          "internalType": "address",
          "name": "_phoneHash",
          "type": "address"
        },
        {
          "internalType": "uint256",
          "name": "_acceptanceTimestamp",
          "type": "uint256"
        },
        {
          "internalType": "uint256",
          "name": "_idOffer",
          "type": "uint256"
        },
        {
          "internalType": "uint256",
          "name": "_idProposal",
          "type": "uint256"
        }
      ],
      "name": "createProduct",
      "outputs": [
        {
          "internalType": "uint256",
          "name": "",
          "type": "uint256"
        }
      ],
      "stateMutability": "nonpayable",
      "type": "function"
    },
    {
      "inputs": [
        {
          "internalType": "address",
          "name": "",
          "type": "address"
        }
      ],
      "name": "customers",
      "outputs": [
        {
          "internalType": "enum Billing.CustomerStatus",
          "name": "status",
          "type": "uint8"
        },
        {
          "internalType": "uint8",
          "name": "score",
          "type": "uint8"
        },
        {
          "internalType": "uint256",
          "name": "nbTopUp",
          "type": "uint256"
        },
        {
          "internalType": "uint256",
          "name": "amount",
          "type": "uint256"
        },
        {
          "internalType": "uint256",
          "name": "firstTopUp",
          "type": "uint256"
        }
      ],
      "stateMutability": "view",
      "type": "function",
      "constant": true
    },
    {
      "inputs": [
        {
          "internalType": "uint8",
          "name": "_scoring",
          "type": "uint8"
        }
      ],
      "name": "getOfferProposals",
      "outputs": [
        {
          "internalType": "uint256[]",
          "name": "",
          "type": "uint256[]"
        }
      ],
      "stateMutability": "view",
      "type": "function",
      "constant": true
    },
    {
      "inputs": [
        {
          "internalType": "address",
          "name": "_phoneHash",
          "type": "address"
        }
      ],
      "name": "isActiveCustomer",
      "outputs": [
        {
          "internalType": "bool",
          "name": "",
          "type": "bool"
        }
      ],
      "stateMutability": "view",
      "type": "function",
      "constant": true
    },
    {
      "inputs": [
        {
          "internalType": "address",
          "name": "_phoneHash",
          "type": "address"
        },
        {
          "internalType": "string",
          "name": "_ref",
          "type": "string"
        },
        {
          "internalType": "uint8",
          "name": "_score",
          "type": "uint8"
        }
      ],
      "name": "lowBalanceOffering",
      "outputs": [],
      "stateMutability": "nonpayable",
      "type": "function"
    },
    {
      "inputs": [
        {
          "internalType": "uint256",
          "name": "",
          "type": "uint256"
        }
      ],
      "name": "offers",
      "outputs": [
        {
          "internalType": "address",
          "name": "phoneHash",
          "type": "address"
        },
        {
          "internalType": "uint256",
          "name": "timestamp",
          "type": "uint256"
        },
        {
          "internalType": "enum Offering.EligibilityReason",
          "name": "reason",
          "type": "uint8"
        },
        {
          "internalType": "enum Offering.OfferStatus",
          "name": "status",
          "type": "uint8"
        },
        {
          "internalType": "string",
          "name": "ref",
          "type": "string"
        }
      ],
      "stateMutability": "view",
      "type": "function",
      "constant": true
    },
    {
      "inputs": [],
      "name": "owner",
      "outputs": [
        {
          "internalType": "address",
          "name": "",
          "type": "address"
        }
      ],
      "stateMutability": "view",
      "type": "function",
      "constant": true
    },
    {
      "inputs": [
        {
          "internalType": "uint256",
          "name": "",
          "type": "uint256"
        }
      ],
      "name": "products",
      "outputs": [
        {
          "internalType": "address",
          "name": "phoneHash",
          "type": "address"
        },
        {
          "internalType": "uint256",
          "name": "timestamp",
          "type": "uint256"
        },
        {
          "internalType": "uint256",
          "name": "idOffer",
          "type": "uint256"
        },
        {
          "internalType": "uint256",
          "name": "idProposal",
          "type": "uint256"
        },
        {
          "internalType": "enum Offering.ProductStatus",
          "name": "status",
          "type": "uint8"
        }
      ],
      "stateMutability": "view",
      "type": "function",
      "constant": true
    },
    {
      "inputs": [
        {
          "internalType": "uint256",
          "name": "",
          "type": "uint256"
        }
      ],
      "name": "proposals",
      "outputs": [
        {
          "internalType": "uint8",
          "name": "minScoring",
          "type": "uint8"
        },
        {
          "internalType": "uint256",
          "name": "capital",
          "type": "uint256"
        },
        {
          "internalType": "uint256",
          "name": "interest",
          "type": "uint256"
        },
        {
          "internalType": "uint256",
          "name": "validityPeriod",
          "type": "uint256"
        },
        {
          "internalType": "string",
          "name": "description",
          "type": "string"
        },
        {
          "internalType": "enum Offering.ProposalStatus",
          "name": "status",
          "type": "uint8"
        }
      ],
      "stateMutability": "view",
      "type": "function",
      "constant": true
    },
    {
      "inputs": [],
      "name": "proposalsCount",
      "outputs": [
        {
          "internalType": "uint256",
          "name": "",
          "type": "uint256"
        }
      ],
      "stateMutability": "view",
      "type": "function",
      "constant": true
    },
    {
      "inputs": [],
      "name": "renounceOwnership",
      "outputs": [],
      "stateMutability": "nonpayable",
      "type": "function"
    },
    {
      "inputs": [
        {
          "internalType": "address",
          "name": "_phoneHash",
          "type": "address"
        },
        {
          "internalType": "uint256",
          "name": "_paidTimestamp",
          "type": "uint256"
        }
      ],
      "name": "topUpBilling",
      "outputs": [],
      "stateMutability": "nonpayable",
      "type": "function"
    },
    {
      "inputs": [
        {
          "internalType": "address",
          "name": "newOwner",
          "type": "address"
        }
      ],
      "name": "transferOwnership",
      "outputs": [],
      "stateMutability": "nonpayable",
      "type": "function"
    },
    {
      "inputs": [
        {
          "internalType": "uint256[]",
          "name": "_offerProposals",
          "type": "uint256[]"
        },
        {
          "internalType": "uint8",
          "name": "_offerProposalsCount",
          "type": "uint8"
        }
      ],
      "name": "trimOfferProposals",
      "outputs": [
        {
          "internalType": "uint256[]",
          "name": "",
          "type": "uint256[]"
        }
      ],
      "stateMutability": "pure",
      "type": "function",
      "constant": true
    },
    {
      "inputs": [
        {
          "internalType": "address",
          "name": "_phoneHash",
          "type": "address"
        }
      ],
      "name": "addToScore",
      "outputs": [],
      "stateMutability": "nonpayable",
      "type": "function"
    },
    {
      "inputs": [
        {
          "internalType": "address",
          "name": "_phoneHash",
          "type": "address"
        },
        {
          "internalType": "string",
          "name": "_ref",
          "type": "string"
        },
        {
          "internalType": "uint256",
          "name": "_acceptanceTimestamp",
          "type": "uint256"
        },
        {
          "internalType": "uint256",
          "name": "_idOffer",
          "type": "uint256"
        },
        {
          "internalType": "uint256",
          "name": "_idProposal",
          "type": "uint256"
        }
      ],
      "name": "acceptance",
      "outputs": [],
      "stateMutability": "nonpayable",
      "type": "function"
    },
    {
      "inputs": [
        {
          "internalType": "address",
          "name": "_phoneHash",
          "type": "address"
        },
        {
          "internalType": "uint256",
          "name": "_paidTimestamp",
          "type": "uint256"
        }
      ],
      "name": "topUp",
      "outputs": [],
      "stateMutability": "nonpayable",
      "type": "function"
    },
    {
      "inputs": [
        {
          "internalType": "address",
          "name": "_phoneHash",
          "type": "address"
        },
        {
          "internalType": "string",
          "name": "_ref",
          "type": "string"
        }
      ],
      "name": "lowBalance",
      "outputs": [],
      "stateMutability": "nonpayable",
      "type": "function"
    },
    {
      "inputs": [
        {
          "components": [
            {
              "internalType": "enum Billing.CustomerStatus",
              "name": "status",
              "type": "uint8"
            },
            {
              "internalType": "uint8",
              "name": "score",
              "type": "uint8"
            },
            {
              "internalType": "uint256",
              "name": "nbTopUp",
              "type": "uint256"
            },
            {
              "internalType": "uint256",
              "name": "amount",
              "type": "uint256"
            },
            {
              "internalType": "uint256",
              "name": "firstTopUp",
              "type": "uint256"
            },
            {
              "components": [
                {
                  "internalType": "string",
                  "name": "ref",
                  "type": "string"
                },
                {
                  "internalType": "uint256",
                  "name": "acceptanceTimestamp",
                  "type": "uint256"
                },
                {
                  "internalType": "uint256",
                  "name": "paidTimestamp",
                  "type": "uint256"
                },
                {
                  "internalType": "enum Billing.HistoryStatus",
                  "name": "status",
                  "type": "uint8"
                },
                {
                  "internalType": "uint256",
                  "name": "idProduct",
                  "type": "uint256"
                }
              ],
              "internalType": "struct Billing.History[]",
              "name": "history",
              "type": "tuple[]"
            }
          ],
          "internalType": "struct Billing.Customer",
          "name": "_customer",
          "type": "tuple"
        }
      ],
      "name": "process",
      "outputs": [
        {
          "internalType": "uint8",
          "name": "",
          "type": "uint8"
        }
      ],
      "stateMutability": "view",
      "type": "function",
      "constant": true
    }
  ],
  "bytecode": "0x60806040523480156200001157600080fd5b5062000032620000266200003860201b60201c565b6200004060201b60201c565b62000104565b600033905090565b60008060009054906101000a900473ffffffffffffffffffffffffffffffffffffffff169050816000806101000a81548173ffffffffffffffffffffffffffffffffffffffff021916908373ffffffffffffffffffffffffffffffffffffffff1602179055508173ffffffffffffffffffffffffffffffffffffffff168173ffffffffffffffffffffffffffffffffffffffff167f8be0079c531659141344cd1fd0a4f28419497f9722a3daafe3b4186f6b6457e060405160405180910390a35050565b61413180620001146000396000f3fe608060405234801561001057600080fd5b506004361061014d5760003560e01c80637a67e6cc116100c3578063b6ca45951161007c578063b6ca4595146103d1578063bdcf208c14610401578063d6f7ddf91461041d578063f2fde38b14610439578063f324e9d114610455578063f3963cba146104715761014d565b80637a67e6cc146102cf5780637acc0b20146102eb5780638a72ea6a1461031f5780638da5cb5b146103535780639ef91d91146103715780639f329783146103a15761014d565b80633ef3e0cb116101155780633ef3e0cb1461021157806345df77791461022d57806346747b381461024957806347466dc314610279578063573f671814610295578063715018a6146102c55761014d565b8063013cf08b146101525780630a9f46ad14610187578063116c327b146101a55780631ac8d444146101c1578063336989ae146101dd575b600080fd5b61016c600480360381019061016791906131a0565b61048d565b60405161017e9695949392919061391d565b60405180910390f35b61018f61057b565b60405161019c9190613810565b60405180910390f35b6101bf60048036038101906101ba9190612fa5565b610588565b005b6101db60048036038101906101d69190612e2f565b6107d9565b005b6101f760048036038101906101f29190612e02565b610837565b6040516102089594939291906136fd565b60405180910390f35b61022b600480360381019061022691906130bb565b610887565b005b61024760048036038101906102429190613014565b6109ea565b005b610263600480360381019061025e91906131cd565b611007565b60405161027091906136c0565b60405180910390f35b610293600480360381019061028e91906131a0565b611196565b005b6102af60048036038101906102aa9190613157565b6112ac565b6040516102bc9190613902565b60405180910390f35b6102cd611468565b005b6102e960048036038101906102e49190612e8b565b6114f0565b005b610305600480360381019061030091906131a0565b61173b565b604051610316959493929190613644565b60405180910390f35b610339600480360381019061033491906131a0565b6117ae565b60405161034a9594939291906135ea565b60405180910390f35b61035b6118b6565b6040516103689190613523565b60405180910390f35b61038b60048036038101906103869190612e02565b6118df565b60405161039891906136e2565b60405180910390f35b6103bb60048036038101906103b691906130fb565b61196c565b6040516103c891906136c0565b60405180910390f35b6103eb60048036038101906103e69190613054565b611a2d565b6040516103f89190613810565b60405180910390f35b61041b600480360381019061041691906131fa565b611bdf565b005b61043760048036038101906104329190613014565b611de4565b005b610453600480360381019061044e9190612e02565b6121e9565b005b61046f600480360381019061046a9190612f0e565b6122e1565b005b61048b60048036038101906104869190612e02565b6123b7565b005b6003818154811061049d57600080fd5b90600052602060002090600602016000915090508060000160009054906101000a900460ff16908060010154908060020154908060030154908060040180546104e590613cfb565b80601f016020809104026020016040519081016040528092919081815260200182805461051190613cfb565b801561055e5780601f106105335761010080835404028352916020019161055e565b820191906000526020600020905b81548152906001019060200180831161054157829003601f168201915b5050505050908060050160009054906101000a900460ff16905086565b6000600380549050905090565b7f251fc0df7e56c36cfc4f618ef67296b8e2c41ce1ce473e5187bfec66743b38d383836040516105b992919061353e565b60405180910390a16105c96128c0565b83816000019073ffffffffffffffffffffffffffffffffffffffff16908173ffffffffffffffffffffffffffffffffffffffff16815250504281602001818152505060008160800190600181111561062457610623613e00565b5b9081600181111561063857610637613e00565b5b8152505061064582611007565b8160600181905250828160a00181905250600281908060018154018082558091505060019003906000526020600020906006020160009091909190915060008201518160000160006101000a81548173ffffffffffffffffffffffffffffffffffffffff021916908373ffffffffffffffffffffffffffffffffffffffff1602179055506020820151816001015560408201518160020160006101000a81548160ff021916908360048111156106fe576106fd613e00565b5b0217905550606082015181600301908051906020019061071f929190612930565b5060808201518160040160006101000a81548160ff0219169083600181111561074b5761074a613e00565b5b021790555060a082015181600501908051906020019061076c92919061297d565b5050507f6a2d36566113fdc14dbc5b9458a0ba3a3eb54e394c2eb29fb26efdfee664f55e60016002805490506107a29190613b65565b826000015183602001518460400151856060015187896040516107cb979695949392919061382b565b60405180910390a150505050565b6108338282600160008673ffffffffffffffffffffffffffffffffffffffff1673ffffffffffffffffffffffffffffffffffffffff16815260200190815260200160002060000160019054906101000a900460ff16610588565b5050565b60016020528060005260406000206000915090508060000160009054906101000a900460ff16908060000160019054906101000a900460ff16908060010154908060020154908060030154905085565b61088f6127f4565b73ffffffffffffffffffffffffffffffffffffffff166108ad6118b6565b73ffffffffffffffffffffffffffffffffffffffff1614610903576040517f08c379a00000000000000000000000000000000000000000000000000000000081526004016108fa906137d0565b60405180910390fd5b80600160008473ffffffffffffffffffffffffffffffffffffffff1673ffffffffffffffffffffffffffffffffffffffff16815260200190815260200160002060000160016101000a81548160ff021916908360ff1602179055507f67300a8a7a64e6ba305144189169d4bf615482b42e8fd241a6c5fc20879374a782600160008573ffffffffffffffffffffffffffffffffffffffff1673ffffffffffffffffffffffffffffffffffffffff16815260200190815260200160002060000160019054906101000a900460ff166040516109de929190613697565b60405180910390a15050565b6109f26127f4565b73ffffffffffffffffffffffffffffffffffffffff16610a106118b6565b73ffffffffffffffffffffffffffffffffffffffff1614610a66576040517f08c379a0000000000000000000000000000000000000000000000000000000008152600401610a5d906137d0565b60405180910390fd5b8160006001811115610a7b57610a7a613e00565b5b600160008373ffffffffffffffffffffffffffffffffffffffff1673ffffffffffffffffffffffffffffffffffffffff16815260200190815260200160002060000160009054906101000a900460ff166001811115610add57610adc613e00565b5b14610b1d576040517f08c379a0000000000000000000000000000000000000000000000000000000008152600401610b14906137f0565b60405180910390fd5b600060018060008673ffffffffffffffffffffffffffffffffffffffff1673ffffffffffffffffffffffffffffffffffffffff16815260200190815260200160002060040180549050610b709190613b65565b90506000600160008673ffffffffffffffffffffffffffffffffffffffff1673ffffffffffffffffffffffffffffffffffffffff1681526020019081526020016000206004018054905011610bfa576040517f08c379a0000000000000000000000000000000000000000000000000000000008152600401610bf1906137b0565b60405180910390fd5b60006001811115610c0e57610c0d613e00565b5b600160008673ffffffffffffffffffffffffffffffffffffffff1673ffffffffffffffffffffffffffffffffffffffff1681526020019081526020016000206004018281548110610c6257610c61613e5e565b5b906000526020600020906005020160030160009054906101000a900460ff166001811115610c9357610c92613e00565b5b14610cd3576040517f08c379a0000000000000000000000000000000000000000000000000000000008152600401610cca90613750565b60405180910390fd5b7fa3a756c9361873f5cd34cb71ba3b6ebc76b90321aa2767387c016991dfb4f63a84600160008773ffffffffffffffffffffffffffffffffffffffff1673ffffffffffffffffffffffffffffffffffffffff1681526020019081526020016000206004018381548110610d4957610d48613e5e565b5b9060005260206000209060050201600001604051610d689291906135ba565b60405180910390a182600160008673ffffffffffffffffffffffffffffffffffffffff1673ffffffffffffffffffffffffffffffffffffffff1681526020019081526020016000206004018281548110610dc557610dc4613e5e565b5b90600052602060002090600502016002018190555060018060008673ffffffffffffffffffffffffffffffffffffffff1673ffffffffffffffffffffffffffffffffffffffff1681526020019081526020016000206004018281548110610e2f57610e2e613e5e565b5b906000526020600020906005020160030160006101000a81548160ff02191690836001811115610e6257610e61613e00565b5b02179055506000600160008673ffffffffffffffffffffffffffffffffffffffff1673ffffffffffffffffffffffffffffffffffffffff16815260200190815260200160002060000160019054906101000a900460ff1660ff161415610f645760018060008673ffffffffffffffffffffffffffffffffffffffff1673ffffffffffffffffffffffffffffffffffffffff16815260200190815260200160002060000160006101000a81548160ff02191690836001811115610f2757610f26613e00565b5b02179055507f1eacdda6365a7f824e9b515212eda6b8fb050f25bc505f857ac21c025a64e6f184604051610f5b9190613523565b60405180910390a15b7fd3866d48a40f2de06c735e96a984d47ce6783b334002603c31e3f4bc05bd51c584600160008773ffffffffffffffffffffffffffffffffffffffff1673ffffffffffffffffffffffffffffffffffffffff1681526020019081526020016000206004018381548110610fda57610fd9613e5e565b5b9060005260206000209060050201600001604051610ff99291906135ba565b60405180910390a150505050565b60606000600367ffffffffffffffff81111561102657611025613e8d565b5b6040519080825280602002602001820160405280156110545781602001602082028036833780820191505090505b5090506000808460ff16141561106e578192505050611191565b60005b6003805490508160ff1610801561108b575060038260ff16105b1561118157600060018111156110a4576110a3613e00565b5b60038260ff16815481106110bb576110ba613e5e565b5b906000526020600020906006020160050160009054906101000a900460ff1660018111156110ec576110eb613e00565b5b148015611134575060038160ff168154811061110b5761110a613e5e565b5b906000526020600020906006020160000160009054906101000a900460ff1660ff168560ff1610155b1561116e578060ff16838360ff168151811061115357611152613e5e565b5b602002602001018181525050818061116a90613da7565b9250505b808061117990613da7565b915050611071565b5061118c828261196c565b925050505b919050565b61119e6127f4565b73ffffffffffffffffffffffffffffffffffffffff166111bc6118b6565b73ffffffffffffffffffffffffffffffffffffffff1614611212576040517f08c379a0000000000000000000000000000000000000000000000000000000008152600401611209906137d0565b60405180910390fd5b80600380549050811061125a576040517f08c379a000000000000000000000000000000000000000000000000000000000815260040161125190613770565b60405180910390fd5b6001600383815481106112705761126f613e5e565b5b906000526020600020906006020160050160006101000a81548160ff021916908360018111156112a3576112a2613e00565b5b02179055505050565b6000806000806000808660600151101580156112cd57506028866060015111155b156112db5760019250611308565b602886606001511180156112f457506096866060015111155b156113025760029250611307565b600392505b5b6276a700426113179190613b65565b86608001511061132a57600091506113b4565b6276a700426113399190613b65565b866080015110801561135d575062ed4e00426113559190613b65565b866080015110155b1561136b57600291506113b3565b62ed4e004261137a9190613b65565b866080015110801561139f57506301b30f00426113979190613b65565b866080015110155b156113ad57600691506113b2565b600f91505b5b5b6000866040015114156113ca576000905061141f565b600086604001511180156113e35750600a866040015111155b156113f1576001905061141e565b600a866040015111801561140a57506014866040015111155b15611418576005905061141d565b600f90505b5b5b60088161142c9190613b2a565b6006836114399190613b2a565b6004856114469190613b2a565b6114509190613af3565b61145a9190613af3565b935083945050505050919050565b6114706127f4565b73ffffffffffffffffffffffffffffffffffffffff1661148e6118b6565b73ffffffffffffffffffffffffffffffffffffffff16146114e4576040517f08c379a00000000000000000000000000000000000000000000000000000000081526004016114db906137d0565b60405180910390fd5b6114ee60006127fc565b565b836000600181111561150557611504613e00565b5b600160008373ffffffffffffffffffffffffffffffffffffffff1673ffffffffffffffffffffffffffffffffffffffff16815260200190815260200160002060000160009054906101000a900460ff16600181111561156757611566613e00565b5b146115a7576040517f08c379a000000000000000000000000000000000000000000000000000000000815260040161159e906137f0565b60405180910390fd5b7f031870b979bdc77dc0b1037a1aac37c55a178ab3bec4f8ba1ca1fc452e30578b858585856040516115dc949392919061356e565b60405180910390a1600160008673ffffffffffffffffffffffffffffffffffffffff1673ffffffffffffffffffffffffffffffffffffffff1681526020019081526020016000206004016040518060a00160405280868152602001858152602001600081526020016000600181111561165857611657613e00565b5b815260200184815250908060018154018082558091505060019003906000526020600020906005020160009091909190915060008201518160000190805190602001906116a692919061297d565b50602082015181600101556040820151816002015560608201518160030160006101000a81548160ff021916908360018111156116e6576116e5613e00565b5b02179055506080820151816004015550507f52420d39a0f366bd8078120494fcd7ffb3971e79291fa625dd9de26e856075248585858560405161172c949392919061356e565b60405180910390a15050505050565b6004818154811061174b57600080fd5b90600052602060002090600502016000915090508060000160009054906101000a900473ffffffffffffffffffffffffffffffffffffffff16908060010154908060020154908060030154908060040160009054906101000a900460ff16905085565b600281815481106117be57600080fd5b90600052602060002090600602016000915090508060000160009054906101000a900473ffffffffffffffffffffffffffffffffffffffff16908060010154908060020160009054906101000a900460ff16908060040160009054906101000a900460ff169080600501805461183390613cfb565b80601f016020809104026020016040519081016040528092919081815260200182805461185f90613cfb565b80156118ac5780601f10611881576101008083540402835291602001916118ac565b820191906000526020600020905b81548152906001019060200180831161188f57829003601f168201915b5050505050905085565b60008060009054906101000a900473ffffffffffffffffffffffffffffffffffffffff16905090565b60008060018111156118f4576118f3613e00565b5b600160008473ffffffffffffffffffffffffffffffffffffffff1673ffffffffffffffffffffffffffffffffffffffff16815260200190815260200160002060000160009054906101000a900460ff16600181111561195657611955613e00565b5b14611962576000611965565b60015b9050919050565b606060008260ff1667ffffffffffffffff81111561198d5761198c613e8d565b5b6040519080825280602002602001820160405280156119bb5781602001602082028036833780820191505090505b50905060005b8360ff168160ff161015611a2257848160ff16815181106119e5576119e4613e5e565b5b6020026020010151828260ff1681518110611a0357611a02613e5e565b5b6020026020010181815250508080611a1a90613da7565b9150506119c1565b508091505092915050565b6000611a376127f4565b73ffffffffffffffffffffffffffffffffffffffff16611a556118b6565b73ffffffffffffffffffffffffffffffffffffffff1614611aab576040517f08c379a0000000000000000000000000000000000000000000000000000000008152600401611aa2906137d0565b60405180910390fd5b60006040518060a001604052808773ffffffffffffffffffffffffffffffffffffffff16815260200186815260200185815260200184815260200160006001811115611afa57611af9613e00565b5b8152509050600481908060018154018082558091505060019003906000526020600020906005020160009091909190915060008201518160000160006101000a81548173ffffffffffffffffffffffffffffffffffffffff021916908373ffffffffffffffffffffffffffffffffffffffff16021790555060208201518160010155604082015181600201556060820151816003015560808201518160040160006101000a81548160ff02191690836001811115611bbb57611bba613e00565b5b021790555050506001600480549050611bd49190613b65565b915050949350505050565b611be76127f4565b73ffffffffffffffffffffffffffffffffffffffff16611c056118b6565b73ffffffffffffffffffffffffffffffffffffffff1614611c5b576040517f08c379a0000000000000000000000000000000000000000000000000000000008152600401611c52906137d0565b60405180910390fd5b611c63612a03565b84816000019060ff16908160ff1681525050838160200181815250508281604001818152505081816080018190525060008160a001906001811115611cab57611caa613e00565b5b90816001811115611cbf57611cbe613e00565b5b81525050600381908060018154018082558091505060019003906000526020600020906006020160009091909190915060008201518160000160006101000a81548160ff021916908360ff1602179055506020820151816001015560408201518160020155606082015181600301556080820151816004019080519060200190611d4a92919061297d565b5060a08201518160050160006101000a81548160ff02191690836001811115611d7657611d75613e00565b5b021790555050507f0dd92ec7c9e4620459d0f39f48975327d855d61513c1e839e5ae03d1ca7644726001600380549050611db09190613b65565b8260000151836020015184604001518560800151604051611dd59594939291906138a8565b60405180910390a15050505050565b611dec6127f4565b73ffffffffffffffffffffffffffffffffffffffff16611e0a6118b6565b73ffffffffffffffffffffffffffffffffffffffff1614611e60576040517f08c379a0000000000000000000000000000000000000000000000000000000008152600401611e57906137d0565b60405180910390fd5b8160006001811115611e7557611e74613e00565b5b600160008373ffffffffffffffffffffffffffffffffffffffff1673ffffffffffffffffffffffffffffffffffffffff16815260200190815260200160002060000160009054906101000a900460ff166001811115611ed757611ed6613e00565b5b14611f17576040517f08c379a0000000000000000000000000000000000000000000000000000000008152600401611f0e906137f0565b60405180910390fd5b600160008473ffffffffffffffffffffffffffffffffffffffff1673ffffffffffffffffffffffffffffffffffffffff1681526020019081526020016000206001016000815480929190611f6a90613d5e565b919050555060036004600160008673ffffffffffffffffffffffffffffffffffffffff1673ffffffffffffffffffffffffffffffffffffffff16815260200190815260200160002060040160018060008873ffffffffffffffffffffffffffffffffffffffff1673ffffffffffffffffffffffffffffffffffffffff168152602001908152602001600020600401805490506120069190613b65565b8154811061201757612016613e5e565b5b9060005260206000209060050201600401548154811061203a57612039613e5e565b5b9060005260206000209060050201600301548154811061205d5761205c613e5e565b5b90600052602060002090600602016002015460036004600160008773ffffffffffffffffffffffffffffffffffffffff1673ffffffffffffffffffffffffffffffffffffffff16815260200190815260200160002060040160018060008973ffffffffffffffffffffffffffffffffffffffff1673ffffffffffffffffffffffffffffffffffffffff168152602001908152602001600020600401805490506121069190613b65565b8154811061211757612116613e5e565b5b9060005260206000209060050201600401548154811061213a57612139613e5e565b5b9060005260206000209060050201600301548154811061215d5761215c613e5e565b5b9060005260206000209060060201600101546121799190613a9d565b600160008573ffffffffffffffffffffffffffffffffffffffff1673ffffffffffffffffffffffffffffffffffffffff16815260200190815260200160002060020160008282546121ca9190613a9d565b925050819055506121da836123b7565b6121e483836109ea565b505050565b6121f16127f4565b73ffffffffffffffffffffffffffffffffffffffff1661220f6118b6565b73ffffffffffffffffffffffffffffffffffffffff1614612265576040517f08c379a000000000000000000000000000000000000000000000000000000000815260040161225c906137d0565b60405180910390fd5b600073ffffffffffffffffffffffffffffffffffffffff168173ffffffffffffffffffffffffffffffffffffffff1614156122d5576040517f08c379a00000000000000000000000000000000000000000000000000000000081526004016122cc90613790565b60405180910390fd5b6122de816127fc565b50565b84600060018111156122f6576122f5613e00565b5b600160008373ffffffffffffffffffffffffffffffffffffffff1673ffffffffffffffffffffffffffffffffffffffff16815260200190815260200160002060000160009054906101000a900460ff16600181111561235857612357613e00565b5b14612398576040517f08c379a000000000000000000000000000000000000000000000000000000000815260040161238f906137f0565b60405180910390fd5b6123af8686866123aa8a898989611a2d565b6114f0565b505050505050565b6123bf6127f4565b73ffffffffffffffffffffffffffffffffffffffff166123dd6118b6565b73ffffffffffffffffffffffffffffffffffffffff1614612433576040517f08c379a000000000000000000000000000000000000000000000000000000000815260040161242a906137d0565b60405180910390fd5b806000600181111561244857612447613e00565b5b600160008373ffffffffffffffffffffffffffffffffffffffff1673ffffffffffffffffffffffffffffffffffffffff16815260200190815260200160002060000160009054906101000a900460ff1660018111156124aa576124a9613e00565b5b146124ea576040517f08c379a00000000000000000000000000000000000000000000000000000000081526004016124e1906137f0565b60405180910390fd5b6000600160008473ffffffffffffffffffffffffffffffffffffffff1673ffffffffffffffffffffffffffffffffffffffff16815260200190815260200160002060030154141561257d5742600160008473ffffffffffffffffffffffffffffffffffffffff1673ffffffffffffffffffffffffffffffffffffffff168152602001908152602001600020600301819055505b600160008373ffffffffffffffffffffffffffffffffffffffff1673ffffffffffffffffffffffffffffffffffffffff16815260200190815260200160002060010160008154809291906125d090613d5e565b91905055506127f0826127eb600160008673ffffffffffffffffffffffffffffffffffffffff1673ffffffffffffffffffffffffffffffffffffffff1681526020019081526020016000206040518060c00160405290816000820160009054906101000a900460ff16600181111561264b5761264a613e00565b5b600181111561265d5761265c613e00565b5b81526020016000820160019054906101000a900460ff1660ff1660ff16815260200160018201548152602001600282015481526020016003820154815260200160048201805480602002602001604051908101604052809291908181526020016000905b828210156127de57838290600052602060002090600502016040518060a00160405290816000820180546126f490613cfb565b80601f016020809104026020016040519081016040528092919081815260200182805461272090613cfb565b801561276d5780601f106127425761010080835404028352916020019161276d565b820191906000526020600020905b81548152906001019060200180831161275057829003601f168201915b5050505050815260200160018201548152602001600282015481526020016003820160009054906101000a900460ff1660018111156127af576127ae613e00565b5b60018111156127c1576127c0613e00565b5b8152602001600482015481525050815260200190600101906126c1565b50505050815250506112ac565b610887565b5050565b600033905090565b60008060009054906101000a900473ffffffffffffffffffffffffffffffffffffffff169050816000806101000a81548173ffffffffffffffffffffffffffffffffffffffff021916908373ffffffffffffffffffffffffffffffffffffffff1602179055508173ffffffffffffffffffffffffffffffffffffffff168173ffffffffffffffffffffffffffffffffffffffff167f8be0079c531659141344cd1fd0a4f28419497f9722a3daafe3b4186f6b6457e060405160405180910390a35050565b6040518060c00160405280600073ffffffffffffffffffffffffffffffffffffffff168152602001600081526020016000600481111561290357612902613e00565b5b8152602001606081526020016000600181111561292357612922613e00565b5b8152602001606081525090565b82805482825590600052602060002090810192821561296c579160200282015b8281111561296b578251825591602001919060010190612950565b5b5090506129799190612a4e565b5090565b82805461298990613cfb565b90600052602060002090601f0160209004810192826129ab57600085556129f2565b82601f106129c457805160ff19168380011785556129f2565b828001600101855582156129f2579182015b828111156129f15782518255916020019190600101906129d6565b5b5090506129ff9190612a4e565b5090565b6040518060c00160405280600060ff1681526020016000815260200160008152602001600081526020016060815260200160006001811115612a4857612a47613e00565b5b81525090565b5b80821115612a67576000816000905550600101612a4f565b5090565b6000612a7e612a79846139aa565b613985565b90508083825260208201905082856020860282011115612aa157612aa0613ecb565b5b60005b85811015612aef57813567ffffffffffffffff811115612ac757612ac6613ebc565b5b808601612ad48982612d30565b85526020850194506020840193505050600181019050612aa4565b5050509392505050565b6000612b0c612b07846139d6565b613985565b90508083825260208201905082856020860282011115612b2f57612b2e613ecb565b5b60005b85811015612b5f5781612b458882612dd8565b845260208401935060208301925050600181019050612b32565b5050509392505050565b6000612b7c612b7784613a02565b613985565b905082815260208101848484011115612b9857612b97613ed0565b5b612ba3848285613cb9565b509392505050565b600081359050612bba81614096565b92915050565b600082601f830112612bd557612bd4613ebc565b5b8135612be5848260208601612a6b565b91505092915050565b600082601f830112612c0357612c02613ebc565b5b8135612c13848260208601612af9565b91505092915050565b600081359050612c2b816140ad565b92915050565b600081359050612c40816140bd565b92915050565b600082601f830112612c5b57612c5a613ebc565b5b8135612c6b848260208601612b69565b91505092915050565b600060c08284031215612c8a57612c89613ec1565b5b612c9460c0613985565b90506000612ca484828501612c1c565b6000830152506020612cb884828501612ded565b6020830152506040612ccc84828501612dd8565b6040830152506060612ce084828501612dd8565b6060830152506080612cf484828501612dd8565b60808301525060a082013567ffffffffffffffff811115612d1857612d17613ec6565b5b612d2484828501612bc0565b60a08301525092915050565b600060a08284031215612d4657612d45613ec1565b5b612d5060a0613985565b9050600082013567ffffffffffffffff811115612d7057612d6f613ec6565b5b612d7c84828501612c46565b6000830152506020612d9084828501612dd8565b6020830152506040612da484828501612dd8565b6040830152506060612db884828501612c31565b6060830152506080612dcc84828501612dd8565b60808301525092915050565b600081359050612de7816140cd565b92915050565b600081359050612dfc816140e4565b92915050565b600060208284031215612e1857612e17613eda565b5b6000612e2684828501612bab565b91505092915050565b60008060408385031215612e4657612e45613eda565b5b6000612e5485828601612bab565b925050602083013567ffffffffffffffff811115612e7557612e74613ed5565b5b612e8185828601612c46565b9150509250929050565b60008060008060808587031215612ea557612ea4613eda565b5b6000612eb387828801612bab565b945050602085013567ffffffffffffffff811115612ed457612ed3613ed5565b5b612ee087828801612c46565b9350506040612ef187828801612dd8565b9250506060612f0287828801612dd8565b91505092959194509250565b600080600080600060a08688031215612f2a57612f29613eda565b5b6000612f3888828901612bab565b955050602086013567ffffffffffffffff811115612f5957612f58613ed5565b5b612f6588828901612c46565b9450506040612f7688828901612dd8565b9350506060612f8788828901612dd8565b9250506080612f9888828901612dd8565b9150509295509295909350565b600080600060608486031215612fbe57612fbd613eda565b5b6000612fcc86828701612bab565b935050602084013567ffffffffffffffff811115612fed57612fec613ed5565b5b612ff986828701612c46565b925050604061300a86828701612ded565b9150509250925092565b6000806040838503121561302b5761302a613eda565b5b600061303985828601612bab565b925050602061304a85828601612dd8565b9150509250929050565b6000806000806080858703121561306e5761306d613eda565b5b600061307c87828801612bab565b945050602061308d87828801612dd8565b935050604061309e87828801612dd8565b92505060606130af87828801612dd8565b91505092959194509250565b600080604083850312156130d2576130d1613eda565b5b60006130e085828601612bab565b92505060206130f185828601612ded565b9150509250929050565b6000806040838503121561311257613111613eda565b5b600083013567ffffffffffffffff8111156131305761312f613ed5565b5b61313c85828601612bee565b925050602061314d85828601612ded565b9150509250929050565b60006020828403121561316d5761316c613eda565b5b600082013567ffffffffffffffff81111561318b5761318a613ed5565b5b61319784828501612c74565b91505092915050565b6000602082840312156131b6576131b5613eda565b5b60006131c484828501612dd8565b91505092915050565b6000602082840312156131e3576131e2613eda565b5b60006131f184828501612ded565b91505092915050565b6000806000806080858703121561321457613213613eda565b5b600061322287828801612ded565b945050602061323387828801612dd8565b935050604061324487828801612dd8565b925050606085013567ffffffffffffffff81111561326557613264613ed5565b5b61327187828801612c46565b91505092959194509250565b600061328983836134e7565b60208301905092915050565b61329e81613b99565b82525050565b60006132af82613a58565b6132b98185613a7b565b93506132c483613a33565b8060005b838110156132f55781516132dc888261327d565b97506132e783613a6e565b9250506001810190506132c8565b5085935050505092915050565b61330b81613bab565b82525050565b61331a81613c4d565b82525050565b61332981613c5f565b82525050565b61333881613c71565b82525050565b61334781613c83565b82525050565b61335681613c95565b82525050565b600061336782613a63565b6133718185613a8c565b9350613381818560208601613cc8565b61338a81613edf565b840191505092915050565b600081546133a281613cfb565b6133ac8186613a8c565b945060018216600081146133c757600181146133d95761340c565b60ff198316865260208601935061340c565b6133e285613a43565b60005b83811015613404578154818901526001820191506020810190506133e5565b808801955050505b50505092915050565b6000613422602583613a8c565b915061342d82613ef0565b604082019050919050565b6000613445601683613a8c565b915061345082613f3f565b602082019050919050565b6000613468602683613a8c565b915061347382613f68565b604082019050919050565b600061348b601783613a8c565b915061349682613fb7565b602082019050919050565b60006134ae602083613a8c565b91506134b982613fe0565b602082019050919050565b60006134d1601083613a8c565b91506134dc82614009565b602082019050919050565b6134f081613c36565b82525050565b6134ff81613c36565b82525050565b61350e81613ca7565b82525050565b61351d81613c40565b82525050565b60006020820190506135386000830184613295565b92915050565b60006040820190506135536000830185613295565b8181036020830152613565818461335c565b90509392505050565b60006080820190506135836000830187613295565b8181036020830152613595818661335c565b90506135a460408301856134f6565b6135b160608301846134f6565b95945050505050565b60006040820190506135cf6000830185613295565b81810360208301526135e18184613395565b90509392505050565b600060a0820190506135ff6000830188613295565b61360c60208301876134f6565b6136196040830186613320565b613626606083018561332f565b8181036080830152613638818461335c565b90509695505050505050565b600060a0820190506136596000830188613295565b61366660208301876134f6565b61367360408301866134f6565b61368060608301856134f6565b61368d608083018461333e565b9695505050505050565b60006040820190506136ac6000830185613295565b6136b96020830184613514565b9392505050565b600060208201905081810360008301526136da81846132a4565b905092915050565b60006020820190506136f76000830184613302565b92915050565b600060a0820190506137126000830188613311565b61371f6020830187613514565b61372c60408301866134f6565b61373960608301856134f6565b61374660808301846134f6565b9695505050505050565b6000602082019050818103600083015261376981613415565b9050919050565b6000602082019050818103600083015261378981613438565b9050919050565b600060208201905081810360008301526137a98161345b565b9050919050565b600060208201905081810360008301526137c98161347e565b9050919050565b600060208201905081810360008301526137e9816134a1565b9050919050565b60006020820190508181036000830152613809816134c4565b9050919050565b600060208201905061382560008301846134f6565b92915050565b600060e082019050613840600083018a6134f6565b61384d6020830189613295565b61385a60408301886134f6565b6138676060830187613320565b818103608083015261387981866132a4565b905061388860a0830185613505565b81810360c083015261389a818461335c565b905098975050505050505050565b600060a0820190506138bd60008301886134f6565b6138ca6020830187613514565b6138d760408301866134f6565b6138e460608301856134f6565b81810360808301526138f6818461335c565b90509695505050505050565b60006020820190506139176000830184613514565b92915050565b600060c0820190506139326000830189613514565b61393f60208301886134f6565b61394c60408301876134f6565b61395960608301866134f6565b818103608083015261396b818561335c565b905061397a60a083018461334d565b979650505050505050565b600061398f6139a0565b905061399b8282613d2d565b919050565b6000604051905090565b600067ffffffffffffffff8211156139c5576139c4613e8d565b5b602082029050602081019050919050565b600067ffffffffffffffff8211156139f1576139f0613e8d565b5b602082029050602081019050919050565b600067ffffffffffffffff821115613a1d57613a1c613e8d565b5b613a2682613edf565b9050602081019050919050565b6000819050602082019050919050565b60008190508160005260206000209050919050565b600081519050919050565b600081519050919050565b6000602082019050919050565b600082825260208201905092915050565b600082825260208201905092915050565b6000613aa882613c36565b9150613ab383613c36565b9250827fffffffffffffffffffffffffffffffffffffffffffffffffffffffffffffffff03821115613ae857613ae7613dd1565b5b828201905092915050565b6000613afe82613c40565b9150613b0983613c40565b92508260ff03821115613b1f57613b1e613dd1565b5b828201905092915050565b6000613b3582613c40565b9150613b4083613c40565b92508160ff0483118215151615613b5a57613b59613dd1565b5b828202905092915050565b6000613b7082613c36565b9150613b7b83613c36565b925082821015613b8e57613b8d613dd1565b5b828203905092915050565b6000613ba482613c16565b9050919050565b60008115159050919050565b6000819050613bc582614032565b919050565b6000819050613bd882614046565b919050565b6000819050613beb8261405a565b919050565b6000819050613bfe8261406e565b919050565b6000819050613c1182614082565b919050565b600073ffffffffffffffffffffffffffffffffffffffff82169050919050565b6000819050919050565b600060ff82169050919050565b6000613c5882613bb7565b9050919050565b6000613c6a82613bca565b9050919050565b6000613c7c82613bdd565b9050919050565b6000613c8e82613bf0565b9050919050565b6000613ca082613c03565b9050919050565b6000613cb282613c40565b9050919050565b82818337600083830152505050565b60005b83811015613ce6578082015181840152602081019050613ccb565b83811115613cf5576000848401525b50505050565b60006002820490506001821680613d1357607f821691505b60208210811415613d2757613d26613e2f565b5b50919050565b613d3682613edf565b810181811067ffffffffffffffff82111715613d5557613d54613e8d565b5b80604052505050565b6000613d6982613c36565b91507fffffffffffffffffffffffffffffffffffffffffffffffffffffffffffffffff821415613d9c57613d9b613dd1565b5b600182019050919050565b6000613db282613c40565b915060ff821415613dc657613dc5613dd1565b5b600182019050919050565b7f4e487b7100000000000000000000000000000000000000000000000000000000600052601160045260246000fd5b7f4e487b7100000000000000000000000000000000000000000000000000000000600052602160045260246000fd5b7f4e487b7100000000000000000000000000000000000000000000000000000000600052602260045260246000fd5b7f4e487b7100000000000000000000000000000000000000000000000000000000600052603260045260246000fd5b7f4e487b7100000000000000000000000000000000000000000000000000000000600052604160045260246000fd5b600080fd5b600080fd5b600080fd5b600080fd5b600080fd5b600080fd5b600080fd5b6000601f19601f8301169050919050565b7f54686520637573746f6d657220686173206e6f2070726f6475637420746f207260008201527f6566756e64000000000000000000000000000000000000000000000000000000602082015250565b7f50726f706f73616c20646f65736e277420657869737400000000000000000000600082015250565b7f4f776e61626c653a206e6577206f776e657220697320746865207a65726f206160008201527f6464726573730000000000000000000000000000000000000000000000000000602082015250565b7f50686f6e65206973206e6f742072656769737465726564000000000000000000600082015250565b7f4f776e61626c653a2063616c6c6572206973206e6f7420746865206f776e6572600082015250565b7f426c6f636b656420637573746f6d657200000000000000000000000000000000600082015250565b6002811061404357614042613e00565b5b50565b6005811061405757614056613e00565b5b50565b6002811061406b5761406a613e00565b5b50565b6002811061407f5761407e613e00565b5b50565b6002811061409357614092613e00565b5b50565b61409f81613b99565b81146140aa57600080fd5b50565b600281106140ba57600080fd5b50565b600281106140ca57600080fd5b50565b6140d681613c36565b81146140e157600080fd5b50565b6140ed81613c40565b81146140f857600080fd5b5056fea26469706673582212207f4dff6afd491a53157272e2b54882c5ee66947d19caeb08a5d3498e288bf2c764736f6c63430008060033",
  "immutableReferences": {},
  "source": "// SPDX-License-Identifier: MIT\npragma solidity ^0.8.6;\n\nimport \"./Billing.sol\";\nimport \"./Offering.sol\";\nimport \"@openzeppelin/contracts/access/Ownable.sol\";\n\n/**\n * @title This Smart Contract is the entry point of Timelapse.\n * @notice Communicate with API(server/watcher) part and dApp\n * @author Keeymon, DavidRochus\n */\ncontract Timelapse is Ownable, Billing, Offering {\n\n    /**\n     * @dev Smart Contract constructor\n     */\n    constructor() {}\n\n    /**\n      * @notice Increase scoring information of a customer\n      * @param _phoneHash The address that identifies to the customer\n      * @dev This function is directly called when API receives a topUp for a customer (identified with `_phoneHash`) with a target other than Timelapse\n      */\n    function addToScore(address _phoneHash) public onlyOwner activeCustomer(_phoneHash) {\n        if (customers[_phoneHash].firstTopUp == 0)\n            customers[_phoneHash].firstTopUp = block.timestamp;\n        customers[_phoneHash].nbTopUp++;\n        changeScore(_phoneHash, process(customers[_phoneHash]));\n    }\n\n    /**\n      * @notice Accept the offer\n      * @param _phoneHash The address that identifies to the customer\n      * @param _ref Reference of the telecom provider\n      * @param _acceptanceTimestamp Timestamp of the acceptance\n      * @param _idOffer ID of the offer\n      * @param _idProposal ID of the proposal\n      * @dev Accept the offer `_idOffer` (By choosing proposal `_idProposal`) of a customer (identified with `_phoneHash`) with reference `_ref` at timestamp `_acceptanceTimestamp`\n      */\n    function acceptance(address _phoneHash, string memory _ref, uint _acceptanceTimestamp, uint256 _idOffer, uint256 _idProposal) public activeCustomer(_phoneHash) {\n        acceptanceBilling(_phoneHash, _ref, _acceptanceTimestamp, createProduct(_phoneHash, _acceptanceTimestamp, _idOffer, _idProposal));\n    }\n\n     /**\n      * @notice TopUp the last product of a customer\n      * @param _phoneHash The address that identifies to the customer\n      * @param _paidTimestamp Timestamp of the acceptance\n      * @dev TopUp the last product of a customer (identified with `_phoneHash`) at timestamp `_paidTimestamp`\n      */\n    function topUp(address _phoneHash, uint _paidTimestamp) public onlyOwner activeCustomer(_phoneHash) {\n        customers[_phoneHash].nbTopUp++;\n        customers[_phoneHash].amount += proposals[products[customers[_phoneHash].history[customers[_phoneHash].history.length - 1].idProduct].idProposal].capital +\n                                        proposals[products[customers[_phoneHash].history[customers[_phoneHash].history.length - 1].idProduct].idProposal].interest;\n        addToScore(_phoneHash);\n        topUpBilling(_phoneHash, _paidTimestamp);\n    }\n\n    /**\n      * @notice Manage the \"low balances\" received and generate an offer\n      * @param _phoneHash The address that identifies to the customer\n      * @param _ref Reference of the telecom provider\n      * @dev Manage lowBalance (with reference `_ref`) of a customer (identified with `_phoneHash`)\n      */\n    function lowBalance(address _phoneHash, string memory _ref) public {\n        lowBalanceOffering(_phoneHash, _ref, customers[_phoneHash].score);\n    }\n\n    /**\n      * @notice Compute the score of a customer\n      * @param _customer The customer\n      * @return Score The computed customer score \n      * @dev Compute the score of a customer `_customer`\n      */\n    function process(Customer memory _customer) public view returns(uint8) {\n        uint8 score;\n        uint8 topupAmountPoints;\n        uint8 firstTopUpAgePoints;\n        uint8 nbTopUpPoints;\n        if (_customer.amount >= 0 && _customer.amount <= 40) {\n            topupAmountPoints = 1;\n        } else if (_customer.amount > 40 && _customer.amount <= 150) {\n            topupAmountPoints = 2;\n        } else {\n            topupAmountPoints = 3;\n        }\n        if (_customer.firstTopUp >= (block.timestamp - 90 days)) {\n            firstTopUpAgePoints = 0;\n        } else if (\n            _customer.firstTopUp < (block.timestamp - 90 days) &&\n            _customer.firstTopUp >= (block.timestamp - 180 days)\n        ) {\n            firstTopUpAgePoints = 2;\n        } else if (\n            _customer.firstTopUp < (block.timestamp - 180 days) &&\n            _customer.firstTopUp >= (block.timestamp - 330 days)\n        ) {\n            firstTopUpAgePoints = 6;\n        } else {\n            firstTopUpAgePoints = 15;\n        }\n        if (_customer.nbTopUp == 0) {\n            nbTopUpPoints = 0;\n        } else if (_customer.nbTopUp > 0 && _customer.nbTopUp <= 10) {\n            nbTopUpPoints = 1;\n        } else if (_customer.nbTopUp > 10 && _customer.nbTopUp <= 20) {\n            nbTopUpPoints = 5;\n        } else {\n            nbTopUpPoints = 15;\n        }\n\n        score =\n            (topupAmountPoints * 4) +\n            (firstTopUpAgePoints * 6) +\n            (nbTopUpPoints * 8);\n        return score;\n    }\n}",
  "sourcePath": "/Users/davidrochus/Dev/workspace/timelapse/contracts/Timelapse.sol",
  "compiler": {
    "name": "solc",
    "version": "0.8.6+commit.11564f7e.Emscripten.clang"
  },
  "schemaVersion": "3.4.1",
  "updatedAt": "2021-07-15T20:06:09.672Z",
  "networkType": "ethereum",
  "devdoc": {
    "author": "Keeymon, DavidRochus",
    "kind": "dev",
    "methods": {
      "acceptance(address,string,uint256,uint256,uint256)": {
        "details": "Accept the offer `_idOffer` (By choosing proposal `_idProposal`) of a customer (identified with `_phoneHash`) with reference `_ref` at timestamp `_acceptanceTimestamp`",
        "params": {
          "_acceptanceTimestamp": "Timestamp of the acceptance",
          "_idOffer": "ID of the offer",
          "_idProposal": "ID of the proposal",
          "_phoneHash": "The address that identifies to the customer",
          "_ref": "Reference of the telecom provider"
        }
      },
      "acceptanceBilling(address,string,uint256,uint256)": {
        "details": "Add a customer product history (using reference `_ref`, product `_idProduct`, timestamp `_acceptanceTimestamp`) for a customer (identified with `_phoneHash`)",
        "params": {
          "_acceptanceTimestamp": "Timestamp of the acceptance",
          "_idProduct": "ID of the product",
          "_phoneHash": "The address that identifies to the customer",
          "_ref": "Reference of the telecom provider"
        }
      },
      "addProposal(uint8,uint256,uint256,string)": {
        "details": "Add a proposal with the following information: minimum scoring `_minScoring`, amount `_capital` + `_interest`, description `_description`",
        "params": {
          "_capital": "Capital part of the proposal amount",
          "_description": "A description of the proposal",
          "_interest": "Interest part of the proposal amount",
          "_minScoring": "The minimum score needed by customer to receive this proposal"
        }
      },
      "addToScore(address)": {
        "details": "This function is directly called when API receives a topUp for a customer (identified with `_phoneHash`) with a target other than Timelapse",
        "params": {
          "_phoneHash": "The address that identifies to the customer"
        }
      },
      "changeScore(address,uint8)": {
        "details": "This function informs if the customer (identified with `_phoneHash`) is active",
        "params": {
          "_phoneHash": "The address that identifies to the customer"
        }
      },
      "closedProposal(uint256)": {
        "details": "Close the proposal with the ID `_id`",
        "params": {
          "_id": "ID of the proposal to close"
        }
      },
      "constructor": {
        "details": "Smart Contract constructor"
      },
      "createProduct(address,uint256,uint256,uint256)": {
        "details": "Create a product with the following information: a customer (identified with `_phoneHash`), an offer ID `_idOffer`, a proposal ID `_idProposal` and a timestamp `_acceptanceTimestamp` ",
        "params": {
          "_acceptanceTimestamp": "Timestamp of the acceptance",
          "_idOffer": "ID of the offer",
          "_idProposal": "ID of the proposal",
          "_phoneHash": "The address that identifies to the customer"
        }
      },
      "getOfferProposals(uint8)": {
        "details": "Return the proposals that correspond to the given scoring `_scoring` ",
        "params": {
          "_scoring": "score of the customer"
        },
        "returns": {
          "_0": "Proposals"
        }
      },
      "isActiveCustomer(address)": {
        "details": "This function informs if the customer (identified with `_phoneHash`) is active",
        "params": {
          "_phoneHash": "The address that identifies to the customer"
        }
      },
      "lowBalance(address,string)": {
        "details": "Manage lowBalance (with reference `_ref`) of a customer (identified with `_phoneHash`)",
        "params": {
          "_phoneHash": "The address that identifies to the customer",
          "_ref": "Reference of the telecom provider"
        }
      },
      "lowBalanceOffering(address,string,uint8)": {
        "details": "Manage lowBalance (with reference `_ref`) of a customer (identified with `_phoneHash`) and generate an offer based on the score `_score` ",
        "params": {
          "_phoneHash": "The address that identifies to the customer",
          "_ref": "Reference of the telecom provider",
          "_score": "score of the customer"
        }
      },
      "owner()": {
        "details": "Returns the address of the current owner."
      },
      "process((uint8,uint8,uint256,uint256,uint256,(string,uint256,uint256,uint8,uint256)[]))": {
        "details": "Compute the score of a customer `_customer`",
        "params": {
          "_customer": "The customer"
        },
        "returns": {
          "_0": "Score The computed customer score "
        }
      },
      "proposalsCount()": {
        "details": "Return the number of proposals"
      },
      "renounceOwnership()": {
        "details": "Leaves the contract without owner. It will not be possible to call `onlyOwner` functions anymore. Can only be called by the current owner. NOTE: Renouncing ownership will leave the contract without an owner, thereby removing any functionality that is only available to the owner."
      },
      "topUp(address,uint256)": {
        "details": "TopUp the last product of a customer (identified with `_phoneHash`) at timestamp `_paidTimestamp`",
        "params": {
          "_paidTimestamp": "Timestamp of the acceptance",
          "_phoneHash": "The address that identifies to the customer"
        }
      },
      "topUpBilling(address,uint256)": {
        "details": "TopUp the last product of a customer (identified with `_phoneHash`) at timestamp `_paidTimestamp`",
        "params": {
          "_paidTimestamp": "Timestamp of the acceptance",
          "_phoneHash": "The address that identifies to the customer"
        }
      },
      "transferOwnership(address)": {
        "details": "Transfers ownership of the contract to a new account (`newOwner`). Can only be called by the current owner."
      },
      "trimOfferProposals(uint256[],uint8)": {
        "details": "Return a proposals based on table `_offerProposals` with only the first `_offerProposalsCount` proposals",
        "params": {
          "_offerProposals": "Initial proposals table",
          "_offerProposalsCount": "Number of proposals to retrieve in the initial table"
        },
        "returns": {
          "_0": "Proposals"
        }
      }
    },
    "title": "This Smart Contract is the entry point of Timelapse.",
    "version": 1
  },
  "userdoc": {
    "kind": "user",
    "methods": {
      "acceptance(address,string,uint256,uint256,uint256)": {
        "notice": "Accept the offer"
      },
      "acceptanceBilling(address,string,uint256,uint256)": {
        "notice": "Add an acceptance in the customer history"
      },
      "addProposal(uint8,uint256,uint256,string)": {
        "notice": "Add a proposal"
      },
      "addToScore(address)": {
        "notice": "Increase scoring information of a customer"
      },
      "changeScore(address,uint8)": {
        "notice": "Change the score of a customer"
      },
      "closedProposal(uint256)": {
        "notice": "Close a proposal"
      },
      "createProduct(address,uint256,uint256,uint256)": {
        "notice": "Create a product"
      },
      "getOfferProposals(uint8)": {
        "notice": "Get the proposals corresponding to the scoring"
      },
      "isActiveCustomer(address)": {
        "notice": "Inform if the customer is active"
      },
      "lowBalance(address,string)": {
        "notice": "Manage the \"low balances\" received and generate an offer"
      },
      "lowBalanceOffering(address,string,uint8)": {
        "notice": "Manage the \"low balances\" received and generate an offer"
      },
      "process((uint8,uint8,uint256,uint256,uint256,(string,uint256,uint256,uint8,uint256)[]))": {
        "notice": "Compute the score of a customer"
      },
      "proposalsCount()": {
        "notice": "Number of proposals"
      },
      "topUp(address,uint256)": {
        "notice": "TopUp the last product of a customer"
      },
      "topUpBilling(address,uint256)": {
        "notice": "TopUp the last product of a customer"
      },
      "trimOfferProposals(uint256[],uint8)": {
        "notice": "Create a trimmed table of the proposals"
      }
    },
    "notice": "Communicate with API(server/watcher) part and dApp",
    "version": 1
  }
}